:020000040800F2
:10000000D01300208D150008ED150008ED1500082F
:10001000ED150008ED150008ED15000800000000C2
:10002000000000000000000000000000ED150008C6
:10003000ED15000800000000ED150008B9250008C6
:10004000ED150008ED150008ED150008ED15000888
:10005000ED150008ED150008ED150008ED15000878
:10006000ED150008ED150008ED150008ED15000868
:10007000ED150008ED150008ED150008ED15000858
:10008000ED150008ED150008ED150008ED15000848
:1000900039230008ED150008ED150008ED150008DE
:1000A000ED15000859140008ED150008ED150008BD
:1000B00099140008ED1400083D150008ED1500081E
:1000C000ED150008ED150008ED1500080D010008FC
:1000D000ED1500081D34000805350008ED35000851
:1000E000ED150008ED150008ED15000800000000F2
:1000F0000000000000000000000000000000000000
:1001000000000000000000005FF808F180B500AFBB
:100110007121114802F008FF0346002B14BF012390
:100120000023DBB2002B04D002210B4802F036FF83
:100130000FE06021084802F0F7FE0346002B14BFD1
:1001400001230023DBB2002B03D00121024802F07F
:1001500025FF00BF80BD00BF0030014080B485B0E6
:1001600000AF786039600023FB817B681B88FB81CE
:100170007B682E4A934213D07B682D4A93420FD05E
:100180007B68B3F1804F0BD07B682A4A934207D03B
:100190007B68294A934203D07B68284A934208D15E
:1001A000FB8923F07003FB813B685A88FB8913436A
:1001B000FB817B68224A93420CD07B68214A9342A0
:1001C00008D0FB8923F44073FB813B68DA88FB8904
:1001D0001343FB817B68FA891A803B689A887B68A5
:1001E0009A853B681A887B681A857B680F4A934218
:1001F0000FD07B680E4A93420BD07B68124A934221
:1002000007D07B68114A934203D07B68104A93421F
:1002100004D13B681B7A9AB27B681A867B680122FC
:100220009A8200BF1437BD4680BC7047002C014045
:10023000003401400004004000080040000C004071
:100240000010004000140040004001400044014004
:100250000048014080B485B000AF78603960002369
:100260007B810023FB810023BB817B681B8C9BB2BD
:1002700023F001039AB27B681A847B681B8CFB8194
:100280007B689B88BB817B681B8B7B817B8923F090
:1002900070037B817B8923F003037B813B681A8891
:1002A0007B8913437B81FB8923F00203FB813B683D
:1002B0001A89FB891343FB813B685A88FB891343E6
:1002C000FB817B68244A93420FD07B68234A934288
:1002D0000BD07B68224A934207D07B68214A934225
:1002E00003D07B68204A934223D1FB8923F0080383
:1002F000FB813B685A89FB891343FB81FB8923F00F
:100300000403FB813B689A88FB891343FB81BB890B
:1003100023F48073BB81BB8923F40073BB813B68EA
:100320009A89BB891343BB813B68DA89BB89134334
:10033000BB817B68BA899A807B687A891A833B681B
:10034000DA887B689A867B68FA891A8400BF14373A
:10035000BD4680BC704700BF002C01400034014006
:1003600000400140004401400048014080B485B095
:1003700000AF7860396000237B810023FB8100237C
:10038000BB817B681B8C9BB223F010039AB27B6805
:100390001A847B681B8CFB817B689B88BB817B6894
:1003A0001B8B7B817B8923F4E0437B817B8923F456
:1003B00040737B813B681B881B029AB27B89134385
:1003C0007B81FB8923F02003FB813B681B891B0198
:1003D0009AB2FB891343FB813B685B881B019AB28D
:1003E000FB891343FB817B68224A934203D07B68DD
:1003F000214A93422BD1FB8923F08003FB813B6888
:100400005B891B019AB2FB891343FB81FB8923F0B3
:100410004003FB813B689B881B019AB2FB89134315
:10042000FB81BB8923F48063BB81BB8923F4006318
:10043000BB813B689B899B009AB2BB891343BB81FC
:100440003B68DB899B009AB2BB891343BB817B6805
:10045000BA899A807B687A891A833B68DA887B68D4
:100460001A877B68FA891A8400BF1437BD4680BC9E
:10047000704700BF002C01400034014080B485B0BB
:1004800000AF7860396000237B810023FB8100236B
:10049000BB817B681B8C9BB223F480739AB27B6810
:1004A0001A847B681B8CFB817B689B88BB817B6883
:1004B0009B8B7B817B8923F070037B817B8923F07D
:1004C00003037B813B681A887B8913437B81FB890B
:1004D00023F40073FB813B681B891B029AB2FB89E2
:1004E0001343FB813B685B881B029AB2FB89134371
:1004F000FB817B68224A934203D07B68214A934266
:100500002BD1FB8923F40063FB813B685B891B02D1
:100510009AB2FB891343FB81FB8923F48063FB813F
:100520003B689B881B029AB2FB891343FB81BB8902
:1005300023F48053BB81BB8923F40053BB813B6808
:100540009B891B019AB2BB891343BB813B68DB8942
:100550001B019AB2BB891343BB817B68BA899A801D
:100560007B687A899A833B68DA887B689A877B689C
:10057000FA891A8400BF1437BD4680BC704700BF9B
:10058000002C01400034014080B485B000AF786099
:1005900039600023BB8100237B810023FB817B68C2
:1005A0001B8C9BB223F480539AB27B681A847B68BD
:1005B0001B8C7B817B689B88FB817B689B8BBB81D1
:1005C000BB8923F4E043BB81BB8923F44073BB8127
:1005D0003B681B881B029AB2BB891343BB817B8992
:1005E00023F400537B813B681B891B039AB27B89F0
:1005F00013437B813B685B881B039AB27B8913435F
:100600007B817B68124A934203D07B68114A9342F4
:100610000AD1FB8923F48043FB813B689B899B01C2
:100620009AB2FB891343FB817B68FA899A807B68C5
:10063000BA899A833B68DA887B68A3F840207B6894
:100640007A891A8400BF1437BD4680BC704700BF4A
:10065000002C01400034014080B483B000AF7860CA
:1006600039603B681A883B685B8813439AB23B68E1
:100670009B8813439AB23B68DB8813439AB23B686A
:100680001B8913439AB23B685B8913439AB23B6858
:100690009B8913439AB27B68A3F8442000BF0C37B0
:1006A000BD4680BC704700BF80B483B000AF7860A7
:1006B0007B684FF6FF729A807B6800221A807B6805
:1006C0000022DA807B6800225A807B6800221A723E
:1006D00000BF0C37BD4680BC704700BF80B483B0FC
:1006E00000AF78607B6800221A807B6800225A8005
:1006F0007B6800229A807B680022DA807B68002277
:100700001A817B6800225A817B6800229A817B686B
:100710000022DA8100BF0C37BD4680BC704700BFA5
:1007200080B483B000AF78607B6800221A807B6859
:1007300000225A807B6800229A807B680022DA803F
:100740007B6800221A817B6800225A817B68002224
:100750009A8100BF0C37BD4680BC704780B483B01F
:1007600000AF78600B46FB70FB78002B08D07B68ED
:100770001B889BB243F001039AB27B681A8007E0A2
:100780007B681B889BB223F001039AB27B681A80B6
:1007900000BF0C37BD4680BC704700BF80B483B03B
:1007A00000AF78600B467B8013467B707B78002B14
:1007B00008D07B689B899AB27B8813439AB27B6886
:1007C0009A8109E07B689B899AB27B88DB439BB264
:1007D00013409AB27B689A8100BF0C37BD4680BC3B
:1007E000704700BF80B487B000AFF860084611467C
:1007F0001A4603467B810B463B811346FB80002350
:10080000FB820023BB8200237B82FB681B89FB8267
:10081000FB681B8BBB82FB681B8C7B82FB8A23F0F3
:100820000703FB82FA8A7B891343FB82BB8A23F48A
:10083000407323F00303BB82BB8A43F4807343F00D
:100840000103BB827B8A23F022037B82FB881B018E
:100850009AB23B8913439AB27B8A13437B82FB682B
:10086000FA8A1A81FB68BA8A1A83FB687A8A1A8420
:1008700000BF1C37BD4680BC704700BF80B483B04A
:1008800000AF78600B46FB70FB78002B08D07B68CC
:100890001B889BB243F080039AB27B681A8007E002
:1008A0007B681B889BB223F080039AB27B681A8016
:1008B00000BF0C37BD4680BC704700BF80B483B01A
:1008C00000AF78600B467B807B88DB439AB27B6805
:1008D0001A8200BF0C37BD4680BC704780B500AFA0
:1008E000154A154B1B6843F0010313601249124B64
:1008F0005A68124B13404B600F4A0F4B1B6823F092
:10090000847323F4803313600B4A0B4B1B6823F46E
:1009100080231360084A084B5B6823F4FE0353608E
:10092000054B4FF41F029A6000F00CF8044B4FF097
:1009300000629A6000BF80BD001002400000FFF816
:1009400000ED00E080B500AF00F002F800BF80BD10
:1009500080B483B000AF00237B6000233B603A4A41
:10096000394B1B6843F480331360374B1B6803F427
:1009700000333B607B6801337B603B68002B03D115
:100980007B68B3F5A06FF0D12F4B1B6803F40033E5
:10099000002B02D001233B6001E000233B603B6859
:1009A000012B4BD1294A294B1B6843F010031360DC
:1009B000264A264B1B6823F003031360234A234B6C
:1009C0001B6843F0020313601F4A1F4B5B685360B0
:1009D0001D4A1D4B5B6853601B4A1B4B5B6843F40D
:1009E00080635360184A184B5B6823F47C13536090
:1009F000154A154B5B6843F4E8135360124A124BD7
:100A00001B6843F08073136000BF0F4B1B6803F03B
:100A10000073002BF9D00C4A0B4B5B6823F00303E7
:100A20005360094A084B5B6843F00203536000BF00
:100A3000054B5B6803F00C03082BF9D100BF0C37A2
:100A4000BD4680BC704700BF00100240002002403D
:100A500080B584B000AFF860B96011461A460B4605
:100A6000FB801346BB80FB68FA881A81FB68BA6872
:100A70005A60FB68BA885A80FB683A8B5A81FB68D7
:100A80005B683A4A934208D1394B01221A60FB68ED
:100A90005B88184600F0DCF928E0FB685B68B3F17E
:100AA000804F08D1334B01221A60FB685B881846DF
:100AB00000F0CEF91AE0FB685B682F4A934208D138
:100AC0002E4B01221A60FB685B88184600F0E0F9A3
:100AD0000CE0FB685B682A4A934240D1294B012213
:100AE0001A60FB685B88184600F0F2F9FB681B8906
:100AF000013B032B35D801A252F823F00D0B00085F
:100B00001F0B0008310B0008430B0008FB685A68F4
:100B1000FB685B891946104600F072FA1AE0FB6820
:100B20005A68FB685B891946104600F08FFA11E09D
:100B3000FB685A68FB685B891946104600F0ACFAFE
:100B400008E0FB685A68FB685B891946104600F0AC
:100B5000C9FA00BF0021F86800F016F802E000BFF3
:100B600000E000BF1037BD4680BD00BF002C014033
:100B7000D8090020DC09002000040040E009002022
:100B800000080040E409002080B582B000AF786022
:100B90000B467B807B685B68384A934205D1384BB3
:100BA0001B68012B22D0012363E07B685B68B3F1F3
:100BB000804F05D1334B1B68012B17D0012358E020
:100BC0007B685B68304A934205D1304B1B68012B30
:100BD0000CD001234DE07B685B682D4A934205D120
:100BE0002C4B1B68012B01D0012342E07B685B8802
:100BF0007A889A4202D97B685B887B807B687A8896
:100C00001A807B681B89013B032B2FD801A252F865
:100C100023F000BF250C0008370C0008490C000821
:100C20005B0C00087B685A687B681B881946104675
:100C300000F07EFA1CE07B685A687B681B881946C6
:100C4000104600F083FA13E07B685A687B681B88C3
:100C50001946104600F088FA0AE07B685A687B68FB
:100C60001B881946104600F08DFA01E0012300E0D0
:100C7000002318460837BD4680BD00BF002C014048
:100C8000D8090020DC09002000040040E009002011
:100C900000080040E409002080B582B000AF786011
:100CA00039607B683A685A607B685B68164A934291
:100CB00005D1164B02221A6000F074FA1FE07B681F
:100CC0005B68B3F1804F05D1114B02221A6000F02E
:100CD00093FA14E07B685B680E4A934205D10E4B91
:100CE00002221A6000F0B2FA09E07B685B680B4AE6
:100CF000934204D10A4B02221A6000F0CFFA00BFDF
:100D00000837BD4680BD00BF002C0140D809002037
:100D1000DC09002000040040E00900200008004039
:100D2000E409002080B582B000AF786039607B684C
:100D30003A685A607B685B68204A93420AD1204B2C
:100D400003221A6041F6583000F046F8012000F006
:100D5000DFF830E07B685B68B3F1804F0AD1194B54
:100D600003221A6041F6583000F036F8012000F0F6
:100D7000EDF820E07B685B68134A93420AD1134B7D
:100D800003221A6041F6583000F026F8012000F0E6
:100D9000FBF810E07B685B680D4A93420AD10D4B6B
:100DA00003221A6041F6583000F016F8012000F0D6
:100DB00009F900E000BF0837BD4680BD002C0140A6
:100DC000D8090020DC09002000040040E0090020D0
:100DD00000080040E409002080B58AB000AF034657
:100DE000FB8001214FF4006001F056FD012101203C
:100DF00001F052FD07F11C031846FFF755FCFB8874
:100E00003B840023FB83002387F8243007F11C0375
:100E100019460E48FFF7A2F907F10C031846FFF731
:100E20007FFC4FF480433B8307F10C0319460748CE
:100E3000FFF712FC01210548FFF720FD01210348BF
:100E4000FFF78CFC00BF2837BD4680BD002C014059
:100E500080B586B000AF0346FB800121012001F080
:100E600039FD0121012001F017FD07F10C0318469F
:100E7000FFF71AFCFB883B8207F10C0319464FF081
:100E80008040FFF76BF900BF1837BD4680BD00BF3B
:100E900080B586B000AF0346FB800121022001F03F
:100EA00019FD0121012001F0F7FC07F10C031846A0
:100EB000FFF7FAFBFB883B8207F10C031946034856
:100EC000FFF74CF900BF1837BD4680BD0004004055
:100ED00080B586B000AF0346FB800121042001F0FD
:100EE000F9FC0121012001F0D7FC07F10C031846A1
:100EF000FFF7DAFBFB883B8207F10C031946034836
:100F0000FFF72CF900BF1837BD4680BD0008004030
:100F100080B584B000AF0346FB8019233B730023E8
:100F20007B730023BB730123FB7307F10C0318468B
:100F300001F098FFFB88012219460348FFF72EFCB9
:100F400000BF1037BD4680BD002C014080B584B085
:100F500000AF0346FB801C233B7300237B730023FD
:100F6000BB730123FB7307F10C03184601F07AFFF2
:100F7000FB88012219464FF08040FFF70FFC00BFAD
:100F80001037BD4680BD00BF80B584B000AF0346BA
:100F9000FB801D233B7300237B730023BB73012362
:100FA000FB7307F10C03184601F05CFFFB8801227C
:100FB00019460348FFF7F2FB00BF1037BD4680BD5E
:100FC0000004004080B584B000AF0346FB801E23C0
:100FD0003B7300237B730023BB730123FB7307F177
:100FE0000C03184601F03EFFFB8801221946034816
:100FF000FFF7D4FB00BF1037BD4680BD000800409E
:1010000080B586B000AF78600B467B8007F108039F
:101010001846FFF763FB7B883B8101237B8100231C
:10102000FB8100233B8207F1080319467868FFF72C
:1010300011F901217868FFF721FC01217868FFF799
:101040008DFB00BF1837BD4680BD00BF80B586B0A0
:1010500000AF78600B467B8007F108031846FFF766
:101060003DFB7B883B8101237B810023FB810023A7
:101070003B8207F1080319467868FFF777F90121E9
:101080007868FFF7FBFB01217868FFF767FB00BF7B
:101090001837BD4680BD00BF80B586B000AF786010
:1010A0000B467B8007F108031846FFF717FB7B8888
:1010B0003B8101237B810023FB8100233B8207F1DD
:1010C000080319467868FFF7D9F901217868FFF716
:1010D000D5FB01217868FFF741FB00BF1837BD46FB
:1010E00080BD00BF80B586B000AF78600B467B80C6
:1010F00007F108031846FFF7F1FA7B883B810123CB
:101100007B810023FB8100233B8207F10803194602
:101110007868FFF739FA01217868FFF7AFFB012102
:101120007868FFF71BFB00BF1837BD4680BD00BFC6
:1011300080B483B000AF78600B467B807B687A8890
:101140009A8600BF0C37BD4680BC704780B483B020
:1011500000AF78600B467B807B687A881A8700BF77
:101160000C37BD4680BC704780B483B000AF786058
:101170000B467B807B687A889A8700BF0C37BD4618
:1011800080BC704780B483B000AF78600B467B8032
:101190007B687A88A3F8402000BF0C37BD4680BC2E
:1011A000704700BF80B582B000AF19233B710023A8
:1011B0007B710023BB710123FB713B1D184601F0BD
:1011C00051FE01214FF4006001F066FB0023002274
:1011D00003210848FFF706FB012201210548FFF71C
:1011E000DDFA01210348FFF7B9FA00BF0837BD4611
:1011F00080BD00BF002C014080B582B000AF1C2331
:101200003B7100237B710023BB710123FB713B1DEC
:10121000184601F027FE0121012001F05BFB0023AD
:10122000002203214FF08040FFF7DCFA0122012168
:101230004FF08040FFF7B2FA01214FF08040FFF7F6
:101240008DFA00BF0837BD4680BD00BF80B582B0B3
:1012500000AF1D233B7100237B710023BB71012371
:10126000FB713B1D184601F0FDFD0121022001F03C
:1012700031FB0023002203210748FFF7B3FA0122C4
:1012800001210548FFF78AFA01210348FFF766FAB2
:1012900000BF0837BD4680BD0004004080B582B065
:1012A00000AF1E233B7100237B710023BB71012320
:1012B000FB713B1D184601F0D5FD0121042001F012
:1012C00009FB0023002203210748FFF78BFA0122C4
:1012D00001210548FFF762FA01210348FFF73EFAB2
:1012E00000BF0837BD4680BD0008004080B400AF95
:1012F0000C4B9B8C9BB21BB2DB439BB2DB0BDBB278
:10130000002B05D0084B1B680133074A136004E02B
:10131000054B1B68013B044A136000BFBD4680BCFF
:10132000704700BF002C0140E809002080B400AFE6
:101330004FF080439B8C9BB21BB2DB439BB2DB0B19
:10134000DBB2002B05D0074B1B680133054A136045
:1013500004E0044B1B68013B024A136000BFBD461A
:1013600080BC7047EC09002080B400AF0C4B9B8C14
:101370009BB21BB2DB439BB2DB0BDBB2002B05D075
:10138000084B1B680133074A136004E0054B1B68D8
:10139000013B044A136000BFBD4680BC704700BFDC
:1013A00000040040F009002080B400AF0C4B9B8C7F
:1013B0009BB21BB2DB439BB2DB0BDBB2002B05D035
:1013C000084B1B680133074A136004E0054B1B6898
:1013D000013B044A136000BFBD4680BC704700BF9C
:1013E00000080040F409002080B400AF044B1B68E3
:1013F0000133034A136000BFBD4680BC704700BF85
:10140000E809002080B400AF044B1B680133034A95
:10141000136000BFBD4680BC704700BFEC090020D0
:1014200080B400AF044B1B680133034A136000BF54
:10143000BD4680BC704700BFF009002080B400AFFB
:10144000044B1B680133034A136000BFBD4680BCD8
:10145000704700BFF409002080B500AF0C4B1B683B
:10146000022B02D1FFF742FF0CE0094B1B68012B56
:1014700002D1FFF73BFF05E0054B1B68032B01D1B1
:10148000FFF7B2FF01210348FFF718FA00BF80BD44
:10149000D8090020002C014080B500AF124B1B681A
:1014A000022B07D1FFF742FF01214FF08040FFF7E9
:1014B00005FA16E00C4B1B68012B07D1FFF736FF2E
:1014C00001214FF08040FFF7F9F90AE0064B1B6855
:1014D000032B06D1FFF796FF01214FF08040FFF765
:1014E000EDF900BF80BD00BFDC09002080B500AF72
:1014F000104B1B68022B06D1FFF736FF01210E4867
:10150000FFF7DCF914E00B4B1B68012B06D1FFF74A
:101510002BFF01210848FFF7D1F909E0054B1B68B3
:10152000032B05D1FFF77CFF01210348FFF7C6F924
:1015300000BF80BDE00900200004004080B500AF7E
:10154000104B1B68022B06D1FFF72EFF01210E481E
:10155000FFF7B4F914E00B4B1B68012B06D1FFF722
:1015600023FF01210848FFF7A9F909E0054B1B6893
:10157000032B05D1FFF762FF01210348FFF79EF916
:1015800000BF80BDE40900200008004080B582B0A3
:1015900000AF114B7B60114B3B6007E03B681A1DAD
:1015A0003A607A68111D796012681A603B680C4ACB
:1015B0009342F3D30B480C494FF000028842B8BF66
:1015C00040F8042BFADBFFF789F900F0C5FB00BFF8
:1015D0000837BD4680BD00BFEC9700080000002022
:1015E000D8090020D8090020D00F002080B400AF17
:1015F000FEE700BF80B582B000AF78607B680E4A1E
:1016000093420AD101214FF0007001F081F90021CD
:101610004FF0007001F07CF909E001214FF080608B
:1016200001F076F900214FF0806001F071F900BF00
:101630000837BD4680BD00BF0064004080B485B05F
:1016400000AF786039600023FB730023BB607B68C8
:101650001B6823F002027B681A607B681B6843F0FA
:1016600001027B681A6002E0BB680133BB607B68E3
:101670005B6803F00103002B04D1BB684FF6FF72D7
:101680009342F1D17B685B6803F00103002B02D128
:101690000023FB739CE03B689B79012B06D17B68A0
:1016A0001B6843F080027B681A6005E07B681B685A
:1016B00023F080027B681A603B68DB79012B06D13E
:1016C0007B681B6843F040027B681A6005E07B681A
:1016D0001B6823F040027B681A603B681B7A012B71
:1016E00006D17B681B6843F020027B681A6005E026
:1016F0007B681B6823F020027B681A603B685B7A7A
:10170000012B06D17B681B6843F010027B681A60CE
:1017100005E07B681B6823F010027B681A603B6859
:101720009B7A012B06D17B681B6843F008027B681B
:101730001A6005E07B681B6823F008027B681A606A
:101740003B68DB7A012B06D17B681B6843F00402FF
:101750007B681A6005E07B681B6823F004027B68E5
:101760001A603B689B789A073B68DB781B061A4334
:101770003B681B791B041A433B685B791B051A43C2
:101780003B681B88013B1A437B68DA617B681B68F6
:1017900023F001027B681A600023BB6002E0BB6893
:1017A0000133BB607B685B6803F00103002B04D04E
:1017B000BB684FF6FF729342F1D17B685B6803F020
:1017C0000103002B02D00023FB7301E00123FB7314
:1017D000FB7B18461437BD4680BC704780B485B08B
:1017E00000AF78600023FB607B689B7A1A46012378
:1017F0009340FB60554A554BD3F8003243F0010348
:10180000C2F800325149514BD3F81C22FB68DB432C
:101810001340C1F81C327B681B7B002B25D14B4940
:101820004A4BD3F80C22FB68DB431340C1F80C325F
:1018300046497B689B7A18467B68DB881B047A687C
:1018400052881A4300F1480341F833203F497B682E
:101850009B7A18467B689B881B047A6812881A4317
:1018600000F14803DB000B445A607B681B7B012BB3
:1018700024D13649354BD3F80C22FB681343C1F809
:101880000C3232497B689B7A18467B681B881B04A4
:101890007A6852881A4300F1480341F833202B49F3
:1018A0007B689B7A18467B689B881B047A68D28881
:1018B0001A4300F14803DB000B445A607B68DB7A73
:1018C000002B09D12149214BD3F80422FB68DB43CB
:1018D0001340C1F8043207E01C491C4BD3F8042222
:1018E000FB681343C1F804327B681B89002B08D1C5
:1018F0001649164BD3F81422FB68DB431340C1F89A
:1019000014327B681B89012B07D110490F4BD3F888
:101910001422FB681343C1F814327B685B7B012BF4
:1019200007D10A49094BD3F81C22FB681343C1F8BD
:101930001C32064A054BD3F8003223F00103C2F8EB
:10194000003200BF1437BD4680BC704700640040C1
:1019500080B483B000AF78607B6800229A717B68A6
:101960000022DA717B6800221A727B6800225A72A8
:101970007B6800229A727B680022DA727B68002200
:101980009A707B680022DA707B6803221A717B6888
:1019900002225A717B6801221A8000BF0C37BD46B3
:1019A00080BC704780B485B000AFF8600B467A60A9
:1019B000FB72FB7AFA681B331B0113441B68DBB212
:1019C00003F00403DAB27B681A727B681B7A002B7F
:1019D00009D1FB7AFA681B331B0113441B685A0DAB
:1019E0007B681A6008E0FB7AFA681B331B0113441A
:1019F0001B68DA087B685A60FB7AFA681B331B01A4
:101A000013441B68DBB203F00203DAB27B685A723C
:101A1000FB7AFA681B331B01134404331B68DBB2E7
:101A200003F00F03DAB27B689A72FB7AFA681B3311
:101A30001B01134404331B681B0ADAB27B68DA7497
:101A4000FB7AFA681B01134403F5DC731B68DAB2F6
:101A50007B68DA72FB7AFA681B01134403F5DC73C6
:101A60001B681B0ADAB27B681A73FB7AFA681B01DF
:101A7000134403F5DC731B681B0CDAB27B685A73E2
:101A8000FB7AFA681B01134403F5DC731B681B0E19
:101A9000DAB27B689A73FB7AFA681B01134403F588
:101AA000DE731B68DAB27B68DA73FB7AFA681B01B3
:101AB000134403F5DE731B681B0ADAB27B681A74E1
:101AC000FB7AFA681B01134403F5DE731B681B0CD9
:101AD000DAB27B685A74FB7AFA681B01134403F587
:101AE000DE731B681B0EDAB27B689A74FB7A002BDC
:101AF00006D1FB68DB6843F02002FB68DA6005E092
:101B0000FB681B6943F02002FB681A6100BF1437B1
:101B1000BD4680BC704700BF80B485B000AFF860A0
:101B2000B9601346FB71FB79002B06D0FB685A693C
:101B3000BB681A43FB685A6106E0FB685A69BB68D8
:101B4000DB431A40FB685A6100BF1437BD4680BCB6
:101B5000704700BF80B489B000AF7860396000235F
:101B6000FB6100233B610023BB610023FB6000237A
:101B70007B610023BB603B68DB7803F00F03FB61F4
:101B80003B68DB7803F01003002B05D03B689B78A3
:101B90001A46FB691343FB613B681B88DBB2002BD1
:101BA00044D07B681B687B610023BB6138E0012265
:101BB000BB6902FA03F3FB603B681B881A46FB68AB
:101BC00013403B613A69FB689A4226D1BB699B008E
:101BD000FB600F22FB6802FA03F3BB60BB68DB43C8
:101BE0007A6913407B61FA69FB6802FA03F37A6948
:101BF00013437B613B68DB78282B05D10122BB694D
:101C00009A407B685A6108E03B68DB78482B04D136
:101C10000122BB699A407B681A61BB690133BB61D1
:101C2000BB69072BC3D97B687A691A603B681B883C
:101C3000FF2B46D97B685B687B610023BB613AE080
:101C4000BB690833012202FA03F3FB603B681B887F
:101C50001A46FB6813403B613A69FB689A4227D1F8
:101C6000BB699B00FB600F22FB6802FA03F3BB60B9
:101C7000BB68DB437A6913407B61FA69FB6802FA4F
:101C800003F37A6913437B613B68DB78282B05D12A
:101C9000BB69083301229A407B685A613B68DB7854
:101CA000482B05D1BB69083301229A407B681A6131
:101CB000BB690133BB61BB69072BC1D97B687A69FA
:101CC0005A6000BF2437BD4680BC704780B483B0E3
:101CD00000AF78607B684FF6FF721A807B68022243
:101CE0009A707B680422DA7000BF0C37BD4680BC56
:101CF000704700BF80B485B000AF78600B467B8032
:101D00000023FB737B689A687B881340002B02D00A
:101D10000123FB7301E00023FB73FB7B18461437A0
:101D2000BD4680BC704700BF80B483B000AF786010
:101D30000B467B8013467B707B78002B03D07A8820
:101D40007B681A6102E07A887B685A6100BF0C37B1
:101D5000BD4680BC704700BFB0B584B002AF002361
:101D60007B6000F0C5FBBE49BE48FEF7DBFF4823A1
:101D70000122BD49BD4800F0E9FD48230222BA49CD
:101D8000BB4800F0E3FD48234022B749B94800F0C2
:101D9000DDFD48238022B449B74800F0D7FD4FF05D
:101DA0008041B648FEF778FFB549B648FEF774FFA4
:101DB00048230422AC49B44800F0C8FD4823082257
:101DC000A949B24800F0C2FD10234FF40052B049B7
:101DD000B04800F0BBFD10234FF48042AC49AE4840
:101DE00000F0B4FD10234FF40042A949AB4800F0C5
:101DF000ADFD102310229C49A94800F0A7FD102337
:101E000020229949A74800F0A1FD10230122A649EC
:101E1000A64800F09BFD0021A14800F0D5FD00215F
:101E2000A04800F0D1FD482304229F49A04800F0BB
:101E30008DFD48234FF480629B499E4800F086FD4B
:101E40004823022298499C4800F080FD48234FF423
:101E500000629549994800F079FD954800F0C8FD69
:101E60000346DCB2944800F0C3FD0346DDB293485C
:101E700000F0BEFD0346DBB25B00DBB22B44DBB2FD
:101E80005B00DDB28B4800F0B3FD0346DBB22B44B0
:101E9000DBB25B00DBB22344DBB2C3F10F03DAB287
:101EA000874B1A7010234FF480527F49854800F009
:101EB0004DFD10234FF400527B49834800F046FD4E
:101EC00010234FF480427849804800F03FFD1023F2
:101ED0004FF4004274497E4800F038FD10234FF45F
:101EE000807261497B4800F031FD18234FF4007285
:101EF0005D49794800F02AFD04234FF480625A4975
:101F0000764800F023FD18234FF480525649744858
:101F100000F01CFD04234FF400625349714800F0A7
:101F200015FD18234FF480725F496F4800F00EFDD5
:101F300018234FF400725C496C4800F007FD182329
:101F4000402259496A4800F001FD18238022564971
:101F5000684800F0FBFC0021634800F035FD0021DB
:101F6000624800F031FD0021614800F02DFD0021A4
:101F7000604800F029FD0121524800F025FD642051
:101F800000F0C8FA00214F4800F01EFD60230093C6
:101F90004FF40063032258495848FEF759FD602367
:101FA00000934FF40063042253495548FEF750FD57
:101FB000602300934FF4006301224F495148FEF71C
:101FC00047FD602300934FF4006302224A494E48C4
:101FD000FEF73EFD4A4A49494C4800F01BFD4A4A7B
:101FE00048494B4800F016FD4FF480614348FEF726
:101FF000CBFD4FF480614248FEF7C6FD4FF480618F
:102000004048FEF7C1FD4FF480613F48FEF7BCFD3C
:1020100001212C4800F0D8FC4FF461223D493E4894
:1020200001F014F83D4A3E493B4800F0EFFF3D4ABD
:102030003D49394800F0EAFF3C4A3D49364800F046
:10204000E5FF1F4B1B781A463A49334800F0DEFF84
:102050000D4800F0CDFC0346002B08BF01236BE0C8
:10206000002C0140E80B0020000801405C0A002021
:10207000680A0020740A0020800A0020240C002036
:1020800000040040300C00208C0A0020980A002038
:1020900000100140C40B0020D00B0020DC0B0020FE
:1020A000B00A0020BC0A0020000C0140A40A002055
:1020B000C80A0020D40A0020E00A0020EC0A002010
:1020C000080A0020F80A0020040B0020100B002052
:1020D0001C0B0020280B0020340B0020400B00209C
:1020E0004C0B0020580B0020940B0020A00B00206C
:1020F000AC0B0020B80B002000080040F40B0020BF
:10210000000C00200C0C0020180C0020400C0020BB
:10211000480C0020003801403C0C00200C900008C6
:102120004C9000085C9000086890000874900008CB
:10213000809000088C90000818BF0023DBB2002BB1
:1021400006D06F4B01221A706E496F4800F05EFF97
:102150006E4800F04DFC0346002B0CBF012300230A
:10216000DBB2002B06D06A4B01221A70694966481F
:1021700000F04CFF684800F03BFC0346002B05D004
:10218000624800F035FC0346002B01D1012300E03A
:102190000023002B00D0EDE74FF4FA7000F0BAF9FD
:1021A0005E495F4800F018FA00230093002340F2D4
:1021B00005124FF482715A4800F024FA594A4FF040
:1021C00000034FF00004C2E90034574A4FF0000307
:1021D0004FF00004C2E90034524B18CB13F16401F4
:1021E00044F100020C46154600F0D6F902460B46B3
:1021F0009D4208BF944234BF01230023DBB2002B71
:1022000003D00021494800F017FC474B18CB13F1CD
:10221000640144F100020C46154600F0BDF9024687
:102220000B469D4208BF944234BF01230023DBB21A
:10223000002B03D000213E4800F0FEFB364800F0A2
:10224000D7FB0346002B0CBF01230023DBB2002B7E
:102250001ED02B4B1B78012B0AD1C821334800F02C
:10226000EBFB00F099F903460C462E4AC2E9003414
:10227000274B1B78012B36D100F08EF903460C4614
:10228000294AC2E90034C821294800F0D5FB2AE0D8
:102290001E4800F0ADFB0346002B0CBF01230023BA
:1022A000DBB2002B1FD0164B1B78012B0BD16FF02C
:1022B000C7011E4800F0C0FB00F06EF903460C4653
:1022C000184AC2E90034124B1B78012B0BD100F0E5
:1022D00063F903460C46144AC2E900346FF0C701A3
:1022E000134800F0A9FB134B1B88002B3FF474AF7D
:1022F000104B1B88013B9AB20E4B1A80F3E700BFCC
:10230000680C0020989000083C0C0020980A0020DF
:10231000690C0020BC9000088C0A0020006400407A
:10232000500C0020280A0020300A0020400C002019
:10233000480C0020F809002098B500AF3B4B1B88E3
:1023400001339AB2394B1A80394A00213948FFF7D4
:1023500029FB374B1B68B3F5827F2BD1364B00220C
:102360001A6000F019F903460C46344AC2E90034F9
:102370002F4B1B7B1B0203F4FE432D4AD27A1343DF
:102380002D4A13602A4B1B7BDB11012B02D12A4BF8
:1023900000221A60284B1B68002B00DA1F335B11E8
:1023A0001A46254B1A60244B1B681946244800F036
:1023B00043FB30E01E4B1B6840F2051293422AD1CA
:1023C000204B00221A6000F0E7F803460C461E4A34
:1023D000C2E90034164B1B7B1B0203F4FE43144A74
:1023E000D27A1343174A1360114B1B7BDB11012B6D
:1023F00002D1144B00221A60124B1B68002B00DA2A
:102400001F335B111A460F4B1A600E4B1B6819469F
:102410000E4800F011FB084B1A680A4B1B680C4968
:102420000C4800F0F3FD00BF98BD00BFF809002084
:10243000480A0020006400401C0A0020280A0020EE
:10244000400C0020200A0020300A0020480C002008
:10245000E09000083C0C002080B483B000AF03463D
:102460003960FB7197F90730002B0BDA0D49FB79C6
:1024700003F00F03043B3A68D2B21201D2B20B440C
:102480001A7609E0084997F907303A68D2B2120182
:10249000D2B20B4483F8002300BF0C37BD4680BC8A
:1024A000704700BF00ED00E000E100E080B582B0C1
:1024B00000AF78607B68B3F1807F01D3012311E026
:1024C0000A4A7B6823F07F43013B53600F214FF0A2
:1024D000FF30FFF7C1FF054B00229A60034B072234
:1024E0001A60002318460837BD4680BD10E000E0A2
:1024F00080B500AF054B1B685B09054AA2FB0323AF
:10250000DB091846FFF7D2FF00BF80BD00000020A6
:10251000C55A7C0AB0B584B000AF78607B684FF4D0
:102520007A7202FB03F31C464FF0000500F01EF820
:1025300002460B46A01845EB030103460C46C7E9CB
:10254000023400F013F80A460146D7E90234A242E9
:1025500008BF994234BF01230023DBB2002B00D017
:10256000EFE700BF1037BD46B0BD00BF90B400AF6D
:10257000084B18CBDB1844EB0404A20042EA937228
:1025800099005B1844EB020418462146BD4690BCF6
:10259000704700BF700C002098B500AFFFF7E6FF52
:1025A0004FF47A724FF0000301F094F803460C46A2
:1025B0001846214698BD00BF90B400AF054B18CB1C
:1025C000013344F10004034AC2E9003400BFBD46B0
:1025D00090BC7047700C002080B582B000AF78606E
:1025E00039607B683A681A607B681B68044A9342CA
:1025F00001D100F01FF800BF0837BD4680BD00BF05
:102600000064004080B584B000AFF8600846114611
:102610001A4603467B810B463B811346FB803B8B6E
:10262000FA883989788900F045F800BF1037BD462F
:1026300080BD00BF80B584B000AF1D48FEF7DAFF53
:1026400001214FF0007000F045F93B1D1846FFF7DF
:102650007FF90123BB720023FB7200233B7300232D
:102660007B730023FB730023BB710023FB710423E6
:102670003B7205237B720323BB803B1D19460C482C
:10268000FEF7DCFF14233B7000237B700123BB703B
:102690000123FB703B46184600F0E4FB01220221B7
:1026A0000348FFF739FA00BF1037BD4680BD00BFB1
:1026B0000064004090B587B000AF0446084611465C
:1026C0001A462346FB800346BB800B467B8013469D
:1026D0003B80184B1B880D2B27D8164B1B88DBB271
:1026E000BB740123FB7400233B75FB885B019BB229
:1026F0007B81BB885B019BB2FB817B885B019BB2CA
:102700003B813B885B019BB2BB8100233B82012361
:102710007B7507F108031846FFF760F8054B1B8827
:1027200001339AB2034B1A8000E000BF1C37BD464C
:1027300090BD00BF780C002080B487B000AF7860F7
:1027400000237B6100233B610023FB600023BB600F
:102750004C4B5B6803F00C037B617B69042B07D057
:10276000082B09D0002B33D17B68474A1A6033E02D
:102770007B68454A1A602FE0424B5B6803F4701394
:102780003B61404B5B6803F48033FB603B699B0C0F
:1027900002333B61FB68002B06D13B693B4A02FBDD
:1027A00003F27B681A6017E0364B5B6803F4003372
:1027B000002B06D03B69354A02FB03F27B681A60A6
:1027C0000AE03B69304A02FB03F27B681A6003E0CF
:1027D0007B682D4A1A6000BF2A4B5B6803F0F00348
:1027E0007B617B691B097B61294A7B6913441B78E8
:1027F000DBB2BB607B681A68BB68DA407B685A60F2
:10280000204B5B6803F4E0637B617B691B0A7B619F
:102810001F4A7B6913441B78DBB2BB607B685A6834
:10282000BB68DA407B689A60164B5B6803F46053C0
:102830007B617B69DB0A7B61154A7B6913441B78EA
:10284000DBB2BB607B685A68BB68DA407B68DA60E1
:102850000C4B5B6803F440437B617B699B0B7B61A2
:102860000C4A7B6913441B78DBB2BB607B68DA6877
:10287000BB68B2FBF3F27B681A6100BF1C37BD4630
:1028800080BC70470010024000127A0000093D0031
:10289000140000202400002080B483B000AF7860D2
:1028A0000B46FB70FB78002B06D00949084B9A6950
:1028B0007B6813438B6106E00549054B9A697B6889
:1028C000DB4313408B6100BF0C37BD4680BC7047B3
:1028D0000010024080B483B000AF78600B46FB70FC
:1028E000FB78002B06D00949084BDA697B68134353
:1028F000CB6106E00549054BDA697B68DB43134091
:10290000CB6100BF0C37BD4680BC70470010024051
:1029100080B483B000AF78600B46FB70FB78002B6F
:1029200006D00949084B1A697B6813430B6106E01E
:102930000549054B1A697B68DB4313400B6100BFF7
:102940000C37BD4680BC70470010024080B586B091
:1029500000AFF860B96011461A460B46FB8013467B
:102960007B71FB68FA881A80FB68BA685A6001219B
:102970000420FFF791FF01210820FFF78DFF0121BF
:102980001020FFF789FF01212020FFF785FFFB685A
:102990007A791A7207F114031846FFF797F9FB6862
:1029A0001B88BB82FB681B7AFB750323BB75FB6826
:1029B0005B6807F1140211461846FFF7CBF800BF19
:1029C0001837BD4680BD00BF80B582B000AF7860CB
:1029D0000B46FB707B6858687B681B88FA78194641
:1029E000FFF7A2F9002318460837BD4680BD00BF97
:1029F00080B582B000AF78607B685A687B681B88BE
:102A000019461046FFF776F903469BB21846083779
:102A1000BD4680BD80B485B000AFF860B9607A6013
:102A2000FB68BA681A60FB687A685A6000BF14379E
:102A3000BD4680BC704700BF80B584B000AF7860F1
:102A400039607B681B685B885B089BB2323BFB810B
:102A5000FA893B689A4201DAFB893B60FB895A425A
:102A60003B689A4202DDFB895B423B607B681868E9
:102A70007B681B685B885B089AB23B689BB2D31A81
:102A80009BB21946FEF780F87B6858687B685B68E4
:102A90005B885B089AB23B689BB213449BB21946B1
:102AA000FEF772F800BF1037BD4680BD80B58CB010
:102AB00000AF786039600023FB620023BB62002313
:102AC0007B6200233B620023FB617B68FB617B68C8
:102AD0001B8A9BB2FB62FA6A4CF6FF731340FB62DF
:102AE0003B68DB881A46FB6A1343FB62FB6A9AB2B7
:102AF0007B681A827B689B899BB2FB62FA6A4EF6FE
:102B0000F3131340FB623B689A883B681B891343AD
:102B10009AB23B685B8913439BB21A46FB6A134324
:102B2000FB62FB6A9AB27B689A817B689B8A9BB244
:102B3000FB62FA6A4FF6FF431340FB623B689B89D6
:102B40001A46FB6A1343FB62FB6A9AB27B689A825D
:102B500007F108031846FFF7EFFDFB692E4A934281
:102B600002D17B69BB6201E03B69BB627B689B89E8
:102B70009BB21BB2002B0CDABA6A13469B001344BB
:102B80009A001A443B681B685B00B2FBF3F37B625C
:102B90000BE0BA6A13469B0013449A001A443B6840
:102BA0001B689B00B2FBF3F37B627B6A1B4AA2FBB0
:102BB00003235B091B01FB62FB6A1B09642202FB06
:102BC00003F37A6AD31A3B627B689B899BB21BB280
:102BD000002B0CDA3B6ADB003233104AA2FB0323E2
:102BE0005B0903F00703FA6A1343FB620BE03B6ADD
:102BF0001B013233094AA2FB03235B0903F00F03D5
:102C0000FA6A1343FB62FB6A9AB27B681A8100BFBF
:102C10003037BD4680BD00BF003801401F85EB51F5
:102C200080B483B000AF78607B684FF416521A60AE
:102C30007B6800229A807B680022DA807B68002211
:102C40001A817B680C225A817B6800229A8100BF1E
:102C50000C37BD4680BC704780B483B000AF78604D
:102C60000B46FB70FB78002B08D07B689B899BB2DE
:102C700043F400539AB27B689A8107E07B689B8992
:102C80009BB223F400539AB27B689A8100BF0C3741
:102C9000BD4680BC704700BF80B487B000AF78608D
:102CA0000B467B8013467B7000233B610023FB6057
:102CB0000023BB6000237B617B687B617B88DBB288
:102CC0005B09DBB23B617B8803F01F03FB600122E1
:102CD000FB6802FA03F3BB603B69012B03D17B69FC
:102CE0000C337B6109E03B69022B03D17B69103314
:102CF0007B6102E07B6914337B617B78002B06D01B
:102D00007B697A691168BA680A431A6006E07B69D0
:102D10007A691168BA68D2430A401A6000BF1C374A
:102D2000BD4680BC704700BF80B483B000AF786000
:102D30000B467B807B88C3F308039AB27B689A803A
:102D400000BF0C37BD4680BC704700BF80B483B065
:102D500000AF78607B689B889BB2C3F308039BB28B
:102D600018460C37BD4680BC704700BF80B487B0A2
:102D700000AF78600B467B800023FB6000237B6103
:102D80000023BB600023FB747B88DBB25B09DBB2F2
:102D9000BB607B8803F01F037B6101227B6902FA21
:102DA00003F37B61BB68012B07D17B689B899BB2D6
:102DB0001A467B6913407B6111E0BB68022B07D187
:102DC0007B681B8A9BB21A467B6913407B6106E0D5
:102DD0007B689B8A9BB21A467B6913407B617B8828
:102DE0001B0A9BB2FB600122FB6802FA03F3FB6043
:102DF0007B681B889BB21A46FB681340FB607B69AB
:102E0000002B05D0FB68002B02D00123FB7401E0EE
:102E10000023FB74FB7C18461C37BD4680BC704702
:102E200080B485B000AF78600A4B1B68002B02D1DC
:102E3000084B094A1A60074B1B68FB60054B1A6870
:102E40007B681344034A1360FB6818461437BD4679
:102E500080BC70477C0C0020D00F002080B400AFF5
:102E6000FEE700BF80B487B000AF786000237B61CD
:102E700000233B610F23FB607B68DB78002B3AD09B
:102E8000274BDB68DB4303F4E0631B0A7B617B6950
:102E9000C3F104033B61FA687B6922FA03F3FB6028
:102EA0007B685B781A463B6902FA03F37B617B68B7
:102EB0009B781A46FB6813407A6913437B617B69F0
:102EC0001B017B61174A7B681B787969C9B213447F
:102ED0000A4683F80023134A7B681B785B09DBB240
:102EE00018467B681B7803F01F03012101FA03F3E6
:102EF00042F820300FE00B497B681B785B09DBB29E
:102F000018467B681B7803F01F0301229A4000F1EA
:102F1000200341F8232000BF1C37BD4680BC70470A
:102F200000ED00E000E100E080B485B000AF786023
:102F30000B46FB700023FB730023BB8100237B81C6
:102F400000233B81FB7803F00F03012202FA03F315
:102F5000BB81FB781B09DBB27B817B89012202FAF2
:102F600003F37B817B689B889AB27B8913403B810A
:102F70007B681B899AB2BB8913409BB2002B05D09A
:102F80003B89002B02D00123FB7301E00023FB737C
:102F9000FB7B18461437BD4680BC704780B485B0B3
:102FA00000AF78600B46FB700023FB81FB7803F0D9
:102FB0000F03012202FA03F3FB81FB89DB439AB280
:102FC0007B681A8100BF1437BD4680BC704700BFC4
:102FD00080B584B000AF786039600023FB60FB6887
:102FE0003A6813441B78002B0BD0FB683A681344F3
:102FF0001B781946786800F081F8FB680133FB60A4
:10300000EDE700BF1037BD4680BD00BF0EB480B5F0
:10301000A5B000AF786007F1A003C7F88C3007F1C6
:103020000C03D7F88C20D7F89C10184601F0E4FC6C
:1030300007F10C0319467868FFF7CAFF00BF943701
:10304000BD46BDE8804003B0704700BF80B584B086
:1030500000AFF860B9607A60FB68BA681A60FB6814
:103060001B68234A934211D1786800F005F940F2B9
:10307000255000F07FF940F2277000F07BF9012223
:1030800040F227711A48FFF707FE2CE0FB681B6827
:10309000184A934211D1786800F018F940F225508F
:1030A00000F084F940F2277000F080F9012240F22C
:1030B00027711048FFF7F0FD15E0FB681B680E4A0A
:1030C000934210D1786800F02BF940F2255000F0BF
:1030D00089F940F2277000F085F9012240F227714A
:1030E0000548FFF7D9FD00BF1037BD4680BD00BFC2
:1030F00000380140004400400048004080B582B0E4
:1031000000AF78600B46FB707B681B684E4A9342A9
:103110002ED1012240F227714B48FFF7BDFD4B4BEA
:103120001B881A464A4B1B8801339A420CD1474BE5
:103130001B8801339AB2454B1A80444B1B887F2B66
:1031400002D9424B00221A80414B1B881946414A42
:10315000FB7853543E4B1B8801339AB23C4B1A8088
:103160003B4B1B887F2B6AD9394B00221A8066E0C3
:103170007B681B68384A93422ED1012240F22771A6
:103180003548FFF789FD354B1B881A46344B1B88A1
:1031900001339A420CD1314B1B8801339AB22F4B29
:1031A0001A802E4B1B887F2B02D92C4B00221A80B1
:1031B0002B4B1B8819462B4AFB785354284B1B88F2
:1031C00001339AB2264B1A80254B1B887F2B36D9A8
:1031D000234B00221A8032E07B681B68224A93420C
:1031E0002DD1012240F227711F48FFF755FD1F4BDB
:1031F0001B881A461E4B1B8801339A420CD11B4B6D
:103200001B8801339AB2194B1A80184B1B887F2BED
:1032100002D9164B00221A80154B1B881946154AF5
:10322000FB785354124B1B8801339AB2104B1A800F
:103230000F4B1B887F2B02D90D4B00221A8000BF39
:103240000837BD4680BD00BF003801408C0E00200D
:103250008E0E00200C0E002000440040100F0020B5
:10326000120F0020900E002000480040940F002014
:10327000960F0020140F002080B586B000AF786054
:1032800001214FF48040FFF707FB07F108031846C0
:10329000FFF7C6FC7B68BB600C237B8200233B826C
:1032A0004FF40053FB810023BB8107F1080319464B
:1032B0000548FFF7FBFB01210348FFF7CDFC00BFEA
:1032C0001837BD4680BD00BF0038014080B586B0CC
:1032D00000AF786001214FF40030FFF7FBFA07F1EF
:1032E00008031846FFF79CFC7B68BB600C237B82BD
:1032F00000233B824FF40053FB810023BB8107F185
:10330000080319460548FFF7D1FB01210348FFF7E1
:10331000A3FC00BF1837BD4680BD00BF004400407D
:1033200080B586B000AF786001214FF48020FFF7B0
:10333000D1FA07F108031846FFF772FC7B68BB60FF
:103340000C237B8200233B824FF40053FB8100233C
:10335000BB8107F1080319460548FFF7A7FB0121C8
:103360000348FFF779FC00BF1837BD4680BD00BF9A
:103370000048004080B584B000AF0346FB802523A1
:103380003B730023BB730123FB7307F10C03184647
:10339000FFF768FDFB88012219460348FFF77CFC14
:1033A00000BF1037BD4680BD0038014080B584B0F5
:1033B00000AF0346FB8026233B730023BB7301232E
:1033C000FB7307F10C031846FFF74CFDFB88012245
:1033D00019460348FFF760FC00BF1037BD4680BDAB
:1033E0000044004080B584B000AF0346FB80272333
:1033F0003B730023BB730123FB7307F10C031846D7
:10340000FFF730FDFB88012219460348FFF744FC13
:1034100000BF1037BD4680BD0048004090B583B066
:1034200000AF40F225513148FFF7A0FC0346012BC5
:103430000CBF01230023DBB2002B22D02B48FFF767
:1034400085FC0346FB71FB799BB219462748FFF7C1
:103450006BFC274B1B881C462448FFF777FC034670
:10346000DAB2244B1A55224B1B8801339AB2204BF7
:103470001A801F4B1B887F2B34D91D4B00221A80CA
:1034800030E040F227711948FFF770FC0346002B2B
:1034900014BF01230023DBB2002B23D0164B1A8864
:1034A000164B1B889A4217D0144B1B881A46144B94
:1034B0009B5C9BB219460D48FFF736FC0F4B1B88EF
:1034C00001339AB20D4B1A800C4B1B887F2B09D904
:1034D0000A4B00221A8005E0002240F227710348BF
:1034E000FFF7DAFB00BF0C37BD4690BD0038014046
:1034F00028000020800C00208E0E00208C0E002062
:103500000C0E002090B583B000AF40F22551314839
:10351000FFF72CFC0346012B0CBF01230023DBB279
:10352000002B22D02B48FFF711FC0346FB71FB79DF
:103530009BB219462748FFF7F7FB274B1B881C4611
:103540002448FFF703FC0346DAB2244B1A55224BFA
:103550001B8801339AB2204B1A801F4B1B887F2B8C
:1035600034D91D4B00221A8030E040F227711948EF
:10357000FFF7FCFB0346002B14BF01230023DBB243
:10358000002B23D0164B1A88164B1B889A4217D053
:10359000144B1B881A46144B9B5C9BB219460D4872
:1035A000FFF7C2FB0F4B1B8801339AB20D4B1A80F9
:1035B0000C4B1B887F2B09D90A4B00221A8005E08F
:1035C000002240F227710348FFF766FB00BF0C376B
:1035D000BD4690BD004400402A000020040D00209C
:1035E000120F0020100F0020900E002090B583B025
:1035F00000AF40F225513148FFF7B8FB0346012BDD
:103600000CBF01230023DBB2002B22D02B48FFF795
:103610009DFB0346FB71FB799BB219462748FFF7D8
:1036200083FB274B1B881C462448FFF78FFB034670
:10363000DAB2244B1A55224B1B8801339AB2204B25
:103640001A801F4B1B887F2B34D91D4B00221A80F8
:1036500030E040F227711948FFF788FB0346002B42
:1036600014BF01230023DBB2002B23D0164B1A8892
:10367000164B1B889A4217D0144B1B881A46144BC2
:103680009B5C9BB219460D48FFF74EFB0F4B1B8806
:1036900001339AB20D4B1A800C4B1B887F2B09D932
:1036A0000A4B00221A8005E0002240F227710348ED
:1036B000FFF7F2FA00BF0C37BD4690BD004800404E
:1036C0002C000020880D0020960F0020940F002071
:1036D000140F002053B94AB9002908BF00281CBFA5
:1036E0004FF0FF314FF0FF3001F0F4B8ADF1080CAE
:1036F0006DE904CE00F006F8DDF804E0DDE9022310
:1037000004B070472DE9F04F8C460C460546099EE3
:10371000002B4FD18A4217466BD9B2FA82FEBEF116
:10372000000F0BD0CEF1200520FA05F501FA0EF3BB
:1037300045EA030C02FA0EF700FA0EF5390CBCFB51
:10374000F1F0BAB201FB10C300FB02F84FEA154CCE
:103750004CEA0344A04509D9E41900F1FF3380F095
:103760002881A04540F2258102383C44C8EB04047E
:10377000B4FBF1F301FB134C03FB02F2ACB244EADD
:103780000C418A4209D9C91903F1FF3480F00F8135
:103790008A4240F20C81023B39448A1A43EA0040D3
:1037A0000021002E63D022FA0EF2002386E80C00DE
:1037B000BDE8F08F8B4207D9002E56D0002186E855
:1037C00011000846BDE8F08FB3FA83F1002940F0FC
:1037D0009380A34202D3824200F2FE80851A64EBFA
:1037E00003039C460120002E41D086E82010BDE84E
:1037F000F08F12B90127B7FBF2F7B7FA87FEBEF1D7
:10380000000F36D1E41B4FEA17481FFA87F9012150
:10381000B4FBF8F308FB134409FB03F24FEA154C21
:103820004CEA0444A24207D9E41903F1FF3002D262
:10383000A24200F2D3800346A41AB4FBF8F008FBBE
:10384000104809FB00F9ACB244EA0842914507D997
:10385000D21900F1FF3402D2914500F2BA8020461D
:10386000C9EB020240EA03409BE731463046BDE81F
:10387000F08F07FA0EF7CEF1200C24FA0CF34FEA82
:103880001748B3FBF8FA1FFA87F908FB1A3520FA34
:103890000CFC04FA0EF40AFB09FB4CEA040C4FEA98
:1038A0001C4242EA05439B4500FA0EF50AD9DB1992
:1038B0000AF1FF3280F08B809B4540F28880AAF1AC
:1038C000020A3B44CBEB0303B3FBF8F008FB1033D5
:1038D00000FB09F41FFA8CFC4CEA03439C4207D915
:1038E000DB1900F1FF326ED29C426CD902383B44A6
:1038F0001C1B40EA0A418BE7C1F1200E8B4022FAE3
:103900000EFC4CEA030C24FA0EF74FEA1C49B7FBF5
:10391000F9FA1FFA8CF309FB1A7720FA0EF88C409B
:103920000AFB03F548EA04044FEA144848EA07474B
:10393000BD4202FA01F200FA01FB09D917EB0C07AC
:103940000AF1FF3041D2BD423FD9AAF1020A6744D1
:103950007F1BB7FBF9F509FB157705FB03F3A4B251
:1039600044EA0747BB4208D917EB0C0705F1FF30C3
:1039700027D2BB4225D9023D674445EA0A40A0FB55
:103980000289FF1A4F4545464C4614D329D066B3E9
:10399000BBEB050367EB040707FA0EFECB40CF40F5
:1039A0004EEA030386E888000021BDE8F08F234635
:1039B000F3E61846DAE6B8EB020569EB0C040138C9
:1039C000E5E70546D9E7104692E78246C0E792460A
:1039D00078E702383A4443E7084604E7023B3C44B0
:1039E0002AE7C345E7D33C46D1E73146BDE8F08F2F
:1039F00003685A004CBF43F0004323F000431844CF
:103A0000704700BF61B32DE9F84F01F1FF3A9046CE
:103A10000646D146002707EB090404EBD474641072
:103A2000E50071190846FFF7E3FFA245834605F15B
:103A30000800304409D0FFF7DBFFC34500F1FF3039
:103A400005D8404509D2671CE5E7C34505D9A7421B
:103A500002D004F1FF39DEE700210846BDE8F88F07
:103A600008467047012807D0022807D0044B0028D9
:103A70000CBF184600207047024870470248704744
:103A8000794100087D4100088141000830B5254B8F
:103A900083B004468D1E7BB301A92846AFF3008096
:103AA00020B301992A46FFF7ADFF0146F0B1FFF7B9
:103AB0009FFF4B68A064012B12D0002B01F1040082
:103AC00021DBFFF795FF0023E06423650368002BEB
:103AD0001DDBFFF78DFF00232061184603B030BDCA
:103AE000002323610523184603B030BD0023236162
:103AF0000923184603B030BD0B490C4B0846591A30
:103B0000C9100191CEE70123E0642365DEE7C3F32A
:103B10000360FFF7A7FF0028206114BF00230923DB
:103B2000DBE700BF000000008C950008EC97000860
:103B3000036810B5DA07044606D49B0700F1480075
:103B400009D500F05BFC2368590709D51A070ED583
:103B5000DB0613D510BD00F049FC23685907F5D4E6
:103B600004F1D00000F052FC23681A07F0D404F5E9
:103B7000A87000F053FC2368DB06EBD404F5E87072
:103B8000BDE8104000F08EBC03680BB118447047CC
:103B90001846704709207047704700BF70B504464B
:103BA0000D4608E02A6C2369626121462A460120FD
:103BB0009847082808D1296C2046FFF767FF06467A
:103BC0000028EFD0FFF74AF90728FBD13046296CCF
:103BD000FFF7E2FF281D00F0FDFB00BF2DE9F047D5
:103BE0000646ADF5727D03AD0C1D17460FCC0FC513
:103BF0000FCC0FC50FCC0FC594E80F0002ACD6F860
:103C00000C80D6F8189085E80F0000233046216C10
:103C10002360FFF73BFF0546002F14BF0A27092743
:103C20007DB1A36B47F010018DE81002324663644A
:103C300001203346C04778BB28460DF5727DBDE8AC
:103C4000F087236C4FF4F072736121467AA800F07C
:103C500043FE33697AAA314638469847889B8246A4
:103C60008DE8100239466364324633460120C0476E
:103C700090B94FF4F0727AA9204600F02DFEBAF107
:103C8000080F06D1216C3046FFF700FF09270546D3
:103C9000C6E7BAF1070F04D009200DF5727DBDE823
:103CA000F0872846216CFFF777FF03A800F092FB0E
:103CB000406C7047F0B5CB6BF9B00B640E1D01ADD5
:103CC0000F4604460FCE0FC50FCE0FC50FCE0FC542
:103CD00096E80F004FF0FF3685E80F00009606E0EB
:103CE00023696A46214698470828054608D1109955
:103CF0002046FFF7CBFE0028F2D0092079B0F0BDB6
:103D00006846FFF715FF062DF7D139462046FFF725
:103D100045FF00BF30B4DD6BC160826119461D6490
:103D2000002230BC5AE700BF70B54369C6680B6417
:103D300026B10122FFF752FFFFF790F803690A4608
:103D400004460D46014602209847072807D0082858
:103D500003D129462046FFF721FFFFF77FF83046C1
:103D6000296CFFF719FF281D00F034FBC2682AB147
:103D700010B4CC6B00220C6410BC2FE79AE700BF94
:103D8000704700BF836813B1014601201847704790
:103D900000B5042907D8DFE801F003090609090086
:103DA0000BB90F2A05D902205DF804FB01205DF84C
:103DB00004FB00EB820252681846019B1A605DF812
:103DC00004FB00BF10B584B0002303AC0A46009486
:103DD0001946FFF7DDFF039804B010BD00B50429B4
:103DE00007D8DFE801F00309060909000BB90F2A1B
:103DF00005D902205DF804FB01205DF804FB019960
:103E000000EB82020968184651605DF804FB00BFB0
:103E100010B584B004AC44F8042D00230A46009485
:103E20001946FFF7DBFF04B010BD00BFF0B5D36B40
:103E3000ADF50F7D1364151D17AC07460E460FCD6B
:103E40000FC40FCD0FC40FCD0FC495E80F004FF076
:103E5000FF3584E80F00169511E016A86A46FFF7B3
:103E6000D7FF314616A8B84780B9049B16AA694601
:103E7000082098470528044609D0092806D0269925
:103E80006846FFF703FE0C210028E6D0092416A897
:103E9000FFF74EFE20460DF50F7DF0BD2DE9F04FEA
:103EA000CC6C914622688BB004340D46079208947E
:103EB00000F0030B1E46002B64D11202032307926D
:103EC0008DF825608DF824302B6DBBF1020F08BFF3
:103ED000AC6B13F0010343D100F00800C2B20392AF
:103EE00001932768002F3DD0022E47D02788B4F8D1
:103EF00002800434AB6C28F0010A0F2148469A4432
:103F0000FFF760FF824537D827F001039A445045F8
:103F10002CBF002001204FEA480808F0020807F0F3
:103F2000010748EA0708B8F1010F41D038D3B8F1CA
:103F3000020F1DD1236823F000420292BBF1000F53
:103F400079D130B10399002900F08180002A00F076
:103F5000A880002B79DB029B013304EB8304C0E7CC
:103F600000230193022E40DDFFF714FE002842D00B
:103F700009200BB0BDE8F08F0020CCE7D4F8048016
:103F80000834B7E7022B9FDC130CD9B212048DF86A
:103F90002530022304EB810407928DF8243093E747
:103FA000BBF1000F02D0002840F0B080043498E745
:103FB000BBF1000F26D1B0B194E80C00991C4FEA78
:103FC000D272D5D005F158010133069100F09480EA
:103FD000201DFFF7D9FD06AB01462846AFF3008050
:103FE000002840F0B88008347BE707A9484600F075
:103FF000F3FA0028BCD1019B002B5CD108200BB048
:10400000BDE8F08F0D2148462F6AFFF7DBFE87429F
:10401000E9D1AB6A9C42E6D12046FFF7E9FC0F21CB
:1040200002464846FFF7F4FE48462A460021FFF7BD
:10403000EFFE07209DE70D2148462F6AFFF7C2FEDD
:10404000874248D02368002B85DA043483E7029B3B
:104050003BB305F15803271DCDF810B0DDF80C80F7
:10406000A346DDF808A01C46059602E0B245B0461E
:1040700016D038460694FFF787FD06AB01460022AE
:104080002846AFF3008008F1010604370028EDD080
:10409000029B5C464345DDF810B0059ED2D100E09E
:1040A0005C4648460D21FFF78DFE069B2862AC62F8
:1040B0006B6206205DE70F214846FFF783FE0E2165
:1040C00002464846FFF7A4FE48462A4A0F21FFF75A
:1040D0009FFE07204DE7AB6A9C42B3D104220299B0
:1040E0000027A318A962EF622A636B632368BB42AF
:1040F0001FDB012301932EE748460D21FFF762FEE7
:104100002862069B6B62AC62062032E72046FFF70E
:104110006FFC04340646AC632846AFF300800028E9
:104120003FF426AF484632460F21FFF771FE0720C5
:104130001FE70846013004EB8000FFF759FC0F2110
:1041400002464846FFF764FE48462A463946FFF7CE
:104150005FFE07200DE707460D214846FFF732FEB8
:10416000022F2862CDD12B46069A43F82C2F6B6282
:10417000C9E700BF0000000000238FE601238DE6A1
:1041800002238BE6F0B50446C5B004290DD8DFE85C
:1041900001F057030C310F00012B4FEA124695B284
:1041A00066D17219102A40F29F80022045B0F0BDFE
:1041B000002BFAD1102AF8D82368D80600F1C9805C
:1041C00022AE3046019200F077F9A06B019A0023ED
:1041D000012505FA03F1114203D00168043046F8C5
:1041E00023100133042BF4D1A063304600F05AF9B8
:1041F0000020DBE7032BD8D1150C97B2EB19102B5D
:10420000D3D823681E0700F1B88022AE30467F0065
:1042100000F026F906EBC5027B1EA56B57B12946B7
:10422000043A51F8040B013B42F8040F581CF8D132
:1042300005EB87053046A56300F0F0F80020B5E7F0
:10424000002BB2D1A56B97B2201D012606FA03F10F
:10425000394203F1010302D0296804350160102BB3
:1042600000F10400F2D112F400503BD1A5639DE7A8
:10427000052B9AD17719202F97D80F2E65D92F4665
:10428000002D48D12A460027002AA06B71DD00EBE3
:10429000C202014644A800EBC6008C3851F8045B0A
:1042A000914240F8045FF9D1084697B13246102E8A
:1042B00044A938BF102201EBC202A2F5C4727900F2
:1042C000043A00EB810150F8045B814242F8045F3C
:1042D000F9D1012B47D00F2EA16332D917B102A813
:1042E00000F094F8002061E70F2E3FF65EAF002744
:1042F0002268D1070DD522F00101052B2160019321
:10430000204652D022F0030240F8482B00F072F809
:10431000019B002F51D02268510736D4012B3ED08B
:104320000F2E06D822A8019300F06CF8019B002FF5
:10433000A8D002A8019300F06DF8019BC6F110020D
:10434000A2E722A800F05AF8C8E7102FCFD9103FF3
:10435000CEE723F01003236004F5E870019200F02B
:10436000ABF8019A2CE70431A16322A800F03EF8D3
:10437000B8E7002F9AD10146ABE723F0080323608A
:1043800004F5A87000F06CF83FE7204622F0040224
:1043900040F8D02B019300F03DF8019BBEE722A826
:1043A000019300F027F8019BC8E741F0020140F8B3
:1043B000481B00F027F8019BABE7012B03D00F2E21
:1043C0003FF660AFAEE722A8019300F013F8019B1F
:1043D00058E700BF00F1340191E838009C46A6463A
:1043E0004CF8045D90E8FF0FE54600BD90EC210B12
:1043F000704700BF80EC210B704700BF90EC200B92
:10440000704700BF80EC200B704700BFD0EC200B42
:10441000704700BFC0EC200B704700BFF0EC0201FA
:10442000F0EC0211F0EC0221F0EC0231F0EC024170
:10443000F0EC0251F0EC0261F0EC0271F0EC028160
:10444000F0EC0291F0EC02A1F0EC02B1F0EC02C150
:10445000F0EC02D1F0EC02E1F0EC02F1704700BFA9
:10446000E0EC0201E0EC0211E0EC0221E0EC0231B0
:10447000E0EC0241E0EC0251E0EC0261E0EC0271A0
:10448000E0EC0281E0EC0291E0EC02A1E0EC02B190
:10449000E0EC02C1E0EC02D1E0EC02E1E0EC02F180
:1044A000704700BFB0FC0181B0FC0191B0FC01A1DC
:1044B000B0FC01B1704700BFA0FC0181A0FC0191DC
:1044C000A0FC01A1A0FC01B1704700BFEC4600B503
:1044D0002DE900502DE9FF1F4FF000032DE90C00DE
:1044E00001A9FFF7E7FBDDF840E012B0704700BF1D
:1044F000EC4600B52DE900502DE9FF1F4FF00003F9
:104500002DE90C0001A9FFF70FFCDDF840E012B027
:10451000704700BFEC4600B52DE900502DE9FF1FA4
:104520004FF000032DE90C0001A9FFF71FFCDDF897
:1045300040E012B0704700BFEC4600B52DE90050D6
:104540002DE9FF1F4FF000032DE90C0001ABFFF731
:10455000E1FBDDF840E012B0704700BFEC4600B56B
:104560002DE900502DE9FF1F4FF000032DE90C004D
:1045700001AAFFF75BFCDDF840E012B0704700BF16
:10458000037A1BB9437A43B9B02070475A1E0368B7
:1045900002721A020260180E70474268013B10B4A2
:1045A000437213680321141D01721A0244600260F1
:1045B00010BC180E704700BF00B585B003AA0023D9
:1045C000009219460C22FFF7E3FB039805B05DF853
:1045D00004FB00BFF0E700BF2DE9F04306460D469F
:1045E00085B04FF000082846FFF7CAFFB028044600
:1045F00000F0B48020F07F0313F0FF0320D000F020
:10460000F003802B7AD0902B35D0A02B48D0B02B44
:104610005CD0C02B00F0898000F0F803D02B0BD1C8
:1046200000F00702013242F4002205230121304646
:10463000FFF7A8FD0028D6D0092005B0BDE8F0831B
:104640000DF10C0919468700CDF800900D22304677
:10465000FFF79EFBFFB2039B043760064CBFDF1BD6
:10466000FF180023CDF8009019460D22304603971D
:10467000FFF7B4FBB7E700F00D030D2BDCD003AF61
:10468000002300F00F02194600973046FFF780FB29
:104690000023009719460D223046FFF79FFBA2E743
:1046A000C2434FF47F6302F0070243FA02F20107AC
:1046B00002EA03024FF0000348BF42F48042194669
:1046C0003046FFF75FFD0028B6D18CE7B1284AD00D
:1046D000B22853D0B32800F0818000F0FC03B42B43
:1046E000AAD000F007020132012342F40022194649
:1046F0003046FFF747FD00289ED174E72846FFF7B4
:104700003FFF24022043B0F5004F95D00401002361
:10471000A2B219463046FFF735FD00288CD114F4BB
:10472000004F18BF4FF001085DE7C62862D0C728C8
:104730006CD000F0F803C02B7BD0C82800F091802B
:10474000C9287FF479AF2846FFF71AFF020300F06B
:104750000F0002F470220130024366E7B8F1000F47
:104760006ED0002069E72846FFF70AFF02460028BE
:104770003FF462AF10F0F003B9D05DE700230DF114
:104780000C090D221946CDF800903046FFF700FBCA
:104790002846FFF7F5FE02064FF002040CD5039BF6
:1047A00000F07F00A040034428460393FFF7E8FE93
:1047B000030604F10704F2D4039B00F07F0000FA23
:1047C00004F203F5017400231444CDF80090194657
:1047D0000D2230460394FFF701FB04E72846FFF75C
:1047E000CFFE010300F00F0001F47021421C0123F1
:1047F0000A437CE72846FFF7C3FE010300F00F00E1
:1048000001F47021421C03230A4370E72846FFF796
:10481000B7FE024600283FF40FAF10F0F0037FF41C
:104820000BAF04213046FFF7ADFC00287FF404AF46
:10483000D9E600F00F020132032342F4202256E7AA
:1048400003AC43460E22414600943046FFF7A0FADF
:104850000094304643460F224146FFF7BFFA4046D8
:10486000EBE62846FFF78CFE00F0F00200F00F03A5
:104870001032013343EA0232D7E600BF10B5C36CF1
:1048800084B003205A688DF80C00DC7912020833DA
:10489000084601A901928DF80D400293FFF79CFE96
:1048A00004B010BD08B5FFF795FE806C08BD00BFD1
:1048B00008B5FFF78FFEC36CD87903EB8000083092
:1048C00008BD00BF08B5FEF7C9FA00BF08B5FFF77D
:1048D000F9FF00BF704700BF844641EA000313F0B0
:1048E000030349D1403A23D30B6803604B6843600C
:1048F0008B688360CB68C3600B6903614B6943615C
:104900008B698361CB69C3610B6A03624B6A436243
:104910008B6A8362CB6AC3620B6B03634B6B43632B
:104920008B6B8363CB6BC36340304031403ADBD247
:1049300030320BD30B6803604B6843608B68836035
:10494000CB68C36010301031103AF3D20C3205D36B
:1049500051F8043B40F8043B043AF9D2043208D041
:10496000D2071CBF11F8013B00F8013B01D30B88B3
:1049700003806046704700BF082A13D38B07B1D06D
:1049800010F00303AED0C3F10403D21ADB071CBF3F
:1049900011F8013B00F8013BA4D331F8023B20F8A9
:1049A000023B9FE7043AD9D3013A11F8013B00F8E2
:1049B000013BF9D20B7803704B7843708B7883708E
:1049C00060467047F0B50D464FF6FF779BB06FF02D
:1049D00000444FF40276694600950495ADF80E70D8
:1049E000ADF80C600294059400F012F8009B0022D0
:1049F0001A701BB0F0BD00BF10B4044C13460A4639
:104A00000146206810BCFFF7DDBF00BF580400203E
:104A10002DE9F04FC1B00C46099115460E930A904E
:104A200002F064FB03681846179303F08BF9A3891F
:104A300016901E0603D52369002B01F05C8100232C
:104A40001A46A8460DF1C009DFF860A41293199325
:104A50000B9325932493CDF88C901492159298F88B
:104A600000304446EBB1252B02D11AE0252B03D0B0
:104A700014F8013F002BF9D1C8EB04058DB1249B3C
:104A8000259A01332A44072BC9F80080C9F804503D
:104A90002592249300F3328309F108090B9B2B44E0
:104AA0000B932378002B00F0EA814FF0FF3B5D462B
:104AB00000231A468DF86F3019460C9307936378DC
:104AC00004F1010808F10108A3F12000582800F2C0
:104AD0004586DFE810F0F30343064306FC03430674
:104AE00043064306430643064306590004044306AF
:104AF0006600D0034306EC03BC05BC05BC05BC0541
:104B0000BC05BC05BC05BC05BC0543064306430605
:104B10004306430643064306430643064306E205AF
:104B2000F7044306F70443064306430643064205DB
:104B3000430643064A054306430643064306430627
:104B4000740543064306CD05430643064306430664
:104B50004306430643064306430643061D060E0668
:104B6000F704F704F70415060E0643064306A304EC
:104B70004306A805AE046D000A044306120443066A
:104B800035044306430670040E9C236818460C93B4
:104B90002346002803F104030E9306DA0C9B5B42C4
:104BA0000C93079B43F00403079398F8003089E7C0
:104BB000AB460E9A0027079830217823BB4514682E
:104BC0008DF8701002F104024FF000058DF871307D
:104BD0008DF86F7040F00201C0F23D8620F0800138
:104BE00041F00201079154EA05010E921193AD487C
:104BF00000F0318130AE230943EA0573290904F03E
:104C00000F020D461C46835C06F8013D54EA05037D
:104C1000F1D130AB9B1B0D930D9B5B45B8BF5B4641
:104C200008930023139317B1089B01330893079B44
:104C300013F002030F9302D0089B02330893079BE3
:104C400013F08403109340F018810C9B089A9D1A6E
:104C5000002D40F31281102D2599249A924F27DDC3
:104C6000189648461024B946099E2F460A9D04E02E
:104C7000103F102F00F1080016DD01328A4B103171
:104C8000072A2591249280E81800F1DD23AA3146F5
:104C9000284603F085F8002840F0F880103F102FD8
:104CA00030A82599249AE8DC3D464F468146189E57
:104CB00001326C18072A25942492C9F80070C9F8AB
:104CC000045000F3D0809DF86F7009F1080977B1A6
:104CD000249B013401330DF16F010122072B259430
:104CE000249389E8060000F3208209F108090F9B4C
:104CF0006BB1249B023401331CA90222072B25949B
:104D0000249389E8060000F31C8209F10809109B2E
:104D1000802B00F02C810D9BC3EB0B07002F33DDA4
:104D2000624A102F249B0F9222DD22464FF0100B77
:104D30000A9D099C04E0103F102F09F1080916DDB7
:104D400001331032072B2592249389E8000CF2DD01
:104D500023AA2146284603F023F8002840F0968035
:104D6000103F102F0DF1C009259A249BE8DC144652
:104D700001330F9A3C44072B2594249389E884003F
:104D800000F3C78109F10809079BDA0500F190805B
:104D9000249B0D9901330C44072B2594C9F800601E
:104DA000C9F80410249300F3E28109F10809079B74
:104DB000590736D50C9B089A9D1A002D31DD102D10
:104DC000249B394F22DD22461026DDF828B0099CAD
:104DD00004E0103D102D09F1080916DD01333249B8
:104DE0001032072B2592249389E84200F1DD23AA93
:104DF0002146584602F0D4FF002847D1103D102D1F
:104E00000DF1C009259A249BE8DC144601332C449B
:104E1000072B25942493C9F80070C9F8045000F3B7
:104E200092840B9B0C9A08998A42ACBF9B185B1822
:104E30000B93002C40F05981002324930DF1C009FD
:104E40000DE60027BB458DF86F70C0F20E85079BFD
:104E500023F080030793BBF1000F00F06C84002463
:104E600000250027C6E623AA09990A9802F098FFB0
:104E700060B99DF86F700DF1C009259C27E7259B4F
:104E800023B10A9823AA099902F08AFF099B9B89FA
:104E900013F0400F0B9B18BF4FF0FF33184641B083
:104EA000BDE8F08F2491000844910008F0900008BC
:104EB000119B652B40F39F801498159900220023C5
:104EC00004F034F8002800F06381249BAE490133DC
:104ED00001340122072B2594249389E8060000F36E
:104EE000538409F108091D9B129A934203DB079B27
:104EF000DB077FF55CAF249B16990133179A0C44AE
:104F0000072B2594C9F80020C9F80410249300F356
:104F1000E58609F10809129B5D1E002D7FF747AF5A
:104F20009A4A102D249B0F9240F3178110260A9F56
:104F3000DDF824B005E009F10809103D102D40F31B
:104F40000C8101331034072B25942493C9F800A059
:104F5000C9F80460EFDD23AA5946384602F020FF65
:104F6000002893D10DF1C009259C249BE5E70C9BFB
:104F7000089A9F1A002F7FF7CEAE844A102F249BE9
:104F80000F922BDD4A462146B946102537460A9C2A
:104F9000099E06E0A9F11009B9F1100F02F108020B
:104FA00018DD01331031072B25912493C2F800A09E
:104FB0005560EFDD23AA3146204602F0F1FE0028BD
:104FC0007FF464AFA9F11009B9F1100F30AA259947
:104FD000249BE6DC3E460C464F46914601330F9A31
:104FE0003C44072B2594249389E8840000F32B8507
:104FF00009F108098FE6129B249D012B04F101049D
:1050000005F1010540F3E8840123072D2594C9F833
:1050100000602495C9F8043000F3F98409F1080907
:10502000169A0135179B1444072D25942495C9F829
:105030000030C9F8042000F3F88409F108090023BE
:1050400014981599002203F071FF129B002800F0BC
:10505000EA805E1E002E40F3F5804C4B102E0F931D
:105060002CDDCDF834801027B046DDF828B0099E3D
:1050700006E0A8F11008B8F1100F09F108091ADDCF
:1050800001351034072D25942495C9F800A0C9F8DE
:105090000470EEDD23AA3146584602F081FE002856
:1050A0007FF4F4AEA8F11008B8F1100F0DF1C009AB
:1050B000259C249DE4DC4646DDF8348001350F9BB9
:1050C0003444072D2594249589E8480040F3B8809E
:1050D00023AA09990A9802F063FE00287FF4D6AE4D
:1050E000259C249D0DF1C009ACE023AA09990A98DA
:1050F00002F056FE00283FF49FAEC7E623AA0999A6
:105100000A9802F04DFE00287FF4C0AE0DF1C009F0
:10511000C4E423AA09990A9802F042FE00287FF409
:10512000B5AE0DF1C009259C2EE623AA09990A986F
:1051300002F036FE00287FF4A9AE0DF1C009259CCF
:10514000D5E523AA09990A9802F02AFE00287FF4DF
:105150009DAE0DF1C009259CD9E501330F9A2C4471
:10516000072B2594249389E824007FF71EAE23AAF9
:1051700009990A9802F014FE00287FF487AE259C56
:105180000DF1C00913E600BF40910008F09000083F
:105190001D9D002D40F30E83139B129A9342A8BFCE
:1051A0001346002B1D460DDD249B2C440133072B99
:1051B0002594C9F80060C9F80450249300F31A86B6
:1051C00009F10809139B002DA8BF5B1B002B1D468E
:1051D00040F3A083B94A102D249B0F9240F34485DD
:1051E00022461027DDF828B0099C05E009F10809DE
:1051F000103D102D40F3378501331032072B2592D7
:105200002493C9F800A0C9F80470EFDD23AA214651
:10521000584602F0C5FD00287FF438AE0DF1C009F4
:10522000259A249BE4E7013B013501361C44072DF8
:10523000C9F8006024952594C9F804303FF748AFB9
:1052400009F10809199A013514441FAB072D25945B
:105250002495C9F80420C9F800307FF7A6AD23AA29
:1052600009990A9802F09CFD00287FF40FAE0DF119
:10527000C009259C9BE598F8003008F101042A2B11
:1052800000F02E87A3F13000092898BF002500F216
:10529000B28614F8013B05EB850500EB4505A3F14B
:1052A00030000928F5D945EAE575A0460CE4079BCE
:1052B00043F08003079398F8003003E498F8003037
:1052C00000297FF4FFAB01222021FFF7FBBB079BE6
:1052D00043F00103079398F80030FFF7F3BB98F809
:1052E000003001222B21FFF7EDBB079B43F0200389
:1052F000079398F80030FFF7E5BB0E9AAB461668A7
:10530000002511938DF86F50141D002E00F0F885C4
:10531000BBF1000FC0F244855A462946304602F0E0
:105320009FF9002800F02E86AB46831B0D9323EADD
:10533000E3730E940893CDF84CB09DF86F7072E44F
:105340001193AB46002A40F0F386079A12F020032F
:1053500000F043810E9C0027073424F0070303F17B
:105360000801BB450E91D3E900458DF86F70C0F27E
:10537000C18222F08003079354EA050300F04881BC
:10538000002D08BF0A2CC0F0488130AE20462946C7
:105390000A220023FEF79EF9303206F8012D20463E
:1053A000294600230A22FEF795F904460D4654EAE1
:1053B0000503EBD12DE41193AB46002A40F0B486EF
:1053C000079B3F489D0640F15D810E9C073424F009
:1053D000070303F108020E92D3E90045079A12F081
:1053E000010700F0468254EA05033FF42AAD9DF818
:1053F000442000278DF87120079A3023BB458DF893
:1054000070308DF86F7042F00203C0F2A58522F073
:10541000800343F002030793FFF7ECBB98F80030DA
:105420006C2B00F05184079840F010000790FFF7B4
:1054300049BB1193AB46002A40F07E86079A12F0D2
:10544000200300F0A0800E9C0027073424F00703FF
:1054500003F10801BB450E91D3E900458DF86F704B
:105460000BDB22F08003079354EA050306D1BBF15E
:10547000000F00F0B18500240025002730AEE208BF
:1054800042EA4572E90804F007030D46144630333A
:1054900054EA050206F8013DF1D1079AD1077FF5DC
:1054A000B8AB302B3FF4B5AB3022731E06F8012C9D
:1054B00030AAD21A0D921E46FFF7AEBBF09000083C
:1054C000249100081193AB46002A40F02186079BE7
:1054D0000E9C1A0704F1070440F16C8324F00703C3
:1054E00003F108020E921A685B6814921593159BDB
:1054F000149D23F00044284621464FF0FF32A94B6B
:1055000003F046FD002840F0CD82284621464FF0AA
:10551000FF32A44B03F01EFD002840F0C382149814
:1055200015990022002303F00BFD002840F00E85A2
:105530009DF86F7007999C4E21F080019B4B07915D
:10554000119903224FF0000B08924729D8BF1E463D
:105550000D92CDF84CB0FFF766BB079B43F00803F4
:10556000079398F80030FFF7ADBA1193AB46002AC5
:1055700040F0D685079B43F010030793079A12F07B
:1055800020037FF460AF079911F0100200F06882E9
:105590000E98BBF1000F024604688DF86F3002F1DF
:1055A00004024FF00005C0F2DD8421F08001079174
:1055B00054EA05010E923FF45AAF1F465EE711937D
:1055C000AB46002A40F0A885079B43F010030793E1
:1055D000079A12F020037FF4BDAE079911F0100274
:1055E00000F025830E98BBF1000F024604688DF889
:1055F0006F3002F104024FF00005C0F2A48421F0E4
:105600008001079154EA05010E921F467FF4B8AE5F
:10561000BBF1000F00F09080002440AE303406F85B
:10562000414DFFF7F6BA002A40F09E85079B9B0686
:1056300040F1CA820E9A134604330E930B9B1168F5
:10564000DD171A462B46C1E90023FFF708BAA3F17C
:10565000300000231C4618F8013B04EB840400EBE7
:105660004404A3F130000928F5D90C94FFF72CBAB3
:105670001193AB46002A40F07385079B4C489D066A
:105680003FF5A3AE079BDC0640F1B5820E9A0025DC
:105690001346043314680E93A0E61193AB46002A18
:1056A00040F05A85079B43F010030793079B980629
:1056B00040F1F1800E9C073424F00704D4E9002364
:1056C00004F108011D4614460E91002A73F10003EF
:1056D000C0F2F280BBF1000F9DF86F70C0F20A813A
:1056E000079B23F08003079354EA05037FF448AE39
:1056F0008EE71193AB46002AD8D08DF86F10D5E70E
:10570000079B43F04003079398F80030FFF7DAB99E
:105710000E9911930A68002301201F468DF86F30FF
:105720009B4613930B1D08908DF898200E930D90B7
:1057300026AEFFF77CBA5F464FF0000BCDF834B0D1
:1057400030AEFFF769BA23AA09990A9802F028FB3C
:1057500000287FF49BAB259CFFF763BB1193002AC5
:1057600040F0F684119A002A3FF489AB002301210E
:105770001F4608918DF898208DF86F309B46139343
:105780000D9126AEFFF753BA23AA09990A9802F0A1
:1057900007FB00287FF47AAB0DF1C009259CFFF7C9
:1057A000A2BB00BFFFFFEF7F04910008009100083B
:1057B00010910008249BB849013301340122072BC2
:1057C0002594249389E8060000F3C18209F10809B1
:1057D0002DB9129B1BB9079BDF077FF5E8AA249B15
:1057E00016990133179A0C44072B2594C9F8002009
:1057F000C9F80410249300F3028409F108096D42EA
:10580000002D40F3E082A54A102D0F9240F3008353
:1058100022461027DDF828B0099C05E009F10809A7
:10582000103D102D40F3F38201331032072B2592E7
:105830002493C9F800A0C9F80470EFDD23AA21461B
:10584000584602F0ADFA00287FF420AB0DF1C009F4
:10585000259A249BE4E792480791119354EA0503A3
:105860000E924FF000077FF4C5A900240025FFF732
:10587000C1B9BBF1000F8DF86F70C0F2028222F047
:105880008003079354EA05037FF4B4A9BBF1000F2A
:105890007FF4E5AA4FE7079BD90640F1B9810E9A3C
:1058A00013461C680433E51722460E932B46002A44
:1058B00073F10003BFF60EAF64424FF02D0765EBA6
:1058C0004505BBF1000F8DF86F70FFF659AD079BD2
:1058D00023F08003079353E50E9ABBF1000F1346A4
:1058E00014688DF86F7003F104034FF0000580F227
:1058F000CA810E9354EA05037FF442AD8DE623AAD4
:1059000009990A9802F04CFA00287FF4BFAA259C56
:105910000DF1C009139A1D9B32441746129A934207
:1059200049DB079AD50746D412990E44F51BCB1ACA
:105930009D42A8BF1D46002D2E460DDD249A2C4405
:105940000132072A2594C9F80070C9F8045024923E
:1059500000F3C78209F10809002EB4BF1D469D1B44
:10596000002D7FF724AA4D4A102D249B0F927FF71C
:10597000F4AB10260A9FDDF824B005E009F1080910
:10598000103D102D7FF7E9AB01331034072B259420
:105990002493C9F800A0C9F80460EFDD23AA594692
:1059A000384602F0FDF900287FF470AA0DF1C00915
:1059B000259C249BE4E7249A169801321799044405
:1059C000072A2594C9F80010C9F80400249200F3AE
:1059D0007B8209F10809A7E7079BD8073FF514ABBD
:1059E0000123072D2594C9F800602495C9F80430D7
:1059F0007FF726AC23AA09990A9802F0D1F900286A
:105A00007FF444AA0DF1C009259C249D1AE423AA21
:105A100009990A9802F0C4F900287FF437AA0DF119
:105A2000C009259C249DFFF7FBBA23AA09990A986F
:105A300002F0B6F900287FF429AA0DF1C009259CCF
:105A4000249DFFF7FCBA23AA09990A9802F0A8F945
:105A500000287FF41BAA0DF1C009259CFFF75BB954
:105A6000079911F0400700F018810E98BBF1000F64
:105A700003468DF86F2003F1040304884FF00005FE
:105A8000C0F2728121F08001079154EA05010E9362
:105A90003FF4EDAC1746F1E440910008F0900008A7
:105AA00024910008149C22462046159C234621463A
:105AB00003F06EFA002840F0C482119BBBF1FF3F57
:105AC00023F020030D9300F04A82472B00F04F8112
:105AD000079B43F480731093159B1F1E149B089320
