:020000040800F2
:10000000681D002095180008F5180008F51800086C
:10001000F5180008F5180008F518000800000000A1
:10002000000000000000000000000000F5180008BB
:10003000F518000800000000F51800080537000852
:10004000F5180008F5180008F5180008F51800085C
:10005000F5180008F5180008F5180008F51800084C
:10006000F5180008F5180008F5180008F51800083C
:10007000F5180008F5180008F5180008F51800082C
:10008000F5180008F5180008F5180008F51800081C
:10009000F5180008F5180008F5180008F51800080C
:1000A000F5180008B1160008F5180008F518000842
:1000B000F11600084517000895170008F518000804
:1000C000F5180008F5180008F51800081D020008CA
:1000D000C10200087D5300085D5400083D5500082A
:1000E000F5180008F5180008F518000800000000D1
:1000F0000000000000000000000000000000000000
:1001000000000000000000005FF808F190B585B025
:1001100000AFF860B96011461A460B46FB801346E3
:100120007B71FB6803F118007B79FA88B96802F0EB
:100130003BF9FB681833184602F092F903461A4659
:10014000FB681A80FA684FF00A034FF00004C2E916
:100150000434FB6800225A80064BB3F900309BB28E
:1001600001339BB21AB2034B1A8000BF1437BD464D
:1001700090BD00BF6A14002080B483B000AF7860E7
:100180007B6800225A807B681B8818460C37BD4666
:1001900080BC704790B585B000AF78601E4BB3F956
:1001A00000309BB2013B9BB21AB21B4B1A807B689A
:1001B0001833184602F054F90346FB817B681B880C
:1001C000FA899A4224D003F08DFA0A4601467B68E8
:1001D00003F10804D4E90034CB1A62EB04047A6812
:1001E000D2E90412A24208BF994234BF012300237E
:1001F000DBB2002B0CD07B6801225A807B68FA8925
:100200001A8003F06FFA03460C467A68C2E902349A
:1002100000BF1437BD4690BD6814002080B500AF04
:10022000234B1B8801339AB2214B1A80712121483C
:1002300003F068FC0346002B14BF01230023DBB24C
:10024000002B18D002211B4803F096FC1A4800F03E
:10025000FDF80346002B14BF01230023DBB2002B63
:1002600023D0154800F0C0F803461B789BB219460E
:10027000104803F02DFC60210E4803F043FC0346B8
:10028000002B14BF01230023DBB2002B0ED0012171
:10029000084803F071FC074803F028FC0346DBB272
:1002A0001946064800F070F800E000BF80BD00BFAE
:1002B000E209002000300140E8090020000B002086
:1002C00080B500AF234B1B8801339AB2214B1A80B3
:1002D0007121214803F016FC0346002B14BF0123B3
:1002E0000023DBB2002B18D002211B4803F044FC92
:1002F0001A4800F0ABF80346002B14BF012300237B
:10030000DBB2002B23D0154800F06EF803461B78B3
:100310009BB21946104803F0DBFB60210E4803F046
:10032000F1FB0346002B14BF01230023DBB2002B9B
:100330000ED00121084803F01FFC074803F0D6FB4C
:100340000346DBB21946064800F01EF800E000BF85
:1003500080BD00BFE209002000380040740A002080
:100360008C0B002080B483B000AF78607B680022E3
:10037000C3F884207B680022C3F888207B68184675
:100380000C37BD4680BC704780B485B000AF786044
:100390000B46FB707B68D3F888305A1C114B83FBEB
:1003A0000213D910D317C91A0B46DB010B44D31A19
:1003B000FB607B68D3F88420FB689A4201D101235B
:1003C0000AE07B68D3F888307A68F978D1547B6882
:1003D000FA68C3F88820002318461437BD4680BC4D
:1003E000704700BF813FE00F80B485B000AF7860F8
:1003F0007B68D3F884207B68D3F888309A4205D193
:100400007B68D3F884307A68134417E07B68D3F8AC
:100410008430FB607B68D3F88430591C0A4B83FB23
:100420000123DA10CB17D21A1346DB011344CA1A80
:100430007B68C3F884207A68FB6813441846143735
:10044000BD4680BC704700BF813FE00F80B483B0E1
:1004500000AF78607B68D3F888207B68D3F884305D
:100460009A4207DB7B68D3F888207B68D3F8843016
:10047000D31A07E07B68D3F888207B68D3F88430F0
:10048000D31A813318460C37BD4680BC704700BF75
:1004900080B582B000AF786039607B68012B10D1E5
:1004A0003B684FF6FF7293420BD10848FFF75AFFA3
:1004B0000748FFF757FF0748FFF754FF0648FFF7C5
:1004C00051FF00BF0837BD4680BD00BFE8090020CE
:1004D000740A0020000B00208C0B002080B500AFB8
:1004E0004FF6FF710120FFF7D3FF80BD80B485B0C8
:1004F00000AF786039600023FB817B681B88FB813B
:100500007B682E4A934213D07B682D4A93420FD0CA
:100510007B68B3F1804F0BD07B682A4A934207D0A7
:100520007B68294A934203D07B68284A934208D1CA
:10053000FB8923F07003FB813B685A88FB891343D6
:10054000FB817B68224A93420CD07B68214A93420C
:1005500008D0FB8923F44073FB813B68DA88FB8970
:100560001343FB817B68FA891A803B689A887B6811
:100570009A853B681A887B681A857B680F4A934284
:100580000FD07B680E4A93420BD07B68124A93428D
:1005900007D07B68114A934203D07B68104A93428C
:1005A00004D13B681B7A9AB27B681A867B68012269
:1005B0009A8200BF1437BD4680BC7047002C0140B2
:1005C000003401400004004000080040000C0040DE
:1005D0000010004000140040004001400044014071
:1005E0000048014080B485B000AF786039600023D6
:1005F0007B810023FB810023BB817B681B8C9BB22A
:1006000023F001039AB27B681A847B681B8CFB8100
:100610007B689B88BB817B681B8B7B817B8923F0FC
:1006200070037B817B8923F003037B813B681A88FD
:100630007B8913437B81FB8923F00203FB813B68A9
:100640001A89FB891343FB813B685A88FB89134352
:10065000FB817B68244A93420FD07B68234A9342F4
:100660000BD07B68224A934207D07B68214A934291
:1006700003D07B68204A934223D1FB8923F00803EF
:10068000FB813B685A89FB891343FB81FB8923F07B
:100690000403FB813B689A88FB891343FB81BB8978
:1006A00023F48073BB81BB8923F40073BB813B6857
:1006B0009A89BB891343BB813B68DA89BB891343A1
:1006C000BB817B68BA899A807B687A891A833B6888
:1006D000DA887B689A867B68FA891A8400BF1437A7
:1006E000BD4680BC704700BF002C01400034014073
:1006F00000400140004401400048014080B485B002
:1007000000AF7860396000237B810023FB810023E8
:10071000BB817B681B8C9BB223F010039AB27B6871
:100720001A847B681B8CFB817B689B88BB817B6800
:100730001B8B7B817B8923F4E0437B817B8923F4C2
:1007400040737B813B681B881B029AB27B891343F1
:100750007B81FB8923F02003FB813B681B891B0104
:100760009AB2FB891343FB813B685B881B019AB2F9
:10077000FB891343FB817B68224A934203D07B6849
:10078000214A93422BD1FB8923F08003FB813B68F4
:100790005B891B019AB2FB891343FB81FB8923F020
:1007A0004003FB813B689B881B019AB2FB89134382
:1007B000FB81BB8923F48063BB81BB8923F4006385
:1007C000BB813B689B899B009AB2BB891343BB8169
:1007D0003B68DB899B009AB2BB891343BB817B6872
:1007E000BA899A807B687A891A833B68DA887B6841
:1007F0001A877B68FA891A8400BF1437BD4680BC0B
:10080000704700BF002C01400034014080B485B027
:1008100000AF7860396000237B810023FB810023D7
:10082000BB817B681B8C9BB223F480739AB27B687C
:100830001A847B681B8CFB817B689B88BB817B68EF
:100840009B8B7B817B8923F070037B817B8923F0E9
:1008500003037B813B681A887B8913437B81FB8977
:1008600023F40073FB813B681B891B029AB2FB894E
:100870001343FB813B685B881B029AB2FB891343DD
:10088000FB817B68224A934203D07B68214A9342D2
:100890002BD1FB8923F40063FB813B685B891B023E
:1008A0009AB2FB891343FB81FB8923F48063FB81AC
:1008B0003B689B881B029AB2FB891343FB81BB896F
:1008C00023F48053BB81BB8923F40053BB813B6875
:1008D0009B891B019AB2BB891343BB813B68DB89AF
:1008E0001B019AB2BB891343BB817B68BA899A808A
:1008F0007B687A899A833B68DA887B689A877B6809
:10090000FA891A8400BF1437BD4680BC704700BF07
:10091000002C01400034014080B485B000AF786005
:1009200039600023BB8100237B810023FB817B682E
:100930001B8C9BB223F480539AB27B681A847B6829
:100940001B8C7B817B689B88FB817B689B8BBB813D
:10095000BB8923F4E043BB81BB8923F44073BB8193
:100960003B681B881B029AB2BB891343BB817B89FE
:1009700023F400537B813B681B891B039AB27B895C
:1009800013437B813B685B881B039AB27B891343CB
:100990007B817B68124A934203D07B68114A934261
:1009A0000AD1FB8923F48043FB813B689B899B012F
:1009B0009AB2FB891343FB817B68FA899A807B6832
:1009C000BA899A833B68DA887B68A3F840207B6801
:1009D0007A891A8400BF1437BD4680BC704700BFB7
:1009E000002C01400034014080B483B000AF786037
:1009F00039603B681A883B685B8813439AB23B684E
:100A00009B8813439AB23B68DB8813439AB23B68D6
:100A10001B8913439AB23B685B8913439AB23B68C4
:100A20009B8913439AB27B68A3F8442000BF0C371C
:100A3000BD4680BC704700BF80B483B000AF786013
:100A40007B684FF6FF729A807B6800221A807B6871
:100A50000022DA807B6800225A807B6800221A72AA
:100A600000BF0C37BD4680BC704700BF80B483B068
:100A700000AF78607B6800221A807B6800225A8071
:100A80007B6800229A807B680022DA807B680022E3
:100A90001A817B6800225A817B6800229A817B68D8
:100AA0000022DA8100BF0C37BD4680BC704700BF12
:100AB00080B483B000AF78607B6800221A807B68C6
:100AC00000225A807B6800229A807B680022DA80AC
:100AD0007B6800221A817B6800225A817B68002291
:100AE0009A8100BF0C37BD4680BC704780B483B08C
:100AF00000AF78600B46FB70FB78002B08D07B685A
:100B00001B889BB243F001039AB27B681A8007E00E
:100B10007B681B889BB223F001039AB27B681A8022
:100B200000BF0C37BD4680BC704700BF80B483B0A7
:100B300000AF78600B46FB70FB78002B08D07B6819
:100B40001B889BB243F080039AB27B681A8007E04F
:100B50007B681B889BB223F080039AB27B681A8063
:100B600000BF0C37BD4680BC704700BF80B485B065
:100B700000AF78600B467B800023FB730023BB81B2
:100B800000237B817B681B8A9AB27B881340BB81E0
:100B90007B689B899AB27B8813407B81BB89002B41
:100BA00005D07B89002B02D00123FB7301E00023D9
:100BB000FB73FB7B18461437BD4680BC704700BFF3
:100BC00080B483B000AF78600B467B807B88DB43CA
:100BD0009AB27B681A8200BF0C37BD4680BC704752
:100BE00080B584B000AFF860B9607A60B9687868A1
:100BF00005F0E6FC0346002B01D07B6809E0B968EC
:100C0000F86805F0D3FC0346002B01D0FB6800E038
:100C1000BB6818461037BD4680BD00BF80B500AF29
:100C2000154A154B1B6843F0010313601249124B20
:100C30005A68124B13404B600F4A0F4B1B6823F04E
:100C4000847323F4803313600B4A0B4B1B6823F42B
:100C500080231360084A084B5B6823F4FE0353604B
:100C6000054B4FF41F029A6000F00CF8044B4FF054
:100C700000629A6000BF80BD001002400000FFF8D3
:100C800000ED00E080B500AF00F002F800BF80BDCD
:100C900080B483B000AF00237B6000233B603A4AFE
:100CA000394B1B6843F480331360374B1B6803F4E4
:100CB00000333B607B6801337B603B68002B03D1D2
:100CC0007B68B3F5A06FF0D12F4B1B6803F40033A2
:100CD000002B02D001233B6001E000233B603B6816
:100CE000012B4BD1294A294B1B6843F01003136099
:100CF000264A264B1B6823F003031360234A234B29
:100D00001B6843F0020313601F4A1F4B5B6853606C
:100D10001D4A1D4B5B6853601B4A1B4B5B6843F4C9
:100D200080635360184A184B5B6823F47C1353604C
:100D3000154A154B5B6843F4E8135360124A124B93
:100D40001B6843F08073136000BF0F4B1B6803F0F8
:100D50000073002BF9D00C4A0B4B5B6823F00303A4
:100D60005360094A084B5B6843F00203536000BFBD
:100D7000054B5B6803F00C03082BF9D100BF0C375F
:100D8000BD4680BC704700BF0010024000200240FA
:100D900090B585B000AFF860B9601346FB80FB6882
:100DA00003F12800FA881023B96801F0FDFAFB6806
:100DB00028330021184601F029FBFB6800221A8025
:100DC00002F090FC03460C46FA68C2E90434064B74
:100DD000B3F900309BB201339BB21AB2024B1A80B6
:100DE00000BF1437BD4690BD6A14002090B583B093
:100DF00000AF786039607B683A68DA6002F072FCB4
:100E00000A4601463B684FF000045B1844EB0204BD
:100E10007A68C2E904347B6828330121184601F05E
:100E2000F5FA7B6801221A8000BF0C37BD4690BDE1
:100E300090B583B000AF7860434BB3F900309BB2FC
:100E4000013B9BB21AB2404B1A807B681B88012B76
:100E500003D0022B26D0002B72E002F043FC0A469E
:100E600001467B6803F11004D4E90034944208BFC2
:100E70008B4234BF01230023DBB2002B5DD07B68A3
:100E8000D3E904127B68DB684FF000045B1844EB85
:100E900002047A68C2E904347B682833184601F0FA
:100EA00013FB4AE002F01EFC0A4601467B6803F190
:100EB0001804D4E90034944208BF8B4234BF0123A4
:100EC0000023DBB2002B12D07B68D3E906127B68CB
:100ED0009B684FF000045B1844EB02047A68C2E997
:100EE00008347B6828330021184601F08FFA02F09D
:100EF000F9FB0A4601467B6803F12004D4E900347B
:100F0000944208BF8B4234BF01230023DBB2002B85
:100F100015D07B68D3E908127B685B684FF000044A
:100F20005B1844EB02047A68C2E906347B68283314
:100F30000121184601F06AFA01E000BF00E000BF9D
:100F400000BF0C37BD4690BD6814002080B584B04A
:100F500000AFF860B9603B601346FB803B8B1A46DC
:100F60003968F86800F028F9FB68FA889A81FB680C
:100F7000BA689A60FB68BA8B9A80FB683A8CDA8010
:100F8000FB68BA8CDA81FB689B68404A93420BD1BC
:100F90003F4B01221A60FB689A88FB68DB88194680
:100FA000104600F01BF931E0FB689B68B3F1804FFD
:100FB0000BD1384B01221A60FB689A88FB68DB88EA
:100FC0001946104600F04CF920E0FB689B68324A55
:100FD00093420BD1314B01221A60FB689A88FB685F
:100FE000DB881946104600F05FF90FE0FB689B684C
:100FF0002B4A934243D12B4B01221A60FB689A88FB
:10100000FB68DB881946104600F074F9FB689B8981
:10101000013B032B35D801A252F823F02D10000814
:101020003F1000085110000863100008FB689A6820
:10103000FB68DB891946104600F082F91AE0FB686C
:101040009A68FB68DB891946104600F09FF911E0A9
:10105000FB689A68FB68DB891946104600F0BCF90A
:1010600008E0FB689A68FB68DB891946104600F0C7
:10107000D9F900BF0021F86800F016F802E000BFBF
:1010800000E000BF1037BD4680BD00BF002C01400E
:10109000180C00201C0C002000040040200C002034
:1010A00000080040240C002080B582B000AF7860BA
:1010B0000B467B807B689B68384A934205D1384B4E
:1010C0001B68012B22D0012363E07B689B68B3F18E
:1010D000804F05D1334B1B68012B17D0012358E0FB
:1010E0007B689B68304A934205D1304B1B68012BCB
:1010F0000CD001234DE07B689B682D4A934205D1BB
:101100002C4B1B68012B01D0012342E07B689B889C
:101110007A889A4202D97B689B887B807B687A8830
:101120005A807B689B89013B032B2FD801A252F880
:1011300023F000BF4511000857110008691100088D
:101140007B1100087B689A687B685B8819461046AB
:1011500000F08EF91CE07B689A687B685B88194612
:10116000104600F093F913E07B689A687B685B880F
:101170001946104600F098F90AE07B689A687B6887
:101180005B881946104600F09DF901E0012300E05C
:10119000002318460837BD4680BD00BF002C014023
:1011A000180C00201C0C002000040040200C002023
:1011B00000080040240C002080B588B000AFF86023
:1011C000B9601346FB80FA8807F114001823B96848
:1011D00001F0EAF800BF2037BD4680BD80B58AB077
:1011E00000AF03460A46FB801346BB8001214FF443
:1011F000006001F09DF80121012001F099F807F14C
:101200001C031846FFF718FCFB883B84BB88BB8394
:101210000023FB83002387F8243007F11C031946C1
:101220000E48FFF763F907F10C031846FFF740FC7F
:101230004FF480433B8307F10C0319460748FFF73F
:10124000D3FB01210548FFF771FC01210348FFF79B
:101250004DFC00BF2837BD4680BD00BF002C0140BB
:1012600080B586B000AF03460A46FB801346BB80BC
:101270000121012001F07AF80121012001F058F844
:1012800007F10C031846FFF7D7FBFB883B82BB88AE
:10129000BB8107F10C0319464FF08040FFF726F998
:1012A00000BF1837BD4680BD80B586B000AF03468D
:1012B0000A46FB801346BB800121022001F056F84C
:1012C0000121012001F034F807F10C031846FFF763
:1012D000B3FBBB88BB81FB883B8207F10C0319463B
:1012E0000348FFF703F900BF1837BD4680BD00BFB4
:1012F0000004004080B586B000AF03460A46FB807C
:101300001346BB800121042001F030F801210120A7
:1013100001F00EF807F10C031846FFF78DFBBB88B0
:10132000BB81FB883B8207F10C0319460348FFF79A
:10133000DDF800BF1837BD4680BD00BF0008004083
:1013400080B586B000AF78600B467B8007F108035C
:101350001846FFF78BFB7B883B8101237B810023B1
:10136000FB8100233B8207F1080319467868FFF7E9
:1013700039F901217868FFF7D9FB01217868FFF777
:10138000B5FB00BF1837BD4680BD00BF80B586B035
:1013900000AF78600B467B8007F108031846FFF723
:1013A00065FB7B883B8101237B810023FB8100233C
:1013B0003B8207F1080319467868FFF79FF901217E
:1013C0007868FFF7B3FB01217868FFF78FFB00BF58
:1013D0001837BD4680BD00BF80B586B000AF7860CD
:1013E0000B467B8007F108031846FFF73FFB7B881D
:1013F0003B8101237B810023FB8100233B8207F19A
:10140000080319467868FFF701FA01217868FFF7A9
:101410008DFB01217868FFF769FB00BF1837BD46D7
:1014200080BD00BF80B586B000AF78600B467B8082
:1014300007F108031846FFF719FB7B883B8101235E
:101440007B810023FB8100233B8207F108031946BF
:101450007868FFF761FA01217868FFF767FB0121DF
:101460007868FFF743FB00BF1837BD4680BD00BF5B
:1014700080B483B000AF78600B467B807B687A884D
:101480009A8600BF0C37BD4680BC704780B483B0DD
:1014900000AF78600B467B807B687A881A8700BF34
:1014A0000C37BD4680BC704780B483B000AF786015
:1014B0000B467B807B687A889A8700BF0C37BD46D5
:1014C00080BC704780B483B000AF78600B467B80EF
:1014D0007B687A88A3F8402000BF0C37BD4680BCEB
:1014E000704700BF80B400AF0C4B9B8C9BB21BB20B
:1014F000DB439BB2DB0BDBB2002B05D0084B1B6838
:101500000133074A136004E0054B1B68013B044AA2
:10151000136000BFBD4680BC704700BF002C014077
:10152000280C002080B400AF4FF080439B8C9BB20E
:101530001BB2DB439BB2DB0BDBB2002B05D0074BAE
:101540001B680133054A136004E0044B1B68013B30
:10155000024A136000BFBD4680BC70472C0C0020BF
:1015600080B400AF0C4B9B8C9BB21BB2DB439BB295
:10157000DB0BDBB2002B05D0084B1B680133074A9D
:10158000136004E0054B1B68013B044A136000BF75
:10159000BD4680BC704700BF00040040300C0020F6
:1015A00080B400AF0C4B9B8C9BB21BB2DB439BB255
:1015B000DB0BDBB2002B05D0084B1B680133074A5D
:1015C000136004E0054B1B68013B044A136000BF35
:1015D000BD4680BC704700BF00080040340C0020AE
:1015E00080B400AF00BFBD4680BC704780B400AF80
:1015F00000BFBD4680BC704780B400AF00BFBD4691
:1016000080BC704780B400AF00BFBD4680BC70474F
:1016100080B400AF00BFBD4680BC704780B400AF4F
:1016200000BFBD4680BC704780B400AF00BFBD4660
:1016300080BC704780B400AF00BFBD4680BC70471F
:1016400080B400AF044B1B680133034A136000BF32
:10165000BD4680BC704700BF280C002080B400AF9E
:10166000044B1B680133034A136000BFBD4680BCB6
:10167000704700BF2C0C002080B400AF044B1B68E7
:101680000133034A136000BFBD4680BC704700BFF2
:10169000300C002080B400AF044B1B680133034AB8
:1016A000136000BFBD4680BC704700BF340C0020F3
:1016B00080B500AF0C4B1B68022B02D1FFF712FF65
:1016C0000CE0094B1B68012B02D1FFF789FF05E0F5
:1016D000054B1B68032B01D1FFF7B2FF0121034823
:1016E000FFF76EFA00BF80BD180C0020002C0140EF
:1016F00080B500AF124B1B68022B07D1FFF712FF1A
:1017000001214FF08040FFF75BFA16E00C4B1B689D
:10171000012B07D1FFF76AFF01214FF08040FFF74F
:101720004FFA0AE0064B1B68032B06D1FFF796FF22
:1017300001214FF08040FFF743FA00BF80BD00BF9A
:101740001C0C002080B500AF104B1B68022B06D18B
:10175000FFF706FF01210E48FFF732FA14E00B4BAA
:101760001B68012B06D1FFF747FF01210848FFF74F
:1017700027FA09E0054B1B68032B05D1FFF77CFF17
:1017800001210348FFF71CFA00BF80BD200C002098
:101790000004004080B500AF3C4B1B68022B06D113
:1017A000FFF7FEFE01213A48FFF70AFA6CE0374BDB
:1017B0001B68012B5ED101213548FFF7D7F903469D
:1017C000012B0CBF01230023DBB2002B06D0FFF757
:1017D00019FF01212E48FFF7F3F955E002212C48AB
:1017E000FFF7C4F90346012B0CBF01230023DBB232
:1017F000002B06D0FFF70CFF02212548FFF7E0F988
:1018000042E004212248FFF7B1F90346012B0CBF47
:1018100001230023DBB2002B06D0FFF7FFFE0421DB
:101820001B48FFF7CDF92FE008211948FFF79EF973
:101830000346012B0CBF01230023DBB2002B06D093
:10184000FFF7F2FE08211248FFF7BAF91CE0102159
:101850000F48FFF78BF90346012B0CBF0123002330
:10186000DBB2002B10D0FFF7E5FE10210848FFF790
:10187000A7F909E0054B1B68032B05D1FFF70AFF09
:1018800001210348FFF79CF900BF80BD240C002014
:101890000008004080B582B000AF114B7B60114B57
:1018A0003B6007E03B681A1D3A607A68111D796059
:1018B00012681A603B680C4A9342F3D30B480C49F8
:1018C0004FF000028842B8BF40F8042BFADBFFF764
:1018D000A5F900F047FB00BF0837BD4680BD00BF3B
:1018E00024C2000800000020DC090020E0090020DC
:1018F0006819002080B400AFFEE700BF80B489B053
:1019000000AF786039600023FB6100233B61002356
:10191000BB610023FB6000237B610023BB603B684D
:10192000DB7803F00F03FB613B68DB7803F0100307
:10193000002B05D03B689B781A46FB691343FB617B
:101940003B681B88DBB2002B44D07B681B687B6143
:101950000023BB6138E00122BB6902FA03F3FB609C
:101960003B681B881A46FB6813403B613A69FB6879
:101970009A4226D1BB699B00FB600F22FB6802FAEA
:1019800003F3BB60BB68DB437A6913407B61FA6990
:10199000FB6802FA03F37A6913437B613B68DB78E7
:1019A000282B05D10122BB699A407B685A6108E067
:1019B0003B68DB78482B04D10122BB699A407B68E5
:1019C0001A61BB690133BB61BB69072BC3D97B6853
:1019D0007A691A603B681B88FF2B46D97B685B6875
:1019E0007B610023BB613AE0BB690833012202FA44
:1019F00003F3FB603B681B881A46FB6813403B619E
:101A00003A69FB689A4227D1BB699B00FB600F22B1
:101A1000FB6802FA03F3BB60BB68DB437A691340DF
:101A20007B61FA69FB6802FA03F37A6913437B610D
:101A30003B68DB78282B05D1BB69083301229A402B
:101A40007B685A613B68DB78482B05D1BB6908335A
:101A500001229A407B681A61BB690133BB61BB6993
:101A6000072BC1D97B687A695A6000BF2437BD460D
:101A700080BC704780B483B000AF78607B684FF65D
:101A8000FF721A807B6802229A707B680422DA70E7
:101A900000BF0C37BD4680BC704700BF80B485B026
:101AA00000AF78600B467B800023FB737B689A68ED
:101AB0007B881340002B02D00123FB7301E000233D
:101AC000FB73FB7B18461437BD4680BC704700BFD4
:101AD00080B485B000AF78600B467B800023FB7339
:101AE0007B68DA687B881340002B02D00123FB73EC
:101AF00001E00023FB73FB7B18461437BD4680BC16
:101B0000704700BF80B483B000AF78600B467B8025
:101B100013467B707B78002B03D07A887B681A6130
:101B200002E07A887B685A6100BF0C37BD4680BCF2
:101B3000704700BF80B487B000AF78600B46FB7081
:101B400000233B610023FB6000237B610023BB601B
:101B50007B68002B03DA2E4BDB697B6102E02C4BA8
:101B60005B687B617B681B0C03F00F03BB607B68C9
:101B70009BB23B617B6803F44013B3F5401F0AD16D
:101B80007B6923F070637B61214A214B5B6823F002
:101B90007063536021E07B6803F48013002B0ED048
:101BA0000322BB6802FA03F3FB60FB68DB437A693C
:101BB00013407B617B6943F070637B610DE07B6860
:101BC0005B0D1B013A6902FA03F3DB437A691340A8
:101BD0007B617B6943F070637B61FB78002B08D0ED
:101BE0007B685B0D1B013A6902FA03F37A691343C0
:101BF0007B617B68002B03DA054A7B69D36102E0D5
:101C0000034A7B69536000BF1C37BD4680BC7047E8
:101C10000000014080B584B004AFA34800F0FEF995
:101C200048234022A149A24800F0BEFB6023039351
:101C30000023029344F620630193202300939D4BDD
:101C400002229D499D48FFF781F9602303930023F9
:101C5000029344F62063019310230093954B0122D5
:101C600095499748FFF772F9602303930023029385
:101C700044F620630193082300938E4B02224FF019
:101C800080419048FFF762F9602303930023029399
:101C900044F6206301934FF400430093834B0122E9
:101CA0004FF080418848FFF751F910234FF400723C
:101CB0008049864800F078FB10234FF480727D49FC
:101CC000834800F071FB102380227A49814800F09C
:101CD0006BFB1023402277497F4800F065FB7B4A6D
:101CE00076497E4801F0CAF9794A75497C4801F085
:101CF000C5F9784A73497B4801F0C0F9764A7249C0
:101D0000794801F0BBF90223019301230093674B4B
:101D100000227649764801F0BDFA0223019302239E
:101D20000093624B01227349734801F0B3FA022316
:101D30000193102300935D4B04226C496F4801F01E
:101D4000A9FA0223019320230093584B05226949E5
:101D50006B4801F09FFA4FF480630293534B019359
:101D60004FF400730093514B4FF4E13265496648DC
:101D700002F0FAFF654A6649634802F0D3FF654AFC
:101D80006549614802F0CEFF5F49474800F064F9B9
:101D90004FF400630293474B01934FF48063009329
:101DA000444B4FF4E1325D495D4802F00BFE0823DD
:101DB00002933E4B0193042300933C4B594A5A49EA
:101DC0005A4800F069FF482301223A495848FEF773
:101DD0009DF94823802235495648FEF797F94FF47C
:101DE000005255495548FEF7D3FF4FF480425249FF
:101DF0005348FEF7CDFF4FF400424F495148FEF7DC
:101E0000C7FF04222B495048FEF7C2FF01214F486B
:101E1000FFF790FE01214E48FFF78CFE01214D484F
:101E2000FFF788FE304B03932E4B02932C4B01930C
:101E30002A4B00933A4B3D4A3349474802F00EFC87
:101E4000414B02933F4B01933D4B00933B4B384A30
:101E50003849414802F086FC154800F001FB034672
:101E6000002B14BF01230023DBB2002B0DD03B4B12
:101E700002936FF013030193214B00931F4B1E4AF3
:101E80001B49354802F0A6FC0BE0354B02936E234C
:101E900001931B4B0093194B174A15492E4802F02A
:101EA00099FC00BFBD4680BD380C002000080140F1
:101EB000180E0020000C014000040040A80D002076
:101EC000B80D0020C80D0020D80D0020E80D00201E
:101ED000F40D0020000E00200C0E0020280E002023
:101EE000480E0020680E0020880E002000240140CB
:101EF000780D002000280140840D0020900D002066
:101F00009C0D002000380140400C0020D0B6000895
:101F1000DCB60008E8B60008F4B600080048004047
:101F2000A80E0020A086010000440040280F0020D9
:101F3000480C0020700C002000100140980C00207C
:101F4000D00C0020080D0020400D002000023000C1
:101F50000001180000081A00A00F00204C37714142
:101F6000CDCC6E4180B500AFFFF754FE034800F0C2
:101F700083F8034801F01AFEF8E700BF380C002090
:101F8000A00F002080B483B000AF03463960FB711E
:101F900097F90730002B0BDA0D49FB7903F00F039B
:101FA000043B3A68D2B21201D2B20B441A7609E06D
:101FB000084997F907303A68D2B21201D2B20B44FD
:101FC00083F8002300BF0C37BD4680BC704700BFBC
:101FD00000ED00E000E100E080B582B000AF786085
:101FE0007B68B3F1807F01D3012311E00A4A7B684B
:101FF00023F07F43013B53600F214FF0FF30FFF789
:10200000C1FF054B00229A60034B07221A60002390
:1020100018460837BD4680BD10E000E080B582B0AC
:1020200000AF7860094B1B685B09094AA2FB0323D8
:10203000DB091846FFF7D0FF7B6800221A80054BAA
:1020400000221A8000BF0837BD4680BD0000002076
:10205000C55A7C0A6C14002080B483B000AF78604D
:1020600039607B683A685A607B6801221A8000BF39
:102070000C37BD4680BC704780B582B000AF786039
:10208000214B1B88002B11D07B681B88002B0DD0A7
:102090007B6858681C4B1B881A461C4902F042FE9C
:1020A0000A2001F0DDFA184B00221A80184BB3F910
:1020B0000030002B1BDD164BB3F900309AB2124BE7
:1020C0001A807B681B88002B11D00022642178685D
:1020D00000F024F87B6858680D4BB3F900301A46BD
:1020E0000C4902F01FFE0A2001F0BAFAFEE77868F8
:1020F00000F026F8084BB3F90020054B1A8000BF0A
:102100000837BD4680BD00BF6C14002000B7000832
:102110006814002014B700086A14002080B582B04B
:1021200000AF78600B467B8013467B707A787B88A3
:102130001146184600F00EF800BF0837BD4680BDB6
:1021400080B582B000AF786000F020F800BF08379B
:10215000BD4680BD80B582B000AF03460A46FB8015
:1021600013467B7145F2555003F058FA7B791846B7
:1021700003F064FAFB88184603F070FA00F006F8E2
:1021800003F088FA00BF0837BD4680BD80B500AFB8
:1021900003F074FA00BF80BD80B485B000AF7860F2
:1021A0000023FB60094B5B68FB60FB6823F4404342
:1021B000FB60FA687B681343FB60044AFB6853606A
:1021C00000BF1437BD4680BC704700BF00100240FE
:1021D00080B487B000AF786000237B6100233B614F
:1021E0000023FB600023BB604C4B5B6803F00C03D7
:1021F0007B617B69042B07D0082B09D0002B33D1DE
:102200007B68474A1A6033E07B68454A1A602FE0D2
:10221000424B5B6803F470133B61404B5B6803F413
:102220008033FB603B699B0C02333B61FB68002BF6
:1022300006D13B693B4A02FB03F27B681A6017E058
:10224000364B5B6803F40033002B06D03B69354AFC
:1022500002FB03F27B681A600AE03B69304A02FB2A
:1022600003F27B681A6003E07B682D4A1A6000BFA6
:102270002A4B5B6803F0F0037B617B691B097B6180
:10228000294A7B6913441B78DBB2BB607B681A6800
:10229000BB68DA407B685A60204B5B6803F4E063FC
:1022A0007B617B691B0A7B611F4A7B6913441B7836
:1022B000DBB2BB607B685A68BB68DA407B689A60B7
:1022C000164B5B6803F460537B617B69DB0A7B61BF
:1022D000154A7B6913441B78DBB2BB607B685A6884
:1022E000BB68DA407B68DA600C4B5B6803F4404300
:1022F0007B617B699B0B7B610C4A7B6913441B7878
:10230000DBB2BB607B68DA68BB68B2FBF3F27B6868
:102310001A6100BF1C37BD4680BC704700100240E8
:1023200000127A0000093D00140000202400002063
:1023300080B483B000AF78600B46FB70FB78002B55
:1023400006D00949084B9A697B6813438B6106E004
:102350000549054B9A697B68DB4313408B6100BFDD
:102360000C37BD4680BC70470010024080B483B07B
:1023700000AF78600B46FB70FB78002B06D0094954
:10238000084BDA697B681343CB6106E00549054BCE
:10239000DA697B68DB431340CB6100BF0C37BD4675
:1023A00080BC70470010024080B586B000AFF86076
:1023B000B96011461A460B46FB8013467B71FB68D9
:1023C000FA885A80FB68BA685A6000F08DF8FB689A
:1023D0007A791A7207F114031846FFF74BFBFB6872
:1023E0005B88BB82FB681B7AFB750323BB75FB68AC
:1023F0005B6807F1140211461846FFF77FFAFB6885
:1024000000221A8000BF1837BD4680BD80B582B05B
:1024100000AF78600B467B807B681B88002B07D061
:102420007B88002B02D000237B8001E001237B808E
:102430007B88002B08D17B6858687B685B8800220A
:102440001946FFF75FFB07E07B6858687B685B888D
:1024500001221946FFF756FB00BF0837BD4680BD75
:1024600080B582B000AF78607B681B88002B13D1E9
:102470007B685A687B685B8819461046FFF70EFB3D
:102480000346002B14BF01230023DBB2002B01D035
:10249000012314E0002312E07B685A687B685B88A4
:1024A00019461046FFF7FAFA0346002B14BF012322
:1024B0000023DBB2002B01D0002300E001231846EB
:1024C0000837BD4680BD00BF80B582B000AF7860E0
:1024D0007B685A687B685B881946104600F018F8DC
:1024E00000BF0837BD4680BD80B500AF0121042084
:1024F000FFF71EFF01210820FFF71AFF012110201E
:10250000FFF716FF01212020FFF712FF00BF80BD5B
:1025100080B582B000AF78600B467B807B8819461F
:102520007868FFF7D5FA0346012B0CBF012300237F
:10253000DBB2002B06D07B88002219467868FFF7B3
:10254000E1FA05E07B88012219467868FFF7DAFA9C
:1025500000BF0837BD4680BD80B485B000AF78604D
:1025600039600023FB600023FB727B685B68FB60C3
:10257000FB6823F4702323F48073FB603B681A68C4
:102580003B681B791B021343FA681343FB607B68AB
:10259000FA685A607B689B68FB60FA68164B1340C8
:1025A000FB603B68DA683B689B681A433B685B7971
:1025B0005B001343FA681343FB607B68FA689A6018
:1025C0007B68DB6AFB60FB6823F47003FB603B689D
:1025D0001B7C013BDAB2FB7A1343FB72FB7A1B05CF
:1025E000FA681343FB607B68FA68DA6200BF14374D
:1025F000BD4680BC704700BFFDF7F1FF80B483B0DB
:1026000000AF78607B6800221A607B6800221A7134
:102610007B6800225A717B6800229A607B680022E6
:10262000DA607B6801221A7400BF0C37BD4680BC9B
:10263000704700BF80B483B000AF78600B46FB707A
:10264000FB78002B06D07B689B6843F001027B6817
:102650009A6005E07B689B6823F001027B689A60C2
:1026600000BF0C37BD4680BC704700BF80B483B04C
:1026700000AF78607B689B6843F008027B689A60D3
:1026800000BF0C37BD4680BC704700BF80B485B02A
:1026900000AF78600023FB737B689B6803F008033E
:1026A000002B02D00123FB7301E00023FB73FB7BB3
:1026B00018461437BD4680BC704700BF80B483B055
:1026C00000AF78607B689B6843F004027B689A6087
:1026D00000BF0C37BD4680BC704700BF80B485B0DA
:1026E00000AF78600023FB737B689B6803F00403F2
:1026F000002B02D00123FB7301E00023FB73FB7B63
:1027000018461437BD4680BC704700BF80B483B004
:1027100000AF78600B46FB70FB78002B06D07B681F
:102720009B6843F4A0027B689A6005E07B689B6825
:1027300023F4A0027B689A6000BF0C37BD4680BCC2
:10274000704700BF80B485B000AF7860084611467E
:102750001A460346FB700B46BB7013467B70002382
:10276000FB600023BB60FB78092B23D97B68DB6807
:10277000FB60FB78A3F10A0213465B0013440722B7
:1027800002FA03F3BB60BB68DB43FA681340FB60EB
:102790007978FB78A3F10A0213465B00134401FA2F
:1027A00003F3BB60FA68BB681343FB607B68FA689D
:1027B000DA601EE07B681B69FB60FA7813465B00F9
:1027C0001344072202FA03F3BB60BB68DB43FA68D9
:1027D0001340FB607978FA7813465B00134401FAE2
:1027E00003F3BB60FA68BB681343FB607B68FA685D
:1027F0001A61BB78062B21D87B685B6BFB60BB78CA
:102800005A1E13469B0013441F2202FA03F3BB60B7
:10281000BB68DB43FA681340FB60F978BB785A1E4B
:1028200013469B00134401FA03F3BB60FA68BB68CC
:102830001343FB607B68FA685A6347E0BB780C2B54
:1028400021D87B681B6BFB60BB78DA1F13469B00AB
:1028500013441F2202FA03F3BB60BB68DB43FA6830
:102860001340FB60F978BB78DA1F13469B001344D2
:1028700001FA03F3BB60FA68BB681343FB607B6833
:10288000FA681A6322E07B68DB6AFB60BB78A3F11D
:102890000D0213469B0013441F2202FA03F3BB6090
:1028A000BB68DB43FA681340FB60F978BB78A3F19F
:1028B0000D0213469B00134401FA03F3BB60FA6850
:1028C000BB681343FB607B68FA68DA6200BF1437A9
:1028D000BD4680BC704700BF80B483B000AF786055
:1028E0007B68DB6C9BB218460C37BD4680BC7047DA
:1028F00080B485B000AF78600B46FB700023FB739B
:102900007B681A68FB781340002B02D00123FB730D
:1029100001E00023FB73FB7B18461437BD4680BCE7
:10292000704700BF80B58CB000AF7860396000237D
:10293000FB620023BB6200237B6200233B62002317
:10294000FB617B68FB617B681B8A9BB2FB62FA6A56
:102950004CF6FF731340FB623B68DB881A46FB6A48
:102960001343FB62FB6A9AB27B681A827B689B897D
:102970009BB2FB62FA6A4EF6F3131340FB623B68AC
:102980009A883B681B8913439AB23B685B8913435F
:102990009BB21A46FB6A1343FB62FB6A9AB27B68DE
:1029A0009A817B689B8A9BB2FB62FA6A4FF6FF436F
:1029B0001340FB623B689B891A46FB6A1343FB6228
:1029C000FB6A9AB27B689A8207F108031846FFF700
:1029D000FFFBFB692E4A934202D17B69BB6201E097
:1029E0003B69BB627B689B899BB21BB2002B0CDAF4
:1029F000BA6A13469B0013449A001A443B681B684A
:102A00005B00B2FBF3F37B620BE0BA6A13469B00F8
:102A100013449A001A443B681B689B00B2FBF3F313
:102A20007B627B6A1B4AA2FB03235B091B01FB62DF
:102A3000FB6A1B09642202FB03F37A6AD31A3B6226
:102A40007B689B899BB21BB2002B0CDA3B6ADB00D4
:102A50003233104AA2FB03235B0903F00703FA6A2F
:102A60001343FB620BE03B6A1B013233094AA2FBB2
:102A700003235B0903F00F03FA6A1343FB62FB6A4B
:102A80009AB27B681A8100BF3037BD4680BD00BF57
:102A9000003801401F85EB5180B483B000AF7860EF
:102AA0007B684FF416521A607B6800229A807B681C
:102AB0000022DA807B6800221A817B680C225A810E
:102AC0007B6800229A8100BF0C37BD4680BC7047EE
:102AD00080B483B000AF78600B46FB70FB78002BAE
:102AE00008D07B689B899BB243F400539AB27B6801
:102AF0009A8107E07B689B899BB223F400539AB2CA
:102B00007B689A8100BF0C37BD4680BC704700BF10
:102B100080B487B000AF78600B467B8013467B7033
:102B200000233B610023FB600023BB6000237B612B
:102B30007B687B617B88DBB25B09DBB23B617B88B6
:102B400003F01F03FB600122FB6802FA03F3BB6082
:102B50003B69012B03D17B690C337B6109E03B6945
:102B6000022B03D17B6910337B6102E07B69143354
:102B70007B617B78002B06D07B697A691168BA6823
:102B80000A431A6006E07B697A691168BA68D24321
:102B90000A401A6000BF1C37BD4680BC704700BFAA
:102BA00080B483B000AF78600B467B807B88C3F332
:102BB00008039AB27B689A8000BF0C37BD4680BC80
:102BC000704700BF80B483B000AF78607B689B889B
:102BD0009BB2C3F308039BB218460C37BD4680BCBA
:102BE000704700BF80B487B000AF78600B467B8031
:102BF0000023FB6000237B610023BB600023FB7488
:102C00007B88DBB25B09DBB2BB607B8803F01F0310
:102C10007B6101227B6902FA03F37B61BB68012BB4
:102C200007D17B689B899BB21A467B6913407B6105
:102C300011E0BB68022B07D17B681B8A9BB21A4646
:102C40007B6913407B6106E07B689B8A9BB21A46D6
:102C50007B6913407B617B881B0A9BB2FB6001226E
:102C6000FB6802FA03F3FB607B681B889BB21A4681
:102C7000FB681340FB607B69002B05D0FB68002BD1
:102C800002D00123FB7401E00023FB74FB7C184697
:102C90001C37BD4680BC704790B589B004AFF86062
:102CA000B9607A603B60FB6803F170003B8D029372
:102CB0007B6A01933B8C00933B687A68B96802F0A9
:102CC00053F8FB680022DA86FA684FF000034FF0F1
:102CD0000004C2E90234FA684FF000034FF0000428
:102CE000C2E90034FB6800221A87064BB3F90030B2
:102CF0009BB201339BB21AB2024B1A8000BF143749
:102D0000BD4690BD6A14002090B585B000AF7860D4
:102D10001A4BB3F900309BB2013B9BB21AB2174B6E
:102D20001A807B687033184602F0D4F90346002BF2
:102D300014BF01230023DBB2002B21D07B6870334A
:102D4000184602F03BF90346FB73FB7B0F2B02D1C5
:102D50007B6800221A827B681B8A182B07D87B6845
:102D60001B8A1A467B681344FA7B83F83A207B68F7
:102D70001B8A01339AB27B681A82D2E7681400205A
:102D80007B681B8A192B40F053817B6893F83B309A
:102D90001AB27B6893F83C301B021BB213431BB280
:102DA0009BB2C3F30A039AB27B685A827B6893F89A
:102DB0003C30DB101AB27B6893F83D305B011BB2EC
:102DC00013431BB29BB2C3F30A039AB27B689A8285
:102DD0007B6893F83D309B111AB27B6893F83E30C4
:102DE0009B001BB213431AB27B6893F83F309B02DF
:102DF0001BB213431BB29BB2C3F30A039AB27B68A4
:102E0000DA827B6893F83F305B101AB27B6893F8E4
:102E10004030DB011BB213431BB29BB2C3F30A0366
:102E20009AB27B681A837B6893F840301B111AB200
:102E30007B6893F841301B011BB213431BB29BB25A
:102E4000C3F30A039AB27B685A837B6893F84130D4
:102E5000DB111AB27B6893F842305B001BB213435C
:102E60001AB27B6893F843305B021BB213431BB268
:102E70009BB2C3F30A039AB27B689A837B6893F888
:102E800043309B101AB27B6893F844309B011BB20D
:102E900013431BB29BB2C3F30A039AB27B68DA8373
:102EA0007B6893F844305B111AB27B6893F8453025
:102EB000DB001BB213431BB29BB2C3F30A039AB2EB
:102EC0007B681A847B6893F846301AB27B6893F863
:102ED00047301B021BB213431BB29BB2C3F30A035E
:102EE0009AB27B685A847B6893F84730DB101AB239
:102EF0007B6893F848305B011BB213431BB29BB253
:102F0000C3F30A039AB27B689A847B6893F84830CB
:102F10009B111AB27B6893F849309B001BB2134394
:102F20001AB27B6893F84A309B021BB213431BB260
:102F30009BB2C3F30A039AB27B68DA847B6893F886
:102F40004A305B101AB27B6893F84B30DB011BB23E
:102F500013431BB29BB2C3F30A039AB27B681A8570
:102F60007B6893F84B301B111AB27B6893F84C3096
:102F70001B011BB213431BB29BB2C3F30A039AB2E9
:102F80007B685A857B6893F84C30DB111AB27B68FA
:102F900093F84D305B001BB213431AB27B6893F871
:102FA0004E305B021BB213431BB29BB2C3F30A0346
:102FB0009AB27B689A857B6893F84E309B101AB260
:102FC0007B6893F84F309B011BB213431BB29BB23B
:102FD000C3F30A039AB27B68DA857B6893F84F30B3
:102FE0005B111AB27B6893F85030DB001BB21343BD
:102FF0001BB29BB2C3F30A039AB27B681A867B6842
:1030000032221A8200F06EFB0A4601467B6818CB1A
:10301000CB1A62EB04047A68C2E9023400F062FB66
:1030200003460C467A68C2E900347B6801221A879D
:103030007B681B8A1A2B06D17B68DB8E43F010035A
:103040009AB27B68DA8600BF1437BD4690BD00BFD8
:1030500080B483B000AF78600B467B807B880F2BF9
:1030600001D9002305E07B887A6808335B001344AC
:103070005B8818460C37BD4680BC704790B585B05C
:1030800000AFF860B9607A60FB68BA68DA61FB6823
:103090007A689A614FF00001F86800F077F8FA68F2
:1030A0004FF000034FF00004C2E90434FB68094A02
:1030B0009A60FB68084ADA60084BB3F900309BB2AB
:1030C00001339BB21AB2054B1A8000BF1437BD46BC
:1030D00090BD00BFA4707D3FA4707DBF6A14002026
:1030E00090B583B000AF7860134BB3F900309BB25A
:1030F000013B9BB21AB2104B1A8000F0F3FA0A4659
:1031000001467B6803F11004D4E90034CB1A62EB6A
:103110000404002C08BF652B2CBF01230023DBB265
:10312000002B04D04FF00001786800F02FF800BFAA
:103130000C37BD4690BD00BF6814002080B582B03A
:1031400000AF786039607B689B683968184603F087
:1031500041FA0346002B02D07B683A689A603B68CC
:1031600083F000427B68DB681946104603F032FAB0
:103170000346002B00D104E03B6883F000427B68EB
:10318000DA6000BF0837BD4680BD00BFB0B582B071
:1031900000AF786039607B683A685A6000F0A2FA44
:1031A00003460C467A68C2E904344FF000013868DF
:1031B00003F010FA0346002B06D07B689B690121BF
:1031C0001846FFF723F905E07B689B690021184644
:1031D000FFF71CF97B6898687B68DB681A463968DA
:1031E000FDF7FEFC03463B604FF00001386803F03A
:1031F000D3F90346002B03D03B6883F000433B60C8
:103200007B68DC697B68DB699B88184602F0D2FF2B
:1032100005467B68DB699B88184602F0CBFF0346B6
:103220003968184603F01AF803461946284602F092
:103230000BFF0346184603F0FDF903469BB21946FF
:103240002046FDF731FF00BF0837BD46B0BD00BFC7
:1032500080B485B000AF78600A4B1B68002B02D1A8
:10326000084B094A1A60074B1B68FB60054B1A683C
:103270007B681344034A1360FB6818461437BD4645
:1032800080BC7047701400206819002080B400AF23
:10329000FEE700BF80B584B000AFF860B9603B6066
:1032A0001346FB713B8B1A463968F86800F0EEF85C
:1032B000BB68194A934209D0BB68184A934205D0AB
:1032C000174B1B8801339AB2154B1A80FB68FA79A9
:1032D0009A70FB68BA689A60FB683A7FDA70FB689C
:1032E0009B680D4A934205D1FB689B78184600F015
:1032F000DFF809E0FB689B68084A934204D1FB6849
:103300009B78184600F01EF9FB6800221A7100BF76
:103310001037BD4680BD00BF002401400028014099
:103320006C14002080B582B000AF78607B68DB78D9
:103330001946786800F004F800BF0837BD4680BD24
:1033400080B582B000AF78600B46FB707B689B68ED
:103350001F4A934219D102211D48FFF7C9FA0346BB
:10336000012B0CBF01230023DBB2002B05D000F0A2
:1033700063F903461A467B681A807B689B78FA7863
:103380001146184600F028F91DE07B689B68114A39
:10339000934218D102210F48FFF7AAFA0346012BE6
:1033A0000CBF01230023DBB2002B05D000F04EF947
:1033B00003461A467B681A807B689B78FA78114628
:1033C000184600F021F900BF0837BD4680BD00BF98
:1033D000002401400028014080B582B000AF786031
:1033E0007B689B6802211846FFF782FA0346012B8F
:1033F0000CBF01230023DBB2002B01D0012300E02E
:10340000002318460837BD4680BD00BF80B582B096
:1034100000AF78607B689B681A4A934211D1786844
:10342000FFF7DAFF0346002B14BF01230023DBB2B2
:10343000002B20D000F000F903461A467B681A8062
:1034400019E07B689B68104A934211D17868FFF7B6
:10345000C3FF0346002B14BF01230023DBB2002B64
:1034600009D000F0F3F803461A467B681A8002E0A0
:103470007B6800221A807B681B8818460837BD4687
:1034800080BD00BF002401400028014080B588B005
:1034900000AFF860B9601346FB80FA8807F11400AA
:1034A0000023B968FEF780FF00BF2037BD4680BD0E
:1034B00080B588B000AF0346FB710020FEF76CFEBC
:1034C00001214FF40070FEF733FF07F10C0318469B
:1034D000FFF794F84FF460237B6107F10C03194662
:1034E0001748FFF739F8F979022301221448FFF74A
:1034F00029F901211248FFF79DF81148FFF7B6F8A6
:103500000F48FFF7C3F80346002B14BF0123002325
:10351000DBB2002B00D0F3E70948FFF7CFF80848EB
:10352000FFF7DCF80346002B14BF01230023DBB2B6
:10353000002B00D0F3E700BF2037BD4680BD00BFA1
:103540000024014080B588B000AF0346FB71002025
:10355000FEF722FE01214FF48060FEF7E9FE07F13D
:103560000C031846FFF74AF84FF460237B6107F11C
:103570000C0319461748FEF7EFFFF97902230122E1
:103580001448FFF7DFF801211248FFF753F81148FC
:10359000FFF76CF80F48FFF779F80346002B14BFCC
:1035A00001230023DBB2002B00D0F3E70948FFF72B
:1035B00085F80848FFF792F80346002B14BF012353
:1035C0000023DBB2002B00D0F3E700BF2037BD465D
:1035D00080BD00BF0028014080B582B000AF034627
:1035E0000A46FB711346BB71BB79F9790122054884
:1035F000FFF7A8F801210348FFF788F800BF083754
:10360000BD4680BD0024014080B582B000AF0346B6
:103610000A46FB711346BB71BB79F9790122054853
:10362000FFF790F801210348FFF770F800BF083753
:10363000BD4680BD0028014080B500AF0248FFF7BD
:103640004BF90346184680BD0024014080B500AF09
:103650000248FFF741F90346184680BD00280140A3
:10366000B0B584B000AF78607B684FF47A7202FB2B
:1036700003F31C464FF0000500F01EF802460B460F
:10368000A01845EB030103460C46C7E9023400F0DD
:1036900013F80A460146D7E90234A24208BF99420C
:1036A00034BF01230023DBB2002B00D0EFE700BFC3
:1036B0001037BD46B0BD00BF90B400AF084B18CB6B
:1036C000DB1844EB0404A20042EA937299005B18F1
:1036D00044EB020418462146BD4690BC704700BF2B
:1036E0007814002098B500AFFFF7E6FF4FF47A7228
:1036F0004FF0000302F0BEFF03460C461846214679
:1037000098BD00BF90B400AF054B18CB013344F116
:103710000004034AC2E9003400BFBD4690BC7047B4
:103720007814002080B487B000AF786000237B61FC
:1037300000233B610F23FB607B68DB78002B3AD0D2
:10374000274BDB68DB4303F4E0631B0A7B617B6987
:10375000C3F104033B61FA687B6922FA03F3FB605F
:103760007B685B781A463B6902FA03F37B617B68EE
:103770009B781A46FB6813407A6913437B617B6927
:103780001B017B61174A7B681B787969C9B21344B6
:103790000A4683F80023134A7B681B785B09DBB277
:1037A00018467B681B7803F01F03012101FA03F31D
:1037B00042F820300FE00B497B681B785B09DBB2D5
:1037C00018467B681B7803F01F0301229A4000F122
:1037D000200341F8232000BF1C37BD4680BC704742
:1037E00000ED00E000E100E080B487B000AFF860D9
:1037F000B9607A603B60FB68BA681A60FB687A68F7
:103800005A60FB683A689A60FB684FF00002DA641D
:10381000FB684FF000021A65FB684FF000025A6522
:10382000FB684FF000025A61FB684FF000029A619A
:10383000FB680022A3F85C2000237B617B69032BDB
:103840001BDCFA687B6906339B0013444FF00002CF
:103850005A60FA687B690A339B0013444FF00002F8
:103860005A60FA687B690E339B0013444FF00002E4
:103870005A607B6901337B61E0E700BF1C37BD46BE
:1038800080BC704780B584B000AFF860B9607A60E2
:103890007B68BA680321F86800F004F800BF1037AD
:1038A000BD4680BD80B485B000AFF8607A603B60F3
:1038B0000B467B817B89042B16D87B89FA680E33F3
:1038C0009B0013444FF07E525A607B89FA6806339E
:1038D0009B0013447A685A607B89FA680A339B001C
:1038E00013443A685A6000E000BF1437BD4680BCFC
:1038F000704700BF80B582B000AF786039607B68E8
:103900003A68DA607B681A697B68DB68194610469A
:1039100002F09AFB03461946786800F005F800BFEC
:103920000837BD4680BD00BF80B582B000AF78606B
:1039300039607B68DA6C7B681A657B683A68DA64A0
:103940007B681A6D7B68DB6C1946104602F07CFBC5
:1039500003461A467B689A657B685A6D7B68DB6C08
:103960001946104602F072FB03461A467B685A65F8
:103970007B689B6C4FF00001184602F003FE034683
:10398000002B00D00BE07B68986B7B68596D7B68DF
:103990009B6A1A46FDF724F902467B685A6500BF08
:1039A0000837BD4680BD00BF80B588B000AF7860E5
:1039B0004FF00003FB617B68DA6C7B681B6819467B
:1039C000104602F04BFC0346FB607B685A6D7B6837
:1039D0005B681946104602F041FC03463B617B6878
:1039E0009A6D7B689B681946104602F037FC0346C7
:1039F0007B610023BB61BB69022B3CDC7A68BB693D
:103A00000E339B0013445B684FF00001184602F030
:103A1000B9FD0346002B1DD17A68BB690A339B00B0
:103A200013445868BB699B0007F12002134453F804
:103A3000141C7A68BB6906339B0013445B681A4602
:103A4000FDF7CEF80246BB699B0007F120010B444D
:103A500043F8142CBB699B0007F12002134453F870
:103A6000143C1946F86902F0F1FA0346FB61BB69A0
:103A70000133BB61BFE77B68B3F85C30002B09D032
:103A80007B6858697B689B691A46F969FDF7A8F855
:103A90000346FB61FB6918462037BD4680BD00BF69
:103AA00080B582B000AF78607868FFF77DFF03468D
:103AB0000649184602F0D2FB0346184602F094FD70
:103AC000034618460837BD4680BD00BF0000C84207
:103AD00080B483B000AF78600B467B807B687A88C7
:103AE0009A8100BF0C37BD4680BC704780B483B05C
:103AF00000AF78607B689B899BB218460C37BD4647
:103B000080BC704780B485B000AF78600B46FB7016
:103B10000023FB730023BB8100237B8100233B81B7
:103B2000FB7803F00F03012202FA03F3BB81FB7859
:103B30001B09DBB27B817B89012202FA03F37B81C3
:103B40007B689B889AB27B8913403B817B681B8989
:103B50009AB2BB8913409BB2002B05D03B89002B46
:103B600002D00123FB7301E00023FB73FB7B1846AB
:103B70001437BD4680BC704780B485B000AF786014
:103B80000B46FB700023FB81FB7803F00F0301223F
:103B900002FA03F3FB81FB89DB439AB27B681A814B
:103BA00000BF1437BD4680BC704700BF90B583B0DE
:103BB00000AF78607B68D3F8A0301846FFF7A4F810
:103BC0007B68D3F89C30184600F048FF7B68D3F838
:103BD0008C301846FFF784FA7B68D3F8903018468B
:103BE000FFF77EFA7B68D3F894301846FFF778FA2F
:103BF0007B68D3F898301846FFF772FA7B68D3F8E1
:103C0000A4301846FDF714F97B68D3F8A83018469D
:103C1000FDF70EF97B68D3F8AC301846FDF708F9CC
:103C20007B68D3F8B0301846FDF702F97B68D3F80B
:103C3000B4301846FCF7AEFA7B68D3F8B8301846B3
:103C4000FCF7A8FA786800F075FC786800F0A8F92D
:103C50007B68D3F8A0301B8F002B00F036817B6887
:103C6000D3F8A03000221A87FFF73CFD0A46014630
:103C70007B68D3F89C3003F17004D4E90034CB1A8C
:103C800062EB0404002C08BF642B34BF0123002323
:103C9000DBB2002B00F0EE807B68D3F89C30032170
:103CA000184601F00DF80346184602F083FA024662
:103CB0007B68DB6A1946104602F0D0FA03461A46C2
:103CC00001231C46AE49104602F084FC0346002B3B
:103CD00001D100231C46E3B2002B00F0A3807B68D7
:103CE000D3F8A03002211846FFF7B2F903461A466E
:103CF00040F2DD439A428CBF01230023DBB2002B4C
:103D00002AD07B681B8E022B00F0DB807B680222AE
:103D10001A86786800F0A4FD7B68D3F8883099494A
:103D2000184600F0FFFF7B68D3F8A4304FF47A7197
:103D30001846FDF75BF87B68D3F8A8304FF47A712A
:103D40001846FDF753F87B68D3F8AC304FF47A711E
:103D50001846FDF74BF8B4E07B68D3F8A030022199
:103D60001846FFF775F903461A4640F225339A4282
:103D70008CBF01230023DBB2002B2AD07B681B8E73
:103D8000012B00F09E807B6801221A86786800F083
:103D900043FD7B68D3F888307B49184600F0C2FFAA
:103DA0007B68D3F8A4304FF47A711846FDF71EF8FB
:103DB0007B68D3F8A8304FF47A711846FDF716F8EF
:103DC0007B68D3F8AC304FF47A711846FDF70EF8E3
:103DD00077E07B681B8E002B73D07B6800221A86ED
:103DE000786800F019FD7B68D3F888306749184679
:103DF00000F098FF7B68D3F8A43032211846FCF716
:103E0000F5FF7B68D3F8A8304FF47A711846FCF7B9
:103E1000EDFF7B68D3F8AC304FF47A711846FCF7AD
:103E2000E5FF4EE07B681B8E002B4AD07B680022AA
:103E30001A86786800F0F0FC7B68D3F88830544923
:103E4000184600F06FFF7B68D3F8A4303221184683
:103E5000FCF7CCFF7B68D3F8A8304FF47A71184692
:103E6000FCF7C4FF7B68D3F8AC3032211846FCF76E
:103E7000BDFF26E07B681B8E002B22D07B680022D2
:103E80001A86786800F0C8FC7B68D3F8883041490E
:103E9000184600F047FF7B68D3F8A430322118465B
:103EA000FCF7A4FF7B68D3F8A8304FF47A7118466A
:103EB000FCF79CFF7B68D3F8AC3032211846FCF746
:103EC00095FF786800F022FA39E0FFF70BFC0A460C
:103ED00001467B68D3F8A03018CBCB1A62EB040400
:103EE000002C08BF652B2CBF01230023DBB2002B65
:103EF00025D07B681B8E032B1ED0786800F08CFCCD
:103F00007B68D3F888302449184600F00BFF7B68A3
:103F1000D3F8A43032211846FCF768FF7B68D3F849
:103F2000A83032211846FCF761FF7B68D3F8AC302B
:103F300032211846FCF75AFF7B6803221A86FFF7E6
:103F4000D1FB0A4601467B6803F14804D4E90034FA
:103F5000944208BF8B4234BF01230023DBB2002B05
:103F60000AD07B6803F14804D4E900340A3344F1F1
:103F700000047A68C2E9123400BF0C37BD4690BD18
:103F800000401C4654B7000868B700087CB700081A
:103F900090B70008B8B70008D8B7000800000000C4
:103FA000B0B586B002AF78607B68D3F88830184629
:103FB00001F090F80346002B14BF01230023DBB26D
:103FC000002B1DD07B68D3F88830184601F082F8AA
:103FD0000346002B14BF01230023DBB2002B0FD0BC
:103FE0007B68B3F922309BB201339BB21AB27B6873
:103FF0005A847B68D3F88830184600F0DFFFE1E789
:10400000FFF770FB0A4601467B6803F14004D4E9E0
:104010000034944208BF8B4234BF01230023DBB23B
:10402000002B00F053817B6803F14004D4E9003495
:10403000643344F100047A68C2E910347B68D3F831
:10404000B4305B88012B0AD17B68D3F8B4301846B2
:10405000FCF792F80346002B01D1012300E0002376
:10406000002B08D07B68B3F922309BB201339BB29E
:104070001AB27B685A847B68D3F8B8305B88012B0E
:104080000AD17B68D3F8B8301846FCF775F80346B8
:10409000002B01D1012300E00023002B08D07B6816
:1040A000B3F922309BB2013B9BB21AB27B685A84AF
:1040B0007B68B3F92230062B00F2FA8001A252F895
:1040C00023F000BFE1400008E74000082D41000850
:1040D00073410008B3410008E14100082342000891
:1040E0007B6806225A847B68D3F888307C4918465E
:1040F00000F018FE0023FB60FB680B2B00F3DC8054
:104100007B68D3F888407B68D3F89C30FA6892B219
:104110001146184600F0D4FD03461A467149204660
:1041200000F000FEFB680133FB60E5E77B68D3F835
:1041300088306D49184600F0F5FD0023BB60BB6870
:10414000072B00F3BB807B68D3F888407B68D3F8EB
:10415000A030BA6892B211461846FEF779FF0346BE
:104160001A466049204600F0DDFDBB680133BB60A4
:10417000E5E77B68D3F888407B68D3F89C3003215F
:10418000184600F09DFD0346184601F0E1FB52A3DE
:10419000D3E9002301F042FC02460B4610461946C3
:1041A00001F0D6FE03461A465049204600F0BAFDFB
:1041B00085E07B68D3F888407B6803F56A7318460E
:1041C000FFF76EFC05467B6803F552731846FFF750
:1041D00067FC03462A464649204600F0A3FD6EE0F0
:1041E0007B68D3F888304349184600F09BFD7B6814
:1041F000D3F888407B681B68184602F0F5F905463D
:104200007B6803F56A731846FFF74AFC02467B6831
:104210009B69009313462A463749204600F082FDE9
:104220004DE07B68D3F888303449184600F07AFDB9
:104230007B68D3F888407B68D3F88C305B68304962
:10424000184602F00BF80346184602F0CDF9034673
:104250001A462C49204600F065FD7B68D3F888405B
:104260007B68D3F890305B682549184601F0F6FF6B
:104270000346184602F0B8F903461A46214920467B
:1042800000F050FD7B68D3F888407B68D3F8983005
:104290005B681B49184601F0E1FF0346184602F02F
:1042A000A3F903461A461749204600F03BFD06E0F5
:1042B0007B6801225A8402E000BF00E000BF7B68F7
:1042C000D3F888301049184600F02CFD00BF103795
:1042D000BD46B0BDAFF300809A99999999D92D4008
:1042E000F0B70008F4B70008FCB7000804B80008ED
:1042F00010B8000834B800083CB8000848B80008F6
:104300000000C84254B8000858B8000880B582B010
:1043100000AF7860786800F0A9F87B681B8E012BED
:1043200010D0022B02D0002B13D016E07B68D3F8FC
:104330009C3001220021184600F07CFC786800F0D7
:104340001BF80AE0786800F067FA786800F00AF86D
:1043500003E0786800F060FA00BF00BF0837BD4690
:1043600080BD00BF80B483B000AF786000BF0C3761
:10437000BD4680BC704700BFB0B582B000AF78606A
:104380007B68D3F88C40786800F08EFA0546786830
:1043900000F0BEFA03461946284601F057FE0346D0
:1043A0004FF08041184602F00DF8034619462046AA
:1043B000FEF7ECFE7B68D3F89840786800F074FA5A
:1043C0000546786800F0A4FA03461946284601F02D
:1043D0003BFE03464FF08041184601F0F3FF0346D1
:1043E00019462046FEF7D2FE7B68D3F890407868E5
:1043F00000F074FA034619462046FEF7C7FE7B68B4
:1044000003F58164786800F069FA0346194620468E
:10441000FFF770FA7B6803F58D647B68D3F8903002
:104420005B681149184601F019FF0346184601F070
:10443000A1FA0BA3D3E9002301F03CF902460B4695
:104440001046194601F0ACFD034619462046FFF719
:1044500051FA00BF0837BD46B0BD00BFAFF30080C2
:104460009A9999999999B93F00006041B0B584B083
:1044700000AF78607B685C687B681B69184601F058
:1044800099FE03461946204601F09CFF03461D464F
:104490007B689C687B685B69184601F08BFE03466D
:1044A0001946204601F08EFF03461946284601F0C2
:1044B000CBFD03461D49184601F084FF0346FB600F
:1044C0007B681A697B685B691A447B689A617B68C0
:1044D00000221A617B684FF000025A607B6800225C
:1044E0005A617B684FF000029A601149F86801F048
:1044F000B5FE03461A467B681A607B6803F56A744A
:104500007B681D687B6803F581631846FFF74CFAEA
:1045100003461946284601F097FD034619462046F2
:10452000FFF7E8F900BF1037BD46B0BD00F8FF4502
:104530000000874390B583B000AF78607B68D3F804
:10454000BC301846FEF748FF0346002B14BF01237A
:104550000023DBB2002B21D07B68D3F8BC30184697
:10456000FEF754FF03461A467B685C6813461846FC
:1045700001F020FE03461946204601F067FD034680
:104580001A467B685A607B681B695A1C7B681A61F3
:104590007B68D3F8BC301846FEF7C4FE7B68D3F8BE
:1045A000C0301846FEF718FF0346002B14BF012346
:1045B0000023DBB2002B21D07B68D3F8C030184633
:1045C000FEF724FF03461A467B689C68134618468C
:1045D00001F0F0FD03461946204601F037FD034681
:1045E0001A467B689A607B685B695A1C7B685A61D3
:1045F0007B68D3F8C0301846FEF794FE7B68D3F88A
:104600009C30B3F86830002B22D07B68D3F89C3004
:104610000022A3F868207B6803F552747B68D3F806
:104620009C300021184600F04BFB03461A467B687D
:10463000B3F928301344184601F0BCFD034606497F
:10464000184601F0BFFE034619462046FFF752F90F
:1046500000BF0C37BD4690BD0020194790B585B00E
:1046600000AFF860B9607A603B60FB68BA68C3F875
:104670008820FB687A68C3F8A020FB683A68C3F812
:104680009C20FB683A6AC3F88C20FB687A6AC3F8FE
:104690009020FB68BA6AC3F89420FB68FA6AC3F8F2
:1046A0009820FB68D3F890302A491846FEF746FD5B
:1046B000FB6800225A86FA684FF000034FF00004AE
:1046C000C2E91C34FB6800229A87FB6801225A84E5
:1046D000FB6803F552704FF000034FF07E524FF02D
:1046E0000001FFF781F8FB6803F56A704FF00003E3
:1046F0004FF000024FF07E51FFF776F8FB6803F5AC
:1047000081604FF000034FF07E524FF00001FFF741
:104710006BF8FB6803F581630F4A10491846FFF7F1
:10472000B1F8FB6803F58D604FF000034FF07E5247
:104730004FF00001FFF758F8FB6803F58D63084A56
:104740004FF000011846FFF79DF800BF1437BD4633
:1047500090BD00BFCDCC4C3E00000743000007C316
:104760000000C84280B584B000AFF860B9607A60DC
:104770003B60FB68BA68C3F8B420FB687A68C3F88A
:10478000B820FB683A68C3F8A420FB68BA69C3F88C
:10479000A820FB68FA69C3F8AC20FB683A6AC3F842
:1047A000B020FB68D3F8A43032211846FCF71EFB7A
:1047B000FB68D3F8A83032211846FCF717FBFB68DA
:1047C000D3F8AC3032211846FCF710FB00BF10378D
:1047D000BD4680BD80B485B000AFF860B9607A6036
:1047E0003B60FB68BA68C3F8BC20FB687A68C3F812
:1047F000C020FB683A68C3F8C420FB68BA69C3F8F4
:10480000C820FB68BA8B1A85FB683A6ADA6200BF77
:104810001437BD4680BC704780B584B000AF786067
:104820007B68D3F89C3000220021184600F002FA81
:104830000023FB60FB68032B0EDC7A68FB682233E5
:104840009B0013445B684FF000011846FEF79EFC86
:10485000FB680133FB60EDE700BF1037BD4680BD4C
:1048600080B584B000AF78607B68D3F89C300122BB
:104870000021184600F0DEF90023FB60FB68032BE3
:104880000EDC7A68FB6822339B0013445B684FF0B0
:1048900000011846FEF77AFCFB680133FB60EDE788
:1048A00000BF1037BD4680BD80B582B000AF7860D4
:1048B0004FF480620121786800F044F803461846FE
:1048C00001F078FC03460449184601F07BFD0346DD
:1048D00018460837BD4680BD0000204480B582B030
:1048E00000AF786040F2B9520221786800F02AF8EF
:1048F0000346184601F05EFC03460449184601F0E1
:1049000061FD034618460837BD4680BD000055438B
:1049100080B582B000AF78604FF480620321786880
:1049200000F010F80346184601F044FC0346044921
:10493000184601F047FD034618460837BD4680BDBE
:104940000000204480B584B000AF78600B467B80C7
:1049500013463B807B68D3F8A0307A88114618460E
:10496000FEF776FB03461A463B88D31AFB60FB68CA
:10497000002B09DBFB68092B02DC0023FB600DE048
:10498000FB680A3BFB6009E0FB6813F1090F02DBDF
:104990000023FB6002E0FB680A33FB60FB68B3F5B1
:1049A000207F02DD4FF42073FB60FB6813F5207F4E
:1049B00001DA034BFB60FB6818461037BD4680BD2B
:1049C00080FDFFFF90B58BB004AFF860B9607A60EE
:1049D0003B60FB6803F178003B8E0293FB6A019316
:1049E0003B8D00933B687A68B96800F0BDF9FB68BD
:1049F0000022A3F86420FB680022A3F86620FB686D
:104A00000022A3F86820FA684FF000034FF000047A
:104A1000C2E91C3400237B617B69232B0FDCFA681D
:104A20007B6913441C3300221A70FA687B691344B3
:104A3000403300221A707B6901337B61ECE7064B3F
:104A4000B3F900309BB201339BB21AB2024B1A8009
:104A500000BF1C37BD4690BD6A14002090B587B0DA
:104A600000AF78607B687833184600F033FB03466C
:104A7000002B14BF01230023DBB2002B33D07B6853
:104A80007833184600F09AFA0346FB73FB7B9B11C0
:104A9000002B0AD1FB7B9BB203F03F039AB27B68E9
:104AA0005A837B6800221A83DCE7FB7B9B11012B76
:104AB00010D17B681B8B1946FB7B03F03F03DAB2F6
:104AC0007B680B441A777B681B8B01339AB27B6837
:104AD0001A83C7E7FB7B9B11022BC3D17B680122A2
:104AE000A3F86420BEE77B68B3F86430002B3BD0AA
:104AF00000237B617B690B2B27DC7A6913465B0003
:104B0000134402337A6813441B7F1B0319B27A697A
:104B100013465B00134401337A6813441B7F9B01E7
:104B20001BB20B4319B27A6913465B0013447A68CF
:104B300013441B7F1BB20B4319B27B687A6923F8BD
:104B400012107B6901337B61D4E77B680022A3F8F4
:104B50006420FEF7C7FD03460C467A68C2E91C34A0
:104B60007B680122A3F868207B68B3F86630002BCD
:104B700050D07B6878332421184600F061F9002377
:104B80003B613B690B2B3BDC7B6803F178003A69A6
:104B900013465B0013447A68134493F9403043F0A2
:104BA00040035BB2DBB2194600F04AF97B6803F1BF
:104BB00078003A6913465B00134401337A68134462
:104BC00093F9403043F040035BB2DBB2194600F08A
:104BD00037F97B6803F178003A6913465B001344A8
:104BE00002337A68134493F9403043F040035BB2D8
:104BF000DBB2194600F024F93B6901333B61C0E7A1
:104C00007B6878338021184600F01AF97B6800220F
:104C1000A3F86620064BB3F900309BB2013B9BB270
:104C20001AB2034B1A8000BF1C37BD4690BD00BFAF
:104C30006814002080B483B000AF78600B467B809E
:104C400013463B807B880B2B34D87B680122A3F86A
:104C500066207A8813465B0013443A8852B202F009
:104C60003F0251B27A6813440A4683F840207A889A
:104C700013465B0013440133B7F90020921152B27E
:104C800002F03F0251B27A6813440A4683F840208A
:104C90007A8813465B0013440233B7F900201213DD
:104CA00052B202F03F0251B27A6813440A4683F8C6
:104CB000402000E000BF0C37BD4680BC704700BFFD
:104CC00080B483B000AF78600B467B807B880C2B70
:104CD00001D9002303E07A887B6833F91230184643
:104CE0000C37BD4680BC704780B584B000AF78609B
:104CF00039600023FB60FB683A6813441B78002B83
:104D00000BD0FB683A6813441B781946786800F0AA
:104D100097F8FB680133FB60EDE700BF1037BD4635
:104D200080BD00BF0EB480B5C5B000AF3B1D18609C
:104D300007F59073C7F80C3107F10C03D7F80C2175
:104D4000D7F81C11184602F027FE07F10C023B1D94
:104D500011461868FFF7C8FF00BF07F58A77BD4600
:104D6000BDE8804003B0704780B586B002AFF86000
:104D7000B9607A603B60FB68BA681A603A8B3B8C1A
:104D80000093FB693968F86800F018FAFB681B6843
:104D9000284A934215D1786800F02AFA40F225504B
:104DA00000F098FA40F2277000F094FA012240F2E5
:104DB00027712048FDF7ACFE01211E48FDF788FE53
:104DC00034E0FB681B681C4A934215D1786800F0F8
:104DD00035FA40F2255000F099FA40F2277000F0C1
:104DE00095FA012240F227711348FDF791FE012147
:104DF0001148FDF76DFE19E0FB681B680F4A9342EE
:104E000014D1786800F040FA40F2255000F09AFA88
:104E100040F2277000F096FA012240F2277107480D
:104E2000FDF776FE01210548FDF752FE00BF103761
:104E3000BD4680BD003801400044004000480040AD
:104E400080B582B000AF78600B46FB707B681B6852
:104E50004E4A93422ED1012240F227714B48FDF772
:104E600057FE4B4B1B881A464A4B1B8801339A420C
:104E70000CD1474B1B8801339AB2454B1A80444BE7
:104E80001B88FF2B02D9424B00221A80414B1B8802
:104E90001946414AFB7853543E4B1B8801339AB262
:104EA0003C4B1A803B4B1B88FF2B6AD9394B0022A5
:104EB0001A8066E07B681B68384A93422ED1012233
:104EC00040F227713548FDF723FE354B1B881A4603
:104ED000344B1B8801339A420CD1314B1B88013370
:104EE0009AB22F4B1A802E4B1B88FF2B02D92C4BCA
:104EF00000221A802B4B1B8819462B4AFB785354EF
:104F0000284B1B8801339AB2264B1A80254B1B88ED
:104F1000FF2B36D9234B00221A8032E07B681B68B6
:104F2000224A93422DD1012240F227711F48FDF7FA
:104F3000EFFD1F4B1B881A461E4B1B8801339A42FC
:104F40000CD11B4B1B8801339AB2194B1A80184B9A
:104F50001B88FF2B02D9164B00221A80154B1B8889
:104F60001946154AFB785354124B1B8801339AB2E9
:104F7000104B1A800F4B1B88FF2B02D90D4B0022C0
:104F80001A8000BF0837BD4680BD00BF0038014011
:104F90000C1700200E1700200C16002000440040C3
:104FA00010180020121800201017002000480040A0
:104FB00014190020161900201418002080B483B0A2
:104FC00000AF78607B681B68364A93421DD1364B30
:104FD0001B881A46354B1B8801339A4201D10023A6
:104FE0005AE0324B1B887F2B03D1304B00221A80B2
:104FF00005E02E4B1B8801339AB22C4B1A802B4BA9
:105000001B881A462A4B9B5C46E07B681B68294A32
:1050100093421DD1284B1B881A46284B1B8801330D
:105020009A4201D1002337E0244B1B887F2B03D108
:10503000224B00221A8005E0204B1B8801339AB2D4
:105040001E4B1A801D4B1B881A461D4B9B5C23E090
:105050007B681B681B4A93421DD11B4B1B881A4659
:105060001A4B1B8801339A4201D1002314E0174BDD
:105070001B887F2B03D1154B00221A8005E0134BB0
:105080001B8801339AB2114B1A80104B1B881A46A9
:105090000F4B9B5C00E0002318460C37BD4680BCDC
:1050A000704700BF00380140280000200015002094
:1050B00080140020004400402A00002084150020B5
:1050C00004150020004800402C0000200816002095
:1050D0008815002080B483B000AF78607B681B68BF
:1050E0002D4A934217D12D4B1A882D4B1B889A427B
:1050F00008D82A4B1A882A4B1B88D31A9BB27F33B5
:105100009BB243E0254B1A88254B1B88D31A9BB2D0
:10511000013B9BB23AE07B681B68224A934217D15D
:10512000214B1A88214B1B889A4208D81E4B1A889B
:105130001E4B1B88D31A9BB27F339BB226E01A4BBF
:105140001A881A4B1B88D31A9BB2013B9BB21DE0F5
:105150007B681B68164A934217D1164B1A88164B68
:105160001B889A4208D8134B1A88134B1B88D31AF2
:105170009BB27F339BB209E00E4B1A880E4B1B8803
:10518000D31A9BB2013B9BB200E0002318460C37B8
:10519000BD4680BC704700BF003801402800002099
:1051A00000150020004400402A0000208415002043
:1051B000004800402C0000200816002080B58AB06E
:1051C00000AFF860B9603B601346FB80FA8807F1D6
:1051D0001C001823B968FDF7E7F83A8E07F11000B4
:1051E00048233968FDF7E0F800BF2837BD4680BD89
:1051F00080B586B000AF786001214FF48040FDF7A4
:1052000097F807F108031846FDF746FC7B68BB607A
:105210000C237B8200233B824FF40053FB8100234D
:10522000BB8107F1080319460348FDF77BFB00BF6C
:105230001837BD4680BD00BF0038014080B586B03C
:1052400000AF786001214FF40030FDF78FF807F1CF
:1052500008031846FDF720FC7B68BB600C237B82AB
:1052600000233B824FF40053FB810023BB8107F1F5
:10527000080319460348FDF755FB00BF1837BD4624
:1052800080BD00BF0044004080B586B000AF7860AC
:1052900001214FF48020FDF769F807F10803184653
:1052A000FDF7FAFB7B68BB600C237B8200233B820B
:1052B0004FF40053FB810023BB8107F1080319461B
:1052C0000348FDF72FFB00BF1837BD4680BD00BF68
:1052D0000048004080B584B000AF0346FB80252322
:1052E0003B730023BB730123FB7307F10C031846C8
:1052F000FEF718FAFB88012219460348FDF708FC5F
:1053000000BF1037BD4680BD0038014080B584B075
:1053100000AF0346FB8026233B730023BB730123AE
:10532000FB7307F10C031846FEF7FCF9FB8801221A
:1053300019460348FDF7ECFB00BF1037BD4680BDA2
:105340000044004080B584B000AF0346FB802723B3
:105350003B730023BB730123FB7307F10C03184657
:10536000FEF7E0F9FB88012219460348FDF7D0FB60
:1053700000BF1037BD4680BD0048004098B500AF63
:1053800040F225512E48FDF72DFC0346012B0CBFA2
:1053900001230023DBB2002B1ED02A4B1B881C46A6
:1053A0002748FDF70FFC0346DAB2274B1A55254B69
:1053B0001B8801339AB2234B1A80224B1B887F2B08
:1053C00002D9204B00221A80FEF78CF903460C46C6
:1053D0001E4AC2E9003430E040F227711848FDF758
:1053E00001FC0346012B0CBF01230023DBB2002B81
:1053F00023D0174B1A88174B1B889A4217D0154B8E
:105400001B881A46144B9B5C9BB219460C48FDF74F
:10541000C7FB104B1B8801339AB20E4B1A800D4B01
:105420001B88FF2B09D90B4B00221A8005E00022B4
:1054300040F227710248FDF76BFB00BF98BD00BF2B
:105440000038014028000020801400201819002096
:105450000E1700200C1700200C16002098B500AF86
:1054600040F225512E48FDF7BDFB0346012B0CBF32
:1054700001230023DBB2002B1ED02A4B1B881C46C5
:105480002748FDF79FFB0346DAB2274B1A55254BF9
:105490001B8801339AB2234B1A80224B1B887F2B27
:1054A00002D9204B00221A80FEF71CF903460C4655
:1054B0001E4AC2E9003430E040F227711848FDF777
:1054C00091FB0346012B0CBF01230023DBB2002B11
:1054D00023D0174B1A88174B1B889A4217D0154BAD
:1054E0001B881A46144B9B5C9BB219460C48FDF76F
:1054F00057FB104B1B8801339AB20E4B1A800D4B91
:105500001B88FF2B09D90B4B00221A8005E00022D3
:1055100040F227710248FDF7FBFA00BF98BD00BFBB
:10552000004400402A00002004150020201900201B
:1055300012180020101800201017002098B500AF96
:1055400040F225512E48FDF74DFB0346012B0CBFC1
:1055500001230023DBB2002B1ED02A4B1B881C46E4
:105560002748FDF72FFB0346DAB2274B1A55254B88
:105570001B8801339AB2234B1A80224B1B887F2B46
:1055800002D9204B00221A80FEF7ACF803460C46E5
:105590001E4AC2E9003430E040F227711848FDF796
:1055A00021FB0346012B0CBF01230023DBB2002BA0
:1055B00023D0174B1A88174B1B889A4217D0154BCC
:1055C0001B881A46144B9B5C9BB219460C48FDF78E
:1055D000E7FA104B1B8801339AB20E4B1A800D4B21
:1055E0001B88FF2B09D90B4B00221A8005E00022F3
:1055F00040F227710248FDF78BFA00BF98BD00BF4B
:10560000004800402C0000208815002028190020A8
:1056100016190020141900201418002080B483B03B
:1056200000AF0346FB80044AFB88136000BF0C37C1
:10563000BD4680BC704700BF0030004080B483B0DE
:1056400000AF0346FB71044AFB79536000BF0C377F
:10565000BD4680BC704700BF0030004080B483B0BE
:1056600000AF0346FB80044AFB88936000BF0C3701
:10567000BD4680BC704700BF0030004080B400AF22
:10568000034B4AF6AA221A6000BFBD4680BC704791
:105690000030004080B400AF034B4CF6CC421A609F
:1056A00000BFBD4680BC70470030004081F0004123
:1056B00002E000BF83F0004330B54FEA41044FEAF7
:1056C000430594EA050F08BF90EA020F1FBF54EA92
:1056D000000C55EA020C7FEA645C7FEA655C00F02E
:1056E000E2804FEA5454D4EB5555B8BF6D420CDDFF
:1056F0002C4480EA020281EA030382EA000083EA82
:10570000010180EA020281EA0303362D88BF30BD21
:1057100011F0004F4FEA01314FF4801C4CEA113177
:1057200002D0404261EB410113F0004F4FEA0333D6
:105730004CEA133302D0524263EB430394EA050F61
:1057400000F0A780A4F10104D5F1200E0DDB02FAD0
:105750000EFC22FA05F2801841F1000103FA0EF264
:10576000801843FA05F359410EE0A5F120050EF12A
:10577000200E012A03FA0EFC28BF4CF0020C43FA5B
:1057800005F3C01851EBE37101F0004507D54FF068
:10579000000EDCF1000C7EEB00006EEB0101B1F5B8
:1057A000801F1BD3B1F5001F0CD349085FEA3000FE
:1057B0004FEA3C0C04F101044FEA445212F5800F09
:1057C00080F09A80BCF1004F08BF5FEA500C50F1A6
:1057D000000041EB045141EA050130BD5FEA4C0C89
:1057E000404141EB010111F4801FA4F10104E9D112
:1057F00091F0000F04BF01460020B1FA81F308BF09
:105800002033A3F10B03B3F120020CDA0C3208DDD4
:1058100002F1140CC2F10C0201FA0CF021FA02F1AF
:105820000CE002F11402D8BFC2F1200C01FA02F11F
:1058300020FA0CFCDCBF41EA0C019040E41AA2BF44
:1058400001EB0451294330BD6FEA04041F3C1CDA0C
:105850000C340EDC04F11404C4F1200220FA04F02C
:1058600001FA02F340EA030021FA04F345EA0301D6
:1058700030BDC4F10C04C4F1200220FA02F001FA98
:1058800004F340EA0300294630BD21FA04F029461A
:1058900030BD94F0000F83F4801306BF81F48011B3
:1058A0000134013D4EE77FEA645C18BF7FEA655C26
:1058B00029D094EA050F08BF90EA020F05D054EAF8
:1058C000000C04BF1946104630BD91EA030F1EBFFD
:1058D0000021002030BD5FEA545C05D14000494101
:1058E00028BF41F0004130BD14F580043CBF01F5F4
:1058F000801130BD01F0004545F0FE4141F47001DA
:105900004FF0000030BD7FEA645C1ABF19461046B4
:105910007FEA655C1CBF0B46024650EA013406BFB5
:1059200052EA033591EA030F41F4002130BD00BF74
:1059300090F0000F04BF0021704730B54FF4806431
:1059400004F132044FF000054FF0000150E700BFB2
:1059500090F0000F04BF0021704730B54FF4806411
:1059600004F1320410F0004548BF40424FF00001FE
:105970003EE700BF42004FEAE2014FEA31014FEA41
:1059800002701FBF12F07F4393F07F4F81F0605190
:10599000704792F0000F14BF93F07F4F704730B5FF
:1059A0004FF4607401F0004521F0004120E700BF92
:1059B00050EA010208BF704730B54FF000050AE019
:1059C00050EA010208BF704730B511F0004502D51A
:1059D000404261EB41014FF4806404F132045FEA1C
:1059E000915C3FF4DCAE4FF003025FEADC0C18BFC1
:1059F00003325FEADC0C18BF033202EBDC02C2F1B7
:105A0000200300FA03FC20FA02F001FA03FE40EA48
:105A10000E0021FA02F11444C1E600BF70B54FF048
:105A2000FF0C4CF4E06C1CEA11541DBF1CEA13552A
:105A300094EA0C0F95EA0C0F00F0DEF82C4481EA92
:105A4000030621EA4C5123EA4C5350EA013518BFB2
:105A500052EA033541F4801143F4801338D0A0FB9F
:105A600002CE4FF00005E1FB02E506F00042E0FB4C
:105A700003E54FF00006E1FB03569CF0000F18BF52
:105A80004EF0010EA4F1FF04B6F5007F64F54074FA
:105A900004D25FEA4E0E6D4146EB060642EAC6218D
:105AA00041EA55514FEAC52040EA5E504FEACE2EFA
:105AB000B4F1FD0C88BFBCF5E06F1ED8BEF1004FFD
:105AC00008BF5FEA500E50F1000041EB045170BD79
:105AD00006F0004646EA010140EA020081EA0301BD
