:020000040800F2
:10000000701F0020B1190008111A0008111A000809
:10001000111A0008111A0008111A00080000000047
:10002000000000000000000000000000111A00089D
:10003000111A000800000000111A00083D390008DC
:10004000111A0008111A0008111A0008111A0008E4
:10005000111A0008111A0008111A0008111A0008D4
:10006000111A0008111A0008111A0008111A0008C4
:10007000111A0008111A0008111A0008111A0008B4
:10008000111A0008111A0008111A0008111A0008A4
:10009000111A0008111A0008111A0008111A000894
:1000A000111A0008CD170008111A0008111A0008CB
:1000B0000D18000861180008B1180008111A00088E
:1000C000111A0008111A0008111A00081D02000870
:1000D000C9020008816700086168000841690008DA
:1000E000111A0008111A0008111A00080000000077
:1000F0000000000000000000000000000000000000
:1001000000000000000000005FF808F190B585B025
:1001100000AFF860B96011461A460B46FB801346E3
:100120007B71FB6803F118007B79FA88B96802F0EB
:100130002BFAFB681833184602F082FA03461A4677
:10014000FB681A80FA684FF00A034FF00004C2E916
:100150000434FB6800225A80064BB3F900309BB28E
:1001600001339BB21AB2034B1A8000BF1437BD464D
:1001700090BD00BF7216002080B483B000AF7860DD
:100180007B6800225A807B681B8818460C37BD4666
:1001900080BC704790B585B000AF78601E4BB3F956
:1001A00000309BB2013B9BB21AB21B4B1A807B689A
:1001B0001833184602F044FA0346FB817B681B881B
:1001C000FA899A4224D003F0A9FB0A4601467B68CB
:1001D00003F10804D4E90034CB1A62EB04047A6812
:1001E000D2E90412A24208BF994234BF012300237E
:1001F000DBB2002B0CD07B6801225A807B68FA8925
:100200001A8003F08BFB03460C467A68C2E902347D
:1002100000BF1437BD4690BD7016002080B500AFFA
:10022000254B1B8801339AB2234B1A807121234836
:1002300003F000FE0346002B14BF01230023DBB2B2
:10024000002B1ED002211D4803F02EFE1C4800F09A
:1002500033F90346002B14BF01230023DBB2002B2C
:1002600005D000226021154803F09AFD09E01448EA
:1002700000F0CEF803461B789BB219460F4803F0F6
:10028000BFFD60210D4803F0D5FD0346002B14BFD0
:1002900001230023DBB2002B0CD00121074803F01F
:1002A00003FE064803F0BAFD0346DBB219460548D3
:1002B00000F07EF800BF80BDE00900200030014062
:1002C000E4090020FC0A002080B500AF2B4B1B88FE
:1002D00001339AB2294B1A807121294803F0AAFDF3
:1002E0000346002B14BF01230023DBB2002B1AD0DE
:1002F000244800F0BFF80346002B0CBF0123002365
:10030000DBB2002B05D0012271211D4803F048FD0E
:1003100009E01C4800F07CF803461B789BB21946A4
:10032000174803F06DFD6021154803F083FD034677
:10033000002B14BF01230023DBB2002B1CD00121B2
:100340000F4803F0B1FD0E4803F068FD0346DBB231
:1003500019460D4800F02CF87121094803F06AFD98
:100360000346002B14BF01230023DBB2002B03D074
:100370000021034803F0F4FC00BF80BDE009002029
:1003800000380040700A0020880B002080B483B041
:1003900000AF78607B680022C3F884207B6800226D
:1003A000C3F888207B6818460C37BD4680BC704770
:1003B00080B485B000AF78600B46FB707B68D3F8E3
:1003C00088305A1C114B83FB0213D910D317C91A5A
:1003D0000B46DB010B44D31AFB607B68D3F8842007
:1003E000FB689A4201D101230AE07B68D3F8883088
:1003F0007A68F978D1547B68FA68C3F888200023BA
:1004000018461437BD4680BC704700BF813FE00FDF
:1004100080B485B000AF78607B68D3F884207B68B7
:10042000D3F888309A4205D17B68D3F884307A6853
:10043000134417E07B68D3F88430FB607B68D3F803
:100440008430591C0A4B83FB0123DA10CB17D21AD4
:100450001346DB011344CA1A7B68C3F884207A6808
:10046000FB68134418461437BD4680BC704700BF74
:10047000813FE00F80B483B000AF78607B68D3F831
:1004800088207B68D3F884309A4207DB7B68D3F8F6
:1004900088207B68D3F88430D31A07E07B68D3F8D0
:1004A00088207B68D3F88430D31A813318460C3700
:1004B000BD4680BC704700BF80B483B000AF786099
:1004C0007B68D3F884207B68D3F888309A4201D1C6
:1004D000012300E0002318460C37BD4680BC70475E
:1004E00080B582B000AF786039607B68012B10D195
:1004F0003B684FF6FF7293420BD10848FFF746FF67
:100500000748FFF743FF0748FFF740FF0648FFF79C
:100510003DFF00BF0837BD4680BD00BFE409002095
:10052000700A0020FC0A0020880B002080B500AF74
:100530004FF6FF710120FFF7D3FF80BD80B485B077
:1005400000AF786039600023FB817B681B88FB81EA
:100550007B682E4A934213D07B682D4A93420FD07A
:100560007B68B3F1804F0BD07B682A4A934207D057
:100570007B68294A934203D07B68284A934208D17A
:10058000FB8923F07003FB813B685A88FB89134386
:10059000FB817B68224A93420CD07B68214A9342BC
:1005A00008D0FB8923F44073FB813B68DA88FB8920
:1005B0001343FB817B68FA891A803B689A887B68C1
:1005C0009A853B681A887B681A857B680F4A934234
:1005D0000FD07B680E4A93420BD07B68124A93423D
:1005E00007D07B68114A934203D07B68104A93423C
:1005F00004D13B681B7A9AB27B681A867B68012219
:100600009A8200BF1437BD4680BC7047002C014061
:10061000003401400004004000080040000C00408D
:100620000010004000140040004001400044014020
:100630000048014080B485B000AF78603960002385
:100640007B810023FB810023BB817B681B8C9BB2D9
:1006500023F001039AB27B681A847B681B8CFB81B0
:100660007B689B88BB817B681B8B7B817B8923F0AC
:1006700070037B817B8923F003037B813B681A88AD
:100680007B8913437B81FB8923F00203FB813B6859
:100690001A89FB891343FB813B685A88FB89134302
:1006A000FB817B68244A93420FD07B68234A9342A4
:1006B0000BD07B68224A934207D07B68214A934241
:1006C00003D07B68204A934223D1FB8923F008039F
:1006D000FB813B685A89FB891343FB81FB8923F02B
:1006E0000403FB813B689A88FB891343FB81BB8928
:1006F00023F48073BB81BB8923F40073BB813B6807
:100700009A89BB891343BB813B68DA89BB89134350
:10071000BB817B68BA899A807B687A891A833B6837
:10072000DA887B689A867B68FA891A8400BF143756
:10073000BD4680BC704700BF002C01400034014022
:1007400000400140004401400048014080B485B0B1
:1007500000AF7860396000237B810023FB81002398
:10076000BB817B681B8C9BB223F010039AB27B6821
:100770001A847B681B8CFB817B689B88BB817B68B0
:100780001B8B7B817B8923F4E0437B817B8923F472
:1007900040737B813B681B881B029AB27B891343A1
:1007A0007B81FB8923F02003FB813B681B891B01B4
:1007B0009AB2FB891343FB813B685B881B019AB2A9
:1007C000FB891343FB817B68224A934203D07B68F9
:1007D000214A93422BD1FB8923F08003FB813B68A4
:1007E0005B891B019AB2FB891343FB81FB8923F0D0
:1007F0004003FB813B689B881B019AB2FB89134332
:10080000FB81BB8923F48063BB81BB8923F4006334
:10081000BB813B689B899B009AB2BB891343BB8118
:100820003B68DB899B009AB2BB891343BB817B6821
:10083000BA899A807B687A891A833B68DA887B68F0
:100840001A877B68FA891A8400BF1437BD4680BCBA
:10085000704700BF002C01400034014080B485B0D7
:1008600000AF7860396000237B810023FB81002387
:10087000BB817B681B8C9BB223F480739AB27B682C
:100880001A847B681B8CFB817B689B88BB817B689F
:100890009B8B7B817B8923F070037B817B8923F099
:1008A00003037B813B681A887B8913437B81FB8927
:1008B00023F40073FB813B681B891B029AB2FB89FE
:1008C0001343FB813B685B881B029AB2FB8913438D
:1008D000FB817B68224A934203D07B68214A934282
:1008E0002BD1FB8923F40063FB813B685B891B02EE
:1008F0009AB2FB891343FB81FB8923F48063FB815C
:100900003B689B881B029AB2FB891343FB81BB891E
:1009100023F48053BB81BB8923F40053BB813B6824
:100920009B891B019AB2BB891343BB813B68DB895E
:100930001B019AB2BB891343BB817B68BA899A8039
:100940007B687A899A833B68DA887B689A877B68B8
:10095000FA891A8400BF1437BD4680BC704700BFB7
:10096000002C01400034014080B485B000AF7860B5
:1009700039600023BB8100237B810023FB817B68DE
:100980001B8C9BB223F480539AB27B681A847B68D9
:100990001B8C7B817B689B88FB817B689B8BBB81ED
:1009A000BB8923F4E043BB81BB8923F44073BB8143
:1009B0003B681B881B029AB2BB891343BB817B89AE
:1009C00023F400537B813B681B891B039AB27B890C
:1009D00013437B813B685B881B039AB27B8913437B
:1009E0007B817B68124A934203D07B68114A934211
:1009F0000AD1FB8923F48043FB813B689B899B01DF
:100A00009AB2FB891343FB817B68FA899A807B68E1
:100A1000BA899A833B68DA887B68A3F840207B68B0
:100A20007A891A8400BF1437BD4680BC704700BF66
:100A3000002C01400034014080B483B000AF7860E6
:100A400039603B681A883B685B8813439AB23B68FD
:100A50009B8813439AB23B68DB8813439AB23B6886
:100A60001B8913439AB23B685B8913439AB23B6874
:100A70009B8913439AB27B68A3F8442000BF0C37CC
:100A8000BD4680BC704700BF80B483B000AF7860C3
:100A90007B684FF6FF729A807B6800221A807B6821
:100AA0000022DA807B6800225A807B6800221A725A
:100AB00000BF0C37BD4680BC704700BF80B483B018
:100AC00000AF78607B6800221A807B6800225A8021
:100AD0007B6800229A807B680022DA807B68002293
:100AE0001A817B6800225A817B6800229A817B6888
:100AF0000022DA8100BF0C37BD4680BC704700BFC2
:100B000080B483B000AF78607B6800221A807B6875
:100B100000225A807B6800229A807B680022DA805B
:100B20007B6800221A817B6800225A817B68002240
:100B30009A8100BF0C37BD4680BC704780B483B03B
:100B400000AF78600B46FB70FB78002B08D07B6809
:100B50001B889BB243F001039AB27B681A8007E0BE
:100B60007B681B889BB223F001039AB27B681A80D2
:100B700000BF0C37BD4680BC704700BF80B483B057
:100B800000AF78600B46FB70FB78002B08D07B68C9
:100B90001B889BB243F080039AB27B681A8007E0FF
:100BA0007B681B889BB223F080039AB27B681A8013
:100BB00000BF0C37BD4680BC704700BF80B485B015
:100BC00000AF78600B467B800023FB730023BB8162
:100BD00000237B817B681B8A9AB27B881340BB8190
:100BE0007B689B899AB27B8813407B81BB89002BF1
:100BF00005D07B89002B02D00123FB7301E0002389
:100C0000FB73FB7B18461437BD4680BC704700BFA2
:100C100080B483B000AF78600B467B807B88DB4379
:100C20009AB27B681A8200BF0C37BD4680BC704701
:100C300080B483B000AF78607B6800229A607B68E4
:100C40004FF000021A607B684FF000025A6000BF4C
:100C50000C37BD4680BC704790B583B000AF78605C
:100C60007B689B68002B16D07B681C687B689B6840
:100C7000184606F051FC03461946204606F054FD7E
:100C800003461A467B685A607B6800229A607B683C
:100C90004FF000021A607B685B6818460C37BD464F
:100CA00090BD00BF80B582B000AF786039607B68CE
:100CB0001B683968184606F07BFB03461A467B68BA
:100CC0001A607B689B685A1C7B689A6000BF083773
:100CD000BD4680BD80B584B000AFF860B9607A6071
:100CE000B968786806F01EFE0346002B01D07B68C9
:100CF00009E0B968F86806F00BFE0346002B01D046
:100D0000FB6800E0BB6818461037BD4680BD00BFD9
:100D100080B500AF154A154B1B6843F00103136003
:100D20001249124B5A68124B13404B600F4A0F4B3B
:100D30001B6823F0847323F4803313600B4A0B4B3E
:100D40001B6823F480231360084A084B5B6823F474
:100D5000FE035360054B4FF41F029A6000F00CF83D
:100D6000044B4FF000629A6000BF80BD001002404B
:100D70000000FFF800ED00E080B500AF00F002F8E1
:100D800000BF80BD80B483B000AF00237B60002330
:100D90003B603A4A394B1B6843F480331360374B4E
:100DA0001B6803F400333B607B6801337B603B6866
:100DB000002B03D17B68B3F5A06FF0D12F4B1B68DC
:100DC00003F40033002B02D001233B6001E0002339
:100DD0003B603B68012B4BD1294A294B1B6843F0F0
:100DE00010031360264A264B1B6823F0030313608D
:100DF000234A234B1B6843F0020313601F4A1F4B17
:100E00005B6853601D4A1D4B5B6853601B4A1B4B5C
:100E10005B6843F480635360184A184B5B6823F4A3
:100E20007C135360154A154B5B6843F4E813536019
:100E3000124A124B1B6843F08073136000BF0F4BC4
:100E40001B6803F00073002BF9D00C4A0B4B5B6856
:100E500023F003035360094A084B5B6843F0020325
:100E6000536000BF054B5B6803F00C03082BF9D1FE
:100E700000BF0C37BD4680BC704700BF0010024069
:100E80000020024090B585B000AFF860B96013460D
:100E9000FB80FB6803F12800FA881023B96801F091
:100EA00073FBFB6828330021184601F09FFBFB68A9
:100EB00000221A8002F032FD03460C46FA68C2E9AD
:100EC0000434064BB3F900309BB201339BB21AB223
:100ED000024B1A8000BF1437BD4690BD7216002029
:100EE00090B583B000AF786039607B683A68DA60AB
:100EF00002F014FD0A4601463B684FF000045B18FF
:100F000044EB02047A68C2E904347B682833012187
:100F1000184601F06BFB7B6801221A8000BF0C377A
:100F2000BD4690BD80B582B000AF78600B467B8037
:100F30007B6828337A881146184601F057FB7B6896
:100F400000221A8000BF0837BD4680BD90B583B02F
:100F500000AF7860434BB3F900309BB2013B9BB2CA
:100F60001AB2404B1A807B681B88012B03D0022BDE
:100F700026D0002B72E002F0D1FC0A4601467B68C5
:100F800003F11004D4E90034944208BF8B4234BF0B
:100F900001230023DBB2002B5DD07B68D3E9041270
:100FA0007B68DB684FF000045B1844EB02047A684E
:100FB000C2E904347B682833184601F075FB4AE027
:100FC00002F0ACFC0A4601467B6803F11804D4E940
:100FD0000034944208BF8B4234BF01230023DBB2AC
:100FE000002B12D07B68D3E906127B689B684FF018
:100FF00000045B1844EB02047A68C2E908347B6899
:1010000028330021184601F0F1FA02F087FC0A4665
:1010100001467B6803F12004D4E90034944208BF00
:101020008B4234BF01230023DBB2002B15D07B6839
:10103000D3E908127B685B684FF000045B1844EB4F
:1010400002047A68C2E906347B6828330121184615
:1010500001F0CCFA01E000BF00E000BF00BF0C3798
:10106000BD4690BD7016002080B584B000AFF8601A
:10107000B9603B601346FB803B8B1A463968F868C1
:1010800000F028F9FB68FA889A81FB68BA689A60D0
:10109000FB68BA8B9A80FB683A8CDA80FB68BA8C62
:1010A000DA81FB689B68404A93420BD13F4B012297
:1010B0001A60FB689A88FB68DB881946104600F0C6
:1010C0001BF931E0FB689B68B3F1804F0BD1384BC3
:1010D00001221A60FB689A88FB68DB881946104673
:1010E00000F04CF920E0FB689B68324A93420BD138
:1010F000314B01221A60FB689A88FB68DB8819462D
:10110000104600F05FF90FE0FB689B682B4A9342A2
:1011100043D12B4B01221A60FB689A88FB68DB885D
:101120001946104600F074F9FB689B89013B032BBC
:1011300035D801A252F823F0491100085B110008CC
:101140006D1100087F110008FB689A68FB68DB8955
:101150001946104600F082F91AE0FB689A68FB68AD
:10116000DB891946104600F09FF911E0FB689A6888
:10117000FB68DB891946104600F0BCF908E0FB6803
:101180009A68FB68DB891946104600F0D9F900BF60
:101190000021F86800F016F802E000BF00E000BF90
:1011A0001037BD4680BD00BF002C0140140C00204C
:1011B000180C0020000400401C0C00200008004017
:1011C000200C002080B582B000AF78600B467B8099
:1011D0007B689B68384A934205D1384B1B68012BCA
:1011E00022D0012363E07B689B68B3F1804F05D177
:1011F000334B1B68012B17D0012358E07B689B6899
:10120000304A934205D1304B1B68012B0CD001238F
:101210004DE07B689B682D4A934205D12C4B1B689F
:10122000012B01D0012342E07B689B887A889A4297
:1012300002D97B689B887B807B687A885A807B6830
:101240009B89013B032B2FD801A252F823F000BF4A
:101250006112000873120008851200089712000836
:101260007B689A687B685B881946104600F08EF9A7
:101270001CE07B689A687B685B881946104600F022
:1012800093F913E07B689A687B685B88194610467F
:1012900000F098F90AE07B689A687B685B881946D9
:1012A000104600F09DF901E0012300E000231846FC
:1012B0000837BD4680BD00BF002C0140140C002043
:1012C000180C0020000400401C0C00200008004006
:1012D000200C002080B588B000AFF860B9601346DC
:1012E000FB80FA8807F114001823B96801F04CF963
:1012F00000BF2037BD4680BD80B58AB000AF034631
:101300000A46FB801346BB8001214FF4006001F0C8
:10131000FFF80121012001F0FBF807F11C0318463A
:10132000FFF7B2FBFB883B84BB88BB830023FB83B6
:10133000002387F8243007F11C0319460E48FFF7F5
:10134000FDF807F10C031846FFF7DAFB4FF4804372
:101350003B8307F10C0319460748FFF76DFB01219A
:101360000548FFF70BFC01210348FFF7E7FB00BF2F
:101370002837BD4680BD00BF002C014080B586B037
:1013800000AF03460A46FB801346BB8001210120C3
:1013900001F0DCF80121012001F0BAF807F10C039B
:1013A0001846FFF771FBFB883B82BB88BB8107F1C6
:1013B0000C0319464FF08040FFF7C0F800BF183704
:1013C000BD4680BD80B586B000AF03460A46FB80AF
:1013D0001346BB800121022001F0B8F80121012051
:1013E00001F096F807F10C031846FFF74DFBBB8898
:1013F000BB81FB883B8207F10C0319460348FFF7CA
:101400009DF800BF1837BD4680BD00BF00040040F6
:1014100080B586B000AF03460A46FB801346BB800A
:101420000121042001F092F80121012001F070F85F
:1014300007F10C031846FFF727FBBB88BB81FB882D
:101440003B8207F10C0319460348FFF777F800BF0A
:101450001837BD4680BD00BF0008004080B586B08B
:1014600000AF78600B467B8007F108031846FFF752
:1014700025FB7B883B8101237B810023FB810023AB
:101480003B8207F1080319467868FFF7D3F801217A
:101490007868FFF773FB01217868FFF74FFB00BF07
:1014A0001837BD4680BD00BF80B586B000AF7860FC
:1014B0000B467B8007F108031846FFF7FFFA7B888D
:1014C0003B8101237B810023FB8100233B8207F1C9
:1014D000080319467868FFF739F901217868FFF7A2
:1014E0004DFB01217868FFF729FB00BF1837BD4687
:1014F00080BD00BF80B586B000AF78600B467B80B2
:1015000007F108031846FFF7D9FA7B883B810123CE
:101510007B810023FB8100233B8207F108031946EE
:101520007868FFF79BF901217868FFF727FB012115
:101530007868FFF703FB00BF1837BD4680BD00BFCA
:1015400080B586B000AF78600B467B8007F108035A
:101550001846FFF7B3FA7B883B8101237B81002388
:10156000FB8100233B8207F1080319467868FFF7E7
:10157000FBF901217868FFF701FB01217868FFF78B
:10158000DDFA00BF1837BD4680BD00BF80B483B010
:1015900000AF78600B467B807B687A889A8600BFB4
:1015A0000C37BD4680BC704780B483B000AF786014
:1015B0000B467B807B687A881A8700BF0C37BD4654
:1015C00080BC704780B483B000AF78600B467B80EE
:1015D0007B687A889A8700BF0C37BD4680BC70470D
:1015E00080B483B000AF78600B467B807B687A88DC
:1015F000A3F8402000BF0C37BD4680BC704700BF39
:1016000080B400AF0C4B9B8C9BB21BB2DB439BB2F4
:10161000DB0BDBB2002B05D0084B1B680133074AFC
:10162000136004E0054B1B68013B044A136000BFD4
:10163000BD4680BC704700BF002C0140240C002038
:1016400080B400AF4FF080439B8C9BB21BB2DB4356
:101650009BB2DB0BDBB2002B05D0074B1B680133C1
:10166000054A136004E0044B1B68013B024A136007
:1016700000BFBD4680BC7047280C002080B400AF7E
:101680000C4B9B8C9BB21BB2DB439BB2DB0BDBB2E4
:10169000002B05D0084B1B680133074A136004E098
:1016A000054B1B68013B044A136000BFBD4680BC6C
:1016B000704700BF000400402C0C002080B400AF35
:1016C0000C4B9B8C9BB21BB2DB439BB2DB0BDBB2A4
:1016D000002B05D0084B1B680133074A136004E058
:1016E000054B1B68013B044A136000BFBD4680BC2C
:1016F000704700BF00080040300C002080B400AFED
:1017000000BFBD4680BC704780B400AF00BFBD467F
:1017100080BC704780B400AF00BFBD4680BC70473E
:1017200080B400AF00BFBD4680BC704780B400AF3E
:1017300000BFBD4680BC704780B400AF00BFBD464F
:1017400080BC704780B400AF00BFBD4680BC70470E
:1017500080B400AF00BFBD4680BC704780B400AF0E
:10176000044B1B680133034A136000BFBD4680BCB5
:10177000704700BF240C002080B400AF044B1B68EE
:101780000133034A136000BFBD4680BC704700BFF1
:10179000280C002080B400AF044B1B680133034ABF
:1017A000136000BFBD4680BC704700BF2C0C0020FA
:1017B00080B400AF044B1B680133034A136000BFC1
:1017C000BD4680BC704700BF300C002080B500AF24
:1017D0000C4B1B68022B02D1FFF712FF0CE0094BE8
:1017E0001B68012B02D1FFF789FF05E0054B1B6841
:1017F000032B01D1FFF7B2FF01210348FFF708FADD
:1018000000BF80BD140C0020002C014080B500AF4B
:10181000124B1B68022B07D1FFF712FF01214FF07B
:101820008040FFF7F5F916E00C4B1B68012B07D140
:10183000FFF76AFF01214FF08040FFF7E9F90AE066
:10184000064B1B68032B06D1FFF796FF01214FF0D3
:101850008040FFF7DDF900BF80BD00BF180C0020FD
:1018600080B500AF104B1B68022B06D1FFF706FFB7
:1018700001210E48FFF7CCF914E00B4B1B68012B3C
:1018800006D1FFF747FF01210848FFF7C1F909E03A
:10189000054B1B68032B05D1FFF77CFF0121034893
:1018A000FFF7B6F900BF80BD1C0C0020000400400B
:1018B00080B500AF3C4B1B68022B06D1FFF7FEFE44
:1018C00001213A48FFF7A4F96CE0374B1B68012B64
:1018D0005ED101213548FFF771F90346012B0CBF9A
:1018E00001230023DBB2002B06D0FFF719FF0121F3
:1018F0002E48FFF78DF955E002212C48FFF75EF9DD
:101900000346012B0CBF01230023DBB2002B06D0C2
:10191000FFF70CFF02212548FFF77AF942E0042186
:101920002248FFF74BF90346012B0CBF012300238C
:10193000DBB2002B06D0FFF7FFFE04211B48FFF7A8
:1019400067F92FE008211948FFF738F90346012B02
:101950000CBF01230023DBB2002B06D0FFF7F2FE01
:1019600008211248FFF754F91CE010210F48FFF737
:1019700025F90346012B0CBF01230023DBB2002B0A
:1019800010D0FFF7E5FE10210848FFF741F909E004
:10199000054B1B68032B05D1FFF70AFF0121034804
:1019A000FFF736F900BF80BD200C00200008004082
:1019B00080B582B000AF114B7B60114B3B6007E0FC
:1019C0003B681A1D3A607A68111D796012681A60C6
:1019D0003B680C4A9342F3D30B480C494FF000028A
:1019E0008842B8BF40F8042BFADBFFF791F900F00A
:1019F000A3FB00BF0837BD4680BD00BFECD6000882
:101A000000000020DC090020E0090020701B0020FD
:101A100080B400AFFEE700BF80B489B000AF78604B
:101A200039600023FB6100233B610023BB6100237D
:101A3000FB6000237B610023BB603B68DB7803F025
:101A40000F03FB613B68DB7803F01003002B05D02C
:101A50003B689B781A46FB691343FB613B681B8814
:101A6000DBB2002B44D07B681B687B610023BB6129
:101A700038E00122BB6902FA03F3FB603B681B8874
:101A80001A46FB6813403B613A69FB689A4226D1CB
:101A9000BB699B00FB600F22FB6802FA03F3BB608B
:101AA000BB68DB437A6913407B61FA69FB6802FA21
:101AB00003F37A6913437B613B68DB78282B05D1FC
:101AC0000122BB699A407B685A6108E03B68DB7879
:101AD000482B04D10122BB699A407B681A61BB691B
:101AE0000133BB61BB69072BC3D97B687A691A6074
:101AF0003B681B88FF2B46D97B685B687B610023B2
:101B0000BB613AE0BB690833012202FA03F3FB60D0
:101B10003B681B881A46FB6813403B613A69FB68C7
:101B20009A4227D1BB699B00FB600F22FB6802FA37
:101B300003F3BB60BB68DB437A6913407B61FA69DE
:101B4000FB6802FA03F37A6913437B613B68DB7835
:101B5000282B05D1BB69083301229A407B685A6162
:101B60003B68DB78482B05D1BB69083301229A40DA
:101B70007B681A61BB690133BB61BB69072BC1D9A3
:101B80007B687A695A6000BF2437BD4680BC7047C5
:101B900080B483B000AF78607B684FF6FF721A8024
:101BA0007B6802229A707B680422DA7000BF0C37CF
:101BB000BD4680BC704700BF80B485B000AF786080
:101BC0000B467B800023FB737B689A687B881340FD
:101BD000002B02D00123FB7301E00023FB73FB7B8E
:101BE00018461437BD4680BC704700BF80B485B02E
:101BF00000AF78600B467B800023FB737B68DA685C
:101C00007B881340002B02D00123FB7301E00023EB
:101C1000FB73FB7B18461437BD4680BC704700BF82
:101C200080B483B000AF78600B467B8013467B7036
:101C30007B78002B03D07A887B681A6102E07A886F
:101C40007B685A6100BF0C37BD4680BC704700BF3F
:101C500080B487B000AF78600B46FB7000233B6117
:101C60000023FB6000237B610023BB607B68002BAB
:101C700003DA2E4BDB697B6102E02C4B5B687B61F6
:101C80007B681B0C03F00F03BB607B689BB23B615E
:101C90007B6803F44013B3F5401F0AD17B6923F03E
:101CA00070637B61214A214B5B6823F07063536052
:101CB00021E07B6803F48013002B0ED00322BB6865
:101CC00002FA03F3FB60FB68DB437A6913407B6134
:101CD0007B6943F070637B610DE07B685B0D1B01EA
:101CE0003A6902FA03F3DB437A6913407B617B694B
:101CF00043F070637B61FB78002B08D07B685B0D41
:101D00001B013A6902FA03F37A6913437B617B682A
:101D1000002B03DA054A7B69D36102E0034A7B6941
:101D2000536000BF1C37BD4680BC704700000140B7
:101D300080B588B006AF514800F060FA482304220D
:101D40004F49504800F020FC10234FF480724E4958
:101D50004E4800F019FC602303930023029344F6DD
:101D60002063019302230093454B042248494948CC
:101D7000FFF77AF9602303930023029344F620636C
:101D8000019380230093404B022241494248FFF7D0
:101D90006BF9602303930023029344F620630193BD
:101DA0004FF400730093364B04223C493C48FFF744
:101DB0005BF9602303930023029344F620630193AD
:101DC000802300932E4B022234493648FFF74CF90A
:101DD000602303930023029344F6206301930123BD
:101DE0000093274B03222A492F48FFF73DF9602330
:101DF00003930023029344F620630193402300934E
:101E0000214B012222492948FFF72EF96023039331
:101E10000023029344F6206301934FF480730093F0
:101E2000174B03221D492248FFF71EF96023039335
:101E30000023029344F62063019340230093104B48
:101E4000012216491B48FFF70FF900237B607B68CE
:101E5000032B33DC7B685B01174A98187B681B01F6
:101E60000C4A99187B681B010F4A13441A4601F06B
:101E700035FA7B6801337B60E9E700BF380C00204E
:101E8000000C0140A40E002000080140B00E00200C
:101E900000040040240E0020340E00200008004002
:101EA000440E0020540E0020640E0020740E00200A
:101EB000840E0020940E0020C00E00200223019307
:101EC00001230093734B00227349744801F0FEFA1A
:101ED00002230193022300936E4B01227049714843
:101EE00001F0F4FA0223019310230093694B0422BA
:101EF00069496D4801F0EAFA022301932023009317
:101F0000644B05226649694801F0E0FA4FF48063AA
:101F10000293604B01934FF4007300935D4B4FF4B9
:101F2000E1326349634803F043FF4FF48063029357
:101F3000584B01934FF400730093564B4FF4E1322A
:101F40005B495D4804F012F95C4A5D495A4804F067
:101F5000EBF85C4A5C49584804F0E6F856495B489F
:101F600000F06AF94FF400630293594B01934FF468
:101F700080630093564B4FF4E1325649564803F0C4
:101F800017FF08230193434B00930423414A53490D
:101F9000534800F071FF482320224D495148FEF775
:101FA000B5F8482310224A494F48FEF7AFF84FF4DE
:101FB00000524E494E48FEF765FF4FF480424B49B0
:101FC0004C48FEF75FFF4FF4004248494A48FEF78D
:101FD00059FF04222F494948FEF754FF08223C4983
:101FE0004748FEF74FFF4FF400422A494548FEF7A5
:101FF00049FF01214448FFF72BFE444B0493444B17
:102000000393444B0293444B0193444B0093324B54
:10201000334A2949424803F021FB3A4B0493384B99
:102020000393364B0293344B0193324B0093304B66
:102030002C4A2D493A4803F0F3FB3A4800F000FBE4
:102040000346002B14BF01230023DBB2002B0ED06C
:10205000354B0193154B0093134B124A0F493048EF
:1020600003F00AFC3149144804F05EF80DE0304BEF
:1020700001930E4B00930C4B0A4A0849284803F081
:10208000FBFB2C490C4804F04FF800BF0837BD4655
:1020900080BD00BF0008014000240140E80D002081
:1020A00000280140F40D0020000E00200C0E00203E
:1020B00000380140E00F0020400C002030CA00082A
:1020C0003CCA000848CA000854CA0008380C00205E
:1020D000000C014000480040400F00200044004038
:1020E00080100020480C0020700C002000100140DF
:1020F000980C0020D00C0020080D0020400D00207E
:10210000780D0020B00D002000023000B00E00203D
:10211000200F0020000F0020E00E0020C00E002045
:10212000F0110020A40E00203F35874160CA00084E
:1021300079E9884170CA000880B500AFFFF7F8FD63
:102140000121054800F052FA044800F085F80448DF
:1021500001F0C4FEF8E700BFB00E0020380C0020EC
:10216000F011002080B483B000AF03463960FB71EA
:1021700097F90730002B0BDA0D49FB7903F00F03B9
:10218000043B3A68D2B21201D2B20B441A7609E08B
:10219000084997F907303A68D2B21201D2B20B441B
:1021A00083F8002300BF0C37BD4680BC704700BFDA
:1021B00000ED00E000E100E080B582B000AF7860A3
:1021C0007B68B3F1807F01D3012311E00A4A7B6869
:1021D00023F07F43013B53600F214FF0FF30FFF7A7
:1021E000C1FF054B00229A60034B07221A600023AF
:1021F00018460837BD4680BD10E000E080B582B0CB
:1022000000AF7860094B1B685B09094AA2FB0323F6
:10221000DB091846FFF7D0FF7B6800221A80054BC8
:1022200000221A8000BF0837BD4680BD0000002094
:10223000C55A7C0A7416002080B483B000AF786061
:1022400039607B683A685A607B6801221A8000BF57
:102250000C37BD4680BC704780B582B000AF786057
:10226000214B1B88002B11D07B681B88002B0DD0C5
:102270007B6858681C4B1B881A461C4903F054FFA6
:102280000A2001F009FB184B00221A80184BB3F901
:102290000030002B1BDD164BB3F900309AB2124B05
:1022A0001A807B681B88002B11D00022642178687B
:1022B00000F024F87B6858680D4BB3F900301A46DB
:1022C0000C4903F031FF0A2001F0E6FAFEE77868D6
:1022D00000F026F8084BB3F90020054B1A8000BF28
:1022E0000837BD4680BD00BF7416002080CA0008B4
:1022F0007016002094CA00087216002080B582B0C3
:1023000000AF78600B467B8013467B707A787B88C1
:102310001146184600F00EF800BF0837BD4680BDD4
:1023200080B582B000AF786000F020F800BF0837B9
:10233000BD4680BD80B582B000AF03460A46FB8033
:1023400013467B7145F2555004F06AFB7B791846C1
:1023500004F076FBFB88184604F082FB00F006F8D8
:1023600004F09AFB00BF0837BD4680BD80B500AFC2
:1023700004F086FB00BF80BD80B485B000AF7860FC
:102380000023FB60094B5B68FB60FB6823F4404360
:10239000FB60FA687B681343FB60044AFB68536088
:1023A00000BF1437BD4680BC704700BF001002401C
:1023B00080B487B000AF786000237B6100233B616D
:1023C0000023FB600023BB604C4B5B6803F00C03F5
:1023D0007B617B69042B07D0082B09D0002B33D1FC
:1023E0007B68474A1A6033E07B68454A1A602FE0F1
:1023F000424B5B6803F470133B61404B5B6803F432
:102400008033FB603B699B0C02333B61FB68002B14
:1024100006D13B693B4A02FB03F27B681A6017E076
:10242000364B5B6803F40033002B06D03B69354A1A
:1024300002FB03F27B681A600AE03B69304A02FB48
:1024400003F27B681A6003E07B682D4A1A6000BFC4
:102450002A4B5B6803F0F0037B617B691B097B619E
:10246000294A7B6913441B78DBB2BB607B681A681E
:10247000BB68DA407B685A60204B5B6803F4E0631A
:102480007B617B691B0A7B611F4A7B6913441B7854
:10249000DBB2BB607B685A68BB68DA407B689A60D5
:1024A000164B5B6803F460537B617B69DB0A7B61DD
:1024B000154A7B6913441B78DBB2BB607B685A68A2
:1024C000BB68DA407B68DA600C4B5B6803F440431E
:1024D0007B617B699B0B7B610C4A7B6913441B7896
:1024E000DBB2BB607B68DA68BB68B2FBF3F27B6887
:1024F0001A6100BF1C37BD4680BC70470010024007
:1025000000127A0000093D00140000202400002081
:1025100080B483B000AF78600B46FB70FB78002B73
:1025200006D00949084B9A697B6813438B6106E022
:102530000549054B9A697B68DB4313408B6100BFFB
:102540000C37BD4680BC70470010024080B483B099
:1025500000AF78600B46FB70FB78002B06D0094972
:10256000084BDA697B681343CB6106E00549054BEC
:10257000DA697B68DB431340CB6100BF0C37BD4693
:1025800080BC70470010024080B586B000AFF86094
:10259000B96011461A460B46FB8013467B71FB68F7
:1025A000FA885A80FB68BA685A6000F08DF8FB68B8
:1025B0007A791A7207F114031846FFF7E9FAFB68F3
:1025C0005B88BB82FB681B7AFB750323BB75FB68CA
:1025D0005B6807F1140211461846FFF71DFAFB6805
:1025E00000221A8000BF1837BD4680BD80B582B07A
:1025F00000AF78600B467B807B681B88002B07D080
:102600007B88002B02D000237B8001E001237B80AC
:102610007B88002B08D17B6858687B685B88002228
:102620001946FFF7FDFA07E07B6858687B685B880E
:1026300001221946FFF7F4FA00BF0837BD4680BDF6
:1026400080B582B000AF78607B681B88002B13D107
:102650007B685A687B685B8819461046FFF7ACFABE
:102660000346002B14BF01230023DBB2002B01D053
:10267000012314E0002312E07B685A687B685B88C2
:1026800019461046FFF798FA0346002B14BF0123A2
:102690000023DBB2002B01D0002300E00123184609
:1026A0000837BD4680BD00BF80B582B000AF7860FE
:1026B0007B685A687B685B881946104600F018F8FA
:1026C00000BF0837BD4680BD80B500AF01210420A2
:1026D000FFF71EFF01210820FFF71AFF012110203C
:1026E000FFF716FF01212020FFF712FF00BF80BD7A
:1026F00080B582B000AF78600B467B807B8819463E
:102700007868FFF773FA0346012B0CBF01230023FF
:10271000DBB2002B06D07B88002219467868FFF7D1
:102720007FFA05E07B88012219467868FFF778FA7E
:1027300000BF0837BD4680BD80B485B000AF78606B
:1027400039600023FB600023FB727B685B68FB60E1
:10275000FB6823F4702323F48073FB603B681A68E2
:102760003B681B791B021343FA681343FB607B68C9
:10277000FA685A607B689B68FB60FA68164B1340E6
:10278000FB603B68DA683B689B681A433B685B798F
:102790005B001343FA681343FB607B68FA689A6036
:1027A0007B68DB6AFB60FB6823F47003FB603B68BB
:1027B0001B7C013BDAB2FB7A1343FB72FB7A1B05ED
:1027C000FA681343FB607B68FA68DA6200BF14376B
:1027D000BD4680BC704700BFFDF7F1FF80B483B0F9
:1027E00000AF78607B6800221A607B6800221A7153
:1027F0007B6800225A717B6800229A607B68002205
:10280000DA607B6801221A7400BF0C37BD4680BCB9
:10281000704700BF80B483B000AF78600B46FB7098
:10282000FB78002B06D07B689B6843F001027B6835
:102830009A6005E07B689B6823F001027B689A60E0
:1028400000BF0C37BD4680BC704700BF80B483B06A
:1028500000AF78607B689B6843F008027B689A60F1
:1028600000BF0C37BD4680BC704700BF80B485B048
:1028700000AF78600023FB737B689B6803F008035C
:10288000002B02D00123FB7301E00023FB73FB7BD1
:1028900018461437BD4680BC704700BF80B483B073
:1028A00000AF78607B689B6843F004027B689A60A5
:1028B00000BF0C37BD4680BC704700BF80B485B0F8
:1028C00000AF78600023FB737B689B6803F0040310
:1028D000002B02D00123FB7301E00023FB73FB7B81
:1028E00018461437BD4680BC704700BF80B483B023
:1028F00000AF78600B46FB70FB78002B06D07B683E
:102900009B6843F4A0027B689A6005E07B689B6843
:1029100023F4A0027B689A6000BF0C37BD4680BCE0
:10292000704700BF80B485B000AF7860084611469C
:102930001A460346FB700B46BB7013467B700023A0
:10294000FB600023BB60FB78092B23D97B68DB6825
:10295000FB60FB78A3F10A0213465B0013440722D5
:1029600002FA03F3BB60BB68DB43FA681340FB6009
:102970007978FB78A3F10A0213465B00134401FA4D
:1029800003F3BB60FA68BB681343FB607B68FA68BB
:10299000DA601EE07B681B69FB60FA7813465B0017
:1029A0001344072202FA03F3BB60BB68DB43FA68F7
:1029B0001340FB607978FA7813465B00134401FA00
:1029C00003F3BB60FA68BB681343FB607B68FA687B
:1029D0001A61BB78062B21D87B685B6BFB60BB78E8
:1029E0005A1E13469B0013441F2202FA03F3BB60D6
:1029F000BB68DB43FA681340FB60F978BB785A1E6A
:102A000013469B00134401FA03F3BB60FA68BB68EA
:102A10001343FB607B68FA685A6347E0BB780C2B72
:102A200021D87B681B6BFB60BB78DA1F13469B00C9
:102A300013441F2202FA03F3BB60BB68DB43FA684E
:102A40001340FB60F978BB78DA1F13469B001344F0
:102A500001FA03F3BB60FA68BB681343FB607B6851
:102A6000FA681A6322E07B68DB6AFB60BB78A3F13B
:102A70000D0213469B0013441F2202FA03F3BB60AE
:102A8000BB68DB43FA681340FB60F978BB78A3F1BD
:102A90000D0213469B00134401FA03F3BB60FA686E
:102AA000BB681343FB607B68FA68DA6200BF1437C7
:102AB000BD4680BC704700BF80B483B000AF786073
:102AC0007B68DB6C9BB218460C37BD4680BC7047F8
:102AD00080B485B000AF78600B46FB700023FB73B9
:102AE0007B681A68FB781340002B02D00123FB732C
:102AF00001E00023FB73FB7B18461437BD4680BC06
:102B0000704700BF80B58CB000AF7860396000239B
:102B1000FB620023BB6200237B6200233B62002335
:102B2000FB617B68FB617B681B8A9BB2FB62FA6A74
:102B30004CF6FF731340FB623B68DB881A46FB6A66
:102B40001343FB62FB6A9AB27B681A827B689B899B
:102B50009BB2FB62FA6A4EF6F3131340FB623B68CA
:102B60009A883B681B8913439AB23B685B8913437D
:102B70009BB21A46FB6A1343FB62FB6A9AB27B68FC
:102B80009A817B689B8A9BB2FB62FA6A4FF6FF438D
:102B90001340FB623B689B891A46FB6A1343FB6246
:102BA000FB6A9AB27B689A8207F108031846FFF71E
:102BB000FFFBFB692E4A934202D17B69BB6201E0B5
:102BC0003B69BB627B689B899BB21BB2002B0CDA12
:102BD000BA6A13469B0013449A001A443B681B6868
:102BE0005B00B2FBF3F37B620BE0BA6A13469B0017
:102BF00013449A001A443B681B689B00B2FBF3F332
:102C00007B627B6A1B4AA2FB03235B091B01FB62FD
:102C1000FB6A1B09642202FB03F37A6AD31A3B6244
:102C20007B689B899BB21BB2002B0CDA3B6ADB00F2
:102C30003233104AA2FB03235B0903F00703FA6A4D
:102C40001343FB620BE03B6A1B013233094AA2FBD0
:102C500003235B0903F00F03FA6A1343FB62FB6A69
:102C60009AB27B681A8100BF3037BD4680BD00BF75
:102C7000003801401F85EB5180B483B000AF78600D
:102C80007B684FF416521A607B6800229A807B683A
:102C90000022DA807B6800221A817B680C225A812C
:102CA0007B6800229A8100BF0C37BD4680BC70470C
:102CB00080B483B000AF78600B46FB70FB78002BCC
:102CC00008D07B689B899BB243F400539AB27B681F
:102CD0009A8107E07B689B899BB223F400539AB2E8
:102CE0007B689A8100BF0C37BD4680BC704700BF2F
:102CF00080B487B000AF78600B467B8013467B7052
:102D000000233B610023FB600023BB6000237B6149
:102D10007B687B617B88DBB25B09DBB23B617B88D4
:102D200003F01F03FB600122FB6802FA03F3BB60A0
:102D30003B69012B03D17B690C337B6109E03B6963
:102D4000022B03D17B6910337B6102E07B69143372
:102D50007B617B78002B06D07B697A691168BA6841
:102D60000A431A6006E07B697A691168BA68D2433F
:102D70000A401A6000BF1C37BD4680BC704700BFC8
:102D800080B483B000AF78600B467B807B88C3F350
:102D900008039AB27B689A8000BF0C37BD4680BC9E
:102DA000704700BF80B483B000AF78607B689B88B9
:102DB0009BB2C3F308039BB218460C37BD4680BCD8
:102DC000704700BF80B487B000AF78600B467B804F
:102DD0000023FB6000237B610023BB600023FB74A6
:102DE0007B88DBB25B09DBB2BB607B8803F01F032F
:102DF0007B6101227B6902FA03F37B61BB68012BD3
:102E000007D17B689B899BB21A467B6913407B6123
:102E100011E0BB68022B07D17B681B8A9BB21A4664
:102E20007B6913407B6106E07B689B8A9BB21A46F4
:102E30007B6913407B617B881B0A9BB2FB6001228C
:102E4000FB6802FA03F3FB607B681B889BB21A469F
:102E5000FB681340FB607B69002B05D0FB68002BEF
:102E600002D00123FB7401E00023FB74FB7C1846B5
:102E70001C37BD4680BC704790B589B004AFF86080
:102E8000B9607A607B80FB6803F17400BB8C0293AD
:102E90003B6A01937B8800937B68144AB96803F00E
:102EA00065F9FB680022DA86FA684FF000034FF0FC
:102EB0000004C2E90234FA684FF000034FF0000446
:102EC000C2E90034FB6800221A87FB6800225A8797
:102ED000074BB3F900309BB201339BB21AB2044BDB
:102EE0001A8000BF1437BD4690BD00BFA086010008
:102EF0007216002090B585B000AF78601A4BB3F918
:102F000000309BB2013B9BB21AB2174B1A807B6810
:102F10007433184603F0E0FA0346002B14BF012374
:102F20000023DBB2002B21D07B687433184603F0FA
:102F300047FA0346FB73FB7B0F2B02D17B68002211
:102F40001A827B681B8A182B07D87B681B8A1A4653
:102F50007B681344FA7B83F83E207B681B8A01332D
:102F60009AB27B681A82D2E7701600207B681B8AAF
:102F7000192B40F08D817B6893F83F301AB27B6843
:102F800093F840301B021BB213431BB29BB2C3F336
:102F90000A039AB27B685A827B6893F84030DB1050
:102FA0001AB27B6893F841305B011BB213431BB22A
:102FB0009BB2C3F30A039AB27B689A827B6893F848
:102FC00041309B111AB27B6893F842309B001BB2D0
:102FD00013431AB27B6893F843309B021BB213432E
:102FE0001BB29BB2C3F30A039AB27B68DA827B6896
:102FF00093F843305B101AB27B6893F84430DB01DE
:103000001BB213431BB29BB2C3F30A039AB27B6891
:103010001A837B6893F844301B111AB27B6893F8CB
:1030200045301B011BB213431BB29BB2C3F30A030F
:103030009AB27B685A837B6893F84530DB111AB2E9
:103040007B6893F846305B001BB213431AB27B686F
:1030500093F847305B021BB213431BB29BB2C3F31E
:103060000A039AB27B689A837B6893F847309B1077
:103070001AB27B6893F848309B011BB213431BB212
:103080009BB2C3F30A039AB27B68DA837B6893F836
:1030900048305B111AB27B6893F84930DB001BB2F1
:1030A00013431BB29BB2C3F30A039AB27B681A8420
:1030B0007B6893F84A301AB27B6893F84B301B0256
:1030C0001BB213431BB29BB2C3F30A039AB27B68D1
:1030D0005A847B6893F84B30DB101AB27B6893F804
:1030E0004C305B011BB213431BB29BB2C3F30A0308
:1030F0009AB27B689A847B6893F84C309B111AB221
:103100007B6893F84D309B001BB213431AB27B6867
:1031100093F84E309B021BB213431BB29BB2C3F316
:103120000A039AB27B68DA847B6893F84E305B10AE
:103130001AB27B6893F84F30DB011BB213431BB20A
:103140009BB2C3F30A039AB27B681A857B6893F833
:103150004F301B111AB27B6893F850301B011BB221
:1031600013431BB29BB2C3F30A039AB27B685A851E
:103170007B6893F85030DB111AB27B6893F85130BA
:103180005B001BB213431AB27B6893F852305B02A8
:103190001BB213431BB29BB2C3F30A039AB27B6800
:1031A0009A857B6893F852309B101AB27B6893F82B
:1031B00053309B011BB213431BB29BB2C3F30A03F0
:1031C0009AB27B68DA857B6893F853305B111AB248
:1031D0007B6893F85430DB001BB213431BB29BB2E5
:1031E000C3F30A039AB27B681A867B6832221A827A
:1031F0007B6893F8553003F00103002B04D07B6803
:1032000040F2FF725A8602E07B6800225A867B6891
:1032100093F8553003F00203002B04D07B6840F292
:10322000FF729A8602E07B6800229A867B6893F898
:10323000553003F00803002B03D07B6800225A8727
:1032400002E07B6801225A877B6893F8553003F0CF
:103250000403002B03D07B6800229A8702E07B687E
:1032600001229A8700F05AFB0A4601467B6818CB78
:10327000CB1A62EB04047A68C2E9023400F04EFB18
:1032800003460C467A68C2E900347B6801221A873B
:103290007B681B8A1A2B06D17B68DB8E43F01003F8
:1032A0009AB27B68DA8600BF1437BD4690BD00BF76
:1032B00080B483B000AF78600B467B807B880F2B97
:1032C00001D9002305E07B887A6808335B0013444A
:1032D0005B8818460C37BD4680BC704790B585B0FA
:1032E00000AFF860B9607A60FB68BA689A61FB6801
:1032F0007A68DA614FF00001F86800F061F8FA6866
:103300004FF000034FF00004C2E90434FB68094A9F
:103310009A60FB68084ADA60084BB3F900309BB248
:1033200001339BB21AB2054B1A8000BF1437BD4659
:1033300090BD00BFA4707D3FA4707DBF72160020B9
:1033400090B583B000AF7860134BB3F900309BB2F7
:10335000013B9BB21AB2104B1A8000F0DFFA0A460A
:1033600001467B6803F11004D4E90034CB1A62EB08
:103370000404002C08BF652B2CBF01230023DBB203
:10338000002B04D04FF00001786800F019F800BF5E
:103390000C37BD4690BD00BF7016002080B483B0CE
:1033A00000AF786039607B683A689A603B6883F068
:1033B00000427B68DA6000BF0C37BD4680BC7047B6
:1033C000B0B582B000AF7860396000F0A7FA03466C
:1033D0000C467A68C2E904347B6898687B68DB68CD
:1033E0001A463968FDF776FC03463B607B683A680D
:1033F0005A604FF00001386804F09EFA0346002B33
:103400001DD07B689C697B689B699B88184604F08B
:1034100083F803463968184604F0D2F80346184684
:1034200004F0BAFA03469BB219462046FDF7CAFEDD
:103430007B68DB6900211846FDF7C4FE1FE07B684E
:10344000DC693B6883F000457B689B699B88184674
:1034500004F062F803461946284604F0B1F8034622
:10346000184604F099FA03469BB219462046FDF728
:10347000A9FE7B689B6900211846FDF7A3FE00BFEB
:103480000837BD46B0BD00BF80B485B000AF7860DE
:103490000A4B1B68002B02D1084B094A1A60074BE4
:1034A0001B68FB60054B1A687B681344034A136072
:1034B000FB6818461437BD4680BC7047781600205C
:1034C000701B002080B400AFFEE700BF80B584B061
:1034D00000AFF860B9603B601346FB713B8B1A4646
:1034E0003968F86800F0EEF8BB68194A934209D0D1
:1034F000BB68184A934205D0174B1B8801339AB218
:10350000154B1A80FB68FA799A70FB68BA689A6062
:10351000FB683A7FDA70FB689B680D4A934205D1DD
:10352000FB689B78184600F0DFF809E0FB689B68B1
:10353000084A934204D1FB689B78184600F01EF9B4
:10354000FB6800221A7100BF1037BD4680BD00BF66
:1035500000240140002801407416002080B582B08C
:1035600000AF78607B68DB781946786800F004F873
:1035700000BF0837BD4680BD80B582B000AF78601F
:103580000B46FB707B689B681F4A934219D102214E
:103590001D48FFF79DFA0346012B0CBF01230023B2
:1035A000DBB2002B05D000F063F903461A467B68B6
:1035B0001A807B689B78FA781146184600F028F943
:1035C0001DE07B689B68114A934218D102210F4885
:1035D000FFF77EFA0346012B0CBF01230023DBB269
:1035E000002B05D000F04EF903461A467B681A807E
:1035F0007B689B78FA781146184600F021F900BFE5
:103600000837BD4680BD00BF0024014000280140AE
:1036100080B582B000AF78607B689B680221184655
:10362000FFF756FA0346012B0CBF01230023DBB240
:10363000002B01D0012300E0002318460837BD46C7
:1036400080BD00BF80B582B000AF78607B689B68AA
:103650001A4A934211D17868FFF7DAFF0346002B2C
:1036600014BF01230023DBB2002B20D000F000F9AF
:1036700003461A467B681A8019E07B689B68104AEB
:10368000934211D17868FFF7C3FF0346002B14BFA4
:1036900001230023DBB2002B09D000F0F3F803462E
:1036A0001A467B681A8002E07B6800221A807B68D9
:1036B0001B8818460837BD4680BD00BF0024014066
:1036C0000028014080B588B000AFF860B9601346AB
:1036D000FB80FA8807F114000023B968FEF754FF55
:1036E00000BF2037BD4680BD80B588B000AF03461F
:1036F000FB710020FEF740FE01214FF40070FEF741
:1037000007FF07F10C031846FFF768F84FF4602332
:103710007B6107F10C0319461748FFF70DF8F9799B
:10372000022301221448FFF7FDF801211248FFF798
:1037300071F81148FFF78AF80F48FFF797F803462A
:10374000002B14BF01230023DBB2002B00D0F3E7D2
:103750000948FFF7A3F80848FFF7B0F80346002B25
:1037600014BF01230023DBB2002B00D0F3E700BF1E
:103770002037BD4680BD00BF0024014080B588B021
:1037800000AF0346FB710020FEF7F6FD01214FF468
:103790008060FEF7BDFE07F10C031846FFF71EF828
:1037A0004FF460237B6107F10C0319461748FEF7BD
:1037B000C3FFF979022301221448FFF7B3F801216E
:1037C0001248FFF727F81148FFF740F80F48FFF7B6
:1037D0004DF80346002B14BF01230023DBB2002B5E
:1037E00000D0F3E70948FFF759F80848FFF766F8F3
:1037F0000346002B14BF01230023DBB2002B00D0B3
:10380000F3E700BF2037BD4680BD00BF0028014060
:1038100080B582B000AF03460A46FB711346BB7108
:10382000BB79F97901220548FFF77CF801210348AB
:10383000FFF75CF800BF0837BD4680BD002401409B
:1038400080B582B000AF03460A46FB711346BB71D8
:10385000BB79F97901220548FFF764F80121034893
:10386000FFF744F800BF0837BD4680BD002801407F
:1038700080B500AF0248FFF71FF90346184680BD28
:103880000024014080B500AF0248FFF715F9034658
:10389000184680BD00280140B0B584B000AF786004
:1038A0007B684FF47A7202FB03F31C464FF000056D
:1038B00000F01EF802460B46A01845EB0301034634
:1038C0000C46C7E9023400F013F80A460146D7E96E
:1038D0000234A24208BF994234BF01230023DBB265
:1038E000002B00D0EFE700BF1037BD46B0BD00BFD2
:1038F00090B400AF084B18CBDB1844EB0404A200D3
:1039000042EA937299005B1844EB02041846214680
:10391000BD4690BC704700BF8016002098B500AF30
:10392000FFF7E6FF4FF47A724FF0000304F054F80B
:1039300003460C461846214698BD00BF90B400AF20
:10394000054B18CB013344F10004034AC2E90034AB
:1039500000BFBD4690BC70478016002080B487B081
:1039600000AF786000237B6100233B610F23FB6085
:103970007B68DB78002B3AD0274BDB68DB4303F412
:10398000E0631B0A7B617B69C3F104033B61FA6856
:103990007B6922FA03F3FB607B685B781A463B691C
:1039A00002FA03F37B617B689B781A46FB6813403D
:1039B0007A6913437B617B691B017B61174A7B68D2
:1039C0001B787969C9B213440A4683F80023134A65
:1039D0007B681B785B09DBB218467B681B7803F0B9
:1039E0001F03012101FA03F342F820300FE00B49D5
:1039F0007B681B785B09DBB218467B681B7803F099
:103A00001F0301229A4000F1200341F8232000BF48
:103A10001C37BD4680BC704700ED00E000E100E0CF
:103A200080B487B000AFF860B9607A603B60FB6833
:103A3000BA681A60FB687A685A60FB683A689A60EC
:103A4000FB684FF00002DA64FB684FF000021A6571
:103A5000FB684FF000025A65FB684FF000025A61A4
:103A6000FB684FF000029A61FB680022A3F85C201B
:103A700000237B617B69032B1BDCFA687B690633BF
:103A80009B0013444FF000025A60FA687B690A33C6
:103A90009B0013444FF000025A60FA687B690E33B2
:103AA0009B0013444FF000025A607B6901337B6135
:103AB000E0E700BF1C37BD4680BC704780B485B0CE
:103AC00000AFF860B9607A60FB68BA685A61FB6859
:103AD0007A689A61FB680122A3F85C2000BF143762
:103AE000BD4680BC704700BF80B483B000AF786033
:103AF0007B684FF00002DA647B684FF000021A65C1
:103B00007B684FF000025A6500BF0C37BD4680BC91
:103B1000704700BF80B584B000AFF860B9607A60CC
:103B20007B68BA680321F86800F004F800BF10371A
:103B3000BD4680BD80B485B000AFF8607A603B6060
:103B40000B467B817B89042B16D87B89FA680E3360
:103B50009B0013444FF07E525A607B89FA6806330B
:103B60009B0013447A685A607B89FA680A339B0089
:103B700013443A685A6000E000BF1437BD4680BC69
:103B8000704700BF80B582B000AF786039607B6855
:103B90003A68DA607B681A697B68DB681946104608
:103BA00003F004FC03461946786800F005F800BFEE
:103BB0000837BD4680BD00BF80B582B000AF7860D9
:103BC00039607B68DA6C7B681A657B683A68DA640E
:103BD0007B681A6D7B68DB6C1946104603F0E6FBC8
:103BE00003461A467B689A657B685A6D7B68DB6C76
:103BF0001946104603F0DCFB03461A467B685A65FB
:103C00007B689B6C4FF00001184603F06DFE034685
:103C1000002B00D00BE07B68986B7B68596D7B684C
:103C20009B6A1A46FDF756F802467B685A6500BF44
:103C30000837BD4680BD00BF80B588B000AF786052
:103C40004FF00003FB617B68DA6C7B681B681946E8
:103C5000104603F0B5FC0346FB607B685A6D7B6839
:103C60005B681946104603F0ABFC03463B617B687A
:103C70009A6D7B689B681946104603F0A1FC0346C9
:103C80007B610023BB61BB69022B3CDC7A68BB69AA
:103C90000E339B0013445B684FF00001184603F09D
:103CA00023FE0346002B1DD17A68BB690A339B00B3
:103CB00013445868BB699B0007F12002134453F872
:103CC000141C7A68BB6906339B0013445B681A4670
:103CD000FDF700F80246BB699B0007F120010B4489
:103CE00043F8142CBB699B0007F12002134453F8DE
:103CF000143C1946F86903F05BFB0346FB61BB69A2
:103D00000133BB61BFE77B68B3F85C30002B09D09F
:103D10007B6898697B685B691A46F969FCF7DAFF8A
:103D20000346FB61FB6918462037BD4680BD00BFD6
:103D300080B582B000AF78607868FFF77DFF0346FA
:103D40000649184603F03CFC0346184603F0FEFD06
:103D5000034618460837BD4680BD00BF0000C84274
:103D600080B483B000AF78600B46FB70FB78002B0B
:103D700008D07B681B889BB243F040039AB27B68F3
:103D80001A8007E07B681B889BB223F040039AB23D
:103D90007B681A8000BF0C37BD4680BC704700BFEF
:103DA00080B485B000AF78600B46FB701346BB70E3
:103DB0000023FB810023BB81FB781B09DBB2FB8165
:103DC000FB89012202FA03F3BB81BB78002B08D0E8
:103DD0007B689B889AB2BB8913439AB27B689A80AE
:103DE00009E07B689B889AB2BB89DB439BB2134096
:103DF0009AB27B689A8000BF1437BD4680BC70477A
:103E000080B483B000AF78600B467B807B687A8893
:103E10009A8100BF0C37BD4680BC704780B483B028
:103E200000AF78607B689B899BB218460C37BD4613
:103E300080BC704780B485B000AF78600B46FB70E3
:103E40000023FB730023BB8100237B8100233B8184
:103E5000FB7803F00F03012202FA03F3BB81FB7826
:103E60001B09DBB27B817B89012202FA03F37B8190
:103E70007B689B889AB27B8913403B817B681B8956
:103E80009AB2BB8913409BB2002B05D03B89002B13
:103E900002D00123FB7301E00023FB73FB7B184678
:103EA0001437BD4680BC704780B485B000AF7860E1
:103EB0000B46FB700023FB81FB7803F00F0301220C
:103EC00002FA03F3FB81FB89DB439AB27B681A8118
:103ED00000BF1437BD4680BC704700BF90B585B0A9
:103EE00000AF78607B68D3F894301846FFF702F88B
:103EF0007B68B3F84E3043F001039BB2012B0AD12B
:103F00007B68B3F84E30002B05D07B68D3F8903037
:103F10000022A3F886207B68D3F89030184601F081
:103F200097FF0023FB60FB68052B0BDC7B68FA68BE
:103F3000263253F822301846FDF708F8FB680133A3
:103F4000FB60F0E70023BB60BB68032B0CDC7A68E6
:103F5000BB681E339B0013445B681846FFF7F0F9FB
:103F6000BB680133BB60EFE77B68D3F8B03018461D
:103F7000FCF710F97B68D3F8B4301846FCF70AF95F
:103F8000786801F003FB786800F0FEF9FFF7C6FCE3
:103F900003460C46002C08BF652B0DD37B68B3F895
:103FA0004430002B08D07B68D3F89030B3F88A30C7
:103FB000002B01D0012300E00023002B06D07B68FA
:103FC0000022A3F844207B680A22DA627B68D3F8D7
:103FD0009030B3F88A30002B08D07B68D3F890304B
:103FE0000022A3F88A20786800F0F8FEFFF796FC1C
:103FF0000A4601467B68D3F8943018CBCB1A62EBA3
:104000000404002C08BF652B2CBF01230023DBB266
:10401000002B22D07B68B3F84830042B18D0786886
:1040200001F04AFC7B689B6FAC49184602F07CF8B3
:104030007B68D3F89C3000211846FCF773FF7B683F
:10404000B3F84E3043F002039AB27B68A3F84E20D7
:104050007B680422A3F848204DE07B68D3F89430B5
:104060009B8F002B1FD17B68B3F84830032B15D0F2
:104070007B689B6F9A49184602F056F87B68D3F824
:104080009C3032211846FCF72BFF7B68B3F84E308A
:1040900023F002039AB27B68A3F84E207B680322C8
:1040A000A3F8482027E07B68D3F894301B8F002BBF
:1040B00021D07B68D3F8943000221A877B68B3F84C
:1040C0004830032B04D07B68B3F84830042B0FD161
:1040D0007B68D3F89C3001211846FCF723FF7B68EE
:1040E000B3F84E3023F002039AB27B68A3F84E2057
:1040F000786800F0D1FFFFF711FC0A4601467B68A3
:10410000D3F8903003F19004D4E90034CB1A62EB79
:104110000404002C08BF642B34BF01230023DBB24E
:10412000002B19D07B68B3F85230002B2DD17B685F
:104130000122A3F852207B68D3F898300121184659
:10414000FCF7F0FE7B68B3F84E3023F001039AB21F
:104150007B68A3F84E2018E07B68B3F85230012B3F
:1041600013D17B680022A3F852207B68D3F89830E3
:1041700000211846FCF7D6FE7B68B3F84E3043F0BA
:1041800001039AB27B68A3F84E207B68B3F84E30E7
:10419000002B23D07B68B3F84E207B68B3F85030F7
:1041A0009A4230D07B68B3F84E30042B08D17B683C
:1041B000D3F8A4304FF47A711846FCF791FE06E06C
:1041C0007B68D3F8A43001211846FCF7ABFE7B686E
:1041D000B3F84E207B68A3F8502014E07B68B3F856
:1041E0004E207B68B3F850309A420CD07B68B3F80D
:1041F0004E207B68A3F850207B68D3F8A4300021C0
:104200001846FCF78FFEFFF789FB0A4601467B68DC
:1042100003F16004D4E90034944208BF8B4234BFF8
:1042200001230023DBB2002B30D07B6803F1600454
:10423000D4E90034013344F100047A68C2E9183447
:104240007B68B3F84830042B20D801A252F823F041
:10425000754200086D420008654200087D42000872
:1042600085420008786800F09BFB0FE0786800F05A
:1042700097FB0BE0786801F01FFB07E0786801F01E
:104280001BFB03E0786801F017FB00BF7B68DB6A6B
:10429000002B29DD7B68D3F890007B68DB6A1BB2BA
:1042A0001A46012101F0C8FE7B68986F7B68DB6AC3
:1042B0001A460C4901F038FF7B68D3F89030002291
:1042C000A3F886207B684FF0FF32DA627B68D3F870
:1042D00090300022A3F888202BE000BFD4CA000849
:1042E000F0CA000808CB00087B68DB6AB3F1FF3F27
:1042F0001FD17B68D3F89030B3F88830012B18D1E8
:104300007B680022DA627B68D3F8903000220121BA
:10431000184601F091FE7B68D3F89030002202210C
:10432000184601F089FE7B68D3F890300022A3F88C
:104330008620FFF7F3FA0A4601467B6803F168041A
:10434000D4E90034944208BF8B4234BF01230023D8
:10435000DBB2002B12D07B6803F16804D4E900348F
:10436000323344F100047A68C2E91A347B68D3F826
:10437000903000220021184601F05EFE00BF143785
:10438000BD4690BD000000002DE9F04186B002AFAF
:1043900078607B689B6F184602F09EF80346002BFE
:1043A00014BF01230023DBB2002B1BD07B689B6F63
:1043B000184602F091F80346002B14BF0123002396
:1043C000DBB2002B0ED07B68B3F91C309BB20133FB
:1043D0009BB21AB27B689A837B689B6F184601F088
:1043E000EFFFE3E7FFF79AFA0A4601467B6803F11D
:1043F0005804D4E90034944208BF8B4234BF0123EF
:104400000023DBB2002B00F0AF827B6803F158047D
:10441000D4E90034643344F100047A68C2E9163404
:10442000FFF77CFA0A4601467B68D3F8943018CB34
:10443000CB1A62EB0404002C08BF642B34BF0123A9
:104440000023DBB2002B6DD0786801F035FB03460A
:10445000184602F091FCA4A3D3E9002302F052FF16
:104460000346002B06D07B68B3F84C30002B01D1FB
:10447000012300E00023002B1BD07B680122A3F85E
:104480004C207B68B3F91C309BB2013B9BB21AB243
:104490007B689A837B68B3F846301A467B68DA6299
:1044A0007B68B3F84630013B9AB27B68A3F846209C
:1044B00038E0786801F000FB0346184602F05CFC27
:1044C0008BA3D3E9002302F03BFF0346002B06D069
:1044D0007B68B3F84C30002B01D1012300E00023AE
:1044E000002B1BD07B680122A3F84C207B68B3F91A
:1044F0001C309BB201339BB21AB27B689A837B68F3
:10450000B3F846301A467B68DA627B68B3F8463007
:1045100001339AB27B68A3F8462003E07B6800224F
:10452000A3F84C207B68D3F8B0305B88012B0AD10C
:104530007B68D3F8B0301846FBF71EFE0346002B0D
:1045400001D1012300E00023002B08D07B68B3F9E0
:104550001C309BB201339BB21AB27B689A837B6892
:10456000D3F8B4305B88012B0AD17B68D3F8B43020
:104570001846FBF701FE0346002B01D1012300E0A2
:104580000023002B08D07B68B3F91C309BB2013BA1
:104590009BB21AB27B689A837B68986F7B68B3F88A
:1045A0004E301A46544901F0BFFD7B68B3F91C3008
:1045B000062B00F2D08101A252F823F0D945000861
:1045C000DF4500083D460008214700086D47000808
:1045D000D7470008734800087B6806229A837B68E7
:1045E0009B6F4649184601F09FFD0023FB60FB6866
:1045F0000B2B14DC7B689C6F7B68D3F89030FA68D7
:1046000092B21146184601F05DFD03461A463C4938
:10461000204601F089FDFB680133FB60E7E77B681A
:104620009C6F7B6803F58C63184601F057FB0346CB
:104630001A463449204601F077FD8FE17B689B6F75
:104640003149184601F070FD7B68D3F894305B8FD8
:10465000002B06D07B689B6F2C49184601F064FD47
:1046600005E07B689B6F2A49184601F05DFD7B6879
:10467000D3F894309B8F002B06D07B689B6F254925
:10468000184601F051FD05E07B689B6F22491846F2
:1046900001F04AFD0023BB60BB68072B14DC7B687C
:1046A0009C6F7B68D3F89430BA6892B21146184672
:1046B000FEF7FEFD03461A461149204601F034FD7F
:1046C000BB680133BB60E7E77B689C6F7B6803F5E1
:1046D00050731846FFF72CFB03461A460F49204635
:1046E00001F022FD3AE100BFCDCCCCCCCCCCECBF6C
:1046F000CDCCCCCCCCCCEC3F18CB000824CB0008E4
:1047000028CB000830CB000838CB000840CB00088D
:1047100048CB000850CB000854CB000858CB000809
:104720007B689C6F7B6803F26C43184601F0EEFADD
:104730000346184603F00AF905467B689B6A18464B
:1047400003F004F906467B681B6A8A49184602F0A2
:1047500037FF0346184603F0F9F803460093334643
:104760002A468549204601F0DFFCF7E07B689C6F14
:10477000786801F087F903467E49184602F020FF69
:104780000346184603F0E2F806467B6803F5E0733B
:104790001846FFF751FA0346184603F0D7F880464B
:1047A0007B6803F508731846FFF746FA0346184678
:1047B00003F0CCF805467B6803F520731846FFF735
:1047C000B7FA034601930095434632466B492046AB
:1047D00001F0AAFCC2E07B689C6F786801F0F2F8F7
:1047E00003466449184602F0EBFE0346184603F000
:1047F000ADF803461A466249204601F095FC7B68F5
:104800009B6F6049184601F08FFC7B689C6F7B684A
:104810001B68184603F09AF805467B6803F5387361
:104820001846FFF785FA03462A465749204601F005
:104830007BFC7B689C6F7B68D3F82C334D49184612
:1048400002F0BEFE0346184603F080F805467B687A
:10485000D3F838334749184602F0B2FE03461846EB
:1048600003F074F803462A464849204601F05CFCF0
:1048700074E07B689C6F786801F08AF803463D49D4
:10488000184602F09DFE0346184603F05FF8054601
:10489000786801F0F7F803463649184602F090FEB2
:1048A0000346184603F052F80646786801F08AF885
:1048B00003463049184602F083FE0346184603F0CB
:1048C00045F80346009333462A463149204601F015
:1048D0002BFC7B689B6F2F49184601F025FC7B68F9
:1048E0009C6F7B68DB6F5B682249184602F068FEAC
:1048F0000346184603F02AF803461A46264920467E
:1049000001F012FC7B689C6F7B68D3F880305B6899
:104910001849184602F054FE0346184603F016F8EC
:1049200003461A461C49204601F0FEFB7B689C6F3B
:104930007B68D3F888305B680E49184602F040FE69
:104940000346184603F002F803461A461249204669
:1049500001F0EAFB02E07B6801229A837B689B6F8F
:104960000E49184601F0E0FB00BF1037BD46BDE818
:10497000F08100BF0000C84264CB000890CB000863
:10498000D4CB0008ECCB0008F8CB000814CC00080E
:1049900030CC000850CC00085CCC000864CC000887
:1049A000B0B584B000AF78607B681B689C4918463E
:1049B00002F0C2FF0346002B29D07B681B6C012B41
:1049C00025D17B6802221A64FEF7A8FF4FF003028C
:1049D0004FF0000303F000F81C461346002C08BFFC
:1049E000012B0CD0002C08BF012B04D3002C08BFD6
:1049F000022B08D00BE07B683822DA6207E07B6884
:104A00002F22DA6203E07B682B22DA6200BF78682B
:104A100000F0D8FF03464FF03F41184602F06EFF0A
:104A20000346002B22D07B681B687E49184602F0A3
:104A300083FF0346002B19D0FEF770FF0A4601469C
:104A40007B6803F17004D4E90034CB1A62EB0404F0
:104A50004FF4FA714FF00002A24208BF994205D20A
:104A60007B681B6C002B01D1012300E00023002B8D
:104A700053D0FEF753FF03460C467A68C2E91C3454
:104A8000FEF74CFF4FF009024FF0000302F0A4FFC5
:104A90001C461346003344F10004002C08BF092BC8
:104AA00068D2082B66D801A252F823F0D14A000838
:104AB000D94A0008E14A0008E94A0008F14A00081A
:104AC000F94A0008014B0008094B0008114B000887
:104AD0007B684822DA624DE07B686322DA6249E053
:104AE0007B686422DA6245E07B686622DA6241E034
:104AF0007B686C22DA623DE07B686A22DA6239E028
:104B00007B686B22DA6235E07B686E22DA6231E024
:104B10007B686F22DA6200BF2CE07B681B6840492B
:104B2000184602F009FF0346002B19D0FEF7F6FEE7
:104B30000A4601467B6803F17004D4E90034CB1ABD
:104B400062EB040440F2F3114FF00002A24208BFEE
:104B5000994205D37B681B6C002B01D1012300E037
:104B60000023002B06D0FEF7D9FE03460C467A68D8
:104B7000C2E91C34786800F025FF04467B6803F521
:104B800050731846FFF758F803461946204602F0BE
:104B90000DFC0346FB607B681B682349184602F046
:104BA000ADFE0346002B41D0F86802F0E5F81AA3E9
:104BB000D3E9002302F0C4FB0346002B36D07B6808
:104BC00003F538747B681B681946174802F0EEFB42
:104BD000034619462046FEF7D5FF7B68D3F8804090
:104BE0007B6803F538731846FFF726F80346194625
:104BF0002046FEF7E5FB7B68D3F884407B6803F52D
:104C000038731846FFF718F8034619462046FEF792
:104C1000D7FB58E0AFF300809A9999999999B93FD9
:104C20000000F041000070410000C8C27B681B68B2
:104C30006949184602F080FE0346002B35D0F8681B
:104C400002F09AF862A3D3E9002302F05BFB03466B
:104C5000002B2AD07B6803F538747B681B681946E3
:104C60005D4802F0A3FB034619462046FEF78AFF83
:104C70007B68D3F880407B6803F538731846FEF7ED
:104C8000DBFF034619462046FEF79AFB7B68D3F804
:104C900084407B6803F538731846FEF7CDFF034662
:104CA00019462046FEF78CFB0DE07B68D3F8803078
:104CB000F9681846FEF784FB7B68D3F88430F968FE
:104CC0001846FEF77DFB7B68B3F84830012B27D1EF
:104CD0007B68DC6F786800F05BFE0546786800F062
:104CE000D1FE03461946284602F062FB03461946E8
:104CF0002046FEF765FB7B68D3F88840786800F0B3
:104D0000C1FE0546786800F043FE03461946284672
:104D100002F04CFB034619462046FEF751FB53E0D8
:104D20007B6803F50874786800F0ACFE034619460A
:104D30002046FEF727FF7B6803F520747B6803F5A8
:104D4000E0731846FEF778FF05467B6803F50873A5
:104D50001846FEF771FF03461946284602F026FB67
:104D6000034619462046FEF70DFF7B68DC6F786826
:104D700000F00EFE05467B6803F520731846FEF72B
:104D80005BFF03461946284602F010FB034619460E
:104D90002046FEF715FB7B68D3F88840786800F062
:104DA000F7FD034683F000457B6803F52073184642
:104DB000FEF742FF03461946284602F0F7FA03467B
:104DC00019462046FEF7FCFA1037BD46B0BD00BFBD
:104DD0009A9999999999B9BF0000DC4290B585B02C
:104DE00000AF78607B6803F5E0747B68D3F890309F
:104DF0000221184601F066F90346184602F08CFBC2
:104E0000034683F00043A149184602F08DFC034697
:104E100019462046FEF7B6FE7B68D3F89030012194
:104E2000184601F04FF90346002BB8BF5B42642BD4
:104E3000CCBF01230023DBB2002B17D07B6803F526
:104E400050747B68D3F890300121184601F03AF98C
:104E50000346184602F060FB03468C49184602F0F0
:104E600063FC034619462046FEF78CFE7B68D3F8A8
:104E70007434B3F5FA7F1CDD7B6803F26C4318468B
:104E8000FBF7EAFEF8607B6803F26C431846FBF719
:104E9000CFFE7B680A22C3F874247B6803F26C445B
:104EA0007B49F86802F08CFB034619462046FBF765
:104EB000F9FE7B6803F26C447B68D3F890300321E1
:104EC000184601F0FFF80346184602F025FB02469B
:104ED0007B681B6A1946104602F072FB03461946AE
:104EE0002046FBF7DFFE7B6803F58C647B68D3F814
:104EF00090300A21184601F0E5F80346654A82FB26
:104F000003129210DB17D31A1BB21946204600F089
:104F10001BFF7B68D3F86834322B40F3B2807B6888
:104F200003F58C63184600F0D9FE034613F5FA7FAB
:104F3000B4BF01230023DBB2002B55D07B681B6C70
:104F4000002B40F09880FEF7E9FC4FF009024FF08B
:104F5000000302F041FD1C461346003344F10004F7
:104F6000002C08BF092B3BD2082B39D801A252F8DC
:104F700023F000BF994F0008A14F0008A94F000877
:104F8000B14F0008B94F0008C14F0008C94F0008D1
:104F9000D14F0008D94F00087B683A22DA621FE03F
:104FA0007B683122DA621BE07B683622DA6217E026
:104FB0007B685E22DA6213E07B686022DA620FE0CF
:104FC0007B686222DA620BE07B686522DA6207E0C6
:104FD0007B686D22DA6203E07B687022DA6200BFD0
:104FE0007B6801221A6446E07B6803F58C631846EF
:104FF00000F074FE034613F1630F05DB7B681B6C46
:10500000002B01D0012300E00023002B33D0FEF75A
:1050100085FC0A4601464FF003034FF0000403EA03
:10502000010304EA0204003344F10004002C08BF29
:10503000042B1DD2032B1BD801A252F823F000BF72
:10504000515000085950000861500008695000088C
:105050007B686722DA620BE07B684C22DA6207E049
:105060007B684622DA6203E07B682E22DA6200BFA8
:105070007B6800221A647B6803F58C63184600F095
:1050800079FE00BF1437BD4690BD00BF0020194710
:10509000000020416766666690B585B000AF786015
:1050A0007B685C687B681B69184602F035FA03462A
:1050B0001946204602F038FB03464FF08A41184655
:1050C00002F074F903464FF08B41184602F02CFBB6
:1050D0000346FB607B681A697B685B691A447B68DE
:1050E0009A617B6800221A617B684FF000025A6067
:1050F0007B6800225A617B684FF000029A60FB686F
:1051000083F000439C49184602F05AFA03461A46B7
:105110007B681A60FEF702FC0A4601467B68D3F8FA
:10512000903003F19004D4E90034CB1A62EB04040C
:10513000002C08BF642B34BF01230023DBB2002BFB
:1051400000F0DD807B6803F26C43184600F0DEFD62
:105150007B689B6A01221446194602F0EDFB034668
:10516000002B01D100231C46E3B2002B00F08D8000
:105170007B68824A9A627B68B3F84E3023F004035E
:105180009AB27B68A3F84E200021786800F0AEFC4C
:10519000024601231C464FF00001104602F0AEFB10
:1051A0000346002B01D100231C46E3B2002B16D08E
:1051B0007B68B3F84830022B00F0B3807B68022292
:1051C000A3F848207B681222DA62786800F09EFB20
:1051D0007B689B6F6A49184600F0A6FFA1E000219A
:1051E000786800F083FC024601231C464FF07C5196
:1051F000104602F083FB0346002B01D100231C461E
:10520000E3B2002B2ED07B68B3F84830012B00F0BE
:1052100088807B680122A3F848200321786800F089
:1052200065FC024601231C464FF00001104602F0C7
:1052300083FB0346002B01D100231C46E3B2002B65
:1052400003D07B681822DA6202E07B682322DA62EC
:10525000786800F05BFB7B689B6F4A49184600F05A
:1052600063FF5EE07B68B3F84830002B59D07B6861
:105270000022A3F84820786800F01EFB7B689B6F33
:105280004149184600F050FF4BE07B68B3F84830C6
:10529000002B46D07B680022A3F8482003217868C1
:1052A00000F024FC024601231C464FF0000110468A
:1052B00002F042FB0346002B01D100231C46E3B25F
:1052C000002B03D07B681522DA6202E07B6849225A
:1052D000DA62786800F0F0FA7B689B6F2B49184619
:1052E00000F022FF7B68B3F84E3043F004039AB21B
:1052F0007B68A3F84E207B68254A9A6211E07B68A0
:10530000B3F84830042B0CD07B680422A3F8482063
:10531000786800F0D1FA7B689B6F1E49184600F050
:1053200003FF7B68DC6B0321786800F0DFFB03463A
:10533000184602F00BFB03469C4214BF01230023D6
:10534000DBB2002B3DD00321786800F0CFFB024692
:1053500001231C464FF00001104602F0EDFA03460F
:10536000002B01D100231C46E3B2002B14D07B6834
:105370002422DA6213E000BF0000874300C00F461A
:1053800068CC00087CCC000890CC0008A4CC0008B5
:1053900000601F46CCCC00087B682322DA627B6861
:1053A000DB6B022B02D17B680022DA620321786872
:1053B00000F09CFB0346184602F0C8FA02467B68E0
:1053C000DA637B689C6B0221786800F08FFB0346F0
:1053D000184602F0BBFA03469C4214BF0123002387
:1053E000DBB2002B00F0BD800221786800F07EFB6C
:1053F0000346184601F0C0FC01231C465CA3D3E918
:10540000002301F09DFF0346002B01D100231C4621
:10541000E3B2002B29D07B68D3F88830584918466E
:10542000FDF7BCFF7B68DB6F55491846FDF7B6FFFB
:10543000FEF774FA0A4601464FF001034FF00004EC
:1054400003EA010304EA020453EA040204D0002C34
:1054500008BF012B04D072E07B680E22DA626EE096
:105460007B680522DA6200BF69E00221786800F0FB
:105470003DFB0346184601F07FFC01231C463EA37A
:10548000D3E9002301F05CFF0346002B01D1002388
:105490001C46E3B2002B29D07B68D3F88830394909
:1054A0001846FDF77BFF7B68DB6F36491846FDF732
:1054B00075FFFEF733FA0A4601464FF001034FF03D
:1054C000000403EA010304EA020453EA040204D0DC
:1054D000002C08BF012B04D031E07B682322DA6264
:1054E0002DE07B681522DA6200BF28E07B68D3F8E4
:1054F000883025491846FDF751FF7B68DB6F22494C
:105500001846FDF74BFFFEF709FA0A4601464FF031
:1055100001034FF0000403EA010304EA020453EA22
:10552000040204D0002C08BF012B04D007E07B68E4
:105530004122DA6203E07B680F22DA6200BF7B68F7
:105540009B6B022B02D17B680022DA620221786811
:1055500000F0CCFA0346184602F0F8F902467B68E0
:105560009A6300BF1437BD4690BD00BFAFF3008003
:105570009A9999999999B93F9A9999999999B9BF8D
:105580003333733F3333333FCDCCCC3E90B583B010
:1055900000AF78607B68D3F8B8301846FEF738F86B
:1055A0000346002B14BF01230023DBB2002B21D0C4
:1055B0007B68D3F8B8301846FEF744F803461A461D
:1055C0007B685C681346184601F0A6FF034619463F
:1055D000204601F0EDFE03461A467B685A607B6860
:1055E0001B695A1C7B681A617B68D3F8B83018466F
:1055F000FDF7B4FF7B68D3F8BC301846FEF708F817
:105600000346002B14BF01230023DBB2002B21D063
:105610007B68D3F8BC301846FEF714F803461A46E8
:105620007B689C681346184601F076FF03461946CE
:10563000204601F0BDFE03461A467B689A607B68EF
:105640005B695A1C7B685A617B68D3F8BC3018468A
:10565000FDF784FF00BF0C37BD4690BD90B585B007
:1056600000AFF860B9607A603B60FB68BA689A671F
:10567000FB687A68C3F89420FB683A68C3F8902006
:10568000FB683A6ADA67FB687A6AC3F88020FB68CD
:10569000BA6AC3F88420FB68FA6AC3F88820FB68FA
:1056A0003A6BC3F88C20FB68D3F880305649184613
:1056B000FDF774FEFB68D3F8883053491846FDF7B0
:1056C0006DFEFB68DB6F50491846FDF767FEFB680F
:1056D0000022A3F84A20FB684C4A9A62FB68012228
:1056E0009A83FB680022DA62FB680022A3F8462056
:1056F000FB680122A3F84420FB6800221A64FB68BF
:105700004FF000025A62FB680022A3F85220FEF715
:1057100005F903460C46FA68C2E91A34FEF7FEF8AA
:1057200003460C46FA68C2E91634FB680322A3F864
:105730004820FB680022A3F84E20FB6803F5687040
:105740004FF000034FF000023149FEF769F9FB68A2
:1057500003F550704FF000034FF000024FF07E5100
:10576000FEF75EF9FB6803F5E0704FF000034FF0C1
:1057700000024FF07C51FEF753F9FB6803F5087007
:105780004FF000034FF000024FF07E51FEF748F952
:10579000FB6803F520704FF000034FF000024FF05C
:1057A0007E51FEF73DF9FB6803F520734FF07E5202
:1057B00018491846FEF782F9FB6803F53870164B56
:1057C0004FF000024FF00001FEF72AF9FB6803F5E5
:1057D00080604FF000034FF07E524FF00001FEF763
:1057E0001FF9FB6803F580630C4A4FF0000118466F
:1057F000FEF790F9FB680222DA63FB6802229A63E3
:1058000000BF1437BD4690BD6666663F00C00F46B8
:105810000AD7233C000080BF000020C10000C8421E
:1058200080B485B000AFF860B9607A603B60FB6817
:10583000BA68C3F8B020FB687A68C3F8B420FB6884
:105840003A68C3F89820FB68BA69C3F89C20FB68E3
:10585000FA69C3F8A020FB683A6AC3F8A420FB6881
:105860007A6AC3F8A820FB68BA6AC3F8AC2000BF04
:105870001437BD4680BC704780B485B000AFF86077
:10588000B9607A603B60FB68BA68C3F8B820FB680F
:105890007A68C3F8BC20FB683A68C3F8C020FB688C
:1058A000BA69C3F8C420FB68FA691A6200BF1437EA
:1058B000BD4680BC704700BF80B584B000AF786043
:1058C0007B68D3F88C3000211846FCF78FFE7B688C
:1058D000D3F8A03000211846FBF724FB0023FB601F
:1058E000FB68032B0EDC7A68FB681E339B001344B5
:1058F0005B684FF000011846FDF762FDFB6801335D
:10590000FB60EDE700BF1037BD4680BD80B584B0B9
:1059100000AF78607B68D3F88C3001211846FCF723
:1059200065FE7B68D3F8A03001211846FBF7FAFA30
:105930000023FB60FB68032B0EDC7A68FB681E33D8
:105940009B0013445B684FF000011846FDF738FDDB
:10595000FB680133FB60EDE77B6803F520731846B5
:10596000FEF7C2F87B6803F508731846FEF7BCF82B
:105970007B6803F5E0731846FEF7B6F87B6803F51D
:1059800038731846FEF7B0F800BF1037BD4680BD2B
:1059900080B582B000AF78604FF4806201217868F2
:1059A00000F05CF90346184601F0B6FD03460449D1
:1059B000184601F0B9FE034618460837BD4680BDBB
:1059C0000000204480B582B000AF78607B68D3F8D7
:1059D000943002211846FDF76BFC03461A4640F24C
:1059E00021339A4294BF01230023DBB2002B10D055
:1059F00040F249220221786800F030F90346184647
:105A000001F08AFD03461E49184601F08DFE03464B
:105A100032E07B68D3F8943002211846FDF748FC49
:105A200003461A4640F2D9439A4294BF0123002309
:105A3000DBB2002B10D04FF480620221786800F0B6
:105A40000DF90346184601F067FD03460C49184658
:105A500001F06AFE03460FE04FF4B7620221786856
:105A600000F0FCF80346184601F056FD03460449D1
:105A7000184601F059FE034618460837BD4680BD5A
:105A80000000554380B582B000AF78604FF480626B
:105A90000321786800F0E2F80346184601F03CFD67
:105AA00003460449184601F03FFE034618460837EE
:105AB000BD4680BD0000204480B582B000AF786054
:105AC0004FF480620021786800F0C8F80346184659
:105AD00001F022FD03460449184601F025FE034665
