:020000040800F2
:1000000010140020551F0008B51F0008B51F000878
:10001000B51F0008B51F0008B51F0008000000004C
:10002000000000000000000000000000B51F0008F4
:10003000B51F000800000000B51F00089D3600082D
:10004000B51F0008B51F0008B51F0008B51F000840
:10005000B51F0008B51F0008B51F0008B51F000830
:10006000B51F0008B51F0008B51F0008B51F000820
:10007000B51F0008B51F0008B51F0008B51F000810
:10008000B51F0008B51F0008B51F0008B51F000800
:1000900091310008B51F0008B51F0008B51F000802
:1000A000B51F0008891C0008B51F0008B51F00080F
:1000B000C91C00081D1D00086D1D0008B51F0008A3
:1000C000B51F0008B51F0008B51F0008850500080A
:1000D000B51F0008454B00082D4C0008154D0008C1
:1000E000B51F0008B51F0008B51F0008000000007C
:1000F0000000000000000000000000000000000000
:1001000000000000000000005FF808F190B583B027
:1001100000AF786039607B683A689A617B689B6958
:10012000184603F00DFE03461A467B681A807A686B
:100130004FF00A034FF00004C2E904347B68002248
:100140005A80064BB3F900309BB201339BB21AB20E
:10015000024B1A8000BF0C37BD4690BD6A0D0020CF
:1001600080B483B000AF78607B6800225A807B68DF
:100170001B8818460C37BD4680BC704790B585B0CB
:1001800000AF78607B689B69184603F0D9FD034691
:10019000FB817B681B88FA899A4224D003F06EFAAF
:1001A0000A4601467B6803F10804D4E90034CB1AFF
:1001B00062EB04047A68D2E90412A24208BF9942B1
:1001C00034BF01230023DBB2002B05D07B68012262
:1001D0005A807B68FA891A8003F050FA03460C466D
:1001E0007A68C2E90234064BB3F900309BB2013B96
:1001F0009BB21AB2024B1A8000BF1437BD4690BDA5
:10020000680D002080B586B002AFF860B9607A60F2
:100210007B80FB68BA68DA61FB687A68DA637B889E
:1002200003F500739AB2FB689A80FB68D86BFB6891
:100230009988002300930023002203F0B7FAFB689B
:100240000022DA80FB6801221A83084BB3F90030E0
:100250009BB201339BB21AB2044B1A80F86800F0CB
:1002600023F800BF1037BD4680BD00BF6A0D0020D7
:1002700080B483B000AF786039607B681B8B072B3C
:1002800007D87B681B8B7A6806339B0013443A6857
:100290005A607B681B8B01339AB27B681A8300BF5C
:1002A0000C37BD4680BC704790B585B000AF786014
:1002B0007B6800221A707B6800225A700023FB6062
:1002C0007B681B8B1A46FB689A422EDD7B681B7885
:1002D0005AB27968FB6806339B000B445B685B8805
:1002E0001946FB6801FA03F35BB213435BB2DAB25F
:1002F0007B681A707A68FB6806339B0013445B685E
:100300001846FFF72DFF03461A46FB6802FA03F171
:100310007B685B785AB24BB213435BB2DAB27B684C
:100320005A70FB680133FB60CAE77B681B78002BBF
:1003300014D07B689B68002B10D07B68D86B7B68DF
:100340009B88403399B27B68022203F015FA03F0D0
:1003500095F903460C467A68C2E9043403F08EF935
:100360000A4601467B6803F11004D4E90034CB1A35
:1003700062EB04047A68926811464FF00002A242D0
:1003800008BF994205D27B689B68002B01D00123EE
:1003900000E00023002B10D07B68D86B7B689B8823
:1003A000403399B27B68022203F0E6F903F066F964
:1003B00003460C467A68C2E90434064BB3F90030B0
:1003C0009BB2013B9BB21AB2024B1A8000BF14379A
:1003D000BD4690BD680D002090B583B000AF786039
:1003E0007B68DB6B5B687A68928893421CD17B6880
:1003F000DB6BDB7B012B17D17B68DB8801339AB287
:100400007B68DA807B68DB6B5B7C1B027A68D26B73
:10041000127C13441A467B689A6003F02FF9034656
:100420000C467A68C2E9043400BF0C37BD4690BD63
:1004300080B586B002AFF860B9607A607B80FB68F7
:100440007A681A61FB68BA685A607B8803F5806332
:100450009AB2FB689A81FB681869FB689989002346
:1004600000930023002203F0A1F9074BB3F90030F9
:100470009BB201339BB21AB2034B1A800023184679
:100480001037BD4680BD00BF6A0D0020B0B584B0F6
:1004900000AF78607B681B68002B32D07B689B685C
:1004A0001C464FF0000503F0E9F802460B46AB424C
:1004B00008BFA2422CBF01230023DBB2002B20D0B7
:1004C00003F0DCF803460C461A467B681B681A44A6
:1004D0007B689A607B685B68184600F0EFFF024615
:1004E00007F108031146184600F0E6FC7B6818691E
:1004F0007B689B89403399B207F10803042203F01B
:100500003BF9064BB3F900309BB2013B9BB21AB2E8
:10051000024B1A8000BF1037BD46B0BD680D0020E9
:1005200090B583B000AF78607B681B695B687A68C0
:100530009289934222D17B681B69DB7B002B05D11A
:100540007B685B68184601F001F817E07B681B695F
:10055000DB7B012B12D17B681B695B7C1B027A68F9
:100560001269127C13441A467B681A6003F086F8FD
:1005700003460C461A467B689A6000BF00BF0C37E2
:10058000BD4690BD80B500AF7121114803F01CFF3E
:100590000346002B14BF01230023DBB2002B04D041
:1005A00002210B4803F04AFF0FE06021084803F0E6
:1005B0000BFF0346002B14BF01230023DBB2002BEB
:1005C00003D00121024803F039FF00BF80BD00BF06
:1005D0000030014080B485B000AF786039600023FE
:1005E000FB817B681B88FB817B682E4A934213D07A
:1005F0007B682D4A93420FD07B68B3F1804F0BD0BC
:100600007B682A4A934207D07B68294A934203D0E9
:100610007B68284A934208D1FB8923F07003FB8151
:100620003B685A88FB891343FB817B68224A9342CB
:100630000CD07B68214A934208D0FB8923F4407395
:10064000FB813B68DA88FB891343FB817B68FA896D
:100650001A803B689A887B689A853B681A887B6811
:100660001A857B680F4A93420FD07B680E4A9342EB
:100670000BD07B68124A934207D07B68114A9342A1
:1006800003D07B68104A934204D13B681B7A9AB22C
:100690007B681A867B6801229A8200BF1437BD46A8
:1006A00080BC7047002C0140003401400004004031
:1006B00000080040000C0040001000400014004002
:1006C00000400140004401400048014080B485B032
:1006D00000AF7860396000237B810023FB81002319
:1006E000BB817B681B8C9BB223F001039AB27B68B1
:1006F0001A847B681B8CFB817B689B88BB817B6831
:100700001B8B7B817B8923F070037B817B8923F0AA
:1007100003037B813B681A887B8913437B81FB89B8
:1007200023F00203FB813B681A89FB891343FB8199
:100730003B685A88FB891343FB817B68244A9342B8
:100740000FD07B68234A93420BD07B68224A9342A6
:1007500007D07B68214A934203D07B68204A9342AA
:1007600023D1FB8923F00803FB813B685A89FB896D
:100770001343FB81FB8923F00403FB813B689A88C8
:10078000FB891343FB81BB8923F48073BB81BB8945
:1007900023F40073BB813B689A89BB891343BB81F7
:1007A0003B68DA89BB891343BB817B68BA899A802D
:1007B0007B687A891A833B68DA887B689A867B68CB
:1007C000FA891A8400BF1437BD4680BC704700BF49
:1007D000002C014000340140004001400044014031
:1007E0000048014080B485B000AF786039600023D4
:1007F0007B810023FB810023BB817B681B8C9BB228
:1008000023F010039AB27B681A847B681B8CFB81EF
:100810007B689B88BB817B681B8B7B817B8923F4F6
:10082000E0437B817B8923F440737B813B681B8899
:100830001B029AB27B8913437B81FB8923F020033F
:10084000FB813B681B891B019AB2FB891343FB8127
:100850003B685B881B019AB2FB891343FB817B6871
:10086000224A934203D07B68214A93422BD1FB89D1
:1008700023F08003FB813B685B891B019AB2FB89F3
:100880001343FB81FB8923F04003FB813B689B887A
:100890001B019AB2FB891343FB81BB8923F480635C
:1008A000BB81BB8923F40063BB813B689B899B00B0
:1008B0009AB2BB891343BB813B68DB899B009AB228
:1008C000BB891343BB817B68BA899A807B687A892C
:1008D0001A833B68DA887B681A877B68FA891A84EE
:1008E00000BF1437BD4680BC704700BF002C0140DC
:1008F0000034014080B485B000AF786039600023D7
:100900007B810023FB810023BB817B681B8C9BB216
:1009100023F480739AB27B681A847B681B8CFB81FA
:100920007B689B88BB817B689B8B7B817B8923F069
:1009300070037B817B8923F003037B813B681A88EA
:100940007B8913437B81FB8923F40073FB813B6824
:100950001B891B029AB2FB891343FB813B685B88AE
:100960001B029AB2FB891343FB817B68224A9342A4
:1009700003D07B68214A93422BD1FB8923F4006387
:10098000FB813B685B891B029AB2FB891343FB81A5
:10099000FB8923F48063FB813B689B881B029AB22E
:1009A000FB891343FB81BB8923F48053BB81BB8943
:1009B00023F40053BB813B689B891B019AB2BB891E
:1009C0001343BB813B68DB891B019AB2BB8913438C
:1009D000BB817B68BA899A807B687A899A833B68F5
:1009E000DA887B689A877B68FA891A8400BF143793
:1009F000BD4680BC704700BF002C01400034014060
:100A000080B485B000AF786039600023BB810023DB
:100A10007B810023FB817B681B8C9BB223F480537A
:100A20009AB27B681A847B681B8C7B817B689B886D
:100A3000FB817B689B8BBB81BB8923F4E043BB813B
:100A4000BB8923F44073BB813B681B881B029AB2AD
:100A5000BB891343BB817B8923F400537B813B68B3
:100A60001B891B039AB27B8913437B813B685B889C
:100A70001B039AB27B8913437B817B68124A9342A2
:100A800003D07B68114A93420AD1FB8923F4804347
:100A9000FB813B689B899B019AB2FB891343FB81D5
:100AA0007B68FA899A807B68BA899A833B68DA887E
:100AB0007B68A3F840207B687A891A8400BF1437CA
:100AC000BD4680BC704700BF002C0140003401408F
:100AD00080B483B000AF786039603B681A883B68A7
:100AE0005B8813439AB23B689B8813439AB23B6876
:100AF000DB8813439AB23B681B8913439AB23B6865
:100B00005B8913439AB23B689B8913439AB27B6813
:100B1000A3F8442000BF0C37BD4680BC704700BF1F
:100B200080B483B000AF78607B684FF6FF729A8024
:100B30007B6800221A807B680022DA807B680022B2
:100B40005A807B6800221A7200BF0C37BD4680BCF9
:100B5000704700BF80B483B000AF78607B6800222C
:100B60001A807B6800225A807B6800229A807B680A
:100B70000022DA807B6800221A817B6800225A8179
:100B80007B6800229A817B680022DA8100BF0C37E3
:100B9000BD4680BC704700BF80B483B000AF7860B2
:100BA0007B6800221A807B6800225A807B680022C2
:100BB0009A807B680022DA807B6800221A817B6839
:100BC00000225A817B6800229A8100BF0C37BD4603
:100BD00080BC704780B483B000AF78600B46FB7078
:100BE000FB78002B08D07B681B889BB243F0010385
:100BF0009AB27B681A8007E07B681B889BB223F05F
:100C000001039AB27B681A8000BF0C37BD4680BCD6
:100C1000704700BF80B483B000AF78600B467B8024
:100C200013467B707B78002B08D07B689B899AB237
:100C30007B8813439AB27B689A8109E07B689B8921
:100C40009AB27B88DB439BB213409AB27B689A814D
:100C500000BF0C37BD4680BC704700BF80B487B072
:100C600000AFF860084611461A4603467B810B46E2
:100C70003B811346FB800023FB820023BB820023C1
:100C80007B82FB681B89FB82FB681B8BBB82FB683A
:100C90001B8C7B82FB8A23F00703FB82FA8A7B8909
:100CA0001343FB82BB8A23F4407323F00303BB820C
:100CB000BB8A43F4807343F00103BB827B8A23F039
:100CC00022037B82FB881B019AB23B8913439AB2B1
:100CD0007B8A13437B82FB68FA8A1A81FB68BA8A93
:100CE0001A83FB687A8A1A8400BF1C37BD4680BC11
:100CF000704700BF80B483B000AF78600B46FB70D4
:100D0000FB78002B08D07B681B889BB243F08003E4
:100D10009AB27B681A8007E07B681B889BB223F03D
:100D200080039AB27B681A8000BF0C37BD4680BC36
:100D3000704700BF80B485B000AF78600B467B8001
:100D40000023FB730023BB8100237B817B681B8A0C
:100D50009AB27B881340BB817B689B899AB27B885F
:100D600013407B81BB89002B05D07B89002B02D0EF
:100D70000123FB7301E00023FB73FB7B1846143750
:100D8000BD4680BC704700BF80B483B000AF7860C0
:100D90000B467B807B88DB439AB27B681A8200BF5C
:100DA0000C37BD4680BC704790B589B002AFF86083
:100DB000B9603B601346FB80FB68BA681A61FB8828
:100DC00003F510739AB2FB681A8001233B753B68E8
:100DD000DBB27B753B681B0ADBB2BB75FB6818692D
:100DE000FB8803F5007399B207F11403032202F0A4
:100DF000C3FCFB681869FB68198800230093002373
:100E0000002202F0D3FC012002F0F6FBFB68002276
:100E10009A80FB6800225A80FA684FF000034FF076
:100E20000004C2E9023400BF1C37BD4690BD00BFBC
:100E300080B483B000AF78607B685B8818460C375D
:100E4000BD4680BC704700BF90B583B000AF7860EE
:100E50007B681B695B687A681288934212D17B6851
:100E60001B69DB7B9AB27B689A807B681B691B7C61
:100E70009AB27B685A8002F001FC03460C467A68FD
:100E8000C2E9023400BF0C37BD4690BD80B485B0C6
:100E900000AF78607B681B783B737B685B787B7303
:100EA0007B689B78BB737B68DB78FB73FB681846B9
:100EB0001437BD4680BC704780B485B000AF786001
:100EC00039603B68FB603A7B7B681A707B68013352
:100ED0007A7B1A707B680233BA7B1A707B680333A3
:100EE000FA7B1A7000BF1437BD4680BC704700BF44
:100EF00080B500AF154A154B1B6843F00103136022
:100F00001249124B5A68124B13404B600F4A0F4B59
:100F10001B6823F0847323F4803313600B4A0B4B5C
:100F20001B6823F480231360084A084B5B6823F492
:100F3000FE035360054B4FF41F029A6000F00CF85B
:100F4000044B4FF000629A6000BF80BD0010024069
:100F50000000FFF800ED00E080B500AF00F002F8FF
:100F600000BF80BD80B483B000AF00237B6000234E
:100F70003B603A4A394B1B6843F480331360374B6C
:100F80001B6803F400333B607B6801337B603B6884
:100F9000002B03D17B68B3F5A06FF0D12F4B1B68FA
:100FA00003F40033002B02D001233B6001E0002357
:100FB0003B603B68012B4BD1294A294B1B6843F00E
:100FC00010031360264A264B1B6823F003031360AB
:100FD000234A234B1B6843F0020313601F4A1F4B35
:100FE0005B6853601D4A1D4B5B6853601B4A1B4B7B
:100FF0005B6843F480635360184A184B5B6823F4C2
:101000007C135360154A154B5B6843F4E813536037
:10101000124A124B1B6843F08073136000BF0F4BE2
:101020001B6803F00073002BF9D00C4A0B4B5B6874
:1010300023F003035360094A084B5B6843F0020343
:10104000536000BF054B5B6803F00C03082BF9D11C
:1010500000BF0C37BD4680BC704700BF0010024087
:101060000020024080B485B000AFF860B96013463C
:10107000FB80FB68BA689A60FB8803F580739AB2BC
:10108000FB681A80FB8803F590739AB2FB685A805C
:1010900000BF1437BD4680BC704700BF80B584B028
:1010A00000AF786000233B7300237B737B689868F4
:1010B0007B68598807F10C03022202F05DFB00BF38
:1010C0001037BD4680BD00BF80B584B000AF7860EA
:1010D00039601F49386804F0B1FB0346184604F034
:1010E000FDFC03461AB27B689A8000233B73002301
:1010F0007B737B68B3F90430002B0ADA80237B739F
:101100007B68B3F904309BB25B429BB21AB27B6836
:101110009A807B68B3F90430DBB23B737A7B7B68DF
:10112000B3F904301B12DBB203F07F03DBB21344CC
:10113000DBB27B737B6898687B68198807F10C03C6
:10114000022202F019FB00BF1037BD4680BD00BF70
:1011500000FEFF4680B584B000AFF860B9603B6028
:101160001346FB803B8B1A463968F86800F094F907
:10117000FB68FA889A81FB68BA689A60FB68BA8B48
:101180009A80FB683A8CDA80FB68BA8CDA81FB685B
:101190009B68404A93420BD13F4B01221A60FB6887
:1011A0009A88FB68DB881946104600F017FA31E090
:1011B000FB689B68B3F1804F0BD1384B01221A605A
:1011C000FB689A88FB68DB881946104600F048FAED
:1011D00020E0FB689B68324A93420BD1314B0122DD
:1011E0001A60FB689A88FB68DB881946104600F095
:1011F0005BFA0FE0FB689B682B4A934243D12B4B71
:1012000001221A60FB689A88FB68DB881946104641
:1012100000F070FAFB689B89013B032B35D801A2D3
:1012200052F823F03512000847120008591200083E
:101230006B120008FB689A68FB68DB891946104648
:1012400000F07EFA1AE0FB689A68FB68DB891946B1
:10125000104600F09BFA11E0FB689A68FB68DB8996
:101260001946104600F0B8FA08E0FB689A68FB6877
:10127000DB891946104600F0D5FA00BF0021F86856
:1012800000F016F802E000BF00E000BF1037BD46D6
:1012900080BD00BF002C0140D8090020DC090020DF
:1012A00000040040E009002000080040E40900209C
:1012B00080B582B000AF78600B467B807B689B680E
:1012C000384A934205D1384B1B68012B22D00123A9
:1012D00063E07B689B68B3F1804F05D1334B1B689B
:1012E000012B17D0012358E07B689B68304A93425A
:1012F00005D1304B1B68012B0CD001234DE07B68DE
:101300009B682D4A934205D12C4B1B68012B01D0C1
:10131000012342E07B689B887A889A4202D97B68E5
:101320009B887B807B687A885A807B689B89013B9D
:10133000032B2FD801A252F823F000BF4D13000851
:101340005F13000871130008831300087B689A6814
:101350007B685B881946104600F08AFA1CE07B68BF
:101360009A687B685B881946104600F08FFA13E094
:101370007B689A687B685B881946104600F094FA8F
:101380000AE07B689A687B685B881946104600F023
:1013900099FA01E0012300E0002318460837BD4612
:1013A00080BD00BF002C0140D8090020DC090020CE
:1013B00000040040E009002000080040E40900208B
:1013C00080B586B002AFF860B9607A607B807A88B9
:1013D000BB8B0093BB697968F86800F043F8FB6841
:1013E000BA689A60FB6801221A70FB689B68164A0B
:1013F000934205D1154B02221A6000F073FA1FE0E8
:10140000FB689B68B3F1804F05D1114B02221A6033
:1014100000F092FA14E0FB689B680E4A934205D1F3
:101420000D4B02221A6000F0B1FA09E0FB689B68DC
:101430000A4A934204D10A4B02221A6000F0CEFA03
:1014400000BF1037BD4680BD002C0140D8090020E8
:10145000DC09002000040040E009002000080040F2
:10146000E409002080B58AB000AFF860B9603B6045
:101470001346FB80FA8807F11C004823B96802F084
:1014800001FC3A8E07F110004823396802F0FAFB9C
:1014900000BF2837BD4680BD80B588B000AFF8607A
:1014A000B9601346FB80FA8807F114001823B96865
:1014B00002F0E8FB00BF2037BD4680BD80B582B09A
:1014C00000AF78607B689B681D4A934208D100F0AA
:1014D000ADFA02467B6893F9003003FB02F32BE080
:1014E0007B689B68B3F1804F08D100F0B1FA0246E7
:1014F0007B6893F9003003FB02F31DE07B689B6877
:10150000104A934208D100F0B5FA02467B6893F97D
:10151000003003FB02F30FE07B689B680A4A9342AA
:1015200008D100F0B9FA02467B6893F9003003FB5A
:1015300002F301E04FF0FF3318460837BD4680BD87
:10154000002C0140000400400008004080B483B03B
:1015500000AF78607B689B68194A934206D1194BAB
:1015600000221A60164B00229A8423E07B689B6855
:10157000B3F1804F07D1144B00221A604FF0804323
:1015800000229A8416E07B689B68104A934206D139
:101590000F4B00221A600D4B00229A840AE07B68F0
:1015A0009B680C4A934205D10B4B00221A60094BF1
:1015B00000229A8400BF0C37BD4680BC704700BF34
:1015C000002C0140E8090020EC0900200004004044
:1015D000F009002000080040F409002080B58AB01E
:1015E00000AF03460A46FB801346BB8001214FF43F
:1015F000006002F0EDFA0121012002F0E9FA07F1A2
:101600001C031846FFF78CFAFB883B84BB88BB831E
:101610000023FB83002387F8243007F11C031946BD
:101620000E48FEF7D7FF07F10C031846FFF7B4FA90
:101630004FF480433B8307F10C0319460748FFF73B
:1016400047FA01210548FFF755FB01210348FFF741
:10165000C1FA00BF2837BD4680BD00BF002C014045
:1016600080B586B000AF03460A46FB801346BB80B8
:101670000121012002F0CAFA0121012002F0A8FA9A
:1016800007F10C031846FFF74BFAFB883B82BB8837
:10169000BB8107F10C0319464FF08040FEF79AFF1B
:1016A00000BF1837BD4680BD80B586B000AF034689
:1016B0000A46FB801346BB800121022002F0A6FAF5
:1016C0000121012002F084FA07F10C031846FFF70C
:1016D00027FABB88BB81FB883B8207F10C031946C4
:1016E0000348FEF777FF00BF1837BD4680BD00BF37
:1016F0000004004080B586B000AF03460A46FB8078
:101700001346BB800121042002F080FA0121012050
:1017100002F05EFA07F10C031846FFF701FABB88E6
:10172000BB81FB883B8207F10C0319460348FEF797
:1017300051FF00BF1837BD4680BD00BF0008004004
:1017400080B586B000AF78600B467B8007F1080358
:101750001846FFF7FFF97B883B8101237B8100233B
:10176000FB8100233B8207F1080319467868FEF7E6
:10177000ADFF01217868FFF7BDFA01217868FFF716
:1017800029FA00BF1837BD4680BD00BF80B586B0BE
:1017900000AF78600B467B8007F108031846FFF71F
:1017A000D9F97B883B8101237B810023FB810023C6
:1017B0003B8207F1080319467868FFF713F8012107
:1017C0007868FFF797FA01217868FFF703FA00BFFE
:1017D0001837BD4680BD00BF80B586B000AF7860C9
:1017E0000B467B8007F108031846FFF7B3F97B88A7
:1017F0003B8101237B810023FB8100233B8207F196
:10180000080319467868FFF775F801217868FFF733
:1018100071FA01217868FFF7DDF900BF1837BD467E
:1018200080BD00BF80B586B000AF78600B467B807E
:1018300007F108031846FFF78DF97B883B810123E8
:101840007B810023FB8100233B8207F108031946BB
:101850007868FFF7D5F801217868FFF74BFA012186
:101860007868FFF7B7F900BF1837BD4680BD00BFE5
:1018700080B483B000AF78600B467B807B687A8849
:101880009A8600BF0C37BD4680BC704780B483B0D9
:1018900000AF78600B467B807B687A881A8700BF30
:1018A0000C37BD4680BC704780B483B000AF786011
:1018B0000B467B807B687A889A8700BF0C37BD46D1
:1018C00080BC704780B483B000AF78600B467B80EB
:1018D0007B687A88A3F8402000BF0C37BD4680BCE7
:1018E000704700BF80B582B000AF19233B71002361
:1018F0007B710023BB710123FB713B1D184602F075
:1019000001FD01214FF4006002F062F90023002282
:1019100003210848FFF7A2F9012201210548FFF73A
:1019200079F901210348FFF755F900BF0837BD4693
:1019300080BD00BF002C014080B582B000AF1C23E9
:101940003B7100237B710023BB710123FB713B1DA5
:10195000184602F0D7FC0121012002F057F90023BC
:10196000002203214FF08040FFF778F90122012186
:101970004FF08040FFF74EF901214FF08040FFF714
:1019800029F900BF0837BD4680BD00BF80B582B0D1
:1019900000AF1D233B7100237B710023BB7101232A
:1019A000FB713B1D184602F0ADFC0121022002F044
:1019B0002DF90023002203210748FFF74FF90122E8
:1019C00001210548FFF726F901210348FFF702F935
:1019D00000BF0837BD4680BD0004004080B582B01E
:1019E00000AF1E233B7100237B710023BB710123D9
:1019F000FB713B1D184602F085FC0121042002F01A
:101A000005F90023002203210748FFF727F90122E7
:101A100001210548FFF7FEF801210348FFF7DAF836
:101A200000BF0837BD4680BD0008004080B400AF4D
:101A3000054B9B8C9BB21A46044B1B681B0413443A
:101A40001846BD4680BC7047002C0140E8090020C4
:101A500080B400AF4FF080439B8C9BB21A46044B7E
:101A60001B681B0413441846BD4680BC704700BF6A
:101A7000EC09002080B400AF054B9B8C9BB21A464A
:101A8000044B1B681B0413441846BD4680BC7047BA
:101A900000040040F009002080B400AF054B9B8C8F
:101AA0009BB21A46044B1B681B0413441846BD46E0
:101AB00080BC704700080040F409002080B400AFEB
:101AC0000C4B9B8C9BB21BB2DB439BB2DB0BDBB2A0
:101AD000002B05D0084B1B680133074A136004E054
:101AE000054B1B68013B044A136000BFBD4680BC28
:101AF000704700BF002C0140E809002080B400AF0F
:101B00004FF080439B8C9BB21BB2DB439BB2DB0B41
:101B1000DBB2002B05D0074B1B680133054A13606D
:101B200004E0044B1B68013B024A136000BFBD4642
:101B300080BC7047EC09002080B400AF0C4B9B8C3C
:101B40009BB21BB2DB439BB2DB0BDBB2002B05D09D
:101B5000084B1B680133074A136004E0054B1B6800
:101B6000013B044A136000BFBD4680BC704700BF04
:101B700000040040F009002080B400AF0C4B9B8CA7
:101B80009BB21BB2DB439BB2DB0BDBB2002B05D05D
:101B9000084B1B680133074A136004E0054B1B68C0
:101BA000013B044A136000BFBD4680BC704700BFC4
:101BB00000080040F409002080B400AF00BFBD461B
:101BC00080BC704780B400AF00BFBD4680BC70478A
:101BD00080B400AF00BFBD4680BC704780B400AF8A
:101BE00000BFBD4680BC704780B400AF00BFBD469B
:101BF00080BC704780B400AF00BFBD4680BC70475A
:101C000080B400AF00BFBD4680BC704780B400AF59
:101C100000BFBD4680BC704780B400AF044B1B685A
:101C20000133034A136000BFBD4680BC704700BF4C
:101C3000E809002080B400AF044B1B680133034A5D
:101C4000136000BFBD4680BC704700BFEC09002098
:101C500080B400AF044B1B680133034A136000BF1C
:101C6000BD4680BC704700BFF009002080B400AFC3
:101C7000044B1B680133034A136000BFBD4680BCA0
:101C8000704700BFF409002080B500AF0C4B1B6803
:101C9000022B02D1FFF712FF0CE0094B1B68012B4E
:101CA00002D1FFF789FF05E0054B1B68032B01D12B
:101CB000FFF7B2FF01210348FFF766F800BF80BDC0
:101CC000D8090020002C014080B500AF124B1B68E2
:101CD000022B07D1FFF712FF01214FF08040FFF7E1
:101CE00053F816E00C4B1B68012B07D1FFF76AFF76
:101CF00001214FF08040FFF747F80AE0064B1B68D0
:101D0000032B06D1FFF796FF01214FF08040FFF72C
:101D10003BF800BF80BD00BFDC09002080B500AFEC
:101D2000104B1B68022B06D1FFF706FF01210E485E
:101D3000FFF72AF814E00B4B1B68012B06D1FFF7C5
:101D400047FF01210848FFF71FF809E0054B1B6812
:101D5000032B05D1FFF77CFF01210348FFF714F89F
:101D600000BF80BDE00900200004004080B500AF46
:101D70003C4B1B68022B06D1FFF7FEFE01213A48BF
:101D8000FFF702F86CE0374B1B68012B5ED1012195
:101D90003548FEF7CFFF0346012B0CBF012300237C
:101DA000DBB2002B06D0FFF719FF01212E48FEF70A
:101DB000EBFF55E002212C48FEF7BCFF0346012B48
:101DC0000CBF01230023DBB2002B06D0FFF70CFF72
:101DD00002212548FEF7D8FF42E004212248FEF701
:101DE000A9FF0346012B0CBF01230023DBB2002B0C
:101DF00006D0FFF7FFFE04211B48FEF7C5FF2FE0CA
:101E000008211948FEF796FF0346012B0CBF01235A
:101E10000023DBB2002B06D0FFF7F2FE08211248A8
:101E2000FEF7B2FF1CE010210F48FEF783FF0346C8
:101E3000012B0CBF01230023DBB2002B10D0FFF7D6
:101E4000E5FE10210848FEF79FFF09E0054B1B68DF
:101E5000032B05D1FFF70AFF01210348FEF794FF8A
:101E600000BF80BDE40900200008004090B589B0A3
:101E700002AFF860B96011461A460B46FB80134664
:101E8000BB80FB68BA681A61FB8803F588639AB265
:101E9000FB689A81FB681869FB68998900230093A5
:101EA0000023002201F082FC01233B75BB88DBB2DA
:101EB0007B75BB881B0A9BB2DBB2BB75FB681869DC
:101EC000FB8803F5806399B207F11403032201F044
:101ED00053FC012001F090FB01F0D0FB03460C46BF
:101EE000FA68C2E90034FB6801229A7300BF1C370C
:101EF000BD4690BD80B483B000AF78607B689B68BE
:101F00007A6892F90E2002FB03F318460C37BD469F
:101F100080BC704790B583B000AF78607B681B6968
:101F20005B687A68928993420FD17B681B690F3393
:101F30001846FEF7ABFF02467B689A6001F09EFBF5
:101F400003460C467A68C2E9003400BF0C37BD4630
:101F500090BD00BF80B582B000AF114B7B60114BCC
:101F60003B6007E03B681A1D3A607A68111D796092
:101F700012681A603B680C4A9342F3D30B480C4931
:101F80004FF000028842B8BF40F8042BFADBFEF79E
:101F9000AFFF01F035F900BF0837BD4680BD00BF77
:101FA0009CB7000800000020D8090020D8090020B4
:101FB0001010002080B400AFFEE700BF80B582B0F3
:101FC00000AF78607B680E4A93420AD101214FF03E
:101FD000007001F039FE00214FF0007001F034FE76
:101FE00009E001214FF0806001F02EFE00214FF04A
:101FF000806001F029FE00BF0837BD4680BD00BFEC
:102000000064004080B485B000AF78603960002380
:10201000FB730023BB607B681B6823F002027B68B4
:102020001A607B681B6843F001027B681A6002E05B
:10203000BB680133BB607B685B6803F00103002B66
:1020400004D1BB684FF6FF729342F1D17B685B68A5
:1020500003F00103002B02D10023FB739CE03B68DB
:102060009B79012B06D17B681B6843F080027B685B
:102070001A6005E07B681B6823F080027B681A60A9
:102080003B68DB79012B06D17B681B6843F040027B
:102090007B681A6005E07B681B6823F040027B6860
:1020A0001A603B681B7A012B06D17B681B6843F0E2
:1020B00020027B681A6005E07B681B6823F0200221
:1020C0007B681A603B685B7A012B06D17B681B68D2
:1020D00043F010027B681A6005E07B681B6823F000
:1020E00010027B681A603B689B7A012B06D17B68E3
:1020F0001B6843F008027B681A6005E07B681B6878
:1021000023F008027B681A603B68DB7A012B06D15A
:102110007B681B6843F004027B681A6005E07B68FB
:102120001B6823F004027B681A603B689B789A075F
:102130003B68DB781B061A433B681B791B041A4378
:102140003B685B791B051A433B681B88013B1A43BC
:102150007B68DA617B681B6823F001027B681A6088
:102160000023BB6002E0BB680133BB607B685B6837
:1021700003F00103002B04D0BB684FF6FF729342BB
:10218000F1D17B685B6803F00103002B02D00023D0
:10219000FB7301E00123FB73FB7B18461437BD463C
:1021A00080BC704780B485B000AF78600023FB60CE
:1021B0007B689B7A1A4601239340FB60554A554B36
:1021C000D3F8003243F00103C2F800325149514BB9
:1021D000D3F81C22FB68DB431340C1F81C327B6838
:1021E0001B7B002B25D14B494A4BD3F80C22FB68B3
:1021F000DB431340C1F80C3246497B689B7A184692
:102200007B68DB881B047A6852881A4300F1480314
:1022100041F833203F497B689B7A18467B689B884E
:102220001B047A6812881A4300F14803DB000B4450
:102230005A607B681B7B012B24D13649354BD3F880
:102240000C22FB681343C1F80C3232497B689B7A3D
:1022500018467B681B881B047A6852881A4300F171
:10226000480341F833202B497B689B7A18467B68EA
:102270009B881B047A68D2881A4300F14803DB006C
:102280000B445A607B68DB7A002B09D12149214B32
:10229000D3F80422FB68DB431340C1F8043207E0A3
:1022A0001C491C4BD3F80422FB681343C1F80432C9
:1022B0007B681B89002B08D11649164BD3F81422D2
:1022C000FB68DB431340C1F814327B681B89012B88
:1022D00007D110490F4BD3F81422FB681343C1F800
:1022E00014327B685B7B012B07D10A49094BD3F879
:1022F0001C22FB681343C1F81C32064A054BD3F875
:10230000003223F00103C2F8003200BF1437BD468B
:1023100080BC70470064004080B483B000AF786038
:102320007B6800229A717B680022DA717B68002248
:102330001A727B6800225A727B6800229A727B684C
:102340000022DA727B6800229A707B680022DA70C1
:102350007B6803221A717B6802225A717B68012212
:102360001A8000BF0C37BD4680BC704780B485B072
:1023700000AF786039600023FB737B689B6803F0D3
:102380008063002B02D00023FB7313E07B689B6803
:1023900003F00063002B02D00123FB730AE07B688B
:1023A0009B6803F08053002B02D00223FB7301E0F3
:1023B0000423FB73FB7B042B00F09C80FB7BFA7BEC
:1023C0007968183212010A44126802F00102796831
:1023D00018331B010B441A603B681B7A002B13D186
:1023E000FB7BFA7B7968183212010A4411683A685B
:1023F000126852053868407A02430A4379681833F4
:102400001B010B441A6015E0FB7BFA7B79681832DC
:1024100012010A4411683A685268D2003868007A9A
:1024200002433868407A02430A43796818331B0133
:102430000B441A603B689B7A03F00F03DAB23B68E7
:102440009A72FB7BFA7B7968183212010A440432D3
:10245000126822F00F02796818331B010B44043311
:102460001A60FB7BFA7B7968183212010A44043245
:1024700012683968897A0A43796818331B010B445A
:1024800004331A60FB7B3A68927B11063A68527BF0
:10249000120411433A68127B12020A433968C97A5E
:1024A0000A4379681B010B4403F5C4731A60FB7B74
:1024B0003A68927C11063A68527C120411433A68D9
:1024C000127C12020A433968C97B0A4379681B01EE
:1024D0000B4403F5C6731A60FB7BFA7B79681832EC
:1024E00012010A44126842F00102796818331B0194
:1024F0000B441A60FB7B18461437BD4680BC7047FE
:1025000080B485B000AF78600B46FB700023FB60A1
:10251000FB78012B09D0022B0DD0002B11D17B6849
:102520009A68264B1340FB600EE07B689A68244B48
:102530001340FB6008E07B689A68224B1340FB6005
:1025400002E00023FB6000BFFB681F4A93421BD0E0
:102550001D4A934208D81D4A934212D0174A93420B
:1025600018D0002B0AD01EE0194A93420FD0154A0A
:10257000934215D0124A93420FD014E00223FB601D
:1025800014E00023FB6011E00023FB600EE0002359
:10259000FB600BE00123FB6008E00123FB6005E02A
:1025A0000123FB6002E00023FB6000BFFB68DBB29D
:1025B00018461437BD4680BC704700BF03000004B6
:1025C00000030008000003100001000801000004DF
:1025D0000000011080B485B000AFF8600B467A604F
:1025E000FB72FB7AFA681B331B0113441B68DBB2D6
:1025F00003F00403DAB27B681A727B681B7A002B43
:1026000009D1FB7AFA681B331B0113441B685A0D6E
:102610007B681A6008E0FB7AFA681B331B011344DD
:102620001B68DA087B685A60FB7AFA681B331B0167
:1026300013441B68DBB203F00203DAB27B685A7200
:10264000FB7AFA681B331B01134404331B68DBB2AB
:1026500003F00F03DAB27B689A72FB7AFA681B33D5
:102660001B01134404331B681B0ADAB27B68DA745B
:10267000FB7AFA681B01134403F5DC731B68DAB2BA
:102680007B68DA72FB7AFA681B01134403F5DC738A
:102690001B681B0ADAB27B681A73FB7AFA681B01A3
:1026A000134403F5DC731B681B0CDAB27B685A73A6
:1026B000FB7AFA681B01134403F5DC731B681B0EDD
:1026C000DAB27B689A73FB7AFA681B01134403F54C
:1026D000DE731B68DAB27B68DA73FB7AFA681B0177
:1026E000134403F5DE731B681B0ADAB27B681A74A5
:1026F000FB7AFA681B01134403F5DE731B681B0C9D
:10270000DAB27B685A74FB7AFA681B01134403F54A
:10271000DE731B681B0EDAB27B689A74FB7A002B9F
:1027200006D1FB68DB6843F02002FB68DA6005E055
:10273000FB681B6943F02002FB681A6100BF143775
:10274000BD4680BC704700BF80B485B000AFF86064
:10275000B9601346FB71FB79002B06D0FB685A6900
:10276000BB681A43FB685A6106E0FB685A69BB689C
:10277000DB431A40FB685A6100BF1437BD4680BC7A
:10278000704700BF80B489B000AF78603960002323
:10279000FB6100233B610023BB610023FB6000233E
:1027A0007B610023BB603B68DB7803F00F03FB61B8
:1027B0003B68DB7803F01003002B05D03B689B7867
:1027C0001A46FB691343FB613B681B88DBB2002B95
:1027D00044D07B681B687B610023BB6138E0012229
:1027E000BB6902FA03F3FB603B681B881A46FB686F
:1027F00013403B613A69FB689A4226D1BB699B0052
:10280000FB600F22FB6802FA03F3BB60BB68DB438B
:102810007A6913407B61FA69FB6802FA03F37A690B
:1028200013437B613B68DB78282B05D10122BB6910
:102830009A407B685A6108E03B68DB78482B04D1FA
:102840000122BB699A407B681A61BB690133BB6195
:10285000BB69072BC3D97B687A691A603B681B8800
:10286000FF2B46D97B685B687B610023BB613AE044
:10287000BB690833012202FA03F3FB603B681B8843
:102880001A46FB6813403B613A69FB689A4227D1BC
:10289000BB699B00FB600F22FB6802FA03F3BB607D
:1028A000BB68DB437A6913407B61FA69FB6802FA13
:1028B00003F37A6913437B613B68DB78282B05D1EE
:1028C000BB69083301229A407B685A613B68DB7818
:1028D000482B05D1BB69083301229A407B681A61F5
:1028E000BB690133BB61BB69072BC1D97B687A69BE
:1028F0005A6000BF2437BD4680BC704780B483B0A7
:1029000000AF78607B684FF6FF721A807B68022206
:102910009A707B680422DA7000BF0C37BD4680BC19
:10292000704700BF80B485B000AF78600B467B80F5
:102930000023FB737B689A687B881340002B02D0CE
:102940000123FB7301E00023FB73FB7B1846143764
:10295000BD4680BC704700BF80B485B000AF7860D2
:102960000B467B800023FB737B68DA687B8813400F
:10297000002B02D00123FB7301E00023FB73FB7BE0
:1029800018461437BD4680BC704700BF80B483B082
:1029900000AF78600B467B8013467B707B78002B02
:1029A00003D07A887B681A6102E07A887B685A6172
:1029B00000BF0C37BD4680BC704700BF90B585B0E6
:1029C00004AF264800F0A8FD102310222449254812
:1029D00001F058F9102320222149234801F052F92F
:1029E000482304222149224801F04CF948234FF49E
:1029F00080621E491F4801F045F9482302221B4905
:102A00001D4801F03FF948234FF4006217491B4865
:102A100001F038F9482304221149194801F032F92C
:102A2000482308220E49174801F02CF9144916488A
:102A3000FDF76CFB13491548FDF768FB104801F0E2
:102A40007FF90346002B0CBF01230023DBB2002BD0
:102A500020D00F4B01221A702AE000BFF809002095
:102A600000080140000A00200C0A0020000C014070
:102A7000180A0020240A0020300A00203C0A002006
:102A8000480A0020540A0020980B0020B80B0020B0
:102A9000540D0020B34801F053F90346002B0CBF3E
:102AA00001230023DBB2002B02D0AF4B02221A70AD
:102AB00048234FF40052AD49AD4801F0E3F84823F4
:102AC0004FF48042A949AB4801F0DCF848234FF4A9
:102AD0000042A649A84801F0D5F848234FF4807277
:102AE000A649A74801F0CEF8A149A648FDF70EFB7C
:102AF000A049A548FDF70AFB9F49A448FDF706FB3E
:102B00009F49A348FDF702FB10234FF480529749D9
:102B1000A04801F0B7F800219E4801F0F3F86023C7
:102B20000393002302934FF4FA6301934FF48073ED
:102B300000938E4B032298499848FEF70BFB6023C5
:102B40000393002302934FF4FA6301934FF400734D
:102B50000093864B042290499148FEF7FBFA6023CC
:102B60000393002302934FF4FA63019340230093ED
:102B70007E4B012288498B48FEF7ECFA60230393D1
:102B8000002302934FF4FA63019380230093774B61
:102B9000022281498448FEF7DDFA814A7F49834851
:102BA00001F014F9804A7F49814801F00FF9794911
:102BB0007E4801F023F977497D4801F01FF902238F
:102BC00001936E4B009301236C4A4FF0804179488A
:102BD000FEF7F6FB80230193684B00934023674A7E
:102BE00075497648FEF7ECFB7549764800F0AEFC77
:102BF0004FF400630193614B00934FF480535F4A9D
:102C00007149724800F07CFD574B1B78002B02D0B5
:102C10006E4800F0A5FD6E4801F092F803465B0097
:102C20009CB26C4801F08CF8034623449BB25B00D5
:102C30009CB2694801F084F8034623449BB25B00D0
:102C40009CB2664801F07CF8034623449BB21A46C6
:102C5000D203D31A5B009BB21E339AB26423009353
:102C600013465A4A51495E4801F002FC584801F0A7
:102C700067F803465B009CB2564801F061F80346D2
:102C800023449BB25B009CB2534801F059F80346C1
:102C900023449BB25B009CB2504801F051F80346BC
:102CA00023449BB21A46D203D31A5B009BB21F3354
:102CB0009AB2642300931346444A3D49494801F0BF
:102CC000D7FB434801F03CF803465B009CB2414807
:102CD00001F036F8034623449BB25B009CB23E48A9
:102CE00001F02EF8034623449BB25B009CB23B48A4
:102CF00001F026F8034623449BB21A46D203D31AA6
:102D00005B009BB21E339BB2304A2A493648FDF71E
:102D10008FFB2F4801F014F803465B009CB22D484E
:102D200001F00EF8034623449BB25B009CB22A4894
:102D300001F006F8034623449BB25B009CB227488F
:102D400000F0FEFF034623449BB21A46D203D31A77
:102D50005B009BB21F339BB21C4A18492348FDF706
:102D600067FB45E0540A0020540D0020000C014090
:102D7000840A0020900A00209C0A002000080140DC
:102D8000A80A0020180B0020380B0020580B002048
:102D9000780B0020600A002000080040D40A0020C0
:102DA000E40A0020F40A0020040B0020D80B0020C5
:102DB000F00B0020B40A002000040040C40A0020E8
:102DC000140B0020F809002000640040080C0020CB
:102DD000180A0020300A00203C0A0020240A0020A3
:102DE000200C0020500C0020800C0020940C0020AF
:102DF000B54800F0A5FF03465B009CB2B34800F065
:102E00009FFF034623449BB25B009CB2B04800F096
:102E100097FF034623449BB25B009CB2AD4800F091
:102E20008FFF034623449BB21A46D203D31A5B009A
:102E30009BB21E339BB2A84AA849A948FDF7E2F904
:102E4000A849A748FDF714FAA749A548FDF710FAC5
:102E5000A649A348FDF70CFAA54B1B78002B00F000
:102E6000C580994800F06CFF03465B009CB2974810
:102E700000F066FF034623449BB25B009CB294487B
:102E800000F05EFF034623449BB25B009CB2914876
:102E900000F056FF034623449BB21A46D203D31ACE
:102EA0005B009BB21E339AB20A238B499148FEF70E
:102EB000DDFF854800F044FF03465B009CB2834879
:102EC00000F03EFF034623449BB25B009CB2804867
:102ED00000F036FF034623449BB25B009CB27D4862
:102EE00000F02EFF034623449BB21A46D203D31AA6
:102EF0005B009BB21F339AB20A2377497E48FEF7E4
:102F0000B5FF714800F01CFF03465B009CB26F48A0
:102F100000F016FF034623449BB25B009CB26C4852
:102F200000F00EFF034623449BB25B009CB269484D
:102F300000F006FF034623449BB21A46D203D31A7D
:102F40005B009BB21E339BB21A4663496B48FEF787
:102F500089F85D4800F0F4FE03465B009CB25B48D4
:102F600000F0EEFE034623449BB25B009CB258483F
:102F700000F0E6FE034623449BB25B009CB255483A
:102F800000F0DEFE034623449BB21A46D203D31A56
:102F90005B009BB21F339BB21A464F495848FEF75D
:102FA00061F8494800F0CCFE03465B009CB24748FC
:102FB00000F0C6FE034623449BB25B009CB244482B
:102FC00000F0BEFE034623449BB25B009CB2414826
:102FD00000F0B6FE034623449BB2C3F10F039AB23E
:102FE00064233D494748FDF7DFFE07E0464947486F
:102FF00001F080FA4649474801F07CFA4FF48063BB
:103000000293454B01934FF400730093424B4FF4EE
:1030100061224249424801F08BFB424A4249404802
:1030200001F066FB414A42493D4801F061FB414ADB
:1030300041493B4801F05CFB234800F081FE034618
:103040005B009CB2214800F07BFE034623449BB208
:103050005B009CB21E4800F073FE034623449BB203
:103060005B009CB21B4800F06BFE034623449BB2FE
:10307000C3F10F039BB21A463049294801F038FBCF
:103080002F4800F05DFE0346002B05D02D4800F0D0
:1030900057FE0346002B01D1012300E00023002B43
:1030A00000D0EDE728491E4801F022FB104B1B78A9
:1030B000012B4DD125491A4801F01AFB0121124874
:1030C00000F020FE55E000BF180A0020300A002062
:1030D0003C0A0020240A0020080C0020180B0020C5
:1030E000A80C0020380B0020580B0020780B002083
:1030F000540D0020000D0020180D0020E80C0020C9
:10310000F40C0020300D0020000A0020200C0020CC
:103110000C0A0020500C002000080140003801403B
:10312000140B0020C8AC000808AD000818AD00085A
:1031300024AD000830AD00083CAD000848AD0008E3
:10314000480A0020540A002054AD000860AD000871
:103150000A4B1B78022B08D109490A4801F0C8FA2A
:103160000121094800F0CEFD03E00849054801F0BF
:10317000BFFA00BF0437BD4690BD00BF540D00200C
:1031800078AD0008140B00200C0A002090AD000858
:1031900080B500AF104800F07FFB104801F036FA10
:1031A0000F4801F033FA0F48FDF7BAF90E48FDF762
:1031B000B7F90E48FDF710F90D4B1B78002B09D01D
:1031C0000C48FEF7A7FE0C48FEF7A4FE0B48FDF7DF
:1031D0003BFE00BF00BF80BD080C0020200C00207B
:1031E000500C0020800C0020940C0020A80C002023
:1031F000540D0020180D0020000D0020300D00207F
:10320000F0B583B002AFFFF7D9FB7D4B1B8B1A469D
:103210007C497D4801F06CFA002232217B4800F0A5
:10322000CFF97A4800F0A2F97948FCF7A7FF79486E
:10323000FCF7A4FF7848FCF7A1FF7848FCF79EFF55
:103240007748FDF723F97748FDF720F97648FCF732
:1032500095FF7648FCF792FF754801F05BF97548D9
:1032600001F058F96648FDF71FF800F007FA0A4622
:103270000146714B18CBA24208BF99422CBF0123D3
:103280000023DBB2002BCCD000F0F8F903460C464B
:10329000323344F10004684AC2E90034674B1B78BA
:1032A000042BBED801A252F823F000BFC13200089F
:1032B000F332000879330008BF33000823320008D6
:1032C0005B4B03F11804D4E900341846584B1A68D4
:1032D000574B03F14804D4E900341946544B1B6B97
:1032E00001930091134602465549474801F000FA00
:1032F00084E0544800F024FD0346002B0CBF01235A
:103300000023DBB2002B08D04F495048FDF7DCFE0C
:103310004D494F48FDF7D8FE19E04E4800F010FD2A
:103320000346002B0CBF01230023DBB2002B08D087
:1033300049494648FDF7C8FE47494548FDF7C4FEE0
:1033400005E04348FDF7AAFE4048FDF7A7FE434BC2
:103350001C68424B9D694248FEF7B0F8064641485A
:10336000FEF7ACF80346019300962B4622463E49F1
:10337000254801F0BDF941E02B4B5B88002B07D0BD
:103380002948FCF7EDFE0346002B01D1012300E0A4
:103390000023002B05D0294B1B780133DAB2274BD1
:1033A0001A703248FEF7A6FD04463148FEF7A2FD2A
:1033B000034622462F49144801F09AF91EE01A4BA1
:1033C0005B88002B07D01848FCF7CAFE0346002B89
:1033D00001D1012300E00023002B02D0174B022271
:1033E0001A70254B9B881C462348FDF721FD034698
:1033F00022462249044801F07BF900BF11E700BFD3
:10340000A80C0020A0AD0008140B0020F809002033
:10341000180B0020380B0020580B0020780B0020E0
:10342000940C0020800C0020980B0020B80B00208A
:10343000200C0020500C0020580D0020540D0020BE
:10344000B0AD0008480A0020CDCC4C3EF40C002062
:10345000E80C0020540A0020CDCC4CBED80B002034
:10346000B40A0020C40A0020C4AD0008000D0020EA
:10347000180D0020D8AD0008300D0020F0AD000878
:1034800080B483B000AF03463960FB7197F9073011
:10349000002B0BDA0D49FB7903F00F03043B3A686C
:1034A000D2B21201D2B20B441A7609E0084997F958
:1034B00007303A68D2B21201D2B20B4483F800232B
:1034C00000BF0C37BD4680BC704700BF00ED00E078
:1034D00000E100E080B582B000AF78607B68B3F1B6
:1034E000807F01D3012311E00A4A7B6823F07F43E8
:1034F000013B53600F214FF0FF30FFF7C1FF054B39
:1035000000229A60034B07221A60002318460837EE
:10351000BD4680BD10E000E080B582B000AF7860AD
:10352000084B1B685B09084AA2FB0323DB0918460A
:10353000FFF7D0FF7B6800221A8000BF0837BD4626
:1035400080BD00BF00000020C55A7C0A80B483B053
:1035500000AF786039607B683A685A607B68012206
:103560001A8000BF0C37BD4680BC704780B582B062
:1035700000AF78600F4BB3F90030002B0DDD7B6896
:103580001B88002B09D07B6858680A4BB3F90030C0
:103590001A46094901F0ACF8FEE7786800F022F815
:1035A000064BB3F90020034B1A8000BF0837BD4615
:1035B00080BD00BF680D002010AE00086A0D00201D
:1035C00080B582B000AF78600B467B8013467B707D
:1035D0007A787B881146184600F070F800BF0837EB
:1035E000BD4680BD80B582B000AF786000F082F843
:1035F00000BF0837BD4680BDB0B584B000AF78606D
:103600007B684FF47A7202FB03F31C464FF000050F
:1036100000F01EF802460B46A01845EB03010346D6
:103620000C46C7E9023400F013F80A460146D7E910
:103630000234A24208BF994234BF01230023DBB207
:10364000002B00D0EFE700BF1037BD46B0BD00BF74
:1036500090B400AF084B18CBDB1844EB0404A20075
:1036600042EA937299005B1844EB02041846214623
:10367000BD4690BC704700BF600D002098B500AFFC
:10368000FFF7E6FF4FF47A724FF0000302F04CFAB6
:1036900003460C461846214698BD00BF90B400AFC3
:1036A000054B18CB013344F10004034AC2E900344E
:1036B00000BFBD4690BC7047600D002080B582B051
:1036C00000AF03460A46FB8013467B7145F2555016
:1036D00001F094FB7B79184601F0A0FBFB881846AB
:1036E00001F0ACFB00F006F801F0C4FB00BF0837A6
:1036F000BD4680BD80B500AF01F0B0FB00BF80BD0E
:1037000080B588B002AFF860B9607A607B80FB68F2
:10371000BA681A607A88BB8C00933B6A7968F8684B
:1037200000F0A0F8FB681B680B4A934202D100200E
:1037300000F0C8F800237B617B69332B08DC074A63
:103740007B69002122F813107B6901337B61F3E769
:1037500000BF1837BD4680BD00640040700D0020DA
:1037600080B582B000AF7860012000F0ABF800BFF8
:103770000837BD4680BD00BF80B584B000AFF8609B
:103780007B600B467B8113467B72FB681B68064A95
:10379000934205D1797A7B897A68184600F0DCF883
:1037A00000BF1037BD4680BD0064004080B584B0C6
:1037B00000AFF860084611461A4603467B810B4667
:1037C0003B811346FB807B89002B0CD0234B1B884D
:1037D0001946234A7B8922F81130204B1B8801337C
:1037E0009AB21E4B1A803B89002B0CD01B4B1B88B6
:1037F00019461B4A3B8922F81130184B1B880133AC
:103800009AB2164B1A80FB88002B0CD0134B1B88E6
:103810001946134AFB8822F81130104B1B880133DC
:103820009AB20E4B1A803B8B002B0CD00B4B1B8893
:1038300019460B4A3B8B22F81130084B1B88013389
:103840009AB2064B1A803B8BFA883989788900F046
:10385000CDF800BF1037BD4680BD00BF6C0D002005
:10386000700D002080B58AB000AFF860B9603B6091
:103870001346FB80FA8807F110001823B96800F09E
:1038800001FA3A8E07F11C000423396800F0FAF9B6
:1038900000BF2837BD4680BD80B582B000AF7860DC
:1038A0007B681B68064A934206D17B6804331A463C
:1038B00000210348FEF78EFE00BF0837BD4680BDDD
:1038C0000064004080B586B000AF0346FB8021480D
:1038D000FEF774FB01214FF0007000F097F907F13B
:1038E0000C031846FEF718FD0123BB740023FB747C
:1038F00000233B7500237B750023FB75FB88002BA1
:1039000002D10023BB7301E00123BB730023FB73CF
:1039100004233B7405237B740323BB8107F10C0351
:1039200019460C48FEF76EFB14233B7200237B7292
:103930000123BB720123FB7207F10803184600F054
:10394000E1FC012202210348FEF7FEFE00BF18370A
:10395000BD4680BD0064004080B588B000AF03461E
:103960003A60FB800B467B71FB88FB6000233B6168
:1039700000233B757B79002B02D102237B7501E08C
:1039800000237B757B79BB753B681B78FB753B68B7
:103990005B783B763B689B787B763B68DB78BB76D5
:1039A0003B681B79FB763B685B793B773B689B798F
:1039B0007B773B68DB79BB7707F10C0319460A4834
:1039C000FEF7D4FC00210848FEF79AFD0346012BC0
:1039D00014BF01230023DBB2002B00D0F2E700BFAD
:1039E0002037BD4680BD00BF0064004090B587B061
:1039F00000AF0446084611461A462346FB8003469C
:103A0000BB800B467B8013463B80184B1B880D2BDD
:103A100027D8164B1B88DBB2BB740123FB74002331
:103A20003B75FB885B019BB27B81BB885B019BB2D2
:103A3000FB817B885B019BB23B813B885B019BB236
:103A4000BB8100233B8201237B7507F108031846E5
:103A5000FEF7A8FB054B1B8801339AB2034B1A8073
:103A600000E000BF1C37BD4690BD00BFD80D002050
:103A700080B487B000AF786000237B6100233B6196
:103A80000023FB600023BB604C4B5B6803F00C031E
:103A90007B617B69042B07D0082B09D0002B33D125
:103AA0007B68474A1A6033E07B68454A1A602FE01A
:103AB000424B5B6803F470133B61404B5B6803F45B
:103AC0008033FB603B699B0C02333B61FB68002B3E
:103AD00006D13B693B4A02FB03F27B681A6017E0A0
:103AE000364B5B6803F40033002B06D03B69354A44
:103AF00002FB03F27B681A600AE03B69304A02FB72
:103B000003F27B681A6003E07B682D4A1A6000BFED
:103B10002A4B5B6803F0F0037B617B691B097B61C7
:103B2000294A7B6913441B78DBB2BB607B681A6847
:103B3000BB68DA407B685A60204B5B6803F4E06343
:103B40007B617B691B0A7B611F4A7B6913441B787D
:103B5000DBB2BB607B685A68BB68DA407B689A60FE
:103B6000164B5B6803F460537B617B69DB0A7B6106
:103B7000154A7B6913441B78DBB2BB607B685A68CB
:103B8000BB68DA407B68DA600C4B5B6803F4404347
:103B90007B617B699B0B7B610C4A7B6913441B78BF
:103BA000DBB2BB607B68DA68BB68B2FBF3F27B68B0
:103BB0001A6100BF1C37BD4680BC70470010024030
:103BC00000127A0000093D001400002024000020AB
:103BD00080B483B000AF78600B46FB70FB78002B9D
:103BE00006D00949084B9A697B6813438B6106E04C
:103BF0000549054B9A697B68DB4313408B6100BF25
:103C00000C37BD4680BC70470010024080B483B0C2
:103C100000AF78600B46FB70FB78002B06D009499B
:103C2000084BDA697B681343CB6106E00549054B15
:103C3000DA697B68DB431340CB6100BF0C37BD46BC
:103C400080BC70470010024080B483B000AF786041
:103C50000B46FB70FB78002B06D00949084B1A690C
:103C60007B6813430B6106E00549054B1A697B68C5
:103C7000DB4313400B6100BF0C37BD4680BC70476F
:103C80000010024080B586B000AFF860B960114600
:103C90001A460B46FB8013467B71FB68FA885A80F4
:103CA000FB68BA685A6001210420FFF791FF0121E7
:103CB0000820FFF78DFF01211020FFF789FF012168
:103CC0002020FFF785FFFB687A791A7207F1140349
:103CD0001846FEF713FEFB685B88BB82FB681B7A05
:103CE000FB750323BB75FB685B6807F11402114683
:103CF0001846FEF747FDFB6800221A8000BF183700
:103D0000BD4680BD80B582B000AF78600B467B8039
:103D10007B88002B08D17B6858687B685B88002211
:103D20001946FEF733FE07E07B6858687B685B88BE
:103D300001221946FEF72AFE00BF0837BD4680BDA6
:103D400080B582B000AF78607B685A687B685B881A
:103D500019461046FEF7E6FD03469BB218460837A3
:103D6000BD4680BD80B582B000AF78607B685A6880
:103D70007B685B881946104600F004F800BF0837DE
:103D8000BD4680BD80B582B000AF78600B467B80B9
:103D90007B8819467868FEF7DFFD0346012B0CBFD0
:103DA00001230023DBB2002B06D07B8800221946BA
:103DB0007868FEF7EBFD05E07B88012219467868FC
:103DC000FEF7E4FD00BF0837BD4680BD80B584B076
:103DD00000AFF860B9607A60FB68BA689A60FB6807
:103DE0007A68DA604FF00001F86800F017F8FB68B5
:103DF00000229A8000BF1037BD4680BD80B483B0DA
:103E000000AF786039607B683A685A617B6802224B
:103E10009A8000BF0C37BD4680BC704780B584B027
:103E200000AF786039607B689B88012B03D0022B40
:103E30000BD0002B10E07B681A697B681B699B889C
:103E400019461046FDF734FA06E07B685B690121EC
:103E50001846FFF757FF00BF7B689B689B88184692
:103E600001F098FC03463968184601F0E7FC034668
:103E7000184601F033FE0346FB817B689B689B88F4
:103E8000323BBB81B7F90E20BB899A4201DDBB8969
:103E9000FB81B7F90E20BB895B429A4203DABB89EA
:103EA0005B429BB2FB817B6898687B689B689B88C0
:103EB0005B089AB2B7F90E30D90F0B445B101BB2F6
:103EC0009BB2D31A9BB21946FDF7F2F97B68D8680A
:103ED0007B68DB689B885B089AB2B7F90E30D90F14
:103EE0000B445B101BB29BB213449BB21946FDF707
:103EF000DFF9B7F90E207B681A6000BF1037BD46A6
:103F000080BD00BF80B582B000AF78604FF0000187
:103F10007868FFF783FF7B689B88012B03D0022B17
:103F200008D0002B0DE07B681B6900211846FDF7C7
:103F3000BFF906E07B685B6900211846FFF7E2FEE7
:103F400000BF00BF0837BD4680BD00BF80B58CB044
:103F500000AF786039600023FB620023BB6200235E
:103F60007B6200233B620023FB617B68FB617B6813
:103F70001B8A9BB2FB62FA6A4CF6FF731340FB622A
:103F80003B68DB881A46FB6A1343FB62FB6A9AB202
:103F90007B681A827B689B899BB2FB62FA6A4EF649
:103FA000F3131340FB623B689A883B681B891343F9
:103FB0009AB23B685B8913439BB21A46FB6A134370
:103FC000FB62FB6A9AB27B689A817B689B8A9BB290
:103FD000FB62FA6A4FF6FF431340FB623B689B8922
:103FE0001A46FB6A1343FB62FB6A9AB27B689A82A9
:103FF00007F108031846FFF73BFDFB692E4A934281
:1040000002D17B69BB6201E03B69BB627B689B8933
:104010009BB21BB2002B0CDABA6A13469B00134406
:104020009A001A443B681B685B00B2FBF3F37B62A7
:104030000BE0BA6A13469B0013449A001A443B688B
:104040001B689B00B2FBF3F37B627B6A1B4AA2FBFB
:1040500003235B091B01FB62FB6A1B09642202FB51
:1040600003F37A6AD31A3B627B689B899BB21BB2CB
:10407000002B0CDA3B6ADB003233104AA2FB03232D
:104080005B0903F00703FA6A1343FB620BE03B6A28
:104090001B013233094AA2FB03235B0903F00F0320
:1040A000FA6A1343FB62FB6A9AB27B681A8100BF0B
:1040B0003037BD4680BD00BF003801401F85EB5141
:1040C00080B483B000AF78607B684FF416521A60FA
:1040D0007B6800229A807B680022DA807B6800225D
:1040E0001A817B680C225A817B6800229A8100BF6A
:1040F0000C37BD4680BC704780B483B000AF786099
:104100000B46FB70FB78002B08D07B689B899BB229
:1041100043F400539AB27B689A8107E07B689B89DD
:104120009BB223F400539AB27B689A8100BF0C378C
:10413000BD4680BC704700BF80B487B000AF7860D8
:104140000B467B8013467B7000233B610023FB60A2
:104150000023BB6000237B617B687B617B88DBB2D3
:104160005B09DBB23B617B8803F01F03FB6001222C
:10417000FB6802FA03F3BB603B69012B03D17B6947
:104180000C337B6109E03B69022B03D17B6910335F
:104190007B6102E07B6914337B617B78002B06D066
:1041A0007B697A691168BA680A431A6006E07B691C
:1041B0007A691168BA68D2430A401A6000BF1C3796
:1041C000BD4680BC704700BF80B483B000AF78604C
:1041D0000B467B807B88C3F308039AB27B689A8086
:1041E00000BF0C37BD4680BC704700BF80B483B0B1
:1041F00000AF78607B689B889BB2C3F308039BB2D7
:1042000018460C37BD4680BC704700BF80B487B0ED
:1042100000AF78600B467B800023FB6000237B614E
:104220000023BB600023FB747B88DBB25B09DBB23D
:10423000BB607B8803F01F037B6101227B6902FA6C
:1042400003F37B61BB68012B07D17B689B899BB221
:104250001A467B6913407B6111E0BB68022B07D1D2
:104260007B681B8A9BB21A467B6913407B6106E020
:104270007B689B8A9BB21A467B6913407B617B8873
:104280001B0A9BB2FB600122FB6802FA03F3FB608E
:104290007B681B889BB21A46FB681340FB607B69F6
:1042A000002B05D0FB68002B02D00123FB7401E03A
:1042B0000023FB74FB7C18461C37BD4680BC70474E
:1042C00080B485B000AF78600A4B1B68002B02D128
:1042D000084B094A1A60074B1B68FB60054B1A68BC
:1042E0007B681344034A1360FB6818461437BD46C5
:1042F00080BC7047DC0D00201010002080B400AF9F
:10430000FEE700BF80B487B000AF786000237B6118
:1043100000233B610F23FB607B68DB78002B3AD0E6
:10432000274BDB68DB4303F4E0631B0A7B617B699B
:10433000C3F104033B61FA687B6922FA03F3FB6073
:104340007B685B781A463B6902FA03F37B617B6802
:104350009B781A46FB6813407A6913437B617B693B
:104360001B017B61174A7B681B787969C9B21344CA
:104370000A4683F80023134A7B681B785B09DBB28B
:1043800018467B681B7803F01F03012101FA03F331
:1043900042F820300FE00B497B681B785B09DBB2E9
:1043A00018467B681B7803F01F0301229A4000F136
:1043B000200341F8232000BF1C37BD4680BC704756
:1043C00000ED00E000E100E080B485B000AF78606F
:1043D0000B46FB700023FB730023BB8100237B8112
:1043E00000233B81FB7803F00F03012202FA03F361
:1043F000BB81FB781B09DBB27B817B89012202FA3E
:1044000003F37B817B689B889AB27B8913403B8155
:104410007B681B899AB2BB8913409BB2002B05D0E5
:104420003B89002B02D00123FB7301E00023FB73C7
:10443000FB7B18461437BD4680BC704780B485B0FE
:1044400000AF78600B46FB700023FB81FB7803F024
:104450000F03012202FA03F3FB81FB89DB439AB2CB
:104460007B681A8100BF1437BD4680BC704700BF0F
:1044700090B587B002AFF860B9607A607B80FB6866
:10448000BA681A61FB687A68DA627B8803F5807320
:104490009AB2FB681A817B8803F590739AB2FB6825
:1044A0005A81FB68D86AFB681989FB685A8900231E
:1044B00000930023FFF77AF9FA684FF000034FF0FA
:1044C0000004C2E90634FB683A8C1A85FB680022B6
:1044D0001A75074BB3F900309BB201339BB21AB285
:1044E000034B1A80002318461437BD4690BD00BF09
:1044F0006A0D002080B483B000AF786039607B68BB
:104500003A68DA607B6801221A7500BF0C37BD4635
:1045100080BC7047F0B583B000AF78607B68D3E9AA
:1045200006127B681B8D9BB24FF00004CD1842EB46
:1045300004062C463546FFF7A1F802460B469D427D
:1045400008BF944234BF01230023DBB2002B2AD0E2
:104550007B681B694FF000011846FFF75FFC7B6822
:104560001B7D002B0CD07B68D3E90845FFF786F84C
:1045700002460B469D4208BF944201D2012300E04F
:104580000023002B33D07B68DB681846FFF7EAFB7B
:10459000FFF774F803460C46323344F100047A689E
:1045A000C2E9083423E07B681B7D002B0CD07B68BC
:1045B000D3E90845FFF762F802460B469D4208BF63
:1045C000944201D2012300E00023002B0FD07B682E
:1045D000DB681846FFF7C6FBFFF750F803460C46AA
:1045E00013F5FA7344F100047A68C2E90834064B03
:1045F000B3F900309BB2013B9BB21AB2024B1A8056
:1046000000BF0C37BD46F0BD680D002090B583B0EB
:1046100000AF78607B68DB6A5B687A6812899342D6
:104620002FD17B68DB6A1B7C1B0203F4FE437A6894
:10463000D26AD27B1A437B681A607B68DB6A1B7C78
:10464000DB11012B04D17B681B685A427B681A601E
:104650007B681C697B681B68184601F09BF8034661
:104660001349184601F09EF9034619462046FFF704
:10467000D5FBFFF703F803460C467A68C2E9063417
:1046800012E07B68DB6A5B687A68528993420BD1DF
:104690007B681B691846FFF735FCFEF7EFFF034602
:1046A0000C467A68C2E9063400BF0C37BD4690BD9F
:1046B00000FEFF4680B584B000AF7860396000230B
:1046C000FB60FB683A6813441B78002B0BD0FB6837
:1046D0003A6813441B781946786800F089F8FB683B
:1046E0000133FB60EDE700BF1037BD4680BD00BF62
:1046F0000EB480B5A5B000AF786007F1A003C7F88D
:104700008C3007F10C03D7F88C20D7F89C10184692
:1047100002F05EFE07F10C0319467868FFF7CAFF46
:1047200000BF9437BD46BDE8804003B0704700BF6E
:1047300080B586B002AFF860B9607A603B60FB6814
:10474000BA681A603A8B3B8C0093FB693968F86849
:1047500000F00CF9FB681B68224A934211D178687B
:1047600000F01EF940F2255000F098F940F2277051
:1047700000F094F9012240F227711A48FFF7DCFC9F
:104780002CE0FB681B68184A934211D1786800F04E
:1047900031F940F2255000F09DF940F2277000F009
:1047A00099F9012240F227710F48FFF7C5FC15E087
:1047B000FB681B680D4A934210D1786800F044F9F9
:1047C00040F2255000F0A2F940F2277000F09EF967
:1047D000012240F227710548FFF7AEFC00BF1037F9
:1047E000BD4680BD00380140004400400048004004
:1047F00080B582B000AF78600B46FB707B681B68A9
:104800004E4A93422ED1012240F227714B48FFF7C6
:1048100093FC4B4B1B881A464A4B1B8801339A4228
:104820000CD1474B1B8801339AB2454B1A80444B3D
:104830001B887F2B02D9424B00221A80414B1B88D8
:104840001946414AFB7853543E4B1B8801339AB2B8
:104850003C4B1A803B4B1B887F2B6AD9394B00227B
:104860001A8066E07B681B68384A93422ED1012289
:1048700040F227713548FFF75FFC354B1B881A461D
:10488000344B1B8801339A420CD1314B1B880133C6
:104890009AB22F4B1A802E4B1B887F2B02D92C4BA0
:1048A00000221A802B4B1B8819462B4AFB78535445
:1048B000284B1B8801339AB2264B1A80254B1B8844
:1048C0007F2B36D9234B00221A8032E07B681B688D
:1048D000224A93422DD1012240F227711F48FFF74F
:1048E0002BFC1F4B1B881A461E4B1B8801339A4218
:1048F0000CD11B4B1B8801339AB2194B1A80184BF1
:104900001B887F2B02D9164B00221A80154B1B885F
:104910001946154AFB785354124B1B8801339AB23F
:10492000104B1A800F4B1B887F2B02D90D4B002296
:104930001A8000BF0837BD4680BD00BF0038014067
:10494000CC0E0020CE0E00204C0E00200044004073
:10495000500F0020520F0020D00E002000480040D1
:10496000D40F0020D60F0020540F002080B58AB04D
:1049700000AFF860B9603B601346FB80FA8807F12E
:104980001C001823B968FFF77DF93A8E07F1100073
:1049900048233968FFF776F900BF2837BD4680BD48
:1049A00080B586B000AF786001214FF48040FFF7FA
:1049B0000FF907F108031846FFF782FB7B68BB601D
:1049C0000C237B8200233B824FF40053FB810023A6
:1049D000BB8107F1080319460548FFF7B7FA012123
:1049E0000348FFF789FB00BF1837BD4680BD00BFF5
:1049F0000038014080B586B000AF786001214FF4E7
:104A00000030FFF703F907F108031846FFF758FBDA
:104A10007B68BB600C237B8200233B824FF40053F6
:104A2000FB810023BB8107F1080319460548FFF706
:104A30008DFA01210348FFF75FFB00BF1837BD4621
:104A400080BD00BF0044004080B586B000AF7860F4
:104A500001214FF48020FFF7D9F807F10803184629
:104A6000FFF72EFB7B68BB600C237B8200233B821D
:104A70004FF40053FB810023BB8107F10803194663
:104A80000548FFF763FA01210348FFF735FB00BF34
:104A90001837BD4680BD00BF0048004080B584B0D7
:104AA00000AF0346FB8025233B730023BB73012328
:104AB000FB7307F10C031846FFF724FCFB88012267
:104AC00019460348FFF738FB00BF1037BD4680BDCD
:104AD0000038014080B584B000AF0346FB80262338
:104AE0003B730023BB730123FB7307F10C031846D0
:104AF000FFF708FCFB88012219460348FFF71CFB5F
:104B000000BF1037BD4680BD0044004080B584B072
:104B100000AF0346FB8027233B730023BB730123B5
:104B2000FB7307F10C031846FFF7ECFBFB8801222F
:104B300019460348FFF700FB00BF1037BD4680BD94
:104B40000048004090B583B000AF40F22551314895
:104B5000FFF75CFB0346012B0CBF01230023DBB2F4
:104B6000002B22D02B48FFF741FB0346FB71FB795A
:104B70009BB219462748FFF727FB274B1B881C468B
:104B80002448FFF733FB0346DAB2244B1A55224B75
:104B90001B8801339AB2204B1A801F4B1B881F2B96
:104BA00034D91D4B00221A8030E040F22771194899
:104BB000FFF72CFB0346002B14BF01230023DBB2BD
:104BC000002B23D0164B1A88164B1B889A4217D0FD
:104BD000144B1B881A46144B9B5C9BB219460D481C
:104BE000FFF7F2FA0F4B1B8801339AB20D4B1A8074
:104BF0000C4B1B887F2B09D90A4B00221A8005E039
:104C0000002240F227710348FFF796FA00BF0C37E5
:104C1000BD4690BD0038014028000020E00D002076
:104C2000CE0E0020CC0E00204C0E002090B583B09C
:104C300000AF40F225513148FFF7E8FA0346012B57
:104C40000CBF01230023DBB2002B22D02B48FFF73F
:104C5000CDFA0346FB71FB799BB219462748FFF753
:104C6000B3FA274B1B881C462448FFF7BFFA0346BC
:104C7000DAB2244B1A55224B1B8801339AB2204BCF
:104C80001A801F4B1B881F2B34D91D4B00221A8002
:104C900030E040F227711948FFF7B8FA0346002BBD
:104CA00014BF01230023DBB2002B23D0164B1A883C
:104CB000164B1B889A4217D0144B1B881A46144B6C
:104CC0009B5C9BB219460D48FFF77EFA0F4B1B8881
:104CD00001339AB20D4B1A800C4B1B887F2B09D9DC
:104CE0000A4B00221A8005E0002240F22771034897
:104CF000FFF722FA00BF0C37BD4690BD00440040CC
:104D00002A000020040E0020520F0020500F002027
:104D1000D00E002090B583B000AF40F2255131484D
:104D2000FFF774FA0346012B0CBF01230023DBB20B
:104D3000002B22D02B48FFF759FA0346FB71FB7971
:104D40009BB219462748FFF73FFA274B1B881C46A2
:104D50002448FFF74BFA0346DAB2244B1A55224B8C
:104D60001B8801339AB2204B1A801F4B1B881F2BC4
:104D700034D91D4B00221A8030E040F227711948C7
:104D8000FFF744FA0346002B14BF01230023DBB2D4
:104D9000002B23D0164B1A88164B1B889A4217D02B
:104DA000144B1B881A46144B9B5C9BB219460D484A
:104DB000FFF70AFA0F4B1B8801339AB20D4B1A808A
:104DC0000C4B1B887F2B09D90A4B00221A8005E067
:104DD000002240F227710348FFF7AEF900BF0C37FD
:104DE000BD4690BD004800402C000020280E002049
:104DF000D60F0020D40F0020540F002080B483B0C1
:104E000000AF0346FB80044AFB88136000BF0C37E9
:104E1000BD4680BC704700BF0030004080B483B006
:104E200000AF0346FB71044AFB79536000BF0C37A7
:104E3000BD4680BC704700BF0030004080B483B0E6
:104E400000AF0346FB80044AFB88936000BF0C3729
:104E5000BD4680BC704700BF0030004080B400AF4A
:104E6000034B4AF6AA221A6000BFBD4680BC7047B9
:104E70000030004080B400AF034B4CF6CC421A60C7
:104E800000BFBD4680BC70470030004081F000414B
:104E900002E000BF83F0004330B54FEA41044FEA1F
:104EA000430594EA050F08BF90EA020F1FBF54EABA
:104EB000000C55EA020C7FEA645C7FEA655C00F056
:104EC000E2804FEA5454D4EB5555B8BF6D420CDD27
:104ED0002C4480EA020281EA030382EA000083EAAA
:104EE000010180EA020281EA0303362D88BF30BD4A
:104EF00011F0004F4FEA01314FF4801C4CEA1131A0
:104F000002D0404261EB410113F0004F4FEA0333FE
:104F10004CEA133302D0524263EB430394EA050F89
:104F200000F0A780A4F10104D5F1200E0DDB02FAF8
:104F30000EFC22FA05F2801841F1000103FA0EF28C
:104F4000801843FA05F359410EE0A5F120050EF152
:104F5000200E012A03FA0EFC28BF4CF0020C43FA83
:104F600005F3C01851EBE37101F0004507D54FF090
:104F7000000EDCF1000C7EEB00006EEB0101B1F5E0
:104F8000801F1BD3B1F5001F0CD349085FEA300026
:104F90004FEA3C0C04F101044FEA445212F5800F31
:104FA00080F09A80BCF1004F08BF5FEA500C50F1CE
:104FB000000041EB045141EA050130BD5FEA4C0CB1
:104FC000404141EB010111F4801FA4F10104E9D13A
:104FD00091F0000F04BF01460020B1FA81F308BF31
:104FE0002033A3F10B03B3F120020CDA0C3208DDFD
:104FF00002F1140CC2F10C0201FA0CF021FA02F1D8
:105000000CE002F11402D8BFC2F1200C01FA02F147
:1050100020FA0CFCDCBF41EA0C019040E41AA2BF6C
:1050200001EB0451294330BD6FEA04041F3C1CDA34
:105030000C340EDC04F11404C4F1200220FA04F054
:1050400001FA02F340EA030021FA04F345EA0301FE
:1050500030BDC4F10C04C4F1200220FA02F001FAC0
:1050600004F340EA0300294630BD21FA04F0294642
:1050700030BD94F0000F83F4801306BF81F48011DB
:105080000134013D4EE77FEA645C18BF7FEA655C4E
:1050900029D094EA050F08BF90EA020F05D054EA20
:1050A000000C04BF1946104630BD91EA030F1EBF25
:1050B0000021002030BD5FEA545C05D14000494129
:1050C00028BF41F0004130BD14F580043CBF01F51C
:1050D000801130BD01F0004545F0FE4141F4700102
:1050E0004FF0000030BD7FEA645C1ABF19461046DD
:1050F0007FEA655C1CBF0B46024650EA013406BFDE
:1051000052EA033591EA030F41F4002130BD00BF9C
:1051100090F0000F04BF0021704730B54FF4806459
:1051200004F132044FF000054FF0000150E700BFDA
:1051300090F0000F04BF0021704730B54FF4806439
:1051400004F1320410F0004548BF40424FF0000126
:105150003EE700BF42004FEAE2014FEA31014FEA69
:1051600002701FBF12F07F4393F07F4F81F06051B8
:10517000704792F0000F14BF93F07F4F704730B527
:105180004FF4607401F0004521F0004120E700BFBA
:1051900050EA010208BF704730B54FF000050AE041
:1051A00050EA010208BF704730B511F0004502D542
:1051B000404261EB41014FF4806404F132045FEA44
:1051C000915C3FF4DCAE4FF003025FEADC0C18BFE9
:1051D00003325FEADC0C18BF033202EBDC02C2F1DF
:1051E000200300FA03FC20FA02F001FA03FE40EA71
:1051F0000E0021FA02F11444C1E600BF70B54FF071
:10520000FF0C4CF4E06C1CEA11541DBF1CEA135552
:1052100094EA0C0F95EA0C0F00F0DEF82C4481EABA
:10522000030621EA4C5123EA4C5350EA013518BFDA
:1052300052EA033541F4801143F4801338D0A0FBC7
:1052400002CE4FF00005E1FB02E506F00042E0FB74
:1052500003E54FF00006E1FB03569CF0000F18BF7A
:105260004EF0010EA4F1FF04B6F5007F64F5407422
:1052700004D25FEA4E0E6D4146EB060642EAC621B5
:1052800041EA55514FEAC52040EA5E504FEACE2E22
:10529000B4F1FD0C88BFBCF5E06F1ED8BEF1004F25
:1052A00008BF5FEA500E50F1000041EB045170BDA1
:1052B00006F0004646EA010140EA020081EA0301E5
:1052C000B4EB5C04C2BFD4EB0C0541EA045170BDE1
:1052D00041F480114FF0000E013C00F3AB8014F15B
:1052E000360FDEBF002001F0004170BDC4F10004A4
:1052F000203C35DA0C341BDC04F11404C4F1200525
:1053000000FA05F320FA04F001FA05F240EA02007F
:1053100001F0004221F0004110EBD37021FA04F6B5
:1053200042EB06015EEA430E08BF20EAD37070BD6F
:10533000C4F10C04C4F1200500FA04F320FA05F0CE
:1053400001FA04F240EA020001F0004110EBD370D0
:1053500041F100015EEA430E08BF20EAD37070BD40
:10536000C4F1200500FA05F24EEA020E20FA04F319
:1053700001FA05F243EA020321FA04F001F00041C8
:1053800021FA04F220EA020000EBD3705EEA430E39
:1053900008BF20EAD37070BD94F0000F0FD101F068
:1053A0000046400041EB010111F4801F08BF013CA1
:1053B000F7D041EA060195F0000F18BF704703F0DF
:1053C0000046520043EB030313F4801F08BF013D66
:1053D000F7D043EA0603704794EA0C0F0CEA135522
:1053E00018BF95EA0C0F0CD050EA410618BF52EADC
:1053F0004306D1D181EA030101F000414FF00000E2
:1054000070BD50EA410606BF1046194652EA4306EF
:1054100019D094EA0C0F02D150EA013613D195EA63
:105420000C0F05D152EA03361CBF104619460AD1AB
:1054300081EA030101F0004141F0FE4141F47001B5
:105440004FF0000070BD41F0FE4141F4780170BDA5
:1054500070B54FF0FF0C4CF4E06C1CEA11541DBF0A
:105460001CEA135594EA0C0F95EA0C0F00F0A7F80C
:10547000A4EB050481EA030E52EA03354FEA013139
:1054800000F088804FEA03334FF0805545EA13134C
:1054900043EA12634FEA022245EA111545EA106514
:1054A0004FEA00260EF000419D4208BF964244F1AB
:1054B000FD0404F5407402D25B084FEA3202B61ACA
:1054C00065EB03055B084FEA32024FF480104FF49E
:1054D000002CB6EB020E75EB030E22BFB61A754612
:1054E00040EA0C005B084FEA3202B6EB020E75EBA5
:1054F000030E22BFB61A754640EA5C005B084FEA0D
:105500003202B6EB020E75EB030E22BFB61A7546D9
:1055100040EA9C005B084FEA3202B6EB020E75EBE4
:10552000030E22BFB61A754640EADC0055EA060EA5
:1055300018D04FEA051545EA16754FEA06164FEAE8
:10554000C30343EA52734FEAC2025FEA1C1CC0D194
:1055500011F4801F0BD141EA00014FF000004FF021
:10556000004CB6E711F4801F04BF01430020B4F1E2
:10557000FD0C88BFBCF5E06F3FF6AFAEB5EB030C9A
:1055800004BFB6EB020C5FEA500C50F1000041EB97
:10559000045170BD0EF0004E4EEA113114EB5C0464
:1055A000C2BFD4EB0C0541EA045170BD41F4801137
:1055B0004FF0000E013C90E645EA060E8DE60CEA3F
:1055C000135594EA0C0F08BF95EA0C0F3FF43BAF5C
:1055D00094EA0C0F0AD150EA01347FF434AF95EA13
:1055E0000C0F7FF425AF104619462CE795EA0C0FF7
:1055F00006D152EA03353FF4FDAE1046194622E7C4
:1056000050EA410618BF52EA43067FF4C5AE50EA9D
:1056100041047FF40DAF52EA43057FF4EBAE12E78D
:1056200080F0004002E000BF81F0004142001FBF57
:105630005FEA410392EA030F7FEA226C7FEA236C60
:105640006AD04FEA1262D2EB1363C1BFD218414055
:1056500048404140B8BF5B42192B88BF704710F0EB
:10566000004F40F4000020F07F4018BF404211F08E
:10567000004F41F4000121F07F4118BF494292EAF6
:10568000030F3FD0A2F1010241FA03FC10EB0C0022
:10569000C3F1200301FA03F100F0004302D54942AF
:1056A00060EB4000B0F5000F13D3B0F1807F06D35C
:1056B00040084FEA310102F10102FE2A51D2B1F154
:1056C000004F40EBC25008BF20F0010040EA030049
:1056D0007047490040EB000010F4000FA2F10102F6
:1056E000EDD1B0FA80FCACF1080CB2EB0C0200FA80
:1056F0000CF0AABF00EBC25052421843BCBFD040CE
:105700001843704792F0000F81F4000106BF80F447
:1057100000000132013BB5E74FEA41037FEA226C0A
:1057200018BF7FEA236C21D092EA030F04D092F0D5
:10573000000F08BF0846704790EA010F1CBF002009
:10574000704712F07F4F04D1400028BF40F0004066
:10575000704712F100723CBF00F50000704700F086
:10576000004343F0FE4040F4000070477FEA2262AD
:1057700016BF08467FEA23630146420206BF5FEA7E
:10578000412390EA010F40F4800070474FF000037E
:1057900004E000BF10F0004348BF40425FEA000C45
:1057A00008BF704743F0964301464FF000001CE0ED
:1057B00050EA010208BF70474FF000030AE000BF43
:1057C00050EA010208BF704711F0004302D5404281
:1057D00061EB41015FEA010C02BF844601460020F3
:1057E00043F0B64308BFA3F18053A3F50003BCFA0E
:1057F0008CF2083AA3EBC25310DB01FA02FC6344BB
:1058000000FA02FCC2F12002BCF1004F20FA02F2C1
:1058100043EB020008BF20F00100704702F12002B4
:1058200001FA02FCC2F1200250EA4C0021FA02F215
:1058300043EB020008BF20EADC7070474FF0FF0C1A
:105840001CEAD0521EBF1CEAD15392EA0C0F93EA15
:105850000C0F6FD01A4480EA010C400218BF5FEAB7
:1058600041211ED04FF0006343EA501043EA51112A
:10587000A0FB01310CF00040B1F5000F3EBF490024
:1058800041EAD3715B0040EA010062F17F02FD2A28
:105890001DD8B3F1004F40EBC25008BF20F001000B
:1058A000704790F0000F0CF0004C08BF49024CEA22
:1058B000502040EA51207F3AC2BFD2F1FF0340EAB4
:1058C000C250704740F400004FF00003013A5DDC25
:1058D00012F1190FDCBF00F000407047C2F1000266
:1058E000410021FA02F1C2F1200200FA02FC5FEA53
:1058F000310040F1000053EA4C0308BF20EADC709D
:10590000704792F0000F00F0004C02BF400010F40E
:10591000000F013AF9D040EA0C0093F0000F01F0BB
:10592000004C02BF490011F4000F013BF9D041EADD
:105930000C018FE70CEAD15392EA0C0F18BF93EADF
:105940000C0F0AD030F0004C18BF31F0004CD8D109
:1059500080EA010000F00040704790F0000F17BF90
:1059600090F0004F084691F0000F91F0004F14D0D6
:1059700092EA0C0F01D142020FD193EA0C0F03D12E
:105980004B0218BF084608D180EA010000F0004031
:1059900040F0FE4040F40000704740F0FE4040F40C
:1059A000400070474FF0FF0C1CEAD0521EBF1CEAAB
:1059B000D15392EA0C0F93EA0C0F69D0A2EB0302C9
:1059C00080EA010C49024FEA402037D04FF0805363
:1059D00043EA111143EA10130CF000408B4238BF28
:1059E0005B0042F17D024FF4000C8B4224BF5B1A36
:1059F00040EA0C00B3EB510F24BFA3EB510340EA84
:105A00005C00B3EB910F24BFA3EB910340EA9C0031
:105A1000B3EBD10F24BFA3EBD10340EADC001B01A1
:105A200018BF5FEA1C1CE0D1FD2A3FF650AF8B4245
:105A300040EBC25008BF20F0010070470CF0004C52
:105A40004CEA50207F32C2BFD2F1FF0340EAC2507D
:105A5000704740F400004FF00003013A37E792F03E
:105A6000000F00F0004C02BF400010F4000F013A9C
:105A7000F9D040EA0C0093F0000F01F0004C02BF97
:105A8000490011F4000F013BF9D041EA0C0195E700
:105A90000CEAD15392EA0C0F08D142027FF47DAF99
:105AA00093EA0C0F7FF470AF084676E793EA0C0F89
:105AB00004D14B023FF44CAF08466EE730F0004C87
:105AC00018BF31F0004CCAD130F000427FF45CAF17
:105AD00031F000437FF43CAF5FE700BF4FEA400284
