:020000040800F2
:1000000050080020F50600085507000837220008B0
:1000100055070008550700085507000800000000B4
:10002000000000000000000000000000550700086C
:100030005507000800000000550700081D130008C0
:100040005507000855070008550700085507000820
:100050005507000855070008550700085507000810
:100060005507000855070008550700085507000800
:1000700055070008550700085507000855070008F0
:1000800055070008550700085507000855070008E0
:1000900029120008550700085507000855070008F1
:1000A0005507000811050008550700085507000806
:1000B00051050008A5050008F505000855070008CA
:1000C0005507000855070008550700080D010008EE
:1000D000550700085128000839290008212A00087E
:1000E00055070008550700085507000800000000E4
:1000F0000000000000000000000000000000000000
:1001000000000000000000005FF808F180B500AFBB
:100110007121114802F000F90346002B14BF01239E
:100120000023DBB2002B04D002210B4802F02EF991
:100130000FE06021084802F0EFF80346002B14BFDF
:1001400001230023DBB2002B03D00121024802F07F
:100150001DF900BF80BD00BF0030014080B485B0F4
:1001600000AF78600B467B800023FB730023BB81CC
:1001700000237B817B681B8A9AB27B881340BB81FA
:100180007B689B899AB27B8813407B81BB89002B5B
:1001900005D07B89002B02D00123FB7301E00023F3
:1001A000FB73FB7B18461437BD4680BC704700BF0D
:1001B00080B483B000AF78600B467B807B88DB43E4
:1001C0009AB27B681A8200BF0C37BD4680BC70476C
:1001D00080B500AF154A154B1B6843F0010313604F
:1001E0001249124B5A68124B13404B600F4A0F4B87
:1001F0001B6823F0847323F4803313600B4A0B4B8A
:100200001B6823F480231360084A084B5B6823F4BF
:10021000FE035360054B4FF41F029A6000F00CF888
:10022000044B4FF000629A6000BF80BD0010024096
:100230000000FFF800ED00E080B500AF00F002F82C
:1002400000BF80BD80B483B000AF00237B6000237B
:100250003B603A4A394B1B6843F480331360374B99
:100260001B6803F400333B607B6801337B603B68B1
:10027000002B03D17B68B3F5A06FF0D12F4B1B6827
:1002800003F40033002B02D001233B6001E0002384
:100290003B603B68012B4BD1294A294B1B6843F03B
:1002A00010031360264A264B1B6823F003031360D8
:1002B000234A234B1B6843F0020313601F4A1F4B62
:1002C0005B6853601D4A1D4B5B6853601B4A1B4BA8
:1002D0005B6843F480635360184A184B5B6823F4EF
:1002E0007C135360154A154B5B6843F4E813536065
:1002F000124A124B1B6843F08073136000BF0F4B10
:100300001B6803F00073002BF9D00C4A0B4B5B68A1
:1003100023F003035360094A084B5B6843F0020370
:10032000536000BF054B5B6803F00C03082BF9D149
:1003300000BF0C37BD4680BC704700BF00100240B4
:100340000020024080B400AF0C4B9B8C9BB21BB2D0
:10035000DB439BB2DB0BDBB2002B05D0084B1B68E9
:100360000133074A136004E0054B1B68013B044A54
:10037000136000BFBD4680BC704700BF002C014029
:100380004000002080B400AF4FF080439B8C9BB2B4
:100390001BB2DB439BB2DB0BDBB2002B05D0074B60
:1003A0001B680133054A136004E0044B1B68013BE2
:1003B000024A136000BFBD4680BC70474400002065
:1003C00080B400AF0C4B9B8C9BB21BB2DB439BB247
:1003D000DB0BDBB2002B05D0084B1B680133074A4F
:1003E000136004E0054B1B68013B044A136000BF27
:1003F000BD4680BC704700BF00040040480000209C
:1004000080B400AF0C4B9B8C9BB21BB2DB439BB206
:10041000DB0BDBB2002B05D0084B1B680133074A0E
:10042000136004E0054B1B68013B044A136000BFE6
:10043000BD4680BC704700BF000800404C00002053
:1004400080B400AF00BFBD4680BC704780B400AF31
:1004500000BFBD4680BC704780B400AF00BFBD4642
:1004600080BC704780B400AF00BFBD4680BC704701
:1004700080B400AF00BFBD4680BC704780B400AF01
:1004800000BFBD4680BC704780B400AF00BFBD4612
:1004900080BC704780B400AF00BFBD4680BC7047D1
:1004A00080B400AF044B1B680133034A136000BFE4
:1004B000BD4680BC704700BF4000002080B400AF44
:1004C000044B1B680133034A136000BFBD4680BC68
:1004D000704700BF4400002080B400AF044B1B688D
:1004E0000133034A136000BFBD4680BC704700BFA4
:1004F0004800002080B400AF044B1B680133034A5E
:10050000136000BFBD4680BC704700BF4C00002098
:1005100080B500AF0C4B1B68022B02D1FFF712FF16
:100520000CE0094B1B68012B02D1FFF789FF05E0A6
:10053000054B1B68032B01D1FFF7B2FF01210348D4
:10054000FFF736FE00BF80BD30000020002C0140C8
:1005500080B500AF124B1B68022B07D1FFF712FFCB
:1005600001214FF08040FFF723FE16E00C4B1B6883
:10057000012B07D1FFF76AFF01214FF08040FFF701
:1005800017FE0AE0064B1B68032B06D1FFF796FF08
:1005900001214FF08040FFF70BFE00BF80BD00BF80
:1005A0003400002080B500AF104B1B68022B06D131
:1005B000FFF706FF01210E48FFF7FAFD14E00B4B91
:1005C0001B68012B06D1FFF747FF01210848FFF701
:1005D000EFFD09E0054B1B68032B05D1FFF77CFFFE
:1005E00001210348FFF7E4FD00BF80BD3800002073
:1005F0000004004080B500AF3C4B1B68022B06D1C5
:10060000FFF7FEFE01213A48FFF7D2FD6CE0374BC1
:100610001B68012B5ED101213548FFF79FFD034682
:10062000012B0CBF01230023DBB2002B06D0FFF708
:1006300019FF01212E48FFF7BBFD55E002212C4890
:10064000FFF78CFD0346012B0CBF01230023DBB217
:10065000002B06D0FFF70CFF02212548FFF7A8FD6D
:1006600042E004212248FFF779FD0346012B0CBF2D
:1006700001230023DBB2002B06D0FFF7FFFE04218D
:100680001B48FFF795FD2FE008211948FFF766FD8D
:100690000346012B0CBF01230023DBB2002B06D045
:1006A000FFF7F2FE08211248FFF782FD1CE010213F
:1006B0000F48FFF753FD0346012B0CBF0123002316
:1006C000DBB2002B10D0FFF7E5FE10210848FFF742
:1006D0006FFD09E0054B1B68032B05D1FFF70AFFEF
:1006E00001210348FFF764FD00BF80BD3C000020EE
:1006F0000008004080B582B000AF114B7B60114B09
:100700003B6007E03B681A1D3A607A68111D79600A
:1007100012681A603B680C4A9342F3D30B480C49A9
:100720004FF000028842B8BF40F8042BFADBFFF715
:100730004FFD00F08FFD00BF0837BD4680BD00BFF4
:10074000583E00080000002030000020300000204B
:100750005004002080B400AFFEE700BF80B582B037
:1007600000AF78607B680E4A93420AD101214FF0B6
:10077000007001F0ABFA00214FF0007001F0A6FA12
:1007800009E001214FF0806001F0A0FA00214FF054
:10079000806001F09BFA00BF0837BD4680BD00BFF6
:1007A0000064004080B485B000AF786039600023F9
:1007B000FB730023BB607B681B6823F002027B682D
:1007C0001A607B681B6843F001027B681A6002E0D4
:1007D000BB680133BB607B685B6803F00103002BDF
:1007E00004D1BB684FF6FF729342F1D17B685B681E
:1007F00003F00103002B02D10023FB739CE03B6854
:100800009B79012B06D17B681B6843F080027B68D3
:100810001A6005E07B681B6823F080027B681A6021
:100820003B68DB79012B06D17B681B6843F04002F3
:100830007B681A6005E07B681B6823F040027B68D8
:100840001A603B681B7A012B06D17B681B6843F05A
:1008500020027B681A6005E07B681B6823F0200299
:100860007B681A603B685B7A012B06D17B681B684A
:1008700043F010027B681A6005E07B681B6823F078
:1008800010027B681A603B689B7A012B06D17B685B
:100890001B6843F008027B681A6005E07B681B68F0
:1008A00023F008027B681A603B68DB7A012B06D1D3
:1008B0007B681B6843F004027B681A6005E07B6874
:1008C0001B6823F004027B681A603B689B789A07D8
:1008D0003B68DB781B061A433B681B791B041A43F1
:1008E0003B685B791B051A433B681B88013B1A4335
:1008F0007B68DA617B681B6823F001027B681A6001
:100900000023BB6002E0BB680133BB607B685B68AF
:1009100003F00103002B04D0BB684FF6FF72934233
:10092000F1D17B685B6803F00103002B02D0002348
:10093000FB7301E00123FB73FB7B18461437BD46B4
:1009400080BC704780B485B000AF78600023FB6046
:100950007B689B7A1A4601239340FB60554A554BAE
:10096000D3F8003243F00103C2F800325149514B31
:10097000D3F81C22FB68DB431340C1F81C327B68B0
:100980001B7B002B25D14B494A4BD3F80C22FB682B
:10099000DB431340C1F80C3246497B689B7A18460A
:1009A0007B68DB881B047A6852881A4300F148038D
:1009B00041F833203F497B689B7A18467B689B88C7
:1009C0001B047A6812881A4300F14803DB000B44C9
:1009D0005A607B681B7B012B24D13649354BD3F8F9
:1009E0000C22FB681343C1F80C3232497B689B7AB6
:1009F00018467B681B881B047A6852881A4300F1EA
:100A0000480341F833202B497B689B7A18467B6862
:100A10009B881B047A68D2881A4300F14803DB00E4
:100A20000B445A607B68DB7A002B09D12149214BAA
:100A3000D3F80422FB68DB431340C1F8043207E01B
:100A40001C491C4BD3F80422FB681343C1F8043241
:100A50007B681B89002B08D11649164BD3F814224A
:100A6000FB68DB431340C1F814327B681B89012B00
:100A700007D110490F4BD3F81422FB681343C1F878
:100A800014327B685B7B012B07D10A49094BD3F8F1
:100A90001C22FB681343C1F81C32064A054BD3F8ED
:100AA000003223F00103C2F8003200BF1437BD4604
:100AB00080BC70470064004080B483B000AF7860B1
:100AC0007B6800229A717B680022DA717B680022C1
:100AD0001A727B6800225A727B6800229A727B68C5
:100AE0000022DA727B6800229A707B680022DA703A
:100AF0007B6803221A717B6802225A717B6801228B
:100B00001A8000BF0C37BD4680BC704780B485B0EA
:100B100000AFF8600B467A60FB72FB7AFA681B3311
:100B20001B0113441B68DBB203F00403DAB27B68D9
:100B30001A727B681B7A002B09D1FB7AFA681B3387
:100B40001B0113441B685A0D7B681A6008E0FB7A8E
:100B5000FA681B331B0113441B68DA087B685A6070
:100B6000FB7AFA681B331B0113441B68DBB203F0EA
:100B70000203DAB27B685A72FB7AFA681B331B01F4
:100B8000134404331B68DBB203F00F03DAB27B6853
:100B90009A72FB7AFA681B331B01134404331B68F7
:100BA0001B0ADAB27B68DA74FB7AFA681B01134419
:100BB00003F5DC731B68DAB27B68DA72FB7AFA68D9
:100BC0001B01134403F5DC731B681B0ADAB27B6854
:100BD0001A73FB7AFA681B01134403F5DC731B6874
:100BE0001B0CDAB27B685A73FB7AFA681B01134458
:100BF00003F5DC731B681B0EDAB27B689A73FB7A11
:100C0000FA681B01134403F5DE731B68DAB27B68D4
:100C1000DA73FB7AFA681B01134403F5DE731B6871
:100C20001B0ADAB27B681A74FB7AFA681B01134458
:100C300003F5DE731B681B0CDAB27B685A74FB7A0F
:100C4000FA681B01134403F5DE731B681B0EDAB24E
:100C50007B689A74FB7A002B06D1FB68DB6843F053
:100C60002002FB68DA6005E0FB681B6943F02002A4
:100C7000FB681A6100BF1437BD4680BC704700BFD7
:100C800080B485B000AFF860B9601346FB71FB79A2
:100C9000002B06D0FB685A69BB681A43FB685A618F
:100CA00006E0FB685A69BB68DB431A40FB685A617F
:100CB00000BF1437BD4680BC704700BF80B489B008
:100CC00000AF786039600023FB6100233B610023A3
:100CD000BB610023FB6000237B610023BB603B689A
:100CE000DB7803F00F03FB613B68DB7803F0100354
:100CF000002B05D03B689B781A46FB691343FB61C8
:100D00003B681B88DBB2002B44D07B681B687B618F
:100D10000023BB6138E00122BB6902FA03F3FB60E8
:100D20003B681B881A46FB6813403B613A69FB68C5
:100D30009A4226D1BB699B00FB600F22FB6802FA36
:100D400003F3BB60BB68DB437A6913407B61FA69DC
:100D5000FB6802FA03F37A6913437B613B68DB7833
:100D6000282B05D10122BB699A407B685A6108E0B3
:100D70003B68DB78482B04D10122BB699A407B6831
:100D80001A61BB690133BB61BB69072BC3D97B689F
:100D90007A691A603B681B88FF2B46D97B685B68C1
:100DA0007B610023BB613AE0BB690833012202FA90
:100DB00003F3FB603B681B881A46FB6813403B61EA
:100DC0003A69FB689A4227D1BB699B00FB600F22FE
:100DD000FB6802FA03F3BB60BB68DB437A6913402C
:100DE0007B61FA69FB6802FA03F37A6913437B615A
:100DF0003B68DB78282B05D1BB69083301229A4078
:100E00007B685A613B68DB78482B05D1BB690833A6
:100E100001229A407B681A61BB690133BB61BB69DF
:100E2000072BC1D97B687A695A6000BF2437BD4659
:100E300080BC704780B483B000AF78607B684FF6A9
:100E4000FF721A807B6802229A707B680422DA7033
:100E500000BF0C37BD4680BC704700BF80B483B074
:100E600000AF78600B467B8013467B707B78002B4D
:100E700003D07A887B681A6102E07A887B685A61BD
:100E800000BF0C37BD4680BC704700BF80B487B040
:100E900000AF78600B46FB7000233B610023FB60D2
:100EA00000237B610023BB607B68002B03DA2E4BA1
:100EB000DB697B6102E02C4B5B687B617B681B0C10
:100EC00003F00F03BB607B689BB23B617B6803F45C
:100ED0004013B3F5401F0AD17B6923F070637B6137
:100EE000214A214B5B6823F07063536021E07B68EB
:100EF00003F48013002B0ED00322BB6802FA03F325
:100F0000FB60FB68DB437A6913407B617B6943F0DC
:100F100070637B610DE07B685B0D1B013A6902FA2F
:100F200003F3DB437A6913407B617B6943F07063B1
:100F30007B61FB78002B08D07B685B0D1B013A6955
:100F400002FA03F37A6913437B617B68002B03DAAF
:100F5000054A7B69D36102E0034A7B69536000BFA5
:100F60001C37BD4680BC70470000014080B485B08E
:100F700000AFF860B9601346FB80FB68BA685A603E
:100F8000FB8803F520739AB2FB681A8000BF143700
:100F9000BD4680BC704700BF80B584B004AF00F090
:100FA000ABF910234FF400427749784800F0ACFECB
:100FB00010234FF480427449754800F0A5FE1023B9
:100FC0004FF400427049734800F09EFE1023012246
:100FD0007149724800F098FE102302226E49704851
:100FE00000F092FE102304226B496E4800F08CFE44
:100FF0001023082268496C4800F086FE1023102256
:1010000065496A4800F080FE48232022624968480A
:1010100000F07AFE482340225F49664800F074FEE3
:10102000482380225C49644800F06EFE4823012278
:101030006249634800F068FE482302225F49614824
:1010400000F062FE482304225C495F4800F05CFE29
:1010500048234FF4806259495C4800F055FE48230C
:101060004FF4006255495A4800F04EFE48234FF4B1
:1010700000725249574800F047FE48234FF48072EF
:101080004E49554800F040FE482380224B495348C2
:1010900000F03AFE482340224849514800F034FE0F
:1010A0004823202245494F4800F02EFE48231022B5
:1010B00042494D4800F028FE482308223F494B484A
:1010C00000F022FE48234FF400423349484800F024
:1010D0001BFE01214748FFF7D9FE4FF480630293BE
:1010E0002D4B01934FF4007300932B4B4FF461226F
:1010F0004149424801F0A2F94FF400630193264BA5
:1011000000934FF48053244A3D493E4800F0B4FB1D
:1011100001223C493C4801F003F81C493A4801F0DF
:1011200023F81B49384801F01FF81A49364801F0E6
:101130001BF81A49344801F017F81949324801F0F0
:1011400013F81849304801F00FF817492E4801F0FC
:101150000BF816492C4801F007F8012229492B48C1
:10116000FFF704FF2A4A2B49244801F047F92A4A8D
:101170002A49224801F042F9294A2A491F4801F028
:101180003DF900BFBD4680BD001001406800002051
:101190007400002080000020000801408C00002026
:1011A00098000020A4000020B0000020BC00002017
:1011B000280100203401002040010020000C0140E3
:1011C0004C01002058010020640100207001002023
:1011D0007C010020C8000020D4000020E000002096
:1011E000EC000020F8000020040100201001002085
:1011F0001C0100200002300000380140880100205E
:10120000006400408C010020A4010020D4010020D3
:10121000D83A0008183B0008283B0008343B000877
:10122000403B00084C3B000880B500AF064B1B88D4
:1012300001339AB2044B1A80044800F0C3FB0448FF
:1012400000F0ACFF00BF80BD580000208C010020E2
:10125000A401002080B500AFFFF79EFEFEE700BFAF
:1012600080B483B000AF03463960FB7197F9073053
:10127000002B0BDA0D49FB7903F00F03043B3A68AE
:10128000D2B21201D2B20B441A7609E0084997F99A
:1012900007303A68D2B21201D2B20B4483F800236D
:1012A00000BF0C37BD4680BC704700BF00ED00E0BA
:1012B00000E100E080B582B000AF78607B68B3F1F8
:1012C000807F01D3012311E00A4A7B6823F07F432A
:1012D000013B53600F214FF0FF30FFF7C1FF054B7B
:1012E00000229A60034B07221A6000231846083731
:1012F000BD4680BD10E000E080B500AF054B1B6827
:101300005B09054AA2FB0323DB091846FFF7D2FF5E
:1013100000BF80BD00000020C55A7C0A90B400AF19
:10132000054B18CB013344F10004034AC2E90034F1
:1013300000BFBD4690BC7047E001002080B483B080
:1013400000AF78600B46FB707B68FA781A70012357
:1013500018460C37BD4680BC704700BF80B485B0CE
:1013600000AF786039600023FB600AE07B685A1C9C
:101370007A603A68511C396012781A70FB68013340
:10138000FB603B681B78002BF0D1FB6818461437D4
:10139000BD4680BC704700BF80B586B000AFF86026
:1013A0007A603B600B46FB7200237B617B68013BEC
:1013B0007B603B68092B1DD93B681D4AA2FB0323B8
:1013C000DB08F97A7A68F868FFF7E6FF78617B69ED
:1013D000FA681344FB6010E0FB7A1946F868FFF7DF
:1013E000ADFFFB680133FB607B6901337B617B6888
:1013F000013B7B607B68002BEEDC39680C4BA3FB68
:101400000123DA0813469B0013445B00CA1AD3B2C7
:101410003033DBB21946F868FFF790FF02467B696C
:1014200013447B617B6918461837BD4680BD00BFF9
:10143000CDCCCCCC80B586B000AFF8607A603B6094
:101440000B46FB7200237B613B68002B03DA3B6891
:101450005B423B6101E03B683B617B68013B7B6039
:101460003B69092B1FD93B68002B0CDA3B692E4ADC
:10147000A2FB0323DB085B42F97A7A68F868FFF77E
:10148000D9FF78610AE03B69274AA2FB0323DB0806
:10149000F97A7A68F868FFF7CDFF78617B69FA68B6
:1014A0001344FB6025E03B68002B11DA7B68013BAD
:1014B0007B600DE0FB7A1946F868FFF73FFFFB6899
:1014C0000133FB607B6901337B617B68013B7B609F
:1014D0007B68002BEEDC3B68002B0ADA2D21F868D4
:1014E000FFF72CFF02467B6913447B61FB680133E5
:1014F000FB6039690C4BA3FB0123DA0813469B0000
:1015000013445B00CA1AD3B23033DBB21946F86811
:10151000FFF714FF02467B6913447B617B69184621
:101520001837BD4680BD00BFCDCCCCCC80B588B0CF
:1015300002AFF8607A601A460B46FB721346BB7224
:1015400000237B617B68013B7B603B6A1B09002BAE
:1015500020D03B6A1B09BA7AF97A009313467A685D
:10156000F868FFF7E3FF02467B6913447B617B6900
:10157000FA681344FB6010E0FB7A1946F868FFF73D
:10158000DDFEFB680133FB607B6901337B617B68B7
:10159000013B7B607B68002BEEDC3B6A03F00F03B2
:1015A000092B0BD83B6ADBB203F00F03DBB23033FD
:1015B000DBB21946F868FFF7C1FE19E0BB7A002BD1
:1015C0000BD03B6ADBB203F00F03DBB23733DBB285
:1015D0001946F868FFF7B2FE0AE03B6ADBB203F097
:1015E0000F03DBB25733DBB21946F868FFF7A6FEEC
:1015F0007B6901337B617B6918461837BD4680BD26
:1016000080B58AB002AFF860B9607A603B600023B1
:10161000BB6100237B61FB68002B00F0FC80FB6852
:1016200000221A70F7E07B681B78252B0BD0FB6833
:101630005A1CFA607A68511C796012781A707B69BA
:1016400001337B61E7E07B6801331B78252B0BD1ED
:10165000FB685A1CFA6025221A707B6802337B6093
:101660007B6901337B61D6E02023FB770023BB77C6
:101670007B6801337B607B681B78302B14D130236F
:10168000FB777B6801337B600EE0BB7F1A469200DC
:1016900013445B00DAB27B681B781344DBB2303B47
:1016A000BB777B6801337B607B681B782F2B03D96A
:1016B0007B681B78392BE8D9BA7F7B6913441A46BB
:1016C000BB689A4205D9BB68DAB27B69DBB2D31A30
:1016D000BB777B681B78583B202B00F28E8001A2E1
:1016E00052F823F0B5170008FB170008FB17000895
:1016F000FB170008FB170008FB170008FB17000882
:10170000FB170008FB170008FB170008FB17000871
:10171000E517000869170008FB170008FB17000809
:10172000FB170008FB17000869170008FB170008E3
:10173000FB170008FB170008FB170008FB17000841
:10174000FB170008FB170008FB170008FB17000831
:10175000D1170008FB17000881170008FB170008C5
:10176000FB17000899170008B87F3B681A1D3A60FC
:101770001B68F97F0246F868FFF75CFEB8613FE03E
:10178000B87F3B681A1D3A601B68F97F0246F8680B
:10179000FFF702FEB86133E0B87F3B681A1D3A607C
:1017A0001B68F97F009300230246F868FFF7BEFE2E
:1017B000B86125E0B87F3B681A1D3A601B68F97F65
:1017C000009301230246F868FFF7B0FEB86117E006
:1017D0003B681A1D3A601B681946F868FFF7BEFDA2
:1017E000B8610DE03B681A1D3A601B68DBB2194610
:1017F000F868FFF7A3FDB86102E04FF0FF3325E082
:101800007B6801337B60BB69FA681344FB607A69CB
:10181000BB6913447B617B681B78002B04D07A6919
:10182000BB689A42FFF4FFAE7A69BB689A4203D262
:10183000FB6800221A7008E0FB68013BFB60FB6854
:1018400000221A707B69013B7B617B691846203757
:10185000BD4680BD80B584B000AFF860B9607A60E5
:101860007B68BA686421F868FFF7CAFE0346184629
:101870001037BD4680BD00BF80B588B002AFF860AC
:10188000B9607A607B80FB68BA681A607A88BB8C22
:1018900000933B6A7968F86800F07AF8FB681B6887
:1018A0000B4A934201D100F0A3F800237B617B69CE
:1018B000332B08DC074A7B69002122F813107B696F
:1018C00001337B61F3E700BF1837BD4680BD00BF21
:1018D00000640040EC01002080B584B000AFF860E7
:1018E000084611461A4603467B810B463B81134648
:1018F000FB807B89002B0CD0234B1B881946234A85
:101900007B8922F81130204B1B8801339AB21E4B81
:101910001A803B89002B0CD01B4B1B8819461B4A95
:101920003B8922F81130184B1B8801339AB2164BB1
:101930001A80FB88002B0CD0134B1B881946134AC6
:10194000FB8822F81130104B1B8801339AB20E4BE2
:101950001A803B8B002B0CD00B4B1B8819460B4A73
:101960003B8B22F81130084B1B8801339AB2064B8F
:101970001A803B8BFA883989788900F079F800BFA2
:101980001037BD4680BD00BFE8010020EC010020FB
:1019900080B58AB000AFF860B9603B601346FB8049
:1019A000FA8807F110001823B96800F0ADF93A8EF3
:1019B00007F11C000423396800F0A6F900BF28379E
:1019C000BD4680BD80B582B000AF78607B681B6883
:1019D000064A934206D17B6804331A460021034825
:1019E000FFF794F800BF0837BD4680BD0064004093
:1019F00080B584B000AF1D48FEF7B0FE01214FF066
:101A0000007000F045F93B1D1846FFF755F801231B
:101A1000BB720023FB7200233B7300237B73002304
:101A2000FB730123BB710023FB7104233B7205236D
:101A30007B720323BB803B1D19460C48FEF7B2FEA8
:101A400014233B7000237B700123BB700123FB70C8
:101A50003B46184600F0FEFB012202210348FFF737
:101A60000FF900BF1037BD4680BD00BF00640040C5
:101A700090B587B000AF0446084611461A46234683
:101A8000FB800346BB800B467B8013463B80184B94
:101A90001B880D2B27D8164B1B88DBB2BB74012388
:101AA000FB7400233B75FB885B019BB27B81BB8889
:101AB0005B019BB2FB817B885B019BB23B813B88D6
:101AC0005B019BB2BB8100233B8201237B7507F145
:101AD00008031846FEF736FF054B1B8801339AB200
:101AE000034B1A8000E000BF1C37BD4690BD00BF0D
:101AF0005402002080B487B000AF786000237B617F
:101B000000233B610023FB600023BB604C4B5B6800
:101B100003F00C037B617B69042B07D0082B09D0F1
:101B2000002B33D17B68474A1A6033E07B68454A13
:101B30001A602FE0424B5B6803F470133B61404B2B
:101B40005B6803F48033FB603B699B0C02333B61B1
:101B5000FB68002B06D13B693B4A02FB03F27B6822
:101B60001A6017E0364B5B6803F40033002B06D095
:101B70003B69354A02FB03F27B681A600AE03B6965
:101B8000304A02FB03F27B681A6003E07B682D4A4F
:101B90001A6000BF2A4B5B6803F0F0037B617B692E
:101BA0001B097B61294A7B6913441B78DBB2BB604C
:101BB0007B681A68BB68DA407B685A60204B5B68B8
:101BC00003F4E0637B617B691B0A7B611F4A7B69CD
:101BD00013441B78DBB2BB607B685A68BB68DA4091
:101BE0007B689A60164B5B6803F460537B617B698A
:101BF000DB0A7B61154A7B6913441B78DBB2BB604F
:101C00007B685A68BB68DA407B68DA600C4B5B68BB
:101C100003F440437B617B699B0B7B610C4A7B69CE
:101C200013441B78DBB2BB607B68DA68BB68B2FB2D
:101C3000F3F27B681A6100BF1C37BD4680BC704759
:101C40000010024000127A0000093D00140000203C
:101C50002400002080B483B000AF78600B46FB7096
:101C6000FB78002B06D00949084B9A697B6813431F
:101C70008B6106E00549054B9A697B68DB4313409D
:101C80008B6100BF0C37BD4680BC7047001002401E
:101C900080B483B000AF78600B46FB70FB78002BFC
:101CA00006D00949084BDA697B681343CB6106E02B
:101CB0000549054BDA697B68DB431340CB6100BF04
:101CC0000C37BD4680BC70470010024080B483B022
:101CD00000AF78600B46FB70FB78002B06D00949FB
:101CE000084B1A697B6813430B6106E00549054BF5
:101CF0001A697B68DB4313400B6100BF0C37BD469C
:101D000080BC70470010024080B586B000AFF8601C
:101D1000B96011461A460B46FB8013467B71FB687F
:101D2000FA881A80FB68BA685A6001210420FFF71C
:101D300091FF01210820FFF78DFF01211020FFF7FF
:101D400089FF01212020FFF785FFFB687A791A724D
:101D500007F114031846FFF76DF8FB681B88BB8278
:101D6000FB681B7AFB750323BB75FB685B6807F197
:101D7000140211461846FEF7A1FF00BF1837BD46F2
:101D800080BD00BF80B582B000AF78600B46FB70AD
:101D90007B6858687B681B88FA781946FFF75EF8FD
:101DA000002318460837BD4680BD00BF80B58CB003
:101DB00000AF786039600023FB620023BB62002320
:101DC0007B6200233B620023FB617B68FB617B68D5
:101DD0001B8A9BB2FB62FA6A4CF6FF731340FB62EC
:101DE0003B68DB881A46FB6A1343FB62FB6A9AB2C4
:101DF0007B681A827B689B899BB2FB62FA6A4EF60B
:101E0000F3131340FB623B689A883B681B891343BA
:101E10009AB23B685B8913439BB21A46FB6A134331
:101E2000FB62FB6A9AB27B689A817B689B8A9BB251
:101E3000FB62FA6A4FF6FF431340FB623B689B89E3
:101E40001A46FB6A1343FB62FB6A9AB27B689A826A
:101E500007F108031846FFF74DFEFB692E4A93422F
:101E600002D17B69BB6201E03B69BB627B689B89F5
:101E70009BB21BB2002B0CDABA6A13469B001344C8
:101E80009A001A443B681B685B00B2FBF3F37B6269
:101E90000BE0BA6A13469B0013449A001A443B684D
:101EA0001B689B00B2FBF3F37B627B6A1B4AA2FBBD
:101EB00003235B091B01FB62FB6A1B09642202FB13
:101EC00003F37A6AD31A3B627B689B899BB21BB28D
:101ED000002B0CDA3B6ADB003233104AA2FB0323EF
:101EE0005B0903F00703FA6A1343FB620BE03B6AEA
:101EF0001B013233094AA2FB03235B0903F00F03E2
:101F0000FA6A1343FB62FB6A9AB27B681A8100BFCC
:101F10003037BD4680BD00BF003801401F85EB5102
:101F200080B483B000AF78607B684FF416521A60BB
:101F30007B6800229A807B680022DA807B6800221E
:101F40001A817B680C225A817B6800229A8100BF2B
:101F50000C37BD4680BC704780B483B000AF78605A
:101F60000B46FB70FB78002B08D07B689B899BB2EB
:101F700043F400539AB27B689A8107E07B689B899F
:101F80009BB223F400539AB27B689A8100BF0C374E
:101F9000BD4680BC704700BF80B487B000AF78609A
:101FA0000B467B8013467B7000233B610023FB6064
:101FB0000023BB6000237B617B687B617B88DBB295
:101FC0005B09DBB23B617B8803F01F03FB600122EE
:101FD000FB6802FA03F3BB603B69012B03D17B6909
:101FE0000C337B6109E03B69022B03D17B69103321
:101FF0007B6102E07B6914337B617B78002B06D028
:102000007B697A691168BA680A431A6006E07B69DD
:102010007A691168BA68D2430A401A6000BF1C3757
:10202000BD4680BC704700BF80B483B000AF78600D
:102030000B467B807B88C3F308039AB27B689A8047
:1020400000BF0C37BD4680BC704700BF80B483B072
:1020500000AF78607B689B889BB2C3F308039BB298
:1020600018460C37BD4680BC704700BF80B487B0AF
:1020700000AF78600B467B800023FB6000237B6110
:102080000023BB600023FB747B88DBB25B09DBB2FF
:10209000BB607B8803F01F037B6101227B6902FA2E
:1020A00003F37B61BB68012B07D17B689B899BB2E3
:1020B0001A467B6913407B6111E0BB68022B07D194
:1020C0007B681B8A9BB21A467B6913407B6106E0E2
:1020D0007B689B8A9BB21A467B6913407B617B8835
:1020E0001B0A9BB2FB600122FB6802FA03F3FB6050
:1020F0007B681B889BB21A46FB681340FB607B69B8
:10210000002B05D0FB68002B02D00123FB7401E0FB
:102110000023FB74FB7C18461C37BD4680BC70470F
:1021200080B586B002AFF860B9601346FB80FB68EB
:10213000BA68DA62FB8803F520739AB2FB681A85E5
:10214000FB68002283F82A20FB68D86AFB68198D97
:102150000023009300230022FFF7BEFB0023184654
:102160001037BD4680BD00BF80B483B000AF78603B
:1021700039607B6893F82A3019467B683A6843F8DF
:1021800021207B6893F82A300133DAB27B6883F828
:102190002A2000BF0C37BD4680BC704780B584B094
:1021A00000AF78607B68DB6A5B687A68128D934267
:1021B00033D10023FB607B6893F82A301A46FB6812
:1021C0009A422ADD7B68DB6ADB7B1A46FB6842FAAF
:1021D00003F303F00103002B1BD07B68DB6A1B7C3D
:1021E0001A46FB6842FA03F303F00103002B08D000
:1021F0007B68FA6853F8223001211846FFF7C2FDC8
:1022000007E07B68FA6853F8223000211846FFF790
:10221000B9FDFB680133FB60CDE700BF1037BD4659
:1022200080BD00BFABBE01E000207047002A00D097
:10223000106001207047069801884BF6AB6291420E
:1022400002D1043006907047FEE7000080B400AF72
:10225000FEE700BF80B487B000AF786000237B61E9
:1022600000233B610F23FB607B68DB78002B3AD0B7
:10227000274BDB68DB4303F4E0631B0A7B617B696C
:10228000C3F104033B61FA687B6922FA03F3FB6044
:102290007B685B781A463B6902FA03F37B617B68D3
:1022A0009B781A46FB6813407A6913437B617B690C
:1022B0001B017B61174A7B681B787969C9B213449B
:1022C0000A4683F80023134A7B681B785B09DBB25C
:1022D00018467B681B7803F01F03012101FA03F302
:1022E00042F820300FE00B497B681B785B09DBB2BA
:1022F00018467B681B7803F01F0301229A4000F107
:10230000200341F8232000BF1C37BD4680BC704726
:1023100000ED00E000E100E080B485B000AF78603F
:102320000B46FB700023FB730023BB8100237B81E2
:1023300000233B81FB7803F00F03012202FA03F331
:10234000BB81FB781B09DBB27B817B89012202FA0E
:1023500003F37B817B689B889AB27B8913403B8126
:102360007B681B899AB2BB8913409BB2002B05D0B6
:102370003B89002B02D00123FB7301E00023FB7398
:10238000FB7B18461437BD4680BC704780B485B0CF
:1023900000AF78600B46FB700023FB81FB7803F0F5
:1023A0000F03012202FA03F3FB81FB89DB439AB29C
:1023B0007B681A8100BF1437BD4680BC704700BFE0
:1023C00080B584B000AF786039600023FB60FB68A3
:1023D0003A6813441B78002B0BD0FB683A6813440F
:1023E0001B781946786800F089F8FB680133FB60B8
:1023F000EDE700BF1037BD4680BD00BF0EB480B50D
:10240000A5B000AF786007F1A003C7F88C3007F1E2
:102410000C03D7F88C20D7F89C101846FFF71AFA4F
:1024200007F10C0319467868FFF7CAFF00BF94371D
:10243000BD46BDE8804003B0704700BF80B586B0A0
:1024400002AFF860B9607A603B60FB68BA681A60F6
:102450003A8B3B8C0093FB693968F86800F00CF903
:10246000FB681B68224A934211D1786800F01EF97C
:1024700040F2255000F098F940F2277000F094F9EE
:10248000012240F227711A48FFF786FD2CE0FB6815
:102490001B68184A934211D1786800F031F940F274
:1024A000255000F09DF940F2277000F099F90122C3
:1024B00040F227710F48FFF76FFD15E0FB681B68BE
:1024C0000D4A934210D1786800F044F940F225504B
:1024D00000F0A2F940F2277000F09EF9012240F2CC
:1024E00027710548FFF758FD00BF1037BD4680BD76
:1024F00000380140004400400048004080B582B0F0
:1025000000AF78600B46FB707B681B684E4A9342B5
:102510002ED1012240F227714B48FFF73DFD4B4B76
:102520001B881A464A4B1B8801339A420CD1474BF1
:102530001B8801339AB2454B1A80444B1B887F2B72
:1025400002D9424B00221A80414B1B881946414A4E
:10255000FB7853543E4B1B8801339AB23C4B1A8094
:102560003B4B1B887F2B6AD9394B00221A8066E0CF
:102570007B681B68384A93422ED1012240F22771B2
:102580003548FFF709FD354B1B881A46344B1B882D
:1025900001339A420CD1314B1B8801339AB22F4B35
:1025A0001A802E4B1B887F2B02D92C4B00221A80BD
:1025B0002B4B1B8819462B4AFB785354284B1B88FE
:1025C00001339AB2264B1A80254B1B887F2B36D9B4
:1025D000234B00221A8032E07B681B68224A934218
:1025E0002DD1012240F227711F48FFF7D5FC1F4B68
:1025F0001B881A461E4B1B8801339A420CD11B4B79
:102600001B8801339AB2194B1A80184B1B887F2BF9
:1026100002D9164B00221A80154B1B881946154A01
:10262000FB785354124B1B8801339AB2104B1A801B
:102630000F4B1B887F2B02D90D4B00221A8000BF45
:102640000837BD4680BD00BF00380140440300206C
:1026500046030020C402002000440040C8030020BC
:10266000CA03002048030020004800404C0400201A
:102670004E040020CC03002080B58AB000AFF86083
:10268000B9603B601346FB80FA8807F11C001823F1
:10269000B968FFF739FB3A8E07F110004823396813
:1026A000FFF732FB00BF2837BD4680BD80B586B03E
:1026B00000AF786001214FF48040FFF7CBFA07F1BB
:1026C00008031846FFF72CFC7B68BB600C237B8259
:1026D00000233B824FF40053FB810023BB8107F1B1
:1026E000080319460548FFF761FB01210348FFF77E
:1026F00033FC00BF1837BD4680BD00BF0038014025
:1027000080B586B000AF786001214FF40030FFF74C
:10271000BFFA07F108031846FFF702FC7B68BB60AD
:102720000C237B8200233B824FF40053FB81002368
:10273000BB8107F1080319460548FFF737FB012164
:102740000348FFF709FC00BF1837BD4680BD00BF36
:102750000044004080B586B000AF786001214FF49E
:102760008020FFF795FA07F108031846FFF7D8FB1A
:102770007B68BB600C237B8200233B824FF40053B9
:10278000FB810023BB8107F1080319460548FFF7C9
:102790000DFB01210348FFF7DFFB00BF1837BD46E3
:1027A00080BD00BF0048004080B584B000AF034644
:1027B000FB8025233B730023BB730123FB7307F1CD
:1027C0000C031846FFF746FDFB8801221946034813
:1027D000FFF7E2FB00BF1037BD4680BD0038014067
:1027E00080B584B000AF0346FB8026233B730023F3
:1027F000BB730123FB7307F10C031846FFF72AFD97
:10280000FB88012219460348FFF7C6FB00BF1037BB
:10281000BD4680BD0044004080B584B000AF034693
:10282000FB8027233B730023BB730123FB7307F15A
:102830000C031846FFF70EFDFB88012219460348DA
:10284000FFF7AAFB00BF1037BD4680BD004800401F
:1028500090B583B000AF40F225513148FFF706FC38
:102860000346012B0CBF01230023DBB2002B22D037
:102870002B48FFF7EBFB0346FB71FB799BB2194634
:102880002748FFF7D1FB274B1B881C462448FFF73E
:10289000DDFB0346DAB2244B1A55224B1B88013369
:1028A0009AB2204B1A801F4B1B881F2B34D91D4B0B
:1028B00000221A8030E040F227711948FFF7D6FB5A
:1028C0000346002B14BF01230023DBB2002B23D0CF
:1028D000164B1A88164B1B889A4217D0144B1B882C
:1028E0001A46144B9B5C9BB219460D48FFF79CFBA4
:1028F0000F4B1B8801339AB20D4B1A800C4B1B886F
:102900007F2B09D90A4B00221A8005E0002240F2F1
:1029100027710348FFF740FB00BF0C37BD4690BD51
:102920000038014028000020580200204603002003
:1029300044030020C402002090B583B000AF40F2F1
:1029400025513148FFF792FB0346012B0CBF0123B1
:102950000023DBB2002B22D02B48FFF777FB034686
:10296000FB71FB799BB219462748FFF75DFB274BAC
:102970001B881C462448FFF769FB0346DAB2244B48
:102980001A55224B1B8801339AB2204B1A801F4BD9
:102990001B881F2B34D91D4B00221A8030E040F2D7
:1029A00027711948FFF762FB0346002B14BF012370
:1029B0000023DBB2002B23D0164B1A88164B1B8842
:1029C0009A4217D0144B1B881A46144B9B5C9BB23F
:1029D00019460D48FFF728FB0F4B1B8801339AB2AD
:1029E0000D4B1A800C4B1B887F2B09D90A4B0022F8
:1029F0001A8005E0002240F227710348FFF7CCFA65
:102A000000BF0C37BD4690BD004400402A000020A6
:102A10007C020020CA030020C803002048030020D5
:102A200090B583B000AF40F225513148FFF71EFB4F
:102A30000346012B0CBF01230023DBB2002B22D065
:102A40002B48FFF703FB0346FB71FB799BB219464A
:102A50002748FFF7E9FA274B1B881C462448FFF755
:102A6000F5FA0346DAB2244B1A55224B1B88013380
:102A70009AB2204B1A801F4B1B881F2B34D91D4B39
:102A800000221A8030E040F227711948FFF7EEFA71
:102A90000346002B14BF01230023DBB2002B23D0FD
:102AA000164B1A88164B1B889A4217D0144B1B885A
:102AB0001A46144B9B5C9BB219460D48FFF7B4FABB
:102AC0000F4B1B8801339AB20D4B1A800C4B1B889D
:102AD0007F2B09D90A4B00221A8005E0002240F220
:102AE00027710348FFF758FA00BF0C37BD4690BD69
:102AF000004800402C000020A00200204E040020CE
:102B00004C040020CC03002003685A004CBF43F063
:102B1000004323F000431844704700BF61B32DE920
:102B2000F84F01F1FF3A90460646D146002707EBE1
:102B3000090404EBD4746410E50071190846FFF72A
:102B4000E3FFA245834605F10800304409D0FFF7B2
:102B5000DBFFC34500F1FF3005D8404509D2671CB3
:102B6000E5E7C34505D9A74202D004F1FF39DEE706
:102B700000210846BDE8F88F08467047012807D0B5
:102B8000022807D0044B00280CBF184600207047CD
:102B90000248704702487047913200089532000899
:102BA0009932000830B5254B83B004468D1E7BB3A7
:102BB00001A92846AFF3008020B301992A46FFF708
:102BC000ADFF0146F0B1FFF79FFF4B68A064012BFA
:102BD00012D0002B01F1040021DBFFF795FF002349
:102BE000E06423650368002B1DDBFFF78DFF0023E6
:102BF0002061184603B030BD002323610523184629
:102C000003B030BD002323610923184603B030BD53
:102C10000B490C4B0846591AC9100191CEE7012304
:102C2000E0642365DEE7C3F30360FFF7A7FF002836
:102C3000206114BF00230923DBE700BF0000000070
:102C4000903C0008583E0008036810B5DA070446B7
:102C500006D49B0700F1480009D500F05BFC23680F
:102C6000590709D51A070ED5DB0613D510BD00F09C
:102C700049FC23685907F5D404F1D00000F052FC58
:102C800023681A07F0D404F5A87000F053FC2368F9
:102C9000DB06EBD404F5E870BDE8104000F08EBC14
:102CA00003680BB1184470471846704709207047F5
:102CB000704700BF70B504460D4608E02A6C2369D2
:102CC000626121462A4601209847082808D1296CCC
:102CD0002046FFF767FF06460028EFD0FFF7B6FA59
:102CE0000728FBD13046296CFFF7E2FF281D00F0D2
:102CF000FDFB00BF2DE9F0470646ADF5727D03AD43
:102D00000C1D17460FCC0FC50FCC0FC50FCC0FC530
:102D100094E80F0002ACD6F80C80D6F8189085E83D
:102D20000F0000233046216C2360FFF73BFF054670
:102D3000002F14BF0A2709277DB1A36B47F01001AC
:102D40008DE810023246636401203346C04778BBE9
:102D500028460DF5727DBDE8F087236C4FF4F072C4
:102D6000736121467AA800F041FE33697AAA3146A0
:102D700038469847889B82468DE81002394663643E
:102D8000324633460120C04790B94FF4F0727AA919
:102D9000204600F02BFEBAF1080F06D1216C304618
:102DA000FFF700FF09270546C6E7BAF1070F04D071
:102DB00009200DF5727DBDE8F0872846216CFFF7EC
:102DC00077FF03A800F092FB406C7047F0B5CB6B27
:102DD000F9B00B640E1D01AD0F4604460FCE0FC5B2
:102DE0000FCE0FC50FCE0FC596E80F004FF0FF3680
:102DF00085E80F00009606E023696A462146984759
:102E00000828054608D110992046FFF7CBFE002878
:102E1000F2D0092079B0F0BD6846FFF715FF062D06
:102E2000F7D139462046FFF745FF00BF30B4DD6BD0
:102E3000C160826119461D64002230BC5AE700BFA0
:102E400070B54369C6680B6426B10122FFF752FFD3
:102E5000FFF7FCF903690A4604460D4601460220C5
:102E60009847072807D0082803D129462046FFF7AE
:102E700021FFFFF7EBF93046296CFFF719FF281DFA
:102E800000F034FBC2682AB110B4CC6B00220C6491
:102E900010BC2FE79AE700BF704700BF836813B1EB
:102EA000014601201847704700B5042907D8DFE81C
:102EB00001F00309060909000BB90F2A05D9022000
:102EC0005DF804FB01205DF804FB00EB8202526810
:102ED0001846019B1A605DF804FB00BF10B584B072
:102EE000002303AC0A4600941946FFF7DDFF039860
:102EF00004B010BD00B5042907D8DFE801F00309CC
:102F0000060909000BB90F2A05D902205DF804FB58
:102F100001205DF804FB019900EB82020968184664
:102F200051605DF804FB00BF10B584B004AC44F8F8
:102F3000042D00230A4600941946FFF7DBFF04B076
:102F400010BD00BFF0B5D36BADF50F7D1364151D3B
:102F500017AC07460E460FCD0FC40FCD0FC40FCDD3
:102F60000FC495E80F004FF0FF3584E80F00169569
:102F700011E016A86A46FFF7D7FF314616A8B847F2
:102F800080B9049B16AA694608209847052804467C
:102F900009D0092806D026996846FFF703FE0C21C0
:102FA0000028E6D0092416A8FFF74EFE20460DF5AE
:102FB0000F7DF0BD2DE9F04FCC6C914622688BB0AF
:102FC00004340D460792089400F0030B1E46002BB4
:102FD00064D11202032307928DF825608DF8243006
:102FE0002B6DBBF1020F08BFAC6B13F0010343D193
:102FF00000F00800C2B2039201932768002F3DD071
:10300000022E47D02788B4F802800434AB6C28F035
:10301000010A0F2148469A44FFF760FF824537D8DE
:1030200027F001039A4450452CBF002001204FEAAD
:10303000480808F0020807F0010748EA0708B8F155
:10304000010F41D038D3B8F1020F1DD1236823F00E
:1030500000420292BBF1000F79D130B103990029EF
:1030600000F08180002A00F0A880002B79DB029B11
:10307000013304EB8304C0E700230193022E40DDFB
:10308000FFF714FE002842D009200BB0BDE8F08FF6
:103090000020CCE7D4F804800834B7E7022B9FDC8B
:1030A000130CD9B212048DF82530022304EB8104ED
:1030B00007928DF8243093E7BBF1000F02D000286F
:1030C00040F0B080043498E7BBF1000F26D1B0B1D6
:1030D00094E80C00991C4FEAD272D5D005F1580142
:1030E0000133069100F09480201DFFF7D9FD06AB57
:1030F00001462846AFF30080002840F0B88008342D
:103100007BE707A9484600F0F3FA0028BCD1019BF1
:10311000002B5CD108200BB0BDE8F08F0D21484694
:103120002F6AFFF7DBFE8742E9D1AB6A9C42E6D10A
:103130002046FFF7E9FC0F2102464846FFF7F4FE60
:1031400048462A460021FFF7EFFE07209DE70D21A4
:1031500048462F6AFFF7C2FE874248D02368002BFB
:1031600085DA043483E7029B3BB305F15803271D3E
:10317000CDF810B0DDF80C80A346DDF808A01C46A1
:10318000059602E0B245B04616D038460694FFF7E1
:1031900087FD06AB014600222846AFF3008008F108
:1031A000010604370028EDD0029B5C464345DDF85C
:1031B00010B0059ED2D100E05C4648460D21FFF7D5
:1031C0008DFE069B2862AC626B6206205DE70F21D4
:1031D0004846FFF783FE0E2102464846FFF7A4FE4D
:1031E00048462A4A0F21FFF79FFE07204DE7AB6AAA
:1031F0009C42B3D1042202990027A318A962EF626E
:103200002A636B632368BB421FDB012301932EE714
:1032100048460D21FFF762FE2862069B6B62AC6296
:10322000062032E72046FFF76FFC04340646AC6305
:103230002846AFF3008000283FF426AF48463246C8
:103240000F21FFF771FE07201FE70846013004EB4E
:103250008000FFF759FC0F2102464846FFF764FE45
:1032600048462A463946FFF75FFE07200DE7074626
:103270000D214846FFF732FE022F2862CDD12B46A2
:10328000069A43F82C2F6B62C9E700BF00000000CC
:1032900000238FE601238DE602238BE6F0B504467A
:1032A000C5B004290DD8DFE801F057030C310F0039
:1032B000012B4FEA124695B266D17219102A40F2DC
:1032C0009F80022045B0F0BD002BFAD1102AF8D81B
:1032D0002368D80600F1C98022AE3046019200F082
:1032E00077F9A06B019A0023012505FA03F1114239
:1032F00003D00168043046F823100133042BF4D1C5
:10330000A063304600F05AF90020DBE7032BD8D148
:10331000150C97B2EB19102BD3D823681E0700F1B8
:10332000B88022AE30467F0000F026F906EBC502D9
:103330007B1EA56B57B12946043A51F8040B013B9B
:1033400042F8040F581CF8D105EB87053046A563F9
:1033500000F0F0F80020B5E7002BB2D1A56B97B2D2
:10336000201D012606FA03F1394203F1010302D0C0
:10337000296804350160102B00F10400F2D112F429
:1033800000503BD1A5639DE7052B9AD17719202FDB
:1033900097D80F2E65D92F46002D48D12A460027F1
:1033A000002AA06B71DD00EBC202014644A800EBCD
:1033B000C6008C3851F8045B914240F8045FF9D1A3
:1033C000084697B13246102E44A938BF102201EBAF
:1033D000C202A2F5C4727900043A00EB810150F8F0
:1033E000045B814242F8045FF9D1012B47D00F2ED4
:1033F000A16332D917B102A800F094F8002061E768
:103400000F2E3FF65EAF00272268D1070DD522F0C0
:103410000101052B21600193204652D022F00302C6
:1034200040F8482B00F072F8019B002F51D0226821
:10343000510736D4012B3ED00F2E06D822A8019377
:1034400000F06CF8019B002FA8D002A8019300F0B7
:103450006DF8019BC6F11002A2E722A800F05AF80D
:10346000C8E7102FCFD9103FCEE723F01003236019
:1034700004F5E870019200F0ABF8019A2CE70431F2
:10348000A16322A800F03EF8B8E7002F9AD10146C8
:10349000ABE723F00803236004F5A87000F06CF894
:1034A0003FE7204622F0040240F8D02B019300F0C1
:1034B0003DF8019BBEE722A8019300F027F8019B8D
:1034C000C8E741F0020140F8481B00F027F8019BD3
:1034D000ABE7012B03D00F2E3FF660AFAEE722A87B
:1034E000019300F013F8019B58E700BF00F134018D
:1034F00091E838009C46A6464CF8045D90E8FF0F22
:10350000E54600BD90EC210B704700BF80EC210B1D
:10351000704700BF90EC200B704700BF80EC200B81
:10352000704700BFD0EC200B704700BFC0EC200BF1
:10353000704700BFF0EC0201F0EC0211F0EC022148
:10354000F0EC0231F0EC0241F0EC0251F0EC0261DF
:10355000F0EC0271F0EC0281F0EC0291F0EC02A1CF
:10356000F0EC02B1F0EC02C1F0EC02D1F0EC02E1BF
:10357000F0EC02F1704700BFE0EC0201E0EC021158
:10358000E0EC0221E0EC0231E0EC0241E0EC02511F
:10359000E0EC0261E0EC0271E0EC0281E0EC02910F
:1035A000E0EC02A1E0EC02B1E0EC02C1E0EC02D1FF
:1035B000E0EC02E1E0EC02F1704700BFB0FC0181F9
:1035C000B0FC0191B0FC01A1B0FC01B1704700BF9B
:1035D000A0FC0181A0FC0191A0FC01A1A0FC01B113
:1035E000704700BFEC4600B52DE900502DE9FF1FE4
:1035F0004FF000032DE90C0001A9FFF7E7FBDDF810
:1036000040E012B0704700BFEC4600B52DE9005015
:103610002DE9FF1F4FF000032DE90C0001A9FFF772
:103620000FFCDDF840E012B0704700BFEC4600B57B
:103630002DE900502DE9FF1F4FF000032DE90C008C
:1036400001A9FFF71FFCDDF840E012B0704700BF92
:10365000EC4600B52DE900502DE9FF1F4FF00003A7
:103660002DE90C0001ABFFF7E1FBDDF840E012B003
:10367000704700BFEC4600B52DE900502DE9FF1F53
:103680004FF000032DE90C0001AAFFF75BFCDDF809
:1036900040E012B0704700BF037A1BB9437A43B9C8
:1036A000B02070475A1E036802721A020260180E98
:1036B00070474268013B10B4437213680321141D24
:1036C00001721A024460026010BC180E704700BFFD
:1036D00000B585B003AA0023009219460C22FFF71B
:1036E000E3FB039805B05DF804FB00BFF0E700BF03
:1036F0002DE9F04306460D4685B04FF000082846F8
:10370000FFF7CAFFB028044600F0B48020F07F0322
:1037100013F0FF0320D000F0F003802B7AD0902B21
:1037200035D0A02B48D0B02B5CD0C02B00F08980C6
:1037300000F0F803D02B0BD100F00702013242F465
:103740000022052301213046FFF7A8FD0028D6D02E
:10375000092005B0BDE8F0830DF10C09194687007A
:10376000CDF800900D223046FFF79EFBFFB2039B81
:10377000043760064CBFDF1BFF180023CDF8009014
:1037800019460D2230460397FFF7B4FBB7E700F068
:103790000D030D2BDCD003AF002300F00F02194600
:1037A00000973046FFF780FB0023009719460D2253
:1037B0003046FFF79FFBA2E7C2434FF47F6302F05E
:1037C000070243FA02F2010702EA03024FF0000384
:1037D00048BF42F4804219463046FFF75FFD00289B
:1037E000B6D18CE7B1284AD0B22853D0B32800F024
:1037F000818000F0FC03B42BAAD000F00702013254
:10380000012342F4002219463046FFF747FD002805
:103810009ED174E72846FFF73FFF24022043B0F50E
:10382000004F95D004010023A2B219463046FFF79D
:1038300035FD00288CD114F4004F18BF4FF001085B
:103840005DE7C62862D0C7286CD000F0F803C02B13
:103850007BD0C82800F09180C9287FF479AF284632
:10386000FFF71AFF020300F00F0002F4702201308C
:10387000024366E7B8F1000F6ED0002069E72846E2
:10388000FFF70AFF024600283FF462AF10F0F00392
:10389000B9D05DE700230DF10C090D221946CDF8D2
:1038A00000903046FFF700FB2846FFF7F5FE0206C2
:1038B0004FF002040CD5039B00F07F00A0400344AE
:1038C00028460393FFF7E8FE030604F10704F2D449
:1038D000039B00F07F0000FA04F203F5017400235B
:1038E0001444CDF8009019460D2230460394FFF79A
:1038F00001FB04E72846FFF7CFFE010300F00F00AD
:1039000001F47021421C01230A437CE72846FFF79B
:10391000C3FE010300F00F0001F47021421C0323D9
:103920000A4370E72846FFF7B7FE024600283FF437
:103930000FAF10F0F0037FF40BAF04213046FFF718
:10394000ADFC00287FF404AFD9E600F00F0201328D
:10395000032342F4202256E703AC43460E2241469D
:1039600000943046FFF7A0FA0094304643460F22F9
:103970004146FFF7BFFA4046EBE62846FFF78CFECC
:1039800000F0F00200F00F031032013343EA02327C
:10399000D7E600BF10B5C36C84B003205A688DF819
:1039A0000C00DC7912020833084601A901928DF857
:1039B0000D400293FFF79CFE04B010BD08B5FFF761
:1039C00095FE806C08BD00BF08B5FFF78FFEC36C85
:1039D000D87903EB8000083008BD00BF08B5FEF7BA
:1039E00035FC00BF08B5FFF7F9FF00BF844641EA88
:1039F000000313F0030349D1403A23D30B6803605B
:103A00004B6843608B688360CB68C3600B6903615C
:103A10004B6943618B698361CB69C3610B6A036244
:103A20004B6A43628B6A8362CB6AC3620B6B03632C
:103A30004B6B43638B6B8363CB6BC3634030403111
:103A4000403ADBD230320BD30B6803604B684360E3
:103A50008B688360CB68C36010301031103AF3D2AA
:103A60000C3205D351F8043B40F8043B043AF9D238
:103A7000043208D0D2071CBF11F8013B00F8013B0B
:103A800001D30B8803806046704700BF082A13D318
:103A90008B07B1D010F00303AED0C3F10403D21AE8
:103AA000DB071CBF11F8013B00F8013BA4D331F840
:103AB000023B20F8023B9FE7043AD9D3013A11F8C0
:103AC000013B00F8013BF9D20B7803704B7843704F
:103AD0008B78837060467047433A5C5573657273A8
:103AE0005C6869726F79756B695C446F63756D654D
:103AF0006E74735C526F626F436F6E5C53544D33E0
:103B0000325C463130335F6D696E695F43505C6D86
:103B100061696E2E680000000A0D46494C45203D43
:103B20002025730A0D0000004665622031392032DD
:103B30003031370044415445203D2025730A0D00A3
:103B400032303A33323A30310000000054494D45AA
:083B5000203D2025730A0D0041
:103B580005970181B0B00884000000000397018137
:103B6800B0B008840000000009970181B0B0088453
:103B78000000000001970181B0B008840000000037
:103B880003970181B0B00884000000000697018106
:103B9800B0B009840000000005970181B0B0088426
:103BA8000000000001970181B0B008840000000007
:103BB80003970181B0B008840000000003970181D9
:103BC800B0B008840000000003970181B0B00884F9
:103BD80000000000249701810EB108840000000055
:103BE80003970181B0B008840000000001970181AB
:103BF800B0B008840000000009970181B0B00884C3
:103C08000000000005970181B0B0088400000000A2
:103C180005970181B0B00884000000000597018174
:103C2800B0B008840000000003970181B0B0088498
:103C38000000000003970181B0B008840000000074
:103C480003970181B0B00884000000000297018149
:103C5800B0B009840000000002970181B0B0098467
:103C68000000000002970181B0B009840000000044
:103C780008B10181B0B000840000000008B10181E2
:083C8800B0B000840000000050
:103C90007CC4FF7F08849780C4C4FF7F01000000BC
:103CA00070C8FF7F088497804CCAFF7F0100000026
:103CB000E8D2FF7F08849780A8D5FF7F010000002D
:103CC000B8DBFF7F94FEFF7F10DCFF7F98FEFF7F55
:103CD000C0DCFF7F9CFEFF7FECDCFF7FA0FEFF7F50
:103CE00010DDFF7FA4FEFF7F88DDFF7FA8FEFF7F42
:103CF00004DEFF7F0100000010E0FF7FA4FEFF7FD5
:103D000084E0FF7FA8FEFF7FA4E0FF7F01000000AA
:103D100010E4FF7FA4FEFF7F50E4FF7F010000005E
:103D20007CE4FF7FA0FEFF7FFCE4FF7F010000003A
:103D300090E6FF7F9CFEFF7FC4E6FF7FA0FEFF7F33
:103D4000FCE6FF7FA4FEFF7FB4E7FF7FA8FEFF7FB6
:103D500028E9FF7FACFEFF7F54E9FF7FB0FEFF7FC5
:103D6000A0E9FF7FB4FEFF7FECE9FF7FB8FEFF7F95
:103D700038EAFF7FBCFEFF7F68EAFF7FC0FEFF7F5F
:103D800098EAFF7FC4FEFF7FC8EAFF7FC8FEFF7F7F
:103D9000A8EBFF7FCCFEFF7F88ECFF7FD0FEFF7F8C
:103DA00068EDFF7F01000000FCEDFF7FB0A90280FD
:103DB00098EEFF7FB0B0A880E8EEFF7F0100000022
:103DC000F4EEFF7FB0B0AA802CEFFF7FAE71B2801F
:103DD000F8EFFF7F01000000F4EFFF7FAB3F38807A
:103DE0004CF0FF7F0100000058F0FF7FB0B0AA80C8
:103DF00094F0FF7F010000004CF1FF7FAB0EB2801A
:103E0000B4F1FF7FB0AF0A8088F4FF7F01000000AB
:103E10008CF4FF7FAB3F0480D4F6FF7F01000000ED
:103E2000B0F8FF7F00840480C4F8FF7F0100000029
:103E3000C0F8FF7FB0AD04805CFBFF7FB0A80380BB
:103E40007CFBFF7F34FEFF7F80FBFF7F38FEFF7F20
:083E50008CFBFF7F0100000064
:103E580000A24A0400000000000000000102030460
:103E68000607080900000000010203040102030418
:103E78000607080902040608010001000100000005
:0400000508000000EF
:00000001FF
