:020000040800F2
:10000000001300204D190008AD190008AD190008B3
:10001000AD190008AD190008AD1900080000000076
:10002000000000000000000000000000AD19000802
:10003000AD19000800000000AD190008012B0008F0
:10004000AD190008AD190008AD190008AD19000878
:10005000AD190008AD190008AD190008AD19000868
:10006000AD190008AD240008CD240008AD19000822
:10007000AD190008AD190008AD190008AD19000848
:10008000AD190008AD19000851240008AD19000889
:100090002D240008AD190008AD190008AD1900089D
:1000A000AD190008E1150008AD190008AD190008E8
:1000B000E5160008FD1700084D180008AD190008E6
:1000C000AD190008AD190008AD1900080D010008B0
:1000D000AD1900083D460008254700080D480008F6
:1000E0008D240008AD190008AD19000800000000BB
:1000F0000000000000000000000000000000000000
:1001000000000000000000005FF808F180B500AFBB
:100110007121114803F0F6FF0346002B14BF0123A1
:100120000023DBB2002B04D002210B4804F024F89A
:100130000FE06021084803F0E5FF0346002B14BFE1
:1001400001230023DBB2002B03D00121024804F07D
:1001500013F800BF80BD00BF0030014080B485B0FF
:1001600000AF786039600023FB817B681B88FB81CE
:100170007B682E4A934213D07B682D4A93420FD05E
:100180007B68B3F1804F0BD07B682A4A934207D03B
:100190007B68294A934203D07B68284A934208D15E
:1001A000FB8923F07003FB813B685A88FB8913436A
:1001B000FB817B68224A93420CD07B68214A9342A0
:1001C00008D0FB8923F44073FB813B68DA88FB8904
:1001D0001343FB817B68FA891A803B689A887B68A5
:1001E0009A853B681A887B681A857B680F4A934218
:1001F0000FD07B680E4A93420BD07B68124A934221
:1002000007D07B68114A934203D07B68104A93421F
:1002100004D13B681B7A9AB27B681A867B680122FC
:100220009A8200BF1437BD4680BC7047002C014045
:10023000003401400004004000080040000C004071
:100240000010004000140040004001400044014004
:100250000048014080B485B000AF78603960002369
:100260007B810023FB810023BB817B681B8C9BB2BD
:1002700023F001039AB27B681A847B681B8CFB8194
:100280007B689B88BB817B681B8B7B817B8923F090
:1002900070037B817B8923F003037B813B681A8891
:1002A0007B8913437B81FB8923F00203FB813B683D
:1002B0001A89FB891343FB813B685A88FB891343E6
:1002C000FB817B68244A93420FD07B68234A934288
:1002D0000BD07B68224A934207D07B68214A934225
:1002E00003D07B68204A934223D1FB8923F0080383
:1002F000FB813B685A89FB891343FB81FB8923F00F
:100300000403FB813B689A88FB891343FB81BB890B
:1003100023F48073BB81BB8923F40073BB813B68EA
:100320009A89BB891343BB813B68DA89BB89134334
:10033000BB817B68BA899A807B687A891A833B681B
:10034000DA887B689A867B68FA891A8400BF14373A
:10035000BD4680BC704700BF002C01400034014006
:1003600000400140004401400048014080B485B095
:1003700000AF7860396000237B810023FB8100237C
:10038000BB817B681B8C9BB223F010039AB27B6805
:100390001A847B681B8CFB817B689B88BB817B6894
:1003A0001B8B7B817B8923F4E0437B817B8923F456
:1003B00040737B813B681B881B029AB27B89134385
:1003C0007B81FB8923F02003FB813B681B891B0198
:1003D0009AB2FB891343FB813B685B881B019AB28D
:1003E000FB891343FB817B68224A934203D07B68DD
:1003F000214A93422BD1FB8923F08003FB813B6888
:100400005B891B019AB2FB891343FB81FB8923F0B3
:100410004003FB813B689B881B019AB2FB89134315
:10042000FB81BB8923F48063BB81BB8923F4006318
:10043000BB813B689B899B009AB2BB891343BB81FC
:100440003B68DB899B009AB2BB891343BB817B6805
:10045000BA899A807B687A891A833B68DA887B68D4
:100460001A877B68FA891A8400BF1437BD4680BC9E
:10047000704700BF002C01400034014080B485B0BB
:1004800000AF7860396000237B810023FB8100236B
:10049000BB817B681B8C9BB223F480739AB27B6810
:1004A0001A847B681B8CFB817B689B88BB817B6883
:1004B0009B8B7B817B8923F070037B817B8923F07D
:1004C00003037B813B681A887B8913437B81FB890B
:1004D00023F40073FB813B681B891B029AB2FB89E2
:1004E0001343FB813B685B881B029AB2FB89134371
:1004F000FB817B68224A934203D07B68214A934266
:100500002BD1FB8923F40063FB813B685B891B02D1
:100510009AB2FB891343FB81FB8923F48063FB813F
:100520003B689B881B029AB2FB891343FB81BB8902
:1005300023F48053BB81BB8923F40053BB813B6808
:100540009B891B019AB2BB891343BB813B68DB8942
:100550001B019AB2BB891343BB817B68BA899A801D
:100560007B687A899A833B68DA887B689A877B689C
:10057000FA891A8400BF1437BD4680BC704700BF9B
:10058000002C01400034014080B485B000AF786099
:1005900039600023BB8100237B810023FB817B68C2
:1005A0001B8C9BB223F480539AB27B681A847B68BD
:1005B0001B8C7B817B689B88FB817B689B8BBB81D1
:1005C000BB8923F4E043BB81BB8923F44073BB8127
:1005D0003B681B881B029AB2BB891343BB817B8992
:1005E00023F400537B813B681B891B039AB27B89F0
:1005F00013437B813B685B881B039AB27B8913435F
:100600007B817B68124A934203D07B68114A9342F4
:100610000AD1FB8923F48043FB813B689B899B01C2
:100620009AB2FB891343FB817B68FA899A807B68C5
:10063000BA899A833B68DA887B68A3F840207B6894
:100640007A891A8400BF1437BD4680BC704700BF4A
:10065000002C01400034014080B483B000AF7860CA
:100660007B684FF6FF729A807B6800221A807B6855
:100670000022DA807B6800225A807B6800221A728E
:1006800000BF0C37BD4680BC704700BF80B483B04C
:1006900000AF78607B6800221A807B6800225A8055
:1006A0007B6800229A807B680022DA807B680022C7
:1006B0001A817B6800225A817B6800229A817B68BC
:1006C0000022DA8100BF0C37BD4680BC704700BFF6
:1006D00080B483B000AF78600B46FB70FB78002BD2
:1006E00008D07B681B889BB243F001039AB27B68F9
:1006F0001A8007E07B681B889BB223F001039AB243
:100700007B681A8000BF0C37BD4680BC704700BFB5
:1007100080B483B000AF78600B467B8013467B705B
:100720007B78002B08D07B689B899AB27B88134327
:100730009AB27B689A8109E07B689B899AB27B8830
:10074000DB439BB213409AB27B689A8100BF0C379F
:10075000BD4680BC704700BF80B483B000AF7860F6
:100760000B46FB70FB78002B08D07B681B889BB284
:1007700043F080039AB27B681A8007E07B681B888D
:100780009BB223F080039AB27B681A8000BF0C37BB
:10079000BD4680BC704700BF80B485B000AF7860B4
:1007A0000B467B800023FB730023BB8100237B81EE
:1007B0007B681B8A9AB27B881340BB817B689B89CC
:1007C0009AB27B8813407B81BB89002B05D07B8943
:1007D000002B02D00123FB7301E00023FB73FB7BA2
:1007E00018461437BD4680BC704700BF80B483B044
:1007F00000AF78600B467B807B88DB439AB27B68D6
:100800001A8200BF0C37BD4680BC704780B500AF70
:10081000154A154B1B6843F0010313601249124B34
:100820005A68124B13404B600F4A0F4B1B6823F062
:10083000847323F4803313600B4A0B4B1B6823F43F
:1008400080231360084A084B5B6823F4FE0353605F
:10085000054B4FF41F029A6000F00CF8044B4FF068
:1008600000629A6000BF80BD001002400000FFF8E7
:1008700000ED00E080B500AF00F002F800BF80BDE1
:1008800080B483B000AF00237B6000233B603A4A12
:10089000394B1B6843F480331360374B1B6803F4F8
:1008A00000333B607B6801337B603B68002B03D1E6
:1008B0007B68B3F5A06FF0D12F4B1B6803F40033B6
:1008C000002B02D001233B6001E000233B603B682A
:1008D000012B4BD1294A294B1B6843F010031360AD
:1008E000264A264B1B6823F003031360234A234B3D
:1008F0001B6843F0020313601F4A1F4B5B68536081
:100900001D4A1D4B5B6853601B4A1B4B5B6843F4DD
:1009100080635360184A184B5B6823F47C13536060
:10092000154A154B5B6843F4E8135360124A124BA7
:100930001B6843F08073136000BF0F4B1B6803F00C
:100940000073002BF9D00C4A0B4B5B6823F00303B8
:100950005360094A084B5B6843F00203536000BFD1
:10096000054B5B6803F00C03082BF9D100BF0C3773
:10097000BD4680BC704700BF00100240002002400E
:1009800080B584B000AFF860B9603B601346FB806F
:100990003B8B1A463968F86800F082F9FB68FA88E0
:1009A0009A81FB68BA689A60FB68BA8B9A80FB6888
:1009B0003A8CDA80FB68BA8CDA81FB689B68414A22
:1009C00093420BD1404B01221A60FB689A88FB6866
:1009D000DB881946104600F053FB31E0FB689B684A
:1009E000B3F1804F0BD1394B01221A60FB689A8812
:1009F000FB68DB881946104600F068FB20E0FB68C6
:100A00009B68334A93420BD1324B01221A60FB6838
:100A10009A88FB68DB881946104600F07BFB0FE0E4
:100A2000FB689B682C4A934246D12C4B01221A60EA
:100A3000FB689A88FB68DB881946104600F090FB3B
:100A4000FB689B89013B032B38D801A252F823F0A5
:100A5000610A0008730A0008850A0008970A00085E
:100A6000FB689A68FB68DB891946104600F0F6FBC4
:100A70001AE0FB689A68FB68DB891946104600F0AB
:100A80000BFC11E0FB689A68FB68DB89194610468D
:100A900000F020FC08E0FB689A68FB68DB891946D7
:100AA000104600F035FC00BFF86800F00BFA00219A
:100AB000F86800F015F802E000BF00E000BF103752
:100AC000BD4680BD002C0140E8090020EC09002053
:100AD00000040040F009002000080040F409002054
:100AE00080B582B000AF78600B467B807B689B68E6
:100AF000384A934205D1384B1B68012B22D0012381
:100B000063E07B689B68B3F1804F05D1334B1B6872
:100B1000012B17D0012358E07B689B68304A934231
:100B200005D1304B1B68012B0CD001234DE07B68B5
:100B30009B682D4A934205D12C4B1B68012B01D099
:100B4000012342E07B689B887A889A4202D97B68BD
:100B50009B887B807B687A885A807B689B89013B75
:100B6000032B2FD801A252F823F000BF7D0B000801
:100B70008F0B0008A10B0008B30B00087B689A6874
:100B80007B685B881946104600F0E0FB1CE07B6840
:100B90009A687B685B881946104600F0E5FB13E015
:100BA0007B689A687B685B881946104600F0EAFB10
:100BB0000AE07B689A687B685B881946104600F0FB
:100BC000EFFB01E0012300E0002318460837BD4693
:100BD00080BD00BF002C0140E8090020EC09002086
:100BE00000040040F009002000080040F409002043
:100BF00080B582B000AF78600B467B807B689B68D5
:100C0000204A93420AD17A881F4B1B6813431E4A1D
:100C100013607B88184600F0C9FA2EE07B689B6859
:100C2000B3F1804F0AD17A88184B1B681343174AD7
:100C300013607B88184600F0CFFA1EE07B689B6843
:100C4000134A93420AD17A88124B1B681343114A04
:100C500013607B88184600F0D5FA0EE07B689B682D
:100C60000D4A934209D17A880C4B1B6813430B4AF7
:100C700013607B88184600F0DBFA00BF0837BD46DA
:100C800080BD00BF002C0140F8090020FC090020B5
:100C900000040040000A002000080040040A002070
:100CA00080B588B000AFF860B9601346FB80FA8861
:100CB00007F114001823B96802F002F900BF2037C9
:100CC000BD4680BD80B483B000AF78607B689B6810
:100CD000194A934206D1194B00221A60164B002282
:100CE0009A8423E07B689B68B3F1804F07D1144B53
:100CF00000221A604FF0804300229A8416E07B683D
:100D00009B68104A934206D10F4B00221A600D4B8C
:100D100000229A840AE07B689B680C4A934205D1C2
:100D20000B4B00221A60094B00229A8400BF0C373B
:100D3000BD4680BC704700BF002C0140180A00204F
:100D40001C0A002000040040200A00200008004087
:100D5000240A002080B582B000AF786039607B68DB
:100D60003A689A607B6801221A707B689B68264A01
:100D700093420CD1254B03221A6047214FF6FF7096
:100D800000F07EF901217868FFF732FF34E07B68DC
:100D90009B68B3F1804F0CD11D4B03221A60472191
:100DA0004FF6FF7000F092F901217868FFF720FFFD
:100DB00022E07B689B68174A93420CD1164B0322B2
:100DC0001A6047214FF6FF7000F0A4F901217868FE
:100DD000FFF70EFF10E07B689B68104A93420FD12B
:100DE0000F4B03221A6047214FF6FF7000F0B8F94D
:100DF00001217868FFF7FCFE786800F063F800E0F6
:100E000000BF0837BD4680BD002C0140E809002026
:100E1000EC09002000040040F00900200008004018
:100E2000F409002080B582B000AF78600B467B806B
:100E300013463B807B88013B032B3FD801A252F82D
:100E400023F000BF550E00086D0E0008850E000847
:100E50009D0E00087B689B683A881146184600F092
:100E600075FA02217868FFF7C3FE23E07B689B6870
:100E70003A881146184600F077FA04217868FFF79F
:100E8000B7FE17E07B689B683A881146184600F069
:100E900079FA08217868FFF7ABFE0BE07B689B6866
:100EA0003A881146184600F07BFA10217868FFF75F
:100EB0009FFE00BF786800F005F800E000BF08372B
:100EC000BD4680BD80B582B000AF78607B689B680E
:100ED00001211846FFF740FC7B689B68274A934234
:100EE0000CD17B689868264B1B689BB2012219467F
:100EF000FFF70EFC234B01221A6034E07B689B68ED
:100F0000B3F1804F0CD17B6898681F4B1B689BB274
:100F100001221946FFF7FCFB1C4B01221A6022E05C
:100F20007B689B681A4A93420CD17B689868194B7E
:100F30001B689BB201221946FFF7EAFB164B012200
:100F40001A6010E07B689B68144A934212D17B6858
:100F50009868134B1B689BB201221946FFF7D8FB18
:100F6000104B01221A607B689B6801211846FFF72D
:100F7000AFFB00E000BF0837BD4680BD002C01403C
:100F8000F8090020080A0020FC0900200C0A0020B3
:100F900000040040000A0020100A00200008004061
:100FA000040A0020140A002080B582B000AF7860E7
:100FB0007B689B68274A93420CD17B689868264BD4
:100FC0001B689BB200221946FFF7A2FB234B0022AD
:100FD0001A6034E07B689B68B3F1804F0CD17B686A
:100FE00098681F4B1B689BB200221946FFF790FBC5
:100FF0001C4B00221A6022E07B689B681A4A9342CD
:101000000CD17B689868194B1B689BB2002219466B
:10101000FFF77EFB164B00221A6010E07B689B688E
:10102000144A934212D17B689868134B1B689BB299
:1010300000221946FFF76CFB104B00221A607B68F8
:101040009B6800211846FFF743FB00E000BF08370C
:10105000BD4680BD002C0140F8090020080A002090
:10106000FC0900200C0A002000040040000A0020B7
:10107000100A002000080040040A0020140A002082
:1010800080B586B000AF03460A46FB801346BB809E
:1010900001214FF4006001F0B9FE0121012001F0AF
:1010A000B5FE07F10C031846FFF7D6FAFB883B8222
:1010B000BB88BB8107F10C0319460348FFF74EF8C4
:1010C00000BF1837BD4680BD002C014080B586B0FA
:1010D00000AF03460A46FB801346BB800121012076
:1010E00001F0B2FE0121012001F090FE07F10C0396
:1010F0001846FFF7B1FAFB883B82BB88BB8107F13A
:101100000C0319464FF08040FFF728F800BF18374E
:10111000BD4680BD80B586B000AF03460A46FB8061
:101120001346BB800121022001F08EFE0121012027
:1011300001F06CFE07F10C031846FFF78DFABB882F
:10114000BB81FB883B8207F10C0319460348FFF77C
:1011500005F800BF1837BD4680BD00BF0004004041
:1011600080B586B000AF03460A46FB801346BB80BD
:101170000121042001F068FE0121012001F046FE5A
:1011800007F10C031846FFF767FABB88BB81FB88A1
:101190003B8207F10C0319460348FEF7DFFF00BF4F
:1011A0001837BD4680BD00BF0008004080B584B040
:1011B00000AF0346FB8019233B7300237B7300239E
:1011C000BB730123FB7307F10C03184602F038FFD1
:1011D00000BF1037BD4680BD80B584B000AF034668
:1011E000FB801C233B7300237B730023BB73012311
:1011F000FB7307F10C03184602F022FF00BF103703
:10120000BD4680BD80B584B000AF0346FB801D2382
:101210003B7300237B730023BB730123FB7307F134
:101220000C03184602F00CFF00BF1037BD4680BD0E
:1012300080B584B000AF0346FB801E233B730023C0
:101240007B730023BB730123FB7307F10C03184668
:1012500002F0F6FE00BF1037BD4680BD80B586B0F7
:1012600000AF78600B467B8007F108031846FFF754
:101270000DFA7B883B8101237B810023FB810023C6
:101280003B8207F1080319467868FEF7E3FF00BFC9
:101290001837BD4680BD00BF80B586B000AF78600E
:1012A0000B467B8007F108031846FFF7EFF97B88B0
:1012B0003B8101237B810023FB8100233B8207F1DB
:1012C000080319467868FFF751F800BF1837BD4684
:1012D00080BD00BF80B586B000AF78600B467B80D4
:1012E00007F108031846FFF7D1F97B883B810123FA
:1012F0007B810023FB8100233B8207F10803194611
:101300007868FFF7BBF800BF1837BD4680BD00BF47
:1013100080B586B000AF78600B467B8007F108038C
:101320001846FFF7B3F97B883B8101237B810023BB
:10133000FB8100233B8207F1080319467868FFF719
:1013400023F900BF1837BD4680BD00BF80B483B00D
:1013500000AF78600B467B807B687A889A8600BFF6
:101360000C37BD4680BC704780B483B000AF786056
:101370000B467B807B687A881A8700BF0C37BD4696
:1013800080BC704780B483B000AF78600B467B8030
:101390007B687A889A8700BF0C37BD4680BC70474F
:1013A00080B483B000AF78600B467B807B687A881E
:1013B000A3F8402000BF0C37BD4680BC704700BF7B
:1013C00080B400AF0C4B9B8C9BB21BB2DB439BB237
:1013D000DB0BDBB2002B05D0084B1B680133074A3F
:1013E000136004E0054B1B68013B044A136000BF17
:1013F000BD4680BC704700BF002C0140180A002089
:1014000080B400AF4FF080439B8C9BB21BB2DB4398
:101410009BB2DB0BDBB2002B05D0074B1B68013303
:10142000054A136004E0044B1B68013B024A136049
:1014300000BFBD4680BC70471C0A002080B400AFCE
:101440000C4B9B8C9BB21BB2DB439BB2DB0BDBB226
:10145000002B05D0084B1B680133074A136004E0DA
:10146000054B1B68013B044A136000BFBD4680BCAE
:10147000704700BF00040040200A002080B400AF85
:101480000C4B9B8C9BB21BB2DB439BB2DB0BDBB2E6
:10149000002B05D0084B1B680133074A136004E09A
:1014A000054B1B68013B044A136000BFBD4680BC6E
:1014B000704700BF00080040240A002080B400AF3D
:1014C00000BFBD4680BC704780B400AF00BFBD46C2
:1014D00080BC704780B400AF00BFBD4680BC704781
:1014E00080B400AF00BFBD4680BC704780B400AF81
:1014F00000BFBD4680BC704780B400AF00BFBD4692
:1015000080BC704780B400AF00BFBD4680BC704750
:1015100080B400AF00BFBD4680BC704780B400AF50
:10152000044B1B680133034A136000BFBD4680BCF7
:10153000704700BF180A002080B400AF044B1B683E
:101540000133034A136000BFBD4680BC704700BF33
:101550001C0A002080B400AF044B1B680133034A0F
:10156000136000BFBD4680BC704700BF200A00204A
:1015700080B400AF044B1B680133034A136000BF03
:10158000BD4680BC704700BF240A002080B400AF75
:1015900000BFBD4680BC704780B400AF00BFBD46F1
:1015A00080BC704780B400AF00BFBD4680BC7047B0
:1015B00080B400AF00BFBD4680BC704780B400AFB0
:1015C00000BFBD4680BC704780B400AF00BFBD46C1
:1015D00080BC704780B400AF00BFBD4680BC704780
:1015E00080B500AF3D4B1B68022B06D1FFF7E8FE2C
:1015F00001213B48FFF7FAF86EE0384B1B68012BDE
:1016000006D1FFF75BFF01213548FFF7EFF863E0F4
:10161000324B1B68032B5FD1FFF7B8FF0121304825
:10162000FFF7BAF80346012B0CBF01230023DBB2FE
:10163000002B06D0FFF772FF01212948FFF7D6F8EB
:101640004AE002212648FFF7A7F80346012B0CBF0A
:1016500001230023DBB2002B06D001F07BF902212D
:101660001F48FFF7C3F837E004211D48FFF794F83F
:101670000346012B0CBF01230023DBB2002B06D055
:10168000FFF78AFF04211648FFF7B0F824E008218D
:101690001348FFF781F80346012B0CBF01230023F9
:1016A000DBB2002B06D0FFF77DFF08210C48FFF7C7
:1016B0009DF811E010210A48FFF76EF80346012B50
:1016C0000CBF01230023DBB2002B05D0FFF770FF16
:1016D00010210348FFF78AF800BF80BDE809002009
:1016E000002C014080B500AF434B1B68022B07D193
:1016F000FFF786FE01214FF08040FFF777F879E091
:101700003D4B1B68012B07D1FFF7DEFE01214FF097
:101710008040FFF76BF86DE0374B1B68032B69D1F6
:1017200001F012F901214FF08040FFF735F8034630
:10173000012B0CBF01230023DBB2002B07D0FFF7E6
:10174000FBFE01214FF08040FFF750F852E00221EC
:101750004FF08040FFF720F80346012B0CBF012318
:101760000023DBB2002B07D001F0FAF802214FF082
:101770008040FFF73BF83DE004214FF08040FFF749
:101780000BF80346012B0CBF01230023DBB2002B17
:1017900007D0FFF713FF04214FF08040FFF726F832
:1017A00028E008214FF08040FEF7F6FF0346012BAA
:1017B0000CBF01230023DBB2002B07D0FFF704FF8F
:1017C00008214FF08040FFF711F813E010214FF08F
:1017D0008040FEF7E1FF0346012B0CBF01230023ED
:1017E000DBB2002B06D0FFF7F5FE10214FF0804052
:1017F000FEF7FCFF00BF80BDEC09002080B500AF04
:10180000104B1B68022B06D1FFF718FE01210E4872
:10181000FEF7ECFF14E00B4B1B68012B06D1FFF722
:1018200059FE01210848FEF7E1FF09E0054B1B685E
:10183000032B05D1FFF78EFE01210348FEF7D6FFEB
:1018400000BF80BDF00900200004004080B500AF5B
:101850003C4B1B68022B06D1FFF710FE01213A48D2
:10186000FEF7C4FF6CE0374B1B68012B5ED10121F2
:101870003548FEF791FF0346012B0CBF01230023DF
:10188000DBB2002B06D0FFF72BFE01212E48FEF71E
:10189000ADFF55E002212C48FEF77EFF0346012BE9
:1018A0000CBF01230023DBB2002B06D0FFF71EFE86
:1018B00002212548FEF79AFF42E004212248FEF764
:1018C0006BFF0346012B0CBF01230023DBB2002B6F
:1018D00006D0FFF711FE04211B48FEF787FF2FE01B
:1018E00008211948FEF758FF0346012B0CBF0123BE
:1018F0000023DBB2002B06D0FFF704FE08211248BC
:10190000FEF774FF1CE010210F48FEF745FF034669
:10191000012B0CBF01230023DBB2002B10D0FFF7FB
:10192000F7FD10210848FEF761FF09E0054B1B6831
:10193000032B05D1FFF71CFE01210348FEF756FFDC
:1019400000BF80BDF40900200008004080B582B0CF
:1019500000AF114B7B60114B3B6007E03B681A1DE9
:101960003A607A68111D796012681A603B680C4A07
:101970009342F3D30B480C494FF000028842B8BFA2
:1019800040F8042BFADBFEF741FF00F0AFFD00BF8B
:101990000837BD4680BD00BF54B0000800000020DD
:1019A000E8090020E8090020000F002080B400AF03
:1019B000FEE700BF80B582B000AF78607B680E4A5A
:1019C00093420AD101214FF0007001F05BFA00212F
:1019D0004FF0007001F056FA09E001214FF08060ED
:1019E00001F050FA00214FF0806001F04BFA00BF87
:1019F0000837BD4680BD00BF0064004080B485B09C
:101A000000AF786039600023FB730023BB607B6804
:101A10001B6823F002027B681A607B681B6843F036
:101A200001027B681A6002E0BB680133BB607B681F
:101A30005B6803F00103002B04D1BB684FF6FF7213
:101A40009342F1D17B685B6803F00103002B02D164
:101A50000023FB739CE03B689B79012B06D17B68DC
:101A60001B6843F080027B681A6005E07B681B6896
:101A700023F080027B681A603B68DB79012B06D17A
:101A80007B681B6843F040027B681A6005E07B6856
:101A90001B6823F040027B681A603B681B7A012BAD
:101AA00006D17B681B6843F020027B681A6005E062
:101AB0007B681B6823F020027B681A603B685B7AB6
:101AC000012B06D17B681B6843F010027B681A600B
:101AD00005E07B681B6823F010027B681A603B6896
:101AE0009B7A012B06D17B681B6843F008027B6858
:101AF0001A6005E07B681B6823F008027B681A60A7
:101B00003B68DB7A012B06D17B681B6843F004023B
:101B10007B681A6005E07B681B6823F004027B6821
:101B20001A603B689B789A073B68DB781B061A4370
:101B30003B681B791B041A433B685B791B051A43FE
:101B40003B681B88013B1A437B68DA617B681B6832
:101B500023F001027B681A600023BB6002E0BB68CF
:101B60000133BB607B685B6803F00103002B04D08A
:101B7000BB684FF6FF729342F1D17B685B6803F05C
:101B80000103002B02D00023FB7301E00123FB7350
:101B9000FB7B18461437BD4680BC704780B483B0C9
:101BA00000AF78607B6800229A717B680022DA714E
:101BB0007B6800221A727B6800225A727B680022BE
:101BC0009A727B680022DA727B6800229A707B68C6
:101BD0000022DA707B6803221A717B6802225A7134
:101BE0007B6801221A8000BF0C37BD4680BC70475D
:101BF00080B485B000AFF8600B467A60FB72FB7A68
:101C0000FA681B331B0113441B68DBB203F00403A7
:101C1000DAB27B681A727B681B7A002B09D1FB7AD7
:101C2000FA681B331B0113441B685A0D7B681A604A
:101C300008E0FB7AFA681B331B0113441B68DA08BF
:101C40007B685A60FB7AFA681B331B0113441B68DC
:101C5000DBB203F00203DAB27B685A72FB7AFA68ED
:101C60001B331B01134404331B68DBB203F00F0367
:101C7000DAB27B689A72FB7AFA681B331B01134451
:101C800004331B681B0ADAB27B68DA74FB7AFA68E1
:101C90001B01134403F5DC731B68DAB27B68DA724C
:101CA000FB7AFA681B01134403F5DC731B681B0AFB
:101CB000DAB27B681A73FB7AFA681B01134403F5E6
:101CC000DC731B681B0CDAB27B685A73FB7AFA6808
:101CD0001B01134403F5DC731B681B0EDAB27B682F
:101CE0009A73FB7AFA681B01134403F5DE731B68D1
:101CF000DAB27B68DA73FB7AFA681B01134403F5E6
:101D0000DE731B681B0ADAB27B681A74FB7AFA6806
:101D10001B01134403F5DE731B681B0CDAB27B68EE
:101D20005A74FB7AFA681B01134403F5DE731B68CF
:101D30001B0EDAB27B689A74FB7A002B06D1FB6823
:101D4000DB6843F02002FB68DA6005E0FB681B6992
:101D500043F02002FB681A6100BF1437BD4680BC07
:101D6000704700BF80B485B000AFF860B96013461B
:101D7000FB71FB79002B06D0FB685A69BB681A43DC
:101D8000FB685A6106E0FB685A69BB68DB431A408E
:101D9000FB685A6100BF1437BD4680BC704700BF66
:101DA00080B489B000AF786039600023FB61002304
:101DB0003B610023BB610023FB6000237B610023A8
:101DC000BB603B68DB7803F00F03FB613B68DB78AB
:101DD00003F01003002B05D03B689B781A46FB6983
:101DE0001343FB613B681B88DBB2002B44D07B684C
:101DF0001B687B610023BB6138E00122BB6902FAEA
:101E000003F3FB603B681B881A46FB6813403B6189
:101E10003A69FB689A4226D1BB699B00FB600F229E
:101E2000FB6802FA03F3BB60BB68DB437A691340CB
:101E30007B61FA69FB6802FA03F37A6913437B61F9
:101E40003B68DB78282B05D10122BB699A407B686F
:101E50005A6108E03B68DB78482B04D10122BB695A
:101E60009A407B681A61BB690133BB61BB69072B70
:101E7000C3D97B687A691A603B681B88FF2B46D9F7
:101E80007B685B687B610023BB613AE0BB69083318
:101E9000012202FA03F3FB603B681B881A46FB68C9
:101EA00013403B613A69FB689A4227D1BB699B00AA
:101EB000FB600F22FB6802FA03F3BB60BB68DB43E5
:101EC0007A6913407B61FA69FB6802FA03F37A6965
:101ED00013437B613B68DB78282B05D1BB69083352
:101EE00001229A407B685A613B68DB78482B05D118
:101EF000BB69083301229A407B681A61BB690133D0
:101F0000BB61BB69072BC1D97B687A695A6000BF86
:101F10002437BD4680BC704780B483B000AF786082
:101F20007B684FF6FF721A807B6802229A707B688A
:101F30000422DA7000BF0C37BD4680BC704700BF7A
:101F400080B485B000AF78600B467B800023FB73C4
:101F50007B689A687B881340002B02D00123FB73B7
:101F600001E00023FB73FB7B18461437BD4680BCA1
:101F7000704700BF80B485B000AF78600B467B80AF
:101F80000023FB737B68DA687B881340002B02D048
:101F90000123FB7301E00023FB73FB7B184614371E
:101FA000BD4680BC704700BF80B483B000AF78608E
:101FB0000B467B8013467B707B78002B03D07A889E
:101FC0007B681A6102E07A887B685A6100BF0C372F
:101FD000BD4680BC704700BF80B487B000AF78605A
:101FE0000B46FB7000233B610023FB6000237B61F9
:101FF0000023BB607B68002B03DA2E4BDB697B611F
:1020000002E02C4B5B687B617B681B0C03F00F03C9
:10201000BB607B689BB23B617B6803F44013B3F504
:10202000401F0AD17B6923F070637B61214A214BF9
:102030005B6823F07063536021E07B6803F48013D6
:10204000002B0ED00322BB6802FA03F3FB60FB688F
:10205000DB437A6913407B617B6943F070637B618A
:102060000DE07B685B0D1B013A6902FA03F3DB4369
:102070007A6913407B617B6943F070637B61FB7815
:10208000002B08D07B685B0D1B013A6902FA03F351
:102090007A6913437B617B68002B03DA054A7B690D
:1020A000D36102E0034A7B69536000BF1C37BD4621
:1020B00080BC70470000014090B484B000AF03467C
:1020C0000A46FB711346BB710023FB60BB7903F02A
:1020D00003039B000F2202FA03F3FB601649BB794E
:1020E0009B08DBB21846144ABB799B08DBB202336B
:1020F00052F82320FB68DB431A40831C41F823205D
:102100000D48BB799B08DBB21C460B4ABB799B0888
:10211000DBB2023352F82320F979BB7903F00303D1
:102120009B0001FA03F31A43A31C40F8232000BFCD
:102130001037BD4690BC70470000014090B585B097
:1021400004AF904800F082FC4FF4806302938E4B02
:1021500001934FF4007300938B4B4FF461228B4932
:102160008B4802F061F88A49864800F089FC894B67
:102170000093894B894A8A49854802F035F84FF027
:1021800080418848FEF7E6FD02218648FEF730FDD3
:102190008448FEF709FF60230393002302934FF462
:1021A0007A73019340230093774B01227E497F4845
:1021B000FEF7E6FB60230393002302934FF47A7348
:1021C000019380230093704B022277497848FEF7F1
:1021D000D7FB60230393002302934FF47A73019398
:1021E00001230093734B03226F497348FEF7C8FB2A
:1021F000102308226449714800F062FE1023102267
:1022000061496F4800F05CFE102320225E496D4852
:1022100000F056FE6A4A66496B4801F0BFFD674A06
:1022200062496A4801F0BAFD664A6349684801F0AC
:10223000B5FD04230093544B02226649664801F021
:1022400025FC634B614A6049644801F085FE102318
:1022500020225849624800F033FE1023402255499D
:10226000604800F02DFE4823802252495E4800F06D
:1022700027FE48234FF480724E495C4800F020FE50
:1022800048234FF400424049594800F019FE4823C2
:1022900008224849574800F013FE482310224549B8
:1022A000554800F00DFE48234FF4805241495348F1
:1022B00000F006FE48234FF400523E49504800F01B
:1022C000FFFD48234FF480423A494E4800F0F8FDA4
:1022D0001021474800F074FE1021464800F070FEBF
:1022E0001021454800F06CFE48234FF40042464957
:1022F000464800F0E5FD48234FF4804242494448F7
:1023000000F0DEFD48234FF400722A49414800F0F6
:10231000D7FD48234FF400523B493F4800F0D0FD21
:102320004FF400630193184B00934FF48053164A07
:102330003A493B4800F0F4FB01213A48FFF74CFED4
:10234000334800F01BFE03461C46304800F016FEE2
:1023500003465B001C44304800F010FE03469B001F
:102360001C442C4800F00AFE0346DB002344C3F162
:102370000F031A462C49064801F036FF00BF043708
:10238000BD4690BD280A00200008014000380140E9
:102390005C0B002098A7000828A7000834A70008B5
:1023A00074A70008600A002000040040400A0020D2
:1023B000300A0020000C0140500A00207C0A002056
:1023C000700A0020880A0020600B0020700B00209B
:1023D000800B0020002401403C0B0020900B0020CB
:1023E000B80A0020C40A0020D00A0020DC0A00201D
:1023F000180B0020240B0020300B0020940A002032
:10240000A00A0020AC0A002000100140E80A0020C9
:10241000F40A0020000B00200C0B00200064004098
:10242000440B002000023000A4A7000880B500AFD4
:10243000054B1B8801339AB2034B1A80034800F006
:10244000B9FB00BF80BD00BF9C0B0020440B0020E7
:1024500080B500AF0A4B1B8801339AB2084B1A8033
:10246000084801F045FB074801F08EFB03461A4679
:10247000054B1A800721034801F05EFB00BF80BDB9
:10248000C00B00203C0B0020C20B002080B500AF29
:10249000044800F0ABFD044B00221A8000F038F92C
:1024A00000BF80BD180B0020C60B002080B500AF18
:1024B000044800F09BFD044B01221A8000F028F92B
:1024C00000BF80BD240B0020C60B002080B500AFEC
:1024D000044800F08BFD044B02221A8000F018F92A
:1024E00000BF80BD300B0020C60B002098B500AFA8
:1024F000FFF724FE002201214FF08040FEF708F98B
:102500006B4B4FF000021A606A4A40F2DC534FF006
:102510000004C2E9003400F0CDFA0A460146664BD9
:1025200018CBA24208BF99422CBF01230023DBB283
:10253000002BF0D0614800F021FD0346002B0CBFBA
:1025400001230023DBB2002B0CD05D4B00221A804C
:102550005C4B1B88002B38D15A4B01221A8000F0AB
:10256000D7F832E0584800F009FD0346002B0CBFB5
:1025700001230023DBB2002B0CD0514B01221A8027
:10258000504B1B88002B20D14E4B01221A8000F0AB
:10259000BFF81AE04B4B00221A804C48FEF704FDAE
:1025A0004B4800F0EBFC03469C004A4800F0E6FC78
:1025B00003465B001C44484800F0E0FC034623440B
:1025C000464A32F91320464B1A80464800F0E8FC90
:1025D00000F070FA03460C460A3344F10004364A10
:1025E000C2E90034374B1B88012B09D13E4B1B88B5
:1025F0001A463D4B5B883D493D4801F0F5FD28E01A
:10260000334800F0BBFC03469C00324800F0B6FCA7
:1026100003465B001C44304800F0B0FC03462344F2
:102620002E4A32F913202E4B1A802D4BB3F900306D
:102630001C461F4B1B682F49184602F0BBFE034681
:10264000184603F007F8034622462849284801F0B7
:10265000CBFD294800F092FC03461C46274800F0B9
:102660008DFC03465B001C44254800F087FC0346B4
:102670009B001C44234800F081FC0346DB002344FC
:10268000C3F10F03184602F041FE03461E491846E7
:1026900002F044FF03461A46054B1A60124B002213
:1026A0001A80114B00225A80184B00221A8032E700
:1026B000480C0020400C0020B00B0020D00A002065
:1026C000D80B0020D60B0020DC0A0020600A002076
:1026D000300B0020240B0020180B002014000020D9
:1026E000CC0B0020B80A0020DC0B0020B0A70008AB
:1026F0005C0B002000007A44F40A0020E80A002065
:102700000C0B0020000B002000007041D40B0020B7
:10271000B0B500AF7A4800F031FC03469C00794820
:1027200000F02CFC03465B001C44774800F026FCBC
:1027300003462344754A32F91320754B1A80754BB2
:102740001B881A4613465B0013449B006E4A1344D1
:10275000184600F013FC0346012B0CBF0123002395
:10276000DBB2002B0CD06B4B1B881D4600F098F998
:1027700003460C466849EA000A44C2E900340BE00B
:10278000644B1B881D4600F08BF903460C466349D9
:10279000EA000A44C2E900345E4B1B885E4ADB0053
:1027A000134418CB5B4A12885C49D2000A44D2E930
:1027B0000012A24208BF994221D2564B1B881D46E7
:1027C000544B1B88544ADB001344D3E90012514B8D
:1027D0001B885248DB00034418CBCB1A62EB04047D
:1027E0004F49EA000A44C2E900344A4B1B884C4A6C
:1027F000DB00134418CB4B4AC2E9003420E0454BC0
:102800001B881D46434B1B88444ADB001344D3E915
:102810000012404B1B884048DB00034418CBCB1A06
:1028200062EB04044049EA000A44C2E90034394B2F
:102830001B883D4ADB00134418CB3A4AC2E90034F6
:102840003A4B1B88002B48D1364B18CB42F20F7104
:102850004FF00002A24208BF99423ED3344BB3F975
:102860000030002B1CD0324B00221A803148FEF77A
:1028700029FA274BB3F900202F4B1A80294BD3E9B3
:1028800000014FF003024FF0000302F003FF034684
:102890000C469BB21A4601212648FEF7C3FA2DE0EA
:1028A000234B01221A802348FEF70CFA184BB3F988
:1028B0000020214B5A801B4BD3E900014FF003024B
:1028C0004FF0000302F0E6FE03460C469BB21A46A8
:1028D00001211848FEF7A6FA10E0184B1B88012BBF
:1028E00009D10B4BB3F90010154B1B681A4615485C
:1028F00001F048FB02E0134801F070FBB0BD00BFDF
:10290000300B0020240B0020180B002014000020A6
:10291000CC0B0020C60B0020E00B0020F80B0020A1
:10292000100C0020B80B0020280C0020D80B002031
:10293000CE0B0020600A0020D00B0020D60B002018
:10294000480C0020900B002080B400AF00BFBD46B3
:1029500080BC704780B400AF00BFBD4680BC7047EC
:1029600080B500AF0E48FEF71FFB0E4B1B88012BF6
:102970000DD10D4BB3F902309BB23C339BB219B26F
:102980000A4B1B681A460A4801F0FCFA02E00848A4
:1029900001F024FB0248FEF795F900BF80BD00BF9F
:1029A000600A0020D60B0020D00B0020480C00202D
:1029B000900B002080B483B000AF03463960FB71F8
:1029C00097F90730002B0BDA0D49FB7903F00F0361
:1029D000043B3A68D2B21201D2B20B441A7609E033
:1029E000084997F907303A68D2B21201D2B20B44C3
:1029F00083F8002300BF0C37BD4680BC704700BF82
:102A000000ED00E000E100E080B582B000AF78604A
:102A10007B68B3F1807F01D3012311E00A4A7B6810
:102A200023F07F43013B53600F214FF0FF30FFF74E
:102A3000C1FF054B00229A60034B07221A60002356
:102A400018460837BD4680BD10E000E080B582B072
:102A500000AF7860084B1B685B09084AA2FB0323A0
:102A6000DB091846FFF7D0FF7B6800221A8000BF01
:102A70000837BD4680BD00BF00000020C55A7C0A53
:102A800080B483B000AF786039607B683A685A6080
:102A90007B6801221A8000BF0C37BD4680BC70479E
:102AA00098B500AF00F016F803460C4618462146CC
:102AB00098BD00BF98B500AFFFF7F2FF4FF47A72F0
:102AC0004FF0000302F0E6FD03460C46184621468F
:102AD00098BD00BF90B400AF084B18CBDB1844EB97
:102AE0000404A20042EA937299005B1844EB0204CA
:102AF00018462146BD4690BC704700BF500C0020D0
:102B000090B400AF054B18CB013344F10004034AE5
:102B1000C2E9003400BFBD4690BC7047500C002095
:102B200080B588B002AFF860B9607A607B80FB68DE
:102B3000BA681A607A88BB8C00933B6A7968F86837
:102B400000F01EF8FB681B680B4A934202D100207C
:102B500000F046F800237B617B69332B08DC074AD1
:102B60007B69002122F813107B6901337B61F3E755
:102B700000BF1837BD4680BD00640040600C0020D7
:102B800080B58AB000AFF860B9603B601346FB8047
:102B9000FA8807F110001823B96800F091F93A8E0D
:102BA00007F11C000423396800F08AF900BF2837B8
:102BB000BD4680BD80B582B000AF78607B681B6881
:102BC000064A934206D17B6804331A460021034823
:102BD000FFF70EF800BF0837BD4680BD0064004017
:102BE00080B586B000AF0346FB802148FEF7E2FEC9
:102BF00001214FF0007000F027F907F10C0318468F
:102C0000FEF7CCFF0123BB740023FB7400233B754C
:102C100000237B750023FB75FB88002B02D100236A
:102C2000BB7301E00123BB730023FB7304233B74DC
:102C300005237B740323BB8107F10C0319460C4861
:102C4000FEF7DCFE14233B7200237B720123BB7270
:102C50000123FB7207F10803184601F0F1F9012284
:102C600002210348FFF77EF800BF1837BD4680BD3C
:102C70000064004080B485B000AF78600023FB6042
:102C8000094B5B68FB60FB6823F44043FB60FA6818
:102C90007B681343FB60044AFB68536000BF143732
:102CA000BD4680BC704700BF0010024080B487B0B2
:102CB00000AF786000237B6100233B610023FB6051
:102CC0000023BB604C4B5B6803F00C037B617B69AA
:102CD000042B07D0082B09D0002B33D17B68474A3F
:102CE0001A6033E07B68454A1A602FE0424B5B680C
:102CF00003F470133B61404B5B6803F48033FB606B
:102D00003B699B0C02333B61FB68002B06D13B699E
:102D10003B4A02FB03F27B681A6017E0364B5B68A4
:102D200003F40033002B06D03B69354A02FB03F263
:102D30007B681A600AE03B69304A02FB03F27B6859
:102D40001A6003E07B682D4A1A6000BF2A4B5B685B
:102D500003F0F0037B617B691B097B61294A7B6976
:102D600013441B78DBB2BB607B681A68BB68DA402F
:102D70007B685A60204B5B6803F4E0637B617B698E
:102D80001B0A7B611F4A7B6913441B78DBB2BB6063
:102D90007B685A68BB68DA407B689A60164B5B6850
:102DA00003F460537B617B69DB0A7B61154A7B69B5
:102DB00013441B78DBB2BB607B685A68BB68DA409F
:102DC0007B68DA600C4B5B6803F440437B617B6992
:102DD0009B0B7B610C4A7B6913441B78DBB2BB60A5
:102DE0007B68DA68BB68B2FBF3F27B681A6100BFEC
:102DF0001C37BD4680BC70470010024000127A00AC
:102E000000093D00240000203400002080B483B07D
:102E100000AF78600B46FB70FB78002B06D00949A9
:102E2000084B9A697B6813438B6106E00549054BA3
:102E30009A697B68DB4313408B6100BF0C37BD464A
:102E400080BC70470010024080B483B000AF78604F
:102E50000B46FB70FB78002B06D00949084BDA695A
:102E60007B681343CB6106E00549054BDA697B6853
:102E7000DB431340CB6100BF0C37BD4680BC7047BD
:102E80000010024080B483B000AF78600B46FB7046
:102E9000FB78002B06D00949084B1A697B6813435D
:102EA0000B6106E00549054B1A697B68DB4313405B
:102EB0000B6100BF0C37BD4680BC7047001002405C
:102EC00080B586B000AFF860B96011461A460B466F
:102ED000FB8013467B71FB68FA885A80FB68BA68EE
:102EE0005A6001210420FFF791FF01210820FFF71C
:102EF0008DFF01211020FFF789FF01212020FFF71E
:102F000085FFFB687A791A7207F114031846FFF7F8
:102F100003F8FB685B88BB82FB681B7AFB750323A5
:102F2000BB75FB685B6807F1140211461846FEF793
:102F300037FFFB6800221A8000BF1837BD4680BDEE
:102F400080B582B000AF78600B467B807B88002B19
:102F500008D17B6858687B685B8800221946FFF7B8
:102F600023F807E07B6858687B685B880122194674
:102F7000FFF71AF800BF0837BD4680BD80B582B0A4
:102F800000AF78607B685A687B685B88194610469A
:102F9000FEF7D6FF03469BB218460837BD4680BDF4
:102FA00080B582B000AF78607B685A687B685B88C8
:102FB0001946104600F038F800BF0837BD4680BDFE
:102FC00080B582B000AF78600B46FB707B68FA7802
:102FD0005A727B6858687B6859887B685B7A1A46A6
:102FE00000F046F800BF0837BD4680BD80B582B00E
:102FF00000AF78607B685B88184600F057F903469D
:10300000012B0CBF01230023DBB2002B06D07B6811
:103010005B88184600F06EF9012300E00023184693
:103020000837BD4680BD00BF80B582B000AF786074
:103030000B467B807B8819467868FEF79BFF03462A
:10304000012B0CBF01230023DBB2002B06D07B88B1
:10305000002219467868FEF7A7FF05E07B88012269
:1030600019467868FEF7A0FF00BF0837BD4680BD4F
:1030700080B586B000AF78600B467B8013467B70CE
:1030800007F10C03184600F0FBF87B88FB60002377
:103090003B747B787B740123BB7407F10C031846E7
:1030A00000F07CF800237B617B690F2B0CD87B88B8
:1030B000012B02D17B697B8006E07B885B107B80E3
:1030C0007B6901337B61EFE77B68304A934206D12D
:1030D0007B88DBB219460020FEF7EEFF1FE07B681D
:1030E0002B4A934206D17B88DBB219460120FEF7BA
:1030F000E3FF14E07B68274A934206D17B88DBB26A
:1031000019460220FEF7D8FF09E07B68224A934265
:1031100005D17B88DBB219460320FEF7CDFF7B8803
:10312000042B1CD801A252F823F000BF4131000843
:10313000473100084D31000853310008593100086B
:1031400006233B7213E007233B7210E008233B7217
:103150000DE009233B720AE00A233B7207E07B88FB
:10316000092B02D817233B7201E028233B7203236B
:103170007B720023BB720123FB7207F10803184620
:1031800000F05EFF00BF1837BD4680BD000801405B
:10319000000C0140001001400014014080B485B0D3
:1031A00000AF78600023FB60344BFB607B689B7949
:1031B000002B4FD03149314B1A687B681B68DB43C9
:1031C00013400B602D492D4B5A687B681B68DB430D
:1031D00013404B607B681B791A46FB681344FB6005
:1031E000FB68FA6811687A6812680A431A60234912
:1031F000224B9A687B681B68DB4313408B601F4936
:103200001E4BDA687B681B68DB431340CB607B682E
:103210005B79102B0ED11949184B9A687B681B6893
:1032200013438B601549154BDA687B681B681343A1
:10323000CB601DE0114BFB607B685B791A46FB6835
:103240001344FB60FB68FA6811687A6812680A43E5
:103250001A600DE07B681B791A46FB681344FB601B
:10326000FB68FA6811687A681268D2430A401A60EB
:1032700000BF1437BD4680BC704700BF000401404A
:1032800080B483B000AF78607B6800221A607B68EE
:1032900000221A717B680C225A717B6800229A7195
:1032A00000BF0C37BD4680BC704700BF80B485B0FE
:1032B00000AF78600023FB730023BB600C4B1A68DF
:1032C0007B681340BB600A4B5A697B681340002B34
:1032D00005D0BB68002B02D00123FB7301E0002363
:1032E000FB73FB7B18461437BD4680BC704700BF9C
:1032F0000004014080B483B000AF7860034A7B686B
:10330000536100BF0C37BD4680BC704700040140CC
:1033100080B485B000AF786039600023FB60002383
:10332000FB727B685B68FB60FB6823F4702323F40B
:103330008073FB603B681A683B681B791B02134370
:10334000FA681343FB607B68FA685A607B689B6885
:10335000FB60FA68164B1340FB603B68DA683B6819
:103360009B681A433B685B795B001343FA6813431D
:10337000FB607B68FA689A607B68DB6AFB60FB68CD
:1033800023F47003FB603B681B7C013BDAB2FB7AE1
:103390001343FB72FB7A1B05FA681343FB607B68DF
:1033A000FA68DA6200BF1437BD4680BC704700BFC0
:1033B000FDF7F1FF80B483B000AF78607B68002236
:1033C0001A607B6800221A717B6800225A717B6840
:1033D00000229A607B680022DA607B6801221A74FE
:1033E00000BF0C37BD4680BC704700BF80B483B0BF
:1033F00000AF78600B46FB70FB78002B06D07B6833
:103400009B6843F001027B689A6005E07B689B68DB
:1034100023F001027B689A6000BF0C37BD4680BC78
:10342000704700BF80B483B000AF78607B689B6852
:1034300043F008027B689A6000BF0C37BD4680BC31
:10344000704700BF80B485B000AF78600023FB7385
:103450007B689B6803F00803002B02D00123FB73F9
:1034600001E00023FB73FB7B18461437BD4680BC8C
:10347000704700BF80B483B000AF78607B689B6802
:1034800043F004027B689A6000BF0C37BD4680BCE5
:10349000704700BF80B485B000AF78600023FB7335
:1034A0007B689B6803F00403002B02D00123FB73AD
:1034B00001E00023FB73FB7B18461437BD4680BC3C
:1034C000704700BF80B483B000AF78600B46FB70DC
:1034D000FB78002B06D07B689B6843F4A0027B68D6
:1034E0009A6005E07B689B6823F4A0027B689A6081
:1034F00000BF0C37BD4680BC704700BF80B485B0AC
:1035000000AF7860084611461A460346FB700B462A
:10351000BB7013467B700023FB600023BB60FB780D
:10352000092B23D97B68DB68FB60FB78A3F10A02D7
:1035300013465B001344072202FA03F3BB60BB6827
:10354000DB43FA681340FB607978FB78A3F10A0249
:1035500013465B00134401FA03F3BB60FA68BB68CF
:103560001343FB607B68FA68DA601EE07B681B69C6
:10357000FB60FA7813465B001344072202FA03F358
:10358000BB60BB68DB43FA681340FB607978FA786C
:1035900013465B00134401FA03F3BB60FA68BB688F
:1035A0001343FB607B68FA681A61BB78062B21D84D
:1035B0007B685B6BFB60BB785A1E13469B00134411
:1035C0001F2202FA03F3BB60BB68DB43FA681340B7
:1035D000FB60F978BB785A1E13469B00134401FA2E
:1035E00003F3BB60FA68BB681343FB607B68FA684F
:1035F0005A6347E0BB780C2B21D87B681B6BFB60C0
:10360000BB78DA1F13469B0013441F2202FA03F310
:10361000BB60BB68DB43FA681340FB60F978BB789A
:10362000DA1F13469B00134401FA03F3BB60FA68E8
:10363000BB681343FB607B68FA681A6322E07B680F
:10364000DB6AFB60BB78A3F10D0213469B001344B9
:103650001F2202FA03F3BB60BB68DB43FA68134026
:10366000FB60F978BB78A3F10D0213469B0013446D
:1036700001FA03F3BB60FA68BB681343FB607B6825
:10368000FA68DA6200BF1437BD4680BC704700BFDD
:1036900080B483B000AF78607B68DB6C9BB2184667
:1036A0000C37BD4680BC704780B485B000AF7860F1
:1036B0000B467B800023FB737B881B0A9BB2FB734A
:1036C000FB7BDA437B681A6000BF1437BD4680BCC1
:1036D000704700BF80B58CB000AF786039600023C0
:1036E000FB620023BB6200237B6200233B6200235A
:1036F000FB617B68FB617B681B8A9BB2FB62FA6A99
:103700004CF6FF731340FB623B68DB881A46FB6A8A
:103710001343FB62FB6A9AB27B681A827B689B89BF
:103720009BB2FB62FA6A4EF6F3131340FB623B68EE
:103730009A883B681B8913439AB23B685B891343A1
:103740009BB21A46FB6A1343FB62FB6A9AB27B6820
:103750009A817B689B8A9BB2FB62FA6A4FF6FF43B1
:103760001340FB623B689B891A46FB6A1343FB626A
:10377000FB6A9AB27B689A8207F108031846FFF742
:1037800095FAFB692E4A934202D17B69BB6201E044
:103790003B69BB627B689B899BB21BB2002B0CDA36
:1037A000BA6A13469B0013449A001A443B681B688C
:1037B0005B00B2FBF3F37B620BE0BA6A13469B003B
:1037C00013449A001A443B681B689B00B2FBF3F356
:1037D0007B627B6A1B4AA2FB03235B091B01FB6222
:1037E000FB6A1B09642202FB03F37A6AD31A3B6269
:1037F0007B689B899BB21BB2002B0CDA3B6ADB0017
:103800003233104AA2FB03235B0903F00703FA6A71
:103810001343FB620BE03B6A1B013233094AA2FBF4
:1038200003235B0903F00F03FA6A1343FB62FB6A8D
:103830009AB27B681A8100BF3037BD4680BD00BF99
:10384000003801401F85EB5180B483B000AF786031
:103850007B684FF416521A607B6800229A807B685E
:103860000022DA807B6800221A817B680C225A8150
:103870007B6800229A8100BF0C37BD4680BC704730
:1038800080B483B000AF78600B46FB70FB78002BF0
:1038900008D07B689B899BB243F400539AB27B6843
:1038A0009A8107E07B689B899BB223F400539AB20C
:1038B0007B689A8100BF0C37BD4680BC704700BF53
:1038C00080B487B000AF78600B467B8013467B7076
:1038D00000233B610023FB600023BB6000237B616E
:1038E0007B687B617B88DBB25B09DBB23B617B88F9
:1038F00003F01F03FB600122FB6802FA03F3BB60C5
:103900003B69012B03D17B690C337B6109E03B6987
:10391000022B03D17B6910337B6102E07B69143396
:103920007B617B78002B06D07B697A691168BA6865
:103930000A431A6006E07B697A691168BA68D24363
:103940000A401A6000BF1C37BD4680BC704700BFEC
:1039500080B483B000AF78600B467B807B88C3F374
:1039600008039AB27B689A8000BF0C37BD4680BCC2
:10397000704700BF80B483B000AF78607B689B88DD
:103980009BB2C3F308039BB218460C37BD4680BCFC
:10399000704700BF80B487B000AF78600B467B8073
:1039A0000023FB6000237B610023BB600023FB74CA
:1039B0007B88DBB25B09DBB2BB607B8803F01F0353
:1039C0007B6101227B6902FA03F37B61BB68012BF7
:1039D00007D17B689B899BB21A467B6913407B6148
:1039E00011E0BB68022B07D17B681B8A9BB21A4689
:1039F0007B6913407B6106E07B689B8A9BB21A4619
:103A00007B6913407B617B881B0A9BB2FB600122B0
:103A1000FB6802FA03F3FB607B681B889BB21A46C3
:103A2000FB681340FB607B69002B05D0FB68002B13
:103A300002D00123FB7401E00023FB74FB7C1846D9
:103A40001C37BD4680BC704780B485B000AF78603D
:103A50000A4B1B68002B02D1084B094A1A60074B1E
:103A60001B68FB60054B1A687B681344034A1360AC
:103A7000FB6818461437BD4680BC7047CC0C00204C
:103A8000000F002080B400AFFEE700BF80B584B017
:103A900000AFF860B9603B601346FB713B8B1A4680
:103AA0003968F86800F090F8FB68FA791A71FB68D9
:103AB000BA681A60FB681B680B4A934205D1FB6821
:103AC0001B79184600F092F809E0FB681B68074A6A
:103AD000934204D1FB681B79184600F0D1F800BF6F
:103AE0001037BD4680BD00BF0024014000280140C2
:103AF00080B582B000AF78607B681B680C4A934247
:103B000006D17B68DB8819460948FFF7CDFD0AE03E
:103B10007B681B68074A934205D17B68DB8819469E
:103B20000448FFF7C1FD00BF0837BD4680BD00BF98
:103B3000002401400028014080B582B000AF7860C9
:103B40000B46FB707B681B680D4A934207D17B686C
:103B50001B79FA781146184600F0DCF80BE07B6818
:103B60001B68084A934206D17B681B79FA78114694
:103B7000184600F0E7F800BF0837BD4680BD00BF1B
:103B8000002401400028014080B582B000AF786079
:103B90007B681B680A4A934203D100F0EBF80346A6
:103BA00009E07B681B68074A934203D100F0ECF8F8
:103BB000034600E0002318460837BD4680BD00BF1D
:103BC000002401400028014080B588B000AFF860B3
:103BD000B9601346FB80FA8807F114000023B96826
:103BE000FFF76EF900BF2037BD4680BD80B588B0B5
:103BF00000AF0346FB710020FFF73CF801214FF4B2
:103C00000070FFF703F907F10C031846FFF7D2FB2A
:103C10004FF460237B6107F10C0319461748FFF747
:103C200077FBF979022301221448FFF767FC012191
:103C30001248FFF7DBFB1148FFF7F4FB0F48FFF7D3
:103C400001FC0346002B14BF01230023DBB2002B31
:103C500000D0F3E70948FFF70DFC0848FFF71AFC0E
:103C60000346002B14BF01230023DBB2002B00D03E
:103C7000F3E700BF2037BD4680BD00BF00240140F0
:103C800080B588B000AF0346FB710020FEF7F2FF5D
:103C900001214FF48060FFF7B9F807F10C031846D3
:103CA000FFF788FB4FF460237B6107F10C03194693
:103CB0001748FFF72DFBF979022301221448FFF77B
:103CC0001DFC01211248FFF791FB1148FFF7AAFBE9
:103CD0000F48FFF7B7FB0346002B14BF0123002357
:103CE000DBB2002B00D0F3E70948FFF7C3FB08481D
:103CF000FFF7D0FB0346002B14BF01230023DBB2E8
:103D0000002B00D0F3E700BF2037BD4680BD00BFC9
:103D10000028014080B582B000AF03460A46FB711F
:103D20001346BB71BB79F97901220548FFF7E6FB21
:103D300001210348FFF7C6FB00BF0837BD4680BD21
:103D40000024014080B582B000AF03460A46FB71F3
:103D50001346BB71BB79F97901220548FFF7CEFB09
:103D600001210348FFF7AEFB00BF0837BD4680BD09
:103D70000028014080B500AF0248FFF789FC0346E8
:103D8000184680BD0024014080B500AF0248FFF70F
:103D90007FFC0346184680BD0028014080B485B0F2
:103DA00000AFF860B9607A60FB68BA681A60FB68B7
:103DB0007A685A6000BF1437BD4680BC704700BFA8
:103DC00080B584B000AFF8600B467A607B81B7F9AC
:103DD0000A30384A83FB02121A441112DA178A1A7F
:103DE0004FF4B47101FB02F29B1A7B81B7F90A30E0
:103DF000002B04DA7B8903F5B4739BB27B81B7F99E
:103E00000A303B2B0BDCFB685B6800211846FFF790
:103E100097F84FF00001F86800F04EF845E0B7F968
:103E20000A30B32B16DCFB685B6801211846FFF7EC
:103E300087F84FF08041786801F070FB03464FF03F
:103E40007C51184601F0AEF903461946F86800F0B7
:103E500033F82AE0B7F90A30EF2B0BDCFB685B681C
:103E600000211846FFF76CF84FF00001F86800F0E9
:103E700023F81AE0B7F90A30B3F5B47F15DAFB6816
:103E80005B6801211846FFF75BF84FF080417868C6
:103E900001F044FB034619464FF07C5001F080F9D5
:103EA00003461946F86800F007F800BF1037BD4612
:103EB00080BD00BFB7600BB690B583B000AF78602F
:103EC0003960386800F07AFE1FA3D3E9002301F0BF
:103ED00045F90346002B17D07B681C687B681B687C
:103EE0009B88184601F012FA03463968184601F01B
:103EF00061FA0346184601F0ADFB03469BB2194632
:103F00002046FCF7EDFD1AE0386800F057FE10A3DC
:103F1000D3E9002301F022F90346002B06D07B6889
:103F20001B6800211846FCF7DBFD08E07B681A6877
:103F30007B681B689B8819461046FCF7D1FD00BFC3
:103F40000C37BD4690BD00BF666666666666EE3F8E
:103F50009A9999999999A93F80B485B000AFF86072
:103F6000B9607A603B60FB68BA681A60FB687A687F
:103F70005A60FB683A689A6000BF1437BD4680BC3F
:103F8000704700BF80B584B000AFF8600B467A6020
:103F90007B81B7F90A30002B1CDBFB681B68B7F983
:103FA0000A107A681846FFF70BFFFB6858687B8990
:103FB00078339BB21BB27A681946FFF701FFFB68A2
:103FC00098687B89F0339BB21BB27A681946FFF779
:103FD000F7FE00E000BF1037BD4680BD80B582B05F
:103FE00000AF78607B681B685B6800211846FEF7AD
:103FF000A7FF7B685B685B6800211846FEF7A0FF9F
:104000007B689B685B6800211846FEF799FF7B6818
:104010001B681B6800211846FCF762FD7B685B6823
:104020001B6800211846FCF75BFD7B689B681B68DA
:1040300000211846FCF754FD00BF0837BD4680BD7F
:1040400080B487B000AF786000237B6100233B61C0
:104050000F23FB607B68DB78002B3AD0274BDB68B3
:10406000DB4303F4E0631B0A7B617B69C3F1040358
:104070003B61FA687B6922FA03F3FB607B685B783B
:104080001A463B6902FA03F37B617B689B781A4608
:10409000FB6813407A6913437B617B691B017B6179
:1040A000174A7B681B787969C9B213440A4683F8BA
:1040B0000023134A7B681B785B09DBB218467B68D8
:1040C0001B7803F01F03012101FA03F342F82030AB
:1040D0000FE00B497B681B785B09DBB218467B68F5
:1040E0001B7803F01F0301229A4000F1200341F8DE
:1040F000232000BF1C37BD4680BC704700ED00E0A8
:1041000000E100E080B485B000AF78600B46FB7042
:104110000023FB730023BB8100237B8100233B81B1
:10412000FB7803F00F03012202FA03F3BB81FB7853
:104130001B09DBB27B817B89012202FA03F37B81BD
:104140007B689B889AB27B8913403B817B681B8983
:104150009AB2BB8913409BB2002B05D03B89002B40
:1041600002D00123FB7301E00023FB73FB7B1846A5
:104170001437BD4680BC704780B485B000AF78600E
:104180000B46FB700023FB81FB7803F00F03012239
:1041900002FA03F3FB81FB89DB439AB27B681A8145
:1041A00000BF1437BD4680BC704700BF80B584B0E7
:1041B00000AF786039600023FB60FB683A68134405
:1041C0001B78002B0BD0FB683A6813441B78194608
:1041D000786800F089F8FB680133FB60EDE700BF09
:1041E0001037BD4680BD00BF0EB480B5A5B000AF8E
:1041F000786007F1A003C7F88C3007F10C03D7F8FB
:104200008C20D7F89C10184602F0D6FB07F10C035F
:1042100019467868FFF7CAFF00BF9437BD46BDE86E
:10422000804003B0704700BF80B586B002AFF86031
:10423000B9607A603B60FB68BA681A603A8B3B8C65
:104240000093FB693968F86800F00CF9FB681B689B
:10425000224A934211D1786800F01EF940F22550AD
:1042600000F098F940F2277000F094F9012240F232
:1042700027711A48FFF724FB2CE0FB681B68184ADB
:10428000934211D1786800F031F940F2255000F0E6
:104290009DF940F2277000F099F9012240F2277150
:1042A0000F48FFF70DFB15E0FB681B680D4A9342B2
:1042B00010D1786800F044F940F2255000F0A2F9DE
:1042C00040F2277000F09EF9012240F22771054864
:1042D000FFF7F6FA00BF1037BD4680BD0038014039
:1042E000004400400048004080B582B000AF7860D4
:1042F0000B46FB707B681B684E4A93422ED101220D
:1043000040F227714B48FFF7DBFA4B4B1B881A46EC
:104310004A4B1B8801339A420CD1474B1B8801330F
:104320009AB2454B1A80444B1B887F2B02D9424BD3
:1043300000221A80414B1B881946414AFB7853548E
:104340003E4B1B8801339AB23C4B1A803B4B1B8877
:104350007F2B6AD9394B00221A8066E07B681B6884
:10436000384A93422ED1012240F227713548FFF797
:10437000A7FA354B1B881A46344B1B8801339A42E7
:104380000CD1314B1B8801339AB22F4B1A802E4B24
:104390001B887F2B02D92C4B00221A802B4B1B88A9
:1043A00019462B4AFB785354284B1B8801339AB289
:1043B000264B1A80254B1B887F2B36D9234B002296
:1043C0001A8032E07B681B68224A93422DD1012279
:1043D00040F227711F48FFF773FA1F4B1B881A46DC
:1043E0001E4B1B8801339A420CD11B4B1B88013397
:1043F0009AB2194B1A80184B1B887F2B02D9164B87
:1044000000221A80154B1B881946154AFB78535415
:10441000124B1B8801339AB2104B1A800F4B1B882A
:104420007F2B02D90D4B00221A8000BF0837BD46F2
:1044300080BD00BF00380140BC0D0020BE0D002033
:104440003C0D002000440040400E0020420E0020A1
:10445000C00D002000480040C40E0020C60E002001
:10446000440E002080B58AB000AFF860B9603B60B0
:104470001346FB80FA8807F11C001823B968FEF781
:104480001FFD3A8E07F1100048233968FEF718FD2A
:1044900000BF2837BD4680BD80B586B000AF7860CC
:1044A00001214FF48040FEF7B1FC07F108031846E4
:1044B000FFF7CAF97B68BB600C237B8200233B8239
:1044C0004FF40053FB810023BB8107F10803194619
:1044D0000548FFF7FFF801210348FFF7D1F900BFB6
:1044E0001837BD4680BD00BF0038014080B586B09A
:1044F00000AF786001214FF40030FEF7A5FC07F112
:1045000008031846FFF7A0F97B68BB600C237B8289
:1045100000233B824FF40053FB810023BB8107F152
:10452000080319460548FFF7D5F801210348FFF7AE
:10453000A7F900BF1837BD4680BD00BF004400404A
:1045400080B586B000AF786001214FF48020FEF77F
:104550007BFC07F108031846FFF776F97B68BB6020
:104560000C237B8200233B824FF40053FB8100230A
:10457000BB8107F1080319460548FFF7ABF8012195
:104580000348FFF77DF900BF1837BD4680BD00BF67
:104590000048004080B584B000AF0346FB8025236F
:1045A0003B730023BB730123FB7307F10C03184615
:1045B000FFF746FDFB88012219460348FFF780F903
:1045C00000BF1037BD4680BD0038014080B584B0C3
:1045D00000AF0346FB8026233B730023BB730123FC
:1045E000FB7307F10C031846FFF72AFDFB88012235
:1045F00019460348FFF764F900BF1037BD4680BD78
:104600000044004080B584B000AF0346FB80272300
:104610003B730023BB730123FB7307F10C031846A4
:10462000FFF70EFDFB88012219460348FFF748F902
:1046300000BF1037BD4680BD0048004090B583B034
:1046400000AF40F225513148FFF7A4F90346012B92
:104650000CBF01230023DBB2002B22D02B48FFF735
:1046600089F90346FB71FB799BB219462748FFF78E
:104670006FF9274B1B881C462448FFF77BF903463C
:10468000DAB2244B1A55224B1B8801339AB2204BC5
:104690001A801F4B1B881F2B34D91D4B00221A80F8
:1046A00030E040F227711948FFF774F90346002BF8
:1046B00014BF01230023DBB2002B23D0164B1A8832
:1046C000164B1B889A4217D0144B1B881A46144B62
:1046D0009B5C9BB219460D48FFF73AF90F4B1B88BC
:1046E00001339AB20D4B1A800C4B1B887F2B09D9D2
:1046F0000A4B00221A8005E0002240F2277103488D
:10470000FFF7DEF800BF0C37BD4690BD0038014012
:1047100038000020D00C0020BE0D0020BC0D002071
:104720003C0D002090B583B000AF40F225513148D8
:10473000FFF730F90346012B0CBF01230023DBB246
:10474000002B22D02B48FFF715F90346FB71FB79AC
:104750009BB219462748FFF7FBF8274B1B881C46DE
:104760002448FFF707F90346DAB2244B1A55224BC7
:104770001B8801339AB2204B1A801F4B1B881F2BBA
:1047800034D91D4B00221A8030E040F227711948BD
:10479000FFF700F90346002B14BF01230023DBB20F
:1047A000002B23D0164B1A88164B1B889A4217D021
:1047B000144B1B881A46144B9B5C9BB219460D4840
:1047C000FFF7C6F80F4B1B8801339AB20D4B1A80C6
:1047D0000C4B1B887F2B09D90A4B00221A8005E05D
:1047E000002240F227710348FFF76AF800BF0C3738
:1047F000BD4690BD004400403A000020F40C00206B
:10480000420E0020400E0020C00D002090B583B065
:1048100000AF40F225513148FFF7BCF80346012BA9
:104820000CBF01230023DBB2002B22D02B48FFF763
:10483000A1F80346FB71FB799BB219462748FFF7A5
:1048400087F8274B1B881C462448FFF793F803463C
:10485000DAB2244B1A55224B1B8801339AB2204BF3
:104860001A801F4B1B881F2B34D91D4B00221A8026
:1048700030E040F227711948FFF78CF80346002B0F
:1048800014BF01230023DBB2002B23D0164B1A8860
:10489000164B1B889A4217D0144B1B881A46144B90
:1048A0009B5C9BB219460D48FFF752F80F4B1B88D3
:1048B00001339AB20D4B1A800C4B1B887F2B09D900
:1048C0000A4B00221A8005E0002240F227710348BB
:1048D000FEF7F6FF00BF0C37BD4690BD0048004014
:1048E0003C000020180D0020C60E0020C40E002041
:1048F000440E002081F0004102E000BF83F000433D
:1049000030B54FEA41044FEA430594EA050F08BF6A
:1049100090EA020F1FBF54EA000C55EA020C7FEA2E
:10492000645C7FEA655C00F0E2804FEA5454D4EBAB
:104930005555B8BF6D420CDD2C4480EA020281EA75
:10494000030382EA000083EA010180EA020281EAAD
:104950000303362D88BF30BD11F0004F4FEA0131FF
:104960004FF4801C4CEA113102D0404261EB41010E
:1049700013F0004F4FEA03334CEA133302D0524294
:1049800063EB430394EA050F00F0A780A4F1010450
:10499000D5F1200E0DDB02FA0EFC22FA05F280188A
:1049A00041F1000103FA0EF2801843FA05F3594170
:1049B0000EE0A5F120050EF1200E012A03FA0EFCEF
:1049C00028BF4CF0020C43FA05F3C01851EBE37119
:1049D00001F0004507D54FF0000EDCF1000C7EEB36
:1049E00000006EEB0101B1F5801F1BD3B1F5001F74
:1049F0000CD349085FEA30004FEA3C0C04F1010493
:104A00004FEA445212F5800F80F09A80BCF1004FBB
:104A100008BF5FEA500C50F1000041EB045141EA3D
:104A2000050130BD5FEA4C0C404141EB010111F43E
:104A3000801FA4F10104E9D191F0000F04BF0146E9
:104A40000020B1FA81F308BF2033A3F10B03B3F1C7
:104A500020020CDA0C3208DD02F1140CC2F10C0257
:104A600001FA0CF021FA02F10CE002F11402D8BFB5
:104A7000C2F1200C01FA02F120FA0CFCDCBF41EA81
:104A80000C019040E41AA2BF01EB0451294330BD50
:104A90006FEA04041F3C1CDA0C340EDC04F114042D
:104AA000C4F1200220FA04F001FA02F340EA030004
:104AB00021FA04F345EA030130BDC4F10C04C4F14A
:104AC000200220FA02F001FA04F340EA030029462A
:104AD00030BD21FA04F0294630BD94F0000F83F474
:104AE000801306BF81F480110134013D4EE77FEA57
:104AF000645C18BF7FEA655C29D094EA050F08BFA3
:104B000090EA020F05D054EA000C04BF1946104683
:104B100030BD91EA030F1EBF0021002030BD5FEAC7
:104B2000545C05D14000494128BF41F0004130BDEF
:104B300014F580043CBF01F5801130BD01F0004543
:104B400045F0FE4141F470014FF0000030BD7FEAB6
:104B5000645C1ABF194610467FEA655C1CBF0B46B1
:104B6000024650EA013406BF52EA033591EA030FC8
:104B700041F4002130BD00BF90F0000F04BF0021C0
:104B8000704730B54FF4806404F132044FF00005F3
:104B90004FF0000150E700BF90F0000F04BF00216C
:104BA000704730B54FF4806404F1320410F00045D2
:104BB00048BF40424FF000013EE700BF42004FEACD
:104BC000E2014FEA31014FEA02701FBF12F07F434A
:104BD00093F07F4F81F06051704792F0000F14BF47
:104BE00093F07F4F704730B54FF4607401F000458B
:104BF00021F0004120E700BF50EA010208BF7047E2
:104C000030B54FF000050AE050EA010208BF7047D6
:104C100030B511F0004502D5404261EB41014FF43F
:104C2000806404F132045FEA915C3FF4DCAE4FF043
:104C300003025FEADC0C18BF03325FEADC0C18BF2A
:104C4000033202EBDC02C2F1200300FA03FC20FA7B
:104C500002F001FA03FE40EA0E0021FA02F11444C8
:104C6000C1E600BF70B54FF0FF0C4CF4E06C1CEADD
:104C700011541DBF1CEA135594EA0C0F95EA0C0F52
:104C800000F0DEF82C4481EA030621EA4C5123EAC5
:104C90004C5350EA013518BF52EA033541F48011F4
:104CA00043F4801338D0A0FB02CE4FF00005E1FBA7
:104CB00002E506F00042E0FB03E54FF00006E1FBF1
:104CC00003569CF0000F18BF4EF0010EA4F1FF0434
:104CD000B6F5007F64F5407404D25FEA4E0E6D4174
:104CE00046EB060642EAC62141EA55514FEAC52085
:104CF00040EA5E504FEACE2EB4F1FD0C88BFBCF501
:104D0000E06F1ED8BEF1004F08BF5FEA500E50F1B1
:104D1000000041EB045170BD06F0004646EA010177
:104D200040EA020081EA0301B4EB5C04C2BFD4EBA9
:104D30000C0541EA045170BD41F480114FF0000EA2
:104D4000013C00F3AB8014F1360FDEBF002001F010
:104D5000004170BDC4F10004203C35DA0C341BDC8A
:104D600004F11404C4F1200500FA05F320FA04F05C
:104D700001FA05F240EA020001F0004221F0004190
:104D800010EBD37021FA04F642EB06015EEA430E03
:104D900008BF20EAD37070BDC4F10C04C4F1200533
:104DA00000FA04F320FA05F001FA04F240EA0200E6
:104DB00001F0004110EBD37041F100015EEA430EB7
:104DC00008BF20EAD37070BDC4F1200500FA05F2D7
:104DD0004EEA020E20FA04F301FA05F243EA020356
:104DE00021FA04F001F0004121FA04F220EA020065
:104DF00000EBD3705EEA430E08BF20EAD37070BDAB
:104E000094F0000F0FD101F00046400041EB01018A
:104E100011F4801F08BF013CF7D041EA060195F06C
:104E2000000F18BF704703F00046520043EB030326
:104E300013F4801F08BF013DF7D043EA0603704713
:104E400094EA0C0F0CEA135518BF95EA0C0F0CD01E
:104E500050EA410618BF52EA4306D1D181EA030164
:104E600001F000414FF0000070BD50EA410606BF5E
:104E70001046194652EA430619D094EA0C0F02D1A3
:104E800050EA013613D195EA0C0F05D152EA0336E8
:104E90001CBF104619460AD181EA030101F0004106
:104EA00041F0FE4141F470014FF0000070BD41F04F
:104EB000FE4141F4780170BD70B54FF0FF0C4CF429
:104EC000E06C1CEA11541DBF1CEA135594EA0C0F48
:104ED00095EA0C0F00F0A7F8A4EB050481EA030E95
:104EE00052EA03354FEA013100F088804FEA03337C
:104EF0004FF0805545EA131343EA12634FEA02224A
:104F000045EA111545EA10654FEA00260EF000410A
:104F10009D4208BF964244F1FD0404F5407402D25C
:104F20005B084FEA3202B61A65EB03055B084FEAED
:104F300032024FF480104FF4002CB6EB020E75EBEA
:104F4000030E22BFB61A754640EA0C005B084FEA12
:104F50003202B6EB020E75EB030E22BFB61A75468F
:104F600040EA5C005B084FEA3202B6EB020E75EBDA
:104F7000030E22BFB61A754640EA9C005B084FEA52
:104F80003202B6EB020E75EB030E22BFB61A75465F
:104F900040EADC0055EA060E18D04FEA051545EA4E
:104FA00016754FEA06164FEAC30343EA52734FEAF7
:104FB000C2025FEA1C1CC0D111F4801F0BD141EA70
:104FC00000014FF000004FF0004CB6E711F4801FD5
:104FD00004BF01430020B4F1FD0C88BFBCF5E06FB5
:104FE0003FF6AFAEB5EB030C04BFB6EB020C5FEAC5
:104FF000500C50F1000041EB045170BD0EF0004E1A
:105000004EEA113114EB5C04C2BFD4EB0C0541EA4B
:10501000045170BD41F480114FF0000E013C90E648
:1050200045EA060E8DE60CEA135594EA0C0F08BF0C
:1050300095EA0C0F3FF43BAF94EA0C0F0AD150EA0B
:1050400001347FF434AF95EA0C0F7FF425AF10469E
:1050500019462CE795EA0C0F06D152EA03353FF4C6
:10506000FDAE1046194622E750EA410618BF52EA43
:1050700043067FF4C5AE50EA41047FF40DAF52EA17
:1050800043057FF4EBAE12E74FF0FF3C06E000BFB4
:105090004FF0010C02E000BF4FF0010C4DF804CDC1
:1050A0004FEA410C7FEA6C5C4FEA430C18BF7FEA81
:1050B0006C5C1BD001B050EA410C0CBF52EA430CAF
:1050C00091EA030F02BF90EA020F0020704710F12F
:1050D000000F91EA030F58BF994208BF90422CBFBE
:1050E000D8176FEAE37040F0010070474FEA410CB7
:1050F0007FEA6C5C02D150EA013C07D14FEA430CD5
:105100007FEA6C5CD6D152EA033CD3D05DF8040B45
:10511000704700BF8446104662468C461946634677
:1051200000E000BF01B5FFF7B7FF002848BF10F14E
:10513000000F01BD4DF808EDFFF7F4FF0CBF012093
:1051400000205DF808FB00BF4DF808EDFFF7EAFF0F
:1051500034BF012000205DF808FB00BF4DF808EDCA
:10516000FFF7E0FF94BF012000205DF808FB00BFBF
:105170004DF808EDFFF7CEFF94BF012000205DF849
:1051800008FB00BF4DF808EDFFF7C4FF34BF012056
:1051900000205DF808FB00BF80F0004002E000BF87
:1051A00081F0004142001FBF5FEA410392EA030F12
:1051B0007FEA226C7FEA236C6AD04FEA1262D2EB5C
:1051C0001363C1BFD218414048404140B8BF5B4261
:1051D000192B88BF704710F0004F40F4000020F0FA
:1051E0007F4018BF404211F0004F41F4000121F010
:1051F0007F4118BF494292EA030F3FD0A2F101025A
:1052000041FA03FC10EB0C00C3F1200301FA03F197
:1052100000F0004302D5494260EB4000B0F5000FBA
:1052200013D3B0F1807F06D340084FEA310102F179
:105230000102FE2A51D2B1F1004F40EBC25008BF2B
:1052400020F0010040EA03007047490040EB0000F5
:1052500010F4000FA2F10102EDD1B0FA80FCACF124
:10526000080CB2EB0C0200FA0CF0AABF00EBC25023
:1052700052421843BCBFD0401843704792F0000F11
:1052800081F4000106BF80F400000132013BB5E764
:105290004FEA41037FEA226C18BF7FEA236C21D0DA
:1052A00092EA030F04D092F0000F08BF084670473F
:1052B00090EA010F1CBF0020704712F07F4F04D10D
:1052C000400028BF40F00040704712F100723CBF20
:1052D00000F50000704700F0004343F0FE4040F44A
:1052E000000070477FEA226216BF08467FEA236308
:1052F0000146420206BF5FEA412390EA010F40F4F3
:10530000800070474FF0000304E000BF10F000433E
:1053100048BF40425FEA000C08BF704743F0964325
:1053200001464FF000001CE050EA010208BF704740
:105330004FF000030AE000BF50EA010208BF7047C7
:1053400011F0004302D5404261EB41015FEA010CDC
:1053500002BF84460146002043F0B64308BFA3F1D4
:105360008053A3F50003BCFA8CF2083AA3EBC253B6
:1053700010DB01FA02FC634400FA02FCC2F12002D5
:10538000BCF1004F20FA02F243EB020008BF20F00C
:105390000100704702F1200201FA02FCC2F1200272
:1053A00050EA4C0021FA02F243EB020008BF20EA67
:1053B000DC7070474FF0FF0C1CEAD0521EBF1CEA95
:1053C000D15392EA0C0F93EA0C0F6FD01A4480EA83
:1053D000010C400218BF5FEA41211ED04FF000636C
:1053E00043EA501043EA5111A0FB01310CF0004098
:1053F000B1F5000F3EBF490041EAD3715B0040EABE
:10540000010062F17F02FD2A1DD8B3F1004F40EB8D
:10541000C25008BF20F00100704790F0000F0CF060
:10542000004C08BF49024CEA502040EA51207F3A24
:10543000C2BFD2F1FF0340EAC250704740F40000FF
:105440004FF00003013A5DDC12F1190FDCBF00F0F0
:1054500000407047C2F10002410021FA02F1C2F19E
:10546000200200FA02FC5FEA310040F1000053EA3A
:105470004C0308BF20EADC70704792F0000F00F088
:10548000004C02BF400010F4000F013AF9D040EA8E
:105490000C0093F0000F01F0004C02BF490011F422
:1054A000000F013BF9D041EA0C018FE70CEAD15320
:1054B00092EA0C0F18BF93EA0C0F0AD030F0004CA0
:1054C00018BF31F0004CD8D180EA010000F0004054
:1054D000704790F0000F17BF90F0004F084691F012
:1054E000000F91F0004F14D092EA0C0F01D142024C
:1054F0000FD193EA0C0F03D14B0218BF084608D115
:1055000080EA010000F0004040F0FE4040F400005E
:10551000704740F0FE4040F4400070474FF0FF0CF1
:105520001CEAD0521EBF1CEAD15392EA0C0F93EA38
:105530000C0F69D0A2EB030280EA010C49024FEA8A
:10554000402037D04FF0805343EA111143EA101343
:105550000CF000408B4238BF5B0042F17D024FF4FB
:10556000000C8B4224BF5B1A40EA0C00B3EB510FD6
:1055700024BFA3EB510340EA5C00B3EB910F24BFBF
:10558000A3EB910340EA9C00B3EBD10F24BFA3EB44
:10559000D10340EADC001B0118BF5FEA1C1CE0D10C
:1055A000FD2A3FF650AF8B4240EBC25008BF20F0BF
:1055B000010070470CF0004C4CEA50207F32C2BF13
:1055C000D2F1FF0340EAC250704740F400004FF0B0
:1055D0000003013A37E792F0000F00F0004C02BFE1
:1055E000400010F4000F013AF9D040EA0C0093F0AB
:1055F000000F01F0004C02BF490011F4000F013B05
:10560000F9D041EA0C0195E70CEAD15392EA0C0F6C
:1056100008D142027FF47DAF93EA0C0F7FF470AFA4
:10562000084676E793EA0C0F04D14B023FF44CAFE7
:1056300008466EE730F0004C18BF31F0004CCAD17C
:1056400030F000427FF45CAF31F000437FF43CAFB8
:105650005FE700BF42000ED2B2F1FE4F0BD34FF016
:105660009E03B3EB126209D44FEA002343F00043D8
:1056700023FA02F070474FF00000704712F1610FFB
:1056800001D1420202D14FF0FF3070474FF00000CD
:10569000704700BF53B94AB9002908BF00281CBF92
:1056A0004FF0FF314FF0FF3001F0F4B8ADF1080CCE
:1056B0006DE904CE00F006F8DDF804E0DDE9022330
:1056C00004B070472DE9F04F8C460C460546099E04
:1056D000002B4FD18A4217466BD9B2FA82FEBEF137
:1056E000000F0BD0CEF1200520FA05F501FA0EF3DC
:1056F00045EA030C02FA0EF700FA0EF5390CBCFB72
:10570000F1F0BAB201FB10C300FB02F84FEA154CEE
:105710004CEA0344A04509D9E41900F1FF3380F0B5
:105720002881A04540F2258102383C44C8EB04049E
:10573000B4FBF1F301FB134C03FB02F2ACB244EAFD
:105740000C418A4209D9C91903F1FF3480F00F8155
:105750008A4240F20C81023B39448A1A43EA0040F3
:105760000021002E63D022FA0EF2002386E80C00FE
:10577000BDE8F08F8B4207D9002E56D0002186E875
:1057800011000846BDE8F08FB3FA83F1002940F01C
:105790009380A34202D3824200F2FE80851A64EB1A
:1057A00003039C460120002E41D086E82010BDE86E
:1057B000F08F12B90127B7FBF2F7B7FA87FEBEF1F7
:1057C000000F36D1E41B4FEA17481FFA87F9012171
:1057D000B4FBF8F308FB134409FB03F24FEA154C42
:1057E0004CEA0444A24207D9E41903F1FF3002D283
:1057F000A24200F2D3800346A41AB4FBF8F008FBDF
:10580000104809FB00F9ACB244EA0842914507D9B7
:10581000D21900F1FF3402D2914500F2BA8020463D
:10582000C9EB020240EA03409BE731463046BDE83F
:10583000F08F07FA0EF7CEF1200C24FA0CF34FEAA2
:105840001748B3FBF8FA1FFA87F908FB1A3520FA54
:105850000CFC04FA0EF40AFB09FB4CEA040C4FEAB8
:105860001C4242EA05439B4500FA0EF50AD9DB19B2
:105870000AF1FF3280F08B809B4540F28880AAF1CC
:10588000020A3B44CBEB0303B3FBF8F008FB1033F5
:1058900000FB09F41FFA8CFC4CEA03439C4207D935
:1058A000DB1900F1FF326ED29C426CD902383B44C6
:1058B0001C1B40EA0A418BE7C1F1200E8B4022FA03
:1058C0000EFC4CEA030C24FA0EF74FEA1C49B7FB16
:1058D000F9FA1FFA8CF309FB1A7720FA0EF88C40BC
:1058E0000AFB03F548EA04044FEA144848EA07476C
:1058F000BD4202FA01F200FA01FB09D917EB0C07CD
:105900000AF1FF3041D2BD423FD9AAF1020A6744F1
:105910007F1BB7FBF9F509FB157705FB03F3A4B271
:1059200044EA0747BB4208D917EB0C0705F1FF30E3
:1059300027D2BB4225D9023D674445EA0A40A0FB75
:105940000289FF1A4F4545464C4614D329D066B309
:10595000BBEB050367EB040707FA0EFECB40CF4015
:105960004EEA030386E888000021BDE8F08F234655
:10597000F3E61846DAE6B8EB020569EB0C040138E9
:10598000E5E70546D9E7104692E78246C0E792462A
:1059900078E702383A4443E7084604E7023B3C44D0
:1059A0002AE7C345E7D33C46D1E73146BDE8F08F4F
:1059B00003685A004CBF43F0004323F000431844EF
:1059C000704700BF61B32DE9F84F01F1FF3A9046EF
:1059D0000646D146002707EB090404EBD474641093
:1059E000E50071190846FFF7E3FFA245834605F17C
:1059F0000800304409D0FFF7DBFFC34500F1FF305A
:105A000005D8404509D2671CE5E7C34505D9A7423B
:105A100002D004F1FF39DEE700210846BDE8F88F27
:105A200008467047012807D0022807D0044B0028F9
:105A30000CBF184600207047024870470248704764
:105A4000396100083D6100084161000830B5254B0F
:105A500083B004468D1E7BB301A92846AFF30080B6
:105A600020B301992A46FFF7ADFF0146F0B1FFF7D9
:105A70009FFF4B68A064012B12D0002B01F10400A2
:105A800021DBFFF795FF0023E06423650368002B0B
:105A90001DDBFFF78DFF00232061184603B030BDEA
:105AA000002323610523184603B030BD0023236182
:105AB0000923184603B030BD0B490C4B0846591A50
:105AC000C9100191CEE70123E0642365DEE7C3F34B
:105AD0000360FFF7A7FF0028206114BF00230923FC
