:020000040800F2
:10000000C01100200D1600086D1600086D160008BE
:100010006D1600086D1600086D160008000000003F
:100020000000000000000000000000006D16000845
:100030006D160008000000006D1600086D20000815
:100040006D1600086D1600086D1600086D16000884
:100050006D1600086D1600086D1600086D16000874
:100060006D1600086D1600086D1600086D16000864
:100070006D1600086D1600086D1600086D16000854
:100080006D1600086D1600086D1600086D16000844
:100090000D1E00086D1600086D1600086D1600088C
:1000A0006D160008291400086D1600086D1600086A
:1000B00069140008BD1400080D1500086D1600082D
:1000C0006D1600086D1600086D1600080D01000879
:1000D0006D1600088D350008753600085D3700087C
:1000E0006D1600086D1600086D160008000000006F
:1000F0000000000000000000000000000000000000
:1001000000000000000000005FF808F180B500AFBB
:100110007121114802F09EFF0346002B14BF0123FA
:100120000023DBB2002B04D002210B4802F0CCFFED
:100130000FE06021084802F08DFF0346002B14BF3A
:1001400001230023DBB2002B03D00121024802F07F
:10015000BBFF00BF80BD00BF0030014080B485B050
:1001600000AF786039600023FB817B681B88FB81CE
:100170007B682E4A934213D07B682D4A93420FD05E
:100180007B68B3F1804F0BD07B682A4A934207D03B
:100190007B68294A934203D07B68284A934208D15E
:1001A000FB8923F07003FB813B685A88FB8913436A
:1001B000FB817B68224A93420CD07B68214A9342A0
:1001C00008D0FB8923F44073FB813B68DA88FB8904
:1001D0001343FB817B68FA891A803B689A887B68A5
:1001E0009A853B681A887B681A857B680F4A934218
:1001F0000FD07B680E4A93420BD07B68124A934221
:1002000007D07B68114A934203D07B68104A93421F
:1002100004D13B681B7A9AB27B681A867B680122FC
:100220009A8200BF1437BD4680BC7047002C014045
:10023000003401400004004000080040000C004071
:100240000010004000140040004001400044014004
:100250000048014080B485B000AF78603960002369
:100260007B810023FB810023BB817B681B8C9BB2BD
:1002700023F001039AB27B681A847B681B8CFB8194
:100280007B689B88BB817B681B8B7B817B8923F090
:1002900070037B817B8923F003037B813B681A8891
:1002A0007B8913437B81FB8923F00203FB813B683D
:1002B0001A89FB891343FB813B685A88FB891343E6
:1002C000FB817B68244A93420FD07B68234A934288
:1002D0000BD07B68224A934207D07B68214A934225
:1002E00003D07B68204A934223D1FB8923F0080383
:1002F000FB813B685A89FB891343FB81FB8923F00F
:100300000403FB813B689A88FB891343FB81BB890B
:1003100023F48073BB81BB8923F40073BB813B68EA
:100320009A89BB891343BB813B68DA89BB89134334
:10033000BB817B68BA899A807B687A891A833B681B
:10034000DA887B689A867B68FA891A8400BF14373A
:10035000BD4680BC704700BF002C01400034014006
:1003600000400140004401400048014080B485B095
:1003700000AF7860396000237B810023FB8100237C
:10038000BB817B681B8C9BB223F010039AB27B6805
:100390001A847B681B8CFB817B689B88BB817B6894
:1003A0001B8B7B817B8923F4E0437B817B8923F456
:1003B00040737B813B681B881B029AB27B89134385
:1003C0007B81FB8923F02003FB813B681B891B0198
:1003D0009AB2FB891343FB813B685B881B019AB28D
:1003E000FB891343FB817B68224A934203D07B68DD
:1003F000214A93422BD1FB8923F08003FB813B6888
:100400005B891B019AB2FB891343FB81FB8923F0B3
:100410004003FB813B689B881B019AB2FB89134315
:10042000FB81BB8923F48063BB81BB8923F4006318
:10043000BB813B689B899B009AB2BB891343BB81FC
:100440003B68DB899B009AB2BB891343BB817B6805
:10045000BA899A807B687A891A833B68DA887B68D4
:100460001A877B68FA891A8400BF1437BD4680BC9E
:10047000704700BF002C01400034014080B485B0BB
:1004800000AF7860396000237B810023FB8100236B
:10049000BB817B681B8C9BB223F480739AB27B6810
:1004A0001A847B681B8CFB817B689B88BB817B6883
:1004B0009B8B7B817B8923F070037B817B8923F07D
:1004C00003037B813B681A887B8913437B81FB890B
:1004D00023F40073FB813B681B891B029AB2FB89E2
:1004E0001343FB813B685B881B029AB2FB89134371
:1004F000FB817B68224A934203D07B68214A934266
:100500002BD1FB8923F40063FB813B685B891B02D1
:100510009AB2FB891343FB81FB8923F48063FB813F
:100520003B689B881B029AB2FB891343FB81BB8902
:1005300023F48053BB81BB8923F40053BB813B6808
:100540009B891B019AB2BB891343BB813B68DB8942
:100550001B019AB2BB891343BB817B68BA899A801D
:100560007B687A899A833B68DA887B689A877B689C
:10057000FA891A8400BF1437BD4680BC704700BF9B
:10058000002C01400034014080B485B000AF786099
:1005900039600023BB8100237B810023FB817B68C2
:1005A0001B8C9BB223F480539AB27B681A847B68BD
:1005B0001B8C7B817B689B88FB817B689B8BBB81D1
:1005C000BB8923F4E043BB81BB8923F44073BB8127
:1005D0003B681B881B029AB2BB891343BB817B8992
:1005E00023F400537B813B681B891B039AB27B89F0
:1005F00013437B813B685B881B039AB27B8913435F
:100600007B817B68124A934203D07B68114A9342F4
:100610000AD1FB8923F48043FB813B689B899B01C2
:100620009AB2FB891343FB817B68FA899A807B68C5
:10063000BA899A833B68DA887B68A3F840207B6894
:100640007A891A8400BF1437BD4680BC704700BF4A
:10065000002C01400034014080B483B000AF7860CA
:1006600039603B681A883B685B8813439AB23B68E1
:100670009B8813439AB23B68DB8813439AB23B686A
:100680001B8913439AB23B685B8913439AB23B6858
:100690009B8913439AB27B68A3F8442000BF0C37B0
:1006A000BD4680BC704700BF80B483B000AF7860A7
:1006B0007B684FF6FF729A807B6800221A807B6805
:1006C0000022DA807B6800225A807B6800221A723E
:1006D00000BF0C37BD4680BC704700BF80B483B0FC
:1006E00000AF78607B6800221A807B6800225A8005
:1006F0007B6800229A807B680022DA807B68002277
:100700001A817B6800225A817B6800229A817B686B
:100710000022DA8100BF0C37BD4680BC704700BFA5
:1007200080B483B000AF78607B6800221A807B6859
:1007300000225A807B6800229A807B680022DA803F
:100740007B6800221A817B6800225A817B68002224
:100750009A8100BF0C37BD4680BC704780B483B01F
:1007600000AF78600B46FB70FB78002B08D07B68ED
:100770001B889BB243F001039AB27B681A8007E0A2
:100780007B681B889BB223F001039AB27B681A80B6
:1007900000BF0C37BD4680BC704700BF80B483B03B
:1007A00000AF78600B467B8013467B707B78002B14
:1007B00008D07B689B899AB27B8813439AB27B6886
:1007C0009A8109E07B689B899AB27B88DB439BB264
:1007D00013409AB27B689A8100BF0C37BD4680BC3B
:1007E000704700BF80B487B000AFF860084611467C
:1007F0001A4603467B810B463B811346FB80002350
:10080000FB820023BB8200237B82FB681B89FB8267
:10081000FB681B8BBB82FB681B8C7B82FB8A23F0F3
:100820000703FB82FA8A7B891343FB82BB8A23F48A
:10083000407323F00303BB82BB8A43F4807343F00D
:100840000103BB827B8A23F022037B82FB881B018E
:100850009AB23B8913439AB27B8A13437B82FB682B
:10086000FA8A1A81FB68BA8A1A83FB687A8A1A8420
:1008700000BF1C37BD4680BC704700BF80B483B04A
:1008800000AF78600B46FB70FB78002B08D07B68CC
:100890001B889BB243F080039AB27B681A8007E002
:1008A0007B681B889BB223F080039AB27B681A8016
:1008B00000BF0C37BD4680BC704700BF80B485B018
:1008C00000AF78600B467B800023FB730023BB8165
:1008D00000237B817B681B8A9AB27B881340BB8193
:1008E0007B689B899AB27B8813407B81BB89002BF4
:1008F00005D07B89002B02D00123FB7301E000238C
:10090000FB73FB7B18461437BD4680BC704700BFA5
:1009100080B483B000AF78600B467B807B88DB437C
:100920009AB27B681A8200BF0C37BD4680BC704704
:1009300080B500AF154A154B1B6843F001031360E7
:100940001249124B5A68124B13404B600F4A0F4B1F
:100950001B6823F0847323F4803313600B4A0B4B22
:100960001B6823F480231360084A084B5B6823F458
:10097000FE035360054B4FF41F029A6000F00CF821
:10098000044B4FF000629A6000BF80BD001002402F
:100990000000FFF800ED00E080B500AF00F002F8C5
:1009A00000BF80BD80B483B000AF00237B60002314
:1009B0003B603A4A394B1B6843F480331360374B32
:1009C0001B6803F400333B607B6801337B603B684A
:1009D000002B03D17B68B3F5A06FF0D12F4B1B68C0
:1009E00003F40033002B02D001233B6001E000231D
:1009F0003B603B68012B4BD1294A294B1B6843F0D4
:100A000010031360264A264B1B6823F00303136070
:100A1000234A234B1B6843F0020313601F4A1F4BFA
:100A20005B6853601D4A1D4B5B6853601B4A1B4B40
:100A30005B6843F480635360184A184B5B6823F487
:100A40007C135360154A154B5B6843F4E8135360FD
:100A5000124A124B1B6843F08073136000BF0F4BA8
:100A60001B6803F00073002BF9D00C4A0B4B5B683A
:100A700023F003035360094A084B5B6843F0020309
:100A8000536000BF054B5B6803F00C03082BF9D1E2
:100A900000BF0C37BD4680BC704700BF001002404D
:100AA0000020024080B584B000AFF860B9603B60C0
:100AB0001346FB803B8B1A463968F86800F094F9BE
:100AC000FB68FA889A81FB68BA689A60FB68BA8BFF
:100AD0009A80FB683A8CDA80FB68BA8CDA81FB6812
:100AE0009B68404A93420BD13F4B01221A60FB683E
:100AF0009A88FB68DB881946104600F087F931E0D8
:100B0000FB689B68B3F1804F0BD1384B01221A6010
:100B1000FB689A88FB68DB881946104600F0B8F934
:100B200020E0FB689B68324A93420BD1314B012293
:100B30001A60FB689A88FB68DB881946104600F04B
:100B4000CBF90FE0FB689B682B4A934243D12B4BB8
:100B500001221A60FB689A88FB68DB8819461046F8
:100B600000F0E0F9FB689B89013B032B35D801A21B
:100B700052F823F0850B0008970B0008A90B00081A
:100B8000BB0B0008FB689A68FB68DB8919461046B6
:100B900000F0EEF91AE0FB689A68FB68DB891946F9
:100BA000104600F00BFA11E0FB689A68FB68DB89DD
:100BB0001946104600F028FA08E0FB689A68FB68BE
:100BC000DB891946104600F045FA00BF0021F8689D
:100BD00000F016F802E000BF00E000BF1037BD468D
:100BE00080BD00BF002C0140D8090020DC09002096
:100BF00000040040E009002000080040E409002053
:100C000080B582B000AF78600B467B807B689B68C4
:100C1000384A934205D1384B1B68012B22D001235F
:100C200063E07B689B68B3F1804F05D1334B1B6851
:100C3000012B17D0012358E07B689B68304A934210
:100C400005D1304B1B68012B0CD001234DE07B6894
:100C50009B682D4A934205D12C4B1B68012B01D078
:100C6000012342E07B689B887A889A4202D97B689C
:100C70009B887B807B687A885A807B689B89013B54
:100C8000032B2FD801A252F823F000BF9D0C0008BF
:100C9000AF0C0008C10C0008D30C00087B689A68F0
:100CA0007B685B881946104600F0FAF91CE07B6807
:100CB0009A687B685B881946104600F0FFF913E0DC
:100CC0007B689A687B685B881946104600F004FAD6
:100CD0000AE07B689A687B685B881946104600F0DA
:100CE00009FA01E0012300E0002318460837BD4659
:100CF00080BD00BF002C0140D8090020DC09002085
:100D000000040040E009002000080040E409002041
:100D100080B586B002AFF860B9607A607B807A886F
:100D2000BB8B0093BB697968F86800F043F8FB68F7
:100D3000BA689A60FB6801221A70FB689B68164AC1
:100D4000934205D1154B02221A6000F0E3F91FE02F
:100D5000FB689B68B3F1804F05D1114B02221A60EA
:100D600000F002FA14E0FB689B680E4A934205D13A
:100D70000D4B02221A6000F021FA09E0FB689B6823
:100D80000A4A934204D10A4B02221A6000F03EFA4A
:100D900000BF1037BD4680BD002C0140D80900209F
:100DA000DC09002000040040E009002000080040A9
:100DB000E409002080B58AB000AFF860B9603B60FC
:100DC0001346FB80FA8807F11C004823B96801F03C
:100DD00029FB3A8E07F110004823396801F022FB05
:100DE00000BF2837BD4680BD80B588B000AFF86031
:100DF000B9601346FB80FA8807F114001823B9681C
:100E000001F010FB00BF2037BD4680BD80B58AB021
:100E100000AF03460A46FB801346BB8001214FF416
:100E2000006001F0A5FA0121012001F0A1FA07F10B
:100E30001C031846FFF738FCFB883B84BB88BB8348
:100E40000023FB83002387F8243007F11C03194695
:100E50000E48FFF783F907F10C031846FFF760FC13
:100E60004FF480433B8307F10C0319460748FFF713
:100E7000F3FB01210548FFF701FD01210348FFF7BE
:100E80006DFC00BF2837BD4680BD00BF002C01406F
:100E900080B586B000AF03460A46FB801346BB8090
:100EA0000121012001F082FA0121012001F060FA04
:100EB00007F10C031846FFF7F7FBFB883B82BB8862
:100EC000BB8107F10C0319464FF08040FFF746F94C
:100ED00000BF1837BD4680BD80B586B000AF034661
:100EE0000A46FB801346BB800121022001F05EFA16
:100EF0000121012001F03CFA07F10C031846FFF72D
:100F0000D3FBBB88BB81FB883B8207F10C031946EE
:100F10000348FFF723F900BF1837BD4680BD00BF67
:100F20000004004080B586B000AF03460A46FB804F
:100F30001346BB800121042001F038FA0121012071
:100F400001F016FA07F10C031846FFF7ADFBBB885A
:100F5000BB81FB883B8207F10C0319460348FFF76E
:100F6000FDF800BF1837BD4680BD00BF0008004037
:100F700080B586B000AF78600B467B8007F1080330
:100F80001846FFF7ABFB7B883B8101237B81002365
:100F9000FB8100233B8207F1080319467868FFF7BD
:100FA00059F901217868FFF769FC01217868FFF79A
:100FB000D5FB00BF1837BD4680BD00BF80B586B0E9
:100FC00000AF78600B467B8007F108031846FFF7F7
:100FD00085FB7B883B8101237B810023FB810023F0
:100FE0003B8207F1080319467868FFF7BFF9012132
:100FF0007868FFF743FC01217868FFF7AFFB00BF7B
:101000001837BD4680BD00BF80B586B000AF7860A0
:101010000B467B8007F108031846FFF75FFB7B88D0
:101020003B8101237B810023FB8100233B8207F16D
:10103000080319467868FFF721FA01217868FFF75D
:101040001DFC01217868FFF789FB00BF1837BD46FA
:1010500080BD00BF80B586B000AF78600B467B8056
:1010600007F108031846FFF739FB7B883B81012312
:101070007B810023FB8100233B8207F10803194693
:101080007868FFF781FA01217868FFF7F7FB012103
:101090007868FFF763FB00BF1837BD4680BD00BF0F
:1010A00080B483B000AF78600B467B807B687A8821
:1010B0009A8600BF0C37BD4680BC704780B483B0B1
:1010C00000AF78600B467B807B687A881A8700BF08
:1010D0000C37BD4680BC704780B483B000AF7860E9
:1010E0000B467B807B687A889A8700BF0C37BD46A9
:1010F00080BC704780B483B000AF78600B467B80C3
:101100007B687A88A3F8402000BF0C37BD4680BCBE
:10111000704700BF80B582B000AF19233B71002338
:101120007B710023BB710123FB713B1D184601F04D
:101130002FFF01214FF4006001F01AF90023002273
:1011400003210848FFF74EFB012201210548FFF764
:1011500025FB01210348FFF701FB00BF0837BD460F
:1011600080BD00BF002C014080B582B000AF1C23C1
:101170003B7100237B710023BB710123FB713B1D7D
:10118000184601F005FF0121012001F00FF90023AD
:10119000002203214FF08040FFF724FB01220121B0
:1011A0004FF08040FFF7FAFA01214FF08040FFF73F
:1011B000D5FA00BF0837BD4680BD00BF80B582B0FC
:1011C00000AF1D233B7100237B710023BB71012302
:1011D000FB713B1D184601F0DBFE0121022001F0EE
:1011E000E5F80023002203210748FFF7FBFA01225C
:1011F00001210548FFF7D2FA01210348FFF7AEFAB3
:1012000000BF0837BD4680BD0004004080B582B0F5
:1012100000AF1E233B7100237B710023BB710123B0
:10122000FB713B1D184601F0B3FE0121042001F0C3
:10123000BDF80023002203210748FFF7D3FA01225B
:1012400001210548FFF7AAFA01210348FFF786FAB2
:1012500000BF0837BD4680BD0008004080B400AF25
:101260000C4B9B8C9BB21BB2DB439BB2DB0BDBB208
:10127000002B05D0084B1B680133074A136004E0BC
:10128000054B1B68013B044A136000BFBD4680BC90
:10129000704700BF002C0140E809002080B400AF77
:1012A0004FF080439B8C9BB21BB2DB439BB2DB0BAA
:1012B000DBB2002B05D0074B1B680133054A1360D6
:1012C00004E0044B1B68013B024A136000BFBD46AB
:1012D00080BC7047EC09002080B400AF0C4B9B8CA5
:1012E0009BB21BB2DB439BB2DB0BDBB2002B05D006
:1012F000084B1B680133074A136004E0054B1B6869
:10130000013B044A136000BFBD4680BC704700BF6C
:1013100000040040F009002080B400AF0C4B9B8C0F
:101320009BB21BB2DB439BB2DB0BDBB2002B05D0C5
:10133000084B1B680133074A136004E0054B1B6828
:10134000013B044A136000BFBD4680BC704700BF2C
:1013500000080040F409002080B400AF00BFBD4683
:1013600080BC704780B400AF00BFBD4680BC7047F2
:1013700080B400AF00BFBD4680BC704780B400AFF2
:1013800000BFBD4680BC704780B400AF00BFBD4603
:1013900080BC704780B400AF00BFBD4680BC7047C2
:1013A00080B400AF00BFBD4680BC704780B400AFC2
:1013B00000BFBD4680BC704780B400AF044B1B68C3
:1013C0000133034A136000BFBD4680BC704700BFB5
:1013D000E809002080B400AF044B1B680133034AC6
:1013E000136000BFBD4680BC704700BFEC09002001
:1013F00080B400AF044B1B680133034A136000BF85
:10140000BD4680BC704700BFF009002080B400AF2B
:10141000044B1B680133034A136000BFBD4680BC08
:10142000704700BFF409002080B500AF0C4B1B686B
:10143000022B02D1FFF712FF0CE0094B1B68012BB6
:1014400002D1FFF789FF05E0054B1B68032B01D193
:10145000FFF7B2FF01210348FFF75AFA00BF80BD32
:10146000D8090020002C014080B500AF124B1B684A
:10147000022B07D1FFF712FF01214FF08040FFF749
:1014800047FA16E00C4B1B68012B07D1FFF76AFFE8
:1014900001214FF08040FFF73BFA0AE0064B1B6842
:1014A000032B06D1FFF796FF01214FF08040FFF795
:1014B0002FFA00BF80BD00BFDC09002080B500AF5F
:1014C000104B1B68022B06D1FFF706FF01210E48C7
:1014D000FFF71EFA14E00B4B1B68012B06D1FFF738
:1014E00047FF01210848FFF713FA09E0054B1B6885
:1014F000032B05D1FFF77CFF01210348FFF708FA12
:1015000000BF80BDE00900200004004080B500AFAE
:101510003C4B1B68022B06D1FFF7FEFE01213A4827
:10152000FFF7F6F96CE0374B1B68012B5ED1012108
:101530003548FFF7C3F90346012B0CBF01230023F5
:10154000DBB2002B06D0FFF719FF01212E48FFF771
:10155000DFF955E002212C48FFF7B0F90346012BD3
:101560000CBF01230023DBB2002B06D0FFF70CFFDA
:1015700002212548FFF7CCF942E004212248FFF779
:101580009DF90346012B0CBF01230023DBB2002B86
:1015900006D0FFF7FFFE04211B48FFF7B9F92FE043
:1015A00008211948FFF78AF90346012B0CBF0123D4
:1015B0000023DBB2002B06D0FFF7F2FE0821124811
:1015C000FFF7A6F91CE010210F48FFF777F9034653
:1015D000012B0CBF01230023DBB2002B10D0FFF73F
:1015E000E5FE10210848FFF793F909E0054B1B6859
:1015F000032B05D1FFF70AFF01210348FFF788F904
:1016000000BF80BDE40900200008004080B582B022
:1016100000AF114B7B60114B3B6007E03B681A1D2C
:101620003A607A68111D796012681A603B680C4A4A
:101630009342F3D30B480C494FF000028842B8BFE5
:1016400040F8042BFADBFFF773F900F0F1FB00BF61
:101650000837BD4680BD00BF489E0008000000203E
:10166000D8090020D8090020C00D002080B400AFA8
:10167000FEE700BF80B582B000AF78607B680E4A9D
:1016800093420AD101214FF0007000F0ADFE00211D
:101690004FF0007000F0A8FE09E001214FF08060DB
:1016A00000F0A2FE00214FF0806000F09DFE00BF20
:1016B0000837BD4680BD00BF0064004080B485B0DF
:1016C00000AF786039600023FB730023BB607B6848
:1016D0001B6823F002027B681A607B681B6843F07A
:1016E00001027B681A6002E0BB680133BB607B6863
:1016F0005B6803F00103002B04D1BB684FF6FF7257
:101700009342F1D17B685B6803F00103002B02D1A7
:101710000023FB739CE03B689B79012B06D17B681F
:101720001B6843F080027B681A6005E07B681B68D9
:1017300023F080027B681A603B68DB79012B06D1BD
:101740007B681B6843F040027B681A6005E07B6899
:101750001B6823F040027B681A603B681B7A012BF0
:1017600006D17B681B6843F020027B681A6005E0A5
:101770007B681B6823F020027B681A603B685B7AF9
:10178000012B06D17B681B6843F010027B681A604E
:1017900005E07B681B6823F010027B681A603B68D9
:1017A0009B7A012B06D17B681B6843F008027B689B
:1017B0001A6005E07B681B6823F008027B681A60EA
:1017C0003B68DB7A012B06D17B681B6843F004027F
:1017D0007B681A6005E07B681B6823F004027B6865
:1017E0001A603B689B789A073B68DB781B061A43B4
:1017F0003B681B791B041A433B685B791B051A4342
:101800003B681B88013B1A437B68DA617B681B6875
:1018100023F001027B681A600023BB6002E0BB6812
:101820000133BB607B685B6803F00103002B04D0CD
:10183000BB684FF6FF729342F1D17B685B6803F09F
:101840000103002B02D00023FB7301E00123FB7393
:10185000FB7B18461437BD4680BC704780B483B00C
:1018600000AF78607B6800229A717B680022DA7191
:101870007B6800221A727B6800225A727B68002201
:101880009A727B680022DA727B6800229A707B6809
:101890000022DA707B6803221A717B6802225A7177
:1018A0007B6801221A8000BF0C37BD4680BC7047A0
:1018B00080B485B000AFF8600B467A60FB72FB7AAB
:1018C000FA681B331B0113441B68DBB203F00403EB
:1018D000DAB27B681A727B681B7A002B09D1FB7A1B
:1018E000FA681B331B0113441B685A0D7B681A608E
:1018F00008E0FB7AFA681B331B0113441B68DA0803
:101900007B685A60FB7AFA681B331B0113441B681F
:10191000DBB203F00203DAB27B685A72FB7AFA6830
:101920001B331B01134404331B68DBB203F00F03AA
:10193000DAB27B689A72FB7AFA681B331B01134494
:1019400004331B681B0ADAB27B68DA74FB7AFA6824
:101950001B01134403F5DC731B68DAB27B68DA728F
:10196000FB7AFA681B01134403F5DC731B681B0A3E
:10197000DAB27B681A73FB7AFA681B01134403F529
:10198000DC731B681B0CDAB27B685A73FB7AFA684B
:101990001B01134403F5DC731B681B0EDAB27B6872
:1019A0009A73FB7AFA681B01134403F5DE731B6814
:1019B000DAB27B68DA73FB7AFA681B01134403F529
:1019C000DE731B681B0ADAB27B681A74FB7AFA684A
:1019D0001B01134403F5DE731B681B0CDAB27B6832
:1019E0005A74FB7AFA681B01134403F5DE731B6813
:1019F0001B0EDAB27B689A74FB7A002B06D1FB6867
:101A0000DB6843F02002FB68DA6005E0FB681B69D5
:101A100043F02002FB681A6100BF1437BD4680BC4A
:101A2000704700BF80B485B000AFF860B96013465E
:101A3000FB71FB79002B06D0FB685A69BB681A431F
:101A4000FB685A6106E0FB685A69BB68DB431A40D1
:101A5000FB685A6100BF1437BD4680BC704700BFA9
:101A600080B489B000AF786039600023FB61002347
:101A70003B610023BB610023FB6000237B610023EB
:101A8000BB603B68DB7803F00F03FB613B68DB78EE
:101A900003F01003002B05D03B689B781A46FB69C6
:101AA0001343FB613B681B88DBB2002B44D07B688F
:101AB0001B687B610023BB6138E00122BB6902FA2D
:101AC00003F3FB603B681B881A46FB6813403B61CD
:101AD0003A69FB689A4226D1BB699B00FB600F22E2
:101AE000FB6802FA03F3BB60BB68DB437A6913400F
:101AF0007B61FA69FB6802FA03F37A6913437B613D
:101B00003B68DB78282B05D10122BB699A407B68B2
:101B10005A6108E03B68DB78482B04D10122BB699D
:101B20009A407B681A61BB690133BB61BB69072BB3
:101B3000C3D97B687A691A603B681B88FF2B46D93A
:101B40007B685B687B610023BB613AE0BB6908335B
:101B5000012202FA03F3FB603B681B881A46FB680C
:101B600013403B613A69FB689A4227D1BB699B00ED
:101B7000FB600F22FB6802FA03F3BB60BB68DB4328
:101B80007A6913407B61FA69FB6802FA03F37A69A8
:101B900013437B613B68DB78282B05D1BB69083395
:101BA00001229A407B685A613B68DB78482B05D15B
:101BB000BB69083301229A407B681A61BB69013313
:101BC000BB61BB69072BC1D97B687A695A6000BFCA
:101BD0002437BD4680BC704780B483B000AF7860C6
:101BE0007B684FF6FF721A807B6802229A707B68CE
:101BF0000422DA7000BF0C37BD4680BC704700BFBE
:101C000080B485B000AF78600B467B800023FB7307
:101C10007B68DA687B881340002B02D00123FB73BA
:101C200001E00023FB73FB7B18461437BD4680BCE4
:101C3000704700BF80B483B000AF78600B467B80F4
:101C400013467B707B78002B03D07A887B681A61FF
:101C500002E07A887B685A6100BF0C37BD4680BCC1
:101C6000704700BF80B584B004AF4F4800F07AF9E8
:101C70004FF4006302934D4B01934FF48063009344
:101C80004A4B4FF461224A494A4801F075FA4949E2
:101C9000454800F081F980230193444B0093402391
:101CA000424A45494548FFF733F860230393002330
:101CB00002934FF46163019301230093404B01228F
:101CC0004FF080413F48FEF7EDFE60230393002371
:101CD00002934FF46163019302230093384B022275
:101CE0004FF080413848FEF7DDFE60230393002368
:101CF00002934FF46163019304230093304B03225A
:101D00004FF080413148FEF7CDFE314A2D49314830
:101D100001F054F8304A2C49304801F04FF8304A6D
:101D20002A49304801F04AF810230093244B052239
:101D30002D492E4800F06AFF20230093204B0622F5
:101D400029492B4800F062FF402300931C4B0722D7
:101D50002549284800F05AFF24491E4801F040F860
:101D600023491E4801F03CF822491E4801F038F88A
:101D70001C4B1A4A1749204801F0CEF810234FF4A3
:101D800000521E491E4800F04DFB4FF400630193C2
:101D90000B4B00934FF48053094A1A491A4800F03C
:101DA0007BF900BFBD4680BDF8090020000C014052
:101DB00000480040C40A002000080040300A00200B
:101DC00000080140000A0020100A0020200A00201C
:101DD000400A0020C80A00204C0A0020D80A00202F
:101DE000580A0020E80A002000240140940A00203C
:101DF0009C0A0020A40A0020F80A002000100140DC
:101E0000880A002000640040AC0A002080B500AFC2
:101E1000054B1B8801339AB2034B1A80034800F02C
:101E200085F900BF80BD00BF040B0020AC0A002074
:101E300098B500AFFFF716FF1D4800F0BDF800F0A1
:101E400005F90A4601461B4B18CBA24208BF99422E
:101E50002CBF01230023DBB2002B1ED0164800F05C
:101E600021FB00F0F3F803460C46323344F1000442
:101E7000104AC2E9003400F0E9F803460C461BB2F0
:101E800019460E4801F05EF800F0E0F803460C46F3
:101E90001A460B490B4801F04FF90B4B1B88002BDE
:101EA000CAD0094B1B88013B9AB2074B1A80F4E752
:101EB000F8090020080B0020880A0020F80A0020FA
:101EC00090960008C40A0020040B002080B483B060
:101ED00000AF03463960FB7197F90730002B0BDA2E
:101EE0000D49FB7903F00F03043B3A68D2B21201AB
:101EF000D2B20B441A7609E0084997F907303A68DC
:101F0000D2B21201D2B20B4483F8002300BF0C37C7
:101F1000BD4680BC704700BF00ED00E000E100E07E
:101F200080B582B000AF78607B68B3F1807F01D369
:101F3000012311E00A4A7B6823F07F43013B536091
:101F40000F214FF0FF30FFF7C1FF054B00229A60D1
:101F5000034B07221A60002318460837BD4680BD90
:101F600010E000E080B582B000AF7860084B1B68DD
:101F70005B09084AA2FB0323DB091846FFF7D0FFE1
:101F80007B6800221A8000BF0837BD4680BD00BFB5
:101F900000000020C55A7C0A80B483B000AF78608E
:101FA00039607B683A685A607B6801221A8000BFFA
:101FB0000C37BD4680BC704780B582B000AF7860FA
:101FC0000F4BB3F90030002B0DDD7B681B88002B15
:101FD00009D07B6858680A4BB3F900301A460949A2
:101FE00001F0AAF8FEE7786800F010F8064BB3F9A4
:101FF0000020034B1A8000BF0837BD4680BD00BFDC
:10200000180B0020989600081A0B002080B582B0AB
:1020100000AF786000F03AF800BF0837BD4680BDD9
:1020200090B400AF084B18CBDB1844EB0404A200BB
:1020300042EA937299005B1844EB02041846214669
:10204000BD4690BC704700BF100B002098B500AF94
:10205000FFF7E6FF4FF47A724FF0000302F0CEFA7A
:1020600003460C461846214698BD00BF90B400AF09
:10207000054B18CB013344F10004034AC2E9003494
:1020800000BFBD4690BC7047100B002080B500AF6C
:1020900001F0D8FB00BF80BD80B588B002AFF8600A
:1020A000B9607A607B80FB68BA681A607A88BB8CFA
:1020B00000933B6A7968F86800F01EF8FB681B68BB
:1020C0000B4A934201D100F047F800237B617B6902
:1020D000332B08DC074A7B69002122F813107B6947
:1020E00001337B61F3E700BF1837BD4680BD00BFF9
:1020F00000640040200B002080B58AB000AFF8607B
:10210000B9603B601346FB80FA8807F11000182382
:10211000B96800F087F93A8E07F11C00042339688A
:1021200000F080F900BF2837BD4680BD80B582B081
:1021300000AF78607B681B68064A934206D17B68D3
:1021400004331A4600210348FFF7B2FB00BF0837EB
:10215000BD4680BD0064004080B584B000AF1D481E
:10216000FFF788FA01214FF0007000F01FF93B1DC6
:102170001846FFF773FB0123BB720023FB72002399
:102180003B7300237B730023FB730123BB7100238C
:10219000FB7104233B7205237B720323BB803B1D31
:1021A00019460C48FFF78AFA14233B7000237B7012
:1021B0000123BB700123FB703B46184600F0E8FE8C
:1021C000012202210348FFF72DFC00BF1037BD4656
:1021D00080BD00BF0064004080B485B000AF78606F
:1021E0000023FB60094B5B68FB60FB6823F4404302
:1021F000FB60FA687B681343FB60044AFB6853602A
:1022000000BF1437BD4680BC704700BF00100240BD
:1022100080B487B000AF786000237B6100233B610E
:102220000023FB600023BB604C4B5B6803F00C0396
:102230007B617B69042B07D0082B09D0002B33D19D
:102240007B68474A1A6033E07B68454A1A602FE092
:10225000424B5B6803F470133B61404B5B6803F4D3
:102260008033FB603B699B0C02333B61FB68002BB6
:1022700006D13B693B4A02FB03F27B681A6017E018
:10228000364B5B6803F40033002B06D03B69354ABC
:1022900002FB03F27B681A600AE03B69304A02FBEA
:1022A00003F27B681A6003E07B682D4A1A6000BF66
:1022B0002A4B5B6803F0F0037B617B691B097B6140
:1022C000294A7B6913441B78DBB2BB607B681A68C0
:1022D000BB68DA407B685A60204B5B6803F4E063BC
:1022E0007B617B691B0A7B611F4A7B6913441B78F6
:1022F000DBB2BB607B685A68BB68DA407B689A6077
:10230000164B5B6803F460537B617B69DB0A7B617E
:10231000154A7B6913441B78DBB2BB607B685A6843
:10232000BB68DA407B68DA600C4B5B6803F44043BF
:102330007B617B699B0B7B610C4A7B6913441B7837
:10234000DBB2BB607B68DA68BB68B2FBF3F27B6828
:102350001A6100BF1C37BD4680BC704700100240A8
:1023600000127A0000093D00140000202400002023
:1023700080B483B000AF78600B46FB70FB78002B15
:1023800006D00949084B9A697B6813438B6106E0C4
:102390000549054B9A697B68DB4313408B6100BF9D
:1023A0000C37BD4680BC70470010024080B483B03B
:1023B00000AF78600B46FB70FB78002B06D0094914
:1023C000084BDA697B681343CB6106E00549054B8E
:1023D000DA697B68DB431340CB6100BF0C37BD4635
:1023E00080BC70470010024080B483B000AF7860BA
:1023F0000B46FB70FB78002B06D00949084B1A6985
:102400007B6813430B6106E00549054B1A697B683D
:10241000DB4313400B6100BF0C37BD4680BC7047E7
:102420000010024080B586B000AFF860B960114678
:102430001A460B46FB8013467B71FB68FA885A806C
:10244000FB68BA685A6001210420FFF791FF01215F
:102450000820FFF78DFF01211020FFF789FF0121E0
:102460002020FFF785FFFB687A791A7207F11403C1
:102470001846FFF7B1FBFB685B88BB82FB681B7AE1
:10248000FB750323BB75FB685B6807F114021146FB
:102490001846FFF7E5FAFB6800221A8000BF1837DC
:1024A000BD4680BD80B582B000AF78607B685A6859
:1024B0007B685B881946104600F004F800BF0837B7
:1024C000BD4680BD80B582B000AF78600B467B8092
:1024D0007B8819467868FFF793FB0346012B0CBFF6
:1024E00001230023DBB2002B06D07B880022194693
:1024F0007868FFF79FFB05E07B8801221946786822
:10250000FFF798FB00BF0837BD4680BD80B485B09B
:1025100000AF786039600023FB600023FB727B68AA
:102520005B68FB60FB6823F4702323F48073FB601B
:102530003B681A683B681B791B021343FA68134314
:10254000FB607B68FA685A607B689B68FB60FA688E
:10255000164B1340FB603B68DA683B689B681A4384
:102560003B685B795B001343FA681343FB607B684D
:10257000FA689A607B68DB6AFB60FB6823F470038F
:10258000FB603B681B7C013BDAB2FB7A1343FB72B6
:10259000FB7A1B05FA681343FB607B68FA68DA6212
:1025A00000BF1437BD4680BC704700BFFDF7F1FF88
:1025B00080B483B000AF78607B6800221A607B68CB
:1025C00000221A717B6800225A717B6800229A608F
:1025D0007B680022DA607B6801221A7400BF0C3726
:1025E000BD4680BC704700BF80B483B000AF786048
:1025F0000B46FB70FB78002B06D07B689B6843F092
:1026000001027B689A6005E07B689B6823F0010209
:102610007B689A6000BF0C37BD4680BC704700BF26
:1026200080B483B000AF78607B689B6843F0080299
:102630007B689A6000BF0C37BD4680BC704700BF06
:1026400080B485B000AF78600023FB737B689B6823
:1026500003F00803002B02D00123FB7301E00023E9
:10266000FB73FB7B18461437BD4680BC704700BF28
:1026700080B483B000AF78607B689B6843F004024D
:102680007B689A6000BF0C37BD4680BC704700BFB6
:1026900080B485B000AF78600023FB737B689B68D3
:1026A00003F00403002B02D00123FB7301E000239D
:1026B000FB73FB7B18461437BD4680BC704700BFD8
:1026C00080B485B000AF7860084611461A460346CC
:1026D000FB700B46BB7013467B700023FB6000232E
:1026E000BB60FB78092B23D97B68DB68FB60FB7838
:1026F000A3F10A0213465B001344072202FA03F314
:10270000BB60BB68DB43FA681340FB607978FB78F9
:10271000A3F10A0213465B00134401FA03F3BB6002
:10272000FA68BB681343FB607B68FA68DA601EE0F6
:102730007B681B69FB60FA7813465B001344072231
:1027400002FA03F3BB60BB68DB43FA681340FB602B
:102750007978FA7813465B00134401FA03F3BB60FF
:10276000FA68BB681343FB607B68FA681A61BB7840
:10277000062B21D87B685B6BFB60BB785A1E134627
:102780009B0013441F2202FA03F3BB60BB68DB43C8
:10279000FA681340FB60F978BB785A1E13469B0019
:1027A000134401FA03F3BB60FA68BB681343FB6090
:1027B0007B68FA685A6347E0BB780C2B21D87B68AA
:1027C0001B6BFB60BB78DA1F13469B0013441F2270
:1027D00002FA03F3BB60BB68DB43FA681340FB609B
:1027E000F978BB78DA1F13469B00134401FA03F310
:1027F000BB60FA68BB681343FB607B68FA681A63C6
:1028000022E07B68DB6AFB60BB78A3F10D02134614
:102810009B0013441F2202FA03F3BB60BB68DB4337
:10282000FA681340FB60F978BB78A3F10D021346F8
:102830009B00134401FA03F3BB60FA68BB681343BF
:10284000FB607B68FA68DA6200BF1437BD4680BC63
:10285000704700BF80B58CB000AF7860396000234E
:10286000FB620023BB6200237B6200233B620023E8
:10287000FB617B68FB617B681B8A9BB2FB62FA6A27
:102880004CF6FF731340FB623B68DB881A46FB6A19
:102890001343FB62FB6A9AB27B681A827B689B894E
:1028A0009BB2FB62FA6A4EF6F3131340FB623B687D
:1028B0009A883B681B8913439AB23B685B89134330
:1028C0009BB21A46FB6A1343FB62FB6A9AB27B68AF
:1028D0009A817B689B8A9BB2FB62FA6A4FF6FF4340
:1028E0001340FB623B689B891A46FB6A1343FB62F9
:1028F000FB6A9AB27B689A8207F108031846FFF7D1
:1029000087FCFB692E4A934202D17B69BB6201E0DE
:102910003B69BB627B689B899BB21BB2002B0CDAC4
:10292000BA6A13469B0013449A001A443B681B681A
:102930005B00B2FBF3F37B620BE0BA6A13469B00C9
:1029400013449A001A443B681B689B00B2FBF3F3E4
:102950007B627B6A1B4AA2FB03235B091B01FB62B0
:10296000FB6A1B09642202FB03F37A6AD31A3B62F7
:102970007B689B899BB21BB2002B0CDA3B6ADB00A5
:102980003233104AA2FB03235B0903F00703FA6A00
:102990001343FB620BE03B6A1B013233094AA2FB83
:1029A00003235B0903F00F03FA6A1343FB62FB6A1C
:1029B0009AB27B681A8100BF3037BD4680BD00BF28
:1029C000003801401F85EB5180B483B000AF7860C0
:1029D0007B684FF416521A607B6800229A807B68ED
:1029E0000022DA807B6800221A817B680C225A81DF
:1029F0007B6800229A8100BF0C37BD4680BC7047BF
:102A000080B483B000AF78600B46FB70FB78002B7E
:102A100008D07B689B899BB243F400539AB27B68D1
:102A20009A8107E07B689B899BB223F400539AB29A
:102A30007B689A8100BF0C37BD4680BC704700BFE1
:102A400080B487B000AF78600B467B8013467B7004
:102A500000233B610023FB600023BB6000237B61FC
:102A60007B687B617B88DBB25B09DBB23B617B8887
:102A700003F01F03FB600122FB6802FA03F3BB6053
:102A80003B69012B03D17B690C337B6109E03B6916
:102A9000022B03D17B6910337B6102E07B69143325
:102AA0007B617B78002B06D07B697A691168BA68F4
:102AB0000A431A6006E07B697A691168BA68D243F2
:102AC0000A401A6000BF1C37BD4680BC704700BF7B
:102AD00080B483B000AF78600B467B807B88C3F303
:102AE00008039AB27B689A8000BF0C37BD4680BC51
:102AF000704700BF80B483B000AF78607B689B886C
:102B00009BB2C3F308039BB218460C37BD4680BC8A
:102B1000704700BF80B487B000AF78600B467B8001
:102B20000023FB6000237B610023BB600023FB7458
:102B30007B88DBB25B09DBB2BB607B8803F01F03E1
:102B40007B6101227B6902FA03F37B61BB68012B85
:102B500007D17B689B899BB21A467B6913407B61D6
:102B600011E0BB68022B07D17B681B8A9BB21A4617
:102B70007B6913407B6106E07B689B8A9BB21A46A7
:102B80007B6913407B617B881B0A9BB2FB6001223F
:102B9000FB6802FA03F3FB607B681B889BB21A4652
:102BA000FB681340FB607B69002B05D0FB68002BA2
:102BB00002D00123FB7401E00023FB74FB7C184668
:102BC0001C37BD4680BC704780B485B000AF7860CC
:102BD0000A4B1B68002B02D1084B094A1A60074BAD
:102BE0001B68FB60054B1A687B681344034A13603B
:102BF000FB6818461437BD4680BC70478C0B00201C
:102C0000C00D002080B400AFFEE700BF80B584B0E7
:102C100000AFF860B9603B601346FB713B8B1A460E
:102C20003968F86800F024F8FB68FA791A71FB68D3
:102C3000BA681A60FB681B680B4A934205D1FB68AF
:102C40001B79184600F026F809E0FB681B68074A64
:102C5000934204D1FB681B79184600F065F800BF69
:102C60001037BD4680BD00BF002401400028014050
:102C700080B588B000AFF860B9601346FB80FA8871
:102C800007F114000023B968FFF7CCFB00BF203721
:102C9000BD4680BD80B588B000AF0346FB71002003
:102CA000FFF79AFA01214FF40070FFF761FB07F17B
:102CB0000C031846FFF77CFC4FF460237B6107F19F
:102CC0000C0319461748FFF721FCF979022301226A
:102CD0001448FFF7F5FC01211248FFF785FC114865
:102CE000FFF79EFC0F48FFF7ABFC0346002B14BF19
:102CF00001230023DBB2002B00D0F3E70948FFF7E4
:102D0000B7FC0848FFF7C4FC0346002B14BF01239F
:102D10000023DBB2002B00D0F3E700BF2037BD4615
:102D200080BD00BF0024014080B588B000AF0346DD
:102D3000FB710020FFF750FA01214FF48060FFF78C
:102D400017FB07F10C031846FFF732FC4FF4602322
:102D50007B6107F10C0319461748FFF7D7FBF97998
:102D6000022301221448FFF7ABFC01211248FFF7B0
:102D70003BFC1148FFF754FC0F48FFF761FC03468A
:102D8000002B14BF01230023DBB2002B00D0F3E79C
:102D90000948FFF76DFC0848FFF77AFC0346002B53
:102DA00014BF01230023DBB2002B00D0F3E700BFE8
:102DB0002037BD4680BD00BF0028014080B485B0EB
:102DC00000AFF860B9607A60FB68BA681A60FB68A7
:102DD0007A685A6000BF1437BD4680BC704700BF98
:102DE00080B483B000AF786039607B683A68DA609D
:102DF00000BF0C37BD4680BC704700BF80B582B0B5
:102E000000AF78600B467B80B7F90230184A83FB2D
:102E100002121A441112DA178A1A4FF4B47101FB24
:102E200002F29B1A7B80B7F90230002B04DA7B8810
:102E300003F5B4739BB27B80B7F902303C2B12DDF3
:102E4000B7F90230B42B05DC4FF07E51786800F002
:102E500013F808E0B7F90230F02B04DD4FF0000161
:102E6000786800F009F800BF0837BD4680BD00BF94
:102E7000B7600BB60000000090B583B000AF78607B
:102E80003960386800F04EFE1FA3D3E9002301F03B
:102E900019F90346002B17D07B681C687B681B68F8
:102EA0009B88184601F0E6F903463968184601F098
:102EB00035FA0346184601F081FB03469BB21946DA
:102EC0002046FDF79DFE1AE0386800F02BFE10A3A7
:102ED000D3E9002301F0F6F80346002B06D07B6807
:102EE0001B6800211846FDF78BFE08E07B681A6816
:102EF0007B681B689B8819461046FDF781FE00BF62
:102F00000C37BD4690BD00BF666666666666EE3FDE
:102F10009A9999999999A93F80B485B000AFF860C2
:102F2000B9607A603B60FB68BA681A60FB687A68CF
:102F30005A60FB683A689A6000BF1437BD4680BC8F
:102F4000704700BF80B582B000AF78600B467B80D1
:102F50007B681B68B7F9022011461846FFF74EFF41
:102F60007B685A687B8878339BB21BB2194610463F
:102F7000FFF744FF7B689A687B88F0339BB21BB2F3
:102F800019461046FFF73AFF00BF0837BD4680BD1F
:102F900080B487B000AF786000237B6100233B6181
:102FA0000F23FB607B68DB78002B3AD0274BDB6874
:102FB000DB4303F4E0631B0A7B617B69C3F1040319
:102FC0003B61FA687B6922FA03F3FB607B685B78FC
:102FD0001A463B6902FA03F37B617B689B781A46C9
:102FE000FB6813407A6913437B617B691B017B613A
:102FF000174A7B681B787969C9B213440A4683F87B
:103000000023134A7B681B785B09DBB218467B6898
:103010001B7803F01F03012101FA03F342F820306B
:103020000FE00B497B681B785B09DBB218467B68B5
:103030001B7803F01F0301229A4000F1200341F89E
:10304000232000BF1C37BD4680BC704700ED00E068
:1030500000E100E080B485B000AF78600B46FB7003
:103060000023FB730023BB8100237B8100233B8172
:10307000FB7803F00F03012202FA03F3BB81FB7814
:103080001B09DBB27B817B89012202FA03F37B817E
:103090007B689B889AB27B8913403B817B681B8944
:1030A0009AB2BB8913409BB2002B05D03B89002B01
:1030B00002D00123FB7301E00023FB73FB7B184666
:1030C0001437BD4680BC704780B485B000AF7860CF
:1030D0000B46FB700023FB81FB7803F00F030122FA
:1030E00002FA03F3FB81FB89DB439AB27B681A8106
:1030F00000BF1437BD4680BC704700BF80B584B0A8
:1031000000AF786039600023FB60FB683A681344C5
:103110001B78002B0BD0FB683A6813441B781946C8
:10312000786800F089F8FB680133FB60EDE700BFC9
:103130001037BD4680BD00BF0EB480B5A5B000AF4E
:10314000786007F1A003C7F88C3007F10C03D7F8BB
:103150008C20D7F89C10184602F0A4FE07F10C034F
:1031600019467868FFF7CAFF00BF9437BD46BDE82F
:10317000804003B0704700BF80B586B002AFF860F2
:10318000B9607A603B60FB68BA681A603A8B3B8C26
:103190000093FB693968F86800F00CF9FB681B685C
:1031A000224A934211D1786800F01EF940F225506E
:1031B00000F098F940F2277000F094F9012240F2F3
:1031C00027711A48FFF73CFC2CE0FB681B68184A83
:1031D000934211D1786800F031F940F2255000F0A7
:1031E0009DF940F2277000F099F9012240F2277111
:1031F0000F48FFF725FC15E0FB681B680D4A93425A
:1032000010D1786800F044F940F2255000F0A2F99E
:1032100040F2277000F09EF9012240F22771054824
:10322000FFF70EFC00BF1037BD4680BD00380140DF
:10323000004400400048004080B582B000AF786094
:103240000B46FB707B681B684E4A93422ED10122CD
:1032500040F227714B48FFF7F3FB4B4B1B881A4694
:103260004A4B1B8801339A420CD1474B1B880133D0
:103270009AB2454B1A80444B1B887F2B02D9424B94
:1032800000221A80414B1B881946414AFB7853544F
:103290003E4B1B8801339AB23C4B1A803B4B1B8838
:1032A0007F2B6AD9394B00221A8066E07B681B6845
:1032B000384A93422ED1012240F227713548FFF758
:1032C000BFFB354B1B881A46344B1B8801339A428F
:1032D0000CD1314B1B8801339AB22F4B1A802E4BE5
:1032E0001B887F2B02D92C4B00221A802B4B1B886A
:1032F00019462B4AFB785354284B1B8801339AB24A
:10330000264B1A80254B1B887F2B36D9234B002256
:103310001A8032E07B681B68224A93422DD1012239
:1033200040F227711F48FFF78BFB1F4B1B881A4683
:103330001E4B1B8801339A420CD11B4B1B88013357
:103340009AB2194B1A80184B1B887F2B02D9164B47
:1033500000221A80154B1B881946154AFB785354D6
:10336000124B1B8801339AB2104B1A800F4B1B88EB
:103370007F2B02D90D4B00221A8000BF0837BD46B3
:1033800080BD00BF003801407C0C00207E0C002076
:10339000FC0B002000440040000D0020020D002026
:1033A000800C002000480040840D0020860D002085
:1033B000040D002080B58AB000AFF860B9603B60B2
:1033C0001346FB80FA8807F11C001823B968FFF741
:1033D00029F83A8E07F1100048233968FFF722F8E0
:1033E00000BF2837BD4680BD80B586B000AF78608D
:1033F00001214FF48040FEF7BBFF07F10803184698
:10340000FFF7E2FA7B68BB600C237B8200233B82E0
:103410004FF40053FB810023BB8107F108031946D9
:103420000548FFF717FA01210348FFF7E9FA00BF43
:103430001837BD4680BD00BF0038014080B586B05A
:1034400000AF786001214FF40030FEF7AFFF07F1C5
:1034500008031846FFF7B8FA7B68BB600C237B8231
:1034600000233B824FF40053FB810023BB8107F113
:10347000080319460548FFF7EDF901210348FFF756
:10348000BFFA00BF1837BD4680BD00BF00440040F2
:1034900080B586B000AF786001214FF48020FEF740
:1034A00085FF07F108031846FFF78EFA7B68BB60BB
:1034B0000C237B8200233B824FF40053FB810023CB
:1034C000BB8107F1080319460548FFF7C3F901213D
:1034D0000348FFF795FA00BF1837BD4680BD00BF0F
:1034E0000048004080B584B000AF0346FB80252330
:1034F0003B730023BB730123FB7307F10C031846D6
:10350000FFF746FDFB88012219460348FFF798FAAA
:1035100000BF1037BD4680BD0038014080B584B083
:1035200000AF0346FB8026233B730023BB730123BC
:10353000FB7307F10C031846FFF72AFDFB880122F5
:1035400019460348FFF77CFA00BF1037BD4680BD1F
:103550000044004080B584B000AF0346FB802723C1
:103560003B730023BB730123FB7307F10C03184665
:10357000FFF70EFDFB88012219460348FFF760FAAA
:1035800000BF1037BD4680BD0048004090B583B0F5
:1035900000AF40F225513148FFF7BCFA0346012B3A
:1035A0000CBF01230023DBB2002B22D02B48FFF7F6
:1035B000A1FA0346FB71FB799BB219462748FFF736
:1035C00087FA274B1B881C462448FFF793FA0346CB
:1035D000DAB2244B1A55224B1B8801339AB2204B86
:1035E0001A801F4B1B881F2B34D91D4B00221A80B9
:1035F00030E040F227711948FFF78CFA0346002BA0
:1036000014BF01230023DBB2002B23D0164B1A88F2
:10361000164B1B889A4217D0144B1B881A46144B22
:103620009B5C9BB219460D48FFF752FA0F4B1B8863
:1036300001339AB20D4B1A800C4B1B887F2B09D992
:103640000A4B00221A8005E0002240F2277103484D
:10365000FFF7F6F900BF0C37BD4690BD00380140BA
:1036600028000020900B00207E0C00207C0C002005
:10367000FC0B002090B583B000AF40F225513148DB
:10368000FFF748FA0346012B0CBF01230023DBB2EE
:10369000002B22D02B48FFF72DFA0346FB71FB7954
:1036A0009BB219462748FFF713FA274B1B881C4685
:1036B0002448FFF71FFA0346DAB2244B1A55224B6F
:1036C0001B8801339AB2204B1A801F4B1B881F2B7B
:1036D00034D91D4B00221A8030E040F2277119487E
:1036E000FFF718FA0346002B14BF01230023DBB2B7
:1036F000002B23D0164B1A88164B1B889A4217D0E2
:10370000144B1B881A46144B9B5C9BB219460D4800
:10371000FFF7DEF90F4B1B8801339AB20D4B1A806D
:103720000C4B1B887F2B09D90A4B00221A8005E01D
:10373000002240F227710348FFF782F900BF0C37DF
:10374000BD4690BD004400402A000020B40B00207C
:10375000020D0020000D0020800C002090B583B0E9
:1037600000AF40F225513148FFF7D4F90346012B51
:103770000CBF01230023DBB2002B22D02B48FFF724
:10378000B9F90346FB71FB799BB219462748FFF74D
:103790009FF9274B1B881C462448FFF7ABF90346CB
:1037A000DAB2244B1A55224B1B8801339AB2204BB4
:1037B0001A801F4B1B881F2B34D91D4B00221A80E7
:1037C00030E040F227711948FFF7A4F90346002BB7
:1037D00014BF01230023DBB2002B23D0164B1A8821
:1037E000164B1B889A4217D0144B1B881A46144B51
:1037F0009B5C9BB219460D48FFF76AF90F4B1B887B
:1038000001339AB20D4B1A800C4B1B887F2B09D9C0
:103810000A4B00221A8005E0002240F2277103487B
:10382000FFF70EF900BF0C37BD4690BD00480040C1
:103830002C000020D80B0020860D0020840D0020D5
:10384000040D002080B400AF034B4AF6AA221A6090
:1038500000BFBD4680BC70470030004081F0004191
:1038600002E000BF83F0004330B54FEA41044FEA65
:10387000430594EA050F08BF90EA020F1FBF54EA00
:10388000000C55EA020C7FEA645C7FEA655C00F09C
:10389000E2804FEA5454D4EB5555B8BF6D420CDD6D
:1038A0002C4480EA020281EA030382EA000083EAF0
:1038B000010180EA020281EA0303362D88BF30BD90
:1038C00011F0004F4FEA01314FF4801C4CEA1131E6
:1038D00002D0404261EB410113F0004F4FEA033345
:1038E0004CEA133302D0524263EB430394EA050FD0
:1038F00000F0A780A4F10104D5F1200E0DDB02FA3F
:103900000EFC22FA05F2801841F1000103FA0EF2D2
:10391000801843FA05F359410EE0A5F120050EF198
:10392000200E012A03FA0EFC28BF4CF0020C43FAC9
:1039300005F3C01851EBE37101F0004507D54FF0D6
:10394000000EDCF1000C7EEB00006EEB0101B1F526
:10395000801F1BD3B1F5001F0CD349085FEA30006C
:103960004FEA3C0C04F101044FEA445212F5800F77
:1039700080F09A80BCF1004F08BF5FEA500C50F114
:10398000000041EB045141EA050130BD5FEA4C0CF7
:10399000404141EB010111F4801FA4F10104E9D180
:1039A00091F0000F04BF01460020B1FA81F308BF77
:1039B0002033A3F10B03B3F120020CDA0C3208DD43
:1039C00002F1140CC2F10C0201FA0CF021FA02F11E
:1039D0000CE002F11402D8BFC2F1200C01FA02F18E
:1039E00020FA0CFCDCBF41EA0C019040E41AA2BFB3
:1039F00001EB0451294330BD6FEA04041F3C1CDA7B
:103A00000C340EDC04F11404C4F1200220FA04F09A
:103A100001FA02F340EA030021FA04F345EA030144
:103A200030BDC4F10C04C4F1200220FA02F001FA06
:103A300004F340EA0300294630BD21FA04F0294688
:103A400030BD94F0000F83F4801306BF81F4801121
:103A50000134013D4EE77FEA645C18BF7FEA655C94
:103A600029D094EA050F08BF90EA020F05D054EA66
:103A7000000C04BF1946104630BD91EA030F1EBF6B
:103A80000021002030BD5FEA545C05D1400049416F
:103A900028BF41F0004130BD14F580043CBF01F562
:103AA000801130BD01F0004545F0FE4141F4700148
:103AB0004FF0000030BD7FEA645C1ABF1946104623
:103AC0007FEA655C1CBF0B46024650EA013406BF24
:103AD00052EA033591EA030F41F4002130BD00BFE3
:103AE00090F0000F04BF0021704730B54FF48064A0
:103AF00004F132044FF000054FF0000150E700BF21
:103B000090F0000F04BF0021704730B54FF480647F
:103B100004F1320410F0004548BF40424FF000016C
:103B20003EE700BF42004FEAE2014FEA31014FEAAF
:103B300002701FBF12F07F4393F07F4F81F06051FE
:103B4000704792F0000F14BF93F07F4F704730B56D
:103B50004FF4607401F0004521F0004120E700BF00
:103B600050EA010208BF704730B54FF000050AE087
:103B700050EA010208BF704730B511F0004502D588
:103B8000404261EB41014FF4806404F132045FEA8A
:103B9000915C3FF4DCAE4FF003025FEADC0C18BF2F
:103BA00003325FEADC0C18BF033202EBDC02C2F125
:103BB000200300FA03FC20FA02F001FA03FE40EAB7
:103BC0000E0021FA02F11444C1E600BF70B54FF0B7
:103BD000FF0C4CF4E06C1CEA11541DBF1CEA135599
:103BE00094EA0C0F95EA0C0F00F0DEF82C4481EA01
:103BF000030621EA4C5123EA4C5350EA013518BF21
:103C000052EA033541F4801143F4801338D0A0FB0D
:103C100002CE4FF00005E1FB02E506F00042E0FBBA
:103C200003E54FF00006E1FB03569CF0000F18BFC0
:103C30004EF0010EA4F1FF04B6F5007F64F5407468
:103C400004D25FEA4E0E6D4146EB060642EAC621FB
:103C500041EA55514FEAC52040EA5E504FEACE2E68
:103C6000B4F1FD0C88BFBCF5E06F1ED8BEF1004F6B
:103C700008BF5FEA500E50F1000041EB045170BDE7
:103C800006F0004646EA010140EA020081EA03012B
:103C9000B4EB5C04C2BFD4EB0C0541EA045170BD27
:103CA00041F480114FF0000E013C00F3AB8014F1A1
:103CB000360FDEBF002001F0004170BDC4F10004EA
:103CC000203C35DA0C341BDC04F11404C4F120056B
:103CD00000FA05F320FA04F001FA05F240EA0200C6
:103CE00001F0004221F0004110EBD37021FA04F6FC
:103CF00042EB06015EEA430E08BF20EAD37070BDB6
:103D0000C4F10C04C4F1200500FA04F320FA05F014
:103D100001FA04F240EA020001F0004110EBD37016
:103D200041F100015EEA430E08BF20EAD37070BD86
:103D3000C4F1200500FA05F24EEA020E20FA04F35F
:103D400001FA05F243EA020321FA04F001F000410E
:103D500021FA04F220EA020000EBD3705EEA430E7F
:103D600008BF20EAD37070BD94F0000F0FD101F0AE
:103D70000046400041EB010111F4801F08BF013CE7
:103D8000F7D041EA060195F0000F18BF704703F025
:103D90000046520043EB030313F4801F08BF013DAC
:103DA000F7D043EA0603704794EA0C0F0CEA135568
:103DB00018BF95EA0C0F0CD050EA410618BF52EA22
:103DC0004306D1D181EA030101F000414FF0000028
:103DD00070BD50EA410606BF1046194652EA430636
:103DE00019D094EA0C0F02D150EA013613D195EAAA
:103DF0000C0F05D152EA03361CBF104619460AD1F2
:103E000081EA030101F0004141F0FE4141F47001FB
:103E10004FF0000070BD41F0FE4141F4780170BDEB
:103E200070B54FF0FF0C4CF4E06C1CEA11541DBF50
:103E30001CEA135594EA0C0F95EA0C0F00F0A7F852
:103E4000A4EB050481EA030E52EA03354FEA01317F
:103E500000F088804FEA03334FF0805545EA131392
:103E600043EA12634FEA022245EA111545EA10655A
:103E70004FEA00260EF000419D4208BF964244F1F1
:103E8000FD0404F5407402D25B084FEA3202B61A10
:103E900065EB03055B084FEA32024FF480104FF4E4
:103EA000002CB6EB020E75EB030E22BFB61A754658
:103EB00040EA0C005B084FEA3202B6EB020E75EBEB
:103EC000030E22BFB61A754640EA5C005B084FEA53
:103ED0003202B6EB020E75EB030E22BFB61A754620
:103EE00040EA9C005B084FEA3202B6EB020E75EB2B
:103EF000030E22BFB61A754640EADC0055EA060EEC
:103F000018D04FEA051545EA16754FEA06164FEA2E
:103F1000C30343EA52734FEAC2025FEA1C1CC0D1DA
:103F200011F4801F0BD141EA00014FF000004FF067
:103F3000004CB6E711F4801F04BF01430020B4F128
:103F4000FD0C88BFBCF5E06F3FF6AFAEB5EB030CE0
:103F500004BFB6EB020C5FEA500C50F1000041EBDD
:103F6000045170BD0EF0004E4EEA113114EB5C04AA
:103F7000C2BFD4EB0C0541EA045170BD41F480117D
:103F80004FF0000E013C90E645EA060E8DE60CEA85
:103F9000135594EA0C0F08BF95EA0C0F3FF43BAFA2
:103FA00094EA0C0F0AD150EA01347FF434AF95EA59
:103FB0000C0F7FF425AF104619462CE795EA0C0F3D
:103FC00006D152EA03353FF4FDAE1046194622E70A
:103FD00050EA410618BF52EA43067FF4C5AE50EAE4
:103FE00041047FF40DAF52EA43057FF4EBAE12E7D4
:103FF0004FF0FF3C06E000BF4FF0010C02E000BFB5
:104000004FF0010C4DF804CD4FEA410C7FEA6C5C97
:104010004FEA430C18BF7FEA6C5C1BD001B050EA3A
:10402000410C0CBF52EA430C91EA030F02BF90EA25
:10403000020F0020704710F1000F91EA030F58BFE4
:10404000994208BF90422CBFD8176FEAE37040F046
:10405000010070474FEA410C7FEA6C5C02D150EAE4
:10406000013C07D14FEA430C7FEA6C5CD6D152EA9F
:10407000033CD3D05DF8040B704700BF8446104664
:1040800062468C461946634600E000BF01B5FFF763
:10409000B7FF002848BF10F1000F01BD4DF808ED33
:1040A000FFF7F4FF0CBF012000205DF808FB00BF04
:1040B0004DF808EDFFF7EAFF34BF012000205DF85E
:1040C00008FB00BF4DF808EDFFF7E0FF94BF0120AB
:1040D00000205DF808FB00BF4DF808EDFFF7CEFFAC
:1040E00094BF012000205DF808FB00BF4DF808EDEB
:1040F000FFF7C4FF34BF012000205DF808FB00BFBC
:1041000080F0004002E000BF81F0004142001FBF8C
:104110005FEA410392EA030F7FEA226C7FEA236C95
:104120006AD04FEA1262D2EB1363C1BFD21841408A
:1041300048404140B8BF5B42192B88BF704710F020
:10414000004F40F4000020F07F4018BF404211F0C3
:10415000004F41F4000121F07F4118BF494292EA2B
:10416000030F3FD0A2F1010241FA03FC10EB0C0057
:10417000C3F1200301FA03F100F0004302D54942E4
:1041800060EB4000B0F5000F13D3B0F1807F06D391
:1041900040084FEA310102F10102FE2A51D2B1F189
:1041A000004F40EBC25008BF20F0010040EA03007E
:1041B0007047490040EB000010F4000FA2F101022B
:1041C000EDD1B0FA80FCACF1080CB2EB0C0200FAB5
:1041D0000CF0AABF00EBC25052421843BCBFD04003
:1041E0001843704792F0000F81F4000106BF80F47D
:1041F00000000132013BB5E74FEA41037FEA226C40
:1042000018BF7FEA236C21D092EA030F04D092F00A
:10421000000F08BF0846704790EA010F1CBF00203E
:10422000704712F07F4F04D1400028BF40F000409B
:10423000704712F100723CBF00F50000704700F0BB
:10424000004343F0FE4040F4000070477FEA2262E2
:1042500016BF08467FEA23630146420206BF5FEAB3
:10426000412390EA010F40F4800070474FF00003B3
:1042700004E000BF10F0004348BF40425FEA000C7A
:1042800008BF704743F0964301464FF000001CE022
:1042900050EA010208BF70474FF000030AE000BF78
:1042A00050EA010208BF704711F0004302D54042B6
:1042B00061EB41015FEA010C02BF84460146002028
:1042C00043F0B64308BFA3F18053A3F50003BCFA43
:1042D0008CF2083AA3EBC25310DB01FA02FC6344F0
:1042E00000FA02FCC2F12002BCF1004F20FA02F2F7
:1042F00043EB020008BF20F00100704702F12002EA
:1043000001FA02FCC2F1200250EA4C0021FA02F24A
:1043100043EB020008BF20EADC7070474FF0FF0C4F
:104320001CEAD0521EBF1CEAD15392EA0C0F93EA4A
:104330000C0F6FD01A4480EA010C400218BF5FEAEC
:1043400041211ED04FF0006343EA501043EA51115F
:10435000A0FB01310CF00040B1F5000F3EBF490059
:1043600041EAD3715B0040EA010062F17F02FD2A5D
:104370001DD8B3F1004F40EBC25008BF20F0010040
:10438000704790F0000F0CF0004C08BF49024CEA57
:10439000502040EA51207F3AC2BFD2F1FF0340EAE9
:1043A000C250704740F400004FF00003013A5DDC5A
:1043B00012F1190FDCBF00F000407047C2F100029B
:1043C000410021FA02F1C2F1200200FA02FC5FEA88
:1043D000310040F1000053EA4C0308BF20EADC70D2
:1043E000704792F0000F00F0004C02BF400010F444
:1043F000000F013AF9D040EA0C0093F0000F01F0F1
:10440000004C02BF490011F4000F013BF9D041EA12
:104410000C018FE70CEAD15392EA0C0F18BF93EA14
:104420000C0F0AD030F0004C18BF31F0004CD8D13E
:1044300080EA010000F00040704790F0000F17BFC5
:1044400090F0004F084691F0000F91F0004F14D00B
:1044500092EA0C0F01D142020FD193EA0C0F03D163
:104460004B0218BF084608D180EA010000F0004066
:1044700040F0FE4040F40000704740F0FE4040F441
:10448000400070474FF0FF0C1CEAD0521EBF1CEAE0
:10449000D15392EA0C0F93EA0C0F69D0A2EB0302FE
:1044A00080EA010C49024FEA402037D04FF0805398
:1044B00043EA111143EA10130CF000408B4238BF5D
:1044C0005B0042F17D024FF4000C8B4224BF5B1A6B
:1044D00040EA0C00B3EB510F24BFA3EB510340EAB9
:1044E0005C00B3EB910F24BFA3EB910340EA9C0067
:1044F000B3EBD10F24BFA3EBD10340EADC001B01D7
:1045000018BF5FEA1C1CE0D1FD2A3FF650AF8B427A
:1045100040EBC25008BF20F0010070470CF0004C87
:104520004CEA50207F32C2BFD2F1FF0340EAC250B2
:10453000704740F400004FF00003013A37E792F073
:10454000000F00F0004C02BF400010F4000F013AD1
:10455000F9D040EA0C0093F0000F01F0004C02BFCC
:10456000490011F4000F013BF9D041EA0C0195E735
:104570000CEAD15392EA0C0F08D142027FF47DAFCE
:1045800093EA0C0F7FF470AF084676E793EA0C0FBE
:1045900004D14B023FF44CAF08466EE730F0004CBC
:1045A00018BF31F0004CCAD130F000427FF45CAF4C
:1045B00031F000437FF43CAF5FE700BF42000ED212
:1045C000B2F1FE4F0BD34FF09E03B3EB126209D44E
:1045D0004FEA002343F0004323FA02F070474FF004
:1045E0000000704712F1610F01D1420202D14FF079
:1045F000FF3070474FF00000704700BF53B94AB911
:10460000002908BF00281CBF4FF0FF314FF0FF30DA
:1046100001F0F4B8ADF1080C6DE904CE00F006F835
:10462000DDF804E0DDE9022304B070472DE9F04F26
:104630008C460C460546099E002B4FD18A421746F0
:104640006BD9B2FA82FEBEF1000F0BD0CEF120057D
:1046500020FA05F501FA0EF345EA030C02FA0EF70B
:1046600000FA0EF5390CBCFBF1F0BAB201FB10C335
:1046700000FB02F84FEA154C4CEA0344A04509D967
:10468000E41900F1FF3380F02881A04540F2258134
:1046900002383C44C8EB0404B4FBF1F301FB134CB7
:1046A00003FB02F2ACB244EA0C418A4209D9C919AF
:1046B00003F1FF3480F00F818A4240F20C81023B0B
:1046C00039448A1A43EA00400021002E63D022FABE
:1046D0000EF2002386E80C00BDE8F08F8B4207D96C
:1046E000002E56D0002186E811000846BDE8F08F64
:1046F000B3FA83F1002940F09380A34202D38242AF
:1047000000F2FE80851A64EB03039C460120002E14
:1047100041D086E82010BDE8F08F12B90127B7FB21
:10472000F2F7B7FA87FEBEF1000F36D1E41B4FEA6D
:1047300017481FFA87F90121B4FBF8F308FB13446B
:1047400009FB03F24FEA154C4CEA0444A24207D994
:10475000E41903F1FF3002D2A24200F2D3800346F3
:10476000A41AB4FBF8F008FB104809FB00F9ACB23E
:1047700044EA0842914507D9D21900F1FF3402D228
:10478000914500F2BA802046C9EB020240EA03409C
:104790009BE731463046BDE8F08F07FA0EF7CEF1C1
:1047A000200C24FA0CF34FEA1748B3FBF8FA1FFA6F
:1047B00087F908FB1A3520FA0CFC04FA0EF40AFB00
:1047C00009FB4CEA040C4FEA1C4242EA05439B45B4
:1047D00000FA0EF50AD9DB190AF1FF3280F08B805E
:1047E0009B4540F28880AAF1020A3B44CBEB0303CD
:1047F000B3FBF8F008FB103300FB09F41FFA8CFC44
:104800004CEA03439C4207D9DB1900F1FF326ED218
:104810009C426CD902383B441C1B40EA0A418BE79E
:10482000C1F1200E8B4022FA0EFC4CEA030C24FA54
:104830000EF74FEA1C49B7FBF9FA1FFA8CF309FB94
:104840001A7720FA0EF88C400AFB03F548EA0404B4
:104850004FEA144848EA0747BD4202FA01F200FA5B
:1048600001FB09D917EB0C070AF1FF3041D2BD4219
:104870003FD9AAF1020A67447F1BB7FBF9F509FB90
:10488000157705FB03F3A4B244EA0747BB4208D9F6
:1048900017EB0C0705F1FF3027D2BB4225D9023DAB
:1048A000674445EA0A40A0FB0289FF1A4F45454686
:1048B0004C4614D329D066B3BBEB050367EB040762
:1048C00007FA0EFECB40CF404EEA030386E888008D
:1048D0000021BDE8F08F2346F3E61846DAE6B8EB90
:1048E000020569EB0C040138E5E70546D9E71046F7
:1048F00092E78246C0E7924678E702383A4443E7B7
:10490000084604E7023B3C442AE7C345E7D33C465C
:10491000D1E73146BDE8F08F03685A004CBF43F041
:10492000004323F000431844704700BF61B32DE9F2
:10493000F84F01F1FF3A90460646D146002707EBB3
:10494000090404EBD4746410E50071190846FFF7FC
:10495000E3FFA245834605F10800304409D0FFF784
:10496000DBFFC34500F1FF3005D8404509D2671C85
:10497000E5E7C34505D9A74202D004F1FF39DEE7D8
:1049800000210846BDE8F88F08467047012807D087
:10499000022807D0044B00280CBF1846002070479F
:1049A0000248704702487047A1500008A55000080F
:1049B000A950000830B5254B83B004468D1E7BB34B
:1049C00001A92846AFF3008020B301992A46FFF7DA
:1049D000ADFF0146F0B1FFF79FFF4B68A064012BCC
:1049E00012D0002B01F1040021DBFFF795FF00231B
:1049F000E06423650368002B1DDBFFF78DFF0023B8
:104A00002061184603B030BD0023236105231846FA
:104A100003B030BD002323610923184603B030BD25
:104A20000B490C4B0846591AC9100191CEE70123D6
:104A3000E0642365DEE7C3F30360FFF7A7FF002808
:104A4000206114BF00230923DBE700BF0000000042
:104A5000989B0008489E0008036810B5DA070446D2
:104A600006D49B0700F1480009D500F05BFC2368E1
:104A7000590709D51A070ED5DB0613D510BD00F06E
:104A800049FC23685907F5D404F1D00000F052FC2A
:104A900023681A07F0D404F5A87000F053FC2368CB
:104AA000DB06EBD404F5E870BDE8104000F08EBCE6
:104AB00003680BB1184470471846704709207047C7
:104AC000704700BF70B504460D4608E02A6C2369A4
:104AD000626121462A4601209847082808D1296C9E
:104AE0002046FFF767FF06460028EFD0FEF78AF85A
:104AF0000728FBD13046296CFFF7E2FF281D00F0A4
:104B0000FDFB00BF2DE9F0470646ADF5727D03AD14
:104B10000C1D17460FCC0FC50FCC0FC50FCC0FC502
:104B200094E80F0002ACD6F80C80D6F8189085E80F
:104B30000F0000233046216C2360FFF73BFF054642
:104B4000002F14BF0A2709277DB1A36B47F010017E
:104B50008DE810023246636401203346C04778BBBB
:104B600028460DF5727DBDE8F087236C4FF4F07296
:104B7000736121467AA801F0EFF833697AAA3146C9
:104B800038469847889B82468DE810023946636410
:104B9000324633460120C04790B94FF4F0727AA9EB
:104BA000204601F0D9F8BAF1080F06D1216C304641
:104BB000FFF700FF09270546C6E7BAF1070F04D043
:104BC00009200DF5727DBDE8F0872846216CFFF7BE
:104BD00077FF03A800F092FB406C7047F0B5CB6BF9
:104BE000F9B00B640E1D01AD0F4604460FCE0FC584
:104BF0000FCE0FC50FCE0FC596E80F004FF0FF3652
:104C000085E80F00009606E023696A46214698472A
:104C10000828054608D110992046FFF7CBFE00284A
:104C2000F2D0092079B0F0BD6846FFF715FF062DD8
:104C3000F7D139462046FFF745FF00BF30B4DD6BA2
:104C4000C160826119461D64002230BC5AE700BF72
:104C500070B54369C6680B6426B10122FFF752FFA5
:104C6000FDF7D0FF03690A4604460D4601460220BF
:104C70009847072807D0082803D129462046FFF780
:104C800021FFFDF7BFFF3046296CFFF719FF281DF4
:104C900000F034FBC2682AB110B4CC6B00220C6463
:104CA00010BC2FE79AE700BF704700BF836813B1BD
:104CB000014601201847704700B5042907D8DFE8EE
:104CC00001F00309060909000BB90F2A05D90220D2
:104CD0005DF804FB01205DF804FB00EB82025268E2
:104CE0001846019B1A605DF804FB00BF10B584B044
:104CF000002303AC0A4600941946FFF7DDFF039832
:104D000004B010BD00B5042907D8DFE801F003099D
:104D1000060909000BB90F2A05D902205DF804FB2A
:104D200001205DF804FB019900EB82020968184636
:104D300051605DF804FB00BF10B584B004AC44F8CA
:104D4000042D00230A4600941946FFF7DBFF04B048
:104D500010BD00BFF0B5D36BADF50F7D1364151D0D
:104D600017AC07460E460FCD0FC40FCD0FC40FCDA5
:104D70000FC495E80F004FF0FF3584E80F0016953B
:104D800011E016A86A46FFF7D7FF314616A8B847C4
:104D900080B9049B16AA694608209847052804464E
:104DA00009D0092806D026996846FFF703FE0C2192
:104DB0000028E6D0092416A8FFF74EFE20460DF580
:104DC0000F7DF0BD2DE9F04FCC6C914622688BB081
:104DD00004340D460792089400F0030B1E46002B86
:104DE00064D11202032307928DF825608DF82430D8
:104DF0002B6DBBF1020F08BFAC6B13F0010343D165
:104E000000F00800C2B2039201932768002F3DD042
:104E1000022E47D02788B4F802800434AB6C28F007
:104E2000010A0F2148469A44FFF760FF824537D8B0
:104E300027F001039A4450452CBF002001204FEA7F
:104E4000480808F0020807F0010748EA0708B8F127
:104E5000010F41D038D3B8F1020F1DD1236823F0E0
:104E600000420292BBF1000F79D130B103990029C1
:104E700000F08180002A00F0A880002B79DB029BE3
:104E8000013304EB8304C0E700230193022E40DDCD
:104E9000FFF714FE002842D009200BB0BDE8F08FC8
:104EA0000020CCE7D4F804800834B7E7022B9FDC5D
:104EB000130CD9B212048DF82530022304EB8104BF
:104EC00007928DF8243093E7BBF1000F02D0002841
:104ED00040F0B080043498E7BBF1000F26D1B0B1A8
:104EE00094E80C00991C4FEAD272D5D005F1580114
:104EF0000133069100F09480201DFFF7D9FD06AB29
:104F000001462846AFF30080002840F0B8800834FE
:104F10007BE707A9484600F0F3FA0028BCD1019BC3
:104F2000002B5CD108200BB0BDE8F08F0D21484666
:104F30002F6AFFF7DBFE8742E9D1AB6A9C42E6D1DC
:104F40002046FFF7E9FC0F2102464846FFF7F4FE32
:104F500048462A460021FFF7EFFE07209DE70D2176
:104F600048462F6AFFF7C2FE874248D02368002BCD
:104F700085DA043483E7029B3BB305F15803271D10
:104F8000CDF810B0DDF80C80A346DDF808A01C4673
:104F9000059602E0B245B04616D038460694FFF7B3
:104FA00087FD06AB014600222846AFF3008008F1DA
:104FB000010604370028EDD0029B5C464345DDF82E
:104FC00010B0059ED2D100E05C4648460D21FFF7A7
:104FD0008DFE069B2862AC626B6206205DE70F21A6
:104FE0004846FFF783FE0E2102464846FFF7A4FE1F
:104FF00048462A4A0F21FFF79FFE07204DE7AB6A7C
:105000009C42B3D1042202990027A318A962EF623F
:105010002A636B632368BB421FDB012301932EE7E6
:1050200048460D21FFF762FE2862069B6B62AC6268
:10503000062032E72046FFF76FFC04340646AC63D7
:105040002846AFF3008000283FF426AF484632469A
:105050000F21FFF771FE07201FE70846013004EB20
:105060008000FFF759FC0F2102464846FFF764FE17
:1050700048462A463946FFF75FFE07200DE70746F8
:105080000D214846FFF732FE022F2862CDD12B4674
:10509000069A43F82C2F6B62C9E700BF000000009E
:1050A00000238FE601238DE602238BE6F0B504464C
:1050B000C5B004290DD8DFE801F057030C310F000B
:1050C000012B4FEA124695B266D17219102A40F2AE
:1050D0009F80022045B0F0BD002BFAD1102AF8D8ED
:1050E0002368D80600F1C98022AE3046019200F054
:1050F00077F9A06B019A0023012505FA03F111420B
:1051000003D00168043046F823100133042BF4D196
:10511000A063304600F05AF90020DBE7032BD8D11A
:10512000150C97B2EB19102BD3D823681E0700F18A
:10513000B88022AE30467F0000F026F906EBC502AB
:105140007B1EA56B57B12946043A51F8040B013B6D
:1051500042F8040F581CF8D105EB87053046A563CB
:1051600000F0F0F80020B5E7002BB2D1A56B97B2A4
:10517000201D012606FA03F1394203F1010302D092
:10518000296804350160102B00F10400F2D112F4FB
:1051900000503BD1A5639DE7052B9AD17719202FAD
:1051A00097D80F2E65D92F46002D48D12A460027C3
:1051B000002AA06B71DD00EBC202014644A800EB9F
:1051C000C6008C3851F8045B914240F8045FF9D175
:1051D000084697B13246102E44A938BF102201EB81
:1051E000C202A2F5C4727900043A00EB810150F8C2
:1051F000045B814242F8045FF9D1012B47D00F2EA6
:10520000A16332D917B102A800F094F8002061E739
:105210000F2E3FF65EAF00272268D1070DD522F092
:105220000101052B21600193204652D022F0030298
:1052300040F8482B00F072F8019B002F51D02268F3
:10524000510736D4012B3ED00F2E06D822A8019349
:1052500000F06CF8019B002FA8D002A8019300F089
:105260006DF8019BC6F11002A2E722A800F05AF8DF
:10527000C8E7102FCFD9103FCEE723F010032360EB
:1052800004F5E870019200F0ABF8019A2CE70431C4
:10529000A16322A800F03EF8B8E7002F9AD101469A
:1052A000ABE723F00803236004F5A87000F06CF866
:1052B0003FE7204622F0040240F8D02B019300F093
:1052C0003DF8019BBEE722A8019300F027F8019B5F
:1052D000C8E741F0020140F8481B00F027F8019BA5
:1052E000ABE7012B03D00F2E3FF660AFAEE722A84D
:1052F000019300F013F8019B58E700BF00F134015F
:1053000091E838009C46A6464CF8045D90E8FF0FF3
:10531000E54600BD90EC210B704700BF80EC210BEF
:10532000704700BF90EC200B704700BF80EC200B53
:10533000704700BFD0EC200B704700BFC0EC200BC3
:10534000704700BFF0EC0201F0EC0211F0EC02211A
:10535000F0EC0231F0EC0241F0EC0251F0EC0261B1
:10536000F0EC0271F0EC0281F0EC0291F0EC02A1A1
:10537000F0EC02B1F0EC02C1F0EC02D1F0EC02E191
:10538000F0EC02F1704700BFE0EC0201E0EC02112A
:10539000E0EC0221E0EC0231E0EC0241E0EC0251F1
:1053A000E0EC0261E0EC0271E0EC0281E0EC0291E1
:1053B000E0EC02A1E0EC02B1E0EC02C1E0EC02D1D1
:1053C000E0EC02E1E0EC02F1704700BFB0FC0181CB
:1053D000B0FC0191B0FC01A1B0FC01B1704700BF6D
:1053E000A0FC0181A0FC0191A0FC01A1A0FC01B1E5
:1053F000704700BFEC4600B52DE900502DE9FF1FB6
:105400004FF000032DE90C0001A9FFF7E7FBDDF8E1
:1054100040E012B0704700BFEC4600B52DE90050E7
:105420002DE9FF1F4FF000032DE90C0001A9FFF744
:105430000FFCDDF840E012B0704700BFEC4600B54D
:105440002DE900502DE9FF1F4FF000032DE90C005E
:1054500001A9FFF71FFCDDF840E012B0704700BF64
:10546000EC4600B52DE900502DE9FF1F4FF0000379
:105470002DE90C0001ABFFF7E1FBDDF840E012B0D5
:10548000704700BFEC4600B52DE900502DE9FF1F25
:105490004FF000032DE90C0001AAFFF75BFCDDF8DB
:1054A00040E012B0704700BF037A1BB9437A43B99A
:1054B000B02070475A1E036802721A020260180E6A
:1054C00070474268013B10B4437213680321141DF6
:1054D00001721A024460026010BC180E704700BFCF
:1054E00000B585B003AA0023009219460C22FFF7ED
:1054F000E3FB039805B05DF804FB00BFF0E700BFD5
:105500002DE9F04306460D4685B04FF000082846C9
:10551000FFF7CAFFB028044600F0B48020F07F03F4
:1055200013F0FF0320D000F0F003802B7AD0902BF3
:1055300035D0A02B48D0B02B5CD0C02B00F0898098
:1055400000F0F803D02B0BD100F00702013242F437
:105550000022052301213046FFF7A8FD0028D6D000
:10556000092005B0BDE8F0830DF10C09194687004C
:10557000CDF800900D223046FFF79EFBFFB2039B53
:10558000043760064CBFDF1BFF180023CDF80090E6
:1055900019460D2230460397FFF7B4FBB7E700F03A
:1055A0000D030D2BDCD003AF002300F00F021946D2
:1055B00000973046FFF780FB0023009719460D2225
:1055C0003046FFF79FFBA2E7C2434FF47F6302F030
:1055D000070243FA02F2010702EA03024FF0000356
:1055E00048BF42F4804219463046FFF75FFD00286D
:1055F000B6D18CE7B1284AD0B22853D0B32800F0F6
:10560000818000F0FC03B42BAAD000F00702013225
:10561000012342F4002219463046FFF747FD0028D7
:105620009ED174E72846FFF73FFF24022043B0F5E0
:10563000004F95D004010023A2B219463046FFF76F
:1056400035FD00288CD114F4004F18BF4FF001082D
:105650005DE7C62862D0C7286CD000F0F803C02BE5
:105660007BD0C82800F09180C9287FF479AF284604
:10567000FFF71AFF020300F00F0002F4702201305E
:10568000024366E7B8F1000F6ED0002069E72846B4
:10569000FFF70AFF024600283FF462AF10F0F00364
:1056A000B9D05DE700230DF10C090D221946CDF8A4
:1056B00000903046FFF700FB2846FFF7F5FE020694
:1056C0004FF002040CD5039B00F07F00A040034480
:1056D00028460393FFF7E8FE030604F10704F2D41B
:1056E000039B00F07F0000FA04F203F5017400232D
:1056F0001444CDF8009019460D2230460394FFF76C
:1057000001FB04E72846FFF7CFFE010300F00F007E
:1057100001F47021421C01230A437CE72846FFF76D
:10572000C3FE010300F00F0001F47021421C0323AB
:105730000A4370E72846FFF7B7FE024600283FF409
:105740000FAF10F0F0037FF40BAF04213046FFF7EA
:10575000ADFC00287FF404AFD9E600F00F0201325F
:10576000032342F4202256E703AC43460E2241466F
:1057700000943046FFF7A0FA0094304643460F22CB
:105780004146FFF7BFFA4046EBE62846FFF78CFE9E
:1057900000F0F00200F00F031032013343EA02324E
:1057A000D7E600BF10B5C36C84B003205A688DF8EB
:1057B0000C00DC7912020833084601A901928DF829
:1057C0000D400293FFF79CFE04B010BD08B5FFF733
:1057D00095FE806C08BD00BF08B5FFF78FFEC36C57
:1057E000D87903EB8000083008BD00BF08B5FDF78D
:1057F00009FA00BF08B5FFF7F9FF00BF704700BF07
:105800002DE9F04F01F10B05162D83B0064640F24D
:10581000A08035F0070500F1C080A94200F2BD80EC
:1058200000F010FBB5F5FC7FC0F090826B0A00F031
:10583000BB80042B00F27781A80900F1390E4FEAF2
:105840004E013830BE4F07EB81014C680839A14248
:1058500007D1AEE0002A80F2AE80E468A14200F0F9
:10586000A880636823F003035A1B0F2AF2DDB449B2
:105870003C6901F1080E744500F0A881636823F0CB
:1058800003035A1B0F2A00F38E81002AC1F814E08B
:10589000C1F810E080F29380B3F5007F80F05C8166
:1058A000DB084A684FEAA3094FF0010C013351F8B5
:1058B00033800CFA09F901EBC30C49EA0202ACF19E
:1058C000080CC4F80CC0C4F808804A6041F83340A2
:1058D000C8F80C40831001249C4094427CD81442A8
:1058E00006D120F003006400144200F10400FAD055
:1058F00007EBC009CC468046DCF80C108C4507D17C
:1059000066E1002A80F27481C9688C4500F06081EC
:105910004B6823F003035A1B0F2AF2DD0C46CB68B9
:1059200054F808CF45F00108C1F804800D4442F056
:105930000101CCF80C303046C3F808C07D613D61F0
:10594000C5F80CE0C5F808E06960AA5000F07CFAE0
:105950001FE0102921D800F075FA10250623022037
:10596000774F07EB83035C68A3F10802944200F0D1
:1059700038816368E16823F0030323445A68A5680B
:1059800042F00102E96030468D605A6000F05CFA36
:105990000834204603B0BDE8F08F002420460C23D5
:1059A000336003B0BDE8F08F80214FF0400E3F2000
:1059B00048E770465BE723445A68E168DFE7234421
:1059C0005A68304642F001025A60083400F03CFA4E
:1059D000204603B0BDE8F08FBC68636823F003087D
:1059E000A84504D3C5EB08030F2B00F38C80554B5F
:1059F000DFF860911A68D9F800302A44013304EBCB
:105A0000080A00F0608102F580520F3222F47F62B2
:105A100022F00F0211463046019200F017FAB0F161
:105A2000FF3F8346019A00F05881824500F2FC80D6
:105A3000454BDA4519681144196000F05381D9F8D3
:105A40000000DFF810E101301BBFCAEB0B0A514424
:105A5000CEF800B019601BF0070100F01781C1F10A
:105A60000800C1F58051834408315A44C2F30B0247
:105A7000C2EB010949463046019300F0E7F9431CA7
:105A8000019B00F03F81CBEB00024A4442F001024F
:105A90001968BC424944C7F808B01960CBF8042023
:105AA000DFF8A49016D0B8F10F0F40F2FD806268C5
:105AB000A8F10C0323F0070302F00102E0184FF0F5
:105AC000050E1A430F2B6260C0F804E0C0F808E02E
:105AD00000F21C811D4BBC681A68914288BF196096
