:020000040800F2
:10000000A011002079080008D9080008D9080008C4
:10001000D9080008D9080008D90800080000000025
:10002000000000000000000000000000D9080008E7
:10003000D908000800000000D9080008991200083B
:10004000D9080008D9080008D9080008D90800080C
:10005000D9080008D9080008D9080008D9080008FC
:10006000D9080008D9080008D9080008D9080008EC
:10007000D9080008D9080008D9080008D9080008DC
:10008000D9080008D9080008D9080008D9080008CC
:1000900069110008D9080008D9080008D908000823
:1000A000D908000845070008D9080008D908000841
:1000B00085070008D907000829080008D9080008A2
:1000C000D9080008D9080008D90800080D0100085F
:1000D000D9080008692100085122000839230008C6
:1000E000D9080008D9080008D90800080000000055
:1000F0000000000000000000000000000000000000
:1001000000000000000000005FF808F180B500AFBB
:100110007121114801F08CFD0346002B14BF01230F
:100120000023DBB2002B04D002210B4801F0BAFD02
:100130000FE06021084801F07BFD0346002B14BF4F
:1001400001230023DBB2002B03D00121024801F080
:10015000A9FD00BF80BD00BF0030014080B483B066
:1001600000AF78600B467B807B88DB439AB27B686C
:100170001A8200BF0C37BD4680BC704780B582B084
:1001800000AF03460A46FB8013467B7145F255508B
:1001900002F046F97B79184602F052F9FB881846BE
:1001A00002F05EF900F006F802F076F900BF0837B9
:1001B000BD4680BD80B500AF02F062F900BF80BDD2
:1001C00080B500AF154A154B1B6843F0010313605F
:1001D0001249124B5A68124B13404B600F4A0F4B97
:1001E0001B6823F0847323F4803313600B4A0B4B9A
:1001F0001B6823F480231360084A084B5B6823F4D0
:10020000FE035360054B4FF41F029A6000F00CF898
:10021000044B4FF000629A6000BF80BD00100240A6
:100220000000FFF800ED00E080B500AF00F002F83C
:1002300000BF80BD80B483B000AF00237B6000238B
:100240003B603A4A394B1B6843F480331360374BA9
:100250001B6803F400333B607B6801337B603B68C1
:10026000002B03D17B68B3F5A06FF0D12F4B1B6837
:1002700003F40033002B02D001233B6001E0002394
:100280003B603B68012B4BD1294A294B1B6843F04B
:1002900010031360264A264B1B6823F003031360E8
:1002A000234A234B1B6843F0020313601F4A1F4B72
:1002B0005B6853601D4A1D4B5B6853601B4A1B4BB8
:1002C0005B6843F480635360184A184B5B6823F4FF
:1002D0007C135360154A154B5B6843F4E813536075
:1002E000124A124B1B6843F08073136000BF0F4B20
:1002F0001B6803F00073002BF9D00C4A0B4B5B68B2
:1003000023F003035360094A084B5B6843F0020380
:10031000536000BF054B5B6803F00C03082BF9D159
:1003200000BF0C37BD4680BC704700BF00100240C4
:100330000020024080B582B000AF78600B467B8021
:100340007B689B68384A934205D1384B1B68012B68
:1003500022D0012363E07B689B68B3F1804F05D115
:10036000334B1B68012B17D0012358E07B689B6837
:10037000304A934205D1304B1B68012B0CD001232E
:100380004DE07B689B682D4A934205D12C4B1B683E
:10039000012B01D0012342E07B689B887A889A4236
:1003A00002D97B689B887B807B687A885A807B68CF
:1003B0009B89013B032B2FD801A252F823F000BFE9
:1003C000D1030008E3030008F50300080704000850
:1003D0007B689A687B685B881946104600F07AF85B
:1003E0001CE07B689A687B685B881946104600F0C1
:1003F0007FF813E07B689A687B685B881946104633
:1004000000F084F80AE07B689A687B685B8819468C
:10041000104600F089F801E0012300E000231846AF
:100420000837BD4680BD00BF002C0140D809002020
:10043000DC09002000040040E00900200008004022
:10044000E409002080B582B000AF78607B689B68CB
:100450001D4A934208D100F077F802467B6893F971
:10046000003003FB02F32BE07B689B68B3F1804F05
:1004700008D100F07BF802467B6893F9003003FB5B
:1004800002F31DE07B689B68104A934208D100F09C
:100490007FF802467B6893F9003003FB02F30FE01C
:1004A0007B689B680A4A934208D100F083F80246B1
:1004B0007B6893F9003003FB02F301E04FF0FF3358
:1004C00018460837BD4680BD002C0140000400409E
:1004D0000008004080B483B000AF78600B467B809A
:1004E0007B687A889A8600BF0C37BD4680BC70470F
:1004F00080B483B000AF78600B467B807B687A88DD
:100500001A8700BF0C37BD4680BC704780B483B0EB
:1005100000AF78600B467B807B687A889A8700BF43
:100520000C37BD4680BC704780B483B000AF7860A4
:100530000B467B807B687A88A3F8402000BF0C378D
:10054000BD4680BC704700BF80B400AF054B9B8C9C
:100550009BB21A46044B1B681B0413441846BD4645
:1005600080BC7047002C0140E809002080B400AF37
:100570004FF080439B8C9BB21A46044B1B681B04B4
:1005800013441846BD4680BC704700BFEC090020EC
:1005900080B400AF054B9B8C9BB21A46044B1B6882
:1005A0001B0413441846BD4680BC7047000400403D
:1005B000F009002080B400AF054B9B8C9BB21A461B
:1005C000044B1B681B0413441846BD4680BC70478F
:1005D00000080040F409002080B400AF0C4B9B8C55
:1005E0009BB21BB2DB439BB2DB0BDBB2002B05D013
:1005F000084B1B680133074A136004E0054B1B6876
:10060000013B044A136000BFBD4680BC704700BF79
:10061000002C0140E809002080B400AF4FF0804377
:100620009B8C9BB21BB2DB439BB2DB0BDBB2002B80
:1006300005D0074B1B680133054A136004E0044BE7
:100640001B68013B024A136000BFBD4680BC704777
:10065000EC09002080B400AF0C4B9B8C9BB21BB20A
:10066000DB439BB2DB0BDBB2002B05D0084B1B68D6
:100670000133074A136004E0054B1B68013B044A41
:10068000136000BFBD4680BC704700BF000400403F
:10069000F009002080B400AF0C4B9B8C9BB21BB2C6
:1006A000DB439BB2DB0BDBB2002B05D0084B1B6896
:1006B0000133074A136004E0054B1B68013B044A01
:1006C000136000BFBD4680BC704700BF00080040FB
:1006D000F409002080B400AF044B1B680133034AC7
:1006E000136000BFBD4680BC704700BFE809002012
:1006F00080B400AF044B1B680133034A136000BF92
:10070000BD4680BC704700BFEC09002080B400AF3C
:10071000044B1B680133034A136000BFBD4680BC15
:10072000704700BFF009002080B400AF044B1B6885
:100730000133034A136000BFBD4680BC704700BF51
:10074000F409002080B500AF0C4B1B68022B02D1CE
:10075000FFF742FF0CE0094B1B68012B02D1FFF7AA
:100760003BFF05E0054B1B68032B01D1FFF7B2FFF0
:1007700001210348FFF7F2FC00BF80BDD80900202B
:10078000002C014080B500AF124B1B68022B07D133
:10079000FFF742FF01214FF08040FFF7DFFC16E03A
:1007A0000C4B1B68012B07D1FFF736FF01214FF0DF
:1007B0008040FFF7D3FC0AE0064B1B68032B06D1F1
:1007C000FFF796FF01214FF08040FFF7C7FC00BF05
:1007D00080BD00BFDC09002080B500AF104B1B6856
:1007E000022B06D1FFF736FF01210E48FFF7B6FCBA
:1007F00014E00B4B1B68012B06D1FFF72BFF0121E7
:100800000848FFF7ABFC09E0054B1B68032B05D13B
:10081000FFF77CFF01210348FFF7A0FC00BF80BD6C
:10082000E00900200004004080B500AF104B1B68B9
:10083000022B06D1FFF72EFF01210E48FFF78EFC99
:1008400014E00B4B1B68012B06D1FFF723FF01219E
:100850000848FFF783FC09E0054B1B68032B05D113
:10086000FFF762FF01210348FFF778FC00BF80BD5E
:10087000E40900200008004080B582B000AF114BB1
:100880007B60114B3B6007E03B681A1D3A607A6859
:10089000111D796012681A603B680C4A9342F3D3C9
:1008A0000B480C494FF000028842B8BF40F8042BB7
:1008B000FADBFFF785FC00F0ADFB00BF0837BD4653
:1008C00080BD00BF0884000800000020D809002077
:1008D000D8090020A00D002080B400AFFEE700BFC3
:1008E00080B582B000AF78607B680E4A93420AD12F
:1008F00001214FF0007000F0B5FE00214FF00070B4
:1009000000F0B0FE09E001214FF0806000F0AAFE87
:1009100000214FF0806000F0A5FE00BF0837BD4603
:1009200080BD00BF0064004080B485B000AF786037
:1009300039600023FB730023BB607B681B6823F0D6
:1009400002027B681A607B681B6843F001027B68C7
:100950001A6002E0BB680133BB607B685B6803F030
:100960000103002B04D1BB684FF6FF729342F1D113
:100970007B685B6803F00103002B02D10023FB734B
:100980009CE03B689B79012B06D17B681B6843F098
:1009900080027B681A6005E07B681B6823F0800298
:1009A0007B681A603B68DB79012B06D17B681B688A
:1009B00043F040027B681A6005E07B681B6823F007
:1009C00040027B681A603B681B7A012B06D17B686A
:1009D0001B6843F020027B681A6005E07B681B6897
:1009E00023F020027B681A603B685B7A012B06D1FA
:1009F0007B681B6843F010027B681A6005E07B6827
:100A00001B6823F010027B681A603B689B7A012BFD
:100A100006D17B681B6843F008027B681A6005E01A
:100A20007B681B6823F008027B681A603B68DB7AEE
:100A3000012B06D17B681B6843F004027B681A60B7
:100A400005E07B681B6823F004027B681A603B6842
:100A50009B789A073B68DB781B061A433B681B7937
:100A60001B041A433B685B791B051A433B681B88D0
:100A7000013B1A437B68DA617B681B6823F0010243
:100A80007B681A600023BB6002E0BB680133BB6077
:100A90007B685B6803F00103002B04D0BB684FF652
:100AA000FF729342F1D17B685B6803F00103002B76
:100AB00002D00023FB7301E00123FB73FB7B18468C
:100AC0001437BD4680BC704780B485B000AF7860F5
:100AD0000023FB607B689B7A1A4601239340FB60EE
:100AE000554A554BD3F8003243F00103C2F80032A7
:100AF0005149514BD3F81C22FB68DB431340C1F82A
:100B00001C327B681B7B002B25D14B494A4BD3F809
:100B10000C22FB68DB431340C1F80C3246497B686A
:100B20009B7A18467B68DB881B047A6852881A43D4
:100B300000F1480341F833203F497B689B7A18460F
:100B40007B689B881B047A6812881A4300F148036B
:100B5000DB000B445A607B681B7B012B24D1364998
:100B6000354BD3F80C22FB681343C1F80C323249E1
:100B70007B689B7A18467B681B881B047A685288BE
:100B80001A4300F1480341F833202B497B689B7AD4
:100B900018467B689B881B047A68D2881A4300F148
:100BA0004803DB000B445A607B68DB7A002B09D1D9
:100BB0002149214BD3F80422FB68DB431340C1F8E1
:100BC000043207E01C491C4BD3F80422FB68134392
:100BD000C1F804327B681B89002B08D11649164BDB
:100BE000D3F81422FB68DB431340C1F814327B684E
:100BF0001B89012B07D110490F4BD3F81422FB6836
:100C00001343C1F814327B685B7B012B07D10A497F
:100C1000094BD3F81C22FB681343C1F81C32064A67
:100C2000054BD3F8003223F00103C2F8003200BFB5
:100C30001437BD4680BC70470064004080B483B068
:100C400000AF78607B6800229A717B680022DA71BD
:100C50007B6800221A727B6800225A727B6800222D
:100C60009A727B680022DA727B6800229A707B6835
:100C70000022DA707B6803221A717B6802225A71A3
:100C80007B6801221A8000BF0C37BD4680BC7047CC
:100C900080B485B000AFF8600B467A60FB72FB7AD7
:100CA000FA681B331B0113441B68DBB203F0040317
:100CB000DAB27B681A727B681B7A002B09D1FB7A47
:100CC000FA681B331B0113441B685A0D7B681A60BA
:100CD00008E0FB7AFA681B331B0113441B68DA082F
:100CE0007B685A60FB7AFA681B331B0113441B684C
:100CF000DBB203F00203DAB27B685A72FB7AFA685D
:100D00001B331B01134404331B68DBB203F00F03D6
:100D1000DAB27B689A72FB7AFA681B331B011344C0
:100D200004331B681B0ADAB27B68DA74FB7AFA6850
:100D30001B01134403F5DC731B68DAB27B68DA72BB
:100D4000FB7AFA681B01134403F5DC731B681B0A6A
:100D5000DAB27B681A73FB7AFA681B01134403F555
:100D6000DC731B681B0CDAB27B685A73FB7AFA6877
:100D70001B01134403F5DC731B681B0EDAB27B689E
:100D80009A73FB7AFA681B01134403F5DE731B6840
:100D9000DAB27B68DA73FB7AFA681B01134403F555
:100DA000DE731B681B0ADAB27B681A74FB7AFA6876
:100DB0001B01134403F5DE731B681B0CDAB27B685E
:100DC0005A74FB7AFA681B01134403F5DE731B683F
:100DD0001B0EDAB27B689A74FB7A002B06D1FB6893
:100DE000DB6843F02002FB68DA6005E0FB681B6902
:100DF00043F02002FB681A6100BF1437BD4680BC77
:100E0000704700BF80B485B000AFF860B96013468A
:100E1000FB71FB79002B06D0FB685A69BB681A434B
:100E2000FB685A6106E0FB685A69BB68DB431A40FD
:100E3000FB685A6100BF1437BD4680BC704700BFD5
:100E400080B489B000AF786039600023FB61002373
:100E50003B610023BB610023FB6000237B61002317
:100E6000BB603B68DB7803F00F03FB613B68DB781A
:100E700003F01003002B05D03B689B781A46FB69F2
:100E80001343FB613B681B88DBB2002B44D07B68BB
:100E90001B687B610023BB6138E00122BB6902FA59
:100EA00003F3FB603B681B881A46FB6813403B61F9
:100EB0003A69FB689A4226D1BB699B00FB600F220E
:100EC000FB6802FA03F3BB60BB68DB437A6913403B
:100ED0007B61FA69FB6802FA03F37A6913437B6169
:100EE0003B68DB78282B05D10122BB699A407B68DF
:100EF0005A6108E03B68DB78482B04D10122BB69CA
:100F00009A407B681A61BB690133BB61BB69072BDF
:100F1000C3D97B687A691A603B681B88FF2B46D966
:100F20007B685B687B610023BB613AE0BB69083387
:100F3000012202FA03F3FB603B681B881A46FB6838
:100F400013403B613A69FB689A4227D1BB699B0019
:100F5000FB600F22FB6802FA03F3BB60BB68DB4354
:100F60007A6913407B61FA69FB6802FA03F37A69D4
:100F700013437B613B68DB78282B05D1BB690833C1
:100F800001229A407B685A613B68DB78482B05D187
:100F9000BB69083301229A407B681A61BB6901333F
:100FA000BB61BB69072BC1D97B687A695A6000BFF6
:100FB0002437BD4680BC704780B483B000AF7860F2
:100FC0007B684FF6FF721A807B6802229A707B68FA
:100FD0000422DA7000BF0C37BD4680BC704700BFEA
:100FE00080B485B000AF78600B467B800023FB7334
:100FF0007B689A687B881340002B02D00123FB7327
:1010000001E00023FB73FB7B18461437BD4680BC10
:10101000704700BF90B585B004AF00F005F94FF4FC
:10102000007302933F4B01934FF4806300933D4B59
:101030004FF4E1323C493D4800F08CFE3C4B0093BC
:101040003C4B3D4A3D49394800F064FE4FF4006393
:101050000193344B00934FF48053324A3849394856
:1010600000F02AF900230093002340F201124FF40C
:101070008071344800F040F9002140F2DC50FFF765
:101080007DF8314800F04AFB0346002B0CBF0123DA
:101090000023DBB2002B0AD04FF480612B4800F014
:1010A0004FFB4FF480612A4800F04AFB07E0002123
:1010B000274800F045FB0021244800F041FB00F0E8
:1010C000DBF80A460146234B18CBA24208BF9942DF
:1010D0002CBF01230023DBB2002B18D0FFF76AF8E6
:1010E00000F0CAF803460C46323344F10004194AB2
:1010F000C2E900341848FFF7A5F904461748FFF77E
:10110000A1F9034622461649084800F003FE154B94
:101110001B88002BB5D0134B1B88013B9AB2114B97
:101120001A80F4E70008014000480040BC0A002093
:10113000587E0008E47D0008F07D0008347E000839
:1011400000640040B80A0020F00A0020A80A00202D
:10115000B00A0020200A0020680A0020780A002037
:10116000647E0008F809002080B500AF054B1B889D
:1011700001339AB2034B1A800349044800F0D4F8B3
:1011800000BF80BDF8090020080A0020B80A00202E
:1011900080B483B000AF03463960FB7197F9073024
:1011A000002B0BDA0D49FB7903F00F03043B3A687F
:1011B000D2B21201D2B20B441A7609E0084997F96B
:1011C00007303A68D2B21201D2B20B4483F800233E
:1011D00000BF0C37BD4680BC704700BF00ED00E08B
:1011E00000E100E080B582B000AF78607B68B3F1C9
:1011F000807F01D3012311E00A4A7B6823F07F43FB
:10120000013B53600F214FF0FF30FFF7C1FF054B4B
:1012100000229A60034B07221A6000231846083701
:10122000BD4680BD10E000E080B500AF054B1B68F7
:101230005B09054AA2FB0323DB091846FFF7D2FF2F
:1012400000BF80BD00000020C55A7C0A90B400AFEA
:10125000084B18CBDB1844EB0404A20042EA93725B
:1012600099005B1844EB020418462146BD4690BC29
:10127000704700BF600B002098B500AFFFF7E6FF96
:101280004FF47A724FF0000301F012F903460C4656
:101290001846214698BD00BF90B400AF054B18CB4F
:1012A000013344F10004034AC2E9003400BFBD46E3
:1012B00090BC7047600B002080B586B002AFF8602C
:1012C000B9607A607B80FB68BA681A607A88BB8BE9
:1012D0000093BB697968F86800F03CF8FB681B680C
:1012E000044A934201D100F04FF800BF1037BD46C9
:1012F00080BD00BF0064004080B584B000AFF860DE
:10130000084611461A4603467B810B463B8113462D
:10131000FB803B8BFA883989788900F075F800BF2B
:101320001037BD4680BD00BF80B582B000AF786089
:1013300039607B681B68064A934204D13A680021F1
:101340000348FFF7A5FC00BF0837BD4680BD00BFBE
:101350000064004080B58AB000AFF860B9603B60BF
:101360001346FB80FA8807F110001823B96800F0D3
:1013700097F93A8E07F11C000423396800F090F9C0
:1013800000BF2837BD4680BD80B584B000AF1D4882
:10139000FFF7A6FA01214FF0007000F045F93B1D60
:1013A0001846FFF74BFC0123BB720023FB7200239E
:1013B0003B7300237B730023FB730123BB7100236A
:1013C000FB7104233B7205237B720323BB803B1D0F
:1013D00019460C48FFF7A8FA14233B7000237B70D2
:1013E0000123BB700123FB703B46184600F0BEFB97
:1013F000012202210348FFF705FD00BF1037BD465B
:1014000080BD00BF0064004090B587B000AF0446C7
:10141000084611461A462346FB800346BB800B460E
:101420007B8013463B80184B1B880D2B27D8164B0F
:101430001B88DBB2BB740123FB7400233B75FB8864
:101440005B019BB27B81BB885B019BB2FB817B888C
:101450005B019BB23B813B885B019BB2BB8100235C
:101460003B8201237B7507F108031846FFF72CFB2D
:10147000054B1B8801339AB2034B1A8000E000BF72
:101480001C37BD4690BD00BF680B002080B487B0FC
:1014900000AF786000237B6100233B610023FB6089
:1014A0000023BB604C4B5B6803F00C037B617B69E2
:1014B000042B07D0082B09D0002B33D17B68474A77
:1014C0001A6033E07B68454A1A602FE0424B5B6844
:1014D00003F470133B61404B5B6803F48033FB60A3
:1014E0003B699B0C02333B61FB68002B06D13B69D7
:1014F0003B4A02FB03F27B681A6017E0364B5B68DD
:1015000003F40033002B06D03B69354A02FB03F29B
:101510007B681A600AE03B69304A02FB03F27B6891
:101520001A6003E07B682D4A1A6000BF2A4B5B6893
:1015300003F0F0037B617B691B097B61294A7B69AE
:1015400013441B78DBB2BB607B681A68BB68DA4067
:101550007B685A60204B5B6803F4E0637B617B69C6
:101560001B0A7B611F4A7B6913441B78DBB2BB609B
:101570007B685A68BB68DA407B689A60164B5B6888
:1015800003F460537B617B69DB0A7B61154A7B69ED
:1015900013441B78DBB2BB607B685A68BB68DA40D7
:1015A0007B68DA600C4B5B6803F440437B617B69CA
:1015B0009B0B7B610C4A7B6913441B78DBB2BB60DD
:1015C0007B68DA68BB68B2FBF3F27B681A6100BF24
:1015D0001C37BD4680BC70470010024000127A00E4
:1015E00000093D00140000202400002080B483B0D6
:1015F00000AF78600B46FB70FB78002B06D00949E2
:10160000084B9A697B6813438B6106E00549054BDB
:101610009A697B68DB4313408B6100BF0C37BD4682
:1016200080BC70470010024080B483B000AF786087
:101630000B46FB70FB78002B06D00949084BDA6992
:101640007B681343CB6106E00549054BDA697B688B
:10165000DB431340CB6100BF0C37BD4680BC7047F5
:101660000010024080B483B000AF78600B46FB707E
:10167000FB78002B06D00949084B1A697B68134395
:101680000B6106E00549054B1A697B68DB43134093
:101690000B6100BF0C37BD4680BC70470010024094
:1016A00080B586B000AFF860B96011461A460B46A7
:1016B000FB8013467B71FB68FA881A80FB68BA6866
:1016C0005A6001210420FFF791FF01210820FFF754
:1016D0008DFF01211020FFF789FF01212020FFF756
:1016E00085FFFB687A791A7207F114031846FFF731
:1016F00063FCFB681B88BB82FB681B7AFB750323BA
:10170000BB75FB685B6807F1140211461846FFF7CA
:1017100097FB00BF1837BD4680BD00BF80B582B0C3
:1017200000AF78607B685A687B681B881946104652
:10173000FFF756FC03469BB218460837BD4680BDEE
:1017400080B584B000AF786039607B681B689B8887
:101750005B089BB2323BFB81FA893B689A4201DA13
:10176000FB893B60FB895A423B689A4202DDFB8958
:101770005B423B607B6818687B681B689B885B08E2
:101780009AB23B689BB2D31A9BB21946FEF7D2FDC0
:101790007B6858687B685B689B885B089AB23B688B
:1017A0009BB213449BB21946FEF7C4FD00BF10372D
:1017B000BD4680BD80B58CB000AF78603960002335
:1017C000FB620023BB6200237B6200233B62002399
:1017D000FB617B68FB617B681B8A9BB2FB62FA6AD8
:1017E0004CF6FF731340FB623B68DB881A46FB6ACA
:1017F0001343FB62FB6A9AB27B681A827B689B89FF
:101800009BB2FB62FA6A4EF6F3131340FB623B682D
:101810009A883B681B8913439AB23B685B891343E0
:101820009BB21A46FB6A1343FB62FB6A9AB27B685F
:101830009A817B689B8A9BB2FB62FA6A4FF6FF43F0
:101840001340FB623B689B891A46FB6A1343FB62A9
:10185000FB6A9AB27B689A8207F108031846FFF781
:1018600015FEFB692E4A934202D17B69BB6201E0FF
:101870003B69BB627B689B899BB21BB2002B0CDA75
:10188000BA6A13469B0013449A001A443B681B68CB
:101890005B00B2FBF3F37B620BE0BA6A13469B007A
:1018A00013449A001A443B681B689B00B2FBF3F395
:1018B0007B627B6A1B4AA2FB03235B091B01FB6261
:1018C000FB6A1B09642202FB03F37A6AD31A3B62A8
:1018D0007B689B899BB21BB2002B0CDA3B6ADB0056
:1018E0003233104AA2FB03235B0903F00703FA6AB1
:1018F0001343FB620BE03B6A1B013233094AA2FB34
:1019000003235B0903F00F03FA6A1343FB62FB6ACC
:101910009AB27B681A8100BF3037BD4680BD00BFD8
:10192000003801401F85EB5180B483B000AF786070
:101930007B684FF416521A607B6800229A807B689D
:101940000022DA807B6800221A817B680C225A818F
:101950007B6800229A8100BF0C37BD4680BC70476F
:1019600080B483B000AF78600B46FB70FB78002B2F
:1019700008D07B689B899BB243F400539AB27B6882
:101980009A8107E07B689B899BB223F400539AB24B
:101990007B689A8100BF0C37BD4680BC704700BF92
:1019A00080B487B000AF78600B467B8013467B70B5
:1019B00000233B610023FB600023BB6000237B61AD
:1019C0007B687B617B88DBB25B09DBB23B617B8838
:1019D00003F01F03FB600122FB6802FA03F3BB6004
:1019E0003B69012B03D17B690C337B6109E03B69C7
:1019F000022B03D17B6910337B6102E07B691433D6
:101A00007B617B78002B06D07B697A691168BA68A4
:101A10000A431A6006E07B697A691168BA68D243A2
:101A20000A401A6000BF1C37BD4680BC704700BF2B
:101A300080B483B000AF78600B467B807B88C3F3B3
:101A400008039AB27B689A8000BF0C37BD4680BC01
:101A5000704700BF80B483B000AF78607B689B881C
:101A60009BB2C3F308039BB218460C37BD4680BC3B
:101A7000704700BF80B487B000AF78600B467B80B2
:101A80000023FB6000237B610023BB600023FB7409
:101A90007B88DBB25B09DBB2BB607B8803F01F0392
:101AA0007B6101227B6902FA03F37B61BB68012B36
:101AB00007D17B689B899BB21A467B6913407B6187
:101AC00011E0BB68022B07D17B681B8A9BB21A46C8
:101AD0007B6913407B6106E07B689B8A9BB21A4658
:101AE0007B6913407B617B881B0A9BB2FB600122F0
:101AF000FB6802FA03F3FB607B681B889BB21A4603
:101B0000FB681340FB607B69002B05D0FB68002B52
:101B100002D00123FB7401E00023FB74FB7C184618
:101B20001C37BD4680BC704780B485B000AF78607C
:101B30000A4B1B68002B02D1084B094A1A60074B5D
:101B40001B68FB60054B1A687B681344034A1360EB
:101B5000FB6818461437BD4680BC70476C0B0020EC
:101B6000A00D002080B400AFFEE700BF80B487B0B6
:101B700000AF786000237B6100233B610F23FB6093
:101B80007B68DB78002B3AD0274BDB68DB4303F420
:101B9000E0631B0A7B617B69C3F104033B61FA6864
:101BA0007B6922FA03F3FB607B685B781A463B692A
:101BB00002FA03F37B617B689B781A46FB6813404B
:101BC0007A6913437B617B691B017B61174A7B68E0
:101BD0001B787969C9B213440A4683F80023134A73
:101BE0007B681B785B09DBB218467B681B7803F0C7
:101BF0001F03012101FA03F342F820300FE00B49E3
:101C00007B681B785B09DBB218467B681B7803F0A6
:101C10001F0301229A4000F1200341F8232000BF56
:101C20001C37BD4680BC704700ED00E000E100E0DD
:101C300080B485B000AF78600B46FB700023FB7367
:101C40000023BB8100237B8100233B81FB7803F0D1
:101C50000F03012202FA03F3BB81FB781B09DBB2FD
:101C60007B817B89012202FA03F37B817B689B885D
:101C70009AB27B8913403B817B681B899AB2BB89EE
:101C800013409BB2002B05D03B89002B02D00123CF
:101C9000FB7301E00023FB73FB7B18461437BD4642
:101CA00080BC704780B485B000AF78600B46FB7095
:101CB0000023FB81FB7803F00F03012202FA03F3F8
:101CC000FB81FB89DB439AB27B681A8100BF143722
:101CD000BD4680BC704700BF80B584B000AF78605F
:101CE00039600023FB60FB683A6813441B78002BC3
:101CF0000BD0FB683A6813441B781946786800F0EB
:101D000089F8FB680133FB60EDE700BF1037BD4683
:101D100080BD00BF0EB480B5A5B000AF786007F1FC
:101D2000A003C7F88C3007F10C03D7F88C20D7F844
:101D30009C10184601F04EFD07F10C031946786817
:101D4000FFF7CAFF00BF9437BD46BDE8804003B02F
:101D5000704700BF80B586B002AFF860B9607A60A6
:101D60003B60FB68BA681A603A8B3B8C0093FB6956
:101D70003968F86800F00CF9FB681B68224A934246
:101D800011D1786800F01EF940F2255000F098F962
:101D900040F2277000F094F9012240F227711A48AE
:101DA000FFF7FEFD2CE0FB681B68184A934211D137
:101DB000786800F031F940F2255000F09DF940F2CA
:101DC000277000F099F9012240F227710F48FFF7C0
:101DD000E7FD15E0FB681B680D4A934210D1786857
:101DE00000F044F940F2255000F0A2F940F22770CB
:101DF00000F09EF9012240F227710548FFF7D0FD5F
:101E000000BF1037BD4680BD00380140004400408F
:101E10000048004080B582B000AF78600B46FB7090
:101E20007B681B684E4A93422ED1012240F22771F3
:101E30004B48FFF7B5FD4B4B1B881A464A4B1B8896
:101E400001339A420CD1474B1B8801339AB2454B60
:101E50001A80444B1B887F2B02D9424B00221A80E8
:101E6000414B1B881946414AFB7853543E4B1B8813
:101E700001339AB23C4B1A803B4B1B887F2B6AD9AB
:101E8000394B00221A8066E07B681B68384A93420F
:101E90002ED1012240F227713548FFF781FD354BE5
:101EA0001B881A46344B1B8801339A420CD1314BA4
:101EB0001B8801339AB22F4B1A802E4B1B887F2B25
:101EC00002D92C4B00221A802B4B1B8819462B4A17
:101ED000FB785354284B1B8801339AB2264B1A8047
:101EE000254B1B887F2B36D9234B00221A8032E0EA
:101EF0007B681B68224A93422DD1012240F2277150
:101F00001F48FFF74DFD1F4B1B881A461E4B1B88B1
:101F100001339A420CD11B4B1B8801339AB2194BE7
:101F20001A80184B1B887F2B02D9164B00221A806F
:101F3000154B1B881946154AFB785354124B1B88C6
:101F400001339AB2104B1A800F4B1B887F2B02D99A
:101F50000D4B00221A8000BF0837BD4680BD00BF70
:101F6000003801405C0C00205E0C0020DC0B0020DF
:101F700000440040E00C0020E20C0020600C002037
:101F800000480040640D0020660D0020E40C002095
:101F900080B58AB000AFF860B9603B601346FB8043
:101FA000FA8807F11C001823B968FFF779FB3A8E0D
:101FB00007F1100048233968FFF772FB00BF28378C
:101FC000BD4680BD80B586B000AF786001214FF47A
:101FD0008040FFF70BFB07F108031846FFF7A4FC4E
:101FE0007B68BB600C237B8200233B824FF4005351
:101FF000FB810023BB8107F1080319460548FFF761
:10200000D9FB01210348FFF7ABFC00BF1837BD46E1
:1020100080BD00BF0038014080B586B000AF786059
:1020200001214FF40030FFF7FFFA07F108031846CB
:10203000FFF77AFC7B68BB600C237B8200233B822A
:102040004FF40053FB810023BB8107F108031946BD
:102050000548FFF7AFFB01210348FFF781FC00BFF4
:102060001837BD4680BD00BF0044004080B586B033
:1020700000AF786001214FF48020FFF7D5FA07F117
:1020800008031846FFF750FC7B68BB600C237B827B
:1020900000233B824FF40053FB810023BB8107F1F7
:1020A000080319460548FFF785FB01210348FFF7A0
:1020B00057FC00BF1837BD4680BD00BF0048004038
:1020C00080B584B000AF0346FB8025233B7300231B
:1020D000BB730123FB7307F10C031846FFF746FDA2
:1020E000FB88012219460348FFF75AFC00BF10374E
:1020F000BD4680BD0038014080B584B000AF0346C6
:10210000FB8026233B730023BB730123FB7307F182
:102110000C031846FFF72AFDFB88012219460348E5
:10212000FFF73EFC00BF1037BD4680BD00440040B5
:1021300080B584B000AF0346FB8027233B730023A8
:10214000BB730123FB7307F10C031846FFF70EFD69
:10215000FB88012219460348FFF722FC00BF103715
:10216000BD4680BD0048004090B583B000AF40F24E
:1021700025513148FFF77EFC0346012B0CBF01239C
:102180000023DBB2002B22D02B48FFF763FC034671
:10219000FB71FB799BB219462748FFF749FC274B97
:1021A0001B881C462448FFF755FC0346DAB2244B33
:1021B0001A55224B1B8801339AB2204B1A801F4BB1
:1021C0001B881F2B34D91D4B00221A8030E040F2AF
:1021D00027711948FFF74EFC0346002B14BF01235B
:1021E0000023DBB2002B23D0164B1A88164B1B881A
:1021F0009A4217D0144B1B881A46144B9B5C9BB217
:1022000019460D48FFF714FC0F4B1B8801339AB297
:102210000D4B1A800C4B1B887F2B09D90A4B0022CF
:102220001A8005E0002240F227710348FFF7B8FB4F
:1022300000BF0C37BD4690BD00380140280000208B
:10224000700B00205E0C00205C0C0020DC0B0020DA
:1022500090B583B000AF40F225513148FFF70AFC3A
:102260000346012B0CBF01230023DBB2002B22D03D
:102270002B48FFF7EFFB0346FB71FB799BB2194636
:102280002748FFF7D5FB274B1B881C462448FFF740
:10229000E1FB0346DAB2244B1A55224B1B8801336B
:1022A0009AB2204B1A801F4B1B881F2B34D91D4B11
:1022B00000221A8030E040F227711948FFF7DAFB5C
:1022C0000346002B14BF01230023DBB2002B23D0D5
:1022D000164B1A88164B1B889A4217D0144B1B8832
:1022E0001A46144B9B5C9BB219460D48FFF7A0FBA6
:1022F0000F4B1B8801339AB20D4B1A800C4B1B8875
:102300007F2B09D90A4B00221A8005E0002240F2F7
:1023100027710348FFF744FB00BF0C37BD4690BD53
:10232000004400402A000020940B0020E20C002012
:10233000E00C0020600C002090B583B000AF40F2AC
:1023400025513148FFF796FB0346012B0CBF0123B3
:102350000023DBB2002B22D02B48FFF77BFB034688
:10236000FB71FB799BB219462748FFF761FB274BAE
:102370001B881C462448FFF76DFB0346DAB2244B4A
:102380001A55224B1B8801339AB2204B1A801F4BDF
:102390001B881F2B34D91D4B00221A8030E040F2DD
:1023A00027711948FFF766FB0346002B14BF012372
:1023B0000023DBB2002B23D0164B1A88164B1B8848
:1023C0009A4217D0144B1B881A46144B9B5C9BB245
:1023D00019460D48FFF72CFB0F4B1B8801339AB2AF
:1023E0000D4B1A800C4B1B887F2B09D90A4B0022FE
:1023F0001A8005E0002240F227710348FFF7D0FA67
:1024000000BF0C37BD4690BD004800402C000020A6
:10241000B80B0020660D0020640D0020E40C0020A5
:1024200080B483B000AF0346FB80044AFB8813608E
:1024300000BF0C37BD4680BC704700BF0030004075
:1024400080B483B000AF0346FB71044AFB7953604C
:1024500000BF0C37BD4680BC704700BF0030004055
:1024600080B483B000AF0346FB80044AFB889360CE
:1024700000BF0C37BD4680BC704700BF0030004035
:1024800080B400AF034B4AF6AA221A6000BFBD46D3
:1024900080BC70470030004080B400AF034B4CF666
:1024A000CC421A6000BFBD4680BC7047003000407F
:1024B00053B94AB9002908BF00281CBF4FF0FF31AB
:1024C0004FF0FF3001F0F4B8ADF1080C6DE904CE27
:1024D00000F006F8DDF804E0DDE9022304B07047FF
:1024E0002DE9F04F8C460C460546099E002B4FD136
:1024F0008A4217466BD9B2FA82FEBEF1000F0BD0AA
:10250000CEF1200520FA05F501FA0EF345EA030C99
:1025100002FA0EF700FA0EF5390CBCFBF1F0BAB274
:1025200001FB10C300FB02F84FEA154C4CEA0344D0
:10253000A04509D9E41900F1FF3380F02881A045B6
:1025400040F2258102383C44C8EB0404B4FBF1F3AB
:1025500001FB134C03FB02F2ACB244EA0C418A4289
:1025600009D9C91903F1FF3480F00F818A4240F282
:102570000C81023B39448A1A43EA00400021002EB4
:1025800063D022FA0EF2002386E80C00BDE8F08F3B
:102590008B4207D9002E56D0002186E8110008464C
:1025A000BDE8F08FB3FA83F1002940F09380A34295
:1025B00002D3824200F2FE80851A64EB03039C463C
:1025C0000120002E41D086E82010BDE8F08F12B91E
:1025D0000127B7FBF2F7B7FA87FEBEF1000F36D13D
:1025E000E41B4FEA17481FFA87F90121B4FBF8F3FF
:1025F00008FB134409FB03F24FEA154C4CEA044470
:10260000A24207D9E41903F1FF3002D2A24200F23C
:10261000D3800346A41AB4FBF8F008FB104809FB6A
:1026200000F9ACB244EA0842914507D9D21900F149
:10263000FF3402D2914500F2BA802046C9EB020273
:1026400040EA03409BE731463046BDE8F08F07FA89
:102650000EF7CEF1200C24FA0CF34FEA1748B3FB27
:10266000F8FA1FFA87F908FB1A3520FA0CFC04FA6D
:102670000EF40AFB09FB4CEA040C4FEA1C4242EA46
:1026800005439B4500FA0EF50AD9DB190AF1FF3222
:1026900080F08B809B4540F28880AAF1020A3B447F
:1026A000CBEB0303B3FBF8F008FB103300FB09F49A
:1026B0001FFA8CFC4CEA03439C4207D9DB1900F15A
:1026C000FF326ED29C426CD902383B441C1B40EA5C
:1026D0000A418BE7C1F1200E8B4022FA0EFC4CEA36
:1026E000030C24FA0EF74FEA1C49B7FBF9FA1FFA5C
:1026F0008CF309FB1A7720FA0EF88C400AFB03F5DD
:1027000048EA04044FEA144848EA0747BD4202FA7F
:1027100001F200FA01FB09D917EB0C070AF1FF30AF
:1027200041D2BD423FD9AAF1020A67447F1BB7FBE1
:10273000F9F509FB157705FB03F3A4B244EA074753
:10274000BB4208D917EB0C0705F1FF3027D2BB427B
:1027500025D9023D674445EA0A40A0FB0289FF1AD9
:102760004F4545464C4614D329D066B3BBEB050311
:1027700067EB040707FA0EFECB40CF404EEA030397
:1027800086E888000021BDE8F08F2346F3E618466E
:10279000DAE6B8EB020569EB0C040138E5E705461B
:1027A000D9E7104692E78246C0E7924678E70238BA
:1027B0003A4443E7084604E7023B3C442AE7C34562
:1027C000E7D33C46D1E73146BDE8F08F03685A00B5
:1027D0004CBF43F0004323F000431844704700BF50
:1027E00061B32DE9F84F01F1FF3A90460646D14614
:1027F000002707EB090404EBD4746410E500711999
:102800000846FFF7E3FFA245834605F10800304480
:1028100009D0FFF7DBFFC34500F1FF3005D8404585
:1028200009D2671CE5E7C34505D9A74202D004F1E8
:10283000FF39DEE700210846BDE8F88F08467047FB
:10284000012807D0022807D0044B00280CBF1846E7
:10285000002070470248704702487047552F000813
:10286000592F00085D2F000830B5254B83B0044672
:102870008D1E7BB301A92846AFF3008020B30199D8
:102880002A46FFF7ADFF0146F0B1FFF79FFF4B6807
:10289000A064012B12D0002B01F1040021DBFFF713
:1028A00095FF0023E06423650368002B1DDBFFF721
:1028B0008DFF00232061184603B030BD0023236143
:1028C0000523184603B030BD0023236109231846B1
:1028D00003B030BD0B490C4B0846591AC910019181
:1028E000CEE70123E0642365DEE7C3F30360FFF76F
:1028F000A7FF0028206114BF00230923DBE700BFE6
:10290000000000003882000808840008036810B541
:10291000DA07044606D49B0700F1480009D500F009
:102920005BFC2368590709D51A070ED5DB0613D5BA
:1029300010BD00F049FC23685907F5D404F1D0001C
:1029400000F052FC23681A07F0D404F5A87000F0D8
:1029500053FC2368DB06EBD404F5E870BDE81040B7
:1029600000F08EBC03680BB11844704718467047DE
:1029700009207047704700BF70B504460D4608E057
:102980002A6C2369626121462A460120984708285B
:1029900008D1296C2046FFF767FF06460028EFD0D4
:1029A000FFF7E0F80728FBD13046296CFFF7E2FF7C
:1029B000281D00F0FDFB00BF2DE9F0470646ADF5F0
:1029C000727D03AD0C1D17460FCC0FC50FCC0FC584
:1029D0000FCC0FC594E80F0002ACD6F80C80D6F8E7
:1029E000189085E80F0000233046216C2360FFF724
:1029F0003BFF0546002F14BF0A2709277DB1A36BB3
:102A000047F010018DE8100232466364012033461E
:102A1000C04778BB28460DF5727DBDE8F087236C72
:102A20004FF4F072736121467AA800F043FE3369D7
:102A30007AAA314638469847889B82468DE810022C
:102A400039466364324633460120C04790B94FF49B
:102A5000F0727AA9204600F02DFEBAF1080F06D1D7
:102A6000216C3046FFF700FF09270546C6E7BAF19B
:102A7000070F04D009200DF5727DBDE8F0872846C8
:102A8000216CFFF777FF03A800F092FB406C7047C2
:102A9000F0B5CB6BF9B00B640E1D01AD0F460446CB
:102AA0000FCE0FC50FCE0FC50FCE0FC596E80F0086
:102AB0004FF0FF3685E80F00009606E023696A466E
:102AC000214698470828054608D110992046FFF767
:102AD000CBFE0028F2D0092079B0F0BD6846FFF7A0
:102AE00015FF062DF7D139462046FFF745FF00BFF9
:102AF00030B4DD6BC160826119461D64002230BCB8
:102B00005AE700BF70B54369C6680B6426B101225D
:102B1000FFF752FFFFF726F803690A4604460D4601
:102B2000014602209847072807D0082803D12946E4
:102B30002046FFF721FFFFF715F83046296CFFF715
:102B400019FF281D00F034FBC2682AB110B4CC6B09
:102B500000220C6410BC2FE79AE700BF704700BF4B
:102B6000836813B1014601201847704700B5042956
:102B700007D8DFE801F00309060909000BB90F2A9D
:102B800005D902205DF804FB01205DF804FB00EB91
:102B9000820252681846019B1A605DF804FB00BF70
:102BA00010B584B0002303AC0A4600941946FFF721
:102BB000DDFF039804B010BD00B5042907D8DFE895
:102BC00001F00309060909000BB90F2A05D90220F3
:102BD0005DF804FB01205DF804FB019900EB820223
:102BE0000968184651605DF804FB00BF10B584B059
:102BF00004AC44F8042D00230A4600941946FFF75C
:102C0000DBFF04B010BD00BFF0B5D36BADF50F7D99
:102C10001364151D17AC07460E460FCD0FC40FCD1C
:102C20000FC40FCD0FC495E80F004FF0FF3584E8B7
:102C30000F00169511E016A86A46FFF7D7FF314638
:102C400016A8B84780B9049B16AA69460820984779
:102C50000528044609D0092806D026996846FFF7BA
:102C600003FE0C210028E6D0092416A8FFF74EFE2B
:102C700020460DF50F7DF0BD2DE9F04FCC6C91464F
:102C800022688BB004340D460792089400F0030BC1
:102C90001E46002B64D11202032307928DF8256093
:102CA0008DF824302B6DBBF1020F08BFAC6B13F015
:102CB000010343D100F00800C2B2039201932768D8
:102CC000002F3DD0022E47D02788B4F8028004346C
:102CD000AB6C28F0010A0F2148469A44FFF760FFC9
:102CE000824537D827F001039A4450452CBF002075
:102CF00001204FEA480808F0020807F0010748EAF7
:102D00000708B8F1010F41D038D3B8F1020F1DD137
:102D1000236823F000420292BBF1000F79D130B159
:102D20000399002900F08180002A00F0A880002B80
:102D300079DB029B013304EB8304C0E7002301939A
:102D4000022E40DDFFF714FE002842D009200BB010
:102D5000BDE8F08F0020CCE7D4F804800834B7E752
:102D6000022B9FDC130CD9B212048DF825300223FC
:102D700004EB810407928DF8243093E7BBF1000F38
:102D800002D0002840F0B080043498E7BBF1000F77
:102D900026D1B0B194E80C00991C4FEAD272D5D07C
:102DA00005F158010133069100F09480201DFFF7D2
:102DB000D9FD06AB01462846AFF30080002840F05D
:102DC000B88008347BE707A9484600F0F3FA0028EA
:102DD000BCD1019B002B5CD108200BB0BDE8F08F6B
:102DE0000D2148462F6AFFF7DBFE8742E9D1AB6A27
:102DF0009C42E6D12046FFF7E9FC0F2102464846F7
:102E0000FFF7F4FE48462A460021FFF7EFFE0720B1
:102E10009DE70D2148462F6AFFF7C2FE874248D042
:102E20002368002B85DA043483E7029B3BB305F16A
:102E30005803271DCDF810B0DDF80C80A346DDF84F
:102E400008A01C46059602E0B245B04616D03846AA
:102E50000694FFF787FD06AB014600222846AFF334
:102E6000008008F1010604370028EDD0029B5C4683
:102E70004345DDF810B0059ED2D100E05C464846DF
:102E80000D21FFF78DFE069B2862AC626B62062067
:102E90005DE70F214846FFF783FE0E2102464846B4
:102EA000FFF7A4FE48462A4A0F21FFF79FFE07209E
:102EB0004DE7AB6A9C42B3D1042202990027A318C4
:102EC000A962EF622A636B632368BB421FDB0123A5
:102ED00001932EE748460D21FFF762FE2862069B0C
:102EE0006B62AC62062032E72046FFF76FFC0434C9
:102EF0000646AC632846AFF3008000283FF426AFB7
:102F0000484632460F21FFF771FE07201FE70846AB
:102F1000013004EB8000FFF759FC0F2102464846C0
:102F2000FFF764FE48462A463946FFF75FFE072052
:102F30000DE707460D214846FFF732FE022F2862B3
:102F4000CDD12B46069A43F82C2F6B62C9E700BF00
:102F50000000000000238FE601238DE602238BE6AC
:102F6000F0B50446C5B004290DD8DFE801F05703D9
:102F70000C310F00012B4FEA124695B266D172193F
:102F8000102A40F29F80022045B0F0BD002BFAD1FC
:102F9000102AF8D82368D80600F1C98022AE30463E
:102FA000019200F077F9A06B019A0023012505FA40
:102FB00003F1114203D00168043046F823100133B5
:102FC000042BF4D1A063304600F05AF90020DBE76F
:102FD000032BD8D1150C97B2EB19102BD3D823683B
:102FE0001E0700F1B88022AE30467F0000F026F9BF
:102FF00006EBC5027B1EA56B57B12946043A51F872
:10300000040B013B42F8040F581CF8D105EB87056F
:103010003046A56300F0F0F80020B5E7002BB2D1F0
:10302000A56B97B2201D012606FA03F1394203F180
:10303000010302D0296804350160102B00F104005F
:10304000F2D112F400503BD1A5639DE7052B9AD134
:103050007719202F97D80F2E65D92F46002D48D1EC
:103060002A460027002AA06B71DD00EBC202014650
:1030700044A800EBC6008C3851F8045B914240F83C
:10308000045FF9D1084697B13246102E44A938BFE3
:10309000102201EBC202A2F5C4727900043A00EBDF
:1030A000810150F8045B814242F8045FF9D1012BA1
:1030B00047D00F2EA16332D917B102A800F094F8BF
:1030C000002061E70F2E3FF65EAF00272268D10790
:1030D0000DD522F00101052B21600193204652D02D
:1030E00022F0030240F8482B00F072F8019B002FF9
:1030F00051D02268510736D4012B3ED00F2E06D86E
:1031000022A8019300F06CF8019B002FA8D002A820
:10311000019300F06DF8019BC6F11002A2E722A80E
:1031200000F05AF8C8E7102FCFD9103FCEE723F0B0
:103130001003236004F5E870019200F0ABF8019AE7
:103140002CE70431A16322A800F03EF8B8E7002F75
:103150009AD10146ABE723F00803236004F5A87079
:1031600000F06CF83FE7204622F0040240F8D02B34
:10317000019300F03DF8019BBEE722A8019300F007
:1031800027F8019BC8E741F0020140F8481B00F016
:1031900027F8019BABE7012B03D00F2E3FF660AF62
:1031A000AEE722A8019300F013F8019B58E700BF97
:1031B00000F1340191E838009C46A6464CF8045DC5
:1031C00090E8FF0FE54600BD90EC210B704700BF73
:1031D00080EC210B704700BF90EC200B704700BFC4
:1031E00080EC200B704700BFD0EC200B704700BF75
:1031F000C0EC200B704700BFF0EC0201F0EC0211B4
:10320000F0EC0221F0EC0231F0EC0241F0EC025162
:10321000F0EC0261F0EC0271F0EC0281F0EC029152
:10322000F0EC02A1F0EC02B1F0EC02C1F0EC02D142
:10323000F0EC02E1F0EC02F1704700BFE0EC0201BB
:10324000E0EC0211E0EC0221E0EC0231E0EC0241A2
:10325000E0EC0251E0EC0261E0EC0271E0EC028192
:10326000E0EC0291E0EC02A1E0EC02B1E0EC02C182
:10327000E0EC02D1E0EC02E1E0EC02F1704700BFCB
:10328000B0FC0181B0FC0191B0FC01A1B0FC01B126
:10329000704700BFA0FC0181A0FC0191A0FC01A12E
:1032A000A0FC01B1704700BFEC4600B52DE900500D
:1032B0002DE9FF1F4FF000032DE90C0001A9FFF7D6
:1032C000E7FBDDF840E012B0704700BFEC4600B508
:1032D0002DE900502DE9FF1F4FF000032DE90C00F0
:1032E00001A9FFF70FFCDDF840E012B0704700BF06
:1032F000EC4600B52DE900502DE9FF1F4FF000030B
:103300002DE90C0001A9FFF71FFCDDF840E012B029
:10331000704700BFEC4600B52DE900502DE9FF1FB6
:103320004FF000032DE90C0001ABFFF7E1FBDDF8E6
:1033300040E012B0704700BFEC4600B52DE90050E8
:103340002DE9FF1F4FF000032DE90C0001AAFFF744
:103350005BFCDDF840E012B0704700BF037A1BB998
:10336000437A43B9B02070475A1E036802721A02AA
:103370000260180E70474268013B10B44372136834
:103380000321141D01721A024460026010BC180E61
:10339000704700BF00B585B003AA0023009219460C
:1033A0000C22FFF7E3FB039805B05DF804FB00BFB8
:1033B000F0E700BF2DE9F04306460D4685B04FF01B
:1033C00000082846FFF7CAFFB028044600F0B48082
:1033D00020F07F0313F0FF0320D000F0F003802BD8
:1033E0007AD0902B35D0A02B48D0B02B5CD0C02BFE
:1033F00000F0898000F0F803D02B0BD100F0070219
:10340000013242F40022052301213046FFF7A8FDD6
:103410000028D6D0092005B0BDE8F0830DF10C09D5
:1034200019468700CDF800900D223046FFF79EFB2D
:10343000FFB2039B043760064CBFDF1BFF1800235D
:10344000CDF8009019460D2230460397FFF7B4FBE4
:10345000B7E700F00D030D2BDCD003AF002300F025
:103460000F02194600973046FFF780FB00230097B4
:1034700019460D223046FFF79FFBA2E7C2434FF4E7
:103480007F6302F0070243FA02F2010702EA030235
:103490004FF0000348BF42F4804219463046FFF720
:1034A0005FFD0028B6D18CE7B1284AD0B22853D0AE
:1034B000B32800F0818000F0FC03B42BAAD000F008
:1034C00007020132012342F4002219463046FFF779
:1034D00047FD00289ED174E72846FFF73FFF2402EE
:1034E0002043B0F5004F95D004010023A2B2194645
:1034F0003046FFF735FD00288CD114F4004F18BF7B
:103500004FF001085DE7C62862D0C7286CD000F0F4
:10351000F803C02B7BD0C82800F09180C9287FF425
:1035200079AF2846FFF71AFF020300F00F0002F4FC
:1035300070220130024366E7B8F1000F6ED0002020
:1035400069E72846FFF70AFF024600283FF462AF0A
:1035500010F0F003B9D05DE700230DF10C090D2246
:103560001946CDF800903046FFF700FB2846FFF7DC
:10357000F5FE02064FF002040CD5039B00F07F001D
:10358000A040034428460393FFF7E8FE030604F136
:103590000704F2D4039B00F07F0000FA04F203F565
:1035A000017400231444CDF8009019460D223046D2
:1035B0000394FFF701FB04E72846FFF7CFFE010362
:1035C00000F00F0001F47021421C01230A437CE744
:1035D0002846FFF7C3FE010300F00F0001F470213D
:1035E000421C03230A4370E72846FFF7B7FE024652
:1035F00000283FF40FAF10F0F0037FF40BAF04216D
:103600003046FFF7ADFC00287FF404AFD9E600F0A8
:103610000F020132032342F4202256E703AC434653
:103620000E22414600943046FFF7A0FA009430463F
:1036300043460F224146FFF7BFFA4046EBE62846D5
:10364000FFF78CFE00F0F00200F00F0310320133A0
:1036500043EA0232D7E600BF10B5C36C84B0032042
:103660005A688DF80C00DC7912020833084601A96B
:1036700001928DF80D400293FFF79CFE04B010BD3F
:1036800008B5FFF795FE806C08BD00BF08B5FFF7D1
:103690008FFEC36CD87903EB8000083008BD00BFF3
:1036A00008B5FEF75FFA00BF08B5FFF7F9FF00BFE6
:1036B000704700BF844641EA000313F0030349D179
:1036C000403A23D30B6803604B6843608B68836088
:1036D000CB68C3600B6903614B6943618B6983618C
:1036E000CB69C3610B6A03624B6A43628B6A836274
:1036F000CB6AC3620B6B03634B6B43638B6B83635C
:10370000CB6BC36340304031403ADBD230320BD315
:103710000B6803604B6843608B688360CB68C36051
:1037200010301031103AF3D20C3205D351F8043B6B
:1037300040F8043B043AF9D2043208D0D2071CBF47
:1037400011F8013B00F8013B01D30B880380604670
:10375000704700BF082A13D38B07B1D010F00303C2
:10376000AED0C3F10403D21ADB071CBF11F8013B32
:1037700000F8013BA4D331F8023B20F8023B9FE75D
:10378000043AD9D3013A11F8013B00F8013BF9D2D0
:103790000B7803704B7843708B788370604670476A
:1037A000F0B50D464FF6FF779BB06FF000444FF435
:1037B0000276694600950495ADF80E70ADF80C6080
:1037C0000294059400F012F8009B00221A701BB0BE
:1037D000F0BD00BF10B4044C13460A4601462068F1
:1037E00010BCFFF7DDBF00BF580400202DE9F04FEB
:1037F000C1B00C46099115460E930A9002F062FB87
:1038000003681846179303F089F9A38916901E06DA
:1038100003D52369002B01F05C8100231A46A846DA
:103820000DF1C009DFF860A4129319930B9325934F
:103830002493CDF88C901492159298F80030444659
:10384000EBB1252B02D11AE0252B03D014F8013F50
:10385000002BF9D1C8EB04058DB1249B259A0133C7
:103860002A44072BC9F80080C9F8045025922493F4
:1038700000F3328309F108090B9B2B440B93237847
:10388000002B00F0EA814FF0FF3B5D4600231A4613
:103890008DF86F3019460C930793637804F1010893
:1038A00008F10108A3F12000582800F24586DFE85E
:1038B00010F0F30343064306FC03430643064306A6
:1038C0004306430643065900040443066600D0033A
:1038D0004306EC03BC05BC05BC05BC05BC05BC052A
:1038E000BC05BC05BC054306430643064306430628
:1038F00043064306430643064306E205F704430630
:10390000F7044306430643064306420543064306BF
:103910004A05430643064306430643067405430629
:103920004306CD05430643064306430643064306C6
:1039300043064306430643061D060E06F704F70436
:10394000F70415060E0643064306A3044306A8051E
:10395000AE046D000A044306120443063504430610
:10396000430670040E9C236818460C9323460028D7
:1039700003F104030E9306DA0C9B5B420C93079B46
:1039800043F00403079398F8003089E7AB460E9A9A
:103990000027079830217823BB4514688DF87010F4
:1039A00002F104024FF000058DF871308DF86F7050
:1039B00040F00201C0F23D8620F0800141F002019A
:1039C000079154EA05010E921193AD4800F0318140
:1039D00030AE230943EA0573290904F00F020D46AE
:1039E0001C46835C06F8013D54EA0503F1D130AB77
:1039F0009B1B0D930D9B5B45B8BF5B460893002353
:103A0000139317B1089B01330893079B13F002032C
:103A10000F9302D0089B02330893079B13F0840393
:103A2000109340F018810C9B089A9D1A002D40F3CA
:103A30001281102D2599249A924F27DD1896484619
:103A40001024B946099E2F460A9D04E0103F102F0E
:103A500000F1080016DD01328A4B1031072A25914A
:103A6000249280E81800F1DD23AA3146284603F0AD
:103A700083F8002840F0F880103F102F30A82599D7
:103A8000249AE8DC3D464F468146189E01326C1868
:103A9000072A25942492C9F80070C9F8045000F34D
:103AA000D0809DF86F7009F1080977B1249B01342B
:103AB00001330DF16F010122072B2594249389E82E
:103AC000060000F3208209F108090F9B6BB1249BCB
:103AD000023401331CA90222072B2594249389E880
:103AE000060000F31C8209F10809109B802B00F0EE
:103AF0002C810D9BC3EB0B07002F33DD624A102F87
:103B0000249B0F9222DD22464FF0100B0A9D099C48
:103B100004E0103F102F09F1080916DD01331032BF
:103B2000072B2592249389E8000CF2DD23AA214675
:103B3000284603F021F8002840F09680103F102F0F
:103B40000DF1C009259A249BE8DC144601330F9A35
:103B50003C44072B2594249389E8840000F3C78113
:103B600009F10809079BDA0500F19080249B0D9963
:103B700001330C44072B2594C9F80060C9F80410E0
:103B8000249300F3E28109F10809079B590736D510
:103B90000C9B089A9D1A002D31DD102D249B394F66
:103BA00022DD22461026DDF828B0099C04E0103DF5
:103BB000102D09F1080916DD013332491032072BA7
:103BC0002592249389E84200F1DD23AA2146584634
:103BD00002F0D2FF002847D1103D102D0DF1C00991
:103BE000259A249BE8DC144601332C44072B2594AA
:103BF0002493C9F80070C9F8045000F392840B9B19
:103C00000C9A08998A42ACBF9B185B180B93002C46
:103C100040F05981002324930DF1C0090DE60027DF
:103C2000BB458DF86F70C0F20E85079B23F08003B3
:103C30000793BBF1000F00F06C84002400250027DF
:103C4000C6E623AA09990A9802F096FF60B99DF882
:103C50006F700DF1C009259C27E7259B23B10A98B9
:103C600023AA099902F088FF099B9B8913F0400F52
:103C70000B9B18BF4FF0FF33184641B0BDE8F08FE3
:103C8000A07E0008C07E00086C7E0008119B652B9A
:103C900040F39F80149815990022002304F032F815
:103CA000002800F06381249BAE49013301340122D6
:103CB000072B2594249389E8060000F3538409F127
:103CC00008091D9B129A934203DB079BDB077FF5D4
:103CD0005CAF249B16990133179A0C44072B25944B
:103CE000C9F80020C9F80410249300F3E58609F10F
:103CF0000809129B5D1E002D7FF747AF9A4A102DD1
:103D0000249B0F9240F3178110260A9FDDF824B000
:103D100005E009F10809103D102D40F30C81013335
:103D20001034072B25942493C9F800A0C9F8046027
:103D3000EFDD23AA5946384602F01EFF002893D132
:103D40000DF1C009259C249BE5E70C9B089A9F1A5E
:103D5000002F7FF7CEAE844A102F249B0F922BDDCD
:103D60004A462146B946102537460A9C099E06E078
:103D7000A9F11009B9F1100F02F1080218DD0133A1
:103D80001031072B25912493C2F800A05560EFDD78
:103D900023AA3146204602F0EFFE00287FF464AFEC
:103DA000A9F11009B9F1100F30AA2599249BE6DC7E
:103DB0003E460C464F46914601330F9A3C44072B32
:103DC0002594249389E8840000F32B8509F10809E0
:103DD0008FE6129B249D012B04F1010405F10105DE
:103DE00040F3E8840123072D2594C9F80060249549
:103DF000C9F8043000F3F98409F10809169A01356D
:103E0000179B1444072D25942495C9F80030C9F850
:103E1000042000F3F88409F1080900231498159987
:103E2000002203F06FFF129B002800F0EA805E1E64
:103E3000002E40F3F5804C4B102E0F932CDDCDF867
:103E400034801027B046DDF828B0099E06E0A8F1BE
:103E50001008B8F1100F09F108091ADD0135103406
:103E6000072D25942495C9F800A0C9F80470EEDD4B
:103E700023AA3146584602F07FFE00287FF4F4AEB4
:103E8000A8F11008B8F1100F0DF1C009259C249D70
:103E9000E4DC4646DDF8348001350F9B3444072DC1
:103EA0002594249589E8480040F3B88023AA09990D
:103EB0000A9802F061FE00287FF4D6AE259C249D6E
:103EC0000DF1C009ACE023AA09990A9802F054FE4A
:103ED00000283FF49FAEC7E623AA09990A9802F08A
:103EE0004BFE00287FF4C0AE0DF1C009C4E423AA44
:103EF00009990A9802F040FE00287FF4B5AE0DF152
:103F0000C009259C2EE623AA09990A9802F034FEDE
:103F100000287FF4A9AE0DF1C009259CD5E523AAA0
:103F200009990A9802F028FE00287FF49DAE0DF151
:103F3000C009259CD9E501330F9A2C44072B259401
:103F4000249389E824007FF71EAE23AA09990A98D2
:103F500002F012FE00287FF487AE259C0DF1C00907
:103F600013E600BFBC7E00086C7E00081D9D002D7E
:103F700040F30E83139B129A9342A8BF1346002B63
:103F80001D460DDD249B2C440133072B2594C9F8D5
:103F90000060C9F80450249300F31A8609F1080957
:103FA000139B002DA8BF5B1B002B1D4640F3A08375
:103FB000B94A102D249B0F9240F3448522461027C6
:103FC000DDF828B0099C05E009F10809103D102D25
:103FD00040F3378501331032072B25922493C9F81B
:103FE00000A0C9F80470EFDD23AA2146584602F06C
:103FF000C3FD00287FF438AE0DF1C009259A249B3B
:10400000E4E7013B013501361C44072DC9F8006087
:1040100024952594C9F804303FF748AF09F1080901
:10402000199A013514441FAB072D25942495C9F81E
:104030000420C9F800307FF7A6AD23AA09990A9891
:1040400002F09AFD00287FF40FAE0DF1C009259C07
:104050009BE598F8003008F101042A2B00F02E8728
:10406000A3F13000092898BF002500F2B28614F8A9
:10407000013B05EB850500EB4505A3F13000092860
:10408000F5D945EAE575A0460CE4079B43F08003AB
:10409000079398F8003003E498F8003000297FF483
:1040A000FFAB01222021FFF7FBBB079B43F001037D
:1040B000079398F80030FFF7F3BB98F8003001221F
:1040C0002B21FFF7EDBB079B43F02003079398F8E4
:1040D0000030FFF7E5BB0E9AAB461668002511933A
:1040E0008DF86F50141D002E00F0F885BBF1000F05
:1040F000C0F244855A462946304602F09DF9002810
:1041000000F02E86AB46831B0D9323EAE3730E94D7
:104110000893CDF84CB09DF86F7072E41193AB46E4
:10412000002A40F0F386079A12F0200300F0438142
:104130000E9C0027073424F0070303F10801BB4558
:104140000E91D3E900458DF86F70C0F2C18222F064
:104150008003079354EA050300F04881002D08BF4F
:104160000A2CC0F0488130AE204629460A2200239E
:10417000FEF79EF9303206F8012D2046294600232D
:104180000A22FEF795F904460D4654EA0503EBD1E1
:104190002DE41193AB46002A40F0B486079B3F48BC
:1041A0009D0640F15D810E9C073424F0070303F166
:1041B00008020E92D3E90045079A12F0010700F0B9
:1041C000468254EA05033FF42AAD9DF844200027B7
:1041D0008DF87120079A3023BB458DF870308DF82B
:1041E0006F7042F00203C0F2A58522F0800343F015
:1041F00002030793FFF7ECBB98F800306C2B00F03C
:104200005184079840F010000790FFF749BB1193C5
:10421000AB46002A40F07E86079A12F0200300F099
:10422000A0800E9C0027073424F0070303F1080147
:10423000BB450E91D3E900458DF86F700BDB22F082
:104240008003079354EA050306D1BBF1000F00F089
:10425000B18500240025002730AEE20842EA45720D
:10426000E90804F007030D461446303354EA05020A
:1042700006F8013DF1D1079AD1077FF5B8AB302B95
:104280003FF4B5AB3022731E06F8012C30AAD21AC7
:104290000D921E46FFF7AEBB6C7E0008A07E0008A4
:1042A0001193AB46002A40F02186079B0E9C1A070B
:1042B00004F1070440F16C8324F0070303F10802C2
:1042C0000E921A685B6814921593159B149D23F047
:1042D0000044284621464FF0FF32A94B03F044FD2D
:1042E000002840F0CD82284621464FF0FF32A44BF3
:1042F00003F01CFD002840F0C38214981599002299
:10430000002303F009FD002840F00E859DF86F7032
:1043100007999C4E21F080019B4B07911199032234
:104320004FF0000B08924729D8BF1E460D92CDF8DA
:104330004CB0FFF766BB079B43F00803079398F860
:104340000030FFF7ADBA1193AB46002A40F0D68596
:10435000079B43F010030793079A12F020037FF4A2
:1043600060AF079911F0100200F068820E98BBF15F
:10437000000F024604688DF86F3002F104024FF01E
:104380000005C0F2DD8421F08001079154EA0501A7
:104390000E923FF45AAF1F465EE71193AB46002AD8
:1043A00040F0A885079B43F010030793079A12F08B
:1043B00020037FF4BDAE079911F0100200F02583B1
:1043C0000E98BBF1000F024604688DF86F3002F1C1
:1043D00004024FF00005C0F2A48421F0800107918F
:1043E00054EA05010E921F467FF4B8AEBBF1000FF0
:1043F00000F09080002440AE303406F8414DFFF7C5
:10440000F6BA002A40F09E85079B9B0640F1CA82BF
:104410000E9A134604330E930B9B1168DD171A4650
:104420002B46C1E90023FFF708BAA3F130000023AF
:104430001C4618F8013B04EB840400EB4404A3F190
:1044400030000928F5D90C94FFF72CBA1193AB462C
:10445000002A40F07385079B4C489D063FF5A3AEAC
:10446000079BDC0640F1B5820E9A00251346043303
:1044700014680E93A0E61193AB46002A40F05A85CB
:10448000079B43F010030793079B980640F1F180C8
:104490000E9C073424F00704D4E9002304F108013A
:1044A0001D4614460E91002A73F10003C0F2F280FB
:1044B000BBF1000F9DF86F70C0F20A81079B23F0DB
:1044C0008003079354EA05037FF448AE8EE7119307
:1044D000AB46002AD8D08DF86F10D5E7079B43F084
:1044E0004003079398F80030FFF7DAB90E9911935B
:1044F0000A68002301201F468DF86F309B461393F6
:104500000B1D08908DF898200E930D9026AEFFF7A6
:104510007CBA5F464FF0000BCDF834B030AEFFF7F9
:1045200069BA23AA09990A9802F026FB00287FF4A9
:104530009BAB259CFFF763BB1193002A40F0F684E8
:10454000119A002A3FF489AB002301211F460891EC
:104550008DF898208DF86F309B4613930D9126AE01
:10456000FFF753BA23AA09990A9802F005FB00281D
:104570007FF47AAB0DF1C009259CFFF7A2BB00BF09
:10458000FFFFEF7F807E00087C7E00088C7E0008A5
:10459000249BB849013301340122072B259424932D
:1045A00089E8060000F3C18209F108092DB9129BC0
:1045B0001BB9079BDF077FF5E8AA249B16990133F7
:1045C000179A0C44072B2594C9F80020C9F8041049
:1045D000249300F3028409F108096D42002D40F391
:1045E000E082A54A102D0F9240F300832246102747
:1045F000DDF828B0099C05E009F10809103D102DEF
:1046000040F3F38201331032072B25922493C9F82B
:1046100000A0C9F80470EFDD23AA2146584602F035
:10462000ABFA00287FF420AB0DF1C009259A249B3A
:10463000E4E792480791119354EA05030E924FF074
:1046400000077FF4C5A900240025FFF7C1B9BBF11D
:10465000000F8DF86F70C0F2028222F08003079382
:1046600054EA05037FF4B4A9BBF1000F7FF4E5AA77
:104670004FE7079BD90640F1B9810E9A13461C6893
:104680000433E51722460E932B46002A73F10003EC
:10469000BFF60EAF64424FF02D0765EB4505BBF149
:1046A000000F8DF86F70FFF659AD079B23F0800364
:1046B000079353E50E9ABBF1000F134614688DF86B
:1046C0006F7003F104034FF0000580F2CA810E936E
:1046D00054EA05037FF442AD8DE623AA09990A98AE
:1046E00002F04AFA00287FF4BFAA259C0DF1C00908
:1046F000139A1D9B32441746129A934249DB079A3C
:10470000D50746D412990E44F51BCB1A9D42A8BF7B
:104710001D46002D2E460DDD249A2C440132072A19
:104720002594C9F80070C9F80450249200F3C78298
:1047300009F10809002EB4BF1D469D1B002D7FF70F
:1047400024AA4D4A102D249B0F927FF7F4AB10261C
:104750000A9FDDF824B005E009F10809103D102D8D
:104760007FF7E9AB01331034072B25942493C9F864
:1047700000A0C9F80460EFDD23AA5946384602F0CC
:10478000FBF900287FF470AA0DF1C009259C249B39
:10479000E4E7249A1698013217990444072A2594CD
:1047A000C9F80010C9F80400249200F37B8209F1D3
:1047B0000809A7E7079BD8073FF514AB0123072D8E
:1047C0002594C9F800602495C9F804307FF726AC19
:1047D00023AA09990A9802F0CFF900287FF444AA85
:1047E0000DF1C009259C249D1AE423AA09990A9871
:1047F00002F0C2F900287FF437AA0DF1C009259C08
:10480000249DFFF7FBBA23AA09990A9802F0B4F98C
:1048100000287FF429AA0DF1C009259C249DFFF7EB
:10482000FCBA23AA09990A9802F0A6F900287FF495
:104830001BAA0DF1C009259CFFF75BB9079911F080
:10484000400700F018810E98BBF1000F03468DF869
:104850006F2003F1040304884FF00005C0F2728159
:1048600021F08001079154EA05010E933FF4EDAC6D
:104870001746F1E4BC7E00086C7E0008A07E0008AC
:10488000149C22462046159C2346214603F06CFAD0
:10489000002840F0C482119BBBF1FF3F23F02003AE
:1048A0000D9300F04A82472B00F04F81079B43F4A1
:1048B00080731093159B1F1E149B0893B7BF3B4634
:1048C000002303F100472D230F93119B662B00F06B
:1048D0001482462B00F00C810D9B21A8452B18BF9C
:1048E0005D461EA908BF0BF10105049003911DA8A8
:1048F00002213B460290089A019500910A9800F027
:10490000BBFB119B0646672B40F03682079BDA07FC
:1049100040F172827419089839460022002303F08E
:10492000F1F9002840F05281219B9C4206D93021A8
:104930005A1C21921970219B9C42F9D89B1B1293FF
:104940000D9B472B00F03B81119B652B40F323828D
:10495000119B662B1D9B139300F01F82139A1299D3
:104960008A42C0F2F081079BD90700F1478222EA10
:10497000E2730D92672211920F9A002A40F0F480A0
:104980000893109B934607939DF86F70FFF739B813
:1049900024F00704236814936368159304F1080353
:1049A0000E9392E4079BDF060BD4079B5E0608D5A7
:1049B0000E9A136804320E92BDF82C201A80FEF76E
:1049C0003CBF0E9A136804320E920B9A1A60FEF7DF
:1049D00034BF079B0E9A13F0400F134600F0BE80C1
:1049E0000433148800250E93FFF7E6BB079B0E9A4D
:1049F00013F0400F13463FF442AEB2F900400433C7
:104A0000E5170E9322462B464DE5079911F0400716
:104A10003FF450AE0E98BBF1000F03468DF86F20A7
:104A200003F1040304884FF00005C0F2948021F0E4
:104A30008001079154EA05010E9317467FF48EAB6F
:104A4000D4E4144601330F9A2C44072B2594249365
:104A500089E824003FF741AE09F1080948E60E9ABB
:104A6000EAE5079A0E9322F08002079254EA0502C3
:104A70007FF474ABBAE40E9ABBF1000F13461468CE
:104A80008DF86F7003F104034FF000055ADB079AAD
:104A90000E9322F08002079254EA05027FF4DCAB09
:104AA000FFF7D3BB079B08F1010843F020030793EE
:104AB00098F80030FEF7F4BE23AA09990A9802F08C
:104AC0005BF800287FF4D0A80DF1C009259CFFF702
:104AD00010B940210A9801F003FA099A1060106198
:104AE000002800F0F981099A40235361FEF795BE32
:104AF00021A81EA9049003911DA803210290089AE1
:104B00003B46CDF804B000910A9800F0B5FA5D4636
:104B10000646119B7419462B7FF4FDAE3378302B7B
:104B200000F092811D9D2C44F5E623AA09990A986C
:104B300002F022F800287FF497A80DF1C0091D9D0E
:104B4000259C33E50E93FFF786BBBBF1000F08BF32
:104B50004FF0010BAAE60E931746B9E5043314682B
:104B600000250E93FFF728BB0893109B2D27079372
:104B70008DF86F704FF0000BFEF744BF304601F028
:104B8000CDFFAB460346FFF7BFBA23AA09990A989F
:104B900001F0F2FF00287FF467A8259C249B0DF10B
:104BA000C009129901330C44072B25942493C9F8AA
:104BB0000060C9F804107EF7E6AFFFF7C6B91D9B89
:104BC000DD1C1FDB9B451DDB1393C7E62346B5E6C3
:104BD00023AA09990A9801F0CFFF00287FF444A87E
:104BE0000DF1C009259CFFF7DBB9144601330F9A7C
:104BF0002C44072B2594249389E82400C5DC09F173
:104C00000809CEE7119A023A1192013B9DF844201F
:104C1000002B1D93B8BF5B428DF87C20B4BF2D22C2
:104C20002B22092B8DF87D2040F3F1800DF18B00B4
:104C30000446BA4A82FB0321DA17C2EBA10101EB59
:104C40008102A3EB4202303209290B4604F8012D00
:104C5000EFDC21463033DAB201F8012D884240F210
:104C600042810DF17E01234601E013F8012B9842A9
:104C700001F8012BF9D1431C1B1B0DF17E021344DB
:104C80001FAA9B1A129A1993012A13440D9340F3F9
:104C9000FA800D9B169A134400220D93139223EA77
:104CA000E37369E623AA09990A9801F065FF0028D1
:104CB0007EF4DAAF0DF1C0091D9B259C22E523AAE5
:104CC00009990A9801F058FF00287EF4CDAF1D9B8A
:104CD000129A259CD31A0DF1C0092BE55B46062BD1
:104CE00028BF06230D9323EAE373B3463746139692
:104CF0000E9408938A4EFEF784BE21A81EA9049044
:104D000003911DA803210290089A3B46CDF804B0F8
:104D100000910A9800F0B0F95D46064600EB0B04DE
:104D2000FCE60E921F46D3E42D231F468DF86F300C
:104D3000FFF7EEBA0793FEF74BBE4FF0060BB5E553
:104D40000E92FFF788BA169A129B1344139A0D938A
:104D5000002A40F39080672223EAE37311920BE666
:104D60002BEAEB73CDF834B0089383460E9413907E
:104D70009DF86F70FEF745BE119B472B7FF4CAADBF
:104D8000079BDB073FF5C5AE219B9B1B12930D9B39
:104D9000472B3FF414AF1D9B37E7002B7DDDBBF1A4
:104DA000000F5FD1079AD4075CD41A4623EAE37355
:104DB0000D92E1E5079B5F46DB0705D540AE30234A
:104DC00006F8413DFEF713BECDF834B030AEFEF725
:104DD00011BEA0460025FEF765BD23AA09990A98D1
:104DE00001F0CAFE00287EF43FAF0DF1C0091D9D01
:104DF000259C249BFFF7F1BB219B9FE5169A139BF3
:104E0000134467220D93119223EAE373B4E5303320
:104E100030228DF87F308DF87E2020AB30E7079967
:104E2000404E21F08001404B0791119903224FF031
:104E3000000B08924729D8BF1E460D92CDF84CB002
:104E40009DF86F70FEF7DDBD0898394600220023FB
:104E500002F058FF00287FF465AEC5F101051D95ED
:104E60002C4458E5139B169A9D1805EB0B030D93E4
:104E700023EAE37380E5139B0D9AC3F101031A44FF
:104E800013460D9267E7079B13F001037FF401AF10
:104E900013930D9B23EAE3736EE5BBF1000F02D180
:104EA000079BD80707D5169B5D1C05EB0B030D93DD
:104EB00023EAE37360E501230D935DE50E9898F80E
:104EC000013005680430002D0E90A046BEF6E8AC17
:104ED0004FF0FF35FEF7E4BC0A9A0C2313604FF045
:104EE000FF30FEF7CABE0DF17E03C9E68DF86F10E4
:104EF000FFF7DBB98DF86F10FFF754BA8DF86F101C
:104F0000FFF726BA8DF86F10FFF748B98DF86F10CC
:104F1000FFF709B98DF86F10FFF77EB9676666660F
:104F2000B47E0008887E0008847E00088DF86F102B
:104F3000FFF706BB8DF86F10FFF7A2BA8DF86F1060
:104F4000FFF789BA8DF86F10FFF75EBA2DE9F04FC1
:104F500003690F6983B09F4200F38980013F01F12B
:104F6000140600F1140A56F827305AF827200133A6
:104F7000B2FBF3F8BB00009306EB03095344019323
:104F8000B8F1000F3BD000231C46B446D6465CF86F
:104F900004BBDEF800501FFA8BF208FB02324FEA26
:104FA0001B4B130C08FB0B3392B2A41A1FFA83FBA2
:104FB000AAB22244CBEB154404EB224492B242EA5B
:104FC0000442E1454EF8042B4FEA24444FEA1343D0
:104FD000DDD2009B5AF803308BB9019C231F9A4500
:104FE0000CD254F8043C4BB9A4F1080302E01A684F
:104FF000043B1AB99A4507F1FF37F8D30761044615
:1050000001F072FC00282EDB00235546194608F1FA
:10501000010856F8042B2B6890B2081A120C99B2AA
:10502000C2EB1343421803EB224392B242EA03421B
:10503000B14545F8042B4FEA2341EAD25AF827201C
:105040000AEB87037AB91A1F92450BD253F8042C46
:1050500042B9083B02E01A68043B1AB99A4507F1C5
:10506000FF37F8D32761404603B0BDE8F08F00203A
:1050700003B0BDE8F08F00BF2DE9F04F016C99B08F
:10508000814692469B46259C49B1426C0123934040
:105090008B604A6001F042FA0023C9F84030BBF14E
:1050A000000FD84633DB00232360A34B1A4608EADF
:1050B0000303934214D0002200235046594602F0C5
:1050C00021FE054648B3249A01231360269B002B3A
:1050D00000F0C58099481860013819B0BDE8F08F1C
:1050E00042F20F73249A1360BAF1000F00F0A2800D
:1050F0009348269B002BF0D0C378002B00F0B180A2
:1051000000F10803269A136019B0BDE8F08F01235F
:105110002BF000482360C346C7E716AA17AB0192DD
:10512000009352465B46484601F092FC5FEA1854F1
:10513000099040F08880169D179C2C4404F232435D
:10514000202B40F38A82C3F1400304F2124008FA94
:1051500003F82AFA00F040EA080002F0F5FA012309
:10516000013CA1F1F8710F930022764B02F0AEF9E9
:105170006BA3D3E9002302F05DFB6BA3D3E900230B
:1051800002F0A6F9064620460F4602F0EDFA68A3A3
:10519000D3E9002302F04EFB02460B463046394667
:1051A00002F096F906460F4602F0F4FD0022039045
:1051B00000233046394602F0AFFD002840F0298236
:1051C000039E162E00F222825F49524601EBC60171
:1051D0005B46D1E9000102F0BDFD002800F04282EB
:1051E000731E039300230D932C1B631E049300F185
:1051F0002B8200230693039B002BC0F21C82049A8F
:105200000C9311461944002304910B93229B092B04
:1052100029D8052B40F35286043B22930025229B7C
:10522000023B032B00F22F86DFE813F02703200256
:1052300032035304424B454AC8F31300002814BFFD
:105240001846104655E7CBF3130343F07F510F95F3
:105250005046A4F2FF3441F44011169D84E73C48C7
:105260003BE7C31C4EE70021C9F844104846229191
:1052700001F02CF94FF0FF33229A07930E9301238C
:1052800008902392C9F840000A93179B002BC0F2A4
:10529000CA80039A0E2A00F3C6802B4B03EBC2038D
:1052A00018CBCDE90434239B002BC0F2FC82564678
:1052B0005F46DDE904AB304652465B46394602F0B4
:1052C000E3FB02F067FD044602F04EFA52465B46ED
:1052D00002F0B0FA02460B463046394602F0F6F8C4
:1052E000079E089F04F13005012E3D7002460B46D3
:1052F00007F101055ED00022164B02F09BFA002256
:10530000002306460F4602F0FDFC002878D1CDF8B8
:105310001890DDF81CA0DDF820B0DDE9048928E054
:1053200061436F63A787D23FB3C8608B288AC63FAB
:10533000FB799F501344D33F0000F07FBD7E0008EF
:10534000DC7E00080000F83FE07E0008D07E000808
:10535000BC7E0008000024400022C34B02F06AFA21
:105360000022002306460F4602F0CCFC002840F045
:10537000B38342464B463046394602F085FB02F085
:1053800009FD044602F0F0F942464B4602F052FA9B
:1053900002460B463046394602F098F804F13006D2
:1053A00005F8016BCBEB0506564502460B46D3D1FB
:1053B000DDF818901046194602F08AF806460F46A6
:1053C00002460B46DDE9040102F0A6FC40B9DDE926
:1053D000040132463B4602F095FC88B1E3070FD545
:1053E00015F8014C6B1E089A04E09A4200F02C84D8
:1053F00013F8014D392C03F10105F6D001341C706E
:105400000999484601F08AF80022039B2A70249AE1
:1054100001331360269B002B00F0A88308981D60C1
:1054200019B0BDE8F08F0A9A002A00F01281229A82
:10543000012A40F35A82079B0B9A5F1EBA42C0F2C0
:105440009883D71B079B002BC0F28C84069D079B7B
:10545000069A01211A440692049A48461A44049274
:1054600001F0F4F8064665B1049900290B4608DD01
:10547000A942A8BF2B46069AED1AD21ACB1A069259
:1054800004930B9B002B40F3FD820A9A002A00F044
:105490000382002F00F0008231463A46484601F070
:1054A0007DF9DDF82480014642460646484601F073
:1054B000D7F841460446484601F030F80B9BDB1B09
:1054C0000B9340F0E8810121484601F0BFF80C9BA6
:1054D0008046002B00F01B8201461A46484601F028
:1054E0005DF9229B8046012B40F3F9820027D8F812
:1054F000103008EB8303186901F05AF8C0F120005E
:10550000049A104410F01F0000F0F881C0F120034D
:10551000042B40F3CB84069BC0F11C00034406938C
:105520001346034405440493069B002B05DD2146E6
:105530001A46484601F082F90446049B002B05DD1B
:1055400041461A46484601F079F980460D9B002BEA
:1055500040F07D82079B002B40F396820A9B002B34
:1055600040F0F681DDF820A0079F554604E0214673
:10557000484600F0DDFF044641462046FFF7E6FCC2
:10558000303005F8010BCAEB0503BB424FF00A02AD
:105590004FF00003EBDB089B079A8246012AACBF61
:1055A0009B1801331D464FF0000B2146012248464F
:1055B00001F044F94146099001F096F9002840F3C2
:1055C0000E8315F8012C6B1E089904E08B4200F045
:1055D000798213F8012D392A03F10105F6D0013241
:1055E0001A704146484600F099FF002E3FF408AF7C
:1055F000BBF1000F05D0B34503D05946484600F033
:105600008DFF3146484600F089FFF9E601230D93EE
:10561000EAE5DDF80C80404602F0A6F802460B46AB
:105620003046394602F06EFB00287FF4C9AD08F120
:10563000FF330393C4E5069A039BD21A5B420B9394
:10564000002306920C93E1E55B420693002304934A
:10565000D1E50B9F069D0A9E05E7C3F120080AFAD3
:1056600008F07AE50D90BFE50000244000230A937E
:10567000039B239A13440E930133002B079340F3AB
:105680008582079C26460021172EC9F844100BD9A5
:10569000012204235B0003F11400B042114602F121
:1056A0000102F7D9C9F84410484600F00FFF0E2C4C
:1056B0000890C9F840003FF6E8AD002D3FF4E5AD95
:1056C0005746D8460399CDE91078002940F39382D4
:1056D000924B01F00F020E1103EBC203F006D3E967
:1056E000004540F14E828E4B5046D3E9082359467F
:1056F00002F0CAF982468B4606F00F064FF0030807
:1057000086B1874FF10709D5D7E9002320462946FE
:1057100002F090F804460D4608F10108761007F1F2
:105720000807EFD122462B465046594602F0ACF905
:1057300006460F460D9B43B100227A4B3046394650
:1057400002F0EAFA002840F02383404602F00CF809
:1057500032463B4602F06EF8734B002201F0B8FE71
:10576000079B0446A1F15075002B00F0E181039BDB
:105770001393079B12930A9B002B00F09882129AB6
:10578000664B002003EBC20353E90223674902F092
:105790007BF922462B4601F099FE82468B46304625
:1057A000394602F0F7FA044601F0DEFF02460B46E6
:1057B0003046394601F08AFE3034089DE4B2064690
:1057C0000F462C7002460B4650465946013502F0F2
:1057D000C1FA00284ED132463B460020514901F023
:1057E00075FE02460B465046594602F0B3FA0028B1
:1057F00040F00E83129A012A40F3B481129B089A5A
:10580000134498460FE032463B460020454901F0DC
:105810005DFE52465B4602F07FFA002840F0F882B7
:10582000454500F09F81504659460022404B02F00A
:1058300001F800223E4B82468B463046394601F045
:10584000F9FF0F46064602F0A5FA044601F08CFF68
:1058500002460B463046394601F038FE3034E4B299
:1058600005F8014B52465B4606460F4602F054FAD5
:105870000028C8D0139B0393C2E500230A93239BFF
:10588000002B40F388811E461C460E930793FAE6D0
:1058900001230A93F3E709940B9A0999484600F00B
:1058A0007DFF04460FE6079B002B3FF700AD40F05D
:1058B000D982DDE9040100221E4B01F0BBFF5246F4
:1058C0005B4602F03DFADDF81C804646002800F0F9
:1058D000F180239B089DDB4303934146484600F03B
:1058E0001DFE002E3FF48CAD8BE60F9A002A00F0CF
:1058F000418203F233430B9F069DA9E51C20069BC2
:10590000054403440693049B034404930CE6229B42
:10591000012B40F381820C9F0120F1E5E07E00081D
:10592000B87F00080000F03F00001C400000E03F8E
:105930000000244000001440314600230A2248465B
:1059400000F0F6FD0E9B0646002B40F3978207936E
:10595000002D05DD31462A46484600F06FFF064619
:10596000002F40F07B810696079B089A013BD318D5
:10597000099317460AF00103C246DDF818B00A93EE
:1059800051462046FFF7E2FA31460546204600F030
:10599000ABFF5A4604905146484600F0C5FFC26826
:1059A000804605F13003002A49D10146204607937D
:1059B00000F09AFF41460690484600F0AFFD069A77
:1059C000079B2AB9229919B90A99002900F0368251
:1059D00004990029C0F2E48005D1229919B90A99E5
:1059E000002900F0DD80002A00F34C81099A07F1BC
:1059F000010897423B70454600F053812146002341
:105A00000A22484600F094FD5E45044631464FF0B8
:105A100000034FF00A0248460BD000F089FD5946BA
:105A2000064600230A22484600F082FD4746834688
:105A3000A6E700F07DFD474606468346A0E70146FF
:105A40004846069300F06AFD0122069BC0E74146E6
:105A5000204600F049FF0028BFF67CAD2146039C9C
:105A60000023013C0A224846039400F061FD0A9B92
:105A70000446002B7FF460AF0E9B002B40F3F681B1
:105A800007936FE5099C1EE5229B022B7FF766AD0D
:105A9000079B002B40F07A8141460522484600F0E2
:105AA00047FD01468046204600F01EFF002809946D
:105AB0007FF70FAF039A08993123013203920B70DD
:105AC0004D1C0AE7039A312301320392089A13709E
:105AD00087E501230A93CBE5DDF8189090E4BAF14D
