:020000040800F2
:10000000A80700200D1300086D130008CF2E00086C
:100010006D1300086D1300086D1300080000000048
:100020000000000000000000000000006D13000848
:100030006D130008000000006D130008ED1E00089D
:100040006D1300086D1300086D1300086D13000890
:100050006D1300086D1300086D1300086D13000880
:100060006D1300086D1300086D1300086D13000870
:100070006D1300086D1300086D1300086D13000860
:100080006D1300086D1300086D1300086D13000850
:100090006D1300086D1300086D1300086D13000840
:1000A0006D130008291100086D1300086D13000876
:1000B00069110008BD1100080D1200086D13000839
:1000C0006D1300086D1300086D1300080D01000882
:1000D0006D1300088137000869380008513900089D
:1000E0006D1300086D1300086D1300080000000078
:1000F0000000000000000000000000000000000000
:1001000000000000000000005FF808F180B500AFBB
:100110007121114803F098F80346002B14BF012306
:100120000023DBB2002B04D002210B4803F0C6F8F9
:100130000FE06021084803F087F80346002B14BF46
:1001400001230023DBB2002B03D00121024803F07E
:10015000B5F800BF80BD00BF0030014080B485B05D
:1001600000AF786039600023FB817B681B88FB81CE
:100170007B682E4A934213D07B682D4A93420FD05E
:100180007B68B3F1804F0BD07B682A4A934207D03B
:100190007B68294A934203D07B68284A934208D15E
:1001A000FB8923F07003FB813B685A88FB8913436A
:1001B000FB817B68224A93420CD07B68214A9342A0
:1001C00008D0FB8923F44073FB813B68DA88FB8904
:1001D0001343FB817B68FA891A803B689A887B68A5
:1001E0009A853B681A887B681A857B680F4A934218
:1001F0000FD07B680E4A93420BD07B68124A934221
:1002000007D07B68114A934203D07B68104A93421F
:1002100004D13B681B7A9AB27B681A867B680122FC
:100220009A8200BF1437BD4680BC7047002C014045
:10023000003401400004004000080040000C004071
:100240000010004000140040004001400044014004
:100250000048014080B485B000AF78603960002369
:100260007B810023FB810023BB817B681B8C9BB2BD
:1002700023F001039AB27B681A847B681B8CFB8194
:100280007B689B88BB817B681B8B7B817B8923F090
:1002900070037B817B8923F003037B813B681A8891
:1002A0007B8913437B81FB8923F00203FB813B683D
:1002B0001A89FB891343FB813B685A88FB891343E6
:1002C000FB817B68244A93420FD07B68234A934288
:1002D0000BD07B68224A934207D07B68214A934225
:1002E00003D07B68204A934223D1FB8923F0080383
:1002F000FB813B685A89FB891343FB81FB8923F00F
:100300000403FB813B689A88FB891343FB81BB890B
:1003100023F48073BB81BB8923F40073BB813B68EA
:100320009A89BB891343BB813B68DA89BB89134334
:10033000BB817B68BA899A807B687A891A833B681B
:10034000DA887B689A867B68FA891A8400BF14373A
:10035000BD4680BC704700BF002C01400034014006
:1003600000400140004401400048014080B485B095
:1003700000AF7860396000237B810023FB8100237C
:10038000BB817B681B8C9BB223F010039AB27B6805
:100390001A847B681B8CFB817B689B88BB817B6894
:1003A0001B8B7B817B8923F4E0437B817B8923F456
:1003B00040737B813B681B881B029AB27B89134385
:1003C0007B81FB8923F02003FB813B681B891B0198
:1003D0009AB2FB891343FB813B685B881B019AB28D
:1003E000FB891343FB817B68224A934203D07B68DD
:1003F000214A93422BD1FB8923F08003FB813B6888
:100400005B891B019AB2FB891343FB81FB8923F0B3
:100410004003FB813B689B881B019AB2FB89134315
:10042000FB81BB8923F48063BB81BB8923F4006318
:10043000BB813B689B899B009AB2BB891343BB81FC
:100440003B68DB899B009AB2BB891343BB817B6805
:10045000BA899A807B687A891A833B68DA887B68D4
:100460001A877B68FA891A8400BF1437BD4680BC9E
:10047000704700BF002C01400034014080B485B0BB
:1004800000AF7860396000237B810023FB8100236B
:10049000BB817B681B8C9BB223F480739AB27B6810
:1004A0001A847B681B8CFB817B689B88BB817B6883
:1004B0009B8B7B817B8923F070037B817B8923F07D
:1004C00003037B813B681A887B8913437B81FB890B
:1004D00023F40073FB813B681B891B029AB2FB89E2
:1004E0001343FB813B685B881B029AB2FB89134371
:1004F000FB817B68224A934203D07B68214A934266
:100500002BD1FB8923F40063FB813B685B891B02D1
:100510009AB2FB891343FB81FB8923F48063FB813F
:100520003B689B881B029AB2FB891343FB81BB8902
:1005300023F48053BB81BB8923F40053BB813B6808
:100540009B891B019AB2BB891343BB813B68DB8942
:100550001B019AB2BB891343BB817B68BA899A801D
:100560007B687A899A833B68DA887B689A877B689C
:10057000FA891A8400BF1437BD4680BC704700BF9B
:10058000002C01400034014080B485B000AF786099
:1005900039600023BB8100237B810023FB817B68C2
:1005A0001B8C9BB223F480539AB27B681A847B68BD
:1005B0001B8C7B817B689B88FB817B689B8BBB81D1
:1005C000BB8923F4E043BB81BB8923F44073BB8127
:1005D0003B681B881B029AB2BB891343BB817B8992
:1005E00023F400537B813B681B891B039AB27B89F0
:1005F00013437B813B685B881B039AB27B8913435F
:100600007B817B68124A934203D07B68114A9342F4
:100610000AD1FB8923F48043FB813B689B899B01C2
:100620009AB2FB891343FB817B68FA899A807B68C5
:10063000BA899A833B68DA887B68A3F840207B6894
:100640007A891A8400BF1437BD4680BC704700BF4A
:10065000002C01400034014080B483B000AF7860CA
:1006600039603B681A883B685B8813439AB23B68E1
:100670009B8813439AB23B68DB8813439AB23B686A
:100680001B8913439AB23B685B8913439AB23B6858
:100690009B8913439AB27B68A3F8442000BF0C37B0
:1006A000BD4680BC704700BF80B483B000AF7860A7
:1006B0007B684FF6FF729A807B6800221A807B6805
:1006C0000022DA807B6800225A807B6800221A723E
:1006D00000BF0C37BD4680BC704700BF80B483B0FC
:1006E00000AF78607B6800221A807B6800225A8005
:1006F0007B6800229A807B680022DA807B68002277
:100700001A817B6800225A817B6800229A817B686B
:100710000022DA8100BF0C37BD4680BC704700BFA5
:1007200080B483B000AF78607B6800221A807B6859
:1007300000225A807B6800229A807B680022DA803F
:100740007B6800221A817B6800225A817B68002224
:100750009A8100BF0C37BD4680BC704780B483B01F
:1007600000AF78600B46FB70FB78002B08D07B68ED
:100770001B889BB243F001039AB27B681A8007E0A2
:100780007B681B889BB223F001039AB27B681A80B6
:1007900000BF0C37BD4680BC704700BF80B483B03B
:1007A00000AF78600B46FB70FB78002B08D07B68AD
:1007B0001B889BB243F080039AB27B681A8007E0E3
:1007C0007B681B889BB223F080039AB27B681A80F7
:1007D00000BF0C37BD4680BC704700BF80B485B0F9
:1007E00000AF78600B467B800023FB730023BB8146
:1007F00000237B817B681B8A9AB27B881340BB8174
:100800007B689B899AB27B8813407B81BB89002BD4
:1008100005D07B89002B02D00123FB7301E000236C
:10082000FB73FB7B18461437BD4680BC704700BF86
:1008300080B483B000AF78600B467B807B88DB435D
:100840009AB27B681A8200BF0C37BD4680BC7047E5
:1008500080B500AF154A154B1B6843F001031360C8
:100860001249124B5A68124B13404B600F4A0F4B00
:100870001B6823F0847323F4803313600B4A0B4B03
:100880001B6823F480231360084A084B5B6823F439
:10089000FE035360054B4FF41F029A6000F00CF802
:1008A000044B4FF000629A6000BF80BD0010024010
:1008B0000000FFF800ED00E080B500AF00F002F8A6
:1008C00000BF80BD80B483B000AF00237B600023F5
:1008D0003B603A4A394B1B6843F480331360374B13
:1008E0001B6803F400333B607B6801337B603B682B
:1008F000002B03D17B68B3F5A06FF0D12F4B1B68A1
:1009000003F40033002B02D001233B6001E00023FD
:100910003B603B68012B4BD1294A294B1B6843F0B4
:1009200010031360264A264B1B6823F00303136051
:10093000234A234B1B6843F0020313601F4A1F4BDB
:100940005B6853601D4A1D4B5B6853601B4A1B4B21
:100950005B6843F480635360184A184B5B6823F468
:100960007C135360154A154B5B6843F4E8135360DE
:10097000124A124B1B6843F08073136000BF0F4B89
:100980001B6803F00073002BF9D00C4A0B4B5B681B
:1009900023F003035360094A084B5B6843F00203EA
:1009A000536000BF054B5B6803F00C03082BF9D1C3
:1009B00000BF0C37BD4680BC704700BF001002402E
:1009C0000020024080B584B000AFF860B9603B60A1
:1009D0001346FB803B8B1A463968F86800F028F90B
:1009E000FB68FA889A81FB68BA689A60FB68BA8BE0
:1009F0009A80FB683A8CDA80FB68BA8CDA81FB68F3
:100A00009B68404A93420BD13F4B01221A60FB681E
:100A10009A88FB68DB881946104600F01BF931E024
:100A2000FB689B68B3F1804F0BD1384B01221A60F1
:100A3000FB689A88FB68DB881946104600F04CF981
:100A400020E0FB689B68324A93420BD1314B012274
:100A50001A60FB689A88FB68DB881946104600F02C
:100A60005FF90FE0FB689B682B4A934243D12B4B05
:100A700001221A60FB689A88FB68DB8819461046D9
:100A800000F074F9FB689B89013B032B35D801A268
:100A900052F823F0A50A0008B70A0008C90A00089E
:100AA000DB0A0008FB689A68FB68DB891946104678
:100AB00000F082F91AE0FB689A68FB68DB89194646
:100AC000104600F09FF911E0FB689A68FB68DB892B
:100AD0001946104600F0BCF908E0FB689A68FB680C
:100AE000DB891946104600F0D9F900BF0021F868EB
:100AF00000F016F802E000BF00E000BF1037BD466E
:100B000080BD00BF002C01403000002034000020D8
:100B10000004004038000020000800403C00002095
:100B200080B582B000AF78600B467B807B689B68A5
:100B3000384A934205D1384B1B68012B22D0012340
:100B400063E07B689B68B3F1804F05D1334B1B6832
:100B5000012B17D0012358E07B689B68304A9342F1
:100B600005D1304B1B68012B0CD001234DE07B6875
:100B70009B682D4A934205D12C4B1B68012B01D059
:100B8000012342E07B689B887A889A4202D97B687D
:100B90009B887B807B687A885A807B689B89013B35
:100BA000032B2FD801A252F823F000BFBD0B000881
:100BB000CF0B0008E10B0008F30B00087B689A6874
:100BC0007B685B881946104600F08EF91CE07B6854
:100BD0009A687B685B881946104600F093F913E029
:100BE0007B689A687B685B881946104600F098F924
:100BF0000AE07B689A687B685B881946104600F0BB
:100C00009DF901E0012300E0002318460837BD46A6
:100C100080BD00BF002C01403000002034000020C7
:100C20000004004038000020000800403C00002084
:100C300080B588B000AFF860B9601346FB80FA88D1
:100C400007F114001823B96801F006FD00BF203732
:100C5000BD4680BD80B58AB000AF03460A46FB8022
:100C60001346BB8001214FF4006001F0B9FC012163
:100C7000012001F0B5FC07F11C031846FFF714FD35
:100C8000FB883B84BB88BB830023FB83002387F85E
:100C9000243007F11C0319460E48FFF75FFA07F1ED
:100CA0000C031846FFF73CFD4FF480433B8307F1EC
:100CB0000C0319460748FFF7CFFC01210548FFF751
:100CC0006DFD01210348FFF749FD00BF2837BD46F0
:100CD00080BD00BF002C014080B586B000AF034648
:100CE0000A46FB801346BB800121012001F096FCDF
:100CF0000121012001F074FC07F10C031846FFF7F5
:100D0000D3FCFB883B82BB88BB8107F10C031946EF
:100D10004FF08040FFF722FA00BF1837BD4680BD74
:100D200080B586B000AF03460A46FB801346BB8001
:100D30000121022001F072FC0121012001F050FC90
:100D400007F10C031846FFF7AFFCBB88BB81FB889B
:100D50003B8207F10C0319460348FFF7FFF900BF78
:100D60001837BD4680BD00BF0004004080B586B086
:100D700000AF03460A46FB801346BB8001210420D6
:100D800001F04CFC0121012001F02AFC07F10C03C9
:100D90001846FFF789FCBB88BB81FB883B8207F1C3
:100DA0000C0319460348FFF7D9F900BF1837BD46B1
:100DB00080BD00BF0008004080B586B000AF7860FD
:100DC0000B467B8007F108031846FFF787FC7B88FA
:100DD0003B8101237B810023FB8100233B8207F1C0
:100DE000080319467868FFF735FA01217868FFF79C
:100DF000D5FC01217868FFF7B1FC00BF1837BD466C
:100E000080BD00BF80B586B000AF78600B467B80A8
:100E100007F108031846FFF761FC7B883B8101233B
:100E20007B810023FB8100233B8207F108031946E5
:100E30007868FFF79BFA01217868FFF7AFFC012182
:100E40007868FFF78BFC00BF1837BD4680BD00BF38
:100E500080B586B000AF78600B467B8007F1080351
:100E60001846FFF73BFC7B883B8101237B810023F5
:100E7000FB8100233B8207F1080319467868FFF7DE
:100E8000FDFA01217868FFF789FC01217868FFF7F6
:100E900065FC00BF1837BD4680BD00BF80B586B079
:100EA00000AF78600B467B8007F108031846FFF718
:100EB00015FC7B883B8101237B810023FB81002380
:100EC0003B8207F1080319467868FFF75DFB0121B3
:100ED0007868FFF763FC01217868FFF73FFC00BFEB
:100EE0001837BD4680BD00BF80B483B000AF7860C6
:100EF0000B467B807B687A889A8600BF0C37BD469C
:100F000080BC704780B483B000AF78600B467B80B4
:100F10007B687A881A8700BF0C37BD4680BC704753
:100F200080B483B000AF78600B467B807B687A88A2
:100F30009A8700BF0C37BD4680BC704780B483B031
:100F400000AF78600B467B807B687A88A3F84020EE
:100F500000BF0C37BD4680BC704700BF80B400AFF7
:100F60000C4B9B8C9BB21BB2DB439BB2DB0BDBB20B
:100F7000002B05D0084B1B680133074A136004E0BF
:100F8000054B1B68013B044A136000BFBD4680BC93
:100F9000704700BF002C01404000002080B400AF2B
:100FA0004FF080439B8C9BB21BB2DB439BB2DB0BAD
:100FB000DBB2002B05D0074B1B680133054A1360D9
:100FC00004E0044B1B68013B024A136000BFBD46AE
:100FD00080BC70474400002080B400AF0C4B9B8C59
:100FE0009BB21BB2DB439BB2DB0BDBB2002B05D009
:100FF000084B1B680133074A136004E0054B1B686C
:10100000013B044A136000BFBD4680BC704700BF6F
:10101000000400404800002080B400AF0C4B9B8CC3
:101020009BB21BB2DB439BB2DB0BDBB2002B05D0C8
:10103000084B1B680133074A136004E0054B1B682B
:10104000013B044A136000BFBD4680BC704700BF2F
:10105000000800404C00002080B400AF00BFBD4637
:1010600080BC704780B400AF00BFBD4680BC7047F5
:1010700080B400AF00BFBD4680BC704780B400AFF5
:1010800000BFBD4680BC704780B400AF00BFBD4606
:1010900080BC704780B400AF00BFBD4680BC7047C5
:1010A00080B400AF00BFBD4680BC704780B400AFC5
:1010B00000BFBD4680BC704780B400AF044B1B68C6
:1010C0000133034A136000BFBD4680BC704700BFB8
:1010D0004000002080B400AF044B1B680133034A7A
:1010E000136000BFBD4680BC704700BF44000020B5
:1010F00080B400AF044B1B680133034A136000BF88
:10110000BD4680BC704700BF4800002080B400AFDF
:10111000044B1B680133034A136000BFBD4680BC0B
:10112000704700BF4C00002080B500AF0C4B1B681F
:10113000022B02D1FFF712FF0CE0094B1B68012BB9
:1011400002D1FFF789FF05E0054B1B68032B01D196
:10115000FFF7B2FF01210348FFF76AFB00BF80BD24
:1011600030000020002C014080B500AF124B1B68FE
:10117000022B07D1FFF712FF01214FF08040FFF74C
:1011800057FB16E00C4B1B68012B07D1FFF76AFFDA
:1011900001214FF08040FFF74BFB0AE0064B1B6834
:1011A000032B06D1FFF796FF01214FF08040FFF798
:1011B0003FFB00BF80BD00BF3400002080B500AF02
:1011C000104B1B68022B06D1FFF706FF01210E48CA
:1011D000FFF72EFB14E00B4B1B68012B06D1FFF72A
:1011E00047FF01210848FFF723FB09E0054B1B6877
:1011F000032B05D1FFF77CFF01210348FFF718FB04
:1012000000BF80BD380000200004004080B500AF62
:101210003C4B1B68022B06D1FFF7FEFE01213A482A
:10122000FFF706FB6CE0374B1B68012B5ED10121F9
:101230003548FFF7D3FA0346012B0CBF01230023E7
:10124000DBB2002B06D0FFF719FF01212E48FFF774
:10125000EFFA55E002212C48FFF7C0FA0346012BB4
:101260000CBF01230023DBB2002B06D0FFF70CFFDD
:1012700002212548FFF7DCFA42E004212248FFF76B
:10128000ADFA0346012B0CBF01230023DBB2002B78
:1012900006D0FFF7FFFE04211B48FFF7C9FA2FE035
:1012A00008211948FFF79AFA0346012B0CBF0123C6
:1012B0000023DBB2002B06D0FFF7F2FE0821124814
:1012C000FFF7B6FA1CE010210F48FFF787FA034634
:1012D000012B0CBF01230023DBB2002B10D0FFF742
:1012E000E5FE10210848FFF7A3FA09E0054B1B684B
:1012F000032B05D1FFF70AFF01210348FFF798FAF6
:1013000000BF80BD3C0000200008004080B582B0D6
:1013100000AF114B7B60114B3B6007E03B681A1D2F
:101320003A607A68111D796012681A603B680C4A4D
:101330009342F3D30B480C494FF000028842B8BFE8
:1013400040F8042BFADBFFF783FA00F09DFB00BFA7
:101350000837BD4680BD00BFE85E000800000020E1
:101360003000002030000020A803002080B400AF2F
:10137000FEE700BF80B489B000AF78603960002319
:10138000FB6100233B610023BB610023FB60002362
:101390007B610023BB603B68DB7803F00F03FB61DC
:1013A0003B68DB7803F01003002B05D03B689B788B
:1013B0001A46FB691343FB613B681B88DBB2002BB9
:1013C00044D07B681B687B610023BB6138E001224D
:1013D000BB6902FA03F3FB603B681B881A46FB6893
:1013E00013403B613A69FB689A4226D1BB699B0076
:1013F000FB600F22FB6802FA03F3BB60BB68DB43B0
:101400007A6913407B61FA69FB6802FA03F37A692F
:1014100013437B613B68DB78282B05D10122BB6934
:101420009A407B685A6108E03B68DB78482B04D11E
:101430000122BB699A407B681A61BB690133BB61B9
:10144000BB69072BC3D97B687A691A603B681B8824
:10145000FF2B46D97B685B687B610023BB613AE068
:10146000BB690833012202FA03F3FB603B681B8867
:101470001A46FB6813403B613A69FB689A4227D1E0
:10148000BB699B00FB600F22FB6802FA03F3BB60A1
:10149000BB68DB437A6913407B61FA69FB6802FA37
:1014A00003F37A6913437B613B68DB78282B05D112
:1014B000BB69083301229A407B685A613B68DB783C
:1014C000482B05D1BB69083301229A407B681A6119
:1014D000BB690133BB61BB69072BC1D97B687A69E2
:1014E0005A6000BF2437BD4680BC704780B483B0CB
:1014F00000AF78607B684FF6FF721A807B6802222B
:101500009A707B680422DA7000BF0C37BD4680BC3D
:10151000704700BF80B485B000AF78600B467B8019
:101520000023FB737B68DA687B881340002B02D0B2
:101530000123FB7301E00023FB73FB7B1846143788
:10154000BD4680BC704700BF80B483B000AF7860F8
:101550000B467B8013467B707B78002B03D07A8808
:101560007B681A6102E07A887B685A6100BF0C3799
:10157000BD4680BC704700BFF0B587B004AF00F037
:1015800051FC02230093CA4B0922CA49CA4801F000
:10159000ADFC01230093C64B0822C649C74801F0A1
:1015A000A5FC80230093C64B0722C249C54801F021
:1015B0009DFC40230093C24B0622BE49C24801F065
:1015C00095FC20230093BE4B0522BA49BF4801F089
:1015D0008DFC10230093BA4B0422B649BC4801F09D
:1015E00085FC10230222B649BA4801F035F80121E2
:1015F000B84801F06FF860230393002302934FF47F
:10160000CA53019301230093AD4B01224FF0804157
:10161000B148FFF7D7F94FF480630293A84B0193C9
:101620004FF400730093A64B4FF4E132AB49AC4842
:1016300001F09CFEAB4AAC49A94801F077FEAB4AE9
:10164000AB49A74801F072FEAA4AAB49A44801F091
:101650006DFE642000F0F8FB00219E4801F03AF88E
:1016600000219D48FFF75CFA642000F0EDFB9848EC
:1016700001F06EFC0346184602F030FB80A3D3E96C
:10168000002302F091FB03460C461846214603F066
:1016900033F803460C46994AC2E900348B4801F0FE
:1016A00057FC0346184602F019FB77A3D3E9002341
:1016B00002F07AFB03460C461D4626468F4B18CB9C
:1016C0001846214602F03AFB03460C461A462346CA
:1016D0002846314602F0B4F903460C461846214626
:1016E00003F00AF803460C46844AC2E902347648FD
:1016F00001F02EFC0346184602F0F0FA64A3D3E989
:10170000002302F051FB03460C461D4626467B4B48
:1017100003F10804D4E900341846214602F00EFB18
:1017200003460C461A4623462846314602F088F9FD
:1017300003460C461846214602F0DEFF03460C46DF
:101740006E4AC2E904345F4801F002FC03461846C1
:1017500002F0C4FA50A3D3E9002302F025FB0346AC
:101760000C461D462646654B03F11004D4E90034AF
:101770001846214602F0E2FA03460C461A46234672
:101780002846314602F05CF903460C4618462146CD
:1017900002F0B2FF03460C46584AC2E906344748F5
:1017A00001F0D6FB0346184602F098FA3CA3D3E9B1
:1017B000002302F0F9FA03460C461D4626464F4B1D
:1017C00003F11804D4E900341846214602F0B6FAB1
:1017D00003460C461A4623462846314602F030F9A5
:1017E00003460C461846214602F086FF03460C4687
:1017F000424AC2E90834304801F0AAFB03461846C1
:1018000002F06CFA28A3D3E9002302F0CDFA0346D4
:101810000C461D462646394B03F12004D4E900341A
:101820001846214602F08AFA03460C461A46234619
:101830002846314602F004F903460C461846214674
:1018400002F05AFF03460C462C4AC2E90A340A2029
:1018500000F0FAFA2A4B06221A6000237B607B68AC
:10186000052B62DC254A7B68DB00134418CB40F66D
:10187000B7314FF00002A24208BF994246D341E07F
:10188000D8F0F44A59061240B37BF2B0506B1240C4
:10189000F31FD26F5F47124032772D211F54214032
:1018A000ED0DBE30996A2140705F07CE197121405D
:1018B000000C014000240140A001002098010020FC
:1018C00000080140900100208801002080010020D4
:1018D00078010020580100206401002000380140F8
:1018E00074010020405A0008805A0008905A0008ED
:1018F0009C5A0008A85A0008B45A0008700000203A
:10190000480100207B68264A13600EE0254A7B6868
:10191000DB00134418CB1A4623462349234801F021
:1019200005FD7B6801337B6099E70A2000F08CFAA3
:101930001B4B1B681A461E491C4801F0F7FC00238C
:101940003B603A68164B1B689A421BD2194B012226
:101950001A604FF07C514FF47A6000F02FF8642049
:1019600000F072FA134B01221A604FF000014FF49D
:101970007A6000F023F80A2000F066FA3B68013331
:101980003B60DEE70A2000F05FFA00F09FFA0346B2
:101990000C461A46084B1A6000BF0C37BD46F0BD16
:1019A0004801002070000020C05A00087401002087
:1019B000C45A0008440100205401002080B586B0BC
:1019C00004AF786039602A4B1B68002B2ED0284B5F
:1019D00000221A60274A7B68B2FBF3F3264A1360A1
:1019E000254B1B689BB26022039200220292019356
:1019F00001230093214B01224FF080412048FEF744
:101A0000E1FF1F4B9B88184602F09AFC0346396899
:101A1000184602F0E9FC0346184602F035FE03467C
:101A20009BB219461648FFF77BF81DE0104B0122C8
:101A30001A60104A7B68B2FBF3F30F4A13600E4B37
:101A40001B689BB260220392002202920193012341
:101A500000930A4B01224FF080410948FEF7B2FF84
:101A600000210748FFF75CF800BF0837BD4680BD7E
:101A70004401002000A24A04400100200008014067
:101A8000640100200000000090B583B002AFFFF7B2
:101A900073FDAB4801F05CFA0346184602F01EF9EC
:101AA0009BA3D3E9002302F07FF903460C461846B6
:101AB000214602F021FE03460C46A24AC2E9003448
:101AC000A14801F045FA0346184602F007F992A32F
:101AD000D3E9002302F068F903460C461846214674
:101AE00002F00AFE03460C46964AC2E902349748C1
:101AF00001F02EFA0346184602F0F0F888A3D3E965
:101B0000002302F051F903460C461846214602F024
:101B1000F3FD03460C468B4AC2E904348C4801F0BD
:101B200017FA0346184602F0D9F87FA3D3E9002339
:101B300002F03AF903460C461846214602F0DCFD55
:101B400003460C467F4AC2E90634824801F000FA97
:101B50000346184602F0C2F875A3D3E9002302F049
:101B600023F903460C461846214602F0C5FD0346FC
:101B70000C46744AC2E90834774801F0E9F9034693
:101B8000184602F0ABF86CA3D3E9002302F00CF97D
:101B900003460C461846214602F0AEFD03460C46AD
:101BA000684AC2E90A346D4B1B68013B654ADB0099
:101BB000134418CB6A4AC2E9003400F087F90A4698
:101BC0000146684B18CB944208BF8B4234BF0123B7
:101BD0000023DBB2002B56D0624B18CB323344F1DA
:101BE0000004604AC2E900345D4BD3E900125B4B4C
:101BF0001B684FF4616000FB03F34FF00004C91A47
:101C000062EB040208461146544B1B684FF0000477
:101C10001A46234602F058FD03460C461A46524B1C
:101C20001A60514B1B68002B05DA504B1B680133BF
:101C30004E4A136002E04D4B00221A604B4B1B686A
:101C4000322B02D94A4B01221A60474B1B6864337E
:101C5000DA0F13445B101A46464B1A60454B1B685B
:101C6000312B02DC434B32221A603D4B18CB194614
:101C70003D4B1A683F4B1B68009313460A463E498A
:101C80003E4801F053FB00F021F90A4601463C4B67
:101C900018CB944208BF8B4234BF01230023DBB230
:101CA000002B0FD0334B1B6819464FEAE172344BBF
:101CB00018CB5B1844EB0204314AC2E900343148C6
:101CC00000F028FD00F002F90A4601462E4B18CB21
:101CD000944208BF8B4234BF01230023DBB2002BA8
:101CE0003FF4D7AE284B18CB13F5967344F100049C
:101CF000254AC2E900341E4B1B68002B3FF4C9AED5
:101D00004FF07C514FF47A60FFF758FEC1E600BFF8
:101D1000D8F0F44A59061240B37BF2B0506B12402F
:101D2000F31FD26F5F47124032772D211F5421409D
:101D3000ED0DBE30996A2140705F07CE19712140C8
:101D40007801002070000020800100208801002020
:101D50009001002098010020A001002048010020EF
:101D60006800002060000020500100204C0100208D
:101D70003C01002054010020D85A000874010020C2
:101D800050000020580100205800002080B483B08B
:101D900000AF03463960FB7197F90730002B0BDA6F
:101DA0000D49FB7903F00F03043B3A68D2B21201EC
:101DB000D2B20B441A7609E0084997F907303A681D
:101DC000D2B21201D2B20B4483F8002300BF0C3709
:101DD000BD4680BC704700BF00ED00E000E100E0C0
:101DE00080B582B000AF78607B68B3F1807F01D3AB
:101DF000012311E00A4A7B6823F07F43013B5360D3
:101E00000F214FF0FF30FFF7C1FF054B00229A6012
:101E1000034B07221A60002318460837BD4680BDD1
:101E200010E000E080B500AF054B1B685B09054A78
:101E3000A2FB0323DB091846FFF7D2FF00BF80BDDA
:101E400000000020C55A7C0AB0B584B000AF7860AD
:101E50007B684FF47A7202FB03F31C464FF00005D7
:101E600000F01EF802460B46A01845EB030103469E
:101E70000C46C7E9023400F013F80A460146D7E9D8
:101E80000234A24208BF994234BF01230023DBB2CF
:101E9000002B00D0EFE700BF1037BD46B0BD00BF3C
:101EA00090B400AF084B18CBDB1844EB0404A2003D
:101EB00042EA937299005B1844EB020418462146EB
:101EC000BD4690BC704700BFA801002098B500AF88
:101ED000FFF7E6FF4FF47A724FF0000302F0F4FBD5
:101EE00003460C461846214698BD00BF90B400AF8B
:101EF000054B18CB013344F10004034AC2E9003416
:101F000000BFBD4690BC7047A801002080B483B0DC
:101F100000AF78600B46FB707B68FA781A7001237B
:101F200018460C37BD4680BC704700BF80B485B0F2
:101F300000AF786039600023FB600AE07B685A1CC0
:101F40007A603A68511C396012781A70FB68013364
:101F5000FB603B681B78002BF0D1FB6818461437F8
:101F6000BD4680BC704700BF80B586B000AFF8604A
:101F70007A603B600B46FB7200237B617B68013B10
:101F80007B603B68092B1DD93B681D4AA2FB0323DC
:101F9000DB08F97A7A68F868FFF7E6FF78617B6911
:101FA000FA681344FB6010E0FB7A1946F868FFF703
:101FB000ADFFFB680133FB607B6901337B617B68AC
:101FC000013B7B607B68002BEEDC39680C4BA3FB8C
:101FD0000123DA0813469B0013445B00CA1AD3B2EC
:101FE0003033DBB21946F868FFF790FF02467B6991
:101FF00013447B617B6918461837BD4680BD00BF1E
:10200000CDCCCCCC80B586B000AFF8607A603B60B8
:102010000B46FB7200237B613B68002B03DA3B68B5
:102020005B423B6101E03B683B617B68013B7B605D
:102030003B69092B1FD93B68002B0CDA3B692E4A00
:10204000A2FB0323DB085B42F97A7A68F868FFF7A2
:10205000D9FF78610AE03B69274AA2FB0323DB082A
:10206000F97A7A68F868FFF7CDFF78617B69FA68DA
:102070001344FB6025E03B68002B11DA7B68013BD1
:102080007B600DE0FB7A1946F868FFF73FFFFB68BD
:102090000133FB607B6901337B617B68013B7B60C3
:1020A0007B68002BEEDC3B68002B0ADA2D21F868F8
:1020B000FFF72CFF02467B6913447B61FB68013309
:1020C000FB6039690C4BA3FB0123DA0813469B0024
:1020D00013445B00CA1AD3B23033DBB21946F86836
:1020E000FFF714FF02467B6913447B617B69184646
:1020F0001837BD4680BD00BFCDCCCCCC80B588B0F4
:1021000002AFF8607A601A460B46FB721346BB7248
:1021100000237B617B68013B7B603B6A1B09002BD2
:1021200020D03B6A1B09BA7AF97A009313467A6881
:10213000F868FFF7E3FF02467B6913447B617B6924
:10214000FA681344FB6010E0FB7A1946F868FFF761
:10215000DDFEFB680133FB607B6901337B617B68DB
:10216000013B7B607B68002BEEDC3B6A03F00F03D6
:10217000092B0BD83B6ADBB203F00F03DBB2303321
:10218000DBB21946F868FFF7C1FE19E0BB7A002BF5
:102190000BD03B6ADBB203F00F03DBB23733DBB2A9
:1021A0001946F868FFF7B2FE0AE03B6ADBB203F0BB
:1021B0000F03DBB25733DBB21946F868FFF7A6FE10
:1021C0007B6901337B617B6918461837BD4680BD4A
:1021D00080B58AB002AFF860B9607A603B600023D6
:1021E000BB6100237B61FB68002B00F0FC80FB6877
:1021F00000221A70F7E07B681B78252B0BD0FB6858
:102200005A1CFA607A68511C796012781A707B69DE
:1022100001337B61E7E07B6801331B78252B0BD111
:10222000FB685A1CFA6025221A707B6802337B60B7
:102230007B6901337B61D6E02023FB770023BB77EA
:102240007B6801337B607B681B78302B14D1302393
:10225000FB777B6801337B600EE0BB7F1A46920000
:1022600013445B00DAB27B681B781344DBB2303B6B
:10227000BB777B6801337B607B681B782F2B03D98E
:102280007B681B78392BE8D9BA7F7B6913441A46DF
:10229000BB689A4205D9BB68DAB27B69DBB2D31A54
:1022A000BB777B681B78583B202B00F28E8001A205
:1022B00052F823F085230008CB230008CB23000825
:1022C000CB230008CB230008CB230008CB23000836
:1022D000CB230008CB230008CB230008CB23000826
:1022E000B523000839230008CB230008CB230008BE
:1022F000CB230008CB23000839230008CB23000898
:10230000CB230008CB230008CB230008CB230008F5
:10231000CB230008CB230008CB230008CB230008E5
:10232000A1230008CB23000851230008CB23000879
:10233000CB23000869230008B87F3B681A1D3A6068
:102340001B68F97F0246F868FFF75CFEB8613FE062
:10235000B87F3B681A1D3A601B68F97F0246F8682F
:10236000FFF702FEB86133E0B87F3B681A1D3A60A0
:102370001B68F97F009300230246F868FFF7BEFE52
:10238000B86125E0B87F3B681A1D3A601B68F97F89
:10239000009301230246F868FFF7B0FEB86117E02A
:1023A0003B681A1D3A601B681946F868FFF7BEFDC6
:1023B000B8610DE03B681A1D3A601B68DBB2194634
:1023C000F868FFF7A3FDB86102E04FF0FF3325E0A6
:1023D0007B6801337B60BB69FA681344FB607A69F0
:1023E000BB6913447B617B681B78002B04D07A693E
:1023F000BB689A42FFF4FFAE7A69BB689A4203D287
:10240000FB6800221A7008E0FB68013BFB60FB6878
:1024100000221A707B69013B7B617B69184620377B
:10242000BD4680BD80B584B000AFF860B9607A6009
:102430007B68BA686421F868FFF7CAFE034618464D
:102440001037BD4680BD00BF80B485B000AF786056
:102450000023FB60094B5B68FB60FB6823F440438F
:10246000FB60FA687B681343FB60044AFB685360B7
:1024700000BF1437BD4680BC704700BF001002404B
:1024800080B487B000AF786000237B6100233B619C
:102490000023FB600023BB604C4B5B6803F00C0324
:1024A0007B617B69042B07D0082B09D0002B33D12B
:1024B0007B68474A1A6033E07B68454A1A602FE020
:1024C000424B5B6803F470133B61404B5B6803F461
:1024D0008033FB603B699B0C02333B61FB68002B44
:1024E00006D13B693B4A02FB03F27B681A6017E0A6
:1024F000364B5B6803F40033002B06D03B69354A4A
:1025000002FB03F27B681A600AE03B69304A02FB77
:1025100003F27B681A6003E07B682D4A1A6000BFF3
:102520002A4B5B6803F0F0037B617B691B097B61CD
:10253000294A7B6913441B78DBB2BB607B681A684D
:10254000BB68DA407B685A60204B5B6803F4E06349
:102550007B617B691B0A7B611F4A7B6913441B7883
:10256000DBB2BB607B685A68BB68DA407B689A6004
:10257000164B5B6803F460537B617B69DB0A7B610C
:10258000154A7B6913441B78DBB2BB607B685A68D1
:10259000BB68DA407B68DA600C4B5B6803F440434D
:1025A0007B617B699B0B7B610C4A7B6913441B78C5
:1025B000DBB2BB607B68DA68BB68B2FBF3F27B68B6
:1025C0001A6100BF1C37BD4680BC70470010024036
:1025D00000127A0000093D001400002024000020B1
:1025E00080B483B000AF78600B46FB70FB78002BA3
:1025F00006D00949084B9A697B6813438B6106E052
:102600000549054B9A697B68DB4313408B6100BF2A
:102610000C37BD4680BC70470010024080B483B0C8
:1026200000AF78600B46FB70FB78002B06D00949A1
:10263000084BDA697B681343CB6106E00549054B1B
:10264000DA697B68DB431340CB6100BF0C37BD46C2
:1026500080BC70470010024080B586B000AFF860C3
:10266000B96011461A460B46FB8013467B71FB6826
:10267000FA881A80FB68BA685A6001210420FFF7C3
:10268000AFFF01210820FFF7ABFF01211020FFF76A
:10269000A7FF01212020FFF7A3FFFB687A791A72B8
:1026A00007F114031846FEF721FFFB681B88BB8265
:1026B000FB681B7AFB750323BB75FB685B6807F13E
:1026C000140211461846FEF755FE00BF1837BD46E6
:1026D00080BD00BF80B582B000AF78600B467B80C4
:1026E0007B88002B08D17B6858687B681B88002298
:1026F0001946FEF729FF07E07B6858687B681B884E
:1027000001221946FEF720FF002318460837BD4670
:1027100080BD00BF80B582B000AF78607B685A682A
:102720007B681B881946104600F004F800BF083784
:10273000BD4680BD80B582B000AF78600B467B801F
:102740007B8819467868FEF7E5FE0346012B0CBF2F
:1027500001230023DBB2002B06D07B880022194620
:102760007868FEF7F1FE05E07B880122194678685B
:10277000FEF7EAFE00BF0837BD4680BD80B485B0D5
:1027800000AF786039600023FB600023FB727B6838
:102790005B68FB60FB6823F4702323F48073FB60A9
:1027A0003B681A683B681B791B021343FA681343A2
:1027B000FB607B68FA685A607B689B68FB60FA681C
:1027C000164B1340FB603B68DA683B689B681A4312
:1027D0003B685B795B001343FA681343FB607B68DB
:1027E000FA689A607B68DB6AFB60FB6823F470031D
:1027F000FB603B681B7C013BDAB2FB7A1343FB7244
:10280000FB7A1B05FA681343FB607B68FA68DA629F
:1028100000BF1437BD4680BC704700BFFDF7F1FF15
:1028200080B483B000AF78607B6800221A607B6858
:1028300000221A717B6800225A717B6800229A601C
:102840007B680022DA607B6801221A7400BF0C37B3
:10285000BD4680BC704700BF80B483B000AF7860D5
:102860000B46FB70FB78002B06D07B689B6843F01F
:1028700001027B689A6005E07B689B6823F0010297
:102880007B689A6000BF0C37BD4680BC704700BFB4
:1028900080B483B000AF78607B689B6843F0080227
:1028A0007B689A6000BF0C37BD4680BC704700BF94
:1028B00080B485B000AF78600023FB737B689B68B1
:1028C00003F00803002B02D00123FB7301E0002377
:1028D000FB73FB7B18461437BD4680BC704700BFB6
:1028E00080B483B000AF78607B689B6843F00402DB
:1028F0007B689A6000BF0C37BD4680BC704700BF44
:1029000080B485B000AF78600023FB737B689B6860
:1029100003F00403002B02D00123FB7301E000232A
:10292000FB73FB7B18461437BD4680BC704700BF65
:1029300080B483B000AF78600B46FB70FB78002B4F
:1029400006D07B689B6843F4A0027B689A6005E030
:102950007B689B6823F4A0027B689A6000BF0C37F9
:10296000BD4680BC704700BF80B485B000AF7860C2
:10297000084611461A460346FB700B46BB701346C9
:102980007B700023FB600023BB60FB78092B23D9FD
:102990007B68DB68FB60FB78A3F10A0213465B00EF
:1029A0001344072202FA03F3BB60BB68DB43FA68F7
:1029B0001340FB607978FB78A3F10A0213465B00B1
:1029C000134401FA03F3BB60FA68BB681343FB606E
:1029D0007B68FA68DA601EE07B681B69FB60FA7846
:1029E00013465B001344072202FA03F3BB60BB6883
:1029F000DB43FA681340FB607978FA7813465B0092
:102A0000134401FA03F3BB60FA68BB681343FB602D
:102A10007B68FA681A61BB78062B21D87B685B6BF0
:102A2000FB60BB785A1E13469B0013441F2202FA18
:102A300003F3BB60BB68DB43FA681340FB60F978C3
:102A4000BB785A1E13469B00134401FA03F3BB6084
:102A5000FA68BB681343FB607B68FA685A6347E017
:102A6000BB780C2B21D87B681B6BFB60BB78DA1F13
:102A700013469B0013441F2202FA03F3BB60BB689A
:102A8000DB43FA681340FB60F978BB78DA1F134622
:102A90009B00134401FA03F3BB60FA68BB6813435D
:102AA000FB607B68FA681A6322E07B68DB6AFB6084
:102AB000BB78A3F10D0213469B0013441F2202FAB8
:102AC00003F3BB60BB68DB43FA681340FB60F97833
:102AD000BB78A3F10D0213469B00134401FA03F3E4
:102AE000BB60FA68BB681343FB607B68FA68DA6214
:102AF00000BF1437BD4680BC704700BF80B483B0B0
:102B000000AF78607B68DB6C9BB218460C37BD4623
:102B100080BC704780B485B000AF78600B46FB7016
:102B20000023FB737B681A68FB781340002B02D0EC
:102B30000123FB7301E00023FB73FB7B1846143772
:102B4000BD4680BC704700BF80B58CB000AF7860D8
:102B500039600023FB620023BB6200237B620023F9
:102B60003B620023FB617B68FB617B681B8A9BB235
:102B7000FB62FA6A4CF6FF731340FB623B68DB882A
:102B80001A46FB6A1343FB62FB6A9AB27B681A829D
:102B90007B689B899BB2FB62FA6A4EF6F313134083
:102BA000FB623B689A883B681B8913439AB23B6877
:102BB0005B8913439BB21A46FB6A1343FB62FB6AB1
:102BC0009AB27B689A817B689B8A9BB2FB62FA6AA5
:102BD0004FF6FF431340FB623B689B891A46FB6A32
:102BE0001343FB62FB6A9AB27B689A8207F108037F
:102BF0001846FFF745FCFB692E4A934202D17B69D8
:102C0000BB6201E03B69BB627B689B899BB21BB2E4
:102C1000002B0CDABA6A13469B0013449A001A443C
:102C20003B681B685B00B2FBF3F37B620BE0BA6AA4
:102C300013469B0013449A001A443B681B689B0090
:102C4000B2FBF3F37B627B6A1B4AA2FB03235B09A3
:102C50001B01FB62FB6A1B09642202FB03F37A6A15
:102C6000D31A3B627B689B899BB21BB2002B0CDAA8
:102C70003B6ADB003233104AA2FB03235B0903F0FB
:102C80000703FA6A1343FB620BE03B6A1B01323312
:102C9000094AA2FB03235B0903F00F03FA6A1343FB
:102CA000FB62FB6A9AB27B681A8100BF3037BD466F
:102CB00080BD00BF003801401F85EB5180B483B058
:102CC00000AF78607B684FF416521A607B68002270
:102CD0009A807B680022DA807B6800221A817B68F8
:102CE0000C225A817B6800229A8100BF0C37BD46B6
:102CF00080BC704780B483B000AF78600B46FB7037
:102D0000FB78002B08D07B689B899BB243F400536F
:102D10009AB27B689A8107E07B689B899BB223F417
:102D200000539AB27B689A8100BF0C37BD4680BCC5
:102D3000704700BF80B487B000AF78600B467B80DF
:102D400013467B7000233B610023FB600023BB60C4
:102D500000237B617B687B617B88DBB25B09DBB234
:102D60003B617B8803F01F03FB600122FB6802FAD2
:102D700003F3BB603B69012B03D17B690C337B619F
:102D800009E03B69022B03D17B6910337B6102E0D0
:102D90007B6914337B617B78002B06D07B697A6971
:102DA0001168BA680A431A6006E07B697A6911689B
:102DB000BA68D2430A401A6000BF1C37BD4680BCC7
:102DC000704700BF80B483B000AF78600B467B8053
:102DD0007B88C3F308039AB27B689A8000BF0C37E4
:102DE000BD4680BC704700BF80B483B000AF786040
:102DF0007B689B889BB2C3F308039BB218460C37D1
:102E0000BD4680BC704700BF80B487B000AF78601B
:102E10000B467B800023FB6000237B610023BB60AB
:102E20000023FB747B88DBB25B09DBB2BB607B8871
:102E300003F01F037B6101227B6902FA03F37B61CC
:102E4000BB68012B07D17B689B899BB21A467B69C3
:102E500013407B6111E0BB68022B07D17B681B8AA2
:102E60009BB21A467B6913407B6106E07B689B8AB4
:102E70009BB21A467B6913407B617B881B0A9BB21D
:102E8000FB600122FB6802FA03F3FB607B681B888E
:102E90009BB21A46FB681340FB607B69002B05D090
:102EA000FB68002B02D00123FB7401E00023FB74BC
:102EB000FB7C18461C37BD4680BC7047ABBE01E0AA
:102EC00000207047002A00D010600120704706984B
:102ED00001884BF6AB62914202D1043006907047F4
:102EE000FEE7000080B400AFFEE700BF80B584B00D
:102EF00000AFF860B9603B601346FB713B8B1A462C
:102F00003968F86800F04CF8FB68FA791A71FB68C8
:102F1000BA681A60FB681B680B4A934205D1FB68CC
:102F20001B79184600F04EF809E0FB681B68074A59
:102F3000934204D1FB681B79184600F08DF800BF5E
:102F40001037BD4680BD00BF00240140002801406D
:102F500080B582B000AF78607B681B680E4A9342F0
:102F600007D17B681B79184600F0C0F803461BB2F6
:102F70000DE07B681B68094A934207D17B681B7987
:102F8000184600F0D9F803461BB200E000231846AB
:102F90000837BD4680BD00BF002401400028014025
:102FA00080B588B000AFF860B9601346FB80FA883E
:102FB00007F114000023B968FFF74EFB00BF20376C
:102FC000BD4680BD80B588B000AF0346FB710020D0
:102FD000FFF73AFA01214FF40070FFF701FB07F108
:102FE0000C031846FFF71CFC4FF460237B6107F1CC
:102FF0000C0319461748FFF7C1FBF9790223012298
:103000001448FFF7B1FC01211248FFF725FC1148D5
:10301000FFF73EFC0F48FFF74BFC0346002B14BFA5
:1030200001230023DBB2002B00D0F3E70948FFF7B0
:1030300057FC0848FFF764FC0346002B14BF01232C
:103040000023DBB2002B00D0F3E700BF2037BD46E2
:1030500080BD00BF0024014080B588B000AF0346AA
:10306000FB710020FFF7F0F901214FF48060FFF7BA
:10307000B7FA07F10C031846FFF7D2FB4FF46023B1
:103080007B6107F10C0319461748FFF777FBF979C5
:10309000022301221448FFF767FC01211248FFF7C1
:1030A000DBFB1148FFF7F4FB0F48FFF701FC034679
:1030B000002B14BF01230023DBB2002B00D0F3E769
:1030C0000948FFF70DFC0848FFF71AFC0346002BE0
:1030D00014BF01230023DBB2002B00D0F3E700BFB5
:1030E0002037BD4680BD00BF0028014080B582B0BA
:1030F00000AF0346FB71F979022301220D48FFF767
:1031000033FC01210B48FFF713FC02210948FFF7AC
:1031100001FD0346002B0CBF01230023DBB2002B73
:1031200000D0F2E70348FFF7E9FC034618460837EA
:10313000BD4680BD0024014080B582B000AF03468B
:10314000FB71F979022301220D48FFF70DFC0121E3
:103150000B48FFF7EDFB02210948FFF7DBFC0346B4
:10316000002B0CBF01230023DBB2002B00D0F2E7C1
:103170000348FFF7C3FC034618460837BD4680BD29
:103180000028014080B487B000AF786000237B61E5
:1031900000233B610F23FB607B68DB78002B3AD078
:1031A000274BDB68DB4303F4E0631B0A7B617B692D
:1031B000C3F104033B61FA687B6922FA03F3FB6005
:1031C0007B685B781A463B6902FA03F37B617B6894
:1031D0009B781A46FB6813407A6913437B617B69CD
:1031E0001B017B61174A7B681B787969C9B213445C
:1031F0000A4683F80023134A7B681B785B09DBB21D
:1032000018467B681B7803F01F03012101FA03F3C2
:1032100042F820300FE00B497B681B785B09DBB27A
:1032200018467B681B7803F01F0301229A4000F1C7
:10323000200341F8232000BF1C37BD4680BC7047E7
:1032400000ED00E000E100E080B485B000AF786000
:103250000B46FB700023FB730023BB8100237B81A3
:1032600000233B81FB7803F00F03012202FA03F3F2
:10327000BB81FB781B09DBB27B817B89012202FACF
:1032800003F37B817B689B889AB27B8913403B81E7
:103290007B681B899AB2BB8913409BB2002B05D077
:1032A0003B89002B02D00123FB7301E00023FB7359
:1032B000FB7B18461437BD4680BC704780B485B090
:1032C00000AF78600B46FB700023FB81FB7803F0B6
:1032D0000F03012202FA03F3FB81FB89DB439AB25D
:1032E0007B681A8100BF1437BD4680BC704700BFA1
:1032F00080B584B000AF786039600023FB60FB6864
:103300003A6813441B78002B0BD0FB683A681344CF
:103310001B781946786800F089F8FB680133FB6078
:10332000EDE700BF1037BD4680BD00BF0EB480B5CD
:10333000A5B000AF786007F1A003C7F88C3007F1A3
:103340000C03D7F88C20D7F89C101846FFF76AF8C2
:1033500007F10C0319467868FFF7CAFF00BF9437DE
:10336000BD46BDE8804003B0704700BF80B586B061
:1033700002AFF860B9607A603B60FB68BA681A60B7
:103380003A8B3B8C0093FB693968F86800F00CF9C4
:10339000FB681B68224A934211D1786800F01EF93D
:1033A00040F2255000F098F940F2277000F094F9AF
:1033B000012240F227711A48FFF7BCFC2CE0FB68A1
:1033C0001B68184A934211D1786800F031F940F235
:1033D000255000F09DF940F2277000F099F9012284
:1033E00040F227710F48FFF7A5FC15E0FB681B684A
:1033F0000D4A934210D1786800F044F940F225500C
:1034000000F0A2F940F2277000F09EF9012240F28C
:1034100027710548FFF78EFC00BF1037BD4680BD01
:1034200000380140004400400048004080B582B0B0
:1034300000AF78600B46FB707B681B684E4A934276
:103440002ED1012240F227714B48FFF773FC4B4B02
:103450001B881A464A4B1B8801339A420CD1474BB2
:103460001B8801339AB2454B1A80444B1B887F2B33
:1034700002D9424B00221A80414B1B881946414A0F
:10348000FB7853543E4B1B8801339AB23C4B1A8055
:103490003B4B1B887F2B6AD9394B00221A8066E090
:1034A0007B681B68384A93422ED1012240F2277173
:1034B0003548FFF73FFC354B1B881A46344B1B88B9
:1034C00001339A420CD1314B1B8801339AB22F4BF6
:1034D0001A802E4B1B887F2B02D92C4B00221A807E
:1034E0002B4B1B8819462B4AFB785354284B1B88BF
:1034F00001339AB2264B1A80254B1B887F2B36D975
:10350000234B00221A8032E07B681B68224A9342D8
:103510002DD1012240F227711F48FFF70BFC1F4BF2
:103520001B881A461E4B1B8801339A420CD11B4B39
:103530001B8801339AB2194B1A80184B1B887F2BBA
:1035400002D9164B00221A80154B1B881946154AC2
:10355000FB785354124B1B8801339AB2104B1A80DC
:103560000F4B1B887F2B02D90D4B00221A8000BF06
:103570000837BD4680BD00BF003801409C020020D6
:103580009E0200201C020020004400402003002076
:1035900022030020A002002000480040A4030020D5
:1035A000A60300202403002080B58AB000AFF86095
:1035B000B9603B601346FB80FA8807F11C001823B2
:1035C000B968FFF749F83A8E07F1100048233968C7
:1035D000FFF742F800BF2837BD4680BD80B586B0F2
:1035E00000AF786001214FF48040FEF7F9FF07F14A
:1035F00008031846FFF762FB7B68BB600C237B82E5
:1036000000233B824FF40053FB810023BB8107F171
:10361000080319460548FFF797FA01210348FFF709
:1036200069FB00BF1837BD4680BD00BF00380140B0
:1036300080B586B000AF786001214FF40030FEF70E
:10364000EDFF07F108031846FFF738FB7B68BB6006
:103650000C237B8200233B824FF40053FB81002329
:10366000BB8107F1080319460548FFF76DFA0121F0
:103670000348FFF73FFB00BF1837BD4680BD00BFC2
:103680000044004080B586B000AF786001214FF45F
:103690008020FEF7C3FF07F108031846FFF70EFB73
:1036A0007B68BB600C237B8200233B824FF400537A
:1036B000FB810023BB8107F1080319460548FFF78A
:1036C00043FA01210348FFF715FB00BF1837BD4639
:1036D00080BD00BF0048004080B584B000AF034605
:1036E000FB8025233B730023BB730123FB7307F18E
:1036F0000C031846FFF746FDFB88012219460348D4
:10370000FFF718FB00BF1037BD4680BD00380140F1
:1037100080B584B000AF0346FB8026233B730023B3
:10372000BB730123FB7307F10C031846FFF72AFD57
:10373000FB88012219460348FFF7FCFA00BF103747
:10374000BD4680BD0044004080B584B000AF034654
:10375000FB8027233B730023BB730123FB7307F11B
:103760000C031846FFF70EFDFB880122194603489B
:10377000FFF7E0FA00BF1037BD4680BD00480040AB
:1037800090B583B000AF40F225513148FFF73CFBC4
:103790000346012B0CBF01230023DBB2002B22D0F8
:1037A0002B48FFF721FB0346FB71FB799BB21946BF
:1037B0002748FFF707FB274B1B881C462448FFF7C9
:1037C00013FB0346DAB2244B1A55224B1B880133F4
:1037D0009AB2204B1A801F4B1B881F2B34D91D4BCC
:1037E00000221A8030E040F227711948FFF70CFBE5
:1037F0000346002B14BF01230023DBB2002B23D090
:10380000164B1A88164B1B889A4217D0144B1B88EC
:103810001A46144B9B5C9BB219460D48FFF7D2FA2F
:103820000F4B1B8801339AB20D4B1A800C4B1B882F
:103830007F2B09D90A4B00221A8005E0002240F2B2
:1038400027710348FFF776FA00BF0C37BD4690BDDD
:103850000038014028000020B00100209E02002016
:103860009C0200201C02002090B583B000AF40F203
:1038700025513148FFF7C8FA0346012B0CBF01233D
:103880000023DBB2002B22D02B48FFF7ADFA034612
:10389000FB71FB799BB219462748FFF793FA274B38
:1038A0001B881C462448FFF79FFA0346DAB2244BD4
:1038B0001A55224B1B8801339AB2204B1A801F4B9A
:1038C0001B881F2B34D91D4B00221A8030E040F298
:1038D00027711948FFF798FA0346002B14BF0123FC
:1038E0000023DBB2002B23D0164B1A88164B1B8803
:1038F0009A4217D0144B1B881A46144B9B5C9BB200
:1039000019460D48FFF75EFA0F4B1B8801339AB238
:103910000D4B1A800C4B1B887F2B09D90A4B0022B8
:103920001A8005E0002240F227710348FFF702FAEF
:1039300000BF0C37BD4690BD004400402A00002067
:10394000D40100202203002020030020A002002038
:1039500090B583B000AF40F225513148FFF754FADB
:103960000346012B0CBF01230023DBB2002B22D026
:103970002B48FFF739FA0346FB71FB799BB21946D6
:103980002748FFF71FFA274B1B881C462448FFF7E0
:103990002BFA0346DAB2244B1A55224B1B8801330B
:1039A0009AB2204B1A801F4B1B881F2B34D91D4BFA
:1039B00000221A8030E040F227711948FFF724FAFC
:1039C0000346002B14BF01230023DBB2002B23D0BE
:1039D000164B1A88164B1B889A4217D0144B1B881B
:1039E0001A46144B9B5C9BB219460D48FFF7EAF947
:1039F0000F4B1B8801339AB20D4B1A800C4B1B885E
:103A00007F2B09D90A4B00221A8005E0002240F2E0
:103A100027710348FFF78EF900BF0C37BD4690BDF4
:103A2000004800402C000020F8010020A6030020E0
:103A3000A40300202403002081F0004102E000BF25
:103A400083F0004330B54FEA41044FEA430594EA5E
:103A5000050F08BF90EA020F1FBF54EA000C55EA99
:103A6000020C7FEA645C7FEA655C00F0E2804FEA6A
:103A70005454D4EB5555B8BF6D420CDD2C4480EA4C
:103A8000020281EA030382EA000083EA010180EA7C
:103A9000020281EA0303362D88BF30BD11F0004FCA
:103AA0004FEA01314FF4801C4CEA113102D0404200
:103AB00061EB410113F0004F4FEA03334CEA13333B
:103AC00002D0524263EB430394EA050F00F0A78053
:103AD000A4F10104D5F1200E0DDB02FA0EFC22FA4E
:103AE00005F2801841F1000103FA0EF2801843FA42
:103AF00005F359410EE0A5F120050EF1200E012A33
:103B000003FA0EFC28BF4CF0020C43FA05F3C01870
:103B100051EBE37101F0004507D54FF0000EDCF1E9
:103B2000000C7EEB00006EEB0101B1F5801F1BD392
:103B3000B1F5001F0CD349085FEA30004FEA3C0C96
:103B400004F101044FEA445212F5800F80F09A808C
:103B5000BCF1004F08BF5FEA500C50F1000041EB90
:103B6000045141EA050130BD5FEA4C0C404141EB94
:103B7000010111F4801FA4F10104E9D191F0000FBB
:103B800004BF01460020B1FA81F308BF2033A3F13E
:103B90000B03B3F120020CDA0C3208DD02F1140C35
:103BA000C2F10C0201FA0CF021FA02F10CE002F170
:103BB0001402D8BFC2F1200C01FA02F120FA0CFC69
:103BC000DCBF41EA0C019040E41AA2BF01EB0451B2
:103BD000294330BD6FEA04041F3C1CDA0C340EDCB0
:103BE00004F11404C4F1200220FA04F001FA02F3F3
:103BF00040EA030021FA04F345EA030130BDC4F1B1
:103C00000C04C4F1200220FA02F001FA04F340EAA5
:103C10000300294630BD21FA04F0294630BD94F056
:103C2000000F83F4801306BF81F480110134013D3D
:103C30004EE77FEA645C18BF7FEA655C29D094EAAE
:103C4000050F08BF90EA020F05D054EA000C04BF2C
:103C50001946104630BD91EA030F1EBF0021002017
:103C600030BD5FEA545C05D14000494128BF41F0B6
:103C7000004130BD14F580043CBF01F5801130BD1A
:103C800001F0004545F0FE4141F470014FF00000A5
:103C900030BD7FEA645C1ABF194610467FEA655C56
:103CA0001CBF0B46024650EA013406BF52EA0335F8
:103CB00091EA030F41F4002130BD00BF90F0000FE6
:103CC00004BF0021704730B54FF4806404F1320422
:103CD0004FF000054FF0000150E700BF90F0000FDB
:103CE00004BF0021704730B54FF4806404F1320402
:103CF00010F0004548BF40424FF000013EE700BFD2
:103D000042004FEAE2014FEA31014FEA02701FBF61
:103D100012F07F4393F07F4F81F06051704792F033
:103D2000000F14BF93F07F4F704730B54FF46074AD
:103D300001F0004521F0004120E700BF50EA0102F8
:103D400008BF704730B54FF000050AE050EA0102A5
:103D500008BF704730B511F0004502D5404261EB15
:103D600041014FF4806404F132045FEA915C3FF456
:103D7000DCAE4FF003025FEADC0C18BF03325FEAEF
:103D8000DC0C18BF033202EBDC02C2F1200300FAA4
:103D900003FC20FA02F001FA03FE40EA0E0021FAC9
:103DA00002F11444C1E600BF70B54FF0FF0C4CF4B3
:103DB000E06C1CEA11541DBF1CEA135594EA0C0F69
:103DC00095EA0C0F00F0DEF82C4481EA030621EAA4
:103DD0004C5123EA4C5350EA013518BF52EA0335DF
:103DE00041F4801143F4801338D0A0FB02CE4FF091
:103DF0000005E1FB02E506F00042E0FB03E54FF0C1
:103E00000006E1FB03569CF0000F18BF4EF0010EB8
:103E1000A4F1FF04B6F5007F64F5407404D25FEAB4
:103E20004E0E6D4146EB060642EAC62141EA555167
:103E30004FEAC52040EA5E504FEACE2EB4F1FD0CA9
:103E400088BFBCF5E06F1ED8BEF1004F08BF5FEA27
:103E5000500E50F1000041EB045170BD06F00046D9
:103E600046EA010140EA020081EA0301B4EB5C0486
:103E7000C2BFD4EB0C0541EA045170BD41F480117E
:103E80004FF0000E013C00F3AB8014F1360FDEBFA3
:103E9000002001F0004170BDC4F10004203C35DA7F
:103EA0000C341BDC04F11404C4F1200500FA05F302
:103EB00020FA04F001FA05F240EA020001F00042A3
:103EC00021F0004110EBD37021FA04F642EB060119
:103ED0005EEA430E08BF20EAD37070BDC4F10C0443
:103EE000C4F1200500FA04F320FA05F001FA04F207
:103EF00040EA020001F0004110EBD37041F10001F3
:103F00005EEA430E08BF20EAD37070BDC4F12005FD
:103F100000FA05F24EEA020E20FA04F301FA05F265
:103F200043EA020321FA04F001F0004121FA04F20D
:103F300020EA020000EBD3705EEA430E08BF20EADD
:103F4000D37070BD94F0000F0FD101F00046400017
:103F500041EB010111F4801F08BF013CF7D041EA99
:103F6000060195F0000F18BF704703F0004652009D
:103F700043EB030313F4801F08BF013DF7D043EA6E
:103F80000603704794EA0C0F0CEA135518BF95EA24
:103F90000C0F0CD050EA410618BF52EA4306D1D1AB
:103FA00081EA030101F000414FF0000070BD50EACA
:103FB000410606BF1046194652EA430619D094EA54
:103FC0000C0F02D150EA013613D195EA0C0F05D13E
:103FD00052EA03361CBF104619460AD181EA030192
:103FE00001F0004141F0FE4141F470014FF000004A
:103FF00070BD41F0FE4141F4780170BD70B54FF0E5
:10400000FF0C4CF4E06C1CEA11541DBF1CEA135564
:1040100094EA0C0F95EA0C0F00F0A7F8A4EB050446
:1040200081EA030E52EA03354FEA013100F088803D
:104030004FEA03334FF0805545EA131343EA126306
:104040004FEA022245EA111545EA10654FEA0026BB
:104050000EF000419D4208BF964244F1FD0404F574
:10406000407402D25B084FEA3202B61A65EB0305D0
:104070005B084FEA32024FF480104FF4002CB6EB8D
:10408000020E75EB030E22BFB61A754640EA0C000D
:104090005B084FEA3202B6EB020E75EB030E22BF4D
:1040A000B61A754640EA5C005B084FEA3202B6EB8E
:1040B000020E75EB030E22BFB61A754640EA9C004D
:1040C0005B084FEA3202B6EB020E75EB030E22BF1D
:1040D000B61A754640EADC0055EA060E18D04FEADB
:1040E000051545EA16754FEA06164FEAC30343EA7B
:1040F00052734FEAC2025FEA1C1CC0D111F4801F48
:104100000BD141EA00014FF000004FF0004CB6E740
:1041100011F4801F04BF01430020B4F1FD0C88BFDF
:10412000BCF5E06F3FF6AFAEB5EB030C04BFB6EBEA
:10413000020C5FEA500C50F1000041EB045170BDDD
:104140000EF0004E4EEA113114EB5C04C2BFD4EB0A
:104150000C0541EA045170BD41F480114FF0000E8E
:10416000013C90E645EA060E8DE60CEA135594EA0A
:104170000C0F08BF95EA0C0F3FF43BAF94EA0C0F0D
:104180000AD150EA01347FF434AF95EA0C0F7FF482
:1041900025AF104619462CE795EA0C0F06D152EAD6
:1041A00003353FF4FDAE1046194622E750EA4106BA
:1041B00018BF52EA43067FF4C5AE50EA41047FF4CB
:1041C0000DAF52EA43057FF4EBAE12E780F00040FA
:1041D00002E000BF81F0004142001FBF5FEA4103DF
:1041E00092EA030F7FEA226C7FEA236C6AD04FEADF
:1041F0001262D2EB1363C1BFD21841404840414024
:10420000B8BF5B42192B88BF704710F0004F40F4D5
:10421000000020F07F4018BF404211F0004F41F4F1
:10422000000121F07F4118BF494292EA030F3FD0BD
:10423000A2F1010241FA03FC10EB0C00C3F12003D0
:1042400001FA03F100F0004302D5494260EB40005F
:10425000B0F5000F13D3B0F1807F06D340084FEACA
:10426000310102F10102FE2A51D2B1F1004F40EBBF
:10427000C25008BF20F0010040EA03007047490027
:1042800040EB000010F4000FA2F10102EDD1B0FAF2
:1042900080FCACF1080CB2EB0C0200FA0CF0AABFE7
:1042A00000EBC25052421843BCBFD0401843704785
:1042B00092F0000F81F4000106BF80F4000001328B
:1042C000013BB5E74FEA41037FEA226C18BF7FEA62
:1042D000236C21D092EA030F04D092F0000F08BFA4
:1042E0000846704790EA010F1CBF0020704712F08B
:1042F0007F4F04D1400028BF40F00040704712F1CA
:1043000000723CBF00F50000704700F0004343F02E
:10431000FE4040F4000070477FEA226216BF084664
:104320007FEA23630146420206BF5FEA412390EA27
:10433000010F40F4800070474FF0000304E000BF1D
:1043400010F0004348BF40425FEA000C08BF7047CE
:1043500043F0964301464FF000001CE050EA010292
:1043600008BF70474FF000030AE000BF50EA0102A7
:1043700008BF704711F0004302D5404261EB410194
:104380005FEA010C02BF84460146002043F0B643B9
:1043900008BFA3F18053A3F50003BCFA8CF2083ADE
:1043A000A3EBC25310DB01FA02FC634400FA02FCE7
:1043B000C2F12002BCF1004F20FA02F243EB0200EE
:1043C00008BF20F00100704702F1200201FA02FC50
:1043D000C2F1200250EA4C0021FA02F243EB020043
:1043E00008BF20EADC7070474FF0FF0C1CEAD05287
:1043F0001EBF1CEAD15392EA0C0F93EA0C0F6FD048
:104400001A4480EA010C400218BF5FEA41211ED025
:104410004FF0006343EA501043EA5111A0FB013111
:104420000CF00040B1F5000F3EBF490041EAD371E6
:104430005B0040EA010062F17F02FD2A1DD8B3F162
:10444000004F40EBC25008BF20F00100704790F0D1
:10445000000F0CF0004C08BF49024CEA502040EA23
:1044600051207F3AC2BFD2F1FF0340EAC2507047E9
:1044700040F400004FF00003013A5DDC12F1190F27
:10448000DCBF00F000407047C2F10002410021FA99
:1044900002F1C2F1200200FA02FC5FEA310040F1B1
:1044A000000053EA4C0308BF20EADC70704792F02A
:1044B000000F00F0004C02BF400010F4000F013A62
:1044C000F9D040EA0C0093F0000F01F0004C02BF5D
:1044D000490011F4000F013BF9D041EA0C018FE7CC
:1044E0000CEAD15392EA0C0F18BF93EA0C0F0AD0D2
:1044F00030F0004C18BF31F0004CD8D180EA0100F8
:1045000000F00040704790F0000F17BF90F0004F90
:10451000084691F0000F91F0004F14D092EA0C0F72
:1045200001D142020FD193EA0C0F03D14B0218BF05
:10453000084608D180EA010000F0004040F0FE404B
:1045400040F40000704740F0FE4040F440007047E7
:104550004FF0FF0C1CEAD0521EBF1CEAD15392EA66
:104560000C0F93EA0C0F69D0A2EB030280EA010C56
:1045700049024FEA402037D04FF0805343EA1111EF
:1045800043EA10130CF000408B4238BF5B0042F14D
:104590007D024FF4000C8B4224BF5B1A40EA0C00F2
:1045A000B3EB510F24BFA3EB510340EA5C00B3EB24
:1045B000910F24BFA3EB910340EA9C00B3EBD10F12
:1045C00024BFA3EBD10340EADC001B0118BF5FEA64
:1045D0001C1CE0D1FD2A3FF650AF8B4240EBC2508D
:1045E00008BF20F0010070470CF0004C4CEA50204E
:1045F0007F32C2BFD2F1FF0340EAC250704740F49D
:1046000000004FF00003013A37E792F0000F00F08E
:10461000004C02BF400010F4000F013AF9D040EA0C
:104620000C0093F0000F01F0004C02BF490011F4A0
:10463000000F013BF9D041EA0C0195E70CEAD15398
:1046400092EA0C0F08D142027FF47DAF93EA0C0F7F
:104650007FF470AF084676E793EA0C0F04D14B0263
:104660003FF44CAF08466EE730F0004C18BF31F015
:10467000004CCAD130F000427FF45CAF31F000430F
:104680007FF43CAF5FE700BF42000ED2B2F1FE4FB5
:104690000BD34FF09E03B3EB126209D44FEA002311
:1046A00043F0004323FA02F070474FF000007047D8
:1046B00012F1610F01D1420202D14FF0FF30704779
:1046C0004FF00000704700BF53B94AB9002908BF36
:1046D00000281CBF4FF0FF314FF0FF3001F018B938
:1046E000ADF1080C6DE904CE00F02AF8DDF804E025
:1046F000DDE9022304B07047D0B500220E4B064618
:104700000F46FFF751FB01F005F90446FFF7D6FA13
:1047100000220A4BFFF748FB02460B46304639465B
:10472000FFF78EF901F0F6F82346002242EA000274
:1047300010461946D0BD00BF0000F03D0000F0411A
:104740002DE9F04F8C460C460546099E002B4FD1B3
:104750008A4217466BD9B2FA82FEBEF1000F0BD027
:10476000CEF1200520FA05F501FA0EF345EA030C17
:1047700002FA0EF700FA0EF5390CBCFBF1F0BAB2F2
:1047800001FB10C300FB02F84FEA154C4CEA03444E
:10479000A04509D9E41900F1FF3380F02881A04534
:1047A00040F2258102383C44C8EB0404B4FBF1F329
:1047B00001FB134C03FB02F2ACB244EA0C418A4207
:1047C00009D9C91903F1FF3480F00F818A4240F200
:1047D0000C81023B39448A1A43EA00400021002E32
:1047E00063D022FA0EF2002386E80C00BDE8F08FB9
:1047F0008B4207D9002E56D0002186E811000846CA
:10480000BDE8F08FB3FA83F1002940F09380A34212
:1048100002D3824200F2FE80851A64EB03039C46B9
:104820000120002E41D086E82010BDE8F08F12B99B
:104830000127B7FBF2F7B7FA87FEBEF1000F36D1BA
:10484000E41B4FEA17481FFA87F90121B4FBF8F37C
:1048500008FB134409FB03F24FEA154C4CEA0444ED
:10486000A24207D9E41903F1FF3002D2A24200F2BA
:10487000D3800346A41AB4FBF8F008FB104809FBE8
:1048800000F9ACB244EA0842914507D9D21900F1C7
:10489000FF3402D2914500F2BA802046C9EB0202F1
:1048A00040EA03409BE731463046BDE8F08F07FA07
:1048B0000EF7CEF1200C24FA0CF34FEA1748B3FBA5
:1048C000F8FA1FFA87F908FB1A3520FA0CFC04FAEB
:1048D0000EF40AFB09FB4CEA040C4FEA1C4242EAC4
:1048E00005439B4500FA0EF50AD9DB190AF1FF32A0
:1048F00080F08B809B4540F28880AAF1020A3B44FD
:10490000CBEB0303B3FBF8F008FB103300FB09F417
:104910001FFA8CFC4CEA03439C4207D9DB1900F1D7
:10492000FF326ED29C426CD902383B441C1B40EAD9
:104930000A418BE7C1F1200E8B4022FA0EFC4CEAB3
:10494000030C24FA0EF74FEA1C49B7FBF9FA1FFAD9
:104950008CF309FB1A7720FA0EF88C400AFB03F55A
:1049600048EA04044FEA144848EA0747BD4202FAFD
:1049700001F200FA01FB09D917EB0C070AF1FF302D
:1049800041D2BD423FD9AAF1020A67447F1BB7FB5F
:10499000F9F509FB157705FB03F3A4B244EA0747D1
:1049A000BB4208D917EB0C0705F1FF3027D2BB42F9
:1049B00025D9023D674445EA0A40A0FB0289FF1A57
:1049C0004F4545464C4614D329D066B3BBEB05038F
:1049D00067EB040707FA0EFECB40CF404EEA030315
:1049E00086E888000021BDE8F08F2346F3E61846EC
:1049F000DAE6B8EB020569EB0C040138E5E7054699
:104A0000D9E7104692E78246C0E7924678E7023837
:104A10003A4443E7084604E7023B3C442AE7C345DF
:104A2000E7D33C46D1E73146BDE8F08F03685A0032
:104A30004CBF43F0004323F000431844704700BFCD
:104A400061B32DE9F84F01F1FF3A90460646D14691
:104A5000002707EB090404EBD4746410E500711916
:104A60000846FFF7E3FFA245834605F108003044FE
:104A700009D0FFF7DBFFC34500F1FF3005D8404503
:104A800009D2671CE5E7C34505D9A74202D004F166
:104A9000FF39DEE700210846BDE8F88F0846704779
:104AA000012807D0022807D0044B00280CBF184665
:104AB000002070470248704702487047B55100080F
:104AC000B9510008BD51000830B5254B83B00446EC
:104AD0008D1E7BB301A92846AFF3008020B3019956
:104AE0002A46FFF7ADFF0146F0B1FFF79FFF4B6885
:104AF000A064012B12D0002B01F1040021DBFFF791
:104B000095FF0023E06423650368002B1DDBFFF79E
:104B10008DFF00232061184603B030BD00232361C0
:104B20000523184603B030BD00232361092318462E
:104B300003B030BD0B490C4B0846591AC9100191FE
:104B4000CEE70123E0642365DEE7C3F30360FFF7EC
:104B5000A7FF0028206114BF00230923DBE700BF63
:104B600000000000B85C0008E85E0008036810B5AB
:104B7000DA07044606D49B0700F1480009D500F087
:104B80005BFC2368590709D51A070ED5DB0613D538
:104B900010BD00F049FC23685907F5D404F1D0009A
:104BA00000F052FC23681A07F0D404F5A87000F056
:104BB00053FC2368DB06EBD404F5E870BDE8104035
:104BC00000F08EBC03680BB118447047184670475C
:104BD00009207047704700BF70B504460D4608E0D5
:104BE0002A6C2369626121462A46012098470828D9
:104BF00008D1296C2046FFF767FF06460028EFD052
:104C0000FEF770F90728FBD13046296CFFF7E2FF69
:104C1000281D00F0FDFB00BF2DE9F0470646ADF56D
:104C2000727D03AD0C1D17460FCC0FC50FCC0FC501
:104C30000FCC0FC594E80F0002ACD6F80C80D6F864
:104C4000189085E80F0000233046216C2360FFF7A1
:104C50003BFF0546002F14BF0A2709277DB1A36B30
:104C600047F010018DE8100232466364012033469C
:104C7000C04778BB28460DF5727DBDE8F087236CF0
:104C80004FF4F072736121467AA800F063FE336935
:104C90007AAA314638469847889B82468DE81002AA
:104CA00039466364324633460120C04790B94FF419
:104CB000F0727AA9204600F04DFEBAF1080F06D135
:104CC000216C3046FFF700FF09270546C6E7BAF119
:104CD000070F04D009200DF5727DBDE8F087284646
:104CE000216CFFF777FF03A800F092FB406C704740
:104CF000F0B5CB6BF9B00B640E1D01AD0F46044649
:104D00000FCE0FC50FCE0FC50FCE0FC596E80F0003
:104D10004FF0FF3685E80F00009606E023696A46EB
:104D2000214698470828054608D110992046FFF7E4
:104D3000CBFE0028F2D0092079B0F0BD6846FFF71D
:104D400015FF062DF7D139462046FFF745FF00BF76
:104D500030B4DD6BC160826119461D64002230BC35
:104D60005AE700BF70B54369C6680B6426B10122DB
:104D7000FFF752FFFEF7B6F803690A4604460D46F0
:104D8000014602209847072807D0082803D1294662
:104D90002046FFF721FFFEF7A5F83046296CFFF704
:104DA00019FF281D00F034FBC2682AB110B4CC6B87
:104DB00000220C6410BC2FE79AE700BF704700BFC9
:104DC000836813B1014601201847704700B50429D4
:104DD00007D8DFE801F00309060909000BB90F2A1B
:104DE00005D902205DF804FB01205DF804FB00EB0F
:104DF000820252681846019B1A605DF804FB00BFEE
:104E000010B584B0002303AC0A4600941946FFF79E
:104E1000DDFF039804B010BD00B5042907D8DFE812
:104E200001F00309060909000BB90F2A05D9022070
:104E30005DF804FB01205DF804FB019900EB8202A0
:104E40000968184651605DF804FB00BF10B584B0D6
:104E500004AC44F8042D00230A4600941946FFF7D9
:104E6000DBFF04B010BD00BFF0B5D36BADF50F7D17
:104E70001364151D17AC07460E460FCD0FC40FCD9A
:104E80000FC40FCD0FC495E80F004FF0FF3584E835
:104E90000F00169511E016A86A46FFF7D7FF3146B6
:104EA00016A8B84780B9049B16AA694608209847F7
:104EB0000528044609D0092806D026996846FFF738
:104EC00003FE0C210028E6D0092416A8FFF74EFEA9
:104ED00020460DF50F7DF0BD2DE9F04FCC6C9146CD
:104EE00022688BB004340D460792089400F0030B3F
:104EF0001E46002B64D11202032307928DF8256011
:104F00008DF824302B6DBBF1020F08BFAC6B13F092
:104F1000010343D100F00800C2B203920193276855
:104F2000002F3DD0022E47D02788B4F802800434E9
:104F3000AB6C28F0010A0F2148469A44FFF760FF46
:104F4000824537D827F001039A4450452CBF0020F2
:104F500001204FEA480808F0020807F0010748EA74
:104F60000708B8F1010F41D038D3B8F1020F1DD1B5
:104F7000236823F000420292BBF1000F79D130B1D7
:104F80000399002900F08180002A00F0A880002BFE
:104F900079DB029B013304EB8304C0E70023019318
:104FA000022E40DDFFF714FE002842D009200BB08E
:104FB000BDE8F08F0020CCE7D4F804800834B7E7D0
:104FC000022B9FDC130CD9B212048DF8253002237A
:104FD00004EB810407928DF8243093E7BBF1000FB6
:104FE00002D0002840F0B080043498E7BBF1000FF5
:104FF00026D1B0B194E80C00991C4FEAD272D5D0FA
:1050000005F158010133069100F09480201DFFF74F
:10501000D9FD06AB01462846AFF30080002840F0DA
:10502000B88008347BE707A9484600F0F3FA002867
:10503000BCD1019B002B5CD108200BB0BDE8F08FE8
:105040000D2148462F6AFFF7DBFE8742E9D1AB6AA4
:105050009C42E6D12046FFF7E9FC0F210246484674
:10506000FFF7F4FE48462A460021FFF7EFFE07202F
:105070009DE70D2148462F6AFFF7C2FE874248D0C0
:105080002368002B85DA043483E7029B3BB305F1E8
:105090005803271DCDF810B0DDF80C80A346DDF8CD
:1050A00008A01C46059602E0B245B04616D0384628
:1050B0000694FFF787FD06AB014600222846AFF3B2
:1050C000008008F1010604370028EDD0029B5C4601
:1050D0004345DDF810B0059ED2D100E05C4648465D
:1050E0000D21FFF78DFE069B2862AC626B620620E5
:1050F0005DE70F214846FFF783FE0E210246484632
:10510000FFF7A4FE48462A4A0F21FFF79FFE07201B
:105110004DE7AB6A9C42B3D1042202990027A31841
:10512000A962EF622A636B632368BB421FDB012322
:1051300001932EE748460D21FFF762FE2862069B89
:105140006B62AC62062032E72046FFF76FFC043446
:105150000646AC632846AFF3008000283FF426AF34
:10516000484632460F21FFF771FE07201FE7084629
:10517000013004EB8000FFF759FC0F21024648463E
:10518000FFF764FE48462A463946FFF75FFE0720D0
:105190000DE707460D214846FFF732FE022F286231
:1051A000CDD12B46069A43F82C2F6B62C9E700BF7E
:1051B0000000000000238FE601238DE602238BE62A
:1051C000F0B50446C5B004290DD8DFE801F0570357
:1051D0000C310F00012B4FEA124695B266D17219BD
:1051E000102A40F29F80022045B0F0BD002BFAD17A
:1051F000102AF8D82368D80600F1C98022AE3046BC
:10520000019200F077F9A06B019A0023012505FABD
:1052100003F1114203D00168043046F82310013332
:10522000042BF4D1A063304600F05AF90020DBE7EC
:10523000032BD8D1150C97B2EB19102BD3D82368B8
:105240001E0700F1B88022AE30467F0000F026F93C
:1052500006EBC5027B1EA56B57B12946043A51F8EF
:10526000040B013B42F8040F581CF8D105EB8705ED
:105270003046A56300F0F0F80020B5E7002BB2D16E
:10528000A56B97B2201D012606FA03F1394203F1FE
:10529000010302D0296804350160102B00F10400DD
:1052A000F2D112F400503BD1A5639DE7052B9AD1B2
:1052B0007719202F97D80F2E65D92F46002D48D16A
:1052C0002A460027002AA06B71DD00EBC2020146CE
:1052D00044A800EBC6008C3851F8045B914240F8BA
:1052E000045FF9D1084697B13246102E44A938BF61
:1052F000102201EBC202A2F5C4727900043A00EB5D
:10530000810150F8045B814242F8045FF9D1012B1E
:1053100047D00F2EA16332D917B102A800F094F83C
:10532000002061E70F2E3FF65EAF00272268D1070D
:105330000DD522F00101052B21600193204652D0AA
:1053400022F0030240F8482B00F072F8019B002F76
:1053500051D02268510736D4012B3ED00F2E06D8EB
:1053600022A8019300F06CF8019B002FA8D002A89E
:10537000019300F06DF8019BC6F11002A2E722A88C
:1053800000F05AF8C8E7102FCFD9103FCEE723F02E
:105390001003236004F5E870019200F0ABF8019A65
:1053A0002CE70431A16322A800F03EF8B8E7002FF3
:1053B0009AD10146ABE723F00803236004F5A870F7
:1053C00000F06CF83FE7204622F0040240F8D02BB2
:1053D000019300F03DF8019BBEE722A8019300F085
:1053E00027F8019BC8E741F0020140F8481B00F094
:1053F00027F8019BABE7012B03D00F2E3FF660AFE0
:10540000AEE722A8019300F013F8019B58E700BF14
:1054100000F1340191E838009C46A6464CF8045D42
:1054200090E8FF0FE54600BD90EC210B704700BFF0
:1054300080EC210B704700BF90EC200B704700BF41
:1054400080EC200B704700BFD0EC200B704700BFF2
:10545000C0EC200B704700BFF0EC0201F0EC021131
:10546000F0EC0221F0EC0231F0EC0241F0EC0251E0
:10547000F0EC0261F0EC0271F0EC0281F0EC0291D0
:10548000F0EC02A1F0EC02B1F0EC02C1F0EC02D1C0
:10549000F0EC02E1F0EC02F1704700BFE0EC020139
:1054A000E0EC0211E0EC0221E0EC0231E0EC024120
:1054B000E0EC0251E0EC0261E0EC0271E0EC028110
:1054C000E0EC0291E0EC02A1E0EC02B1E0EC02C100
:1054D000E0EC02D1E0EC02E1E0EC02F1704700BF49
:1054E000B0FC0181B0FC0191B0FC01A1B0FC01B1A4
:1054F000704700BFA0FC0181A0FC0191A0FC01A1AC
:10550000A0FC01B1704700BFEC4600B52DE900508A
:105510002DE9FF1F4FF000032DE90C0001A9FFF753
:10552000E7FBDDF840E012B0704700BFEC4600B585
:105530002DE900502DE9FF1F4FF000032DE90C006D
:1055400001A9FFF70FFCDDF840E012B0704700BF83
:10555000EC4600B52DE900502DE9FF1F4FF0000388
:105560002DE90C0001A9FFF71FFCDDF840E012B0A7
:10557000704700BFEC4600B52DE900502DE9FF1F34
:105580004FF000032DE90C0001ABFFF7E1FBDDF864
:1055900040E012B0704700BFEC4600B52DE9005066
:1055A0002DE9FF1F4FF000032DE90C0001AAFFF7C2
:1055B0005BFCDDF840E012B0704700BF037A1BB916
:1055C000437A43B9B02070475A1E036802721A0228
:1055D0000260180E70474268013B10B443721368B2
:1055E0000321141D01721A024460026010BC180EDF
:1055F000704700BF00B585B003AA0023009219468A
:105600000C22FFF7E3FB039805B05DF804FB00BF35
:10561000F0E700BF2DE9F04306460D4685B04FF098
:1056200000082846FFF7CAFFB028044600F0B480FF
:1056300020F07F0313F0FF0320D000F0F003802B55
:105640007AD0902B35D0A02B48D0B02B5CD0C02B7B
:1056500000F0898000F0F803D02B0BD100F0070296
:10566000013242F40022052301213046FFF7A8FD54
:105670000028D6D0092005B0BDE8F0830DF10C0953
:1056800019468700CDF800900D223046FFF79EFBAB
:10569000FFB2039B043760064CBFDF1BFF180023DB
:1056A000CDF8009019460D2230460397FFF7B4FB62
:1056B000B7E700F00D030D2BDCD003AF002300F0A3
:1056C0000F02194600973046FFF780FB0023009732
:1056D00019460D223046FFF79FFBA2E7C2434FF465
:1056E0007F6302F0070243FA02F2010702EA0302B3
:1056F0004FF0000348BF42F4804219463046FFF79E
:105700005FFD0028B6D18CE7B1284AD0B22853D02B
:10571000B32800F0818000F0FC03B42BAAD000F085
:1057200007020132012342F4002219463046FFF7F6
:1057300047FD00289ED174E72846FFF73FFF24026B
:105740002043B0F5004F95D004010023A2B21946C2
:105750003046FFF735FD00288CD114F4004F18BFF8
:105760004FF001085DE7C62862D0C7286CD000F072
:10577000F803C02B7BD0C82800F09180C9287FF4A3
:1057800079AF2846FFF71AFF020300F00F0002F47A
:1057900070220130024366E7B8F1000F6ED000209E
:1057A00069E72846FFF70AFF024600283FF462AF88
:1057B00010F0F003B9D05DE700230DF10C090D22C4
:1057C0001946CDF800903046FFF700FB2846FFF75A
:1057D000F5FE02064FF002040CD5039B00F07F009B
:1057E000A040034428460393FFF7E8FE030604F1B4
:1057F0000704F2D4039B00F07F0000FA04F203F5E3
:10580000017400231444CDF8009019460D2230464F
:105810000394FFF701FB04E72846FFF7CFFE0103DF
:1058200000F00F0001F47021421C01230A437CE7C1
:105830002846FFF7C3FE010300F00F0001F47021BA
:10584000421C03230A4370E72846FFF7B7FE0246CF
:1058500000283FF40FAF10F0F0037FF40BAF0421EA
:105860003046FFF7ADFC00287FF404AFD9E600F026
:105870000F020132032342F4202256E703AC4346D1
:105880000E22414600943046FFF7A0FA00943046BD
:1058900043460F224146FFF7BFFA4046EBE6284653
:1058A000FFF78CFE00F0F00200F00F03103201331E
:1058B00043EA0232D7E600BF10B5C36C84B00320C0
:1058C0005A688DF80C00DC7912020833084601A9E9
:1058D00001928DF80D400293FFF79CFE04B010BDBD
:1058E00008B5FFF795FE806C08BD00BF08B5FFF74F
:1058F0008FFEC36CD87903EB8000083008BD00BF71
:1059000008B5FDF7EFFA00BF08B5FFF7F9FF00BFD4
:10591000704700BF4A0011D212F5001211D20DD506
:105920006FF47873B3EB62520ED44FEAC12343F0A5
:10593000004343EA505323FA02F070474FF000004F
:10594000704750EA013002D14FF0FF3070474FF0FE
:1059500000007047844641EA000313F0030349D175
:10596000403A23D30B6803604B6843608B688360C5
:10597000CB68C3600B6903614B6943618B698361C9
:10598000CB69C3610B6A03624B6A43628B6A8362B1
:10599000CB6AC3620B6B03634B6B43638B6B836399
:1059A000CB6BC36340304031403ADBD230320BD353
:1059B0000B6803604B6843608B688360CB68C3608F
:1059C00010301031103AF3D20C3205D351F8043BA9
:1059D00040F8043B043AF9D2043208D0D2071CBF85
:1059E00011F8013B00F8013B01D30B8803806046AE
:1059F000704700BF082A13D38B07B1D010F0030300
:105A0000AED0C3F10403D21ADB071CBF11F8013B6F
:105A100000F8013BA4D331F8023B20F8023B9FE79A
:105A2000043AD9D3013A11F8013B00F8013BF9D20D
:105A30000B7803704B7843708B78837060467047A7
:105A4000433A5C55736572735C6869726F79756B04
:105A5000695C446F63756D656E74735C5F526F62F1
:105A60006F436F6E5C53544D33325C4261747465A6
:105A70007279417261726D5C6D61696E2E680000B1
:105A80000A0D46494C45203D2025730A0D000000B3
:105A90004175672031382032303137004441544558
:105AA000203D2025730A0D0030393A33323A35351E
:105AB0000000000054494D45203D2025730A0D008B
:105AC00025642C0063656C6C206E756D62657220B8
:105AD0003D2025640A0D000025642C25642C2564D6
