:020000040800F2
:1000000088180020013400086134000861340008B9
:100010006134000861340008613400080000000009
:100020000000000000000000000000006134000833
:100030006134000800000000613400082156000807
:10004000613400086134000861340008613400083C
:10005000613400086134000861340008613400082C
:10006000613400086134000861340008613400081C
:10007000613400086134000861340008613400080C
:1000800061340008613400086134000861340008FC
:10009000E94B00086134000861340008613400084D
:1000A00061340008553100086134000861340008EB
:1000B00095310008E9310008393200086134000840
:1000C0006134000861340008613400080506000846
:1000D000613400085D7700083D7800081D7900084C
:1000E0006134000861340008613400080000000039
:1000F0000000000000000000000000000000000000
:1001000000000000000000005FF808F190B585B025
:1001100000AFF860B96011461A460B46FB801346E3
:100120007B71FB6803F118007B79FA88B96805F0E8
:1001300093FDFB681833184605F0ECFD03461A469C
:10014000FB681A80FA684FF00A034FF00004C2E916
:100150000434FB6800225A80064BB3F900309BB28E
:1001600001339BB21AB2034B1A8000BF1437BD464D
:1001700090BD00BF220F002080B483B000AF786034
:100180007B6800225A807B681B8818460C37BD4666
:1001900080BC704780B582B000AF78607B68183350
:1001A000184605F0B7FD034618460837BD4680BD22
:1001B00090B585B000AF78607B681833184605F0BD
:1001C000A9FD0346FB817B681B88FA899A4224D0EB
:1001D00005F016FA0A4601467B6803F10804D4E9E3
:1001E0000034CB1A62EB04047A68D2E90412A2420A
:1001F00008BF994234BF01230023DBB2002B0CD08F
:100200007B6801225A807B68FA891A8005F0F8F928
:1002100003460C467A68C2E90234064BB3F9003053
:100220009BB2013B9BB21AB2024B1A8000BF14373B
:10023000BD4690BD200F002080B586B002AFF860AB
:10024000B9607A607B80FB68BA68DA61FB687A68BB
:10025000DA637B8803F500739AB2FB68DA80FB6887
:10026000D86BFB68D988002300930023002205F097
:1002700057FAFB6800221A81FB6801221A83084B97
:10028000B3F900309BB201339BB21AB2044B1A800F
:10029000F86800F023F800BF1037BD4680BD00BFEE
:1002A000220F002080B483B000AF786039607B6893
:1002B0001B8B072B07D87B681B8B7A6806339B0048
:1002C00013443A685A607B681B8B01339AB27B688F
:1002D0001A8300BF0C37BD4680BC704790B585B00F
:1002E00000AF78607B6800221A707B6800225A7029
:1002F0000023FB607B681B8B1A46FB689A420CDD6F
:100300007A68FB6806339B0013445B681846FFF766
:100310004FFFFB680133FB60ECE70023BB607B68A9
:100320001B8B1A46BB689A422EDD7B681B785AB23B
:100330007968BB6806339B000B445B685B88194691
:10034000BB6801FA03F35BB213435BB2DAB27B68BA
:100350001A707A68BB6806339B0013445B681846C2
:10036000FFF70AFF03461A46BB6802FA03F17B68EF
:100370005B785AB24BB213435BB2DAB27B685A7005
:10038000BB680133BB60CAE77B681B78002B1CD0BD
:100390007B68DB68002B18D07B68D86B7B68DB88B8
:1003A000403399B27B68022205F0A0F97B681A7885
:1003B0007B681A717B685A787B685A7105F020F95E
:1003C00003460C467A68C2E9043405F019F90A4676
:1003D00001467B6803F11004D4E90034CB1A62EBC8
:1003E00004047A68D26811464FF00002A24208BFA6
:1003F000994205D27B68DB68002B01D0012300E025
:100400000023002B18D07B68D86B7B68DB884033D7
:1004100099B27B68022205F069F97B681A787B68DB
:100420001A717B685A787B685A7105F0E9F80346BF
:100430000C467A68C2E90434064BB3F900309BB22B
:10044000013B9BB21AB2034B1A8000BF1437BD4662
:1004500090BD00BF200F002090B583B000AF786042
:100460007B68DB6B1B697A68D28893421CD17B68FE
:10047000DB6BDB7E012B17D17B681B8901339AB2C2
:100480007B681A817B68DB6B5B7F1B027A68D26BAF
:10049000127F13441A467B68DA6005F0B1F8034610
:1004A0000C467A68C2E9043400BF0C37BD4690BDE3
:1004B00080B586B002AFF860B9607A607B80FB6877
:1004C0007A681A61FB68BA685A607B8803F58063B2
:1004D0009AB2FB689A81FB681869FB6899890023C6
:1004E00000930023002205F01BF9074BB3F90030FD
:1004F0009BB201339BB21AB2034B1A8000231846F9
:100500001037BD4680BD00BF220F0020B0B584B0BB
:1005100000AF78607B681B68002B32D07B689B68DB
:100520001C464FF0000505F06BF802460B46AB4247
:1005300008BFA2422CBF01230023DBB2002B20D036
:1005400005F05EF803460C461A467B681B681A44A1
:100550007B689A607B685B68184602F015FA024671
:1005600007F108031146184601F026FE7B6818695A
:100570007B689B89403399B207F10803042205F098
:10058000B5F8064BB3F900309BB2013B9BB21AB2EF
:10059000024B1A8000BF1037BD46B0BD200F0020AF
:1005A00090B583B000AF78607B681B691B697A687F
:1005B0009289934222D17B681B69DB7E002B05D197
:1005C0007B685B68184602F027FA17E07B681B69B6
:1005D000DB7E012B12D17B681B695B7F1B027A6873
:1005E0001269127F13441A467B681A6005F008F8F6
:1005F00003460C461A467B689A6000BF00BF0C3762
:10060000BD4690BD80B500AF7121114806F09EF83F
:100610000346002B14BF01230023DBB2002B04D0C0
:1006200002210B4806F0CCF80FE06021084806F0E4
:100630008DF80346002B14BF01230023DBB2002BEF
:1006400003D00121024806F0BBF800BF80BD00BF07
:100650000030014080B485B000AF7860396000237D
:10066000FB817B681B88FB817B682E4A934213D0F9
:100670007B682D4A93420FD07B68B3F1804F0BD03B
:100680007B682A4A934207D07B68294A934203D069
:100690007B68284A934208D1FB8923F07003FB81D1
:1006A0003B685A88FB891343FB817B68224A93424B
:1006B0000CD07B68214A934208D0FB8923F4407315
:1006C000FB813B68DA88FB891343FB817B68FA89ED
:1006D0001A803B689A887B689A853B681A887B6891
:1006E0001A857B680F4A93420FD07B680E4A93426B
:1006F0000BD07B68124A934207D07B68114A934221
:1007000003D07B68104A934204D13B681B7A9AB2AB
:100710007B681A867B6801229A8200BF1437BD4627
:1007200080BC7047002C01400034014000040040B0
:1007300000080040000C0040001000400014004081
:1007400000400140004401400048014080B485B0B1
:1007500000AF7860396000237B810023FB81002398
:10076000BB817B681B8C9BB223F001039AB27B6830
:100770001A847B681B8CFB817B689B88BB817B68B0
:100780001B8B7B817B8923F070037B817B8923F02A
:1007900003037B813B681A887B8913437B81FB8938
:1007A00023F00203FB813B681A89FB891343FB8119
:1007B0003B685A88FB891343FB817B68244A934238
:1007C0000FD07B68234A93420BD07B68224A934226
:1007D00007D07B68214A934203D07B68204A93422A
:1007E00023D1FB8923F00803FB813B685A89FB89ED
:1007F0001343FB81FB8923F00403FB813B689A8848
:10080000FB891343FB81BB8923F48073BB81BB89C4
:1008100023F40073BB813B689A89BB891343BB8176
:100820003B68DA89BB891343BB817B68BA899A80AC
:100830007B687A891A833B68DA887B689A867B684A
:10084000FA891A8400BF1437BD4680BC704700BFC8
:10085000002C0140003401400040014000440140B0
:100860000048014080B485B000AF78603960002353
:100870007B810023FB810023BB817B681B8C9BB2A7
:1008800023F010039AB27B681A847B681B8CFB816F
:100890007B689B88BB817B681B8B7B817B8923F476
:1008A000E0437B817B8923F440737B813B681B8819
:1008B0001B029AB27B8913437B81FB8923F02003BF
:1008C000FB813B681B891B019AB2FB891343FB81A7
:1008D0003B685B881B019AB2FB891343FB817B68F1
:1008E000224A934203D07B68214A93422BD1FB8951
:1008F00023F08003FB813B685B891B019AB2FB8973
:100900001343FB81FB8923F04003FB813B689B88F9
:100910001B019AB2FB891343FB81BB8923F48063DB
:10092000BB81BB8923F40063BB813B689B899B002F
:100930009AB2BB891343BB813B68DB899B009AB2A7
:10094000BB891343BB817B68BA899A807B687A89AB
:100950001A833B68DA887B681A877B68FA891A846D
:1009600000BF1437BD4680BC704700BF002C01405B
:100970000034014080B485B000AF78603960002356
:100980007B810023FB810023BB817B681B8C9BB296
:1009900023F480739AB27B681A847B681B8CFB817A
:1009A0007B689B88BB817B689B8B7B817B8923F0E9
:1009B00070037B817B8923F003037B813B681A886A
:1009C0007B8913437B81FB8923F40073FB813B68A4
:1009D0001B891B029AB2FB891343FB813B685B882E
:1009E0001B029AB2FB891343FB817B68224A934224
:1009F00003D07B68214A93422BD1FB8923F4006307
:100A0000FB813B685B891B029AB2FB891343FB8124
:100A1000FB8923F48063FB813B689B881B029AB2AD
:100A2000FB891343FB81BB8923F48053BB81BB89C2
:100A300023F40053BB813B689B891B019AB2BB899D
:100A40001343BB813B68DB891B019AB2BB8913430B
:100A5000BB817B68BA899A807B687A899A833B6874
:100A6000DA887B689A877B68FA891A8400BF143712
:100A7000BD4680BC704700BF002C014000340140DF
:100A800080B485B000AF786039600023BB8100235B
:100A90007B810023FB817B681B8C9BB223F48053FA
:100AA0009AB27B681A847B681B8C7B817B689B88ED
:100AB000FB817B689B8BBB81BB8923F4E043BB81BB
:100AC000BB8923F44073BB813B681B881B029AB22D
:100AD000BB891343BB817B8923F400537B813B6833
:100AE0001B891B039AB27B8913437B813B685B881C
:100AF0001B039AB27B8913437B817B68124A934222
:100B000003D07B68114A93420AD1FB8923F48043C6
:100B1000FB813B689B899B019AB2FB891343FB8154
:100B20007B68FA899A807B68BA899A833B68DA88FD
:100B30007B68A3F840207B687A891A8400BF143749
:100B4000BD4680BC704700BF002C0140003401400E
:100B500080B483B000AF786039603B681A883B6826
:100B60005B8813439AB23B689B8813439AB23B68F5
:100B7000DB8813439AB23B681B8913439AB23B68E4
:100B80005B8913439AB23B689B8913439AB27B6893
:100B9000A3F8442000BF0C37BD4680BC704700BF9F
:100BA00080B483B000AF78607B684FF6FF729A80A4
:100BB0007B6800221A807B680022DA807B68002232
:100BC0005A807B6800221A7200BF0C37BD4680BC79
:100BD000704700BF80B483B000AF78607B680022AC
:100BE0001A807B6800225A807B6800229A807B688A
:100BF0000022DA807B6800221A817B6800225A81F9
:100C00007B6800229A817B680022DA8100BF0C3762
:100C1000BD4680BC704700BF80B483B000AF786031
:100C20007B6800221A807B6800225A807B68002241
:100C30009A807B680022DA807B6800221A817B68B8
:100C400000225A817B6800229A8100BF0C37BD4682
:100C500080BC704780B483B000AF78600B46FB70F7
:100C6000FB78002B08D07B681B889BB243F0010304
:100C70009AB27B681A8007E07B681B889BB223F0DE
:100C800001039AB27B681A8000BF0C37BD4680BC56
:100C9000704700BF80B483B000AF78600B467B80A4
:100CA00013467B707B78002B08D07B689B899AB2B7
:100CB0007B8813439AB27B689A8109E07B689B89A1
:100CC0009AB27B88DB439BB213409AB27B689A81CD
:100CD00000BF0C37BD4680BC704700BF80B487B0F2
:100CE00000AFF860084611461A4603467B810B4662
:100CF0003B811346FB800023FB820023BB82002341
:100D00007B82FB681B89FB82FB681B8BBB82FB68B9
:100D10001B8C7B82FB8A23F00703FB82FA8A7B8988
:100D20001343FB82BB8A23F4407323F00303BB828B
:100D3000BB8A43F4807343F00103BB827B8A23F0B8
:100D400022037B82FB881B019AB23B8913439AB230
:100D50007B8A13437B82FB68FA8A1A81FB68BA8A12
:100D60001A83FB687A8A1A8400BF1C37BD4680BC90
:100D7000704700BF80B483B000AF78600B46FB7053
:100D8000FB78002B08D07B681B889BB243F0800364
:100D90009AB27B681A8007E07B681B889BB223F0BD
:100DA00080039AB27B681A8000BF0C37BD4680BCB6
:100DB000704700BF80B485B000AF78600B467B8081
:100DC0000023FB730023BB8100237B817B681B8A8C
:100DD0009AB27B881340BB817B689B899AB27B88DF
:100DE00013407B81BB89002B05D07B89002B02D06F
:100DF0000123FB7301E00023FB73FB7B18461437D0
:100E0000BD4680BC704700BF80B483B000AF78603F
:100E10000B467B807B88DB439AB27B681A8200BFDB
:100E20000C37BD4680BC704790B585B000AFF86008
:100E3000B9607A607B80FB68BA685A67FB687A6839
:100E40009A67FB685B6F1B69184605F04BF8FB68F7
:100E50009B6F1B69184605F045F8FB685B6F012125
:100E6000184605F06BFEFB689B6F0121184605F0E4
:100E700065FEFB6800225A80FB6800221A83FB682B
:100E800000225A83FB680F4A5A64FB680D4A9A6431
:100E9000FB680D4A5A64FB680B4A9A64FB6800229F
:100EA0009A83FB6801221A807B88642202FB03F389
:100EB0004FEAE374FA68C2E9043400BF1437BD4650
:100EC00090BD00BF0000C8420000A04280B483B0C3
:100ED00000AF786039607B683A68C3F8802000BF53
:100EE0000C37BD4680BC704780B483B000AF7860DB
:100EF00039607B683A68DA6700BF0C37BD4680BC52
:100F0000704700BF80B582B000AF786039607B6801
:100F10003A68C3F884207B68D3F88430184604F01C
:100F2000F9FE0346002B14BF01230023DBB2002B84
:100F300003D07B6802221A8002E07B6801221A80BB
:100F400000BF0837BD4680BD80B582B000AF786075
:100F50007B685B6F184605F00FFD7B689B6F18463A
:100F600005F00AFD7B68D3F88030184605F096FE40
:100F7000786800F005F800BF0837BD4680BD00BFA7
:100F800090B583B000AF78600121786800F08CFFE5
:100F90000021786800F088FF786800F045FF7B68E2
:100FA000D3F880305B8A002B11D004F029FB0A466D
:100FB00001467B68D3F8803003F12004D4E9003483
:100FC000CB1A62EB0404002C08BF0B2B05D37B6803
:100FD0005B88002B01D0012300E00023002B4AD0C6
:100FE0007B685B6F1B69DB88022B05D07B689B6F7E
:100FF0001B69DB88022B0BD17B685B6F1B69184672
:1010000005F01CF87B689B6F1B69184605F016F805
:101010007B685B6F1B69184604F064FF7B689B6FFD
:101020001B69184604F05EFF7B685B6F1B6900223A
:10103000DA807B689B6F1B690022DA807B685B6FBC
:101040000021184605F096FD7B689B6F002118462D
:1010500005F090FD7B685B6F0121184605F06EFD81
:101060007B689B6F0121184605F068FD7B680022B4
:101070005A8000F01CBE7B68D3F880301B8A002B9E
:1010800002D07B6801229A837B685B88082B00F280
:10109000E78501A252F823F0BD10000837110008BF
:1010A000DF1100084B130008C7140008A916000838
:1010B000FF170008171A0008C71B00087B68D3F841
:1010C00080305B8A002B00F0DD857B6801225A802E
:1010D00004F096FA03460C467A68C2E902347B684B
:1010E0008833184600F03EFF7B68BC33184600F09A
:1010F0004DFF7B689433184600F034FF7B68A033C3
:10110000184600F02FFF7B68AC33184600F04CFF08
:101110007B68B433184600F047FF7B684FF000024D
:10112000DA627B684FF000021A637B684FF00002BE
:101130009A6200F0A7BD786800F076FE02467B68F0
:101140005B6B1946104607F021FB0346002B17D0B6
:101150007B68D3F880301B8A002B11D004F050FA42
:101160000A4601467B6803F10804D4E90034CB1A2F
:1011700062EB0404002C08BF652B01D3012300E0BF
:101180000023002B16D004F03BFA03460C467A6885
:10119000C2E902347B6802225A807B684FF0000269
:1011A0009A627B684FF00002DA627B684FF00002BF
:1011B0001A6305E0786800F037FE02467B685A63E0
:1011C0007B681B8B1946786800F0BAFD0346002B3C
:1011D00014BF01230023DBB2002B00F068BD012106
:1011E000786800F061FE03467F49184607F0E2FA8E
:1011F0000346002B07D07B68D3F88030DB89002BB7
:1012000001D0012300E00023002B06D07B681B8B5C
:1012100043F004039AB27B681A830021786800F0D7
:1012200043FE03467049184607F0C4FA0346002BF4
:1012300007D07B68D3F880309B89002B01D0012335
:1012400000E00023002B06D07B681B8B43F00803D3
:101250009AB27B681A83786800F0E6FD034663491A
:10126000184607F089FA0346002B07D07B68D3F8AD
:1012700080301B8A002B01D0012300E00023002BCB
:1012800003D07B681A8B7B681A83786800F0CCFDEA
:1012900003465749184607F08DFA0346002B07D03E
:1012A0007B68D3F880301B8A002B01D0012300E03B
:1012B0000023002B06D07B681B8B43F002039AB2FD
:1012C0007B681A837B681B8B1946786800F038FDB1
:1012D0000346002B14BF01230023DBB2002B40F098
:1012E000D38404F08DF90A4601467B6803F10804B3
:1012F000D4E90034CB1A62EB0404002C08BF652B40
:101300002CBF01230023DBB2002B00F0BF847B68DD
:101310005B6F1B695B694FF07C51184601F094FAD2
:101320007B689B6F1B695B694FF07C51184601F02D
:101330008BFA04F065F903460C467A68C2E9023478
:101340007B6803225A8000F0A1BC0121786800F07C
:10135000ABFD03462449184607F02CFA0346002B40
:1013600007D07B68D3F88030DB89002B01D00123C4
:1013700000E00023002B06D07B681B8B43F010039A
:101380009AB27B681A830021786800F08DFD0346CD
:101390001549184607F00EFA0346002B07D07B6864
:1013A000D3F880309B89002B01D0012300E000237B
:1013B000002B06D07B681B8B43F020039AB27B681E
:1013C0001A83786800F030FD03460849184607F094
:1013D000D3F90346002B0DD07B68D3F880301B8AED
:1013E000002B07D0012306E00000704100004041BF
:1013F0000000D0410023002B03D07B681A8B7B6850
:101400001A837B681B8B1946786800F099FC0346A9
:10141000002B14BF01230023DBB2002B40F03884E3
:1014200004F0EEF80A4601467B6803F10804D4E9AB
:101430000034CB1A62EB0404002C08BF652B2CBFD0
:1014400001230023DBB2002B00F024847B685B6F58
:10145000DB680021184604F03FFC7B689B6FDB686B
:101460000021184604F038FC7B685B6F1B69012281
:10147000DA807B689B6F1B690122DA807B685B6F77
:101480001B69A24A4FF47A61184604F055FD7B6847
:101490009B6F1B699D4A4FF47A61184604F04CFD1E
:1014A0007B684FF000021A627B684FF000025A62BC
:1014B00004F0A6F803460C467A68C2E902347B6859
:1014C00004225A80E6E30121786800F0EDFC03462F
:1014D0008F49184607F06EF90346002B07D07B684A
:1014E000D3F88030DB89002B01D0012300E00023FA
:1014F000002B06D07B681B8B43F040039AB27B68BD
:101500001A830021786800F0CFFC03468049184612
:1015100007F050F90346002B07D07B68D3F88030E2
:101520009B89002B01D0012300E00023002B06D073
:101530007B681B8B43F080039AB27B681A837868C0
:1015400000F072FC03467349184607F015F903468C
:10155000002B07D07B68D3F880301B8A002B01D08A
:10156000012300E00023002B03D07B681A8B7B68EB
:101570001A830121786800F097FC7B685B6A01227E
:101580001446194607F016F90346002B01D1002333
:101590001C46E3B2002B06D00121786800F084FCE1
:1015A00002467B685A620021786800F07DFC7B6807
:1015B0001B6A01221446194607F0FCF80346002B6B
:1015C00001D100231C46E3B2002B06D0002178682D
:1015D00000F06AFC02467B681A6204F011F80A46C1
:1015E00001467B6803F10804D4E90034CB1A62EBAE
:1015F0000404002C08BF152B2CBF01230023DBB2F1
:10160000002B00F049837B685B6F1B694FF0000281
:101610004FF47A61184604F08FFC7B689B6F1B695E
:101620004FF000024FF47A61184604F085FC7B68A5
:101630005B6A19464FF07C5006F0B4FF03461A4629
:101640007B685A627B681B6A19464FF07C5006F033
:10165000A9FF03461A467B681A627B685B6A4FF0F3
:101660007C51184607F09CF80346002B03D07B689A
:101670004FF07C525A627B681B6A4FF07C511846CF
:1016800007F08EF80346002B03D07B684FF07C52A6
:101690001A6203F0B5FF03460C467A68C2E90234C9
:1016A0007B6805225A80F7E20121786800F0FCFB94
:1016B00003461749184607F07DF80346002B07D06C
:1016C0007B68D3F88030DB89002B01D0012300E058
:1016D0000023002B06D07B681B8B43F040039AB29B
:1016E0007B681A830021786800F0DEFB0346084916
:1016F000184607F05FF80346002B0DD07B68D3F83F
:1017000080309B89002B07D0012306E0CDCCCC3D57
:1017100000009041000040410023002B06D07B6870
:101720001B8B43F080039AB27B681A837B68D3F8E3
:1017300080301B8A002B0CD0786800F075FB0346C4
:101740005649184607F018F80346002B01D001232C
:1017500000E00023002B03D07B681A8B7B681A8380
:101760007B681B8B1946786800F0EAFA0346002B69
:1017700014BF01230023DBB2002B40F08F8203F063
:101780003FFF0A4601467B6803F10804D4E90034B0
:10179000CB1A62EB04047A68D2E90412A24208BFB1
:1017A000994234BF01230023DBB2002B00F0788282
:1017B0007B685B6F18697B685B6A1A464FF47A61D5
:1017C00004F0BAFB7B689B6F18697B681B6A1A463A
:1017D0004FF47A6104F0B0FB7B684FF000025A626C
:1017E0007B684FF000021A6203F00AFF03460C46C2
:1017F0007A68C2E902347B6806225A8050E20121ED
:10180000786800F051FB03462549184606F0D2FFE0
:101810000346002B07D07B68D3F88030DB89002B90
:1018200001D0012300E00023002B06D07B681B8B36
:1018300043F040039AB27B681A830021786800F075
:1018400033FB03461649184606F0B4FF0346002B47
:1018500007D07B68D3F880309B89002B01D001230F
:1018600000E00023002B06D07B681B8B43F0800335
:101870009AB27B681A83786800F0D6FA0346074963
:10188000184606F079FF0346002B0BD07B68D3F88F
:1018900080301B8A002B05D0012304E0000040416A
:1018A000000090410023002B03D07B681A8B7B68DB
:1018B0001A837B681B8B1946786800F041FA03464F
:1018C000002B14BF01230023DBB2002B40F0EA8180
:1018D0000121786800F0E8FA7B685B6A012214460F
:1018E000194606F067FF0346002B01D100231C4672
:1018F000E3B2002B06D00121786800F0D5FA024649
:101900007B685A620021786800F0CEFA7B681B6A17
:1019100001221446194606F04DFF0346002B01D163
:1019200000231C46E3B2002B06D00021786800F0AB
:10193000BBFA02467B681A6203F062FE0A46014661
:101940007B6803F10804D4E90034CB1A62EB040489
:10195000002C08BFC92B2CBF01230023DBB2002BB6
:1019600000F0A2817B685B6F1B69184604F066FB80
:101970007B689B6F1B69184604F060FB7B685B6F9C
:101980000021184605F0DAF87B689B6F00211846A5
:1019900005F0D4F87B685B6F1B69184604F0A2FA67
:1019A0007B689B6F1B69184604F09CFA7B685B6F31
:1019B0000021184605F0DEF87B689B6F0021184671
:1019C00005F0D8F803F01CFE03460C467A68C2E91D
:1019D00002347B6807225A807B688833184600F0FF
:1019E000C1FA7B68BC33184600F0D0FA7B689433A8
:1019F000184600F0B7FA7B68A033184600F0B2FA38
:101A00007B68AC33184600F0CFFA7B68B4331846D5
:101A100000F0CAFA48E10121786800F045FA024670
:101A20007B689B6C1946104606F0C4FE0346002BEB
:101A300007D07B68D3F88030DB89002B01D00123ED
:101A400000E00023002B06D07B681B8B43F0400393
:101A50009AB27B681A830021786800F025FA024662
:101A60007B685B6C1946104606F0A4FE0346002B0B
:101A700007D07B68D3F880309B89002B01D00123ED
:101A800000E00023002B06D07B681B8B43F0800313
:101A90009AB27B681A83786800F0C6F903468549D4
:101AA000184606F069FE0346002B07D07B68D3F882
:101AB00080301B8A002B01D0012300E00023002B83
:101AC00003D07B681A8B7B681A8303F099FD0A4662
:101AD00001467B6803F10804D4E90034CB1A62EBB9
:101AE0000404002C08BF322B2CBF01230023DBB2DF
:101AF000002B5AD003F084FD03460C467A68C2E9F5
:101B000002347B689433184600F05CFA02467B6826
:101B10005A667B68A033184600F054FA02467B6888
:101B20009A667B688833184600F04CFA02467B6858
:101B3000DA667B68BC33184600F028FA02467B68F8
:101B40001A677B68AC33184600F02EFA02467B68B1
:101B5000DA657B68B433184600F026FA02467B68E3
:101B60001A667B689A6E7B681B6D1946104606F0F4
:101B700021FE0346002B06D07B681B8B43F4807349
:101B80009AB27B681A837B685A6E7B68DB6C194655
:101B9000104606F00FFE0346002B06D07B681B8B19
:101BA00043F400739AB27B681A837B681B8B1946D7
:101BB000786800F0C5F80346002B14BF012300230A
:101BC000DBB2002B73E003F01BFD0A4601467B6885
:101BD00003F10804D4E90034CB1A62EB0404002CAE
:101BE00008BF322B2CBF01230023DBB2002B5DD0BA
:101BF00003F006FD03460C467A68C2E902347B68AE
:101C00009433184600F0DEF902467B685A667B681A
:101C1000A033184600F0D6F902467B689A667B68C6
:101C20008833184600F0CEF902467B68DA667B6896
:101C3000BC33184600F0AAF902467B681A677B6835
:101C4000AC33184600F0B0F902467B68DA657B6871
:101C5000B433184600F0A8F902467B681A6625E0FE
:101C60007B684FF480521A837B681B8B1946786817
:101C700000F066F80346002B14BF01230023DBB2FB
:101C8000002B14E000BF12E000BF10E000BF0EE028
:101C900000BF0CE000BF0AE000BF08E000BF06E0A4
:101CA00000BF04E000BF02E000BF00E000BF0C374F
:101CB000BD4690BD0000404180B485B000AFF860E3
:101CC0000B467A607B817B89012B07D87B89FA6878
:101CD00010339B0013447A685A6000E000BF143749
:101CE000BD4680BC704700BF80B485B000AFF860CF
:101CF0000B467A607B817B89012B07D87B89FA6848
:101D000012339B0013447A685A6000E000BF143716
:101D1000BD4680BC704700BF80B483B000AF786020
:101D20007B689B8B002B04D07B6800229A83012365
:101D300000E0002318460C37BD4680BC704700BF4A
:101D400080B582B000AF78600B467B807B88002B2B
:101D500064D07B685B6F1B69DB88022B05D07B68D6
:101D60009B6F1B69DB88022B0BD17B685B6F1B6948
:101D7000184604F063F97B689B6F1B69184604F0F2
:101D80005DF97B685B6F1B69184604F0ABF87B68F4
:101D90009B6F1B69184604F0A5F87B685B6F1B6995
:101DA0000022DA807B689B6F1B690022DA807868EA
:101DB00000F03AF802467B689A637B68DA6A7B68CF
:101DC000DA637B681A6B7B681A647B685A887B6865
:101DD000DA837B6808225A807B685B6F0021184693
:101DE00004F0C8FE7B689B6F0021184604F0C2FE19
:101DF0007B685B6F0121184604F0A0FE7B689B6F37
:101E00000121184604F09AFE7B68DB6F7A88114640
:101E1000184604F019FC7B681B8B00E00023184671
:101E20000837BD4680BD00BF80B584B000AF786084
:101E30000223FB817B68D3F88020FB8904335B009D
:101E400013449B88002B26D07B68D3F88030FA8916
:101E50001146184605F018F90346184606F096FA9A
:101E600003461049184606F0E9FA03461A467B680D
:101E70009A627B6803F188027B689B6A1946104668
:101E800000F0C6F87B6803F1BC027B689B6A1946C8
:101E9000104600F0D5F87B689B6A18461037BD469F
:101EA00080BD00BF8957113D90B583B000AF786009
:101EB0000B467B807B88012B02D94FF000034AE060
:101EC0007B68D3F880207B8804335B0013449B88B5
:101ED000002B3AD07C887B68D3F880307A88114612
:101EE000184605F0D1F80346184606F04FFA0346A7
:101EF0001B49184606F0A2FA034619467A6804F10F
:101F00000A039B00134459607A8813465B0013440C
:101F10009B0090337A681344181D7B887A680A33D3
:101F20009B0013445B68194600F072F87B881533F8
:101F3000DB007A681344181D7B887A680A339B009B
:101F400013445B68194600F09BF87B887A680A3373
:101F50009B0013445B6818460C37BD4690BD00BF1C
:101F60004A29253E80B483B000AF78607B680022A8
:101F70009A607B684FF000021A607B684FF00002A5
:101F80005A6000BF0C37BD4680BC704780B483B038
:101F900000AF78607B6800225A607B681B68184637
:101FA0000C37BD4680BC704780B483B000AF78600A
:101FB0007B6800225A607B681B6818460C37BD4658
:101FC00080BC704790B583B000AF78607B689B6839
:101FD000002B16D07B681C687B689B68184606F04F
:101FE000D9F903461946204606F0DCFA03461A469C
:101FF0007B685A607B6800229A607B684FF0000221
:102000001A607B685B6818460C37BD4690BD00BF00
:1020100080B582B000AF786039607B681B68396832
:10202000184606F003F903461A467B681A607B6877
:102030009B685A1C7B689A6000BF0837BD4680BD0C
:1020400080B582B000AF786039607B685B68002B38
:1020500009D07B681B683968184606F0ABFB03465D
:10206000002B00D107E07B683A681A607B685B68E8
:102070005A1C7B685A6000BF0837BD4680BD00BF50
:1020800080B582B000AF786039607B685B68002BF8
:1020900009D07B681B683968184606F06DFB03465B
:1020A000002B00D107E07B683A681A607B685B68A8
:1020B0005A1C7B685A6000BF0837BD4680BD00BF10
:1020C00090B589B002AFF860B9603B601346FB8001
:1020D000FB68BA681A61FB8803F510739AB2FB6853
:1020E0001A8001233B753B68DBB27B753B681B0A9A
:1020F000DBB2BB75FB681869FB8803F5007399B206
:1021000007F11403032203F0F1FAFB681869FB6876
:102110001988002300930023002203F001FB012013
:1021200003F02CFAFB6800229A80FB6800225A8098
:10213000FA684FF000034FF00004C2E9023400BF18
:102140001C37BD4690BD00BF90B583B000AF78602E
:102150007B681B691B697A681288934212D17B687D
:102160001B69DB7E9AB27B689A807B681B691B7F48
:102170009AB27B685A8003F043FA03460C467A68A9
:10218000C2E9023400BF0C37BD4690BD80B485B0B3
:1021900000AF78607B681B783B737B685B787B73F0
:1021A0007B689B78BB737B68DB78FB73FB681846A6
:1021B0001437BD4680BC704780B485B000AF7860EE
:1021C00039603B68FB603A7B7B681A707B6801333F
:1021D0007A7B1A707B680233BA7B1A707B68033390
:1021E000FA7B1A7000BF1437BD4680BC704700BF31
:1021F00080B485B000AF78607B681B783B737B68E8
:102200005B787B737B689B78BB737B68DB78FB7345
:10221000FB6818461437BD4680BC704780B485B053
:1022200000AF786039603B68FB603A7B7B681A706E
:102230007B6801337A7B1A707B680233BA7B1A7031
:102240007B680333FA7B1A7000BF1437BD4680BC2D
:10225000704700BF80B500AF154A154B1B6843F0AF
:10226000010313601249124B5A68124B13404B6022
:102270000F4A0F4B1B6823F0847323F480331360E1
:102280000B4A0B4B1B6823F480231360084A084B4E
:102290005B6823F4FE035360054B4FF41F029A6002
:1022A00000F00CF8044B4FF000629A6000BF80BD54
:1022B000001002400000FFF800ED00E080B500AF24
:1022C00000F002F800BF80BD80B483B000AF0023EF
:1022D0007B6000233B603A4A394B1B6843F48033F0
:1022E0001360374B1B6803F400333B607B6801339A
:1022F0007B603B68002B03D17B68B3F5A06FF0D106
:102300002F4B1B6803F40033002B02D001233B60EA
:1023100001E000233B603B68012B4BD1294A294B4C
:102320001B6843F010031360264A264B1B6823F0FA
:1023300003031360234A234B1B6843F0020313601B
:102340001F4A1F4B5B6853601D4A1D4B5B685360FF
:102350001B4A1B4B5B6843F480635360184A184B5D
:102360005B6823F47C135360154A154B5B6843F498
:10237000E8135360124A124B1B6843F080731360DA
:1023800000BF0F4B1B6803F00073002BF9D00C4A01
:102390000B4B5B6823F003035360094A084B5B68EF
:1023A00043F00203536000BF054B5B6803F00C036E
:1023B000082BF9D100BF0C37BD4680BC704700BF69
:1023C000001002400020024080B485B000AFF860E9
:1023D000B9601346FB80FB68BA689A60FB8803F516
:1023E00080739AB2FB681A80FB8803F590739AB2E7
:1023F000FB685A8000BF1437BD4680BC704700BFE1
:1024000080B584B000AF786039601F49386806F045
:1024100015F80346184606F0D7F903461AB27B684A
:102420009A8000233B7300237B737B68B3F90430ED
:10243000002B0ADA80237B737B68B3F904309BB2EC
:102440005B429BB21AB27B689A807B68B3F9043016
:10245000DBB23B737A7B7B68B3F904301B12DBB2CF
:1024600003F07F03DBB21344DBB27B737B689868B5
:102470007B68198807F10C03022203F037F900BFCB
:102480001037BD4680BD00BF00FEFF4680B584B05A
:1024900000AFF860B9603B601346FB803B8B1A4687
:1024A0003968F86800F05EFAFB68FA889A81FB6880
:1024B000BA689A60FB68BA8B9A80FB683A8CDA80BB
:1024C000FB68BA8CDA81FB689B68404A93420BD167
:1024D0003F4B01221A60FB689A88FB68DB8819462B
:1024E000104600F0E1FA31E0FB689B68B3F1804FE1
:1024F0000BD1384B01221A60FB689A88FB68DB8895
:102500001946104600F012FB20E0FB689B68324A37
:1025100093420BD1314B01221A60FB689A88FB6809
:10252000DB881946104600F025FB0FE0FB689B682E
:102530002B4A934243D12B4B01221A60FB689A88A5
:10254000FB68DB881946104600F03AFBFB689B8964
:10255000013B032B35D801A252F823F06D2500086A
:102560007F25000891250008A3250008FB689A68CC
:10257000FB68DB891946104600F048FB1AE0FB684F
:102580009A68FB68DB891946104600F065FB11E08C
:10259000FB689A68FB68DB891946104600F082FBED
:1025A00008E0FB689A68FB68DB891946104600F072
:1025B0009FFB00BF0021F86800F0BEF802E000BFFA
:1025C00000E000BF1037BD4680BD00BF002C0140B9
:1025D000D8090020DC09002000040040E0090020A8
:1025E00000080040E409002080B584B000AFF86026
:1025F000084611461A4603467B810B463B8113462B
:10260000FB80FB687A899A80FB683A89DA80FB68EC
:10261000FA88DA81FB689B68404A93420BD1404BB1
:1026200001221A60FB689A88FB68DB88194610460D
:1026300000F03AFA31E0FB689B68B3F1804F0BD1B0
:10264000384B01221A60FB689A88FB68DB881946C0
:10265000104600F06BFA20E0FB689B68324A934218
:102660000BD1324B01221A60FB689A88FB68DB8829
:102670001946104600F07EFA0FE0FB689B682C4A72
:10268000934244D12B4B01221A60FB689A88FB6865
:10269000DB881946104600F093FAFB689B89013BE2
:1026A000032B36D801A252F823F000BFBD26000844
:1026B000CF260008E1260008F3260008FB689A6888
:1026C000FB68DB891946104600F0A0FA1AE0FB68A7
:1026D0009A68FB68DB891946104600F0BDFA11E0E4
:1026E000FB689A68FB68DB891946104600F0DAFA45
:1026F00008E0FB689A68FB68DB891946104600F021
:10270000F7FA00BF0021F86800F016F802E000BFF9
:1027100000E000BF1037BD4680BD00BF002C014067
:10272000D8090020DC09002000040040E009002056
:1027300000080040E409002080B582B000AF786056
:102740000B467B807B689B68384A934205D1384BA7
:102750001B68012B22D0012363E07B689B68B3F1E7
:10276000804F05D1334B1B68012B17D0012358E054
:102770007B689B68304A934205D1304B1B68012B24
:102780000CD001234DE07B689B682D4A934205D114
:102790002C4B1B68012B01D0012342E07B689B88F6
:1027A0007A889A4202D97B689B887B807B687A888A
:1027B0005A807B689B89013B032B2FD801A252F8DA
:1027C00023F000BFD5270008E7270008F9270008F5
:1027D0000B2800087B689A687B685B88194610465E
:1027E00000F0ACFA1CE07B689A687B685B8819464D
:1027F000104600F0B1FA13E07B689A687B685B884A
:102800001946104600F0B6FA0AE07B689A687B68C1
:102810005B881946104600F0BBFA01E0012300E096
:10282000002318460837BD4680BD00BF002C01407C
:10283000D8090020DC09002000040040E009002045
:1028400000080040E409002080B582B000AF786045
:1028500039604FF00001386805F08EFF0346002B09
:1028600001D000230EE0386805F0D4FF03469BB288
:102870007A68928802FB03F39BB219467868FFF7E7
:102880005BFF034618460837BD4680BD80B586B05D
:1028900002AFF860B9607A607B807A88BB8B009366
:1028A000BB697968F86800F043F8FB68BA689A6019
:1028B000FB6801221A70FB689B68164A934205D197
:1028C000154B02221A6000F073FA1FE0FB689B6848
:1028D000B3F1804F05D1114B02221A6000F092FA39
:1028E00014E0FB689B680E4A934205D10D4B02220F
:1028F0001A6000F0B1FA09E0FB689B680A4A93424B
:1029000004D10A4B02221A6000F0CEFA00BF103741
:10291000BD4680BD002C0140D8090020DC09002004
:1029200000040040E009002000080040E409002005
:1029300080B58AB000AFF860B9603B601346FB8099
:10294000FA8807F11C004823B96803F085F93A8E2C
:1029500007F110004823396803F07EF900BF2837DB
:10296000BD4680BD80B588B000AFF860B960134641
:10297000FB80FA8807F114001823B96803F06CF99A
:1029800000BF2037BD4680BD80B582B000AF786003
:102990007B689B681D4A934208D100F0ADFA02465D
:1029A0007B6893F9003003FB02F32BE07B689B68A4
:1029B000B3F1804F08D100F0B1FA02467B6893F979
:1029C000003003FB02F31DE07B689B68104A9342D2
:1029D00008D100F0B5FA02467B6893F9003003FB9A
:1029E00002F30FE07B689B680A4A934208D100F02B
:1029F000B9FA02467B6893F9003003FB02F301E069
:102A00004FF0FF3318460837BD4680BD002C01400B
:102A1000000400400008004080B483B000AF78603C
:102A20007B689B68194A934206D1194B00221A60B1
:102A3000164B00229A8423E07B689B68B3F1804F99
:102A400007D1144B00221A604FF0804300229A8471
:102A500016E07B689B68104A934206D10F4B002218
:102A60001A600D4B00229A840AE07B689B680C4A2E
:102A7000934205D10B4B00221A60094B00229A8425
:102A800000BF0C37BD4680BC704700BF002C014022
:102A9000E8090020EC09002000040040F0090020B3
:102AA00000080040F409002080B58AB000AF03465A
:102AB0000A46FB801346BB8001214FF4006003F0FF
:102AC00071F80121012003F06DF807F11C0318468D
:102AD000FEF766F8FB883B84BB88BB830023FB833F
:102AE000002387F8243007F11C0319460E48FDF730
:102AF000B1FD07F10C031846FEF78EF84FF4804342
:102B00003B8307F10C0319460748FEF721F8012122
:102B10000548FEF72FF901210348FEF79BF800BF97
:102B20002837BD4680BD00BF002C014080B586B06F
:102B300000AF03460A46FB801346BB8001210120FB
:102B400003F04EF80121012003F02CF807F10C03EB
:102B50001846FEF725F8FB883B82BB88BB8107F14E
:102B60000C0319464FF08040FDF774FD00BF183785
:102B7000BD4680BD80B586B000AF03460A46FB80E7
:102B80001346BB800121022003F02AF80121012015
:102B900003F008F807F10C031846FEF701F8BB88AC
:102BA000BB81FB883B8207F10C0319460348FDF704
:102BB00051FD00BF1837BD4680BD00BF0004004076
:102BC00080B586B000AF03460A46FB801346BB8043
:102BD0000121042003F004F80121012002F0E2FFAA
:102BE00007F10C031846FDF7DBFFBB88BB81FB88B0
:102BF0003B8207F10C0319460348FDF72BFD00BF8C
:102C00001837BD4680BD00BF0008004080B586B0C3
:102C100000AF78600B467B8007F108031846FDF78C
:102C2000D9FF7B883B8101237B810023FB8100232B
:102C30003B8207F1080319467868FDF787FD0121FB
:102C40007868FEF797F801217868FEF703F800BF6F
:102C50001837BD4680BD00BF80B586B000AF786034
:102C60000B467B8007F108031846FDF7B3FF7B880E
:102C70003B8101237B810023FB8100233B8207F101
:102C8000080319467868FDF7EDFD01217868FEF725
:102C900071F801217868FDF7DDFF00BF1837BD46E8
:102CA00080BD00BF80B586B000AF78600B467B80EA
:102CB00007F108031846FDF78DFF7B883B81012350
:102CC0007B810023FB8100233B8207F10803194627
:102CD0007868FDF74FFE01217868FEF74BF8012177
:102CE0007868FDF7B7FF00BF1837BD4680BD00BF4D
:102CF00080B586B000AF78600B467B8007F1080393
:102D00001846FDF767FF7B883B8101237B81002309
:102D1000FB8100233B8207F1080319467868FDF721
:102D2000AFFE01217868FEF725F801217868FDF7EC
:102D300091FF00BF1837BD4680BD00BF80B483B08F
:102D400000AF78600B467B807B687A889A8600BFEC
:102D50000C37BD4680BC704780B483B000AF78604C
:102D60000B467B807B687A881A8700BF0C37BD468C
:102D700080BC704780B483B000AF78600B467B8026
:102D80007B687A889A8700BF0C37BD4680BC704745
:102D900080B483B000AF78600B467B807B687A8814
:102DA000A3F8402000BF0C37BD4680BC704700BF71
:102DB00080B582B000AF19233B7100237B710023E3
:102DC000BB710123FB713B1D184603F05DFC012123
:102DD0004FF4006002F0E6FE0023002203210848C1
:102DE000FDF77CFF012201210548FDF753FF01217A
:102DF0000348FDF72FFF00BF0837BD4680BD00BF69
:102E0000002C014080B582B000AF1C233B71002331
:102E10007B710023BB710123FB713B1D184603F03E
:102E200033FC0121012002F0DBFE002300220321FC
:102E30004FF08040FDF752FF012201214FF080400A
:102E4000FDF728FF01214FF08040FDF703FF00BF91
:102E50000837BD4680BD00BF80B582B000AF1D23DE
:102E60003B7100237B710023BB710123FB713B1D70
:102E7000184603F009FC0121022002F0B1FE0023F4
:102E8000002203210748FDF729FF012201210548FF
:102E9000FDF700FF01210348FDF7DCFE00BF083706
:102EA000BD4680BD0004004080B582B000AF1E2347
:102EB0003B7100237B710023BB710123FB713B1D20
:102EC000184603F0E1FB0121042002F089FE0023F3
:102ED000002203210748FDF701FF012201210548D7
:102EE000FDF7D8FE01210348FDF7B4FE00BF083707
:102EF000BD4680BD0008004080B400AF054B9B8CF0
:102F00009BB21A46044B1B681B0413441846BD466B
:102F100080BC7047002C0140E809002080B400AF5D
:102F20004FF080439B8C9BB21A46044B1B681B04DA
:102F300013441846BD4680BC704700BFEC09002012
:102F400080B400AF054B9B8C9BB21A46044B1B68A8
:102F50001B0413441846BD4680BC70470004004063
:102F6000F009002080B400AF054B9B8C9BB21A4641
:102F7000044B1B681B0413441846BD4680BC7047B5
:102F800000080040F409002080B400AF0C4B9B8C7B
:102F90009BB21BB2DB439BB2DB0BDBB2002B05D039
:102FA000084B1B680133074A136004E0054B1B689C
:102FB000013B044A136000BFBD4680BC704700BFA0
:102FC000002C0140E809002080B400AF4FF080439E
:102FD0009B8C9BB21BB2DB439BB2DB0BDBB2002BA7
:102FE00005D0074B1B680133054A136004E0044B0E
:102FF0001B68013B024A136000BFBD4680BC70479E
:10300000EC09002080B400AF0C4B9B8C9BB21BB230
:10301000DB439BB2DB0BDBB2002B05D0084B1B68FC
:103020000133074A136004E0054B1B68013B044A67
:10303000136000BFBD4680BC704700BF0004004065
:10304000F009002080B400AF0C4B9B8C9BB21BB2EC
:10305000DB439BB2DB0BDBB2002B05D0084B1B68BC
:103060000133074A136004E0054B1B68013B044A27
:10307000136000BFBD4680BC704700BF0008004021
:10308000F409002080B400AF00BFBD4680BC70478B
:1030900080B400AF00BFBD4680BC704780B400AFB5
:1030A00000BFBD4680BC704780B400AF00BFBD46C6
:1030B00080BC704780B400AF00BFBD4680BC704785
:1030C00080B400AF00BFBD4680BC704780B400AF85
:1030D00000BFBD4680BC704780B400AF00BFBD4696
:1030E00080BC704780B400AF044B1B680133034AB7
:1030F000136000BFBD4680BC704700BFE8090020D8
:1031000080B400AF044B1B680133034A136000BF57
:10311000BD4680BC704700BFEC09002080B400AF02
:10312000044B1B680133034A136000BFBD4680BCDB
:10313000704700BFF009002080B400AF044B1B684B
:103140000133034A136000BFBD4680BC704700BF17
:10315000F409002080B500AF0C4B1B68022B02D194
:10316000FFF712FF0CE0094B1B68012B02D1FFF7A0
:1031700089FF05E0054B1B68032B01D1FFF7B2FF68
:1031800001210348FDF740FE00BF80BDD8090020A3
:10319000002C014080B500AF124B1B68022B07D1F9
:1031A000FFF712FF01214FF08040FDF72DFE16E0E2
:1031B0000C4B1B68012B07D1FFF76AFF01214FF071
:1031C0008040FDF721FE0AE0064B1B68032B06D169
:1031D000FFF796FF01214FF08040FDF715FE00BF7D
:1031E00080BD00BFDC09002080B500AF104B1B681C
:1031F000022B06D1FFF706FF01210E48FDF704FE62
:1032000014E00B4B1B68012B06D1FFF747FF012190
:103210000848FDF7F9FD09E0054B1B68032B05D1B4
:10322000FFF77CFF01210348FDF7EEFD00BF80BDE5
:10323000E00900200004004080B500AF3C4B1B6853
:10324000022B06D1FFF7FEFE01213A48FDF7DCFD17
:103250006CE0374B1B68012B5ED101213548FDF72F
:10326000A9FD0346012B0CBF01230023DBB2002B79
:1032700006D0FFF719FF01212E48FDF7C5FD55E0E7
:1032800002212C48FDF796FD0346012B0CBF0123BC
:103290000023DBB2002B06D0FFF70CFF02212548EC
:1032A000FDF7B2FD42E004212248FDF783FD03460D
:1032B000012B0CBF01230023DBB2002B06D0FFF74C
:1032C000FFFE04211B48FDF79FFD2FE00821194850
:1032D000FDF770FD0346012B0CBF01230023DBB279
:1032E000002B06D0FFF7F2FE08211248FDF78CFDF7
:1032F0001CE010210F48FDF75DFD0346012B0CBFBC
:1033000001230023DBB2002B10D0FFF7E5FE1021D4
:103310000848FDF779FD09E0054B1B68032B05D133
:10332000FFF70AFF01210348FDF76EFD00BF80BDD6
:10333000E40900200008004090B589B002AFF860B1
:10334000B96011461A460B46FB801346BB80FB68EA
:10335000BA681A61FB8803F588639AB2FB689A81A0
:10336000FB681869FB6899890023009300230022F9
:1033700002F0D6F901233B75BB88DBB27B75BB88B5
:103380001B0A9BB2DBB2BB75FB681869FB8803F5AF
:10339000806399B207F11403032202F0A7F9012018
:1033A00002F0ECF802F02CF903460C46FA68C2E988
:1033B0000034FB6801229A7300BF1C37BD4690BDE4
:1033C00090B583B000AF78607B681B691B697A6831
:1033D000928993420FD17B681B691B331846FEF715
:1033E000D5FE02467B689A6002F00AF903460C4655
:1033F0007A68C2E9003400BF0C37BD4690BD00BFFB
:1034000080B582B000AF114B7B60114B3B6007E091
:103410003B681A1D3A607A68111D796012681A605B
:103420003B680C4A9342F3D30B480C494FF000021F
:103430008842B8BF40F8042BFADBFEF70BFF01F01F
:1034400015FC00BF0837BD4680BD00BF74E800080A
:1034500000000020D8090020D8090020881400208E
:1034600080B400AFFEE700BF80B582B000AF7860E7
:103470007B680E4A93420AD101214FF0007002F09E
:10348000CDFB00214FF0007002F0C8FB09E00121E4
:103490004FF0806002F0C2FB00214FF0806002F02C
:1034A000BDFB00BF0837BD4680BD00BF00640040C3
:1034B00080B485B000AF786039600023FB730023CF
:1034C000BB607B681B6823F002027B681A607B6824
:1034D0001B6843F001027B681A6002E0BB6801339D
:1034E000BB607B685B6803F00103002B04D1BB6801
:1034F0004FF6FF729342F1D17B685B6803F00103E2
:10350000002B02D10023FB739CE03B689B79012BCD
:1035100006D17B681B6843F080027B681A6005E077
:103520007B681B6823F080027B681A603B68DB794C
:10353000012B06D17B681B6843F040027B681A6050
:1035400005E07B681B6823F040027B681A603B68DB
:103550001B7A012B06D17B681B6843F020027B6835
:103560001A6005E07B681B6823F020027B681A6004
:103570003B685B7A012B06D17B681B6843F0100225
:103580007B681A6005E07B681B6823F010027B688B
:103590001A603B689B7A012B06D17B681B6843F05D
:1035A00008027B681A6005E07B681B6823F008024C
:1035B0007B681A603B68DB7A012B06D17B681B684D
:1035C00043F004027B681A6005E07B681B6823F007
:1035D00004027B681A603B689B789A073B68DB783B
:1035E0001B061A433B681B791B041A433B685B7933
:1035F0001B051A433B681B88013B1A437B68DA6151
:103600007B681B6823F001027B681A600023BB60A3
:1036100002E0BB680133BB607B685B6803F00103B9
:10362000002B04D0BB684FF6FF729342F1D17B6848
:103630005B6803F00103002B02D00023FB7301E061
:103640000123FB73FB7B18461437BD4680BC7047D3
:1036500080B485B000AF78600023FB607B689B7A04
:103660001A4601239340FB60554A554BD3F800326C
:1036700043F00103C2F800325149514BD3F81C22E8
:10368000FB68DB431340C1F81C327B681B7B002BBB
:1036900025D14B494A4BD3F80C22FB68DB4313403E
:1036A000C1F80C3246497B689B7A18467B68DB88F8
:1036B0001B047A6852881A4300F1480341F833200A
:1036C0003F497B689B7A18467B689B881B047A6815
:1036D00012881A4300F14803DB000B445A607B68F0
:1036E0001B7B012B24D13649354BD3F80C22FB68C8
:1036F0001343C1F80C3232497B689B7A18467B68C9
:103700001B881B047A6852881A4300F1480341F869
:1037100033202B497B689B7A18467B689B881B0467
:103720007A68D2881A4300F14803DB000B445A60E0
:103730007B68DB7A002B09D12149214BD3F8042285
:10374000FB68DB431340C1F8043207E01C491C4B03
:10375000D3F80422FB681343C1F804327B681B8949
:10376000002B08D11649164BD3F81422FB68DB4313
:103770001340C1F814327B681B89012B07D1104913
:103780000F4BD3F81422FB681343C1F814327B6843
:103790005B7B012B07D10A49094BD3F81C22FB683C
:1037A0001343C1F81C32064A054BD3F8003223F00C
:1037B0000103C2F8003200BF1437BD4680BC704719
:1037C0000064004080B483B000AF78607B68002262
:1037D0009A717B680022DA717B6800221A727B681A
:1037E00000225A727B6800229A727B680022DA7289
:1037F0007B6800229A707B680022DA707B68032263
:103800001A717B6802225A717B6801221A8000BFFC
:103810000C37BD4680BC704780B485B000AF78607F
:1038200039600023FB737B689B6803F08063002B87
:1038300002D00023FB7313E07B689B6803F00063F6
:10384000002B02D00123FB730AE07B689B6803F026
:103850008053002B02D00223FB7301E00423FB738F
:10386000FB7B042B00F09C80FB7BFA7B7968183291
:1038700012010A44126802F00102796818331B0130
:103880000B441A603B681B7A002B13D1FB7BFA7B3D
:103890007968183212010A4411683A6812685205B0
:1038A0003868407A02430A43796818331B010B4495
:1038B0001A6015E0FB7BFA7B7968183212010A4422
:1038C00011683A685268D2003868007A0243386852
:1038D000407A02430A43796818331B010B441A608B
:1038E0003B689B7A03F00F03DAB23B689A72FB7B6A
:1038F000FA7B7968183212010A440432126822F005
:103900000F02796818331B010B4404331A60FB7BE8
:10391000FA7B7968183212010A4404321268396855
:10392000897A0A43796818331B010B4404331A60FF
:10393000FB7B3A68927B11063A68527B1204114372
:103940003A68127B12020A433968C97A0A437968D5
:103950001B010B4403F5C4731A60FB7B3A68927C2D
:1039600011063A68527C120411433A68127C120222
:103970000A433968C97B0A4379681B010B4403F584
:10398000C6731A60FB7BFA7B7968183212010A440D
:10399000126842F00102796818331B010B441A6067
:1039A000FB7B18461437BD4680BC704780B485B099
:1039B00000AF78600B46FB700023FB60FB78012BA7
:1039C00009D0022B0DD0002B11D17B689A68264BB1
:1039D0001340FB600EE07B689A68244B1340FB6049
:1039E00008E07B689A68224B1340FB6002E00023EA
:1039F000FB6000BFFB681F4A93421BD01D4A9342E5
:103A000008D81D4A934212D0174A934218D0002B6F
:103A10000AD01EE0194A93420FD0154A934215D09E
:103A2000124A93420FD014E00223FB6014E00023FB
:103A3000FB6011E00023FB600EE00023FB600BE065
:103A40000123FB6008E00123FB6005E00123FB602C
:103A500002E00023FB6000BFFB68DBB218461437AE
:103A6000BD4680BC704700BF03000004000300088F
:103A70000000031000010008010000040000011014
:103A800080B485B000AFF8600B467A60FB72FB7AB9
:103A9000FA681B331B0113441B68DBB203F00403F9
:103AA000DAB27B681A727B681B7A002B09D1FB7A29
:103AB000FA681B331B0113441B685A0D7B681A609C
:103AC00008E0FB7AFA681B331B0113441B68DA0811
:103AD0007B685A60FB7AFA681B331B0113441B682E
:103AE000DBB203F00203DAB27B685A72FB7AFA683F
:103AF0001B331B01134404331B68DBB203F00F03B9
:103B0000DAB27B689A72FB7AFA681B331B011344A2
:103B100004331B681B0ADAB27B68DA74FB7AFA6832
:103B20001B01134403F5DC731B68DAB27B68DA729D
:103B3000FB7AFA681B01134403F5DC731B681B0A4C
:103B4000DAB27B681A73FB7AFA681B01134403F537
:103B5000DC731B681B0CDAB27B685A73FB7AFA6859
:103B60001B01134403F5DC731B681B0EDAB27B6880
:103B70009A73FB7AFA681B01134403F5DE731B6822
:103B8000DAB27B68DA73FB7AFA681B01134403F537
:103B9000DE731B681B0ADAB27B681A74FB7AFA6858
:103BA0001B01134403F5DE731B681B0CDAB27B6840
:103BB0005A74FB7AFA681B01134403F5DE731B6821
:103BC0001B0EDAB27B689A74FB7A002B06D1FB6875
:103BD000DB6843F02002FB68DA6005E0FB681B69E4
:103BE00043F02002FB681A6100BF1437BD4680BC59
:103BF000704700BF80B485B000AFF860B96013466D
:103C0000FB71FB79002B06D0FB685A69BB681A432D
:103C1000FB685A6106E0FB685A69BB68DB431A40DF
:103C2000FB685A6100BF1437BD4680BC704700BFB7
:103C300080B489B000AF786039600023FB61002355
:103C40003B610023BB610023FB6000237B610023F9
:103C5000BB603B68DB7803F00F03FB613B68DB78FC
:103C600003F01003002B05D03B689B781A46FB69D4
:103C70001343FB613B681B88DBB2002B44D07B689D
:103C80001B687B610023BB6138E00122BB6902FA3B
:103C900003F3FB603B681B881A46FB6813403B61DB
:103CA0003A69FB689A4226D1BB699B00FB600F22F0
:103CB000FB6802FA03F3BB60BB68DB437A6913401D
:103CC0007B61FA69FB6802FA03F37A6913437B614B
:103CD0003B68DB78282B05D10122BB699A407B68C1
:103CE0005A6108E03B68DB78482B04D10122BB69AC
:103CF0009A407B681A61BB690133BB61BB69072BC2
:103D0000C3D97B687A691A603B681B88FF2B46D948
:103D10007B685B687B610023BB613AE0BB69083369
:103D2000012202FA03F3FB603B681B881A46FB681A
:103D300013403B613A69FB689A4227D1BB699B00FB
:103D4000FB600F22FB6802FA03F3BB60BB68DB4336
:103D50007A6913407B61FA69FB6802FA03F37A69B6
:103D600013437B613B68DB78282B05D1BB690833A3
:103D700001229A407B685A613B68DB78482B05D169
:103D8000BB69083301229A407B681A61BB69013321
:103D9000BB61BB69072BC1D97B687A695A6000BFD8
:103DA0002437BD4680BC704780B483B000AF7860D4
:103DB0007B684FF6FF721A807B6802229A707B68DC
:103DC0000422DA7000BF0C37BD4680BC704700BFCC
:103DD00080B485B000AF78600B467B800023FB7316
:103DE0007B689A687B881340002B02D00123FB7309
:103DF00001E00023FB73FB7B18461437BD4680BCF3
:103E0000704700BF80B485B000AF78600B467B8000
:103E10000023FB737B68DA687B881340002B02D099
:103E20000123FB7301E00023FB73FB7B184614376F
:103E3000BD4680BC704700BF80B483B000AF7860DF
:103E40000B467B8013467B707B78002B03D07A88EF
:103E50007B681A6102E07A887B685A6100BF0C3780
:103E6000BD4680BC704700BF80B487B000AF7860AB
:103E70000B46FB7000233B610023FB6000237B614A
:103E80000023BB607B68002B03DA2E4BDB697B6170
:103E900002E02C4B5B687B617B681B0C03F00F031B
:103EA000BB607B689BB23B617B6803F44013B3F556
:103EB000401F0AD17B6923F070637B61214A214B4B
:103EC0005B6823F07063536021E07B6803F4801328
:103ED000002B0ED00322BB6802FA03F3FB60FB68E1
:103EE000DB437A6913407B617B6943F070637B61DC
:103EF0000DE07B685B0D1B013A6902FA03F3DB43BB
:103F00007A6913407B617B6943F070637B61FB7866
:103F1000002B08D07B685B0D1B013A6902FA03F3A2
:103F20007A6913437B617B68002B03DA054A7B695E
:103F3000D36102E0034A7B69536000BF1C37BD4672
:103F400080BC704700000140F0B585B004AF9848D0
:103F500001F0C0FA4FF400630293964B01934FF4C3
:103F600080630093934B4FF4E1329349934803F0FD
:103F7000EBF8934A9349914803F0C4F8924A934965
:103F80008E4803F0BFF8924A92498C4803F0BAF881
:103F9000642001F0F3FA10234FF400428E498F4859
:103FA00001F05AFE1023082282498D4801F054FE88
:103FB00010234FF400528B498B4801F04DFE102323
:103FC0004FF480428749894801F046FE48234FF468
:103FD00000428449864801F03FFE48234FF40042E6
:103FE0007449844801F038FE48234FF480427149F7
:103FF000814801F031FE48234FF400526D497F485B
:1040000001F02AFE48234FF480526A497C4801F0AF
:1040100023FE4823102267497A48FCF777F84823A3
:10402000202264497848FCF771F8482310226A4935
:104030007648FCF76BF84823202267497448FCF760
:1040400065F8482301225B497248FCF75FF8482372
:10405000022258497048FCF759F860230393002363
:1040600002934FF4FA6301934FF4007300935A4B99
:1040700002226A496A48FEF709FA60230393002383
:1040800002934FF4FA6301934FF480730093524B01
:10409000012262496348FEF7F9F900216048FEF702
:1040A0004BFB00215F48FEF747FB6023039300238F
:1040B00002934FF4FA6301934FF4807300933D4BE6
:1040C000032259495948FEF7E1F97023039300236D
:1040D00002934FF4FA6301934FF400730093354B4E
:1040E000042251495248FEF7D1F96023039300237B
:1040F00002934FF4FA630193402300932D4B012266
:1041000049494C48FEF7C2F97023039300230293F8
:104110004FF4FA63019380230093264B0222424915
:104120004548FEF7B3F9424A4049444801F038FE99
:10413000414A4049424801F033FE39493F4801F0C5
:1041400049FE38493E4801F045FE10234FF4806295
:1041500021493C4801F080FD0423042215493A48D6
:1041600001F07AFD082302931B4B01930423009373
:10417000194B364A3649374802F0E6FF02223549E4
:10418000354802F017FD2F4A2F49334802F06AFDE7
:104190001C48FBF7FFFF0346002B0CBF0123002345
:1041A000DBB2002B5CD02D4B01221A7066E000BF01
:1041B000F8090020000C014000480040000B0020DE
:1041C000F8D9000840DA000850DA00085CDA000884
:1041D00068DA000874DA000800080140FC090020D1
:1041E000080A002000100140140A0020200A0020C4
:1041F000740A00202C0A0020380A0020440A0020FB
:10420000500A0020A80B0020D00B0020080B002033
:10421000300B0020580B0020800B0020002C0140A8
:10422000E00A0020F00A002000080040A00A002058
:10423000B00A0020C00A0020D00A0020F80B00209D
:104240001C0C00205C0A0020680A00201092030069
:1042500000440040040B0020680C0020000F0020E8
:10426000B648FBF797FF0346002B0CBF0123002342
:10427000DBB2002B02D0B24B02221A70B04B1B787B
:104280009BB202934FF400630193AE4B00934FF443
:104290008053AC4AAC49AD4801F0F4F902230193D4
:1042A000A84B00930123A74A4FF08041A848FEF78E
:1042B000EDFA80230193A34B00934023A14AA54923
:1042C000A548FEF7E3FAA54801F024FD03461C4685
:1042D000A34801F01FFD03461D46A24801F01AFD48
:1042E00003465B009BB22B449BB25B009BB2234412
:1042F0009BB25B009CB29C4801F00CFD034623443A
:104300009BB2C3F10F039BB208339BB25B009BB21D
:104310008E4A8F499548FCF7CBF8904801F0FAFC9B
:1043200003461C468E4801F0F5FC03461D468D48A9
:1043300001F0F0FC03465B009BB22B449BB25B0098
:104340009BB223449BB25B009CB2874801F0E2FC25
:10435000034623449BB21A46D203D31A5B009BB296
:104360002F339BB2794A7C498148FCF7A1F87B48FE
:1043700001F0D0FC03461C46794801F0CBFC034613
:104380001D46784801F0C6FC03465B009BB22B44F7
:104390009BB25B009BB223449BB25B009CB2724811
:1043A00001F0B8FC034623449BB21A46D203D31A49
:1043B0005B009BB21E339BB2644A6E496E48FBF7AA
:1043C0003BFF6E496C48FBF76DFF6D496A48FBF790
:1043D00069FF6C496848FBF765FF604801F09AFC8B
:1043E00003461C465E4801F095FC03461D465D48A9
:1043F00001F090FC03465B009BB22B449BB25B0038
:104400009BB223449BB25B009CB2574801F082FCF4
:10441000034623449BB21A46D203D31A5B009BB2D5
:104420001E339BB20193494B0093574B02225749CD
:10443000574802F01DF8494801F06CFC03461C4641
:10444000474801F067FC03461D46464801F062FC00
:1044500003465B009BB22B449BB25B009BB22344A0
:104460009BB25B009CB2404801F054FC03462344DD
:104470009BB21A46D203D31A5B009BB21E339AB288
:10448000642300931346314A4249434802F018FA24
:10449000324801F03FFC03461C46314801F03AFC2B
:1044A00003461D462F4801F035FC03465B009BB2D6
:1044B0002B449BB25B009BB223449BB25B009CB23B
:1044C000294801F027FC034623449BB21A46D20335
:1044D000D31A5B009BB21F339AB264230093134636
:1044E0001A4A2E492E4802F0EBF92E492A4802F0CA
:1044F00033FA2D492A4802F02FFA184801F00AFC35
:1045000003461C46164801F005FC03461D461548A7
:1045100001F000FC03465B009BB22B449BB25B00A6
:104520009BB223449BB25B009CB20F4801F0F2FBAC
:10453000034623449BB21A4638E000BFD00B00204C
:10454000000F00200008014000640040400C0020E3
:10455000800A002000040040900A00202C0A00205D
:10456000500A0020440A0020380A0020200D0020B4
:10457000340D0020080B0020480D0020300B0020D7
:10458000580B0020800B00208957113D680C00203B
:10459000880D0020F80B0020C00C00201C0C00200F
:1045A000F00C0020FC090020140A0020D203D31ACA
:1045B0005B009BB21E339BB21A46AC49AC4802F07A
:1045C00031F8AC4801F0A6FB03461C46AA4801F0AE
:1045D000A1FB03461D46A94801F09CFB03465B0076
:1045E0009BB22B449BB25B009BB223449BB25B000B
:1045F0009CB2A34801F08EFB034623449BB2C3F157
:104600000F039BB29F4AA049A048FCF70DFCA049AC
:104610009E48FCF75BFC96499C48FCF765FC9D496D
:104620009A48FCF76FFC9C4B1B78002B00F0FC8039
:10463000904801F06FFB03461C468F4801F06AFB6F
:1046400003461D468D4801F065FB03465B009BB2A7
:104650002B449BB25B009BB223449BB25B009CB299
:10466000874801F057FB034623449BB21A46D20306
:10467000D31A5B009BB21E339AB264237B498748EE
:1046800002F0B8F87B4801F045FB03461C467A4827
:1046900001F040FB03461D46784801F03BFB034612
:1046A0005B009BB22B449BB25B009BB223449BB24A
:1046B0005B009CB2724801F02DFB034623449BB281
:1046C0001A46D203D31A5B009BB21E339AB20A2356
:1046D00066497348FEF730FE664801F01BFB03464F
:1046E0001C46654801F016FB03461D46634801F071
:1046F00011FB03465B009BB22B449BB25B009BB259
:1047000023449BB25B009CB25D4801F003FB03466F
:1047100023449BB21A46D203D31A5B009BB21F33C9
:104720009AB20A2351495F48FEF706FE514801F04C
:10473000F1FA03461C46504801F0ECFA03461D46C8
:104740004E4801F0E7FA03465B009BB22B449BB254
:104750005B009BB223449BB25B009CB2484801F0D3
:10476000D9FA034623449BB21A46D203D31A5B00FC
:104770009BB21E339BB21A463C494B48FDF724FEC0
:104780003C4801F0C7FA03461C463B4801F0C2FA18
:1047900003461D46394801F0BDFA03465B009BB253
:1047A0002B449BB25B009BB223449BB25B009CB248
:1047B000334801F0AFFA034623449BB21A46D203B2
:1047C000D31A5B009BB21F339BB21A462749374866
:1047D000FDF7FAFD274801F09DFA03461C462648DE
:1047E00001F098FA03461D46244801F093FA034667
:1047F0005B009BB22B449BB25B009BB223449BB2F9
:104800005B009CB21E4801F085FA034623449BB22C
:104810001A46D203D31A5B009BB21E339AB26423AA
:1048200012492348FDF74CFC2248FBF7B3FC034632
:10483000002B05D02048FBF7ADFC0346002B01D12F
:10484000012300E00023002B00D0EDE70F4B1B8875
:104850001A461A491A4802F055FC0C4B1B88012BCA
:1048600032D11849164802F04DFC31E0400C0020CE
:10487000B00D00202C0A0020500A0020440A00201D
:10488000380A0020F00C0020C00C0020380E002058
:10489000680C0020740A0020000F0020200E002069
:1048A000D80D0020F00D0020C00D0020CC0D002000
:1048B000080E0020A80B0020D00B002080DA000892
:1048C000000B002090DA0008AE49AF4802F01AFC55
:1048D000AE4801F01FFA03461C46AD4801F01AFA33
:1048E00003461D46AB4801F015FA03465B009BB238
:1048F0002B449BB25B009BB223449BB25B009CB2F7
:10490000A54801F007FA034623449BB20F2B22D09F
:104910009E4801F0FFF903461C469D4801F0FAF954
:1049200003461D469B4801F0F5F903465B009BB228
:104930002B449BB25B009BB223449BB25B009CB2B6
:10494000954801F0E7F9034623449BB2C3F10F03F6
:104950009BB2032B01D1012300E00023002B13D0D5
:104960008E4A00218E48FDF7A7F98C4A01218C4818
:10497000FDF7A2F98B4A00218948FDF7B5F9894A6C
:1049800001218748FDF7B0F9804801F0C3F90346DB
:104990001C467F4801F0BEF903461D467D4801F0E4
:1049A000B9F903465B009BB22B449BB25B009BB200
:1049B00023449BB25B009CB2774801F0ABF90346FD
:1049C00023449BB2C3F10F039BB2022B0CBF012304
:1049D0000023DBB2002B14D0734A01217048FDF78D
:1049E0006BF9714A00216E48FDF766F96F4A0121A3
:1049F0006B48FDF779F96D4A00216948FDF774F9B4
:104A00003BE0624801F086F903461C46604801F02D
:104A100081F903461D465F4801F07CF903465B00BF
:104A20009BB22B449BB25B009BB223449BB25B00C6
:104A30009CB2594801F06EF9034623449BB2C3F17E
:104A40000F039BB2012B0CBF01230023DBB2002B11
:104A500013D0574A01215248FDF72EF9544A00213C
:104A60004F48FDF729F9534A01214D48FDF73CF91C
:104A70004C4A00214A48FDF737F9494B5B6C184610
:104A800003F0A2FE0546464B9B6C184603F09CFEC5
:104A90000646434BDB6C184603F096FE0446404B3B
:104AA0001B6D184603F090FE0346019300943346B5
:104AB0002A464149344802F025FB642000F05EFD9F
:104AC000324801F027F903461C46314801F022F92B
:104AD00003461D462F4801F01DF903465B009BB2BB
:104AE0002B449BB25B009BB223449BB25B009CB205
:104AF000294801F00FF9034623449BB2C3F10F0389
:104B00009BB21A462D49204802F0FCFA2C4B1B8917
:104B100018462B4B1B8F1C462A4B9B891A46294B48
:104B20001B8C1946284BDB88029301910092234687
:104B300002462649144802F0E5FA642000F01EFD02
:104B40002349114802F0DEFA224B1B78012B04D1D5
:104B500021490D4802F0D6FA0CE01E4B1B78022BBF
:104B600004D11E49084802F0CDFA03E01C4906486A
:104B700002F0C8FA01211B48FFF776F900BF04379D
:104B8000BD46F0BDA4DA0008000B00202C0A00206E
:104B9000500A0020440A0020380A002000002A435E
:104BA000380E00200000F042000048420000204281
:104BB000000016430000A041B8DA0008E4DA00085B
:104BC000C00C0020200D0020480D0020F0DA000865
:104BD00028DB0008000F002034DB00084CDB000855
:104BE00064DB00080002300080B500AF134800F01D
:104BF0000DFE134801F040FF124801F03DFF12483E
:104C0000FBF7CEFC1148FBF7CBFC114801F0DEFCB2
:104C10001048FBF721FC104B1B78002B0CD00F48E1
:104C2000FEF7CEFB0E48FEF7CBFB0E4801F024FE4C
:104C30000D48FDF789FA00BF00BF80BD400C002081
:104C4000C00C0020F00C0020200D0020340D0020AE
:104C5000880D0020480D0020000F0020F00D0020DE
:104C6000D80D0020200E0020080E00202DE9F04372
:104C700093B00AAFFFF768F900224FF4FA71A04829
:104C800000F060FC0023FB61FB69032B0DDCFA697B
:104C900013469B001344DB009A4A13441846FBF763
:104CA00087FAFB690133FB61EEE7954800F02CFCC5
:104CB0009548FBF77DFA9548FBF77AFA9448FBF79D
:104CC00025FC9448FBF722FC9348FBF707FB93482D
:104CD00001F006FC9248FCF737F900F091FC0A4617
:104CE0000146904B18CBA24208BF99422CBF01232A
:104CF0000023DBB2002B00F0C98200F081FC0346E8
:104D00000C46643344F10004864AC2E90034844B03
:104D10001B8B03F00203002B05D1814B1B8B03F48B
:104D20008053002B08D001217F4800F0D5FF0121DE
:104D30007E4800F0D1FF41E0794B1B8B03F0040368
:104D4000002B11D1764B1B8B03F01003002B0BD1E2
:104D5000734B1B8B03F04003002B05D1704B1B8B57
:104D600003F48073002B04D001216F4800F0B4FFDE
:104D700003E000216C4800F0AFFF694B1B8B03F090
:104D80000803002B11D1664B1B8B03F02003002B73
:104D90000BD1634B1B8B03F08003002B05D1604BC1
:104DA0001B8B03F40073002B04D001215F4800F03B
:104DB00093FF03E000215D4800F08EFF5C4802F0A5
:104DC00079FB0346002B14BF01230023DBB2002B29
:104DD00011D0574802F0E2FA0346722B0CBF0123B0
:104DE0000023DBB2002B00D0FEE7524B1B780133CF
:104DF000DAB2504B1A70504B1B78012B3ED142480F
:104E0000FBF7BAF90346002B0CBF01230023DBB2EA
:104E1000002B0CD049494A48FDF7F2FA4749494866
:104E2000FDF7EEFA4849424802F06CF954E0374881
:104E3000FBF7A2F90346002B0CBF01230023DBB2D2
:104E4000002B0CD041493E48FDF7DAFA3F493D4876
:104E5000FDF7D6FA3E49364802F054F93CE04FF0EF
:104E600000013748FDF7CCFA4FF000013548FDF757
:104E7000C7FA38492E4802F045F92DE0224B5B88ED
:104E8000012B0BD12048FBF777F90346002B05D106
:104E9000284B1B78002B01D0012300E00023002BBE
:104EA00005D0244B1B78013BDAB2224B1A70164B0B
:104EB0005B8D012B07D11548FBF75EF90346002BEC
:104EC00001D1012300E00023002B05D0194B1B78F2
:104ED0000133DAB2174B1A70164B1B78052B00F210
:104EE000728101A252F823F0594F00084750000880
:104EF000D350000823510008295200082952000805
:104F0000F8090020080B0020A80B0020D00B00207F
:104F1000340D0020200D0020480D0020880D0020B9
:104F2000380E0020100F0020080A0020200A002060
:104F3000000B0020010F0020000F0020CDCC4CBE44
:104F4000C00D0020CC0D002074DB0008CDCC4C3E01
:104F500078DB00087CDB00089D4B5B88072B36D193
:104F60009B4B1B8B1E469B4800F032FA03469A4926
:104F7000184603F063FA0346184603F025FC804602
:104F8000964800F031FA03469349184603F056FA62
:104F90000346184603F018FC0446914800F042FA14
:104FA0000346184603F010FC05468E4800F03AFA16
:104FB0000346184603F008FC03460293019500944B
:104FC000434632468849894802F09CF82DE100F0BA
:104FD00017FB03460C461A46854B03F12004D4E91F
:104FE0000034D31A98467A4B5B889946784B1B8BD2
:104FF0001C467748FCF718FF03467749184603F02C
:105000001DFA0346184603F0DFFB054601217048F0
:10501000FCF74AFF0346184603F0D6FB064601217B
:105020006B48FCF741FF0346184603F0CDFB0346EF
:1050300003930296019500944B4642466D496B4896
:1050400002F060F8F1E0624BDB6E6349184603F052
:10505000F5F90346184603F0DDFB80465C4B9B6E7A
:10506000184603F0D7FB8146594B5B6E184603F098
:10507000D1FB0446564B1B6E184603F0A5FB0546B4
:10508000534BDB6D184603F09FFB06465A4B5B689B
:105090005A49184603F0D2F90346184603F094FB28
:1050A0007861554B5B6B5549184603F0C7F90346C9
:1050B000184603F089FB034604937B690393029629
:1050C000019500944B4642464D49484802F01AF873
:1050D000ABE0494B03F11804D4E900349E46464B3B
:1050E00003F14804D4E900349C46434B1A68424B10
:1050F000196B444B1868434B5D69434BDE68424B68
:1051000003F11004D4E9003405930496039502904A
:1051100001910092634672463C49344801F0F2FF27
:1051200083E03B48FBF736F8034698463948FBF7DF
:1051300031F8034699463848FBF72CF803461C46DD
:105140003648FBF727F803461D463148FBF714F8AD
:1051500003461E462F48FBF70FF803467B612E4897
:10516000FBF70AF803463B612C48FBF705F80346BA
:10517000FB60254B1B79BB60234B5B797B60214B2C
:105180005B681846FDF700FC03463B601D4B9B69BE
:105190001846FDF7F9FB034609933A6808927A68C6
:1051A0000792BA680692FA6805923A6904927B6996
:1051B00003930296019500944B46424618490B48CA
:1051C00001F0A0FF31E0174B00221A702DE000BF64
:1051D000380E0020F40E002000007A44C00E00209B
:1051E000EC0E0020E40E002080DB0008000B002005
:1051F000680C0020ACDB0008C00C00200000C84296
:10520000D8DB0008200D0020480D002010DC00082D
:10521000800B0020580B0020300B0020080B0020D2
:1052200054DC0008010F002000BF5B4BD3F8803036
:105230005B8A002B27D1584B1B8B002B23D0564B5E
:105240001B8B1E46544BDB8B9846534B9B6B18466F
:1052500003F0BAFA0446504B1B6C184603F0B4FA3C
:1052600005464D4BDB6B184603F0AEFA034602933E
:1052700001950094434632464849494801F042FFAF
:10528000454B00221A83444B5B88032B454B1B780C
:10529000042B07D14048FCF73FFD0346002B01D00B
:1052A000012300E00023002B13D03B4BD3F88030C8
:1052B0005B881A46384BD3F880309B881946364BAA
:1052C000D3F88030DB8800930B463749344801F02F
:1052D00019FF344B1B78052B18D1344B9B88002BBE
:1052E00014D0324B9B881846304B1A692F4BDB7E0B
:1052F00019462E4B1B7F01930091134602462C4901
:10530000274801F0FFFE294B00229A80294B1B8879
:10531000002B3FF4B7AC284B1B88FF2B04D8274940
:105320001F4801F0EFFE2BE0234B1B88B3F5107FE5
:1053300009D3214B1B88B3F5187F04D8204918489E
:1053400001F0E0FE1CE01C4B1B88B3F5507F09D335
:10535000194B1B88B3F5587F04D81A49104801F03F
:10536000D1FE0DE0144B1B88B3F5886F08D3124BA8
:105370001B88B3F58C6F03D81349094801F0C2FEAE
:105380000C4B00221A800C4B1B881A460F4904480C
:1053900001F0B8FE76E400BF380E00208CDC000877
:1053A000000B0020010F0020CCDC0008400C002086
:1053B000DCDC0008900F0020920F002000DD0008C8
:1053C00010DD000824DD000838DD000848DD000895
:1053D00080B483B000AF78607B681B6818460C37D8
:1053E000BD4680BC704700BF90B583B000AF786009
:1053F0007B689B68002B0FD07B681C687B689B6870
:10540000184602F0C7FF03461946204603F0CAF8C3
:1054100003461A467B685A607B685B6818460C37FF
:10542000BD4690BD80B483B000AF78607B681B68D8
:1054300018460C37BD4680BC704700BF80B483B0AF
:1054400000AF03463960FB7197F90730002B0BDA88
:105450000D49FB7903F00F03043B3A68D2B2120105
:10546000D2B20B441A7609E0084997F907303A6836
:10547000D2B21201D2B20B4483F8002300BF0C3722
:10548000BD4680BC704700BF00ED00E000E100E0D9
:1054900080B582B000AF78607B68B3F1807F01D3C4
:1054A000012311E00A4A7B6823F07F43013B5360EC
:1054B0000F214FF0FF30FFF7C1FF054B00229A602C
:1054C000034B07221A60002318460837BD4680BDEB
:1054D00010E000E080B582B000AF7860084B1B6838
:1054E0005B09084AA2FB0323DB091846FFF7D0FF3C
:1054F0007B6800221A8000BF0837BD4680BD00BF10
:1055000000000020C55A7C0A80B582B000AF7860E8
:105510000A4BB3F90030002B04DD7B681B88002B9D
:1055200000D0FEE7786800F01FF8054BB3F90020C3
:10553000024B1A8000BF0837BD4680BD200F0020F7
:10554000220F002080B582B000AF78600B467B80D0
:1055500013467B707A787B881146184600F070F805
:1055600000BF0837BD4680BD80B582B000AF78600F
:1055700000F082F800BF0837BD4680BDB0B584B0EA
:1055800000AF78607B684FF47A7202FB03F31C462D
:105590004FF0000500F01EF802460B46A01845EB40
:1055A000030103460C46C7E9023400F013F80A462B
:1055B0000146D7E90234A24208BF994234BF012311
:1055C0000023DBB2002B00D0EFE700BF1037BD4651
:1055D000B0BD00BF90B400AF084B18CBDB1844EB54
:1055E0000404A20042EA937299005B1844EB02049F
:1055F00018462146BD4690BC704700BF180F0020DA
:1056000098B500AFFFF7E6FF4FF47A724FF0000352
:1056100003F020F903460C461846214698BD00BF0A
:1056200090B400AF054B18CB013344F10004034A9A
:10563000C2E9003400BFBD4690BC7047180F00207F
:1056400080B582B000AF03460A46FB8013467B71EB
:1056500045F2555002F0D2F97B79184602F0DEF996
:10566000FB88184602F0EAF900F006F802F002FAA8
:1056700000BF0837BD4680BD80B500AF02F0EEF92F
:1056800000BF80BD80B588B002AFF860B9607A60B5
:105690007B80FB68BA681A607A88BB8C00933B6A8F
:1056A0007968F86800F098F8FB6800229A80FB6837
:1056B0001B680C4A934203D13B8D184600F0C2F898
:1056C00000237B617B69332B08DC074A7B6900215F
:1056D00022F813107B6901337B61F3E700BF1837B1
:1056E000BD4680BD00640040280F002080B584B016
:1056F00000AFF8607B600B467B8113467B72FB68D2
:105700001B68064A934205D1797A7B897A681846E4
:1057100000F0E2F800BF1037BD4680BD00640040D5
:1057200080B584B000AFF860084611461A460346BB
:105730007B810B463B811346FB807B89002B0CD081
:10574000234B1B881946234A7B8922F81130204BB2
:105750001B8801339AB21E4B1A803B89002B0CD058
:105760001B4B1B8819461B4A3B8922F81130184BEA
:105770001B8801339AB2164B1A80FB88002B0CD081
:10578000134B1B881946134AFB8822F81130104B23
:105790001B8801339AB20E4B1A803B8B002B0CD026
:1057A0000B4B1B8819460B4A3B8B22F81130084BD8
:1057B0001B8801339AB2064B1A803B8BFA883989D1
:1057C000788900F0FDF800BF1037BD4680BD00BFEE
:1057D000240F0020280F002080B58AB000AFF860A9
:1057E000B9603B601346FB80FA8807F1100018236C
:1057F000B96800F031FA3A8E07F11C0004233968C9
:1058000000F02AFA00BF2837BD4680BD80B582B0BF
:1058100000AF78607B681B68094A93420CD17B68B3
:1058200010331A4600210648FEF72AF97B689B8848
:1058300001339AB27B689A8000BF0837BD4680BDAD
:105840000064004080B586B000AF0346FB8021486D
:10585000FDF70AFE01214FF0007000F0C1F907F1D9
:105860000C031846FDF7AEFF0123BB740023FB7445
:1058700000233B7500237B750023FB75FB88002B01
:1058800002D10023BB7301E00123BB730023FB7330
:1058900004233B7405237B740323BB8107F10C03B2
:1058A00019460C48FDF704FE14233B7200237B725B
:1058B0000123BB720123FB7207F10803184600F0B5
:1058C000E3FE012202210348FEF794F900BF1837D6
:1058D000BD4680BD0064004090B58BB000AF03466C
:1058E0003A60FB800B467B71FFF78AFE03460C464D
:1058F000C7E9083400212E48FEF758F80346012B6B
:1059000014BF01230023DBB2002B1BD0FFF778FE6E
:105910000A460146D7E90834CB1A62EB0404002C8E
:1059200008BF062B2CBF01230023DBB2002BE1D0E4
:10593000204B1B8801339AB21E4B1A801E4B1A88CB
:105940001E4B1A801C4AFB881380FB88FB600023D7
:105950003B6100233B757B79002B02D102237B75D1
:1059600001E000237B757B79BB753B681B78FB7579
:105970003B685B783B763B689B787B763B68DB7863
:10598000BB763B681B79FB763B685B793B773B6872
:105990009B797B773B68DB79BB7707F10C03194672
:1059A0000348FDF739FF00BF2C37BD4690BD00BF4F
:1059B00000640040900F0020940F0020920F002000
:1059C00090B587B000AF0446084611461A462346F4
:1059D000FB800346BB800B467B8013463B80184B05
:1059E0001B880D2B27D8164B1B88DBB2BB740123F9
:1059F000FB7400233B75FB885B019BB27B81BB88FA
:105A00005B019BB2FB817B885B019BB23B813B8846
:105A10005B019BB2BB8100233B8201237B7507F1B5
:105A200008031846FDF714FE054B1B8801339AB294
:105A3000034B1A8000E000BF1C37BD4690BD00BF7D
:105A4000960F002080B487B000AF786000237B61A0
:105A500000233B610023FB600023BB604C4B5B6871
:105A600003F00C037B617B69042B07D0082B09D062
:105A7000002B33D17B68474A1A6033E07B68454A84
:105A80001A602FE0424B5B6803F470133B61404B9C
:105A90005B6803F48033FB603B699B0C02333B6122
:105AA000FB68002B06D13B693B4A02FB03F27B6893
:105AB0001A6017E0364B5B6803F40033002B06D006
:105AC0003B69354A02FB03F27B681A600AE03B69D6
:105AD000304A02FB03F27B681A6003E07B682D4AC0
