:020000040800F2
:10000000E0150020D9220008392300083923000810
:1000100039230008392300083923000800000000B4
:10002000000000000000000000000000392300086C
:10003000392300080000000039230008C9380008EF
:100040003923000839230008392300083923000820
:100050003923000839230008392300083923000810
:100060003923000839230008392300083923000800
:1000700039230008392300083923000839230008F0
:1000800039230008392300083923000839230008E0
:100090007535000839230008392300083923000882
:1000A000392300082D2000083923000839230008CF
:1000B0006D200008C1200008112100083923000824
:1000C000392300083923000839230008B90500083E
:1000D0003923000801550008E1550008C156000801
:1000E00039230008392300083923000800000000E4
:1000F0000000000000000000000000000000000000
:1001000000000000000000005FF808F190B585B025
:1001100000AFF860B96011461A460B46FB801346E3
:100120007B71FB6803F118007B79FA88B96803F0EA
:10013000A3FEFB681833184603F0FCFE03461A467C
:10014000FB681A80FA684FF00A034FF00004C2E916
:100150000434FB6800225A80064BB3F900309BB28E
:1001600001339BB21AB2034B1A8000BF1437BD464D
:1001700090BD00BF020E002080B483B000AF786055
:100180007B6800225A807B681B8818460C37BD4666
:1001900080BC704780B582B000AF78607B68183350
:1001A000184603F0C7FE034618460837BD4680BD13
:1001B00090B585B000AF78607B681833184603F0BF
:1001C000B9FE0346FB817B681B88FA899A4224D0DA
:1001D00003F06AFB0A4601467B6803F10804D4E990
:1001E0000034CB1A62EB04047A68D2E90412A2420A
:1001F00008BF994234BF01230023DBB2002B05D096
:100200007B6801225A807B68FA891A8003F04CFBD4
:1002100003460C467A68C2E90234064BB3F9003053
:100220009BB2013B9BB21AB2024B1A8000BF14373B
:10023000BD4690BD000E002080B586B002AFF860CC
:10024000B9607A607B80FB68BA68DA61FB687A68BB
:10025000DA637B8803F500739AB2FB689A80FB68C7
:10026000D86BFB689988002300930023002203F0D9
:1002700097FBFB680022DA80FB6801221A83084B97
:10028000B3F900309BB201339BB21AB2044B1A800F
:10029000F86800F023F800BF1037BD4680BD00BFEE
:1002A000020E002080B483B000AF786039607B68B4
:1002B0001B8B072B07D87B681B8B7A6806339B0048
:1002C00013443A685A607B681B8B01339AB27B688F
:1002D0001A8300BF0C37BD4680BC704790B585B00F
:1002E00000AF78607B6800221A707B6800225A7029
:1002F0000023FB607B681B8B1A46FB689A422EDD4D
:100300007B681B785AB27968FB6806339B000B4404
:100310005B685B881946FB6801FA03F35BB2134321
:100320005BB2DAB27B681A707A68FB6806339B00AE
:1003300013445B681846FFF71FFF03461A46FB6825
:1003400002FA03F17B685B785AB24BB213435BB29B
:10035000DAB27B685A70FB680133FB60CAE77B68DE
:100360001B78002B14D07B689B68002B10D07B6817
:10037000D86B7B689B88403399B27B68022203F07C
:10038000F5FA03F091FA03460C467A68C2E90434A0
:1003900003F08AFA0A4601467B6803F11004D4E9A7
:1003A0000034CB1A62EB04047A68926811464FF06D
:1003B0000002A24208BF994205D27B689B68002BCD
:1003C00001D0012300E00023002B10D07B68D86B04
:1003D0007B689B88403399B27B68022203F0C6FA9F
:1003E00003F062FA03460C467A68C2E90434064B0D
:1003F000B3F900309BB2013B9BB21AB2024B1A8098
:1004000000BF1437BD4690BD000E002090B583B0EC
:1004100000AF78607B68DB6B1B697A6892889342D7
:100420001CD17B68DB6BDB7E012B17D17B68DB8803
:1004300001339AB27B68DA807B68DB6B5B7F1B02DF
:100440007A68D26B127F13441A467B689A6003F075
:100450002BFA03460C467A68C2E9043400BF0C3715
:10046000BD4690BD80B586B002AFF860B9607A60D5
:100470007B80FB687A681A61FB68BA685A607B887F
:1004800003F580639AB2FB689A81FB681869FB6880
:100490009989002300930023002203F081FA074B7F
:1004A000B3F900309BB201339BB21AB2034B1A80EE
:1004B000002318461037BD4680BD00BF020E002045
:1004C000B0B584B000AF78607B681B68002B32D079
:1004D0007B689B681C464FF0000503F0E5F9024677
:1004E0000B46AB4208BFA2422CBF01230023DBB264
:1004F000002B20D003F0D8F903460C461A467B683F
:100500001B681A447B689A607B685B68184601F038
:10051000A7F9024607F108031146184600F0D8FE75
:100520007B6818697B689B89403399B207F108039F
:10053000042203F01BFA064BB3F900309BB2013BD7
:100540009BB21AB2024B1A8000BF1037BD46B0BD35
:10055000000E002090B583B000AF78607B681B6907
:100560001B697A689289934222D17B681B69DB7E82
:10057000002B05D17B685B68184601F0B9F917E0DC
:100580007B681B69DB7E012B12D17B681B695B7F5B
:100590001B027A681269127F13441A467B681A603C
:1005A00003F082F903460C461A467B689A6000BF46
:1005B00000BF0C37BD4690BD80B500AF712111481A
:1005C00004F09EF80346002B14BF01230023DBB286
:1005D000002B04D002210B4804F0CCF80FE060217E
:1005E000084804F08DF80346002B14BF01230023B4
:1005F000DBB2002B03D00121024804F0BBF800BF9E
:1006000080BD00BF0030014080B485B000AF78608D
:1006100039600023FB817B681B88FB817B682E4A45
:10062000934213D07B682D4A93420FD07B68B3F17D
:10063000804F0BD07B682A4A934207D07B68294AB7
:10064000934203D07B68284A934208D1FB8923F068
:100650007003FB813B685A88FB891343FB817B68ED
:10066000224A93420CD07B68214A934208D0FB89EE
:1006700023F44073FB813B68DA88FB891343FB81D9
:100680007B68FA891A803B689A887B689A853B6800
:100690001A887B681A857B680F4A93420FD07B6863
:1006A0000E4A93420BD07B68124A934207D07B6874
:1006B000114A934203D07B68104A934204D13B68AD
:1006C0001B7A9AB27B681A867B6801229A8200BFE5
:1006D0001437BD4680BC7047002C014000340140F7
:1006E0000004004000080040000C004000100040E2
:1006F0000014004000400140004401400048014017
:1007000080B485B000AF7860396000237B8100231E
:10071000FB810023BB817B681B8C9BB223F0010310
:100720009AB27B681A847B681B8CFB817B689B88F0
:10073000BB817B681B8B7B817B8923F070037B8172
:100740007B8923F003037B813B681A887B891343F1
:100750007B81FB8923F00203FB813B681A89FB89BB
:100760001343FB813B685A88FB891343FB817B68F9
:10077000244A93420FD07B68234A93420BD07B6874
:10078000224A934207D07B68214A934203D07B6878
:10079000204A934223D1FB8923F00803FB813B6865
:1007A0005A89FB891343FB81FB8923F00403FB81F6
:1007B0003B689A88FB891343FB81BB8923F48073D0
:1007C000BB81BB8923F40073BB813B689A89BB89D9
:1007D0001343BB813B68DA89BB891343BB817B68C8
:1007E000BA899A807B687A891A833B68DA887B6841
:1007F0009A867B68FA891A8400BF1437BD4680BC8C
:10080000704700BF002C014000340140004001400F
:10081000004401400048014080B485B000AF7860DA
:10082000396000237B810023FB810023BB817B682F
:100830001B8C9BB223F010039AB27B681A847B68EE
:100840001B8CFB817B689B88BB817B681B8B7B81BE
:100850007B8923F4E0437B817B8923F440737B8194
:100860003B681B881B029AB27B8913437B81FB89FF
:1008700023F02003FB813B681B891B019AB2FB8993
:100880001343FB813B685B881B019AB2FB891343CE
:10089000FB817B68224A934203D07B68214A9342C2
:1008A0002BD1FB8923F08003FB813B685B891B0113
:1008B0009AB2FB891343FB81FB8923F04003FB8140
:1008C0003B689B881B019AB2FB891343FB81BB8960
:1008D00023F48063BB81BB8923F40063BB813B6845
:1008E0009B899B009AB2BB891343BB813B68DB8920
:1008F0009B009AB2BB891343BB817B68BA899A80FB
:100900007B687A891A833B68DA887B681A877B68F8
:10091000FA891A8400BF1437BD4680BC704700BFF7
:10092000002C01400034014080B485B000AF7860F5
:10093000396000237B810023FB810023BB817B681E
:100940001B8C9BB223F480739AB27B681A847B68F9
:100950001B8CFB817B689B88BB817B689B8B7B812D
:100960007B8923F070037B817B8923F003037B81E8
:100970003B681A887B8913437B81FB8923F40073CE
:10098000FB813B681B891B029AB2FB891343FB81E5
:100990003B685B881B029AB2FB891343FB817B682F
:1009A000224A934203D07B68214A93422BD1FB8990
:1009B00023F40063FB813B685B891B029AB2FB89CD
:1009C0001343FB81FB8923F48063FB813B689B8895
:1009D0001B029AB2FB891343FB81BB8923F480532A
:1009E000BB81BB8923F40053BB813B689B891B01FE
:1009F0009AB2BB891343BB813B68DB891B019AB266
:100A0000BB891343BB817B68BA899A807B687A89EA
:100A10009A833B68DA887B689A877B68FA891A84AC
:100A200000BF1437BD4680BC704700BF002C01409A
:100A30000034014080B485B000AF78603960002395
:100A4000BB8100237B810023FB817B681B8C9BB2D5
:100A500023F480539AB27B681A847B681B8C7B8159
:100A60007B689B88FB817B689B8BBB81BB8923F464
:100A7000E043BB81BB8923F44073BB813B681B8887
:100A80001B029AB2BB891343BB817B8923F40053B9
:100A90007B813B681B891B039AB27B8913437B8153
:100AA0003B685B881B039AB27B8913437B817B681D
:100AB000124A934203D07B68114A93420AD1FB89C0
:100AC00023F48043FB813B689B899B019AB2FB899D
:100AD0001343FB817B68FA899A807B68BA899A8381
:100AE0003B68DA887B68A3F840207B687A891A849F
:100AF00000BF1437BD4680BC704700BF002C0140CA
:100B00000034014080B483B000AF786039603B6846
:100B10001A883B685B8813439AB23B689B881343EF
:100B20009AB23B68DB8813439AB23B681B89134334
:100B30009AB23B685B8913439AB23B689B89134323
:100B40009AB27B68A3F8442000BF0C37BD4680BC36
:100B5000704700BF80B483B000AF78607B684FF609
:100B6000FF729A807B6800221A807B680022DA80FC
:100B70007B6800225A807B6800221A7200BF0C3703
:100B8000BD4680BC704700BF80B483B000AF7860C2
:100B90007B6800221A807B6800225A807B680022D2
:100BA0009A807B680022DA807B6800221A817B6849
:100BB00000225A817B6800229A817B680022DA81B8
:100BC00000BF0C37BD4680BC704700BF80B483B007
:100BD00000AF78607B6800221A807B6800225A8010
:100BE0007B6800229A807B680022DA807B68002282
:100BF0001A817B6800225A817B6800229A8100BF9B
:100C00000C37BD4680BC704780B483B000AF7860BD
:100C10000B46FB70FB78002B08D07B681B889BB2CF
:100C200043F001039AB27B681A8007E07B681B8857
:100C30009BB223F001039AB27B681A8000BF0C3785
:100C4000BD4680BC704700BF80B483B000AF786001
:100C50000B467B8013467B707B78002B08D07B682B
:100C60009B899AB27B8813439AB27B689A8109E088
:100C70007B689B899AB27B88DB439BB213409AB214
:100C80007B689A8100BF0C37BD4680BC704700BFAF
:100C900080B487B000AFF860084611461A46034694
:100CA0007B810B463B811346FB800023FB820023A4
:100CB000BB8200237B82FB681B89FB82FB681B8B4A
:100CC000BB82FB681B8C7B82FB8A23F00703FB82C1
:100CD000FA8A7B891343FB82BB8A23F4407323F097
:100CE0000303BB82BB8A43F4807343F00103BB82DE
:100CF0007B8A23F022037B82FB881B019AB23B890B
:100D000013439AB27B8A13437B82FB68FA8A1A8167
:100D1000FB68BA8A1A83FB687A8A1A8400BF1C3778
:100D2000BD4680BC704700BF80B483B000AF786020
:100D30000B46FB70FB78002B08D07B681B889BB2AE
:100D400043F080039AB27B681A8007E07B681B88B7
:100D50009BB223F080039AB27B681A8000BF0C37E5
:100D6000BD4680BC704700BF80B485B000AF7860DE
:100D70000B467B800023FB730023BB8100237B8118
:100D80007B681B8A9AB27B881340BB817B689B89F6
:100D90009AB27B8813407B81BB89002B05D07B896D
:100DA000002B02D00123FB7301E00023FB73FB7BCC
:100DB00018461437BD4680BC704700BF80B483B06E
:100DC00000AF78600B467B807B88DB439AB27B6800
:100DD0001A8200BF0C37BD4680BC704780B584B016
:100DE00000AFF860B9607A60FB68BA68DA60FB68E7
:100DF0007A681A61FB68DB681B69184603F07AF9A8
:100E0000FB681B691B69184603F074F9FB68002234
:100E10001A81FB6800225A8100BF1037BD4680BD91
:100E200080B483B000AF786039607B683A689A61BB
:100E30007B680022DA8000BF0C37BD4680BC70475B
:100E400090B583B000AF78607B68DB68184603F02C
:100E500069FD7B681B69184603F064FD7B689B692C
:100E6000184603F087FE7B68DB88002B14D0786877
:100E700000F02AF8024601231C461249104605F0EC
:100E800011FB0346002B01D100231C46E3B2002BCB
:100E900002D07B6801225A817B689B699B8A002B68
:100EA00006D07B68DB88002B02D1786800F064F8FC
:100EB0007B689B699A8A7B68DA8000BF0C37BD46E5
:100EC00090BD00BF0000A04180B582B000AF786047
:100ED0007B689B691B8A002B09D07B689B69022178
:100EE000184603F0AFFF03461A467B681A807B68FA
:100EF0001B88184605F0E4F803460449184605F037
:100F000033F9034618460837BD4680BD8957113D61
:100F100080B582B000AF78600B467B807B88002B69
:100F200002D14FF0000321E07B689A697B8804338B
:100F30005B0013449B88002B0AD07B689B697A88EE
:100F40001146184603F07EFF03461A467B681A8056
:100F50007B887A685B0013445B88184605F0B0F81C
:100F600003460449184605F0FFF8034618460837BB
:100F7000BD4680BD4A29253E90B587B000AF786058
:100F80000023FB8202F090FC03460C46643344F1DC
:100F90000004C7E902347B689B69184603F0EAFD48
:100FA0007B689B699B89002B1DD17B689B69DB89D2
:100FB000002B18D17B689B691B8A002B13D102F090
:100FC00073FC0A460146D7E90234CB1A62EB0404EB
:100FD000002C08BF652B2CBF01230023DBB2002BA4
:100FE000D9D00123F2E07B689B69184603F0C2FD6B
:100FF00002F05AFC0A460146D7E90234944208BF7F
:101000008B4234BF01230023DBB2002B09D0D7E988
:101010000234643344F10004C7E90234FB8A01332B
:10102000FB8200217868FFF773FF03464FF07E5183
:10103000184605F055FA0346002B01217868FFF7A2
:1010400067FF03464FF07E51184605F049FA034604
:10105000002B7868FFF738FF024601231C465D49E4
:10106000104605F01FFA0346002B01D100231C4651
:10107000E3B2002B02D07B6801225A817B685B8936
:10108000002B34D07B68DB681B691B694FF00001C3
:10109000184600F045FB7B681B691B691B694FF014
:1010A0000001184600F03CFB7B68DB681B699B680D
:1010B0000021184600F0ACFA7B68DB681B69DB682E
:1010C0000021184600F0A4FA7B681B691B699B6825
:1010D0000021184600F09CFA7B681B691B69DB68DD
:1010E0000021184600F094FA7B685B896EE0FB8A69
:1010F000002B02D0012B33D065E07B68DB681B69D5
:101100009B680021184600F083FA7B68DB681B6946
:10111000DB680021184600F07BFA7B68DB681B69FE
:101120001B694FF07E51184600F0FAFA7B681B6984
:101130001B699B680021184600F06AFA7B681B69EE
:101140001B69DB680021184600F062FA7B681B69A6
:101150001B691B694FF07E51184600F0E1FA34E03C
:101160007B68DB681B699B680021184600F050FA19
:101170007B68DB681B69DB680021184600F048FAD1
:101180007B68DB681B691B694FF07E51184600F0D5
:10119000C7FA7B681B691B699B680021184600F031
:1011A00037FA7B681B691B69DB680021184600F071
:1011B0002FFA7B681B691B691B694FF07E5118462B
:1011C00000F0AEFA01E0002300E00CE718461C37FF
:1011D000BD4690BD0000A04190B589B002AFF86057
:1011E000B9603B601346FB80FB68BA681A61FB88F4
:1011F00003F510739AB2FB681A8001233B753B68B4
:10120000DBB27B753B681B0ADBB2BB75FB681869F8
:10121000FB8803F5007399B207F11403032202F06F
:10122000A5FBFB681869FB6819880023009300235D
:10123000002202F0B5FB012002F0F4FAFB68002264
:101240009A80FB6800225A80FA684FF000034FF042
:101250000004C2E9023400BF1C37BD4690BD00BF88
:1012600090B583B000AF78607B681B691B697A68B2
:101270001288934212D17B681B69DB7E9AB27B682D
:101280009A807B681B691B7F9AB27B685A8002F048
:101290000BFB03460C467A68C2E9023400BF0C37E8
:1012A000BD4690BD80B485B000AF78607B681B7888
:1012B0003B737B685B787B737B689B78BB737B68D5
:1012C000DB78FB73FB6818461437BD4680BC70475B
:1012D00080B485B000AF786039603B68FB603A7BD2
:1012E0007B681A707B6801337A7B1A707B680233E3
:1012F000BA7B1A707B680333FA7B1A7000BF14370D
:10130000BD4680BC704700BF80B500AF154A154B85
:101310001B6843F0010313601249124B5A68124BC9
:1013200013404B600F4A0F4B1B6823F0847323F468
:10133000803313600B4A0B4B1B6823F4802313602C
:10134000084A084B5B6823F4FE035360054B4FF4D7
:101350001F029A6000F00CF8044B4FF000629A6094
:1013600000BF80BD001002400000FFF800ED00E06B
:1013700080B500AF00F002F800BF80BD80B483B03C
:1013800000AF00237B6000233B603A4A394B1B6867
:1013900043F480331360374B1B6803F400333B6026
:1013A0007B6801337B603B68002B03D17B68B3F51E
:1013B000A06FF0D12F4B1B6803F40033002B02D039
:1013C00001233B6001E000233B603B68012B4BD1D4
:1013D000294A294B1B6843F010031360264A264B09
:1013E0001B6823F003031360234A234B1B6843F05D
:1013F000020313601F4A1F4B5B6853601D4A1D4B5D
:101400005B6853601B4A1B4B5B6843F4806353600B
:10141000184A184B5B6823F47C135360154A154B2C
:101420005B6843F4E8135360124A124B1B6843F0A5
:101430008073136000BF0F4B1B6803F00073002B19
:10144000F9D00C4A0B4B5B6823F003035360094A45
:10145000084B5B6843F00203536000BF054B5B68B9
:1014600003F00C03082BF9D100BF0C37BD4680BC3C
:10147000704700BF001002400020024080B485B0D9
:1014800000AFF860B9601346FB80FB68BA689A60E9
:10149000FB8803F580739AB2FB681A80FB8803F51A
:1014A00090739AB2FB685A8000BF1437BD4680BC67
:1014B000704700BF80B584B000AFF860B9603B6092
:1014C0001346FB803B8B1A463968F86800F0B6F982
:1014D000FB68FA889A81FB68BA689A60FB68BA8BE5
:1014E0009A80FB683A8CDA80FB68BA8CDA81FB68F8
:1014F0009B68404A93420BD13F4B01221A60FB6824
:101500009A88FB68DB881946104600F039FA31E00A
:10151000FB689B68B3F1804F0BD1384B01221A60F6
:10152000FB689A88FB68DB881946104600F06AFA67
:1015300020E0FB689B68324A93420BD1314B012279
:101540001A60FB689A88FB68DB881946104600F031
:101550007DFA0FE0FB689B682B4A934243D12B4BEB
:1015600001221A60FB689A88FB68DB8819461046DE
:1015700000F092FAFB689B89013B032B35D801A24E
:1015800052F823F095150008A7150008B9150008B2
:10159000CB150008FB689A68FB68DB891946104682
:1015A00000F0A0FA1AE0FB689A68FB68DB8919462C
:1015B000104600F0BDFA11E0FB689A68FB68DB8911
:1015C0001946104600F0DAFA08E0FB689A68FB68F2
:1015D000DB891946104600F0F7FA00BF0021F868D1
:1015E00000F016F802E000BF00E000BF1037BD4673
:1015F00080BD00BF002C0140D8090020DC0900207C
:1016000000040040E009002000080040E409002038
:1016100080B582B000AF78600B467B807B689B68AA
:10162000384A934205D1384B1B68012B22D0012345
:1016300063E07B689B68B3F1804F05D1334B1B6837
:10164000012B17D0012358E07B689B68304A9342F6
:1016500005D1304B1B68012B0CD001234DE07B687A
:101660009B682D4A934205D12C4B1B68012B01D05E
:10167000012342E07B689B887A889A4202D97B6882
:101680009B887B807B687A885A807B689B89013B3A
:10169000032B2FD801A252F823F000BFAD1600088B
:1016A000BF160008D1160008E31600087B689A6888
:1016B0007B685B881946104600F0ACFA1CE07B683A
:1016C0009A687B685B881946104600F0B1FA13E00F
:1016D0007B689A687B685B881946104600F0B6FA0A
:1016E0000AE07B689A687B685B881946104600F0C0
:1016F000BBFA01E0012300E0002318460837BD468D
:1017000080BD00BF002C0140D8090020DC0900206A
:1017100000040040E009002000080040E409002027
:1017200080B582B000AF786039604FF00001386852
:1017300004F0B8FE0346002B01D000230EE0386809
:1017400004F0FEFE03469BB27A68928802FB03F324
:101750009BB219467868FFF75BFF034618460837C7
:10176000BD4680BD80B586B002AFF860B9607A60D2
:101770007B807A88BB8B0093BB697968F86800F03E
:1017800043F8FB68BA689A60FB6801221A70FB682C
:101790009B68164A934205D1154B02221A6000F04D
:1017A00073FA1FE0FB689B68B3F1804F05D1114BC2
:1017B00002221A6000F092FA14E0FB689B680E4A5D
:1017C000934205D10D4B02221A6000F0B1FA09E0F4
:1017D000FB689B680A4A934204D10A4B02221A60B2
:1017E00000F0CEFA00BF1037BD4680BD002C01408E
:1017F000D8090020DC09002000040040E009002096
:1018000000080040E409002080B58AB000AFF8600D
:10181000B9603B601346FB80FA8807F11C0048233F
:10182000B96802F029FB3A8E07F1100048233968A5
:1018300002F022FB00BF2837BD4680BD80B588B0CE
:1018400000AFF860B9601346FB80FA8807F1140016
:101850001823B96802F010FB00BF2037BD4680BDD9
:1018600080B582B000AF78607B689B681D4A934268
:1018700008D100F0ADFA02467B6893F9003003FB13
:1018800002F32BE07B689B68B3F1804F08D100F036
:10189000B1FA02467B6893F9003003FB02F31DE0C6
:1018A0007B689B68104A934208D100F0B5FA024663
:1018B0007B6893F9003003FB02F30FE07B689B68C1
:1018C0000A4A934208D100F0B9FA02467B6893F9BC
:1018D000003003FB02F301E04FF0FF3318460837F6
:1018E000BD4680BD002C01400004004000080040BF
:1018F00080B483B000AF78607B689B68194A9342DC
:1019000006D1194B00221A60164B00229A8423E05C
:101910007B689B68B3F1804F07D1144B00221A609B
:101920004FF0804300229A8416E07B689B68104A3F
:10193000934206D10F4B00221A600D4B00229A846D
:101940000AE07B689B680C4A934205D10B4B00224E
:101950001A60094B00229A8400BF0C37BD4680BC38
:10196000704700BF002C0140E8090020EC0900206E
:1019700000040040F009002000080040F4090020A5
:1019800080B58AB000AF03460A46FB801346BB8091
:1019900001214FF4006002F015FA0121012002F04C
:1019A00011FA07F11C031846FFF7D4F8FB883B84B3
:1019B000BB88BB830023FB83002387F8243007F117
:1019C0001C0319460E48FEF71FFE07F10C031846CC
:1019D000FFF7FCF84FF480433B8307F10C031946F3
:1019E0000748FFF78FF801210548FFF79DF901210E
:1019F0000348FFF709F900BF2837BD4680BD00BF87
:101A0000002C014080B586B000AF03460A46FB803B
:101A10001346BB800121012002F0F2F901210120CF
:101A200002F0D0F907F10C031846FFF793F8FB8892
:101A30003B82BB88BB8107F10C0319464FF0804005
:101A4000FEF7E2FD00BF1837BD4680BD80B586B009
:101A500000AF03460A46FB801346BB8001210220EB
:101A600002F0CEF90121012002F0ACF907F10C03DC
:101A70001846FFF76FF8BB88BB81FB883B8207F1F4
:101A80000C0319460348FEF7BFFD00BF1837BD46DB
:101A900080BD00BF0004004080B586B000AF0346A3
:101AA0000A46FB801346BB800121042002F0A8F9FE
:101AB0000121012002F086F907F10C031846FFF717
:101AC00049F8BB88BB81FB883B8207F10C031946B0
:101AD0000348FEF799FD00BF1837BD4680BD00BF23
:101AE0000008004080B586B000AF78600B467B8070
:101AF00007F108031846FFF747F87B883B8101236D
:101B00007B810023FB8100233B8207F108031946F8
:101B10007868FEF7F5FD01217868FFF705F90121E6
:101B20007868FFF771F800BF1837BD4680BD00BF69
:101B300080B586B000AF78600B467B8007F1080364
:101B40001846FFF721F87B883B8101237B81002326
:101B5000FB8100233B8207F1080319467868FEF7F2
:101B60005BFE01217868FFF7DFF801217868FFF755
:101B70004BF800BF1837BD4680BD00BF80B586B0AA
:101B800000AF78600B467B8007F108031846FEF72C
:101B9000FBFF7B883B8101237B810023FB810023AA
:101BA0003B8207F1080319467868FEF7BDFE012164
:101BB0007868FFF7B9F801217868FFF725F800BFCA
:101BC0001837BD4680BD00BF80B586B000AF7860D5
:101BD0000B467B8007F108031846FEF7D5FF7B888C
:101BE0003B8101237B810023FB8100233B8207F1A2
:101BF000080319467868FEF71DFF01217868FFF792
:101C000093F801217868FEF7FFFF00BF1837BD4643
:101C100080BD00BF80B483B000AF78600B467B808E
:101C20007B687A889A8600BF0C37BD4680BC7047B7
:101C300080B483B000AF78600B467B807B687A8885
:101C40001A8700BF0C37BD4680BC704780B483B094
:101C500000AF78600B467B807B687A889A8700BFEC
:101C60000C37BD4680BC704780B483B000AF78604D
:101C70000B467B807B687A88A3F8402000BF0C3736
:101C8000BD4680BC704700BF80B582B000AF19234D
:101C90003B7100237B710023BB710123FB713B1D52
:101CA000184602F0CBFC01214FF4006002F08AF8E4
:101CB0000023002203210848FEF7EAFF0122012148
:101CC0000548FEF7C1FF01210348FEF79DFF00BF55
:101CD0000837BD4680BD00BF002C014080B582B0F2
:101CE00000AF1C233B7100237B710023BB710123D8
:101CF000FB713B1D184602F0A1FC0121012002F0FE
:101D00007FF80023002203214FF08040FEF7C0FF40
:101D1000012201214FF08040FEF796FF01214FF094
:101D20008040FEF771FF00BF0837BD4680BD00BF91
:101D300080B582B000AF1D233B7100237B7100236F
:101D4000BB710123FB713B1D184602F077FC01219A
:101D5000022002F055F80023002203210748FEF775
:101D600097FF012201210548FEF76EFF012103487C
:101D7000FEF74AFF00BF0837BD4680BD00040040A3
:101D800080B582B000AF1E233B7100237B7100231E
:101D9000BB710123FB713B1D184602F04FFC012172
:101DA000042002F02DF80023002203210748FEF74B
:101DB0006FFF012201210548FEF746FF012103487C
:101DC000FEF722FF00BF0837BD4680BD0008004077
:101DD00080B400AF054B9B8C9BB21A46044B1B682A
:101DE0001B0413441846BD4680BC7047002C0140BC
:101DF000E809002080B400AF4FF080439B8C9BB279
:101E00001A46044B1B681B0413441846BD4680BC8D
:101E1000704700BFEC09002080B400AF054B9B8CDD
:101E20009BB21A46044B1B681B0413441846BD465C
:101E300080BC704700040040F009002080B400AF6F
:101E4000054B9B8C9BB21A46044B1B681B04134426
:101E50001846BD4680BC704700080040F4090020C9
:101E600080B400AF0C4B9B8C9BB21BB2DB439BB28C
:101E7000DB0BDBB2002B05D0084B1B680133074A94
:101E8000136004E0054B1B68013B044A136000BF6C
:101E9000BD4680BC704700BF002C0140E80900200F
:101EA00080B400AF4FF080439B8C9BB21BB2DB43EE
:101EB0009BB2DB0BDBB2002B05D0074B1B68013359
:101EC000054A136004E0044B1B68013B024A13609F
:101ED00000BFBD4680BC7047EC09002080B400AF55
:101EE0000C4B9B8C9BB21BB2DB439BB2DB0BDBB27C
:101EF000002B05D0084B1B680133074A136004E030
:101F0000054B1B68013B044A136000BFBD4680BC03
:101F1000704700BF00040040F009002080B400AF0B
:101F20000C4B9B8C9BB21BB2DB439BB2DB0BDBB23B
:101F3000002B05D0084B1B680133074A136004E0EF
:101F4000054B1B68013B044A136000BFBD4680BCC3
:101F5000704700BF00080040F409002080B400AFC3
:101F600000BFBD4680BC704780B400AF00BFBD4617
:101F700080BC704780B400AF00BFBD4680BC7047D6
:101F800080B400AF00BFBD4680BC704780B400AFD6
:101F900000BFBD4680BC704780B400AF00BFBD46E7
:101FA00080BC704780B400AF00BFBD4680BC7047A6
:101FB00080B400AF00BFBD4680BC704780B400AFA6
:101FC000044B1B680133034A136000BFBD4680BC4D
:101FD000704700BFE809002080B400AF044B1B68C5
:101FE0000133034A136000BFBD4680BC704700BF89
:101FF000EC09002080B400AF044B1B680133034A96
:10200000136000BFBD4680BC704700BFF0090020D0
:1020100080B400AF044B1B680133034A136000BF58
:10202000BD4680BC704700BFF409002080B500AFFA
:102030000C4B1B68022B02D1FFF712FF0CE0094B7F
:102040001B68012B02D1FFF789FF05E0054B1B68D8
:10205000032B01D1FFF7B2FF01210348FEF7AEFECB
:1020600000BF80BDD8090020002C014080B500AF22
:10207000124B1B68022B07D1FFF712FF01214FF013
:102080008040FEF79BFE16E00C4B1B68012B07D12E
:10209000FFF76AFF01214FF08040FEF78FFE0AE054
:1020A000064B1B68032B06D1FFF796FF01214FF06B
:1020B0008040FEF783FE00BF80BD00BFDC0900202A
:1020C00080B500AF104B1B68022B06D1FFF706FF4F
:1020D00001210E48FEF772FE14E00B4B1B68012B2A
:1020E00006D1FFF747FF01210848FEF767FE09E028
:1020F000054B1B68032B05D1FFF77CFF012103482B
:10210000FEF75CFE00BF80BDE00900200004004037
:1021100080B500AF3C4B1B68022B06D1FFF7FEFEDB
:1021200001213A48FEF74AFE6CE0374B1B68012B51
:102130005ED101213548FEF717FE0346012B0CBF87
:1021400001230023DBB2002B06D0FFF719FF01218A
:102150002E48FEF733FE55E002212C48FEF704FE20
:102160000346012B0CBF01230023DBB2002B06D05A
:10217000FFF70CFF02212548FEF720FE42E0042174
:102180002248FEF7F1FD0346012B0CBF012300237B
:10219000DBB2002B06D0FFF7FFFE04211B48FEF741
:1021A0000DFE2FE008211948FEF7DEFD0346012B46
:1021B0000CBF01230023DBB2002B06D0FFF7F2FE99
:1021C00008211248FEF7FAFD1CE010210F48FEF727
:1021D000CBFD0346012B0CBF01230023DBB2002BF8
:1021E00010D0FFF7E5FE10210848FEF7E7FD09E0F3
:1021F000054B1B68032B05D1FFF70AFF012103489C
:10220000FEF7DCFD00BF80BDE409002000080040AF
:1022100090B589B002AFF860B96011461A460B4616
:10222000FB801346BB80FB68BA681A61FB8803F524
:1022300088639AB2FB689A81FB681869FB68998980
:10224000002300930023002201F0AAFB01233B7529
:10225000BB88DBB27B75BB881B0A9BB2DBB2BB754C
:10226000FB681869FB8803F5806399B207F11403D2
:10227000032201F07BFB012001F0D4FA01F014FBF2
:1022800003460C46FA68C2E90034FB6801229A73DF
:1022900000BF1C37BD4690BD90B583B000AF7860DD
:1022A0007B681B691B697A68928993420FD17B68AE
:1022B0001B691B331846FEF7F5FF02467B689A60E0
:1022C00001F0F2FA03460C467A68C2E9003400BF16
:1022D0000C37BD4690BD00BF80B582B000AF114B3A
:1022E0007B60114B3B6007E03B681A1D3A607A68DF
:1022F000111D796012681A603B680C4A9342F3D34F
:102300000B480C494FF000028842B8BF40F8042B3C
:10231000FADBFEF7F9FF01F06FF900BF0837BD46A1
:1023200080BD00BF5CC2000800000020D80900206A
:10233000D8090020E011002080B400AFFEE700BF04
:1023400080B582B000AF78607B680E4A93420AD1B4
:1023500001214FF0007001F071FD00214FF000707D
:1023600001F06CFD09E001214FF0806001F066FD95
:1023700000214FF0806001F061FD00BF0837BD46CD
:1023800080BD00BF0064004080B485B000AF7860BD
:1023900039600023FB730023BB607B681B6823F05C
:1023A00002027B681A607B681B6843F001027B684D
:1023B0001A6002E0BB680133BB607B685B6803F0B6
:1023C0000103002B04D1BB684FF6FF729342F1D199
:1023D0007B685B6803F00103002B02D10023FB73D1
:1023E0009CE03B689B79012B06D17B681B6843F01E
:1023F00080027B681A6005E07B681B6823F080021E
:102400007B681A603B68DB79012B06D17B681B680F
:1024100043F040027B681A6005E07B681B6823F08C
:1024200040027B681A603B681B7A012B06D17B68EF
:102430001B6843F020027B681A6005E07B681B681C
:1024400023F020027B681A603B685B7A012B06D17F
:102450007B681B6843F010027B681A6005E07B68AC
:102460001B6823F010027B681A603B689B7A012B83
:1024700006D17B681B6843F008027B681A6005E0A0
:102480007B681B6823F008027B681A603B68DB7A74
:10249000012B06D17B681B6843F004027B681A603D
:1024A00005E07B681B6823F004027B681A603B68C8
:1024B0009B789A073B68DB781B061A433B681B79BD
:1024C0001B041A433B685B791B051A433B681B8856
:1024D000013B1A437B68DA617B681B6823F00102C9
:1024E0007B681A600023BB6002E0BB680133BB60FD
:1024F0007B685B6803F00103002B04D0BB684FF6D8
:10250000FF729342F1D17B685B6803F00103002BFB
:1025100002D00023FB7301E00123FB73FB7B184611
:102520001437BD4680BC704780B485B000AF78607A
:102530000023FB607B689B7A1A4601239340FB6073
:10254000554A554BD3F8003243F00103C2F800322C
:102550005149514BD3F81C22FB68DB431340C1F8AF
:102560001C327B681B7B002B25D14B494A4BD3F88F
:102570000C22FB68DB431340C1F80C3246497B68F0
:102580009B7A18467B68DB881B047A6852881A435A
:1025900000F1480341F833203F497B689B7A184695
:1025A0007B689B881B047A6812881A4300F14803F1
:1025B000DB000B445A607B681B7B012B24D136491E
:1025C000354BD3F80C22FB681343C1F80C32324967
:1025D0007B689B7A18467B681B881B047A68528844
:1025E0001A4300F1480341F833202B497B689B7A5A
:1025F00018467B689B881B047A68D2881A4300F1CE
:102600004803DB000B445A607B68DB7A002B09D15E
:102610002149214BD3F80422FB68DB431340C1F866
:10262000043207E01C491C4BD3F80422FB68134317
:10263000C1F804327B681B89002B08D11649164B60
:10264000D3F81422FB68DB431340C1F814327B68D3
:102650001B89012B07D110490F4BD3F81422FB68BB
:102660001343C1F814327B685B7B012B07D10A4905
:10267000094BD3F81C22FB681343C1F81C32064AED
:10268000054BD3F8003223F00103C2F8003200BF3B
:102690001437BD4680BC70470064004080B483B0EE
:1026A00000AF78607B6800229A717B680022DA7143
:1026B0007B6800221A727B6800225A727B680022B3
:1026C0009A727B680022DA727B6800229A707B68BB
:1026D0000022DA707B6803221A717B6802225A7129
:1026E0007B6801221A8000BF0C37BD4680BC704752
:1026F00080B485B000AF786039600023FB737B68DD
:102700009B6803F08063002B02D00023FB7313E06F
:102710007B689B6803F00063002B02D00123FB73EE
:102720000AE07B689B6803F08053002B02D00223F1
:10273000FB7301E00423FB73FB7B042B00F09C8004
:10274000FB7BFA7B7968183212010A44126802F0A6
:102750000102796818331B010B441A603B681B7A2D
:10276000002B13D1FB7BFA7B7968183212010A44E3
:1027700011683A68126852053868407A02430A4381
:10278000796818331B010B441A6015E0FB7BFA7B58
:102790007968183212010A4411683A685268D20006
:1027A0003868007A02433868407A02430A437968FD
:1027B00018331B010B441A603B689B7A03F00F032C
:1027C000DAB23B689A72FB7BFA7B796818321201A5
:1027D0000A440432126822F00F02796818331B0190
:1027E0000B4404331A60FB7BFA7B796818321201C0
:1027F0000A44043212683968897A0A4379681833BE
:102800001B010B4404331A60FB7B3A68927B110670
:102810003A68527B120411433A68127B12020A434F
:102820003968C97A0A4379681B010B4403F5C473FC
:102830001A60FB7B3A68927C11063A68527C12045B
:1028400011433A68127C12020A433968C97B0A4371
:1028500079681B010B4403F5C6731A60FB7BFA7B96
:102860007968183212010A44126842F0010279684C
:1028700018331B010B441A60FB7B18461437BD4606
:1028800080BC704780B485B000AF78600B46FB70A9
:102890000023FB60FB78012B09D0022B0DD0002B0D
:1028A00011D17B689A68264B1340FB600EE07B6871
:1028B0009A68244B1340FB6008E07B689A68224BBF
:1028C0001340FB6002E00023FB6000BFFB681F4A6F
:1028D00093421BD01D4A934208D81D4A934212D0FE
:1028E000174A934218D0002B0AD01EE0194A93428F
:1028F0000FD0154A934215D0124A93420FD014E0DC
:102900000223FB6014E00023FB6011E00023FB6066
:102910000EE00023FB600BE00123FB6008E00123D5
:10292000FB6005E00123FB6002E00023FB6000BFC9
:10293000FB68DBB218461437BD4680BC704700BF49
:102940000300000400030008000003100001000859
:10295000010000040000011080B485B000AFF860F1
:102960000B467A60FB72FB7AFA681B331B01134437
:102970001B68DBB203F00403DAB27B681A727B686F
:102980001B7A002B09D1FB7AFA681B331B01134415
:102990001B685A0D7B681A6008E0FB7AFA681B33E3
:1029A0001B0113441B68DA087B685A60FB7AFA68DB
:1029B0001B331B0113441B68DBB203F00203DAB2C2
:1029C0007B685A72FB7AFA681B331B011344043389
:1029D0001B68DBB203F00F03DAB27B689A72FB7AF2
:1029E000FA681B331B01134404331B681B0ADAB259
:1029F0007B68DA74FB7AFA681B01134403F5DC7315
:102A00001B68DAB27B68DA72FB7AFA681B0113443E
:102A100003F5DC731B681B0ADAB27B681A73FB7A56
:102A2000FA681B01134403F5DC731B681B0CDAB254
:102A30007B685A73FB7AFA681B01134403F5DC7355
:102A40001B681B0EDAB27B689A73FB7AFA681B016B
:102A5000134403F5DE731B68DAB27B68DA73FB7A22
:102A6000FA681B01134403F5DE731B681B0ADAB214
:102A70007B681A74FB7AFA681B01134403F5DE7352
:102A80001B681B0CDAB27B685A74FB7AFA681B016C
:102A9000134403F5DE731B681B0EDAB27B689A746D
:102AA000FB7A002B06D1FB68DB6843F02002FB6851
:102AB000DA6005E0FB681B6943F02002FB681A61DD
:102AC00000BF1437BD4680BC704700BF80B485B0DE
:102AD00000AFF860B9601346FB71FB79002B06D09C
:102AE000FB685A69BB681A43FB685A6106E0FB68D9
:102AF0005A69BB68DB431A40FB685A6100BF143750
:102B0000BD4680BC704700BF80B489B000AF78601C
:102B100039600023FB6100233B610023BB6100237C
:102B2000FB6000237B610023BB603B68DB7803F024
:102B30000F03FB613B68DB7803F01003002B05D02B
:102B40003B689B781A46FB691343FB613B681B8813
:102B5000DBB2002B44D07B681B687B610023BB6128
:102B600038E00122BB6902FA03F3FB603B681B8873
:102B70001A46FB6813403B613A69FB689A4226D1CA
:102B8000BB699B00FB600F22FB6802FA03F3BB608A
:102B9000BB68DB437A6913407B61FA69FB6802FA20
:102BA00003F37A6913437B613B68DB78282B05D1FB
:102BB0000122BB699A407B685A6108E03B68DB7878
:102BC000482B04D10122BB699A407B681A61BB691A
:102BD0000133BB61BB69072BC3D97B687A691A6073
:102BE0003B681B88FF2B46D97B685B687B610023B1
:102BF000BB613AE0BB690833012202FA03F3FB60D0
:102C00003B681B881A46FB6813403B613A69FB68C6
:102C10009A4227D1BB699B00FB600F22FB6802FA36
:102C200003F3BB60BB68DB437A6913407B61FA69DD
:102C3000FB6802FA03F37A6913437B613B68DB7834
:102C4000282B05D1BB69083301229A407B685A6161
:102C50003B68DB78482B05D1BB69083301229A40D9
:102C60007B681A61BB690133BB61BB69072BC1D9A2
:102C70007B687A695A6000BF2437BD4680BC7047C4
:102C800080B483B000AF78607B684FF6FF721A8023
:102C90007B6802229A707B680422DA7000BF0C37CE
:102CA000BD4680BC704700BF80B485B000AF78607F
:102CB0000B467B800023FB737B689A687B881340FC
:102CC000002B02D00123FB7301E00023FB73FB7B8D
:102CD00018461437BD4680BC704700BF80B485B02D
:102CE00000AF78600B467B800023FB737B68DA685B
:102CF0007B881340002B02D00123FB7301E00023EB
:102D0000FB73FB7B18461437BD4680BC704700BF81
:102D100080B483B000AF78600B467B8013467B7035
:102D20007B78002B03D07A887B681A6102E07A886E
:102D30007B685A6100BF0C37BD4680BC704700BF3E
:102D400090B585B004AFB44800F02AFD4FF400639D
:102D50000293B24B01934FF480630093AF4B4FF457
:102D60006122AF49AF4802F0C1F8AF4AAF49AD4860
:102D700002F09CF8AE4AAF49AA4802F097F8AE4A72
:102D8000AE49A84802F092F8AD4801F0D3F80346E6
:102D90005B009CB2AB4801F0CDF8034623449BB2E4
:102DA0005B009CB2A84801F0C5F8034623449BB2DF
:102DB0005B009CB2A54801F0BDF8034623449BB2DA
:102DC000C3F10F039BB21A46A149964802F06EF870
:102DD00010234FF400429F499F4801F04DF8102303
:102DE00008228E499D4801F047F848234FF40042DD
:102DF0008A49934801F040F848234FF480428749BC
:102E0000924801F039F848234FF4005283498D4825
:102E100001F032F848234FF4805280498A4801F08B
:102E20002BF8482310227D498D48FDF76FF9482380
:102E300020227A498B48FDF769F9482310228549F9
:102E40008948FDF763F94823202282498748FDF726
:102E50005DF94823012271498548FDF757F9482358
:102E600002226E498348FDF751F960230393002342
:102E700002934FF4FA6301934FF400730093754B80
:102E800002227D497D48FEF715FB60230393002352
:102E900002934FF4FA6301934FF4807300936D4BE8
:102EA000012275497648FEF705FB00217348FEF7BD
:102EB000AFFB00217248FEF7ABFB602303930023B6
:102EC00002934FF4FA6301934FF480730093534BD2
:102ED00003226C496C48FEF7EDFA6023039300234C
:102EE00002934FF4FA6301934FF4007300934B4B3A
:102EF000042264496548FEF7DDFA6023039300234A
:102F000002934FF4FA63019340230093434B012251
:102F10005C495F48FEF7CEFA6023039300230293D7
:102F20004FF4FA630193802300933C4B02225549EE
:102F30005848FEF7BFFA554A5349574801F040F840
:102F4000544A5349554801F03BF84C49524801F066
:102F50004DF84B49514801F049F8082302933D4B85
:102F60000193042300933B4B4D4A4E494E4801F0D8
:102F7000BDFF02224C494D4801F0A4FD4FF400630F
:102F80000193344B00934FF48053324A48494948E7
:102F900000F0B0FC2A4800F0CDFF03465B009CB275
:102FA000284800F0C7FF034623449BB25B009CB255
:102FB000254800F0BFFF034623449BB25B009CB250
:102FC000224800F0B7FF034623449BB21A46D203BF
:102FD000D31A5B009BB21E339AB26423009313464C
:102FE000344A2D49344801F04BFC154800F0A2FF4B
:102FF00003465B009CB2134800F09CFF0346234449
:103000009BB25B009CB2104800F094FF034623443F
:103010009BB25B009CB251E0F8090020000C01401B
:1030200000480040C40A002020B7000864B7000828
:1030300074B7000880B700088CB7000898B700087C
:10304000140A00202C0A0020380A0020200A002040
:10305000A4B7000800080140FC090020080A00206D
:10306000700B0020980B0020D00A0020F80A0020E6
:10307000200B0020480B0020002C0140A40A002057
:10308000B40A002000080040640A0020740A0020EE
:10309000840A0020940A0020C00B0020D80B0020D6
:1030A0001092030000440040C80A0020180C0020C1
:1030B00000640040F00B0020680C0020204800F065
:1030C00039FF034623449BB21A46D203D31A5B004E
:1030D0009BB21F339AB2642300931346194A1A49CC
:1030E0001A4801F0CDFB194A19491A48FDF776FE36
:1030F00019491848FDF794FE02230193174B0093DA
:103100000123164A4FF080411548FEF72BFB802320
:103110000193124B00934023104A12491248FEF7C4
:1031200021FB1248FDF736F80346002B0CBF0123A4
:103130000023DBB2002B1DD00D4B01221A7027E0BB
:10314000200A0020F00B0020D80B0020980C002053
:10315000680C0020C00D0020180C00200008014061
:10316000440A002000040040540A0020700B002094
:10317000E80D0020B748FDF70DF80346002B0CBF03
:1031800001230023DBB2002B02D0B34B02221A70C2
:10319000B14B01221A70B04B1B78002B02D0AF4804
:1031A00000F0D8FBAE4800F0C5FE03465B009CB2C1
:1031B000AC4800F0BFFE034623449BB25B009CB2C8
:1031C000A94800F0B7FE034623449BB25B009CB2C3
:1031D000A64800F0AFFE034623449BB21A46D20332
:1031E000D31A5B009BB21E339BB29C4AA049A148F4
:1031F000FDF738F99A4800F09DFE03465B009CB24B
:10320000984800F097FE034623449BB25B009CB2B3
:10321000954800F08FFE034623449BB25B009CB2AE
:10322000924800F087FE034623449BB21A46D2031D
:10323000D31A5B009BB21F339BB2884A8E498F48DA
:10324000FDF710F9864800F075FE03465B009CB25E
:10325000844800F06FFE034623449BB25B009CB29F
:10326000814800F067FE034623449BB25B009CB29A
:103270007E4800F05FFE034623449BB21A46D20309
:10328000D31A5B009BB21E339BB2744A7C497D48C3
:10329000FCF7D2FF7C497B48FDF704F87B4979486D
:1032A000FDF700F87A497748FCF7FCFF002300930C
:1032B0006A4B02227749784801F01CF90A23002260
:1032C0006649764801F070FA634B1B78002B00F0DA
:1032D000F480634800F02EFE03465B009CB2614818
:1032E00000F028FE034623449BB25B009CB25E487C
:1032F00000F020FE034623449BB25B009CB25B4877
:1033000000F018FE034623449BB21A46D203D31A98
:103310005B009BB21E339AB20A2350496048FEF705
:1033200077FF4F4800F006FE03465B009CB24D4815
:1033300000F000FE034623449BB25B009CB24A4867
:1033400000F0F8FD034623449BB25B009CB2474863
:1033500000F0F0FD034623449BB21A46D203D31A71
:103360005B009BB21F339AB20A233C494D48FEF7DB
:103370004FFF3B4800F0DEFD03465B009CB239483E
:1033800000F0D8FD034623449BB25B009CB2364854
:1033900000F0D0FD034623449BB25B009CB233484F
:1033A00000F0C8FD034623449BB21A46D203D31A49
:1033B0005B009BB21E339BB21A4628493A48FEF77F
:1033C0005DF8274800F0B6FD03465B009CB2254837
:1033D00000F0B0FD034623449BB25B009CB2224840
:1033E00000F0A8FD034623449BB25B009CB21F483B
:1033F00000F0A0FD034623449BB21A46D203D31A21
:103400005B009BB21F339BB21A4614492748FEF754
:1034100035F8134800F08EFD03465B009CB211485E
:1034200000F088FD034623449BB25B009CB20E482B
:1034300000F080FD034623449BB25B009CB20B4826
:1034400000F078FD034623449BB2C3F10F039AB208
:1034500064232DE0980B0020E80D0020F00B0020E5
:10346000140A00202C0A0020380A0020200A00201C
:10347000440A0020C80C0020540A0020DC0C002064
:10348000D00A0020F00C0020F80A0020200B0020B9
:10349000480B0020180C0020300D0020A80D002043
:1034A000600D0020780D0020440D0020500D0020FC
:1034B00022492348FDF790FE07E02249224801F007
:1034C00021FA2249224801F01DFA2248FCF762FE47
:1034D0000346002B05D02048FCF75CFE0346002B7A
:1034E00001D1012300E00023002B00D0EDE71B49B0
:1034F0001B4801F0DBFC1B4B1B78012B08D11A4940
:10350000174801F0D3FC01210E4800F0F5FC10E053
:10351000144B1B78022B08D11449114801F0C6FC4A
:1035200001210A4800F0E8FC03E011490C4801F0D1
:10353000BDFC00BF0437BD4690BD00BFF00B0020AE
:10354000900D0020FC090020680C0020080A0020D3
:10355000980C0020700B0020980B0020B0B70008DA
:10356000C40A0020E80D0020BCB70008D4B700084A
:10357000ECB7000880B500AF134800F087FA134895
:1035800001F04CFA124801F049FA1248FCF7E2FF48
:103590001148FCF7DFFF114801F052F9104801F023
:1035A00025F81048FCF732FF0F4B1B78002B09D091
:1035B0000E48FEF771FE0E48FEF76EFE0D48FDF751
:1035C0004FFE00BF00BF80BDF00B0020680C002044
:1035D000980C0020C80C0020DC0C0020A80D002056
:1035E000300D0020F00C0020E80D0020780D0020A8
:1035F000600D0020900D0020B0B582B002AFFFF743
:103600009FFB2F4B1B8B1A462E492F4801F04EFC77
:103610002E4800F0DFF82E48FCF7CAFD2D48FCF7D5
:10362000C7FD2D48FCF7C4FD2C48FCF7C1FD2C4814
:10363000FCF746FF2B48FCF743FF2B48FCF7B8FD8F
:103640002A48FCF7B5FD1E48FCF748FE284800F064
:1036500081FF2848FDF7F4FB00F026F90A460146F1
:10366000254B18CBA24208BF99422CBF012300234F
:10367000DBB2002BCCD000F017F903460C463233F6
:1036800044F100041C4AC2E9003400211B4801F047
:10369000D9FB03461C461A4801F0C6F805461548F2
:1036A000FDF712FC0346184602F04AFF034600935A
:1036B0002B4622461349044801F0F8FBA8E700BF57
:1036C000F00C0020FCB70008C40A0020F809002014
:1036D000D00A0020F80A0020200B0020480B002010
:1036E000DC0C0020C80C0020700B0020980B002080
:1036F000300D0020C00D0020F00D0020180C00201F
:10370000A80D00200CB8000880B483B000AF0346B9
:103710003960FB7197F90730002B0BDA0D49FB7903
:1037200003F00F03043B3A68D2B21201D2B20B4449
:103730001A7609E0084997F907303A68D2B21201BF
:10374000D2B20B4483F8002300BF0C37BD4680BCC7
:10375000704700BF00ED00E000E100E080B582B0FE
:1037600000AF78607B68B3F1807F01D3012311E063
:103770000A4A7B6823F07F43013B53600F214FF0DF
:10378000FF30FFF7C1FF054B00229A60034B072271
:103790001A60002318460837BD4680BD10E000E0DF
:1037A00080B582B000AF7860084B1B685B09084A9F
:1037B000A2FB0323DB091846FFF7D0FF7B6800223A
:1037C0001A8000BF0837BD4680BD00BF0000002042
:1037D000C55A7C0A80B582B000AF78600A4BB3F955
:1037E0000030002B04DD7B681B88002B00D0FEE737
:1037F000786800F00DF8054BB3F90020024B1A80F1
:1038000000BF0837BD4680BD000E0020020E00201C
:1038100080B582B000AF786000F066F800BF08376E
:10382000BD4680BDB0B584B000AF78607B684FF412
:103830007A7202FB03F31C464FF0000500F01EF8FD
:1038400002460B46A01845EB030103460C46C7E9A8
:10385000023400F013F80A460146D7E90234A242C6
:1038600008BF994234BF01230023DBB2002B00D0F4
:10387000EFE700BF1037BD46B0BD00BF90B400AF4A
:10388000084B18CBDB1844EB0404A20042EA937205
:1038900099005B1844EB020418462146BD4690BCD3
:1038A000704700BFF80D002098B500AFFFF7E6FFA6
:1038B0004FF47A724FF0000302F062FE03460C46AA
:1038C0001846214698BD00BF90B400AF054B18CBF9
:1038D000013344F10004034AC2E9003400BFBD468D
:1038E00090BC7047F80D002080B500AF01F058FF84
:1038F00000BF80BD80B588B002AFF860B9607A6063
:103900007B80FB68BA681A607A88BB8C00933B6A3C
:103910007968F86800F0A0F8FB681B680B4A9342CE
:1039200002D1002000F0C8F800237B617B69332BB3
:1039300008DC074A7B69002122F813107B690133F8
:103940007B61F3E700BF1837BD4680BD00640040CF
:10395000080E002080B582B000AF7860012000F032
:10396000ABF800BF0837BD4680BD00BF80B584B04E
:1039700000AFF8607B600B467B8113467B72FB686F
:103980001B68064A934205D1797A7B897A68184682
:1039900000F0DCF800BF1037BD4680BD0064004079
:1039A00080B584B000AFF860084611461A46034659
:1039B0007B810B463B811346FB807B89002B0CD01F
:1039C000234B1B881946234A7B8922F81130204B50
:1039D0001B8801339AB21E4B1A803B89002B0CD0F6
:1039E0001B4B1B8819461B4A3B8922F81130184B88
:1039F0001B8801339AB2164B1A80FB88002B0CD01F
:103A0000134B1B881946134AFB8822F81130104BC0
:103A10001B8801339AB20E4B1A803B8B002B0CD0C3
:103A20000B4B1B8819460B4A3B8B22F81130084B75
:103A30001B8801339AB2064B1A803B8BFA8839896E
:103A4000788900F0CDF800BF1037BD4680BD00BFBB
:103A5000040E0020080E002080B58AB000AFF86088
:103A6000B9603B601346FB80FA8807F11000182309
:103A7000B96800F001FA3A8E07F11C000423396896
:103A800000F0FAF900BF2837BD4680BD80B582B08E
:103A900000AF78607B681B68064A934206D17B685A
:103AA00010331A4600210348FEF756FF00BF0837BF
:103AB000BD4680BD0064004080B586B000AF0346BF
:103AC000FB802148FEF73CFC01214FF0007000F024
:103AD00097F907F10C031846FEF7E0FD0123BB74CC
:103AE0000023FB7400233B7500237B750023FB75CB
:103AF000FB88002B02D10023BB7301E00123BB73C1
:103B00000023FB7304233B7405237B740323BB81D5
:103B100007F10C0319460C48FEF736FC14233B72E0
:103B200000237B720123BB720123FB7207F10803A0
:103B3000184600F083FD012202210348FEF7C6FF6C
:103B400000BF1837BD4680BD0064004080B588B016
:103B500000AF03463A60FB800B467B71FB88FB603D
:103B600000233B6100233B757B79002B02D10223AC
:103B70007B7501E000237B757B79BB753B681B7807
:103B8000FB753B685B783B763B689B787B763B6854
:103B9000DB78BB763B681B79FB763B685B793B77D0
:103BA0003B689B797B773B68DB79BB7707F10C033C
:103BB00019460A48FEF79CFD00210848FEF762FE00
:103BC0000346012B14BF01230023DBB2002B00D0DE
:103BD000F2E700BF2037BD4680BD00BF0064004053
:103BE00090B587B000AF0446084611461A462346F2
:103BF000FB800346BB800B467B8013463B80184B03
:103C00001B880D2B27D8164B1B88DBB2BB740123F6
:103C1000FB7400233B75FB885B019BB27B81BB88F7
:103C20005B019BB2FB817B885B019BB23B813B8844
:103C30005B019BB2BB8100233B8201237B7507F1B3
:103C400008031846FEF770FC054B1B8801339AB237
:103C5000034B1A8000E000BF1C37BD4690BD00BF7B
:103C6000700E002080B487B000AF786000237B61C5
:103C700000233B610023FB600023BB604C4B5B686F
:103C800003F00C037B617B69042B07D0082B09D060
:103C9000002B33D17B68474A1A6033E07B68454A82
:103CA0001A602FE0424B5B6803F470133B61404B9A
:103CB0005B6803F48033FB603B699B0C02333B6120
:103CC000FB68002B06D13B693B4A02FB03F27B6891
:103CD0001A6017E0364B5B6803F40033002B06D004
:103CE0003B69354A02FB03F27B681A600AE03B69D4
:103CF000304A02FB03F27B681A6003E07B682D4ABE
:103D00001A6000BF2A4B5B6803F0F0037B617B699C
:103D10001B097B61294A7B6913441B78DBB2BB60BA
:103D20007B681A68BB68DA407B685A60204B5B6826
:103D300003F4E0637B617B691B0A7B611F4A7B693B
:103D400013441B78DBB2BB607B685A68BB68DA40FF
:103D50007B689A60164B5B6803F460537B617B69F8
:103D6000DB0A7B61154A7B6913441B78DBB2BB60BD
:103D70007B685A68BB68DA407B68DA600C4B5B682A
:103D800003F440437B617B699B0B7B610C4A7B693D
:103D900013441B78DBB2BB607B68DA68BB68B2FB9C
:103DA000F3F27B681A6100BF1C37BD4680BC7047C8
:103DB0000010024000127A0000093D0014000020AB
:103DC0002400002080B483B000AF78600B46FB7005
:103DD000FB78002B06D00949084B9A697B6813438E
:103DE0008B6106E00549054B9A697B68DB4313400C
:103DF0008B6100BF0C37BD4680BC7047001002408D
:103E000080B483B000AF78600B46FB70FB78002B6A
:103E100006D00949084BDA697B681343CB6106E099
:103E20000549054BDA697B68DB431340CB6100BF72
:103E30000C37BD4680BC70470010024080B483B090
:103E400000AF78600B46FB70FB78002B06D0094969
:103E5000084B1A697B6813430B6106E00549054B63
:103E60001A697B68DB4313400B6100BF0C37BD460A
:103E700080BC70470010024080B586B000AFF8608B
:103E8000B96011461A460B46FB8013467B71FB68EE
:103E9000FA885A80FB68BA685A6001210420FFF74B
:103EA00091FF01210820FFF78DFF01211020FFF76E
:103EB00089FF01212020FFF785FFFB687A791A72BC
:103EC00007F114031846FEF7DBFEFB685B88BB8234
:103ED000FB681B7AFB750323BB75FB685B6807F106
:103EE000140211461846FEF70FFEFB6800221A80E6
:103EF00000BF1837BD4680BD80B582B000AF786086
:103F00000B467B807B88002B08D17B6858687B68D8
:103F10005B8800221946FEF7FBFE07E07B685868C5
:103F20007B685B8801221946FEF7F2FE00BF083766
:103F3000BD4680BD80B582B000AF78607B685A68AE
:103F40007B685B8819461046FEF7AEFE03469BB2BF
:103F500018460837BD4680BD80B582B000AF786096
:103F60007B685A687B685B881946104600F004F845
:103F700000BF0837BD4680BD80B582B000AF786015
:103F80000B467B807B8819467868FEF7A7FE0346C0
:103F9000012B0CBF01230023DBB2002B06D07B8852
:103FA000002219467868FEF7B3FE05E07B880122FF
:103FB00019467868FEF7ACFE00BF0837BD4680BDE5
:103FC00080B584B000AFF860B9607A60FB68BA6809
:103FD0009A60FB687A68DA60F86800F08BF8FB6832
:103FE00000229A8000BF1037BD4680BD80B483B0E8
:103FF00000AF786039607B683A681A617B6801229B
:104000009A8000BF0C37BD4680BC704780B584B035
:1040100000AF786039607B689B88012B03D0022B4E
:104020000BD0002B10E07B681A697B681B699B88AA
:1040300019461046FDF7ECFA06E07B685B69012142
:104040001846FFF759FF00BF7B689B689B8818469E
:1040500002F036F803463968184602F085F8034640
:10406000184602F047FA0346FB817B689B689B88F1
:10407000323BBB81B7F90E20BB899A4201DDBB8977
:10408000FB81B7F90E20BB895B429A4203DABB89F8
:104090005B429BB2FB817B6898687B689B689B88CE
:1040A0005B089AB2B7F90E30D90F0B445B101BB204
:1040B0009BB2D31A9BB21946FDF7AAFA7B68D8685F
:1040C0007B68DB689B885B089AB2B7F90E30D90F22
:1040D0000B445B101BB29BB213449BB21946FDF715
:1040E00097FAB7F90E207B681A6000BF1037BD46FB
:1040F00080BD00BF80B582B000AF78604FF0000196
:104100007868FFF783FF7B689B88012B03D0022B25
:1041100008D0002B0DE07B681B6900211846FDF7D5
:1041200077FA06E07B685B6900211846FFF7E4FE3A
:1041300000BF00BF0837BD4680BD00BF80B58CB052
:1041400000AF786039600023FB620023BB6200236C
:104150007B6200233B620023FB617B68FB617B6821
:104160001B8A9BB2FB62FA6A4CF6FF731340FB6238
:104170003B68DB881A46FB6A1343FB62FB6A9AB210
:104180007B681A827B689B899BB2FB62FA6A4EF657
:10419000F3131340FB623B689A883B681B89134307
:1041A0009AB23B685B8913439BB21A46FB6A13437E
:1041B000FB62FB6A9AB27B689A817B689B8A9BB29E
:1041C000FB62FA6A4FF6FF431340FB623B689B8930
:1041D0001A46FB6A1343FB62FB6A9AB27B689A82B7
:1041E00007F108031846FFF73DFDFB692E4A93428D
:1041F00002D17B69BB6201E03B69BB627B689B8942
:104200009BB21BB2002B0CDABA6A13469B00134414
:104210009A001A443B681B685B00B2FBF3F37B62B5
:104220000BE0BA6A13469B0013449A001A443B6899
:104230001B689B00B2FBF3F37B627B6A1B4AA2FB09
:1042400003235B091B01FB62FB6A1B09642202FB5F
:1042500003F37A6AD31A3B627B689B899BB21BB2D9
:10426000002B0CDA3B6ADB003233104AA2FB03233B
:104270005B0903F00703FA6A1343FB620BE03B6A36
:104280001B013233094AA2FB03235B0903F00F032E
:10429000FA6A1343FB62FB6A9AB27B681A8100BF19
:1042A0003037BD4680BD00BF003801401F85EB514F
:1042B00080B483B000AF78607B684FF416521A6008
:1042C0007B6800229A807B680022DA807B6800226B
:1042D0001A817B680C225A817B6800229A8100BF78
:1042E0000C37BD4680BC704780B483B000AF7860A7
:1042F0000B46FB70FB78002B08D07B689B899BB238
:1043000043F400539AB27B689A8107E07B689B89EB
:104310009BB223F400539AB27B689A8100BF0C379A
:10432000BD4680BC704700BF80B487B000AF7860E6
:104330000B467B8013467B7000233B610023FB60B0
:104340000023BB6000237B617B687B617B88DBB2E1
:104350005B09DBB23B617B8803F01F03FB6001223A
:10436000FB6802FA03F3BB603B69012B03D17B6955
:104370000C337B6109E03B69022B03D17B6910336D
:104380007B6102E07B6914337B617B78002B06D074
:104390007B697A691168BA680A431A6006E07B692A
:1043A0007A691168BA68D2430A401A6000BF1C37A4
:1043B000BD4680BC704700BF80B483B000AF78605A
:1043C0000B467B807B88C3F308039AB27B689A8094
:1043D00000BF0C37BD4680BC704700BF80B483B0BF
:1043E00000AF78607B689B889BB2C3F308039BB2E5
:1043F00018460C37BD4680BC704700BF80B487B0FC
:1044000000AF78600B467B800023FB6000237B615C
:104410000023BB600023FB747B88DBB25B09DBB24B
:10442000BB607B8803F01F037B6101227B6902FA7A
:1044300003F37B61BB68012B07D17B689B899BB22F
:104440001A467B6913407B6111E0BB68022B07D1E0
:104450007B681B8A9BB21A467B6913407B6106E02E
:104460007B689B8A9BB21A467B6913407B617B8881
:104470001B0A9BB2FB600122FB6802FA03F3FB609C
:104480007B681B889BB21A46FB681340FB607B6904
:10449000002B05D0FB68002B02D00123FB7401E048
:1044A0000023FB74FB7C18461C37BD4680BC70475C
:1044B00080B485B000AF78600A4B1B68002B02D136
:1044C000084B094A1A60074B1B68FB60054B1A68CA
:1044D0007B681344034A1360FB6818461437BD46D3
:1044E00080BC7047740E0020E011002080B400AF43
:1044F000FEE700BF80B586B002AFF860B9603B60F0
:104500001346FB80FB683A681A61FB68BA685A6018
:10451000FB68FA88DA81FB683A8B9A81FB68186934
:10452000FB689B89503399B200230093002300223B
:10453000FFF736FA064BB3F900309BB201339BB25A
:104540001AB2034B1A80002318461037BD4680BDAF
:10455000020E0020B0B584B000AF78607B681B68A5
:10456000002B34D07B689B681C464FF00005FFF79A
:104570009BF902460B46AB4208BFA2422CBF012367
:104580000023DBB2002B22D0FFF78EF903460C4646
:104590001A467B681B681A447B689A607B685B6874
:1045A0000021184600F04EFC03461A4607F10803A6
:1045B00011461846FCF78CFE7B6818697B689B895E
:1045C000513399B207F108030422FFF7CFF9064BE4
:1045D000B3F900309BB2013B9BB21AB2024B1A8076
:1045E00000BF1037BD46B0BD000E002090B583B0AF
:1045F00000AF78607B681B691B697A6892895032CA
:10460000934217D17B681B69DB7E012B12D17B683B
:104610001B695B7F1B027A681269127F13441A467A
:104620007B681A60FFF740F903460C461A467B6820
:104630009A6000BF00BF0C37BD4690BD80B487B004
:1046400000AF786000237B6100233B610F23FB6098
:104650007B68DB78002B3AD0274BDB68DB4303F425
:10466000E0631B0A7B617B69C3F104033B61FA6869
:104670007B6922FA03F3FB607B685B781A463B692F
:1046800002FA03F37B617B689B781A46FB68134050
:104690007A6913437B617B691B017B61174A7B68E5
:1046A0001B787969C9B213440A4683F80023134A78
:1046B0007B681B785B09DBB218467B681B7803F0CC
:1046C0001F03012101FA03F342F820300FE00B49E8
:1046D0007B681B785B09DBB218467B681B7803F0AC
:1046E0001F0301229A4000F1200341F8232000BF5C
:1046F0001C37BD4680BC704700ED00E000E100E0E3
:1047000080B485B000AF78600B46FB700023FB736C
:104710000023BB8100237B8100233B81FB7803F0D6
:104720000F03012202FA03F3BB81FB781B09DBB202
:104730007B817B89012202FA03F37B817B689B8862
:104740009AB27B8913403B817B681B899AB2BB89F3
:1047500013409BB2002B05D03B89002B02D00123D4
:10476000FB7301E00023FB73FB7B18461437BD4647
:1047700080BC704780B485B000AF78600B46FB709A
:104780000023FB81FB7803F00F03012202FA03F3FD
:10479000FB81FB89DB439AB27B681A8100BF143727
:1047A000BD4680BC704700BF90B589B002AFF860CD
:1047B000B96011461A460B46FB801346BB80FB6866
:1047C000BA681A61FB68FA889A81FB681869FB6805
:1047D0009B89513399B20023009300230022FFF7F5
:1047E000DFF801233B75BB88DBB27B75BB881B0AF6
:1047F0009BB2DBB2BB75FB681869FB689B895033C1
:1048000099B207F114030322FFF7B0F80120FFF774
:1048100009F8FFF749F803460C46FA68C2E9003484
:1048200000BF1C37BD4690BD80B483B000AF786038
:104830007B689B6818460C37BD4680BC704700BF3C
:1048400090B583B000AF78607B681B691B697A689C
:104850009289513293420FD17B681B691B331846F2
:10486000FCF720FD02467B689A60FFF71DF80346BF
:104870000C467A68C2E9003400BF0C37BD4690BDD3
:1048800090B587B002AFF860B9607A607B80FB6852
:10489000BA681A61FB687A68DA627B8803F580730C
:1048A0009AB2FB681A817B8803F590739AB2FB6811
:1048B0005A81FB68D86AFB681989FB685A8900230A
:1048C00000930023FFF76CF8FA684FF000034FF0F5
:1048D0000004C2E90634FB683A8C1A85FB680022A2
:1048E0001A75074BB3F900309BB201339BB21AB271
:1048F000034B1A80002318461437BD4690BD00BFF5
:10490000020E002080B483B000AF786039607B680D
:104910003A68DA607B6801221A7500BF0C37BD4621
:1049200080BC7047F0B583B000AF78607B68D3E996
:1049300006127B681B8D9BB24FF00004CD1842EB32
:1049400004062C463546FEF7AFFF02460B469D4255
:1049500008BF944234BF01230023DBB2002B2AD0CE
:104960007B681B694FF000011846FFF74FFB7B681F
:104970001B7D002B0CD07B68D3E90845FEF794FF24
:1049800002460B469D4208BF944201D2012300E03B
:104990000023002B33D07B68DB681846FFF7DCFA76
:1049A000FEF782FF03460C46323344F100047A6876
:1049B000C2E9083423E07B681B7D002B0CD07B68A8
:1049C000D3E90845FEF770FF02460B469D4208BF3B
:1049D000944201D2012300E00023002B0FD07B681A
:1049E000DB681846FFF7B8FAFEF75EFF03460C4691
:1049F00013F5FA7344F100047A68C2E90834064BEF
:104A0000B3F900309BB2013B9BB21AB2024B1A8041
:104A100000BF0C37BD46F0BD000E002090B583B03E
:104A200000AF78607B68DB6A1B697A681289934201
:104A30002FD17B68DB6A1B7F1B0203F4FE437A687D
:104A4000D26AD27E1A437B681A607B68DB6A1B7F5E
:104A5000DB11012B04D17B681B685A427B681A600A
:104A60007B681C697B681B68184601F029FB0346BC
:104A70001349184601F02CFC034619462046FFF75F
:104A8000C5FAFEF711FF03460C467A68C2E9063400
:104A900012E07B68DB6A1B697A68528993420BD10A
:104AA0007B681B691846FFF725FBFEF7FDFE0346F2
:104AB0000C467A68C2E9063400BF0C37BD4690BD8B
:104AC00000FEFF4690B585B000AFF860B9601346B0
:104AD000FB80FB68BA689A64FB68FA885A81FB68B5
:104AE00000225A82FB6800221A81FB6800229A8108
:104AF000FB680022DA81FB6800221A82FB68002230
:104B00001A80FB6800225A80FB6800229A80FEF718
:104B1000CBFE03460C46FA68C2E90834FEF7C4FE31
:104B200003460C46FA68C2E90A34FEF7BDFE0346A6
:104B30000C46FA68C2E90C34FA684FF000034FF0F3
:104B40000004C2E91034FEF7AFFE03460C46FA68D3
:104B5000C2E90E34FB6800229A82FB685B89022B53
:104B600004D102220021F86800F030F900BF1437A8
:104B7000BD4690BDB0B584B000AF78607B689B8ABD
:104B8000002B52D17B689B6C184600F065FB0346F6
:104B9000002B14BF01230023DBB2002B24D07B6841
:104BA0009B6C184600F0CCFA03469AB27B681A83D5
:104BB0007B681B8B552B17D17B6801229A82FEF7ED
:104BC00073FE03460C467A68C2E90834FEF76CFEB1
:104BD00003460C467A68C2E90A34FEF765FE0346CE
:104BE0000C467A68C2E90C34FEF75EFE0A460146BE
:104BF0007B6803F13804D4E90034A2420ABF994229
:104C000001230023DBB2002B00F0DC80FEF74CFE1A
:104C100003460C467A68C2E90E347B689B6C1B68BD
:104C2000AA211846FFF7C8FBCCE07B689B6C1846AE
:104C300000F012FB0346002B14BF01230023DBB25C
:104C4000002B00F099807B689B6C184600F078FA86
:104C50000346FB72FB7A9B11032B24D1FB7A1B11B9
:104C60009BB203F003039AB27B681A81FB7A03F0CC
:104C70000403002B09D07B681A897B68DB8A9A427F
:104C800003D07B6800229A829DE07B681B891D46C9
:104C9000FEF70AFE03460C4679682A1DD2000A4434
:104CA000C2E9003468E0FB7A9B11022B1AD1FB7A2F
:104CB0001B119BB203F003039AB27B681A817B68D5
:104CC0001A897B68DB8A9A4203D07B6800229A8229
:104CD00079E0FB7A9B019BB203F470739AB27B6814
:104CE000DA8049E07B68DB881AB2FB7A5B101BB282
:104CF00003F03F031BB213431BB29AB27B68DA8006
:104D00007B68DB8A1D46FEF7CFFD03460C467968BB
:104D10002A1DD2000A44C2E900347A684FF0000329
:104D20004FF00004C2E910347B68DB8A1A467B68C6
:104D3000D9887B6823F812107B68DB8A7A68043391
:104D40005B00134401229A807B685B89022B13D19C
:104D50007B68DB8A01339AB27B68DA827B68DB8A04
:104D6000022B02D97B680022DA827B68DB8A02226E
:104D70001946786800F02AF87B685B89022B22D1FB
:104D80000023FB60FB68022B1DDCFEF78DFD0A464D
:104D900001467868FB680433DB00034418CBCB1A68
:104DA00062EB0404002C08BF652B2CBF01230023F9
:104DB000DBB2002B02D07B6800229A82FB680133B1
:104DC000FB60DFE700BF1037BD46B0BD90B585B0D2
:104DD00000AF78600B467B8013463B807B683A8847
:104DE0005A817B687A88DA827B88022B25D87B6897
:104DF0005B89012B02D1C923FB730DE0CB23FB732D
:104E00007B68DB8A1B015BB203F030035AB297F96F
:104E10000F3013435BB2FB73FEF746FD03460C46AF
:104E20007A68C2E910347B689B6C1B68FA7B92B28B
:104E300011461846FFF7C0FA00E000BF1437BD4620
:104E400090BD00BF80B483B000AF78600B467B801C
:104E50007B887A6804335B00134400229A807A8846
:104E60007B6833F8123018460C37BD4680BC70475B
:104E700080B584B000AF786039600023FB60FB68C8
:104E80003A6813441B78002B0BD0FB683A68134434
:104E90001B781946786800F095F8FB680133FB60D1
:104EA000EDE700BF1037BD4680BD00BF0EB480B532
:104EB000A5B000AF786007F1A003C7F88C3007F108
:104EC0000C03D7F88C20D7F89C10184602F0ACFFE2
:104ED00007F10C0319467868FFF7CAFF00BF943743
:104EE000BD46BDE8804003B0704700BF80B586B0C6
:104EF00002AFF860B9607A603B60FB68BA681A601C
:104F00003A8B3B8C0093FB693968F86800F018FA1B
:104F1000FB681B68284A934215D1786800F02AFA8A
:104F200040F2255000F098FA40F2277000F094FA11
:104F3000012240F227712048FFF7F6F901211E48AF
:104F4000FFF7D2F934E0FB681B681C4A934215D185
:104F5000786800F035FA40F2255000F099FA40F2F6
:104F6000277000F095FA012240F227711348FFF7ED
:104F7000DBF901211148FFF7B7F919E0FB681B685D
:104F80000F4A934214D1786800F040FA40F225505D
:104F900000F09AFA40F2277000F096FA012240F2EF
:104FA00027710748FFF7C0F901210548FFF79CF971
:104FB00000BF1037BD4680BD0038014000440040AE
:104FC0000048004080B582B000AF78600B46FB70AF
:104FD0007B681B684E4A93422ED1012240F2277112
:104FE0004B48FFF7A1F94B4B1B881A464A4B1B88CD
:104FF00001339A420CD1474B1B8801339AB2454B7F
:105000001A80444B1B887F2B02D9424B00221A8006
:10501000414B1B881946414AFB7853543E4B1B8831
:1050200001339AB23C4B1A803B4B1B887F2B6AD9C9
:10503000394B00221A8066E07B681B68384A93422D
:105040002ED1012240F227713548FFF76DF9354B1B
:105050001B881A46344B1B8801339A420CD1314BC2
:105060001B8801339AB22F4B1A802E4B1B887F2B43
:1050700002D92C4B00221A802B4B1B8819462B4A35
:10508000FB785354284B1B8801339AB2264B1A8065
:10509000254B1B887F2B36D9234B00221A8032E008
:1050A0007B681B68224A93422DD1012240F227716E
:1050B0001F48FFF739F91F4B1B881A461E4B1B88E8
:1050C00001339A420CD11B4B1B8801339AB2194B06
:1050D0001A80184B1B887F2B02D9164B00221A808E
:1050E000154B1B881946154AFB785354124B1B88E5
:1050F00001339AB2104B1A800F4B1B887F2B02D9B9
:105100000D4B00221A8000BF0837BD4680BD00BF8E
:105110000038014084100020861000200410002078
:1051200000440040081100200A11002088100020CF
:10513000004800408C1100208E1100200C1100202E
:1051400080B483B000AF78607B681B68364A9342B6
:105150001DD1364B1B881A46354B1B8801339A42AA
:1051600001D100235AE0324B1B887F2B03D1304BF7
:1051700000221A8005E02E4B1B8801339AB22C4B7B
:105180001A802B4B1B881A462A4B9B5C46E07B6897
:105190001B68294A93421DD1284B1B881A46284B6D
:1051A0001B8801339A4201D1002337E0244B1B882E
:1051B0007F2B03D1224B00221A8005E0204B1B8855
:1051C00001339AB21E4B1A801D4B1B881A461D4B89
:1051D0009B5C23E07B681B681B4A93421DD11B4BE1
:1051E0001B881A461A4B1B8801339A4201D10023AF
:1051F00014E0174B1B887F2B03D1154B00221A801C
:1052000005E0134B1B8801339AB2114B1A80104BE7
:105210001B881A460F4B9B5C00E0002318460C3796
:10522000BD4680BC704700BF003801402800002008
:10523000F80E0020780E0020004400402A000020D4
:105240007C0F0020FC0E0020004800402C000020B5
:1052500000100020800F002080B483B000AF786081
:105260007B681B682D4A934217D12D4B1A882D4B12
:105270001B889A4208D82A4B1A882A4B1B88D31AB3
:105280009BB27F339BB243E0254B1A88254B1B888A
:10529000D31A9BB2013B9BB23AE07B681B68224A5F
:1052A000934217D1214B1A88214B1B889A4208D868
:1052B0001E4B1A881E4B1B88D31A9BB27F339BB29E
:1052C00026E01A4B1A881A4B1B88D31A9BB2013B53
:1052D0009BB21DE07B681B68164A934217D1164BA0
:1052E0001A88164B1B889A4208D8134B1A88134BFE
:1052F0001B88D31A9BB27F339BB209E00E4B1A88EE
:105300000E4B1B88D31A9BB2013B9BB200E00023DB
:1053100018460C37BD4680BC704700BF00380140BE
:1053200028000020F80E0020004400402A00002041
:105330007C0F0020004800402C00002000100020BE
:1053400080B58AB000AFF860B9603B601346FB805F
:10535000FA8807F11C001823B968FEF78DFD3A8E14
:1053600007F1100048233968FEF786FD00BF283793
:10537000BD4680BD80B586B000AF786001214FF496
:105380008040FEF71FFD07F108031846FEF790FF67
:105390007B68BB600C237B8200233B824FF400536D
:1053A000FB810023BB8107F1080319460348FEF780
:1053B000C5FE00BF1837BD4680BD00BF00380140A4
:1053C00080B586B000AF786001214FF40030FEF761
:1053D00017FD07F108031846FEF76AFF7B68BB60FC
:1053E0000C237B8200233B824FF40053FB8100237C
:1053F000BB8107F1080319460348FEF79FFE00BF73
:105400001837BD4680BD00BF0044004080B586B05F
:1054100000AF786001214FF48020FEF7F1FC07F126
:1054200008031846FEF744FF7B68BB600C237B82B1
:1054300000233B824FF40053FB810023BB8107F123
:10544000080319460348FEF779FE00BF1837BD462A
:1054500080BD00BF0048004080B584B000AF034667
:10546000FB8025233B730023BB730123FB7307F1F0
:105470000C031846FFF7E2F8FB880122194603489F
:10548000FEF752FF00BF1037BD4680BD0038014017
:1054900080B584B000AF0346FB8026233B73002316
:1054A000BB730123FB7307F10C031846FFF7C6F823
:1054B000FB88012219460348FEF736FF00BF10376C
:1054C000BD4680BD0044004080B584B000AF0346B7
:1054D000FB8027233B730023BB730123FB7307F17E
:1054E0000C031846FFF7AAF8FB8801221946034867
:1054F000FEF71AFF00BF1037BD4680BD00480040D0
:1055000098B500AF40F225512E48FEF777FF0346CD
:10551000012B0CBF01230023DBB2002B1ED02A4B32
:105520001B881C462748FEF759FF0346DAB2274B73
:105530001A55254B1B8801339AB2234B1A80224BF4
:105540001B887F2B02D9204B00221A80FEF7ACF972
:1055500003460C461E4AC2E9003430E040F227718F
:105560001848FEF74BFF0346012B0CBF0123002315
:10557000DBB2002B23D0174B1A88174B1B889A429B
:1055800017D0154B1B881A46144B9B5C9BB21946CF
:105590000C48FEF711FF104B1B8801339AB20E4BDB
:1055A0001A800D4B1B887F2B09D90B4B00221A80C8
:1055B00005E0002240F227710248FEF7B5FE00BF69
:1055C00098BD00BF0038014028000020780E002060
:1055D000901100208610002084100020041000206C
:1055E00098B500AF40F225512E48FEF707FF03465D
:1055F000012B0CBF01230023DBB2002B1ED02A4B52
:105600001B881C462748FEF7E9FE0346DAB2274B03
:105610001A55254B1B8801339AB2234B1A80224B13
:105620001B887F2B02D9204B00221A80FEF73CF901
:1056300003460C461E4AC2E9003430E040F22771AE
:105640001848FEF7DBFE0346012B0CBF01230023A5
:10565000DBB2002B23D0174B1A88174B1B889A42BA
:1056600017D0154B1B881A46144B9B5C9BB21946EE
:105670000C48FEF7A1FE104B1B8801339AB20E4B6B
:105680001A800D4B1B887F2B09D90B4B00221A80E7
:1056900005E0002240F227710248FEF745FE00BFF8
:1056A00098BD00BF004400402A000020FC0E0020EE
:1056B000981100200A1100200811002088100020F5
:1056C00098B500AF40F225512E48FEF797FE0346ED
:1056D000012B0CBF01230023DBB2002B1ED02A4B71
:1056E0001B881C462748FEF779FE0346DAB2274B93
:1056F0001A55254B1B8801339AB2234B1A80224B33
:105700001B887F2B02D9204B00221A80FEF7CCF891
:1057100003460C461E4AC2E9003430E040F22771CD
:105720001848FEF76BFE0346012B0CBF0123002334
:10573000DBB2002B23D0174B1A88174B1B889A42D9
:1057400017D0154B1B881A46144B9B5C9BB219460D
:105750000C48FEF731FE104B1B8801339AB20E4BFA
:105760001A800D4B1B887F2B09D90B4B00221A8006
:1057700005E0002240F227710248FEF7D5FD00BF88
:1057800098BD00BF004800402C000020800F002082
:10579000A01100208E1100208C1100200C1100207F
:1057A00080B400AF034B4AF6AA221A6000BFBD4680
:1057B00080BC70470030004081F0004102E000BF33
:1057C00083F0004330B54FEA41044FEA430594EAC1
:1057D000050F08BF90EA020F1FBF54EA000C55EAFC
:1057E000020C7FEA645C7FEA655C00F0E2804FEACD
:1057F0005454D4EB5555B8BF6D420CDD2C4480EAAF
:10580000020281EA030382EA000083EA010180EADE
:10581000020281EA0303362D88BF30BD11F0004F2C
:105820004FEA01314FF4801C4CEA113102D0404262
:1058300061EB410113F0004F4FEA03334CEA13339D
:1058400002D0524263EB430394EA050F00F0A780B5
:10585000A4F10104D5F1200E0DDB02FA0EFC22FAB0
:1058600005F2801841F1000103FA0EF2801843FAA4
:1058700005F359410EE0A5F120050EF1200E012A95
:1058800003FA0EFC28BF4CF0020C43FA05F3C018D3
:1058900051EBE37101F0004507D54FF0000EDCF14C
:1058A000000C7EEB00006EEB0101B1F5801F1BD3F5
:1058B000B1F5001F0CD349085FEA30004FEA3C0CF9
:1058C00004F101044FEA445212F5800F80F09A80EF
:1058D000BCF1004F08BF5FEA500C50F1000041EBF3
:1058E000045141EA050130BD5FEA4C0C404141EBF7
:1058F000010111F4801FA4F10104E9D191F0000F1E
:1059000004BF01460020B1FA81F308BF2033A3F1A0
:105910000B03B3F120020CDA0C3208DD02F1140C97
:10592000C2F10C0201FA0CF021FA02F10CE002F1D2
:105930001402D8BFC2F1200C01FA02F120FA0CFCCB
:10594000DCBF41EA0C019040E41AA2BF01EB045114
:10595000294330BD6FEA04041F3C1CDA0C340EDC12
:1059600004F11404C4F1200220FA04F001FA02F355
:1059700040EA030021FA04F345EA030130BDC4F113
:105980000C04C4F1200220FA02F001FA04F340EA08
:105990000300294630BD21FA04F0294630BD94F0B9
:1059A000000F83F4801306BF81F480110134013DA0
:1059B0004EE77FEA645C18BF7FEA655C29D094EA11
:1059C000050F08BF90EA020F05D054EA000C04BF8F
:1059D0001946104630BD91EA030F1EBF002100207A
:1059E00030BD5FEA545C05D14000494128BF41F019
:1059F000004130BD14F580043CBF01F5801130BD7D
:105A000001F0004545F0FE4141F470014FF0000007
:105A100030BD7FEA645C1ABF194610467FEA655CB8
:105A20001CBF0B46024650EA013406BF52EA03355A
:105A300091EA030F41F4002130BD00BF90F0000F48
:105A400004BF0021704730B54FF4806404F1320484
:105A50004FF000054FF0000150E700BF90F0000F3D
:105A600004BF0021704730B54FF4806404F1320464
:105A700010F0004548BF40424FF000013EE700BF34
:105A800042004FEAE2014FEA31014FEA02701FBFC4
:105A900012F07F4393F07F4F81F06051704792F096
:105AA000000F14BF93F07F4F704730B54FF4607410
:105AB00001F0004521F0004120E700BF50EA01025B
:105AC00008BF704730B54FF000050AE050EA010208
:105AD00008BF704730B511F0004502D5404261EB78
