:020000040800F2
:10000000C0120020011600086116000861160008E1
:100010006116000861160008611600080000000063
:100020000000000000000000000000006116000851
:10003000611600080000000061160008091F000892
:1000400061160008611600086116000861160008B4
:1000500061160008611600086116000861160008A4
:100060006116000861160008611600086116000894
:100070006116000861160008611600086116000884
:100080006116000861160008611600086116000874
:10009000CD1B0008611600086116000861160008F3
:1000A000611600081D14000861160008611600089A
:1000B0005D140008B114000801150008611600085D
:1000C0006116000861160008611600080D0100089D
:1000D00061160008112B0008F92B0008E12C00081C
:1000E0006116000861160008611600080000000093
:1000F0000000000000000000000000000000000000
:1001000000000000000000005FF808F180B500AFBB
:100110007121114802F042FB0346002B14BF01235A
:100120000023DBB2002B04D002210B4802F070FB4D
:100130000FE06021084802F031FB0346002B14BF9A
:1001400001230023DBB2002B03D00121024802F07F
:100150005FFB00BF80BD00BF0030014080B485B0B0
:1001600000AF786039600023FB817B681B88FB81CE
:100170007B682E4A934213D07B682D4A93420FD05E
:100180007B68B3F1804F0BD07B682A4A934207D03B
:100190007B68294A934203D07B68284A934208D15E
:1001A000FB8923F07003FB813B685A88FB8913436A
:1001B000FB817B68224A93420CD07B68214A9342A0
:1001C00008D0FB8923F44073FB813B68DA88FB8904
:1001D0001343FB817B68FA891A803B689A887B68A5
:1001E0009A853B681A887B681A857B680F4A934218
:1001F0000FD07B680E4A93420BD07B68124A934221
:1002000007D07B68114A934203D07B68104A93421F
:1002100004D13B681B7A9AB27B681A867B680122FC
:100220009A8200BF1437BD4680BC7047002C014045
:10023000003401400004004000080040000C004071
:100240000010004000140040004001400044014004
:100250000048014080B485B000AF78603960002369
:100260007B810023FB810023BB817B681B8C9BB2BD
:1002700023F001039AB27B681A847B681B8CFB8194
:100280007B689B88BB817B681B8B7B817B8923F090
:1002900070037B817B8923F003037B813B681A8891
:1002A0007B8913437B81FB8923F00203FB813B683D
:1002B0001A89FB891343FB813B685A88FB891343E6
:1002C000FB817B68244A93420FD07B68234A934288
:1002D0000BD07B68224A934207D07B68214A934225
:1002E00003D07B68204A934223D1FB8923F0080383
:1002F000FB813B685A89FB891343FB81FB8923F00F
:100300000403FB813B689A88FB891343FB81BB890B
:1003100023F48073BB81BB8923F40073BB813B68EA
:100320009A89BB891343BB813B68DA89BB89134334
:10033000BB817B68BA899A807B687A891A833B681B
:10034000DA887B689A867B68FA891A8400BF14373A
:10035000BD4680BC704700BF002C01400034014006
:1003600000400140004401400048014080B485B095
:1003700000AF7860396000237B810023FB8100237C
:10038000BB817B681B8C9BB223F010039AB27B6805
:100390001A847B681B8CFB817B689B88BB817B6894
:1003A0001B8B7B817B8923F4E0437B817B8923F456
:1003B00040737B813B681B881B029AB27B89134385
:1003C0007B81FB8923F02003FB813B681B891B0198
:1003D0009AB2FB891343FB813B685B881B019AB28D
:1003E000FB891343FB817B68224A934203D07B68DD
:1003F000214A93422BD1FB8923F08003FB813B6888
:100400005B891B019AB2FB891343FB81FB8923F0B3
:100410004003FB813B689B881B019AB2FB89134315
:10042000FB81BB8923F48063BB81BB8923F4006318
:10043000BB813B689B899B009AB2BB891343BB81FC
:100440003B68DB899B009AB2BB891343BB817B6805
:10045000BA899A807B687A891A833B68DA887B68D4
:100460001A877B68FA891A8400BF1437BD4680BC9E
:10047000704700BF002C01400034014080B485B0BB
:1004800000AF7860396000237B810023FB8100236B
:10049000BB817B681B8C9BB223F480739AB27B6810
:1004A0001A847B681B8CFB817B689B88BB817B6883
:1004B0009B8B7B817B8923F070037B817B8923F07D
:1004C00003037B813B681A887B8913437B81FB890B
:1004D00023F40073FB813B681B891B029AB2FB89E2
:1004E0001343FB813B685B881B029AB2FB89134371
:1004F000FB817B68224A934203D07B68214A934266
:100500002BD1FB8923F40063FB813B685B891B02D1
:100510009AB2FB891343FB81FB8923F48063FB813F
:100520003B689B881B029AB2FB891343FB81BB8902
:1005300023F48053BB81BB8923F40053BB813B6808
:100540009B891B019AB2BB891343BB813B68DB8942
:100550001B019AB2BB891343BB817B68BA899A801D
:100560007B687A899A833B68DA887B689A877B689C
:10057000FA891A8400BF1437BD4680BC704700BF9B
:10058000002C01400034014080B485B000AF786099
:1005900039600023BB8100237B810023FB817B68C2
:1005A0001B8C9BB223F480539AB27B681A847B68BD
:1005B0001B8C7B817B689B88FB817B689B8BBB81D1
:1005C000BB8923F4E043BB81BB8923F44073BB8127
:1005D0003B681B881B029AB2BB891343BB817B8992
:1005E00023F400537B813B681B891B039AB27B89F0
:1005F00013437B813B685B881B039AB27B8913435F
:100600007B817B68124A934203D07B68114A9342F4
:100610000AD1FB8923F48043FB813B689B899B01C2
:100620009AB2FB891343FB817B68FA899A807B68C5
:10063000BA899A833B68DA887B68A3F840207B6894
:100640007A891A8400BF1437BD4680BC704700BF4A
:10065000002C01400034014080B483B000AF7860CA
:1006600039603B681A883B685B8813439AB23B68E1
:100670009B8813439AB23B68DB8813439AB23B686A
:100680001B8913439AB23B685B8913439AB23B6858
:100690009B8913439AB27B68A3F8442000BF0C37B0
:1006A000BD4680BC704700BF80B483B000AF7860A7
:1006B0007B684FF6FF729A807B6800221A807B6805
:1006C0000022DA807B6800225A807B6800221A723E
:1006D00000BF0C37BD4680BC704700BF80B483B0FC
:1006E00000AF78607B6800221A807B6800225A8005
:1006F0007B6800229A807B680022DA807B68002277
:100700001A817B6800225A817B6800229A817B686B
:100710000022DA8100BF0C37BD4680BC704700BFA5
:1007200080B483B000AF78607B6800221A807B6859
:1007300000225A807B6800229A807B680022DA803F
:100740007B6800221A817B6800225A817B68002224
:100750009A8100BF0C37BD4680BC704780B483B01F
:1007600000AF78600B46FB70FB78002B08D07B68ED
:100770001B889BB243F001039AB27B681A8007E0A2
:100780007B681B889BB223F001039AB27B681A80B6
:1007900000BF0C37BD4680BC704700BF80B483B03B
:1007A00000AF78600B467B8013467B707B78002B14
:1007B00008D07B689B899AB27B8813439AB27B6886
:1007C0009A8109E07B689B899AB27B88DB439BB264
:1007D00013409AB27B689A8100BF0C37BD4680BC3B
:1007E000704700BF80B487B000AFF860084611467C
:1007F0001A4603467B810B463B811346FB80002350
:10080000FB820023BB8200237B82FB681B89FB8267
:10081000FB681B8BBB82FB681B8C7B82FB8A23F0F3
:100820000703FB82FA8A7B891343FB82BB8A23F48A
:10083000407323F00303BB82BB8A43F4807343F00D
:100840000103BB827B8A23F022037B82FB881B018E
:100850009AB23B8913439AB27B8A13437B82FB682B
:10086000FA8A1A81FB68BA8A1A83FB687A8A1A8420
:1008700000BF1C37BD4680BC704700BF80B483B04A
:1008800000AF78600B46FB70FB78002B08D07B68CC
:100890001B889BB243F080039AB27B681A8007E002
:1008A0007B681B889BB223F080039AB27B681A8016
:1008B00000BF0C37BD4680BC704700BF80B485B018
:1008C00000AF78600B467B800023FB730023BB8165
:1008D00000237B817B681B8A9AB27B881340BB8193
:1008E0007B689B899AB27B8813407B81BB89002BF4
:1008F00005D07B89002B02D00123FB7301E000238C
:10090000FB73FB7B18461437BD4680BC704700BFA5
:1009100080B483B000AF78600B467B807B88DB437C
:100920009AB27B681A8200BF0C37BD4680BC704704
:1009300080B500AF154A154B1B6843F001031360E7
:100940001249124B5A68124B13404B600F4A0F4B1F
:100950001B6823F0847323F4803313600B4A0B4B22
:100960001B6823F480231360084A084B5B6823F458
:10097000FE035360054B4FF41F029A6000F00CF821
:10098000044B4FF000629A6000BF80BD001002402F
:100990000000FFF800ED00E080B500AF00F002F8C5
:1009A00000BF80BD80B483B000AF00237B60002314
:1009B0003B603A4A394B1B6843F480331360374B32
:1009C0001B6803F400333B607B6801337B603B684A
:1009D000002B03D17B68B3F5A06FF0D12F4B1B68C0
:1009E00003F40033002B02D001233B6001E000231D
:1009F0003B603B68012B4BD1294A294B1B6843F0D4
:100A000010031360264A264B1B6823F00303136070
:100A1000234A234B1B6843F0020313601F4A1F4BFA
:100A20005B6853601D4A1D4B5B6853601B4A1B4B40
:100A30005B6843F480635360184A184B5B6823F487
:100A40007C135360154A154B5B6843F4E8135360FD
:100A5000124A124B1B6843F08073136000BF0F4BA8
:100A60001B6803F00073002BF9D00C4A0B4B5B683A
:100A700023F003035360094A084B5B6843F0020309
:100A8000536000BF054B5B6803F00C03082BF9D1E2
:100A900000BF0C37BD4680BC704700BF001002404D
:100AA0000020024080B584B000AFF860B9603B60C0
:100AB0001346FB803B8B1A463968F86800F094F9BE
:100AC000FB68FA889A81FB68BA689A60FB68BA8BFF
:100AD0009A80FB683A8CDA80FB68BA8CDA81FB6812
:100AE0009B68404A93420BD13F4B01221A60FB683E
:100AF0009A88FB68DB881946104600F087F931E0D8
:100B0000FB689B68B3F1804F0BD1384B01221A6010
:100B1000FB689A88FB68DB881946104600F0B8F934
:100B200020E0FB689B68324A93420BD1314B012293
:100B30001A60FB689A88FB68DB881946104600F04B
:100B4000CBF90FE0FB689B682B4A934243D12B4BB8
:100B500001221A60FB689A88FB68DB8819461046F8
:100B600000F0E0F9FB689B89013B032B35D801A21B
:100B700052F823F0850B0008970B0008A90B00081A
:100B8000BB0B0008FB689A68FB68DB8919461046B6
:100B900000F0EEF91AE0FB689A68FB68DB891946F9
:100BA000104600F00BFA11E0FB689A68FB68DB89DD
:100BB0001946104600F028FA08E0FB689A68FB68BE
:100BC000DB891946104600F045FA00BF0021F8689D
:100BD00000F016F802E000BF00E000BF1037BD468D
:100BE00080BD00BF002C0140C8090020CC090020B6
:100BF00000040040D009002000080040D409002073
:100C000080B582B000AF78600B467B807B689B68C4
:100C1000384A934205D1384B1B68012B22D001235F
:100C200063E07B689B68B3F1804F05D1334B1B6851
:100C3000012B17D0012358E07B689B68304A934210
:100C400005D1304B1B68012B0CD001234DE07B6894
:100C50009B682D4A934205D12C4B1B68012B01D078
:100C6000012342E07B689B887A889A4202D97B689C
:100C70009B887B807B687A885A807B689B89013B54
:100C8000032B2FD801A252F823F000BF9D0C0008BF
:100C9000AF0C0008C10C0008D30C00087B689A68F0
:100CA0007B685B881946104600F0FAF91CE07B6807
:100CB0009A687B685B881946104600F0FFF913E0DC
:100CC0007B689A687B685B881946104600F004FAD6
:100CD0000AE07B689A687B685B881946104600F0DA
:100CE00009FA01E0012300E0002318460837BD4659
:100CF00080BD00BF002C0140C8090020CC090020A5
:100D000000040040D009002000080040D409002061
:100D100080B586B002AFF860B9607A607B807A886F
:100D2000BB8B0093BB697968F86800F043F8FB68F7
:100D3000BA689A60FB6801221A70FB689B68164AC1
:100D4000934205D1154B02221A6000F0E3F91FE02F
:100D5000FB689B68B3F1804F05D1114B02221A60EA
:100D600000F002FA14E0FB689B680E4A934205D13A
:100D70000D4B02221A6000F021FA09E0FB689B6823
:100D80000A4A934204D10A4B02221A6000F03EFA4A
:100D900000BF1037BD4680BD002C0140C8090020AF
:100DA000CC09002000040040D009002000080040C9
:100DB000D409002080B58AB000AFF860B9603B600C
:100DC0001346FB80FA8807F11C004823B96801F03C
:100DD000FDF83A8E07F110004823396801F0F6F863
:100DE00000BF2837BD4680BD80B588B000AFF86031
:100DF000B9601346FB80FA8807F114001823B9681C
:100E000001F0E4F800BF2037BD4680BD80B58AB050
:100E100000AF03460A46FB801346BB8001214FF416
:100E2000006001F097F80121012001F093F807F12B
:100E30001C031846FFF738FCFB883B84BB88BB8348
:100E40000023FB83002387F8243007F11C03194695
:100E50000E48FFF783F907F10C031846FFF760FC13
:100E60004FF480433B8307F10C0319460748FFF713
:100E7000F3FB01210548FFF701FD01210348FFF7BE
:100E80006DFC00BF2837BD4680BD00BF002C01406F
:100E900080B586B000AF03460A46FB801346BB8090
:100EA0000121012001F074F80121012001F052F824
:100EB00007F10C031846FFF7F7FBFB883B82BB8862
:100EC000BB8107F10C0319464FF08040FFF746F94C
:100ED00000BF1837BD4680BD80B586B000AF034661
:100EE0000A46FB801346BB800121022001F050F826
:100EF0000121012001F02EF807F10C031846FFF73D
:100F0000D3FBBB88BB81FB883B8207F10C031946EE
:100F10000348FFF723F900BF1837BD4680BD00BF67
:100F20000004004080B586B000AF03460A46FB804F
:100F30001346BB800121042001F02AF80121012081
:100F400001F008F807F10C031846FFF7ADFBBB886A
:100F5000BB81FB883B8207F10C0319460348FFF76E
:100F6000FDF800BF1837BD4680BD00BF0008004037
:100F700080B586B000AF78600B467B8007F1080330
:100F80001846FFF7ABFB7B883B8101237B81002365
:100F9000FB8100233B8207F1080319467868FFF7BD
:100FA00059F901217868FFF769FC01217868FFF79A
:100FB000D5FB00BF1837BD4680BD00BF80B586B0E9
:100FC00000AF78600B467B8007F108031846FFF7F7
:100FD00085FB7B883B8101237B810023FB810023F0
:100FE0003B8207F1080319467868FFF7BFF9012132
:100FF0007868FFF743FC01217868FFF7AFFB00BF7B
:101000001837BD4680BD00BF80B586B000AF7860A0
:101010000B467B8007F108031846FFF75FFB7B88D0
:101020003B8101237B810023FB8100233B8207F16D
:10103000080319467868FFF721FA01217868FFF75D
:101040001DFC01217868FFF789FB00BF1837BD46FA
:1010500080BD00BF80B586B000AF78600B467B8056
:1010600007F108031846FFF739FB7B883B81012312
:101070007B810023FB8100233B8207F10803194693
:101080007868FFF781FA01217868FFF7F7FB012103
:101090007868FFF763FB00BF1837BD4680BD00BF0F
:1010A00080B483B000AF78600B467B807B687A8821
:1010B0009A8600BF0C37BD4680BC704780B483B0B1
:1010C00000AF78600B467B807B687A881A8700BF08
:1010D0000C37BD4680BC704780B483B000AF7860E9
:1010E0000B467B807B687A889A8700BF0C37BD46A9
:1010F00080BC704780B483B000AF78600B467B80C3
:101100007B687A88A3F8402000BF0C37BD4680BCBE
:10111000704700BF80B582B000AF19233B71002338
:101120007B710023BB710123FB713B1D184601F04D
:10113000D3FA01214FF4006000F00CFF00230022DD
:1011400003210848FFF74EFB012201210548FFF764
:1011500025FB01210348FFF701FB00BF0837BD460F
:1011600080BD00BF002C014080B582B000AF1C23C1
:101170003B7100237B710023BB710123FB713B1D7D
:10118000184601F0A9FA0121012000F001FF002317
:10119000002203214FF08040FFF724FB01220121B0
:1011A0004FF08040FFF7FAFA01214FF08040FFF73F
:1011B000D5FA00BF0837BD4680BD00BF80B582B0FC
:1011C00000AF1D233B7100237B710023BB71012302
:1011D000FB713B1D184601F07FFA0121022000F04F
:1011E000D7FE0023002203210748FFF7FBFA012264
:1011F00001210548FFF7D2FA01210348FFF7AEFAB3
:1012000000BF0837BD4680BD0004004080B582B0F5
:1012100000AF1E233B7100237B710023BB710123B0
:10122000FB713B1D184601F057FA0121042000F024
:10123000AFFE0023002203210748FFF7D3FA012263
:1012400001210548FFF7AAFA01210348FFF786FAB2
:1012500000BF0837BD4680BD0008004080B400AF25
:101260000C4B9B8C9BB21BB2DB439BB2DB0BDBB208
:10127000002B05D0084B1B680133074A136004E0BC
:10128000054B1B68013B044A136000BFBD4680BC90
:10129000704700BF002C0140D809002080B400AF87
:1012A0004FF080439B8C9BB21BB2DB439BB2DB0BAA
:1012B000DBB2002B05D0074B1B680133054A1360D6
:1012C00004E0044B1B68013B024A136000BFBD46AB
:1012D00080BC7047DC09002080B400AF0C4B9B8CB5
:1012E0009BB21BB2DB439BB2DB0BDBB2002B05D006
:1012F000084B1B680133074A136004E0054B1B6869
:10130000013B044A136000BFBD4680BC704700BF6C
:1013100000040040E009002080B400AF0C4B9B8C1F
:101320009BB21BB2DB439BB2DB0BDBB2002B05D0C5
:10133000084B1B680133074A136004E0054B1B6828
:10134000013B044A136000BFBD4680BC704700BF2C
:1013500000080040E409002080B400AF00BFBD4693
:1013600080BC704780B400AF00BFBD4680BC7047F2
:1013700080B400AF00BFBD4680BC704780B400AFF2
:1013800000BFBD4680BC704780B400AF00BFBD4603
:1013900080BC704780B400AF00BFBD4680BC7047C2
:1013A00080B400AF00BFBD4680BC704780B400AFC2
:1013B000044B1B680133034A136000BFBD4680BC69
:1013C000704700BFD809002080B400AF044B1B68F1
:1013D0000133034A136000BFBD4680BC704700BFA5
:1013E000DC09002080B400AF044B1B680133034AC2
:1013F000136000BFBD4680BC704700BFE0090020FD
:1014000080B400AF044B1B680133034A136000BF74
:10141000BD4680BC704700BFE409002080B500AF26
:101420000C4B1B68022B02D1FFF718FF0CE0094B95
:101430001B68012B02D1FFF78FFF05E0054B1B68EE
:10144000032B01D1FFF7B2FF01210348FFF760FA38
:1014500000BF80BDC8090020002C014080B500AF4E
:10146000124B1B68022B07D1FFF718FF01214FF029
:101470008040FFF74DFA16E00C4B1B68012B07D19B
:10148000FFF770FF01214FF08040FFF741FA0AE0BB
:10149000064B1B68032B06D1FFF796FF01214FF087
:1014A0008040FFF735FA00BF80BD00BFCC090020A7
:1014B00080B500AF104B1B68022B06D1FFF70CFF65
:1014C00001210E48FFF724FA14E00B4B1B68012B97
:1014D00006D1FFF74DFF01210848FFF719FA09E08F
:1014E000054B1B68032B05D1FFF77CFF0121034847
:1014F000FFF70EFA00BF80BDD009002000040040B5
:1015000080B500AF3C4B1B68022B06D1FFF704FFF0
:1015100001213A48FFF7FCF96CE0374B1B68012BBF
:101520005ED101213548FFF7C9F90346012B0CBFF5
:1015300001230023DBB2002B06D000F0C3FB012106
:101540002E48FFF7E5F955E002212C48FFF7B6F9E0
:101550000346012B0CBF01230023DBB2002B06D076
:10156000FFF70CFF02212548FFF7D2F942E00421E2
:101570002248FFF7A3F90346012B0CBF01230023E8
:10158000DBB2002B06D0FFF7FFFE04211B48FFF75C
:10159000BFF92FE008211948FFF790F90346012B06
:1015A0000CBF01230023DBB2002B06D0FFF7F2FEB5
:1015B00008211248FFF7ACF91CE010210F48FFF793
:1015C0007DF90346012B0CBF01230023DBB2002B66
:1015D00010D0FFF7E5FE10210848FFF799F909E060
:1015E000054B1B68032B05D1FFF70AFF01210348B8
:1015F000FFF78EF900BF80BDD4090020000800402D
:1016000080B582B000AF114B7B60114B3B6007E0AF
:101610003B681A1D3A607A68111D796012681A6079
:101620003B680C4A9342F3D30B480C494FF000023D
:101630008842B8BF40F8042BFADBFFF779F900F0D5
:10164000E1FA00BF0837BD4680BD00BFD092000858
:1016500000000020C8090020C8090020BC0E00209E
:1016600080B400AFFEE700BF80B485B000AFF86083
:101670000B467A60FB72FB7AFA681B331B0113443A
:101680001B68DBB203F00403DAB27B681A727B6872
:101690001B7A002B09D1FB7AFA681B331B01134418
:1016A0001B685A0D7B681A6008E0FB7AFA681B33E6
:1016B0001B0113441B68DA087B685A60FB7AFA68DE
:1016C0001B331B0113441B68DBB203F00203DAB2C5
:1016D0007B685A72FB7AFA681B331B01134404338C
:1016E0001B68DBB203F00F03DAB27B689A72FB7AF5
:1016F000FA681B331B01134404331B681B0ADAB25C
:101700007B68DA74FB7AFA681B01134403F5DC7317
:101710001B68DAB27B68DA72FB7AFA681B01134441
:1017200003F5DC731B681B0ADAB27B681A73FB7A59
:10173000FA681B01134403F5DC731B681B0CDAB257
:101740007B685A73FB7AFA681B01134403F5DC7358
:101750001B681B0EDAB27B689A73FB7AFA681B016E
:10176000134403F5DE731B68DAB27B68DA73FB7A25
:10177000FA681B01134403F5DE731B681B0ADAB217
:101780007B681A74FB7AFA681B01134403F5DE7355
:101790001B681B0CDAB27B685A74FB7AFA681B016F
:1017A000134403F5DE731B681B0EDAB27B689A7470
:1017B000FB7A002B06D1FB68DB6843F02002FB6854
:1017C000DA6005E0FB681B6943F02002FB681A61E0
:1017D00000BF1437BD4680BC704700BF80B489B0DD
:1017E00000AF786039600023FB6100233B61002378
:1017F000BB610023FB6000237B610023BB603B686F
:10180000DB7803F00F03FB613B68DB7803F0100328
:10181000002B05D03B689B781A46FB691343FB619C
:101820003B681B88DBB2002B44D07B681B687B6164
:101830000023BB6138E00122BB6902FA03F3FB60BD
:101840003B681B881A46FB6813403B613A69FB689A
:101850009A4226D1BB699B00FB600F22FB6802FA0B
:1018600003F3BB60BB68DB437A6913407B61FA69B1
:10187000FB6802FA03F37A6913437B613B68DB7808
:10188000282B05D10122BB699A407B685A6108E088
:101890003B68DB78482B04D10122BB699A407B6806
:1018A0001A61BB690133BB61BB69072BC3D97B6874
:1018B0007A691A603B681B88FF2B46D97B685B6896
:1018C0007B610023BB613AE0BB690833012202FA65
:1018D00003F3FB603B681B881A46FB6813403B61BF
:1018E0003A69FB689A4227D1BB699B00FB600F22D3
:1018F000FB6802FA03F3BB60BB68DB437A69134001
:101900007B61FA69FB6802FA03F37A6913437B612E
:101910003B68DB78282B05D1BB69083301229A404C
:101920007B685A613B68DB78482B05D1BB6908337B
:1019300001229A407B681A61BB690133BB61BB69B4
:10194000072BC1D97B687A695A6000BF2437BD462E
:1019500080BC704780B483B000AF78607B684FF67E
:10196000FF721A807B6802229A707B680422DA7008
:1019700000BF0C37BD4680BC704700BF80B485B047
:1019800000AF78600B467B800023FB737B689A680E
:101990007B881340002B02D00123FB7301E000235E
:1019A000FB73FB7B18461437BD4680BC704700BFF5
:1019B00080B483B000AF78600B467B8013467B70A9
:1019C0007B78002B03D07A887B681A6102E07A88E2
:1019D0007B685A6100BF0C37BD4680BC704700BFB2
:1019E00080B584B004AF00F02BFA102308226249BE
:1019F000624800F0EBFA102310225F49604800F0C3
:101A0000E5FA102320225C495E4800F0DFFA10233B
:101A100004225D495D4800F0D9FA10234FF480524A
:101A200059495B4800F0D2FA10234FF4005256494E
:101A3000584800F0CBFA10234FF4804252495648E0
:101A400000F0C4FA10234FF400424F49534800F00D
:101A5000BDFA02230193484B00930123464A4FF0FD
:101A600080414F48FFF754F980230193424B009384
:101A70004023414A4B494C48FFF74AF960230393FE
:101A80000023029340F246530193402300933E4BC0
:101A9000012246494648FFF705F8602303930023D7
:101AA000029340F24653019380230093364B022267
:101AB0003E494048FEF7F6FF60230393002302935C
:101AC00040F2465301934FF4807300932E4B032250
:101AD00036493948FEF7E6FF60230393002302935B
:101AE00040F2465301934FF400730093264B0422B7
:101AF0002E493248FEF7D6FF60230393002302935A
:101B000040F2465301934FF4807300931A4B012225
:101B10002B492C48FEF7C6FF602303930023029352
:101B200040F2465301934FF400730093124B02228C
:101B300023492548FEF7B6FF40F246512148FFF7FA
:101B40005FF840F246512048FFF75AF840F2A321CF
:101B50001748FFF755F840F2A3211648FFF750F851
:101B600040F2A3211448FFF74BF840F2A321134899
:101B7000FFF746F8FEE700BF00080140F40A002026
:101B8000000B00200C0B0020000C0140180B002063
:101B9000240B0020300B00203C0B0020480B0020C1
:101BA000480A002000040040580A002000080040B5
:101BB000E8090020F8090020080A0020180A00207F
:101BC000002C0140280A0020380A002080B500AF10
:101BD000084B1B8801339AB2064B1A80064800F066
:101BE000A3F9064800F02EFE054800F02BFE00BFCA
:101BF00080BD00BF180C0020680A0020A00B002048
:101C0000D00B002080B586B000AF00233B610023DD
:101C10007B610023BB600023FB6000233B6000234B
:101C20007B60FFF7DDFE1F4800F02CFA0346002B17
:101C30000CBF01230023DBB2002B08D01A491B483C
:101C400000F032FA18491A4800F02EFA1DE019483F
:101C500000F018FA0346002B0CBF01230023DBB26F
:101C6000002B08D01449114800F01EFA1249104800
:101C700000F01AFA09E04FF000010C4800F014FAE5
:101C80004FF000010A4800F00FFA642000F0EAF873
:101C9000064B1A68054B9B690849094800F05AFE33
:101CA000C1E700BFD00A0020CDCCCC3D6C0B00209A
:101CB000840B0020C40A0020CDCCCCBD488C000889
:101CC000800A002098B500AF0221304800F078FB70
:101CD0000346012B0CBF01230023DBB2002B20D0D5
:101CE0002B4800F095FC034699B24FF00002294BB7
:101CF00018CBCB1A62EB0404274AD2E900125B1816
:101D000044EB0204244AC2E90034244B18CB0133CB
:101D100044F10004214AC2E9003407211C4800F0C4
:101D20004FFC02211E4800F04BFB0346012B0CBF69
:101D300001230023DBB2002B26D01A4800F068FCF8
:101D4000034699B24FF00002124B03F10804D4E9A4
:101D50000034CB1A62EB04040F4AD2E902125B187A
:101D600044EB02040C4AC2E902340C4B03F10804B0
:101D7000D4E90034013344F10004084AC2E90234D2
:101D80000721084800F01CFC00BF98BD002401405A
:101D9000840A0020700C0020500C0020600C0020F1
:101DA000002801408C0A002080B483B000AF0346B5
:101DB0003960FB7197F90730002B0BDA0D49FB797D
:101DC00003F00F03043B3A68D2B21201D2B20B44C3
:101DD0001A7609E0084997F907303A68D2B2120139
:101DE000D2B20B4483F8002300BF0C37BD4680BC41
:101DF000704700BF00ED00E000E100E080B582B078
:101E000000AF78607B68B3F1807F01D3012311E0DC
:101E10000A4A7B6823F07F43013B53600F214FF058
:101E2000FF30FFF7C1FF054B00229A60034B0722EA
:101E30001A60002318460837BD4680BD10E000E058
:101E400080B500AF054B1B685B09054AA2FB032365
:101E5000DB091846FFF7D2FF00BF80BD000000205D
:101E6000C55A7C0AB0B584B000AF78607B684FF487
:101E70007A7202FB03F31C464FF0000500F01EF8D7
:101E800002460B46A01845EB030103460C46C7E982
:101E9000023400F013F80A460146D7E90234A242A0
:101EA00008BF994234BF01230023DBB2002B00D0CE
:101EB000EFE700BF1037BD46B0BD00BF90B400AF24
:101EC000084B18CBDB1844EB0404A20042EA9372DF
:101ED00099005B1844EB020418462146BD4690BCAD
:101EE000704700BF800C002098B500AFFFF7E6FFF9
:101EF0004FF47A724FF0000301F0D4FD03460C4614
:101F00001846214698BD00BF90B400AF054B18CBD2
:101F1000013344F10004034AC2E9003400BFBD4666
:101F200090BC7047800C002080B582B000AF786014
:101F30007B681B68064A934206D17B6804331A46C5
:101F400000210348FFF790FB00BF0837BD4680BD66
:101F50000064004080B483B000AF78600B46FB7033
:101F6000FB78002B06D00949084B9A697B6813431C
:101F70008B6106E00549054B9A697B68DB4313409A
:101F80008B6100BF0C37BD4680BC7047001002401B
:101F900080B483B000AF78600B46FB70FB78002BF9
:101FA00006D00949084BDA697B681343CB6106E028
:101FB0000549054BDA697B68DB431340CB6100BF01
:101FC0000C37BD4680BC70470010024080B586B01B
:101FD00000AFF860B96011461A460B46FB80134605
:101FE0007B71FB68FA881A80FB68BA685A60012125
:101FF0000420FFF7AFFF01210820FFF7ABFF01210D
:102000001020FFF7A7FF01212020FFF7A3FFFB68A7
:102010007A791A7207F114031846FFF79BFCFB68E4
:102020001B88BB82FB681B7AFB750323BB75FB68AF
:102030005B6807F1140211461846FFF7CFFB00BF9B
:102040001837BD4680BD00BF80B582B000AF786054
:102050000B467B807B88002B08D17B6858687B68A7
:102060001B8800221946FFF7A3FC07E07B6858682D
:102070007B681B8801221946FFF79AFC00BF0837CE
:10208000BD4680BD80B582B000AF78607B685A687D
:102090007B681B8819461046FFF770FC03469BB20D
:1020A00018460837BD4680BD80B584B000AF786063
:1020B00039607B689B88012B02D0022B0AD010E08C
:1020C0007B681A697B681B699B8819461046FEF776
:1020D00097FD06E07B685B6901211846FFF7B4FFB6
:1020E00000BF7B689B689B88184601F0F1FA0346A5
:1020F0003968184601F040FB0346184601F08CFC95
:102100000346FB817B689B689B88323BBB81B7F9A8
:102110000E20BB899A4201DDBB89FB81B7F90E20F5
:10212000BB895B429A4203DABB895B429BB2FB816B
:10213000B7F90E30002B0DDD7B689B680021184637
:10214000FEF75EFD7B68DB68FA8911461846FEF7EC
:1021500057FD0EE07B68DB6800211846FEF750FD56
:102160007B689B68FA89524292B211461846FEF784
:1021700047FDB7F90E207B681A6000BF1037BD46D7
:1021800080BD00BF90B583B000AF786039607B68D8
:102190009B6800211846FEF733FD7B68DB68002151
:1021A0001846FEF72DFD7B681C697B681B699B88C0
:1021B000184601F08DFA03463968184601F0DCFA3A
:1021C0000346184601F04EFC03469BB219462046D2
:1021D000FEF716FD00BF0C37BD4690BD80B483B03E
:1021E00000AF78600B46FB70FB78002B06D07B6855
:1021F0009B6843F4A0027B689A6005E07B689B685B
:1022000023F4A0027B689A6000BF0C37BD4680BCF7
:10221000704700BF80B485B000AF786008461146B3
:102220001A460346FB700B46BB7013467B700023B7
:10223000FB600023BB60FB78092B23D97B68DB683C
:10224000FB60FB78A3F10A0213465B0013440722EC
:1022500002FA03F3BB60BB68DB43FA681340FB6020
:102260007978FB78A3F10A0213465B00134401FA64
:1022700003F3BB60FA68BB681343FB607B68FA68D2
:10228000DA601EE07B681B69FB60FA7813465B002E
:102290001344072202FA03F3BB60BB68DB43FA680E
:1022A0001340FB607978FA7813465B00134401FA17
:1022B00003F3BB60FA68BB681343FB607B68FA6892
:1022C0001A61BB78062B21D87B685B6BFB60BB78FF
:1022D0005A1E13469B0013441F2202FA03F3BB60ED
:1022E000BB68DB43FA681340FB60F978BB785A1E81
:1022F00013469B00134401FA03F3BB60FA68BB6802
:102300001343FB607B68FA685A6347E0BB780C2B89
:1023100021D87B681B6BFB60BB78DA1F13469B00E0
:1023200013441F2202FA03F3BB60BB68DB43FA6865
:102330001340FB60F978BB78DA1F13469B00134407
:1023400001FA03F3BB60FA68BB681343FB607B6868
:10235000FA681A6322E07B68DB6AFB60BB78A3F152
:102360000D0213469B0013441F2202FA03F3BB60C5
:10237000BB68DB43FA681340FB60F978BB78A3F1D4
:102380000D0213469B00134401FA03F3BB60FA6885
:10239000BB681343FB607B68FA68DA6200BF1437DE
:1023A000BD4680BC704700BF80B483B000AF78608A
:1023B0007B68DB6C9BB218460C37BD4680BC70470F
:1023C00080B485B000AF78600B46FB700023FB73D0
:1023D0007B681A68FB781340002B02D00123FB7343
:1023E00001E00023FB73FB7B18461437BD4680BC1D
:1023F000704700BF80B487B000AF78600B467B8029
:1024000013467B7000233B610023FB600023BB600D
:1024100000237B617B687B617B88DBB25B09DBB27D
:102420003B617B8803F01F03FB600122FB6802FA1B
:1024300003F3BB603B69012B03D17B690C337B61E8
:1024400009E03B69022B03D17B6910337B6102E019
:102450007B6914337B617B78002B06D07B697A69BA
:102460001168BA680A431A6006E07B697A691168E4
:10247000BA68D2430A401A6000BF1C37BD4680BC10
:10248000704700BF80B483B000AF78600B467B809C
:102490007B88C3F308039AB27B689A8000BF0C372D
:1024A000BD4680BC704700BF80B483B000AF786089
:1024B0007B689B889BB2C3F308039BB218460C371A
:1024C000BD4680BC704700BF80B487B000AF786065
:1024D0000B467B800023FB6000237B610023BB60F5
:1024E0000023FB747B88DBB25B09DBB2BB607B88BB
:1024F00003F01F037B6101227B6902FA03F37B6116
:10250000BB68012B07D17B689B899BB21A467B690C
:1025100013407B6111E0BB68022B07D17B681B8AEB
:102520009BB21A467B6913407B6106E07B689B8AFD
:102530009BB21A467B6913407B617B881B0A9BB266
:10254000FB600122FB6802FA03F3FB607B681B88D7
:102550009BB21A46FB681340FB607B69002B05D0D9
:10256000FB68002B02D00123FB7401E00023FB7405
:10257000FB7C18461C37BD4680BC704780B485B0D4
:1025800000AF78600A4B1B68002B02D1084B094A48
:102590001A60074B1B68FB60054B1A687B68134485
:1025A000034A1360FB6818461437BD4680BC704769
:1025B000880C0020BC0E002080B400AFFEE700BFF6
:1025C00080B582B000AF78600B46FB707B681B68FB
:1025D0000D4A934207D17B681B79FA781146184659
:1025E00000F036F80BE07B681B68084A934206D17E
:1025F0007B681B79FA781146184600F041F800BF55
:102600000837BD4680BD00BF0024014000280140BE
:1026100080B582B000AF78607B681B680A4A93423D
:1026200003D100F045F8034609E07B681B68074AC0
:10263000934203D100F046F8034600E00023184619
:102640000837BD4680BD00BF00240140002801407E
:1026500080B582B000AF03460A46FB711346BB71DA
:10266000BB79F97901220548FFF7D4FD0121034820
:10267000FFF7B4FD00BF0837BD4680BD0024014010
:1026800080B582B000AF03460A46FB711346BB71AA
:10269000BB79F97901220548FFF7BCFD0121034808
:1026A000FFF79CFD00BF0837BD4680BD00280140F4
:1026B00080B500AF0248FFF777FE0346184680BD9D
:1026C0000024014080B500AF0248FFF76DFE0346CD
:1026D000184680BD0028014080B487B000AF786004
:1026E00000237B6100233B610F23FB607B68DB7869
:1026F000002B3AD0274BDB68DB4303F4E0631B0A73
:102700007B617B69C3F104033B61FA687B6922FA50
:1027100003F3FB607B685B781A463B6902FA03F3BC
:102720007B617B689B781A46FB6813407A69134388
:102730007B617B691B017B61174A7B681B78796928
:10274000C9B213440A4683F80023134A7B681B78F6
:102750005B09DBB218467B681B7803F01F0301217D
:1027600001FA03F342F820300FE00B497B681B7835
:102770005B09DBB218467B681B7803F01F0301225C
:102780009A4000F1200341F8232000BF1C37BD46CA
:1027900080BC704700ED00E000E100E080B485B04F
:1027A00000AF78600B46FB700023FB730023BB81F6
:1027B00000237B8100233B81FB7803F00F03012280
:1027C00002FA03F3BB81FB781B09DBB27B817B89B7
:1027D000012202FA03F37B817B689B889AB27B8992
:1027E00013403B817B681B899AB2BB8913409BB223
:1027F000002B05D03B89002B02D00123FB7301E0A5
:102800000023FB73FB7B18461437BD4680BC704722
:1028100080B485B000AF78600B46FB700023FB816D
:10282000FB7803F00F03012202FA03F3FB81FB891B
:10283000DB439AB27B681A8100BF1437BD4680BC67
:10284000704700BF90B583B000AF78607B68DB6AEB
:102850005B687A68128993422FD17B68DB6A1B7CA4
:102860001B0203F4FE437A68D26AD27B1A437B6868
:102870001A607B68DB6A1B7CDB11012B04D17B684F
:102880001B685A427B681A607B681C697B681B68FE
:10289000184600F01DFF03461E49184601F020F8B7
:1028A000034619462046FFF7FFFBFFF71DFB0346D3
:1028B0000C467A68C2E9063428E07B68DB6A5B680C
:1028C0007A685289934221D17B68DB6A1B7C1B02A8
:1028D0007A68D26AD27B1A437B681A607B681C696B
:1028E0007B681B68184600F0F3FE0346094918464A
:1028F00000F0F6FF034619462046FFF743FCFFF7BA
:10290000F3FA03460C467A68C2E9063400BF0C3776
:10291000BD4690BD00FEFF4680B584B000AF786034
:1029200039600023FB60FB683A6813441B78002B76
:102930000BD0FB683A6813441B781946786800F09E
:1029400029F8FB680133FB60EDE700BF1037BD4697
:1029500080BD00BF0EB480B5A5B000AF786007F1B0
:10296000A003C7F88C3007F10C03D7F88C20D7F8F8
:102970009C10184602F028FA07F10C0319467868F3
:10298000FFF7CAFF00BF9437BD46BDE8804003B0E3
:10299000704700BF80B582B000AF78600B46FB7017
:1029A0007B681B684E4A93422ED1012240F2277168
:1029B0004B48FFF71FFD4B4B1B881A464A4B1B88A1
:1029C00001339A420CD1474B1B8801339AB2454BD5
:1029D0001A80444B1B887F2B02D9424B00221A805D
:1029E000414B1B881946414AFB7853543E4B1B8888
:1029F00001339AB23C4B1A803B4B1B887F2B6AD920
:102A0000394B00221A8066E07B681B68384A934283
:102A10002ED1012240F227713548FFF7EBFC354BF0
:102A20001B881A46344B1B8801339A420CD1314B18
:102A30001B8801339AB22F4B1A802E4B1B887F2B99
:102A400002D92C4B00221A802B4B1B8819462B4A8B
:102A5000FB785354284B1B8801339AB2264B1A80BB
:102A6000254B1B887F2B36D9234B00221A8032E05E
:102A70007B681B68224A93422DD1012240F22771C4
:102A80001F48FFF7B7FC1F4B1B881A461E4B1B88BD
:102A900001339A420CD11B4B1B8801339AB2194B5C
:102AA0001A80184B1B887F2B02D9164B00221A80E4
:102AB000154B1B881946154AFB785354124B1B883B
:102AC00001339AB2104B1A800F4B1B887F2B02D90F
:102AD0000D4B00221A8000BF0837BD4680BD00BFE5
:102AE00000380140780D00207A0D0020F80C0020FD
:102AF00000440040FC0D0020FE0D00207C0D002055
:102B000000480040800E0020820E0020000E0020B1
:102B100090B583B000AF40F225513148FFF7D4FCA7
:102B20000346012B0CBF01230023DBB2002B22D074
:102B30002B48FFF7B9FC0346FB71FB799BB21946A2
:102B40002748FFF79FFC274B1B881C462448FFF7AC
:102B5000ABFC0346DAB2244B1A55224B1B880133D7
:102B60009AB2204B1A801F4B1B881F2B34D91D4B48
:102B700000221A8030E040F227711948FFF7A4FCC8
:102B80000346002B14BF01230023DBB2002B23D00C
:102B9000164B1A88164B1B889A4217D0144B1B8869
:102BA0001A46144B9B5C9BB219460D48FFF76AFC12
:102BB0000F4B1B8801339AB20D4B1A800C4B1B88AC
:102BC0007F2B09D90A4B00221A8005E0002240F22F
:102BD00027710348FFF70EFC00BF0C37BD4690BDC0
:102BE00000380140140000208C0C00207A0D0020D9
:102BF000780D0020F80C002090B583B000AF40F2B3
:102C000025513148FFF760FC0346012B0CBF01231F
:102C10000023DBB2002B22D02B48FFF745FC0346F4
:102C2000FB71FB799BB219462748FFF72BFC274B1A
:102C30001B881C462448FFF737FC0346DAB2244BB6
:102C40001A55224B1B8801339AB2204B1A801F4B16
:102C50001B881F2B34D91D4B00221A8030E040F214
:102C600027711948FFF730FC0346002B14BF0123DE
:102C70000023DBB2002B23D0164B1A88164B1B887F
:102C80009A4217D0144B1B881A46144B9B5C9BB27C
:102C900019460D48FFF7F6FB0F4B1B8801339AB21C
:102CA0000D4B1A800C4B1B887F2B09D90A4B002235
:102CB0001A8005E0002240F227710348FFF79AFBD3
:102CC00000BF0C37BD4690BD0044004016000020F8
:102CD000B00C0020FE0D0020FC0D00207C0D00201B
:102CE00090B583B000AF40F225513148FFF7ECFBBF
:102CF0000346012B0CBF01230023DBB2002B22D0A3
:102D00002B48FFF7D1FB0346FB71FB799BB21946B9
:102D10002748FFF7B7FB274B1B881C462448FFF7C3
:102D2000C3FB0346DAB2244B1A55224B1B880133EE
:102D30009AB2204B1A801F4B1B881F2B34D91D4B76
:102D400000221A8030E040F227711948FFF7BCFBDF
:102D50000346002B14BF01230023DBB2002B23D03A
:102D6000164B1A88164B1B889A4217D0144B1B8897
:102D70001A46144B9B5C9BB219460D48FFF782FB29
:102D80000F4B1B8801339AB20D4B1A800C4B1B88DA
:102D90007F2B09D90A4B00221A8005E0002240F25D
:102DA00027710348FFF726FB00BF0C37BD4690BDD7
:102DB0000048004018000020D40C0020820E0020A3
:102DC000800E0020000E002081F0004102E000BFD4
:102DD00083F0004330B54FEA41044FEA430594EADB
:102DE000050F08BF90EA020F1FBF54EA000C55EA16
:102DF000020C7FEA645C7FEA655C00F0E2804FEAE7
:102E00005454D4EB5555B8BF6D420CDD2C4480EAC8
:102E1000020281EA030382EA000083EA010180EAF8
:102E2000020281EA0303362D88BF30BD11F0004F46
:102E30004FEA01314FF4801C4CEA113102D040427C
:102E400061EB410113F0004F4FEA03334CEA1333B7
:102E500002D0524263EB430394EA050F00F0A780CF
:102E6000A4F10104D5F1200E0DDB02FA0EFC22FACA
:102E700005F2801841F1000103FA0EF2801843FABE
:102E800005F359410EE0A5F120050EF1200E012AAF
:102E900003FA0EFC28BF4CF0020C43FA05F3C018ED
:102EA00051EBE37101F0004507D54FF0000EDCF166
:102EB000000C7EEB00006EEB0101B1F5801F1BD30F
:102EC000B1F5001F0CD349085FEA30004FEA3C0C13
:102ED00004F101044FEA445212F5800F80F09A8009
:102EE000BCF1004F08BF5FEA500C50F1000041EB0D
:102EF000045141EA050130BD5FEA4C0C404141EB11
:102F0000010111F4801FA4F10104E9D191F0000F37
:102F100004BF01460020B1FA81F308BF2033A3F1BA
:102F20000B03B3F120020CDA0C3208DD02F1140CB1
:102F3000C2F10C0201FA0CF021FA02F10CE002F1EC
:102F40001402D8BFC2F1200C01FA02F120FA0CFCE5
:102F5000DCBF41EA0C019040E41AA2BF01EB04512E
:102F6000294330BD6FEA04041F3C1CDA0C340EDC2C
:102F700004F11404C4F1200220FA04F001FA02F36F
:102F800040EA030021FA04F345EA030130BDC4F12D
:102F90000C04C4F1200220FA02F001FA04F340EA22
:102FA0000300294630BD21FA04F0294630BD94F0D3
:102FB000000F83F4801306BF81F480110134013DBA
:102FC0004EE77FEA645C18BF7FEA655C29D094EA2B
:102FD000050F08BF90EA020F05D054EA000C04BFA9
:102FE0001946104630BD91EA030F1EBF0021002094
:102FF00030BD5FEA545C05D14000494128BF41F033
:10300000004130BD14F580043CBF01F5801130BD96
:1030100001F0004545F0FE4141F470014FF0000021
:1030200030BD7FEA645C1ABF194610467FEA655CD2
:103030001CBF0B46024650EA013406BF52EA033574
:1030400091EA030F41F4002130BD00BF90F0000F62
:1030500004BF0021704730B54FF4806404F132049E
:103060004FF000054FF0000150E700BF90F0000F57
:1030700004BF0021704730B54FF4806404F132047E
:1030800010F0004548BF40424FF000013EE700BF4E
:1030900042004FEAE2014FEA31014FEA02701FBFDE
:1030A00012F07F4393F07F4F81F06051704792F0B0
:1030B000000F14BF93F07F4F704730B54FF460742A
:1030C00001F0004521F0004120E700BF50EA010275
:1030D00008BF704730B54FF000050AE050EA010222
:1030E00008BF704730B511F0004502D5404261EB92
:1030F00041014FF4806404F132045FEA915C3FF4D3
:10310000DCAE4FF003025FEADC0C18BF03325FEA6B
:10311000DC0C18BF033202EBDC02C2F1200300FA20
:1031200003FC20FA02F001FA03FE40EA0E0021FA45
:1031300002F11444C1E600BF70B54FF0FF0C4CF42F
:10314000E06C1CEA11541DBF1CEA135594EA0C0FE5
:1031500095EA0C0F00F0DEF82C4481EA030621EA20
:103160004C5123EA4C5350EA013518BF52EA03355B
:1031700041F4801143F4801338D0A0FB02CE4FF00D
:103180000005E1FB02E506F00042E0FB03E54FF03D
:103190000006E1FB03569CF0000F18BF4EF0010E35
:1031A000A4F1FF04B6F5007F64F5407404D25FEA31
:1031B0004E0E6D4146EB060642EAC62141EA5551E4
:1031C0004FEAC52040EA5E504FEACE2EB4F1FD0C26
:1031D00088BFBCF5E06F1ED8BEF1004F08BF5FEAA4
:1031E000500E50F1000041EB045170BD06F0004656
:1031F00046EA010140EA020081EA0301B4EB5C0403
:10320000C2BFD4EB0C0541EA045170BD41F48011FA
:103210004FF0000E013C00F3AB8014F1360FDEBF1F
:10322000002001F0004170BDC4F10004203C35DAFB
:103230000C341BDC04F11404C4F1200500FA05F37E
:1032400020FA04F001FA05F240EA020001F000421F
:1032500021F0004110EBD37021FA04F642EB060195
:103260005EEA430E08BF20EAD37070BDC4F10C04BF
:10327000C4F1200500FA04F320FA05F001FA04F283
:1032800040EA020001F0004110EBD37041F100016F
:103290005EEA430E08BF20EAD37070BDC4F120057A
:1032A00000FA05F24EEA020E20FA04F301FA05F2E2
:1032B00043EA020321FA04F001F0004121FA04F28A
:1032C00020EA020000EBD3705EEA430E08BF20EA5A
:1032D000D37070BD94F0000F0FD101F00046400094
:1032E00041EB010111F4801F08BF013CF7D041EA16
:1032F000060195F0000F18BF704703F0004652001A
:1033000043EB030313F4801F08BF013DF7D043EAEA
:103310000603704794EA0C0F0CEA135518BF95EAA0
:103320000C0F0CD050EA410618BF52EA4306D1D127
:1033300081EA030101F000414FF0000070BD50EA46
:10334000410606BF1046194652EA430619D094EAD0
:103350000C0F02D150EA013613D195EA0C0F05D1BA
:1033600052EA03361CBF104619460AD181EA03010E
:1033700001F0004141F0FE4141F470014FF00000C6
:1033800070BD41F0FE4141F4780170BD70B54FF061
:10339000FF0C4CF4E06C1CEA11541DBF1CEA1355E1
:1033A00094EA0C0F95EA0C0F00F0A7F8A4EB0504C3
:1033B00081EA030E52EA03354FEA013100F08880BA
:1033C0004FEA03334FF0805545EA131343EA126383
:1033D0004FEA022245EA111545EA10654FEA002638
:1033E0000EF000419D4208BF964244F1FD0404F5F1
:1033F000407402D25B084FEA3202B61A65EB03054D
:103400005B084FEA32024FF480104FF4002CB6EB09
:10341000020E75EB030E22BFB61A754640EA0C0089
:103420005B084FEA3202B6EB020E75EB030E22BFC9
:10343000B61A754640EA5C005B084FEA3202B6EB0A
:10344000020E75EB030E22BFB61A754640EA9C00C9
:103450005B084FEA3202B6EB020E75EB030E22BF99
:10346000B61A754640EADC0055EA060E18D04FEA57
:10347000051545EA16754FEA06164FEAC30343EAF7
:1034800052734FEAC2025FEA1C1CC0D111F4801FC4
:103490000BD141EA00014FF000004FF0004CB6E7BD
:1034A00011F4801F04BF01430020B4F1FD0C88BF5C
:1034B000BCF5E06F3FF6AFAEB5EB030C04BFB6EB67
:1034C000020C5FEA500C50F1000041EB045170BD5A
:1034D0000EF0004E4EEA113114EB5C04C2BFD4EB87
:1034E0000C0541EA045170BD41F480114FF0000E0B
:1034F000013C90E645EA060E8DE60CEA135594EA87
:103500000C0F08BF95EA0C0F3FF43BAF94EA0C0F89
:103510000AD150EA01347FF434AF95EA0C0F7FF4FE
:1035200025AF104619462CE795EA0C0F06D152EA52
:1035300003353FF4FDAE1046194622E750EA410636
:1035400018BF52EA43067FF4C5AE50EA41047FF447
:103550000DAF52EA43057FF4EBAE12E780F0004076
:1035600002E000BF81F0004142001FBF5FEA41035B
:1035700092EA030F7FEA226C7FEA236C6AD04FEA5B
:103580001262D2EB1363C1BFD218414048404140A0
:10359000B8BF5B42192B88BF704710F0004F40F452
:1035A000000020F07F4018BF404211F0004F41F46E
:1035B000000121F07F4118BF494292EA030F3FD03A
:1035C000A2F1010241FA03FC10EB0C00C3F120034D
:1035D00001FA03F100F0004302D5494260EB4000DC
:1035E000B0F5000F13D3B0F1807F06D340084FEA47
:1035F000310102F10102FE2A51D2B1F1004F40EB3C
:10360000C25008BF20F0010040EA030070474900A3
:1036100040EB000010F4000FA2F10102EDD1B0FA6E
:1036200080FCACF1080CB2EB0C0200FA0CF0AABF63
:1036300000EBC25052421843BCBFD0401843704701
:1036400092F0000F81F4000106BF80F40000013207
:10365000013BB5E74FEA41037FEA226C18BF7FEADE
:10366000236C21D092EA030F04D092F0000F08BF20
:103670000846704790EA010F1CBF0020704712F007
:103680007F4F04D1400028BF40F00040704712F146
:1036900000723CBF00F50000704700F0004343F0AB
:1036A000FE4040F4000070477FEA226216BF0846E1
:1036B0007FEA23630146420206BF5FEA412390EAA4
:1036C000010F40F4800070474FF0000304E000BF9A
:1036D00010F0004348BF40425FEA000C08BF70474B
:1036E00043F0964301464FF000001CE050EA01020F
:1036F00008BF70474FF000030AE000BF50EA010224
:1037000008BF704711F0004302D5404261EB410110
:103710005FEA010C02BF84460146002043F0B64335
:1037200008BFA3F18053A3F50003BCFA8CF2083A5A
:10373000A3EBC25310DB01FA02FC634400FA02FC63
:10374000C2F12002BCF1004F20FA02F243EB02006A
:1037500008BF20F00100704702F1200201FA02FCCC
:10376000C2F1200250EA4C0021FA02F243EB0200BF
:1037700008BF20EADC7070474FF0FF0C1CEAD05203
:103780001EBF1CEAD15392EA0C0F93EA0C0F6FD0C4
:103790001A4480EA010C400218BF5FEA41211ED0A2
:1037A0004FF0006343EA501043EA5111A0FB01318E
:1037B0000CF00040B1F5000F3EBF490041EAD37163
:1037C0005B0040EA010062F17F02FD2A1DD8B3F1DF
:1037D000004F40EBC25008BF20F00100704790F04E
:1037E000000F0CF0004C08BF49024CEA502040EAA0
:1037F00051207F3AC2BFD2F1FF0340EAC250704766
:1038000040F400004FF00003013A5DDC12F1190FA3
:10381000DCBF00F000407047C2F10002410021FA15
:1038200002F1C2F1200200FA02FC5FEA310040F12D
:10383000000053EA4C0308BF20EADC70704792F0A6
:10384000000F00F0004C02BF400010F4000F013ADE
:10385000F9D040EA0C0093F0000F01F0004C02BFD9
:10386000490011F4000F013BF9D041EA0C018FE748
:103870000CEAD15392EA0C0F18BF93EA0C0F0AD04E
:1038800030F0004C18BF31F0004CD8D180EA010074
:1038900000F00040704790F0000F17BF90F0004F0D
:1038A000084691F0000F91F0004F14D092EA0C0FEF
:1038B00001D142020FD193EA0C0F03D14B0218BF82
:1038C000084608D180EA010000F0004040F0FE40C8
:1038D00040F40000704740F0FE4040F44000704764
:1038E0004FF0FF0C1CEAD0521EBF1CEAD15392EAE3
:1038F0000C0F93EA0C0F69D0A2EB030280EA010CD3
:1039000049024FEA402037D04FF0805343EA11116B
:1039100043EA10130CF000408B4238BF5B0042F1C9
:103920007D024FF4000C8B4224BF5B1A40EA0C006E
:10393000B3EB510F24BFA3EB510340EA5C00B3EBA0
:10394000910F24BFA3EB910340EA9C00B3EBD10F8E
:1039500024BFA3EBD10340EADC001B0118BF5FEAE0
:103960001C1CE0D1FD2A3FF650AF8B4240EBC25009
:1039700008BF20F0010070470CF0004C4CEA5020CA
:103980007F32C2BFD2F1FF0340EAC250704740F419
:1039900000004FF00003013A37E792F0000F00F00B
:1039A000004C02BF400010F4000F013AF9D040EA89
:1039B0000C0093F0000F01F0004C02BF490011F41D
:1039C000000F013BF9D041EA0C0195E70CEAD15315
:1039D00092EA0C0F08D142027FF47DAF93EA0C0FFC
:1039E0007FF470AF084676E793EA0C0F04D14B02E0
:1039F0003FF44CAF08466EE730F0004C18BF31F092
:103A0000004CCAD130F000427FF45CAF31F000438B
:103A10007FF43CAF5FE700BF4FEA4002B2F1FE4FD8
:103A20000FD34FF09E03B3EB12620DD94FEA002380
:103A300043F0004310F0004F23FA02F018BF404259
:103A400070474FF00000704712F1610F01D1420240
:103A500005D110F0004008BF6FF0004070474FF0F4
:103A60000000704742000ED2B2F1FE4F0BD34FF070
:103A70009E03B3EB126209D44FEA002343F00043E4
:103A800023FA02F070474FF00000704712F1610F07
:103A900001D1420202D14FF0FF3070474FF00000D9
:103AA000704700BF53B94AB9002908BF00281CBF9E
:103AB0004FF0FF314FF0FF3001F0F4B8ADF1080CDA
:103AC0006DE904CE00F006F8DDF804E0DDE902233C
:103AD00004B070472DE9F04F8C460C460546099E10
:103AE000002B4FD18A4217466BD9B2FA82FEBEF143
:103AF000000F0BD0CEF1200520FA05F501FA0EF3E8
:103B000045EA030C02FA0EF700FA0EF5390CBCFB7D
:103B1000F1F0BAB201FB10C300FB02F84FEA154CFA
:103B20004CEA0344A04509D9E41900F1FF3380F0C1
:103B30002881A04540F2258102383C44C8EB0404AA
:103B4000B4FBF1F301FB134C03FB02F2ACB244EA09
:103B50000C418A4209D9C91903F1FF3480F00F8161
:103B60008A4240F20C81023B39448A1A43EA0040FF
:103B70000021002E63D022FA0EF2002386E80C000A
:103B8000BDE8F08F8B4207D9002E56D0002186E881
:103B900011000846BDE8F08FB3FA83F1002940F028
:103BA0009380A34202D3824200F2FE80851A64EB26
:103BB00003039C460120002E41D086E82010BDE87A
:103BC000F08F12B90127B7FBF2F7B7FA87FEBEF103
:103BD000000F36D1E41B4FEA17481FFA87F901217D
:103BE000B4FBF8F308FB134409FB03F24FEA154C4E
:103BF0004CEA0444A24207D9E41903F1FF3002D28F
:103C0000A24200F2D3800346A41AB4FBF8F008FBEA
:103C1000104809FB00F9ACB244EA0842914507D9C3
:103C2000D21900F1FF3402D2914500F2BA80204649
:103C3000C9EB020240EA03409BE731463046BDE84B
:103C4000F08F07FA0EF7CEF1200C24FA0CF34FEAAE
:103C50001748B3FBF8FA1FFA87F908FB1A3520FA60
:103C60000CFC04FA0EF40AFB09FB4CEA040C4FEAC4
:103C70001C4242EA05439B4500FA0EF50AD9DB19BE
:103C80000AF1FF3280F08B809B4540F28880AAF1D8
:103C9000020A3B44CBEB0303B3FBF8F008FB103301
:103CA00000FB09F41FFA8CFC4CEA03439C4207D941
:103CB000DB1900F1FF326ED29C426CD902383B44D2
:103CC0001C1B40EA0A418BE7C1F1200E8B4022FA0F
:103CD0000EFC4CEA030C24FA0EF74FEA1C49B7FB22
:103CE000F9FA1FFA8CF309FB1A7720FA0EF88C40C8
:103CF0000AFB03F548EA04044FEA144848EA074778
:103D0000BD4202FA01F200FA01FB09D917EB0C07D8
:103D10000AF1FF3041D2BD423FD9AAF1020A6744FD
:103D20007F1BB7FBF9F509FB157705FB03F3A4B27D
:103D300044EA0747BB4208D917EB0C0705F1FF30EF
:103D400027D2BB4225D9023D674445EA0A40A0FB81
:103D50000289FF1A4F4545464C4614D329D066B315
:103D6000BBEB050367EB040707FA0EFECB40CF4021
:103D70004EEA030386E888000021BDE8F08F234661
:103D8000F3E61846DAE6B8EB020569EB0C040138F5
:103D9000E5E70546D9E7104692E78246C0E7924636
:103DA00078E702383A4443E7084604E7023B3C44DC
:103DB0002AE7C345E7D33C46D1E73146BDE8F08F5B
:103DC00003685A004CBF43F0004323F000431844FB
:103DD000704700BF61B32DE9F84F01F1FF3A9046FB
:103DE0000646D146002707EB090404EBD47464109F
:103DF000E50071190846FFF7E3FFA245834605F188
:103E00000800304409D0FFF7DBFFC34500F1FF3065
:103E100005D8404509D2671CE5E7C34505D9A74247
:103E200002D004F1FF39DEE700210846BDE8F88F33
:103E300008467047012807D0022807D0044B002805
:103E40000CBF184600207047024870470248704770
:103E5000494500084D4500085145000830B5254B3F
:103E600083B004468D1E7BB301A92846AFF30080C2
:103E700020B301992A46FFF7ADFF0146F0B1FFF7E5
:103E80009FFF4B68A064012B12D0002B01F10400AE
:103E900021DBFFF795FF0023E06423650368002B17
:103EA0001DDBFFF78DFF00232061184603B030BDF6
:103EB000002323610523184603B030BD002323618E
:103EC0000923184603B030BD0B490C4B0846591A5C
:103ED000C9100191CEE70123E0642365DEE7C3F357
:103EE0000360FFF7A7FF0028206114BF0023092308
:103EF000DBE700BF0000000098900008D0920008A7
:103F0000036810B5DA07044606D49B0700F14800A1
:103F100009D500F05BFC2368590709D51A070ED5AF
:103F2000DB0613D510BD00F049FC23685907F5D412
:103F300004F1D00000F052FC23681A07F0D404F515
:103F4000A87000F053FC2368DB06EBD404F5E8709E
:103F5000BDE8104000F08EBC03680BB118447047F8
:103F60001846704709207047704700BF70B5044677
:103F70000D4608E02A6C2369626121462A46012029
:103F80009847082808D1296C2046FFF767FF0646A6
:103F90000028EFD0FEF710FB0728FBD13046296C34
:103FA000FFF7E2FF281D00F0FDFB00BF2DE9F04701
:103FB0000646ADF5727D03AD0C1D17460FCC0FC53F
:103FC0000FCC0FC50FCC0FC594E80F0002ACD6F88C
:103FD0000C80D6F8189085E80F0000233046216C3D
:103FE0002360FFF73BFF0546002F14BF0A27092770
:103FF0007DB1A36B47F010018DE810023246636477
:1040000001203346C04778BB28460DF5727DBDE8D8
:10401000F087236C4FF4F072736121467AA800F0A8
:1040200043FE33697AAA314638469847889B8246D0
:104030008DE8100239466364324633460120C0479A
:1040400090B94FF4F0727AA9204600F02DFEBAF133
:10405000080F06D1216C3046FFF700FF09270546FF
:10406000C6E7BAF1070F04D009200DF5727DBDE84F
:10407000F0872846216CFFF777FF03A800F092FB3A
:10408000406C7047F0B5CB6BF9B00B640E1D01AD01
:104090000F4604460FCE0FC50FCE0FC50FCE0FC56E
:1040A00096E80F004FF0FF3685E80F00009606E017
:1040B00023696A46214698470828054608D1109981
:1040C0002046FFF7CBFE0028F2D0092079B0F0BDE2
:1040D0006846FFF715FF062DF7D139462046FFF752
:1040E00045FF00BF30B4DD6BC160826119461D64BD
:1040F000002230BC5AE700BF70B54369C6680B6444
:1041000026B10122FFF752FFFEF756FA03690A466D
:1041100004460D46014602209847072807D0082884
:1041200003D129462046FFF721FFFEF745FA304626
:10413000296CFFF719FF281D00F034FBC2682AB173
:1041400010B4CC6B00220C6410BC2FE79AE700BFC0
:10415000704700BF836813B10146012018477047BC
:1041600000B5042907D8DFE801F0030906090900B2
:104170000BB90F2A05D902205DF804FB01205DF878
:1041800004FB00EB820252681846019B1A605DF83E
:1041900004FB00BF10B584B0002303AC0A460094B2
:1041A0001946FFF7DDFF039804B010BD00B50429E0
:1041B00007D8DFE801F00309060909000BB90F2A47
:1041C00005D902205DF804FB01205DF804FB01998C
:1041D00000EB82020968184651605DF804FB00BFDD
:1041E00010B584B004AC44F8042D00230A460094B2
:1041F0001946FFF7DBFF04B010BD00BFF0B5D36B6D
:10420000ADF50F7D1364151D17AC07460E460FCD97
:104210000FC40FCD0FC40FCD0FC495E80F004FF0A2
:10422000FF3584E80F00169511E016A86A46FFF7DF
:10423000D7FF314616A8B84780B9049B16AA69462D
:10424000082098470528044609D0092806D0269951
:104250006846FFF703FE0C210028E6D0092416A8C3
:10426000FFF74EFE20460DF50F7DF0BD2DE9F04F16
:10427000CC6C914622688BB004340D4607920894AA
:1042800000F0030B1E46002B64D112020323079299
:104290008DF825608DF824302B6DBBF1020F08BF1F
:1042A000AC6B13F0010343D100F00800C2B20392DB
:1042B00001932768002F3DD0022E47D02788B4F8FD
:1042C00002800434AB6C28F0010A0F2148469A445E
:1042D000FFF760FF824537D827F001039A44504525
:1042E0002CBF002001204FEA480808F0020807F020
:1042F000010748EA0708B8F1010F41D038D3B8F1F7
:10430000020F1DD1236823F000420292BBF1000F7F
:1043100079D130B10399002900F08180002A00F0A2
:10432000A880002B79DB029B013304EB8304C0E7F8
:1043300000230193022E40DDFFF714FE002842D037
:1043400009200BB0BDE8F08F0020CCE7D4F8048042
:104350000834B7E7022B9FDC130CD9B212048DF896
:104360002530022304EB810407928DF8243093E773
:10437000BBF1000F02D0002840F0B080043498E771
:10438000BBF1000F26D1B0B194E80C00991C4FEAA4
:10439000D272D5D005F158010133069100F0948016
:1043A000201DFFF7D9FD06AB01462846AFF300807C
:1043B000002840F0B88008347BE707A9484600F0A1
:1043C000F3FA0028BCD1019B002B5CD108200BB074
:1043D000BDE8F08F0D2148462F6AFFF7DBFE8742CC
:1043E000E9D1AB6A9C42E6D12046FFF7E9FC0F21F8
:1043F00002464846FFF7F4FE48462A460021FFF7EA
:10440000EFFE07209DE70D2148462F6AFFF7C2FE09
:10441000874248D02368002B85DA043483E7029B67
:104420003BB305F15803271DCDF810B0DDF80C8023
:10443000A346DDF808A01C46059602E0B245B0464A
:1044400016D038460694FFF787FD06AB01460022DA
:104450002846AFF3008008F1010604370028EDD0AC
:10446000029B5C464345DDF810B0059ED2D100E0CA
:104470005C4648460D21FFF78DFE069B2862AC6224
:104480006B6206205DE70F214846FFF783FE0E2191
:1044900002464846FFF7A4FE48462A4A0F21FFF786
:1044A0009FFE07204DE7AB6A9C42B3D104220299DC
:1044B0000027A318A962EF622A636B632368BB42DB
:1044C0001FDB012301932EE748460D21FFF762FE13
:1044D0002862069B6B62AC62062032E72046FFF73B
:1044E0006FFC04340646AC632846AFF30080002816
:1044F0003FF426AF484632460F21FFF771FE0720F2
:104500001FE70846013004EB8000FFF759FC0F213C
:1045100002464846FFF764FE48462A463946FFF7FA
:104520005FFE07200DE707460D214846FFF732FEE4
:10453000022F2862CDD12B46069A43F82C2F6B62AE
:10454000C9E700BF0000000000238FE601238DE6CD
:1045500002238BE6F0B50446C5B004290DD8DFE888
:1045600001F057030C310F00012B4FEA124695B2B0
:1045700066D17219102A40F29F80022045B0F0BD2A
:10458000002BFAD1102AF8D82368D80600F1C98088
:1045900022AE3046019200F077F9A06B019A002319
:1045A000012505FA03F1114203D00168043046F8F1
:1045B00023100133042BF4D1A063304600F05AF9E4
:1045C0000020DBE7032BD8D1150C97B2EB19102B89
:1045D000D3D823681E0700F1B88022AE30467F0092
:1045E00000F026F906EBC5027B1EA56B57B12946E4
:1045F000043A51F8040B013B42F8040F581CF8D15F
:1046000005EB87053046A56300F0F0F80020B5E71C
:10461000002BB2D1A56B97B2201D012606FA03F13B
:10462000394203F1010302D0296804350160102BDF
:1046300000F10400F2D112F400503BD1A5639DE7D4
:10464000052B9AD17719202F97D80F2E65D92F4691
:10465000002D48D12A460027002AA06B71DD00EB0F
:10466000C202014644A800EBC6008C3851F8045B36
:10467000914240F8045FF9D1084697B13246102EB6
:1046800044A938BF102201EBC202A2F5C47279001E
:10469000043A00EB810150F8045B814242F8045F68
:1046A000F9D1012B47D00F2EA16332D917B102A83F
:1046B00000F094F8002061E70F2E3FF65EAF002770
:1046C0002268D1070DD522F00101052B216001934D
:1046D000204652D022F0030240F8482B00F072F836
:1046E000019B002F51D02268510736D4012B3ED0B8
:1046F0000F2E06D822A8019300F06CF8019B002F22
:10470000A8D002A8019300F06DF8019BC6F1100239
:10471000A2E722A800F05AF8C8E7102FCFD9103F1F
:10472000CEE723F01003236004F5E870019200F057
:10473000ABF8019A2CE70431A16322A800F03EF8FF
:10474000B8E7002F9AD10146ABE723F008032360B6
:1047500004F5A87000F06CF83FE7204622F0040250
:1047600040F8D02B019300F03DF8019BBEE722A852
:10477000019300F027F8019BC8E741F0020140F8DF
:10478000481B00F027F8019BABE7012B03D00F2E4D
:104790003FF660AFAEE722A8019300F013F8019B4B
:1047A00058E700BF00F1340191E838009C46A64666
:1047B0004CF8045D90E8FF0FE54600BD90EC210B3E
:1047C000704700BF80EC210B704700BF90EC200BBE
:1047D000704700BF80EC200B704700BFD0EC200B6F
:1047E000704700BFC0EC200B704700BFF0EC020127
:1047F000F0EC0211F0EC0221F0EC0231F0EC02419D
:10480000F0EC0251F0EC0261F0EC0271F0EC02818C
:10481000F0EC0291F0EC02A1F0EC02B1F0EC02C17C
:10482000F0EC02D1F0EC02E1F0EC02F1704700BFD5
:10483000E0EC0201E0EC0211E0EC0221E0EC0231DC
:10484000E0EC0241E0EC0251E0EC0261E0EC0271CC
:10485000E0EC0281E0EC0291E0EC02A1E0EC02B1BC
:10486000E0EC02C1E0EC02D1E0EC02E1E0EC02F1AC
:10487000704700BFB0FC0181B0FC0191B0FC01A108
:10488000B0FC01B1704700BFA0FC0181A0FC019108
:10489000A0FC01A1A0FC01B1704700BFEC4600B52F
:1048A0002DE900502DE9FF1F4FF000032DE90C000A
:1048B00001A9FFF7E7FBDDF840E012B0704700BF49
:1048C000EC4600B52DE900502DE9FF1F4FF0000325
:1048D0002DE90C0001A9FFF70FFCDDF840E012B054
:1048E000704700BFEC4600B52DE900502DE9FF1FD1
:1048F0004FF000032DE90C0001A9FFF71FFCDDF8C4
:1049000040E012B0704700BFEC4600B52DE9005002
:104910002DE9FF1F4FF000032DE90C0001ABFFF75D
:10492000E1FBDDF840E012B0704700BFEC4600B597
:104930002DE900502DE9FF1F4FF000032DE90C0079
:1049400001AAFFF75BFCDDF840E012B0704700BF42
:10495000037A1BB9437A43B9B02070475A1E0368E3
:1049600002721A020260180E70474268013B10B4CE
:10497000437213680321141D01721A02446002601D
:1049800010BC180E704700BF00B585B003AA002305
:10499000009219460C22FFF7E3FB039805B05DF87F
:1049A00004FB00BFF0E700BF2DE9F04306460D46CB
:1049B00085B04FF000082846FFF7CAFFB02804462C
:1049C00000F0B48020F07F0313F0FF0320D000F04C
:1049D000F003802B7AD0902B35D0A02B48D0B02B71
:1049E0005CD0C02B00F0898000F0F803D02B0BD1F5
:1049F00000F00702013242F4002205230121304673
:104A0000FFF7A8FD0028D6D0092005B0BDE8F08347
:104A10000DF10C0919468700CDF800900D223046A3
:104A2000FFF79EFBFFB2039B043760064CBFDF1B02
:104A3000FF180023CDF8009019460D223046039749
:104A4000FFF7B4FBB7E700F00D030D2BDCD003AF8D
:104A5000002300F00F02194600973046FFF780FB55
:104A60000023009719460D223046FFF79FFBA2E76F
:104A7000C2434FF47F6302F0070243FA02F20107D8
:104A800002EA03024FF0000348BF42F48042194695
:104A90003046FFF75FFD0028B6D18CE7B1284AD039
:104AA000B22853D0B32800F0818000F0FC03B42B6F
:104AB000AAD000F007020132012342F40022194675
:104AC0003046FFF747FD00289ED174E72846FFF7E0
:104AD0003FFF24022043B0F5004F95D0040100238E
:104AE000A2B219463046FFF735FD00288CD114F4E8
:104AF000004F18BF4FF001085DE7C62862D0C728F5
:104B00006CD000F0F803C02B7BD0C82800F0918057
:104B1000C9287FF479AF2846FFF71AFF020300F097
:104B20000F0002F470220130024366E7B8F1000F73
:104B30006ED0002069E72846FFF70AFF02460028EA
:104B40003FF462AF10F0F003B9D05DE700230DF140
:104B50000C090D221946CDF800903046FFF700FBF6
:104B60002846FFF7F5FE02064FF002040CD5039B22
:104B700000F07F00A040034428460393FFF7E8FEBF
:104B8000030604F10704F2D4039B00F07F0000FA4F
:104B900004F203F5017400231444CDF80090194683
:104BA0000D2230460394FFF701FB04E72846FFF788
:104BB000CFFE010300F00F0001F47021421C01231D
:104BC0000A437CE72846FFF7C3FE010300F00F000D
:104BD00001F47021421C03230A4370E72846FFF7C3
:104BE000B7FE024600283FF40FAF10F0F0037FF449
:104BF0000BAF04213046FFF7ADFC00287FF404AF73
:104C0000D9E600F00F020132032342F4202256E7D6
:104C100003AC43460E22414600943046FFF7A0FA0B
:104C20000094304643460F224146FFF7BFFA404604
:104C3000EBE62846FFF78CFE00F0F00200F00F03D1
:104C40001032013343EA0232D7E600BF10B5C36C1D
:104C500084B003205A688DF80C00DC791202083306
:104C6000084601A901928DF80D400293FFF79CFEC2
:104C700004B010BD08B5FFF795FE806C08BD00BFFD
:104C800008B5FFF78FFEC36CD87903EB80000830BE
:104C900008BD00BF08B5FDF78FFC00BF08B5FFF7E2
:104CA000F9FF00BF704700BF844641EA000313F0DC
:104CB000030349D1403A23D30B6803604B68436038
:104CC0008B688360CB68C3600B6903614B69436188
:104CD0008B698361CB69C3610B6A03624B6A436270
:104CE0008B6A8362CB6AC3620B6B03634B6B436358
:104CF0008B6B8363CB6BC36340304031403ADBD274
:104D000030320BD30B6803604B6843608B68836061
:104D1000CB68C36010301031103AF3D20C3205D397
:104D200051F8043B40F8043B043AF9D2043208D06D
:104D3000D2071CBF11F8013B00F8013B01D30B88DF
:104D400003806046704700BF082A13D38B07B1D099
:104D500010F00303AED0C3F10403D21ADB071CBF6B
:104D600011F8013B00F8013BA4D331F8023B20F8D5
:104D7000023B9FE7043AD9D3013A11F8013B00F80E
:104D8000013BF9D20B7803704B7843708B788370BA
:104D900060467047F0B50D464FF6FF779BB06FF059
:104DA00000444FF40276694600950495ADF80E7004
:104DB000ADF80C600294059400F012F8009B0022FC
:104DC0001A701BB0F0BD00BF10B4044C13460A4665
:104DD0000146206810BCFFF7DDBF00BF480400207B
:104DE0002DE9F04FC1B00C46099115460E930A907B
:104DF00002F064FB03681846179303F08BF9A3894C
:104E000016901E0603D52369002B01F05C81002358
:104E10001A46A8460DF1C009DFF860A41293199351
:104E20000B9325932493CDF88C901492159298F8B7
:104E300000304446EBB1252B02D11AE0252B03D0DC
:104E400014F8013F002BF9D1C8EB04058DB1249B68
:104E5000259A01332A44072BC9F80080C9F8045069
:104E60002592249300F3328309F108090B9B2B440C
:104E70000B932378002B00F0EA814FF0FF3B5D4657
:104E800000231A468DF86F3019460C930793637808
:104E900004F1010808F10108A3F12000582800F2EC
:104EA0004586DFE810F0F30343064306FC034306A0
:104EB00043064306430643064306590004044306DB
:104EC0006600D0034306EC03BC05BC05BC05BC056D
:104ED000BC05BC05BC05BC05BC0543064306430632
:104EE0004306430643064306430643064306E205DC
:104EF000F7044306F7044306430643064306420508
:104F0000430643064A054306430643064306430653
:104F1000740543064306CD05430643064306430690
:104F20004306430643064306430643061D060E0694
:104F3000F704F704F70415060E0643064306A30418
:104F40004306A805AE046D000A0443061204430696
:104F500035044306430670040E9C236818460C93E0
:104F60002346002803F104030E9306DA0C9B5B42F0
:104F70000C93079B43F00403079398F8003089E7EC
:104F8000AB460E9A0027079830217823BB4514685A
:104F90008DF8701002F104024FF000058DF87130A9
:104FA0008DF86F7040F00201C0F23D8620F0800164
:104FB00041F00201079154EA05010E921193AD48A8
:104FC00000F0318130AE230943EA0573290904F06A
:104FD0000F020D461C46835C06F8013D54EA0503AA
:104FE000F1D130AB9B1B0D930D9B5B45B8BF5B466E
:104FF00008930023139317B1089B01330893079B71
:1050000013F002030F9302D0089B02330893079B0F
:1050100013F08403109340F018810C9B089A9D1A9A
:10502000002D40F31281102D2599249A924F27DDEF
:10503000189648461024B946099E2F460A9D04E05A
:10504000103F102F00F1080016DD01328A4B10319D
:10505000072A2591249280E81800F1DD23AA314621
:10506000284603F085F8002840F0F880103F102F04
:1050700030A82599249AE8DC3D464F468146189E83
:1050800001326C18072A25942492C9F80070C9F8D7
:10509000045000F3D0809DF86F7009F1080977B1D2
:1050A000249B013401330DF16F010122072B25945C
:1050B000249389E8060000F3208209F108090F9B78
:1050C0006BB1249B023401331CA90222072B2594C7
:1050D000249389E8060000F31C8209F10809109B5B
:1050E000802B00F02C810D9BC3EB0B07002F33DDD1
:1050F000624A102F249B0F9222DD22464FF0100BA4
:105100000A9D099C04E0103F102F09F1080916DDE3
:1051100001331032072B2592249389E8000CF2DD2D
:1051200023AA2146284603F023F8002840F0968061
:10513000103F102F0DF1C009259A249BE8DC14467E
:1051400001330F9A3C44072B2594249389E884006B
:1051500000F3C78109F10809079BDA0500F1908087
:10516000249B0D9901330C44072B2594C9F800604A
:10517000C9F80410249300F3E28109F10809079BA0
:10518000590736D50C9B089A9D1A002D31DD102D3C
:10519000249B394F22DD22461026DDF828B0099CD9
:1051A00004E0103D102D09F1080916DD01333249E4
:1051B0001032072B2592249389E84200F1DD23AABF
:1051C0002146584602F0D4FF002847D1103D102D4B
:1051D0000DF1C009259A249BE8DC144601332C44C8
:1051E000072B25942493C9F80070C9F8045000F3E4
:1051F00092840B9B0C9A08998A42ACBF9B185B184F
:105200000B93002C40F05981002324930DF1C00929
:105210000DE60027BB458DF86F70C0F20E85079B29
:1052200023F080030793BBF1000F00F06C8400248F
:1052300000250027C6E623AA09990A9802F098FFDC
:1052400060B99DF86F700DF1C009259C27E7259B7B
:1052500023B10A9823AA099902F08AFF099B9B8926
:1052600013F0400F0B9B18BF4FF0FF33184641B0AF
:10527000BDE8F08F848C0008A48C0008508C0008D6
:10528000119B652B40F39F801498159900220023F1
:1052900003F06AFC002800F06381249BAE490133CF
:1052A00001340122072B2594249389E8060000F39A
:1052B000538409F108091D9B129A934203DB079B53
:1052C000DB077FF55CAF249B16990133179A0C44DA
:1052D000072B2594C9F80020C9F80410249300F383
:1052E000E58609F10809129B5D1E002D7FF747AF87
:1052F0009A4A102D249B0F9240F3178110260A9F83
:10530000DDF824B005E009F10809103D102D40F347
:105310000C8101331034072B25942493C9F800A085
:10532000C9F80460EFDD23AA5946384602F020FF91
:10533000002893D10DF1C009259C249BE5E70C9B27
:10534000089A9F1A002F7FF7CEAE844A102F249B15
:105350000F922BDD4A462146B946102537460A9C56
:10536000099E06E0A9F11009B9F1100F02F1080237
:1053700018DD01331031072B25912493C2F800A0CA
:105380005560EFDD23AA3146204602F0F1FE0028E9
:105390007FF464AFA9F11009B9F1100F30AA259973
:1053A000249BE6DC3E460C464F46914601330F9A5D
:1053B0003C44072B2594249389E8840000F32B8533
:1053C00009F108098FE6129B249D012B04F10104C9
:1053D00005F1010540F3E8840123072D2594C9F860
:1053E00000602495C9F8043000F3F98409F1080934
:1053F000169A0135179B1444072D25942495C9F856
:105400000030C9F8042000F3F88409F108090023EA
:1054100014981599002203F0A7FB129B002800F0B6
:10542000EA805E1E002E40F3F5804C4B102E0F9349
:105430002CDDCDF834801027B046DDF828B0099E69
:1054400006E0A8F11008B8F1100F09F108091ADDFB
:1054500001351034072D25942495C9F800A0C9F80A
:105460000470EEDD23AA3146584602F081FE002882
:105470007FF4F4AEA8F11008B8F1100F0DF1C009D7
:10548000259C249DE4DC4646DDF8348001350F9BE5
:105490003444072D2594249589E8480040F3B880CA
:1054A00023AA09990A9802F063FE00287FF4D6AE79
:1054B000259C249D0DF1C009ACE023AA09990A9806
:1054C00002F056FE00283FF49FAEC7E623AA0999D2
:1054D0000A9802F04DFE00287FF4C0AE0DF1C0091D
:1054E000C4E423AA09990A9802F042FE00287FF436
:1054F000B5AE0DF1C009259C2EE623AA09990A989C
:1055000002F036FE00287FF4A9AE0DF1C009259CFB
:10551000D5E523AA09990A9802F02AFE00287FF40B
:105520009DAE0DF1C009259CD9E501330F9A2C449D
:10553000072B2594249389E824007FF71EAE23AA25
:1055400009990A9802F014FE00287FF487AE259C82
:105550000DF1C00913E600BFA08C0008508C0008B4
:105560001D9D002D40F30E83139B129A9342A8BFFA
:105570001346002B1D460DDD249B2C440133072BC5
:105580002594C9F80060C9F80450249300F31A86E2
:1055900009F10809139B002DA8BF5B1B002B1D46BA
:1055A00040F3A083B94A102D249B0F9240F3448509
:1055B00022461027DDF828B0099C05E009F108090A
:1055C000103D102D40F3378501331032072B259203
:1055D0002493C9F800A0C9F80470EFDD23AA21467E
:1055E000584602F0C5FD00287FF438AE0DF1C00921
:1055F000259A249BE4E7013B013501361C44072D25
:10560000C9F8006024952594C9F804303FF748AFE5
:1056100009F10809199A013514441FAB072D259487
:105620002495C9F80420C9F800307FF7A6AD23AA55
:1056300009990A9802F09CFD00287FF40FAE0DF145
:10564000C009259C9BE598F8003008F101042A2B3D
:1056500000F02E87A3F13000092898BF002500F242
:10566000B28614F8013B05EB850500EB4505A3F177
:1056700030000928F5D945EAE575A0460CE4079BFA
:1056800043F08003079398F8003003E498F8003063
:1056900000297FF4FFAB01222021FFF7FBBB079B12
:1056A00043F00103079398F80030FFF7F3BB98F835
:1056B000003001222B21FFF7EDBB079B43F02003B5
:1056C000079398F80030FFF7E5BB0E9AAB461668D3
:1056D000002511938DF86F50141D002E00F0F885F1
:1056E000BBF1000FC0F244855A462946304602F00D
:1056F0009FF9002800F02E86AB46831B0D9323EA0A
:10570000E3730E940893CDF84CB09DF86F7072E47B
:105710001193AB46002A40F0F386079A12F020035B
:1057200000F043810E9C0027073424F0070303F1A7
:105730000801BB450E91D3E900458DF86F70C0F2AA
:10574000C18222F08003079354EA050300F04881E8
:10575000002D08BF0A2CC0F0488130AE20462946F3
:105760000A220023FEF79EF9303206F8012D20466A
:10577000294600230A22FEF795F904460D4654EA0D
:105780000503EBD12DE41193AB46002A40F0B4861B
:10579000079B3F489D0640F15D810E9C073424F035
:1057A000070303F108020E92D3E90045079A12F0AD
:1057B000010700F0468254EA05033FF42AAD9DF844
:1057C000442000278DF87120079A3023BB458DF8BF
:1057D00070308DF86F7042F00203C0F2A58522F0A0
:1057E000800343F002030793FFF7ECBB98F8003007
:1057F0006C2B00F05184079840F010000790FFF7E1
:1058000049BB1193AB46002A40F07E86079A12F0FE
:10581000200300F0A0800E9C0027073424F007032B
:1058200003F10801BB450E91D3E900458DF86F7077
:105830000BDB22F08003079354EA050306D1BBF18A
:10584000000F00F0B18500240025002730AEE208EB
:1058500042EA4572E90804F007030D461446303366
:1058600054EA050206F8013DF1D1079AD1077FF508
:10587000B8AB302B3FF4B5AB3022731E06F8012CC9
:1058800030AAD21A0D921E46FFF7AEBB508C00080C
:10589000848C00081193AB46002A40F02186079BB8
:1058A0000E9C1A0704F1070440F16C8324F00703EF
:1058B00003F108020E921A685B6814921593159B07
:1058C000149D23F00044284621464FF0FF32A94B97
:1058D00003F07CF9002840F0CD82284621464FF0A5
:1058E000FF32A44B03F054F9002840F0C38214980F
:1058F00015990022002303F041F9002840F00E859D
:105900009DF86F7007999C4E21F080019B4B079189
:10591000119903224FF0000B08924729D8BF1E4669
:105920000D92CDF84CB0FFF766BB079B43F0080320
:10593000079398F80030FFF7ADBA1193AB46002AF1
:1059400040F0D685079B43F010030793079A12F0A7
:1059500020037FF460AF079911F0100200F0688215
:105960000E98BBF1000F024604688DF86F3002F10B
:1059700004024FF00005C0F2DD8421F080010791A0
:1059800054EA05010E923FF45AAF1F465EE71193A9
:10599000AB46002A40F0A885079B43F0100307930D
:1059A000079A12F020037FF4BDAE079911F01002A0
:1059B00000F025830E98BBF1000F024604688DF8B5
:1059C0006F3002F104024FF00005C0F2A48421F010
:1059D0008001079154EA05010E921F467FF4B8AE8C
:1059E000BBF1000F00F09080002440AE303406F888
:1059F000414DFFF7F6BA002A40F09E85079B9B06B3
:105A000040F1CA820E9A134604330E930B9B116821
:105A1000DD171A462B46C1E90023FFF708BAA3F1A8
:105A2000300000231C4618F8013B04EB840400EB13
:105A30004404A3F130000928F5D90C94FFF72CBADF
:105A40001193AB46002A40F07385079B4C489D0696
:105A50003FF5A3AE079BDC0640F1B5820E9A002508
:105A60001346043314680E93A0E61193AB46002A44
:105A700040F05A85079B43F010030793079B980655
:105A800040F1F1800E9C073424F00704D4E9002390
:105A900004F108011D4614460E91002A73F100031B
:105AA000C0F2F280BBF1000F9DF86F70C0F20A8166
:105AB000079B23F08003079354EA05037FF448AE65
:105AC0008EE71193AB46002AD8D08DF86F10D5E73A
:105AD000079B43F04003079398F80030FFF7DAB9CB
